:020000040000FA
:0600000002011D021D9625
:03002B000224327A
:03005300021E0C7E
:03006B000224006C
:10008300021C87E5C754F84401F5C7790122000033
:100093000080FB120086B90003020107E47921788E
:1000A30008B800028004F709D8FCE479297802B87B
:1000B30000028004F709D8FCE490028178D2790722
:1000C3008002F0A3D8FCD9FA781A90014D7A01BACC
:1000D30000028007E493A3F608DAF9900952AA8292
:1000E300AB8390014E783879048015E493A3AC82F6
:1000F300AD838A828B83F0A3AA82AB838C828D83A8
:10010300D8E9D9E77582D3758396740312012F75E5
:100113008291758300740012012F75D00075813FA1
:10012300751881751902759F00020096C09FF59F8F
:10013300E473D09F22D083D082C09FE493C0E07445
:100143000193C0E0740293F59F2201FF0000B40005
:100153000028002800283075A000A000A000A000FF
:1001630000080008E001F00010001000100010006B
:100173001000100050005000500010001000D00775
:100183000000000000000F000100050030750700AB
:100193001000010081FF0000FF8306A1068906FF0E
:1001A30002020208025000A0000000E803021E90B1
:1001B3000100000790021A90010000A709020E90A7
:1001C300010000B202021A90010000A80902109077
:1001D300010000C802021A90010000A9090212904E
:1001E300010000CA02021A90010000AA0902149039
:1001F300080000CB02021A90010000AB090216901E
:10020300010000AC09FF0100FF20021E9001000065
:100213000490021A90010000100A021890000000D6
:100223000000020C900300001803B30CB30CB30CD2
:10023300B30CB30CB30CB30CB30CB30CB30CB30CC3
:10024300B30CB30C890FA10F830FFFFF020202024D
:100253000202020202010D0000001001021E9001C1
:1002630000000190021A90010000530A022E90012F
:1002730000007807021A90010000540A022C900132
:100283000000138F021A90010000550A022A900100
:100293000000F78E021A90010000560A022890010E
:1002A3000000A38E021A90010000570A0226900153
:1002B3000000B58E021A90010000580A0224900132
:1002C3000000918E021A90010000590A0222900147
:1002D30000007F8E021A900100005A0A0246900124
:1002E3000000058F021A900100005B0A023E900194
:1002F30000005C0A01E803053F10FF0001307503AD
:1003030002010600000000000000000000000000E1
:10031300000000000000000000000000000000FFDB
:10032300FF0600800CE803140953696D706C654285
:100333004C455065726970686572616C05125000B6
:100343002003020A000201050302F0FF53696D70E6
:100353006C6520424C452050657269706865726116
:100363006CBB130000C1130A436861726163746557
:100373007269737469632031000243686172616357
:10038300746572697374696320320008436861722B
:100393006163746572697374696320330010436821
:1003A30061726163746572697374696320340002F6
:1003B300436861726163746572697374696320353C
:1003C30000021E90010000FE8F021A900100006ED1
:1003D3000B0234900300003C09020A900100006FF5
:1003E3000B021A90010000800B0236900100003DC1
:1003F30009020A90010000810B021A900100009289
:100403000B0238900200003E09020A90010000939B
:100413000B021A90010000A40B023A900000003F67
:1004230009020C900300004009020A90010000A594
:100433000B021A90010000B60B023C900400004628
:1004430009020A90010000B70B104B657920507226
:1004530065737320537461746500021E900100007C
:10046300FB8F021A90010000500C02449000000020
:100473004B09020C900300004C09020A9001000092
:10048300510C120138508C03120138678C0312018E
:1004930038968C03120138CF8C03120138F78C0382
:1004A300120138258D031201383C8D031201385394
:1004B3008D03120138698D03120138908D031201E7
:1004C30038A38D03120138B98D03120138CC8D0383
:1004D300120138F18D031201381E8B021201381DEF
:1004E3008C02120138528C02120138738C021201F1
:1004F30038838C02120138A48C02120138B08D02A9
:100503001201387D8E02120138F08E021201387604
:100513008F02120138B98F02120138F08F021201D3
:1005230038769002120138489102120138A69102DE
:10053300120138BE91021201383892021201383B7F
:1005430092021201383E9202120138E59202120120
:1005530038FD92021201382D93021201384D930295
:100563001201383B9402120138F1940212013877D8
:10057300D8021201389FD802120138CDD8021201D5
:100583003804D9021201386CD902120138B5D902E4
:1005930012013800DA021201383EDA021201387B06
:1005A300DA02120138A9DA0212013850DB02120111
:1005B300385ADB0212013867DB021201389ADB0278
:1005C3001201385CDC0212013868DC021201388047
:1005D300DC021201388ADC021201389794031201FB
:1005E30038A59403120138BD9403120138D594033E
:1005F300120138CEAE011201386CAF01120138E49A
:10060300AF01120138F9B00112013833B1011201FF
:1006130038DCB101120138B1B20112013815B4014D
:100623001201386CB401120138F3B401120138DA43
:10063300B50112013827B601120138B5B60112010E
:1006430038D9B601120138AEB801120138EFB8013A
:1006530012013811B90112013892B9011201387C23
:10066300BA0112013842BB01120138A4B8021201C7
:100673003876B9021201381FBA0212013862BA027F
:10068300120138EFBA021201387BBB021201385C47
:10069300BC021201388BBC0212013887BD02120161
:1006A30038CFBD02120138D1BE0212013815BF0284
:1006B3001201383BBF021201386E95031201381A3A
:1006C300EE0212013830EE0212013856EE02120128
:1006D300387EEF0212013888EF02120138E1F0028E
:1006E300120138E1F10212013837C5021201386CE8
:1006F300C6021201389FC602120138E9C60212016E
:1007030038A7C802120138499001120138AC900190
:10071300120138F1910112013801920112013824BA
:1007230092011201386F92011201381493011201E0
:10073300380A9401120138D494011201384C9601FD
:100743001201388E96011201382C97011201387963
:1007530097011201389F97011201388D99011201F7
:1007630038929901120138739B01120138C79B011A
:10077300120138299C01120138519C01120138F5EC
:100783009C01120138B79D01120138E89D01120145
:1007930038EB9D01120138339E01120138759E0119
:1007A300120138DC9E011201380080031201381354
:1007B30080031201382C8003120138778003120161
:1007C30038528103120138E181031201382C82036C
:1007D3001201385824001201386424001201389D94
:1007E3002400120138E22400120138992500120175
:1007F300381F2600120138842600120138B0260063
:10080300120138E92600120138FD2800120138D9F7
:100813002A00120138C42C00120138FB2D001201EA
:10082300385B30001201384731001201388D320035
:100833001201389A3300120138B73300120138EF2E
:1008430033001201380934001201387134001201E7
:10085300380B3900120138AC3900120138FD390068
:10086300120138243A00120138723A00120138900A
:100873003A00120138E43A00120138BD3B0012017C
:1008830038443D00120138CC3D00120138CDD3026B
:10089300120138D7D302120138A2D402120138BD93
:1008A300D402120138E3D40212013827D50212010F
:1008B300385FD50212013888D50212013801D602F9
:1008C30012013816D6021201382BD60212013862F1
:1008D300D60212013876D602120138A7D6021201C7
:1008E30038E1D6021201380DD70212013863D7025C
:1008F300120138B7D70212013800D8021201382A80
:10090300D8021201384FD8021201382EEA0212011E
:1009130038F8EA02120138DBEB0212013851EC021B
:1009230012013893EC02120138C0ED02120138595A
:10093300F30112013882F3011201389BF301120112
:1009430038E0F401120138BEF501120138DDF5017A
:100953001201386AF601120138ADF601120138FAB4
:10096300F70112013899F80112013818FB0112013D
:1009730038AFFB0112013883FC0112013865FD0118
:10098300120138D1FE0112013864FF01120138E966
:10099300FE0212013852FF02120138A6FF021201B1
:1009A30038CDFF02120138C0E1021201382DE202F4
:1009B30012013878E2021201386DE302120138693C
:1009C300E40212013853E50212013800A8021201B1
:1009D3003842A8021201381CA902120138F5A902F3
:1009E300120138F0AA02120138CFAB021201383BD0
:1009F300AC0212013802AD021201386DAD021201D0
:100A030038D4AD02120138FFAD0212013870AE02C4
:100A130012013803AF021201386CAF0212013881A0
:100A2300AF02120138C9AF02120138E2AF0212015C
:100A33003847B0021201384AB0021201380BF902EA
:100A430012013833F90212013871F9021201382FF9
:100A5300FA021201389AFA02120138B6FA021201A6
:100A630038DEFA021201380EFB021201381DFB02B6
:100A730012013897FB02120138BDFB02120138A69E
:100A83009F0112013843A10112013829A301120168
:100A930038F3A3011201383AA40112013881A401E9
:100AA30012013893A401120138D3A40112013802B0
:100AB300A5011201384EA50112013886A5011201C4
:100AC30038B4A50112013805A60112013894A60114
:100AD30012013882A9011201385CAB011201389866
:100AE300AB01120138F2AC0112013839AD01120128
:100AF30038AEAD01120138FCAD0112013833AE013D
:100B0300120138FD9E021201381A9F02120138B4F5
:100B1300A402120138B6A50212013830A70212014D
:100B230038DEA7021201381352001201385C52005A
:100B3300120138895200120138BC5200120138C91F
:100B43005200120138D55200120138E75200120147
:100B530038BC53001201381A54001201384F5400A4
:100B6300120138EB55001201383856001201385C77
:100B73005600120138C956001201386E570012018F
:100B8300382A5800120138A958001201386D59004B
:100B93001201387C5900120138FD59001201389CAA
:100BA3005A00120138CE5A00120138695B00120153
:100BB30038C75B00120138015C00120138825C0007
:100BC3001201384B5D00120138F45D001201387BCD
:100BD3005E00120138D35E00120138345F00120147
:100BE300385D5F001201381360001201385D610047
:100BF300120138A06100120138BD6100120138DC16
:100C030061001201382762001201384C62001201A0
:100C130038756200120138E462001201382663005D
:100C23001201382A6400120138C46400120138909A
:100C33006500120138A965001201385C95021201A2
:100C430038AF9502120138BB950212013890960213
:100C5300120138B79602120138F296021201385E79
:100C63009702120138929702120138CB97021201B0
:100C730038E397021201383C980212013855980262
:100C83001201389E9802120138B19802120138CB32
:100C93009802120138E19802120138FD99021201FB
:100CA300380E9B021201385B9C02120138409D02F0
:100CB300120138EF7F0012013873E601120138A7E1
:100CC300E60112013812EA011201385CEB0112014C
:100CD3003826EC01120138B0ED011201388BEE0118
:100CE300120138C5EE01120138E8EE011201382A6B
:100CF300EF0112013833EF011201387DEF011201C8
:100D03003887EF0112013833F00112013807F1017E
:100D13001201385BF101120138BDF10112013810E3
:100D2300F2011201383FF2011201387EF201120181
:100D330038DB6500120138356E001201383B6E0056
:100D4300120138F67300120138DC7700120138EB18
:100D5300F10212013861F20212013877F202120134
:100D630038B4F202120138ECF20212013869F302CC
:100D7300120138A4F3021201381FF4021201385B86
:100D8300F40212013864F40212013870F402120101
:100D9300388AF402120138AFF402120138C5F402A2
:100DA300120138EEF40212013851F5021201385DD6
:100DB300CA0212013870CA021201388ACA02120129
:100DC30038B3CA02120138F6CA0212013835CB020F
:100DD30012013873CB02120138D8CB02120138ED5D
:100DE300CB02120138F8CB0212013805CC021201F2
:100DF300381CCC021201382ACC0212013835CC023D
:100E030012013841CC0212013854CC021201385F6E
:100E1300CC0212013882CC021201382BCD0212010E
:100E2300383BCD0212013855CD0212013872CD0282
:100E33001201388ECD02120138B3CD02120138BD32
:100E4300CD02120138D1CD02120138F0CD021201C8
:100E53003851CE0212013857CE021201385DCE024C
:100E630012013863CE021201386FCE02120138A28A
:100E7300CE02120138FACB011201387CCC011201E7
:100E83003825CD011201386DCE011201387BD00116
:100E930012013861D10112013896D101120138B81B
:100EA300D10112013861D20112013831D40112018A
:100EB300385AD401120138D2D40112013804D501B1
:100EC30012013811D5011201385CD50112013880A5
:100ED300D501120138D1D701120138DBD801120133
:100EE3003837D90112013877BD0112013888BE01A4
:100EF3001201386CBF0112013876BF011201389814
:100F0300BF01120138A4BF0112013848C101120107
:100F13003875C1011201388BC201120138E0C201D8
:100F23001201382FC40112013804C50112013860BF
:100F3300C501120138CBC50112013800C6011201E7
:100F43003843C6011201380DC90112013825C90100
:100F5300120138B6C901120138C4C901120138118E
:100F6300CA011201381FCA011201388BCA011201CA
:100F73003806CB011201385DCB0112013800800223
:100F8300120138228002120138338202120138F230
:100F930084021201381C8602120138DA8602120119
:100FA30038C68702120138978A03120138BC8A03B4
:100FB300120138328B031201382B780012013834B6
:100FC30078001201383D78001201381579001201BA
:100FD30038C67A00120138F67A00120138217B00F4
:100FE300120138517B001201387C7B00120138B0AA
:100FF3007B00120138DC7B001201381F7C001201D8
:10100300384A7C00120138917C00120138E67C00DA
:10101300120138287D00120138827D00120138AD9B
:101023007D00120138FC7D001201382C7E00120174
:1010330038577E00120138857E00120138A87E00E1
:10104300120138F795031201382396031201385021
:1010530096031201385A96031201386A9603120155
:1010630038B0BF02120138BABF02120138FBBF0207
:1010730012013844C0021201387EC002120138D472
:10108300C002120138F5C002120138FEC00212017B
:101093003852C1021201387BC10212013885C102E4
:1010A300120138F3C10212013883C202120138DE81
:1010B300C2021201380CC30212013894C302120196
:1010C30038D3C30212013808C4021201381AC40209
:1010D30012013839C40212013842C402120138091C
:1010E300C502120138CC9103120138D786031201CD
:1010F300380D87031201384187031201388E8803A4
:10110300120138487F001201385E7F0012013868EF
:101113007F00120138B27F00120138749603120166
:10112300381FDD0212013832DD02120138F3DD020D
:1011330012013832DE021201384FDE021201388802
:10114300DE02120138D5DE0212013807DF02120176
:10115300383EDF0212013847E102120138B3E102DF
:10116300120138C39203120138E6920312013815B3
:1011730093031201382D93031201386F9303120165
:101183003805FC021201382AFC0212013854FC0211
:101193001201382B9703120138333E001201381124
:1011A3004000120138B041001201385B42001201C5
:1011B30038DB4200120138604300120138894300D2
:1011C300120138644700120138DB4700120138F27C
:1011D30048001201382C49001201386D49001201F0
:1011E30038B44A001201380A4B00120138534B003D
:1011F300120138C24B001201382E4C001201385F25
:101203004C00120138774C00120138904D00120146
:1012130038A04D00120138564F001201386D4F00AF
:101223001201389F4F00120138415100120138D585
:101233005100120138DE7F00120138819703120139
:1012430038C09703120138F79703120138B8930394
:10125300120138C89303120138DD93031201389148
:101263009403120138CA90031201384F91031201FB
:1012730038B391031201389B8F03120138BD8F03DA
:101283001201381E90031201383090031201388086
:101293009003120138BE9003120138C1900312016A
:1012A3003815E60212013829E602120138A3E602D4
:1012B30012013887E7021201385EE902120138C3CE
:1012C300E9021201381AEA02120138F87F0012010A
:1012D300389D84031201382D86031201388E86034C
:1012E300120138D48603120138038E0312013855D4
:1012F3008E03120138C88E03120138358F03120191
:10130300385682031201388082031201384F830357
:101313001201382B84031201386EB0021201383ADD
:10132300B1021201387BB102120138B5B1021201C8
:101333003813B20212013867B202120138C5B20281
:101343001201385BB30212013863B402120138EDA3
:10135300B5021201388BB602120138F2B60212013D
:101363003805B702120138F9B70212013842B80240
:1013730012013884D901120138B6DC011201384751
:10138300DE011201389EDE01120138BBDE011201BB
:10139300383BDF01120138B7E00112013886E10161
:1013A300120138F3E401120138DDE5011201381F9F
:1013B300CF02120138C5D102120138EED202120156
:1013C3003898D30212013881F502120138C6F502AA
:1013D300120138E3F50212013899F602120138ECD2
:1013E300F602120138BCF702120138D2F8021201D8
:1013F30038C888031201380D890312013861890343
:10140300120138E689031201385E8A03120138CAD1
:101413009703120138DBFF01E066701008A3E06652
:10142300700A08A3E066700408A3E06622C3E79687
:101433000809E7960809E7960809E79622C3E096A4
:1014430008A3E09608A3E09608A3E09622C008C389
:10145300E096F50808A3E096420808A3E096420840
:1014630008A3E09645087001D3D00822080808EACB
:10147300C0E0EBC0E086F0E7A4FA180986F0E7A421
:101483002AFA180986F0E7A42AFA180986F0E7A4CD
:101493002AFA1986F0E7A4FBE5F02AFA190886F080
:1014A300E7A42BFBE5F03AFA190886F0E7A42BFB37
:1014B300E5F03AFA18180986F0E7A4C5F02BFBE427
:1014C3003AFA1908E7C5F0C6A426F6E5F03BFBE4B3
:1014D3003AFA1886F0E7A4F6E5F00826F6E43B08A6
:1014E300F6E43A08F6D0E0FBD0E0FA22E4CFC0E01D
:1014F300E4CEC0E0E4CDC0E0E4CCC0E075F020C3AE
:10150300E633F608E633F608E633F608E633F6186C
:101513001818EC33FCED33FDEE33FEEF33FFC3EC71
:101523009709ED9709EE9709EF97191919400FFFDE
:10153300EC97FC09ED97FD09EE97FE191906D5F016
:10154300BEECF709EDF709EEF709EFF7191919D012
:10155300E0FCD0E0FDD0E0FED0E0FF2260160808FA
:1015630008C6C313C618C613C618C613C618C613AF
:10157300C6D5E0EA22700908080822601618181870
:10158300C6C333C608C633C608C633C608C633C681
:10159300D5E0EA22E627F60809E637F60809E63732
:1015A300F60809E637F622E026F608A3E036F60841
:1015B300A3E036F608A3E036F622E026F008A3E01F
:1015C30036F008A3E036F008A3E036F022C3E6972E
:1015D300F60809E697F60809E697F60809E697F686
:1015E30022C3E096F008A3E096F008A3E096F00883
:1015F300A3E096F022E056F608A3E056F608A3E02F
:1016030056F608A3E056F622E056F008A3E056F09B
:1016130008A3E056F008A3E056F022E0F608A3E0A2
:10162300F608A3E0F608A3E0F622E6F008A3E6F046
:1016330008A3E6F008A3E6F022E0FAA3E0FBA3E0A8
:10164300FCA3E0FD22EAF0A3EBF0A3ECF0A3EDF0A2
:1016530022CAC0E0E6F0A308DAFAD0E0FA22CAC050
:10166300E0E0A3C582CCC582C583CDC583F0A3C505
:1016730082CCC582C583CDC583DAE6D0E0CA22C356
:10168300E498F8E499F91216C38026C3E49AFAE4BD
:101693009BFBE920E7E91216C3E498F8E499F922E1
:1016A300C3E498F8E499F91216C3E498F8E499F9B5
:1016B300C3E49AFAE49BFB22EB20E7CFE920E7E0BF
:1016C300B90010BB0008E88AF084F8AAF022E4FB12
:1016D300C8FA22EB70227B10C833C8C933C9335010
:1016E30007C39AC3DBF280069A50012ADBEAC833A8
:1016F300F4C8C933F4C9FA2275F008E4C833C8C979
:1017030033C933C99AC99B5004C92AC93BD5F0ECE4
:10171300FBC833F4C8E4C9FA22600D08C6A2E71374
:10172300C618C613C6D5E0F322600C08C6C313C699
:1017330018C613C6D5E0F422700422600D18C6C380
:1017430033C608C633C6D5E0F41822251810AF08EF
:10175300F518400215198008F51840021519D2AF83
:1017630022C0D0251810AF08F518500205198008BB
:10177300F51850020519D2AFD0D0222518F58210E2
:10178300AF08F518400215198008F518400215191D
:10179300D2AF851983222518F582E43519F5832202
:1017A300E4732518C582C0E0E51934FFC583C0E0A2
:1017B300E518C3958224F810AF088583198582182C
:1017C3008008858319858218D2AFCEF0A3E520F077
:1017D300A37808E608F0A3DEFAEFF0A3E58124FA84
:1017E300F8E608F0A3E608F0A3E608F0A30808E685
:1017F30008F0A3E608F0A315811581D0E0FED0E040
:10180300F8158115811581E8C0E0EEC0E0222518A6
:10181300C582C0E0E51934FFC583C0E0E518C39570
:101823008224F910AF08858319858218800885837F
:1018330019858218D2AFCEF0A3E520F0A37808E68D
:1018430008F0A3DEFAEFF0A3E58124FBF8E608F045
:10185300A3E608F0A30808E608F0A3E608F0A3153A
:10186300811581D0E0FED0E0F815811581E8C0E054
:10187300EEC0E022851983851882E0A3FEE0A3F57C
:10188300207808E0A3F608DFFAE0A3FFE0A3C0E0B6
:10189300E0A3C0E0E0A3C0E0E0A3C0E0E0A3C0E0B9
:1018A30010AF08858218858319800885821885837F
:1018B30019D2AFD083D0820201358519838518826E
:1018C300E0A3FEE0A3F5207808E0A3F608DFFAE042
:1018D300A3FFE0A3C0E0E0A3C0E0E0A3C0E0E0A377
:1018E300C0E010AF088582188583198008858218A7
:1018F300858319D2AFD083D08222C0D02518C58268
:10190300C0E0E51934FFC583C0E0E518C395822420
:10191300F310AF088583198582188008858319859C
:101923008218D2AFC8F0A3E9F0A3EAF0A3EBF0A3C7
:101933007908E709F0A3D8FAECF0A3EDF0A3EEF0F1
:10194300A3EFF0A3D0E0F0A3D0E0F0A3D0E0F0A3A6
:10195300E520F0A3E5F0F0A322851983851882E042
:10196300C0E0A3E0F9A3E0FAA3E0FBA37808E0F664
:1019730008A3DFFAE0FCA3E0FDA3E0FEA3E0FFA3DE
:10198300E0C0E0A3E0C0E0A3E0F5D0A3E0F520A32E
:10199300E0A3F5F010AF08858319858218800885C8
:1019A3008319858218D2AFD082D083D0E0F8D0E0FB
:1019B3003274048006740280027401C0E0F40412DD
:1019C300177ED0E01216542274048004740280003F
:1019D300CCC0E0EDC0E0E518C39CCCAD1950011DAF
:1019E30010AF068C188D1980068C188D19D2AF1282
:1019F3001661D0E0FDD0E0FC22D083D082E9C0E0C4
:101A0300E493A3C386F0C5F095F0F908E493A386A5
:101A1300F0C5F095F0700BE493A3C3994005E90476
:101A23008002A3E475F002A42582F582E5F03583F4
:101A3300F583D0E0F9E493A3C0E0E493C0E022D0BF
:101A430083D082ECC0E0EDC0E0E493A3FCE493A375
:101A5300FDED4C600D121A8EEC24FFFCED34FFFDFE
:101A630080EFE493A3FCE493A3FDED4C600D121A05
:101A7300CDEC24FFFCED34FFFD80EFD0E0FDD0E0A2
:101A8300FCE493A3C0E0E493C0E022C0E0C3E4938A
:101A930096087401939618400FE4936670080874CF
:101AA3000193661870007019A3A3C3E49396087496
:101AB30001939618A3A3400DD0E0D0E0D0E0021A22
:101AC3007EA3A3A3A3A3A3D0E022C0E0C0F088F029
:101AD300E4936670080874019366187000A8F0A375
:101AE300A3700BD0F0D0E0D0E0D0E0021A7EA3A325
:101AF300D0F0D0E02274F5121811EAFEEBFFEE24C9
:101B030034F8EF3400F988088909EE2435121C30C3
:101B1300F8EE2437121C30F50AEC850AF0A4FCAA6F
:101B2300F0850AF0EDA42AFDE82CF8E43DF97A25C6
:101B33007B001216C3EA850882850983F05407F8EF
:101B43007401B800028004C333D8FCC0E0E013136F
:101B530013541FF8EE28F8EF3400F9E8245DF582FA
:101B6300E93400F583D0E0F8E05860088508828501
:101B73000983801DEE2436121C30F5F0EA84A8F0A8
:101B8300EE28F8EF3400F9E82438F582E93400F55B
:101B930083E0F97F040218BD74F5121811EAFEEB15
:101BA300FFEE2434121C30C0E0EE2435F582EF340E
:101BB30000F583D0E0F08E828F83A3A3A3A3A3E0D9
:101BC300FAA3E0FB8E828F83A3A3A3A3A3A3A3E023
:101BD300FCA3E0FDECC39AF50AED9BF50BEE248024
:101BE300F508EF3400F509850882F583E064017098
:101BF3002BEE2481F582EF3400F5831219CF121CEA
:101C0300397402121764E960137CFD7D04EEFAEF68
:101C1300FB120BE1850882850983E4F0AC0AAD0B66
:101C2300EEFAEFFB121AF81223F2021B96F582EF7B
:101C33003400F583E022C082C0838518828519832E
:101C4300E0F8A3E0F9C3EA9CEB9D5012C3EC98EDD6
:101C5300994019C3EA98EB99501279018010C3EAAD
:101C630098EB9940F5C3EC98ED9950EE7900D08349
:101C7300D08222EAC39CFAEB9DFB220000852187D8
:101C83008522C622C0E074EF1218FD759B00906197
:101C930082E0A2E64003021D48E591A2E64003026A
:101CA3001D487591BF9003C2E064057008120D7F53
:101CB300120D8B8003120D85752100120DF7E9902B
:101CC30003C3F07900120DEB120B4B7A017B0090EA
:101CD30003C1E0F91210BB907803E0644260030291
:101CE3001D9190055FE014F06003021D91C2AF12D5
:101CF3001CF500782AD0E0F618D0E0F6E59F5407EB
:101D0300F97005908F7B8003908F77780812161EE9
:101D1300E9C4C0E07829E65508F50808E65509F551
:101D230009740B780812172CD0E02508F89062701C
:101D3300E0A2E740F8E8C333906272F0906270E08B
:101D4300D2E0F08049E0A2E55024E591A2E5501EDF
:101D53007591DF9003C2E0640D70139003E4E00417
:101D6300F064287002E4F07A00E0F9120E699061E1
:101D730081E0A2E35009E5E9A2E3500375E9F7A383
:101D8300E0A2E75009E591A2E7500375917F7F0434
:101D930002195CC0E0C0D0C082C083906183E0A21E
:101DA300E05009E5BFA2E0500375BFFEE0A2E15099
:101DB30009E5BFA2E1500375BFFDE0A2E25009E5CA
:101DC300BFA2E2500375BFFBE0A2E35009E5BFA247
:101DD300E3500375BFF7E0A2E45009E5BFA2E45066
:101DE3000375BFEFE0A2E55009E5BFA2E550037517
:101DF300BFDFE0A2E65009E5BFA2E6500375BFBF0F
:101E0300D083D082D0D0D0E032C0E074F21218FD7B
:101E1300E5A7A2E4500FE5A1A2E4500953A7EF758B
:101E2300A1EF121E60E5A7A2E5500CE5A1A2E550C3
:101E33000653A7DF75A1DFE5A7A2E15009E5A1A23B
:101E4300E1500375A1FDE5A7A2E2500CE5A1A2E2D2
:101E5300500653A7FB75A1FB7F0102195C74F812AE
:101E630018117521019003C2E0640670077A007BA4
:101E730000120D67A2AFE433FED2AF9003C8E06453
:101E83000170187A207B009003C1E0F91211457AA2
:101E9300207B009003C1E0F91210C1906182E0D26F
:101EA300E6F090055EE0602185C62280169003C7A8
:101EB300E064017008E5C654F84405F5C653BEFC5A
:101EC300121C807401652160E4EEA2E092AF7F01F1
:101ED3000218BD00008E238F2485822885832785E1
:101EE3001882851983E0CEA3E0CF852882852783D6
:101EF300EBC9EAC8EDCBECCA75F010C3E833C8E907
:101F030033C9EA33CAEB33CBC3EA9EF526EB9FF51D
:101F130025B35004AB25AA26EC33CCED33CDD5F055
:101F2300DAAE23AF242274E912181174FA12174E91
:101F3300EAFEEBFF8C088D099003C2E024F7C394FB
:101F4300055006908FEF022050120CE38A0A8B0B88
:101F5300EA450B700302204D120D9D8A0C8B0D1266
:101F63000D9DEA650C7003EB650D60ECEEFCEFFD77
:101F7300851882851983AA82AB83120DA3850A82F1
:101F8300850B83A3A3780C12161E908FCF780C12A7
:101F930015F8851882851983781412161E908FCF31
:101FA30078141215F8780C7914121430501F780C29
:101FB30079141215D0908F6F780C12145040478506
:101FC3000C10850D11850E12850F13804185141099
:101FD3008515118516128517137810790C1215D0F3
:101FE300908F6F7810121450501C751000751100EB
:101FF300751200751301781079141215D0781079C1
:102003000C1215978008908FEF781012161E740922
:102013007810121578908FDF780C12161E781079CD
:102023000C1214EF9003C2E06408600AE0640660D7
:1020330005E06405701C908FD37810121450501271
:10204300908F7378101215AA8008908F9B781012C6
:10205300161E850882850983781012162D740612C0
:1020630017647F100218BD74F7121811120DB59082
:10207300055CE064017010906245E4F0A3F053F452
:10208300F343FE0C5390F3120D55E5C654804449B7
:10209300F5C6E59E547F644970F8906185740FF02E
:1020A30090055AE0F47002A3E0602C7508017509ED
:1020B3000090055AE0780812173BE508F4FAA3E00C
:1020C300600814600A14600C800DEA52808008EAEC
:1020D30052908003EA52A079007F020218BD74F780
:1020E300121811E9FEEAFF74016E700C7A807B000E
:1020F3009003C1E0F91210BB902450E493F46008FC
:10210300E493F9120B2D800953C680E59E547F702A
:10211300FA120D5B90055CE064017003120B63908F
:10212300055AE0F47002A3E0602A750801750900FE
:1021330090055AE0780812173BAA08A3E060081438
:10214300600A14600C800DEA42808008EA429080A5
:1021530003EA42A0120CE38A088B09A808A909E83C
:10216300496017E5E170FCE82414F582E93400F5D1
:1021730083E0F874FF68600288E174016F700A7A83
:10218300019003C1E0F912110F0220DC74F112185F
:10219300118A088B098C0A8D0B740F121799780C0E
:1021A30012161E908FCF78081215F8908FCF780CE7
:1021B3001215F87808790C12143050157808790C38
:1021C3001215D0908F6F7808121450401579018042
:1021D30013780C79081215D0908F6F780C12145065
:1021E30040EB79007F080218BD74ED1218118A08BC
:1021F3008B098C0A8D0B7413121799780C12161E07
:10220300908FCF78081215F8908FCF780C1215F8AD
:10221300780C790812143040117808790C1215D013
:10222300AA08AB09AC0AAD0B80227510007511002A
:102233007512007513017810790C1215D078107986
:1022430008121597AA10AB11AC12AD137F0C02182C
:10225300BD908FCF780812161E8A828B837808125E
:10226300160B7F040218BD74F51218118C828D832E
:10227300780812161E8A828B8378081215E41222BC
:10228300BEC3E098F0A3E0991222B0401E908FF7EE
:10229300780812161E8A828B8378081215BD8E82E7
:1022A3008F83E02420F0A3E0344EF080A4F08E82EC
:1022B3008F83C3E09420A3E0944E22EA2404F8EB36
:1022C3003400F9E8FEE9FF8C828D83A3A3A3A3E086
:1022D300F8A3E0F98E828F832274F5121811E9FEB8
:1022E300900514E0FAA3E0FBEEC333F8E433F9748A
:1022F300E728F582748E39F583E02AF508A3E03BDD
:10230300F50978081219B8908FF312163C121ED8EB
:1023130074021217648A088B098C0A8D0B74107867
:102323000812155FAA08AB097F040218BD74F112E5
:1023330018118A0C8B0D8C0E8D0F740F121799E0E8
:10234300FAA3E0FB7411121799E0F508A3E0F5096D
:102353007413121799E0FEA3E0FF78081219B8EA84
:102363002401F508EB3400F509E4F50AF50B780CC4
:10237300790812146F908F7F780812161E780C79E3
:102383000812146FAA0CAB0DAC0EAD0F121ED8744D
:10239300021217648B09EA450960047A0180027A04
:1023A30000EC2AFCED3400FDECF8EDF97A717B02C8
:1023B3001216C388088909E4F50AF50B8E828F8308
:1023C300780812162DECF8EDF97A717B021216C318
:1023D3008A088B097405780812173B8E828F83A3B2
:1023E300A3A3A3E508F0A3E509F07F080218BDC085
:1023F30082C083E9906000F0D083D08222C0E07471
:10240300F21218FDA2AFE433FED2AFE589A2E04099
:1024130006E589A2E1500312128F758900758900C0
:10242300C2C5751A00EEA2E092AF7F0102195CC02B
:10243300E0C0D0E8C0E0E5A8D2AFC2C7751A00A2D9
:0B244300E792AFD0E0F8D0D0D0E0323C
:10245000FFFFFFFFFFFFFFFFC082C083E9900A0F6D
:10246000F00226DC74F71217A5E99002E0F07C1860
:102470007D037AFF7BFF1208639002E174FFF0A3F3
:10248000F0A3E4F0A3F079051207EB9002E0E0F985
:102490001207137A817B08120A430233EA74F4129A
:1024A00017A58A088B09EB548060309002E0E0F9B0
:1024B0001210A38A0A8B0BAE0AAF0BEE4F60138E7D
:1024C000828F83E064B07003120803EEFAEFFB1210
:1024D0001091AA08E5096480FB80047A007B000261
:1024E00026AB74F21217A574FC12174EEAFEEBFF2E
:1024F00074121217991238D1EE4F700302258574A9
:1025000002121799EEF0A3EF1228E6ECF0A3ED12F9
:1025100028E6AA82AB8312070DE9F50A706AE5087E
:10252000450960648E828F831238B7EE4F60567A09
:10253000067B001210F78A0C8B0DA80CA90DE84938
:102540007005750A13804188828983E4122592EE12
:10255000F0A3EF1238E2E508F0A3E509F09002E6F7
:102560001226199002E67005123394801B123382F2
:102570008003EAFCEBFD8C828D8312261970F38CAC
:10258000828D8380E3750A02A90A7404121764021B
:102590003AD1F0A3123888A32274F21217A5890A3F
:1025A000E975F017A4FEAFF09002E5E4F09002E3C5
:1025B000122619600A1210FD9002E3E4F0A3F0EE77
:1025C000FAEFFB1210F78A088B09EA4509602FEE33
:1025D000FCEFFD790012107F9002E3E508F0A3E51F
:1025E00009F07B008008122603E4F0A3F00BEBC394
:1025F000950A40F2E50A9002E5F07900800279132D
:10260000023AD1EB75F017A4F8A9F09002E3E028A4
:10261000FAA3E0398A82F58322123026EA4B22742B
:10262000F41217A5740C1217991238ACFEE9FF7555
:102630000800750900800CE5082401F508E5093457
:1026400000F509C3E5089CE5099D503285080A8517
:10265000090B7403780A12173BEA250AF8EB350BCD
:10266000F988828983A3A3A3A3A3A3123469EE6587
:102670000A7003EF650B70BFE8FAE9FB80047A008B
:102680007B00802774F41217A57900EAA2E0501BA2
:1026900075084C75098F78081219B87C047D007A8A
:1026A000117B0A1207E574021217647F040218777F
:1026B000C082C0839002E61226E3601C8882898370
:1026C000A3A3E06A7003A3E06B8882898370E8A308
:1026D000A3A3A312302280047A007B00D083D0828F
:1026E000020135123BB7E8492274EE1217A574FCBB
:1026F00012174EEAFEEBFF851882851983E4F0A3DA
:10270000F0EE2402123374EE240512388FEE240406
:10271000F50EEF122C9BE024FE603924FC60462469
:10272000FE605224FE605E24FE70030227FC24FE3D
:10273000700302286024FE700302286F24FE7003D9
:1027400002287E24FC700302288D24FE70030228D8
:102750009C0228D99002FF7417F0A3E41228EE120D
:10276000048B0228D9851882851983AC82AD831227
:1027700008090228A9851882851983AC82AD8312C5
:10278000080F0228A9850C08850D097402121799F3
:10279000AC82AD838508828509831230221207310D
:1027A0008A0C8B0DAC0CAD0DEC4D603BE4F50CF5DB
:1027B0000D780C1219B8750CFF750D02780C1219F2
:1027C000B8750C00750D03780C1219B8740812173F
:1027D000991219CF123D33121764E9F50C700B12E0
:1027E00030181204A3800F750C01850882850983B7
:1027F0001228DC123394850C080228AC74021217DC
:1028000099AC82AD83850C82850D83122DED603CE1
:10281000850C82850D83A3A31219CF7510FF751146
:102820000278101219B8751000751103781012197A
:10283000B874081217991219CF123D33121764E9B0
:10284000F509700B1230181204A9800F7509018563
:102850000C82850D831228DC123394850908804C84
:10286000851882851983AC82AD83120815803A855C
:102870001882851983AC82AD8312081B802B8518C2
:1028800082851983AC82AD83120821801C85188251
:10289000851983AC82AD83120827800D8518828547
:1028A0001983AC82AD8312082DE9F508E50860298B
:1028B0008E828F83A3E06414601F850E82850F8350
:1028C000E09002FF1228E6123BB39003001233940B
:1028D000E508A31228EE120485023283123BB78565
:1028E000188285198322F085188285198322F07C4D
:1028F000FF7D02850A82850B831230262274EE1238
:1029000017A574FC12174E8A0A8B0B8C0E8D0FEADA
:102910002405F508EB3400F5097C157D0079007A73
:10292000FF7B0212107FE5082402F50CE50912383E
:1029300092851882851983858210858311781012FB
:1029400019B8850882850983A3A3A3A3122DE412D5
:1029500019B8E5082405F510E5093400F5117810DB
:102960001219B8850C82850D8312313912072B7428
:10297000061217648A108B11AE10AF11E50A2402FB
:10298000F50AE50B123377EE4F7003022ABB80176E
:10299000740212179912302288828983EAF0A3EB1D
:1029A000F09002FFE004F09002FFE0C394054003C2
:1029B000022ABBE4F510F51178101219B87510E869
:1029C00075110278101219B87510E9751102781096
:1029D0001219B874061217991219CF7910EEFCEF7C
:1029E000FD123D35121764E9705E85088285098302
:1029F000A3A3A3A3A3A3A3E0F89002E8E068704810
:102A0000122DE41219B87CE97D02E5082408FAE5E4
:102A1000093400FB1210797402121764E960298EE0
:102A2000828F83A3A3A3A31230229002FFE0F510AC
:102A30007402781012173B74002510F58274033568
:102A400011F583EAF0A3EBF0740212179985821056
:102A500085831178101219B874021217991219CFC0
:102A6000850C82850D831230481217648A108B11F1
:102A7000AE10AF119002FFE0F510751100740278EE
:102A80001012173B74FF2510F874023511F9888273
:102A90008983A31226197003022987E824030808F2
:102AA00008E93400F9EE4F60030229908882898397
:102AB00074FFF0A3F09002FFE004F09002FFE060EA
:102AC0000A1230181204977900800B850882850954
:102AD0008312338B790A02328374EA1217A574FECB
:102AE00012174E8C128D13EA2405F50CEB123D1DC6
:102AF0001238BB750800750900EA2402F510EB34A2
:102B000000F51185188285198385820A85830B78E3
:102B10000A1219B8850C82850D83A3A3A3A3122CD6
:102B2000B11219B8E50C2405F50AE50D12337778D2
:102B30000A1219B8850C82850D83122CB512072B49
:102B400074061217648A0A8B0BEA450B7003022C79
:102B500056EA2404F50EEB122C9B1238BB8A828BAA
:102B600083A3A3A3E0F985108285118312302C6022
:102B700003022C56E4F514F51578141219B87514DF
:102B8000E875150278141219B87514E975150278EC
:102B9000141219B874061217991219CF7913AC0AC6
:102BA000AD0B851082851183123D3B121764E9F548
:102BB000096003022C569002E8E0F8E5087009E08D
:102BC0002402900300F08014900300E0FCE824024B
:102BD000FAE43400FBEA6C7001EB707E850882AA8F
:102BE00082122DDB9414122DD3506B850E82850F2B
:102BF00083E0C0E074012A122C92D0E0F005088531
:102C00000E82850F83A3E0C0E085080A7401250ABF
:102C1000122C92D0E0F005089002E8122CB11219A3
:102C2000B87CE97D0285080A7401250A122CA512D8
:102C300017649002E8E02508F50874FF6E700374CD
:102C4000FF6F6012EE24010EEF3400FFE508C3941D
:102C5000145003022B03E5086013123036851082EE
:102C600085118312302212049D79008014E50970C9
:102C70000375090A851282851383EEF0A3EFF0A98C
:102C80000974021217647F0E02187785080C74010C
:102C9000250CF58274033400F583223400F50F858A
:102CA0000E82F58322FA74033400FB12106774025B
:102CB000221238F122A3A3122CBB22123382FDEE82
:102CC000FAEFFB2274EE1217A574FE12174E8C0E4B
:102CD0008D0FEA2405F50CEB123892750B0090026B
:102CE000FFE4F0F50AEA2402F508EB3400F5098068
:102CF000449002FFE0FA9002E8E0F8122DDB94170E
:102D0000122DD3400D9002FFE0F87416C398900284
:102D1000E8F0122DE41219B87CE97D0274002AFA59
:102D20007403122CA81217649002E8E0F89002FFD6
:102D3000E028F0050AE50C2416F582E50D122C9624
:102D4000E0F8E50AC39850749002FFE0C39416506F
:102D50006BE50AC333F8E433F9E50C28FEE50D39D9
:102D6000FF851882851983AC82AD838E828F831292
:102D70002DED7008750B011233878050E4F510F5C6
:102D80001178101219B87510E8751102781012191F
:102D9000B87510E975110278101219B87406121777
:102DA000991219CF7916850882850983123D3B1245
:102DB0001764E9F50B7003022CF180BB7CFF7D02E8
:102DC0008508828509831230221204AFA90B740290
:102DD000023285E99400C365D03322EA28F8E4344E
:102DE00000F9E822E0F51075110078102212327A0D
:102DF0008A108B11AC10AD11EC4D2274EA1217A59C
:102E000074FC12174E8A0C8B0D8C128D13EA24055C
:102E1000F50AEB123377750800750900E50A2402FC
:102E2000F510E50B3400F511740212179985820E26
:102E300085830F780E1219B8850A82850B83A3A3A8
:102E4000A3A31238971219B8E50A2405F50EE50B6D
:102E50003400F50F780E1219B8851082851183128F
:102E6000337D12301C12072B74061217648A0E8BE6
:102E70000FAE0EAF0FE50C2402F50EE50D3400F594
:102E80000F80388882898374FFF00508122C8B74B8
:102E9000FFF005089002E8E0F50C750D00780C12C3
:102EA00019B87CE97D0285080C7401250C122CA54B
:102EB0001217649002E8E02508F508EE4F60278EAF
:102EC000828F83A3A3A3E0F9850E82850F8312303E
:102ED0002CEE240412388FE96027850C82850D833F
:102EE00012300E123394E5087003022FF4123036BC
:102EF000850E82850F831230221204B579000230CC
:102F000009E4F514F51578141219B87514E8751557
:102F10000278141219B87514E9751502781412198B
:102F2000B874081217991219CF7911EEFCEFFD85CC
:102F30000E82850F83123D3B121764E9F509709AE2
:102F4000850882AA82EA9002E87009E024049003CE
:102F500000F08025E0F8900300E0F514E82404FC7C
:102F6000E43400FDEC65147001ED7081122DDB94EA
:102F700012122DD34003022EED850C82850D83E0C5
:102F8000C0E074012A122C92D0E0F00508850C8272
:102F9000850D83A3E0C0E0122C8BD0E01230518568
:102FA000820C85830D780C1219B8740412179912CB
:102FB00019CF8510828511831230481217648A0C4C
:102FC0008B0DAE0CAF0D85080C7401250CF8740345
:102FD0003400F9EE4F7003022E8385188285198321
:102FE000E088828983123051A3E0C0E0122C8BD09C
:102FF000E0022E91E509700375090A850A82850BA6
:103000008312300E123394A9097404022C83123BEC
:10301000B7851282851383227CFF7D02850A828513
:103020000B8312302622E0FAA3E0FB221230261294
:103030000719E9F50922900300E0F5F0E50884900E
:1030400002FFF07CFF7D0222122CBB1207377404B2
:1030500022F005088518828519832274EC1217A5C1
:1030600074FE12174E8A088B098C0E8D0FEA240508
:10307000FEEB3400FF123264EE241812388FEA455A
:103080000B700302310712324D502912312C8A1075
:103090008B11EA4511606B7912AC0AAD0B85088281
:1030A0008509831230228510828511831217A3E9C6
:1030B000F50A7058E4F50AF50B780A1219B88E82F1
:1030C0008F83A3A3E0F50A780A1219B8EE2403123D
:1030D0003374780A1219B88E828F8312313912082C
:1030E000517406121764E9F50A7021850C82850D6A
:1030F00083E0701F8508828509831230221204BB89
:103100008011750A0E8009750A018004E50A6003C2
:10311000123387850C82850D83E06004790080027C
:10312000A90A74021217647F0C0218778518828529
:10313000198312302612083F22123382FD8508823D
:103140008509831230262274EE1217A574FE121719
:103150004E8A088B098C0C8D0DEA2405FEEB340099
:10316000FF750E00123264EA450B700302322B1217
:10317000324D502C12312C8A0E8B0FEA450F604ACB
:103180007912AC0AAD0B850882850983123022853D
:103190000E82850F831217A3E9F50E600302322E0B
:1031A000850882850983123469AA0AFB12323F70AE
:1031B000147AFF7BFF12323F606C88828983E50AB4
:1031C000F0A3E50BF0750A008007750E0E805F0511
:1031D0000A9002E5E0FAE50AC39A504AE50A75F05A
:1031E00017A4FAABF088828983A3A3E02AFAA3E0AC
:1031F0003BFB8A828B8312337DEC4D70D2750A17AC
:10320000750B00780A1219B8EEFCEFFD1210677406
:1032100002121764EEFCEFFD8508828509831230E7
:10322000221204C18014750E098003750E01123B31
:10323000AF850C82850D83123394A90E022DCE1218
:1032400008338A108B11A810A911E84922E5082437
:1032500002F508E5093400F5098A828B83A3A3A34C
:10326000E0A2E522851882851983AC82AD838E8227
:103270008F8312327A8A0A8B0B22E0FAA3E0FB12C8
:1032800007312274041217647F0A02187774EC1253
:1032900017A58C108D11EA2405F50CEB12389275E8
:1032A0000F00EA2402F50AEB123377850A82F583D0
:1032B000123022123DC17003023369750E00807115
:1032C000850C82850D83E06401704F8E828F83A30D
:1032D000A31219CF8E828F83A3A3A3A3E0F5127547
:1032E000130078121219B8EE2405F512EF3400F528
:1032F0001378121219B812301C12085174061217E2
:1033000064E9F50F6014850C82850D83E4F0123BAF
:10331000AF8510828511831233947C177D0079006C
:10332000EEFAEFFB12107F8E828F83E4F0A3F0059C
:103330000E9002E5E0F8E50EC398501EE50E75F01C
:1033400017A4F8A9F0850882850983A3A3123D2755
:1033500012337DEC4D60030232C0850882850983FB
:1033600074FFF0A3F0E50F700612301C1204C7A919
:103370000F023127F50AEF3400F50B22A312338236
:10338000FD22E0FCA3E0228E828F83123BB7850EE4
:1033900082850F83E8F0A3E9F022C082C083900207
:1033A000E1E06A7003A3E06B70067AE17B028004BF
:1033B0007A007B000226DC74F71217A57F00EF75F8
:1033C000F003A4F8A9F0EC28F8ED39F98882898394
:1033D000E06A7003A3E06B7006E8FAE9FB800B0F6C
:1033E000EFC3940240D87A007B007F010218777403
:1033F000F61217A51239A070067A007B008007A389
:10340000A3A3A3123022023A6174F21217A5E9FEB7
:10341000740E12179912346974101217991238D158
:103420008C828D83E06402703BA3123BB388828957
:1034300083E0F50CA3E0F9A80C740268700374290A
:10344000697021750C02750D00780C1219B8780896
:103450001219B8780A1219B8EEF912087574061222
:10346000176480027901023AD1E0F50AA3E0F50B76
:103470002274E81217A574FB12174EE9851882858D
:103480001983F08A168B178C0E8D0F741F121799E3
:103490001238D174211217991234697423121799B2
:1034A0001238BB7510008C828D83A3A3A3E0A2E425
:1034B000502A741D1217991231328A828B83E58249
:1034C0004583700302357D790AAC0EAD0FAA16ABA9
:1034D000171217A3E9F5106003023580850E828567
:1034E0000F83E064026003023836A3123BB3850801
:1034F00082850983A3858212858313E50E2406F550
:103500000CE50F12389288828983E0FAA3E0F9EA89
:103510002400F514E439F5157814121A420100005C
:103520002801284535070002281C3603288C350061
:1035300029463701296E37022915370329463704F2
:1035400029D7373638EE4F703E850C82850D8312B1
:1035500038ACFAE9FB8A828B83E0850A82850B838B
:103560001238E81219B88A828B83A3123382FDAA1B
:1035700008AB091210677402121764800375100EED
:10358000A9107405023D1575100B80F4EE4F70F70D
:10359000850A82850B837401F01238C18508828503
:1035A0000983F07C007D00850E82850F83A3A3A391
:1035B000A3E02401FAA3E03400FB120731EA4B60D8
:1035C000418A828B83E02402F8850A82850B83E09E
:1035D00028F0EA2404F8EB3400F988828983E08536
:1035E00012828513831238FA1238E81219B88A82C7
:1035F0008B8312337CE5082403FAE5093400FB02CF
:103600003573850A82850B83E02404F07C047D00F9
:103610007900AA12AB1312107F023580EE4F6003BF
:103620000235871238C1FEA3E0FF850A82850B832D
:103630007404F0EE850882850983F0EF8512828597
:103640001383F07403121799AC82AD83EEFAEFFB8B
:1036500012398E70030236F28A828B83A3A312384A
:10366000B7740112179985820E85830F780E12198F
:10367000B874051217991219CF7CFF7DFF12073716
:1036800074041217648B0FEA450F7033850C828522
:103690000D831238971219B8850C82850D83A312F9
:1036A00019CF7C027D007A1C7B9012056374041292
:1036B0001764E9700A740112179974FFF0A3F08E71
:1036C000828F83E064027034750C02750D00780CF3
:1036D0001219B88E828F8312337CE5082404FAE530
:1036E00009122CA8121764850A82850B83E0240234
:1036F00080097401121799EEF0A3EFF0740112170C
:10370000991238A8F07401121799A31238A0A3A334
:10371000A3F0023580EE4F6003023587850C828569
:103720000D8312337DAA16AB17120869850A8285AC
:103730000B837402F0EA850882850983F085128282
:10374000851383EB80CBEE4F60030235871238C1BF
:10375000F8A3E0F9850A82850B837402F0E88508F6
:1037600082850983F0E985128285138380A3850C05
:1037700082850D83123022121061EAFC8C82A882AD
:10378000C39EE49F404BE86E7001EF70047C0080A4
:103790001F851882851983E0FAEE2AFAEF3400FBC0
:1037A000C3EA98EB94005003E08004EECCC39CFC89
:1037B000EC850A82850B83F08C0A750B00780A125F
:1037C00019B8850C82850D83E02EFCA3E03F0235FD
:1037D0006E751007023580EE4F6003023587850C49
:1037E00082850D83123BB3850A82850B837407F0B3
:1037F000888289831238A0123888E0851282851366
:1038000083F0E82402FAE93400FB8A828B831238C1
:10381000A01238D91238A8A31238E21238B1F0E851
:103820002405F8E93400F9888289831238B1A3129B
:1038300038FAA302370E741D1217991239997003C2
:1038400002357D123BB3880C890DE8450D700302EB
:10385000357D8E108F1178101219B8780A1219B8A8
:1038600078081219B87406121799E0F9AC0EAD0F6A
:10387000AA16AB17850C82850D831217A374061246
:103880001764E9F510023580F088828983A322F558
:103890000CEF3400F50D22E0F50E750F00780E22C6
:1038A000E08508828509832212390122123BB7E89C
:1038B00022123901A3A322A3A3A3A3E0FEA3E0FF46
:1038C00022850C82850D83E0F8A3E0F5838882E0F1
:1038D00022E0F508A3E0F50922A3A3F08A828B83F6
:1038E000A322122594A3A322F08A828B831238F19B
:1038F00022E0F50A750B00780A2212388812390185
:1039000022E0850882850983A3A32274EE1217A5FD
:1039100074FE12174E8A0A8B0BECFAEDFB7414122C
:103920001799E0F510A3E0F5117416121799E0FE4F
:103930007418121799E0F50EA3E0F50F851882852B
:103940001983AC82AD8312398E603E851882851949
:1039500083123999602FA3A31238D1E50845096075
:1039600024780E1219B878101219B8EEF9AC0CAD13
:103970000DAA0AAB0B8508828509831217A374046C
:103980001217648006790E80027901022DCE12078B
:10399000318A0C8B0DEA450D221230261239A022F5
:1039A0001207FD8A828B83E58245832274F6121703
:1039B000A574FE12174E740C1217991238AC8518A4
:1039C00082851983F07401121799E9F0E4F508F57E
:1039D0000978081219B875080278081219B8740421
:1039E00012179985820885830978081219B8120878
:1039F0005174061217647402121764806474F7120B
:103A000017A5EAFEEBFF89087C187D03120869EA16
:103A10005402600BA908EEFAEFFB12072580027929
:103A2000010233EA74F61217A574FF6A700374FF7B
:103A30006B701C7B00EB75F003A4F8A9F0EC28F880
:103A4000ED39F9123A660BEBC39402501480E6127A
:103A500008398A088B09A808A909E8496003123ABD
:103A6000667F020218778882898374FF122592E4A8
:103A7000F02274F61217A51208398A828B83E58228
:103A800045836006A3A3E0FA80027A007B0080D120
:103A900074F21217A58A088B09ECFEEDFF740E1262
:103AA0001799E0F50A123AD6701CEEFCEFFD7AFF8A
:103AB0007BFF123AD670047911801688828983E5DB
:103AC00008F0A3E509F088828983A3A3E50AF079C9
:103AD000007F060218771208398A0C8B0DA80CA9F2
:103AE0000DE8492274EE1217A5EAFEEBFF8C088D53
:103AF00009890C7412121799123BB3741412179996
:103B000012337D7416121799123022750D00EC4D88
:103B10006003023BA77402650C6003023BA288822B
:103B20008983123382F9EC2400F50EE439F50FEAAB
:103B3000F4F8EBF4F9EC58F8E50F59F9E849705D41
:103B4000E5082406F8E5093400F9880A890B88821B
:103B5000F583122CB71208698A108B11E50E6510D7
:103B60007004E50F65116042780E1219B8850A825B
:103B7000850B83122CB712086F7402121764E9F5D3
:103B80000D7027780E1219B8850882850983A3A3C2
:103B9000122CB51208877402121764800D750D80FF
:103BA0008008750D0D8003750D0BA90D0232888EEE
:103BB000828F83123BB722E0F8A3E0F92274E81267
:103BC00017A574E712174E851882851983EAF0A3AA
:103BD000EBF08C168D17890E7431121799E0F512DF
:103BE000A3E0F5137433121799E0F514A3E0F5156B
:103BF0007435121799E0F50F750800750900E5098D
:103C000075F003A4F8A9F0851882851983123D2761
:103C1000E0F47003A3E0F47003023D05EE2402F526
:103C20000CEF123D1DE07003023D0585160A851755
:103C30000B780A1219B8AC14AD15AA12AB131207FF
:103C4000F174021217648A0A8B0BEA450B700302A7
:103C50003D05E4F510F51178101219B87406121725
:103C60009985821085831178101219B8740912177A
:103C70009985821085831178101219B88512828572
:103C80001383A3A3A3A31219CF7914AC0AAD0B8E8F
:103C9000828F83123D3B121764E97069850A828521
:103CA0000B83A3A3A3A3123BB3740212179912337D
:103CB00094850C82850D83E0A2E05018A90E740251
:103CC000121799AC82AD838E828F83123022120735
:103CD00049E94208850C82850D83E0A2E15026E582
:103CE0000FF50A780A1219BCA90E7403121799ACC1
:103CF00082AD838E828F83123022120743740112A9
:103D00001764E942080509E509C394025003023B20
:103D1000FEA90874191217647F100218773400F591
:103D20000D850C82F58322E028FEA3E039FF8E8208
:103D30008F83227916850A82850B8312302612081A
:103D40004B74082274F21217A5EAFEEBFF890B747C
:103D500001650B600E7402650B70637901120A61D4
:103D6000E9705BEEFAEFFB123DC16047750A008017
:103D70000B7C177D00790012107F050A9002E5E0A8
:103D8000F8E50AC3985021E50A75F017A4F8A9F0E0
:103D9000850882850983A3A3E028FAA3E039FB8A7A
:103DA000828B831226E370C985088285098374FF9C
:103DB000F0A3F07C187D03EEFAEFFB120863023AE1
:103DC000D11208338A088B09EA45092274F21217C6
:103DD000A58A088B09ECFEEDFF740E1217991234B8
:103DE00069900A0FE0F4603D7A097B0012108BEABB
:103DF0004B60328A828B8374B1F0A3E41238DBA368
:103E00001238D9A3E508F0A3E509123E28EEF0A385
:103E1000EF123E28A3A3E50AF0A3E50BF0900A0FEA
:103E2000E0F9121097023AD1F08A828B83A3A3A300
:103E3000A3A32274F41217A5E9FF7E008A088B0958
:103E400078081219FC00040DE43F663E823E973E5E
:103E5000AC3EC13ED63EF23E0B3F1D3F4B3F6D3F59
:103E6000893FA53FC33F74016F70128C828D83E040
:103E7000C394035008E0900AFBF00240027E18024F
:103E8000400274026F70F68C828D83124740900A54
:103E9000FCE8F0A3E980E274016F70E18C828D830D
:103EA000E0C3940250D7E090078180CD74016F7019
:103EB000CC8C828D83E0C3940550C2E09007828051
:103EC000B874016F70B78C828D83E0C3940250ADDB
:103ED000E090078380A374106F70A27508108E099C
:103EE00078081219B87A847B07124B0412176402FF
:103EF000400274016F70868C828D83E0C39402400F
:103F000003023E7DE0900794023E7974016F6003E6
:103F1000023E7D8C828D83E0900AFF808D74046F59
:103F20006003023E7D908FF3780812161E8D838CFD
:103F30008278081214404003023E7D8C828D8312E9
:103F4000163C900796121648024002EF6003023EAC
:103F50007D1206D1E9700E1211FF795012136D1205
:103F600011F30240029008297401023E7974016F36
:103F70006003023E7D8C828D83E0C3940240030285
:103F80003E7DE0900795023E7974016F6003023E2A
:103F90007D8C828D83E0C3940A4003023E7DE090D5
:103FA0000AFE023E7974016F6003023E7D8C828DB1
:103FB00083E024F9C3940A4003023E7DE0900B00A5
:103FC000023E7974016F6003023E7D900828E0F89C
:103FD0008C828D83E0900828F0E87026E064017000
:103FE00021023F5FC3EA9426EB9400501374026FE2
:103FF000700E8C828D8312473A12056FE9FE8002A3
:104000000E0EEEF902400C740E1217647F040218B3
:104010007774F01217A574CC12174E8C0A8D0B749E
:1040200044121799E0FE7420121799AC82AD837583
:10403000838F75823474061216617420121799AC3E
:1040400082AD831211A5E9F508C3940A4003024129
:104050007575F006E9A4F5097426121799AC82ADBE
:10406000837A0E74202509124BBC70097432121722
:1040700099E0FF80027F00900AFBE0640270047404
:10408000018001E4F50D780D1219BCEEFDEFFCA9DD
:1040900008AA0AAB0B12122974011217647C147D52
:1040A000007900740C121799AA82AB8312107F74E6
:1040B0000C121799AC82AD837A1074242509124B27
:1040C000BC70377C1079FF740C1217991248E97094
:1040D00029741C121799AC82AD837A0474252509C2
:1040E000F9121367740C121799AC82AD83EFA2E03A
:1040F000E433F9AA0AAB0B1205F9851882851983F6
:10410000AC82AD837A0C74702508124BBC70558557
:104110001882851983AA82AB831211D5750800E530
:104120000875F003A4F8A9F0851882851983E58243
:1041300028F8E58312492512473AEC4D601D888224
:104140008983A3A3E0F50E750F00780E1219B8AAA3
:104150000AAB0B12085774021217640508E508C36E
:10416000940440BBEFA2E1500C900780E0F9AA0A4A
:10417000AB0B12085D74046E702A900AFBE06402B7
:104180007022900794E060047A0180027A00900720
:1041900081E06004780480027800E84AF9AA0AAB5A
:1041A0000B1206B9790074341217647F080218776D
:1041B00074F01217A5EAFEEBFF8C088D09750A0A48
:1041C000E9600C14600914602E14607F02425612DC
:1041D00011E7E9F50AC3940A507CE50845096076C1
:1041E000750E06750F00780E1219B8EEFCEFFD1271
:1041F0004B00121764805F750B00750E06750F007B
:10420000780E1219B8EEFCEFFDE50B75F00EA4F870
:10421000A9F074A228FA740739FB121079740212FB
:104220001764E9601B850B0AE50AC3940A5027E569
:104230000845096021AA08AB09A90A1211E18016F4
:10424000050BE50BC3940A500D80AF1211EDE9F593
:104250000AC3940A40D9A90A0241AB74F41217A503
:10426000890875091574FF6A700374FF6B70277EE7
:1042700000AC087A027B00EEF91211C3E960037505
:1042800009000EEEC3940A40E8E50860497A177BFE
:1042900012120A738040120A558A0A8B0BAE0AAFBB
:1042A0000BEE4F602E7C007D00EE2405FAEF34000B
:1042B000FB8E828F83124352500CAC087A027B0033
:1042C0001211C3750900E508600CEEFAEFFB12123B
:1042D000178003750914A90902400C74F21217A57E
:1042E000ECFEEDFF740E12179912472D7508157428
:1042F000FF6A700374FF6B7021750900AC0AAD0B87
:10430000EEFAEFFBA9091211C9E96003750800056F
:1043100009E509C3940A503580E2120A558A828B56
:1043200083E582458360237C007D00E5822405FAD5
:10433000E5833400FB1243525013AC0AAD0BEEFA86
:10434000EFFB1211C97508008003750814A9080253
:10435000512BA3A3A3A3E0F91211A5E9C3940A2248
:10436000C082C08390079AEAF0A3EBF0900780E048
:10437000FC7D007A257B0012056F900780E0F91222
:1043800007D3D083D08202013574EA1217A574ECEA
:1043900012174EEAFEEBFFEE240CF514EF3400F595
:1043A00015EE240AF510EF3400F511EE2405F50E94
:1043B000EF3400F50FEE2409F50AEF3400F50BEEAB
:1043C0002403F508EF3400F5098E828F83A3A3E060
:1043D00024FA70030246F624FD7003024625147089
:1043E0000302447414601024FD70030245F6147037
:1043F0000302465A024714124759604AE0F583887F
:1044000082124740880C890DE8450D603985148279
:10441000851583E0F50E780E1219BCEE240BF5829B
:10442000EF3400F583E0F9850A82850B8312473A61
:104430000A0A0AAB09850C82850D831217A3740141
:10444000121764024714850A82850B831219CF90D4
:10445000079612163C12060B7402121764E97003D9
:104460000247147901850A82850B83124F50120688
:10447000050247148E828F83A3858212858313E001
:1044800060030245CF850E82850F83E0A2E04003E2
:104490000245CF7C0E7D007900851882851983AA9C
:1044A00082AB8312107FEE2408F50AEF3400F50B7F
:1044B000850A82F58312475C6019750C06750D003C
:1044C000780C1219B8850A82850B83E02410FCA3AE
:1044D000E0801A12471EEA4B7003024714750C065F
:1044E000750D00780C1219B8EA2405FCEB3400FDB8
:1044F0007402121799AA82AB83124B0412176485B7
:104500000E82850F83E0A2E25004D2F08002C2F056
:10451000A2F0E433F8740C121799E048F085108289
:1045200085118312475C6015851082851183E02414
:1045300010F8A3E03400F9888289838003908FF714
:10454000780C12161E85108285118312475C600F4D
:10455000851082851183E0F510A3E0F511800675C2
:104560001000751100850A82850B8312475C600B71
:10457000850A82850B8312472D8006750A00750B0C
:1045800000780C1219B478101219B8780A1219B8F8
:104590008514828515831219CF8E828F83A31247CB
:1045A00035740A121799AA82AB831211DB740A12AE
:1045B000176485088285098312474090082AE8F02D
:1045C000A3E9F07A017B00900780E0F91210BB129A
:1045D0004759700302471412474670030247148577
:1045E0001282851383E0FC7901124F4A8E828F83F9
:1045F0001217A30247141247597003024714E0F53B
:10460000838882A3A3124740890BE8450B700302FD
:1046100047148E828F83A3E0FC7902124F4A88826E
:10462000850B8380CB7C007D00EE2404FAEF340000
:10463000FB850882850983E0F91211A5E9F8C39486
:104640000A4003024714AC10AD117A0475F006E875
:10465000A42425F9121361024714900795E0600E17
:10466000900AFEE0F985088285098302446B900A6E
:10467000FBE07004790580ED12471E8A0C8B0DA8B3
:104680000CA90DE82404F50CE93400F50D8E828F99
:1046900083A3A3A3A3A3A3A3E0A2E05036E84960A9
:1046A00073850C82850D83E0FE6028850A82850B68
:1046B00083E05410701D740E121799AC82AD83E81C
:1046C0002405FAE93400FBEEF91211A5E97004792A
:1046D000038092AC0EAD0F850C82850D83E0F9123C
:1046E0004F4A121223124759602A12474660257C0E
:1046F0000079000245E91206D1E97018900829E016
:10470000640170081211FF900829E4F07950121327
:104710006D1211F374141217647F0E021877850856
:1047200082850983E0FAA3E0FB120A5522E0F50A2C
:10473000A3E0F50B22A3A3A3A3A3E0FCA3E0FD2227
:10474000E0F8A3E0F922E0F5838882A3A3E0F8A3D0
:10475000E0F9E8FEE9FFEE4F2290079AE0F8A3E0C7
:10476000F9E8492274F41217A574F212174EEAFE02
:104770008C0B75F006E9A42420F5088518828519AC
:1047800083AC82AD837A0E124BBC704A7C06124811
:10479000E17043740C121799124740E8F509E50BD4
:1047A0006005EE42098004EEF45209850982AA826E
:1047B000E86A7001E9601B740C121799EAF0A3E42F
:1047C000F0851882851983AC82AD837A0EA9081210
:1047D000136179018002790002400774F21217A573
:1047E00074E612174E890A8A088B09ECFEEDFF74F5
:1047F0000C121799124BAF60030248957C0679FFA3
:10480000740C1217991248E96003024895747025D8
:104810000AF50B851882851983AC82AD837A0C1258
:104820004BBC60030248DA851882851983AA82ABE3
:10483000831211D5E508450970217C0C79001248D6
:10484000E360030248DA7C0C7D00790085188285DC
:104850001983AA82AB8312107F8061851882851923
:1048600083AC82AD83AA08AB091211CF8A0C8B0DE1
:10487000A80CA90DE849702CEE4F601985188285A7
:104880001983AC82AD837A007B001211CFEAF8EB7A
:10489000F9EA4B70047900804388828983E508F047
:1048A000A3E509F0124961FAEE6A7001EF602BEEA0
:1048B000F04F700888828983E4F0A3F08518828520
:1048C0001983AA82AB831211D5851882851983AC0E
:1048D00082AD837A0CA90B1213617901741A02510B
:1048E0002879FF851882851983AA82AB831210DF8D
:1048F000E92274F71217A57F00EF75F003A4F8A959
:10490000F0EC28F8ED124925E06A7003A3E06B7023
:1049100006E8FAE9FB800B0FEFC3940440DB7A0052
:104920007B00024C5A39F9888289832274F7121766
:10493000A57E00EE75F003A4F8A9F0EA28F8EB12C2
:104940004925E0F4FCA3E0F4FD88828983ECF0A320
:10495000EDF0124961F4F00EEEC3940440D5024C20
:104960005AE82402F582E93400F583E02274EE125D
:1049700017A574F412174EEAFEEBFF8C0A8D0B7428
:104980001E121799E0F50CA3E0F50D74201217998B
:10499000E0F508A3E0F5097422121799E0F510A3D9
:1049A000E0F511EE4F7005790A024A921211E7E91B
:1049B000F50EC3940A4023750F007C0679FFE50FBE
:1049C00075F00EA4FAABF0749C2AFA74073BFB1244
:1049D00048ED7003024A9C850F0EE50EC3940A4011
:1049E00003024A9075F006E50EA4F50FEEFCEFFD0C
:1049F0007A0E7420124AADE50A450B600BAC0AAD85
:104A00000B7A1B7421124AADE50C450D600BAC0C02
:104A1000AD0D7A1B7422124AADE5084509600BAC56
:104A200008AD097A107423124AADE5104511601BD8
:104A3000AC10AD117A107424124AAD742412179977
:104A4000AC82AD837A047425124AAD7C0C7D00796A
:104A5000FF1251B97A0C7470250EF91213617508A2
:104A60000E75090078081219B8EEFCEFFDE50E7519
:104A7000F00EA4F8A9F0749C28FA740739FB124BC5
:104A800004121764900828E0600312122F12121DFE
:104A9000A90E740C1217647F0A021877050FE50F30
:104AA000C3940A50030249BA750E0A80E3250FF930
:104AB0001213612274F41217A574F212174EEAFE53
:104AC000EBFFE9C3940A5004EE4F70047902802D85
:104AD000851882851983124BAFF508701E750A067A
:104AE000750B00780A1219B87402121799AC82ADCE
:104AF00083EEFAEFFB124B04121764A90802400779
:104B0000AA08AB0912106774022274F41217A5EAFE
:104B1000FEEBFF750800750A06750B00780A12197E
:104B2000B8EEFCEFFDE50875F00EA4F8A9F0749C52
:104B300028FA740739FB1210797402121764E960BD
:104B400004A908800B0508E508C3940A40C8790A3F
:104B500002400C74F71217A574F012174EEAFEEB20
:104B6000FF750800851882851983AC82AD837A10A1
:104B700075F006E508A42423124BBC701F7C1012AC
:104B800048E17018EEFCEFFD851882851983AA8232
:104B9000AB831205DBE97004A908800B0508E50862
:104BA000C3940A40BF790A7410121764024C5AACBD
:104BB00082AD837A0E75F006E9A42420F9121367FA
:104BC000E92274F71217A5750800E50875F00EA420
:104BD000F8A9F0749C28FE740739FFEEFCEFFD7A0B
:104BE0000E75F006E508124BB9602C7C067D007945
:104BF000FFEEFAEFFB12107F7C067D0079FFEE24BA
:104C000006FAEF3400FB12107FEE240CF582EF342D
:104C100000F583E4F0A3F00508E508C3940A40AA70
:104C2000900828E0600312122F12121D802C74F7D6
:104C30001217A57E007F007C0679FFEF75F00EA4A9
:104C4000FAABF0749C2AFA74073BFB1248ED700132
:104C50000E0FEFC3940A40DFEEF97F01021877745C
:104C6000F71217A57E00EEF91212050EEEC3940A94
:104C70005003E960F180E374F31217A574CB1217A7
:104C80004EE9FF75F006A4F50874202508FE742788
:104C9000121799AC82AD837A0EEE124BBC60030200
:104CA0004D797C0679FF74271217991248E9600341
:104CB000024D797C0E7D0079FF7427121799AA8224
:104CC000AB8312107F7C1B7D0079FF740C12179947
:104CD000AA82AB8312107F7C0C7D0079FF8518823D
:104CE000851983AA82AB8312107F7427121799AC9F
:104CF00082AD837A0EEEF9121361E9F509740C1294
:104D00001799AC82AD837A1B7421124D88FE740C06
:104D1000121799AC82AD837A1B7422124D88F50A62
:104D2000740C121799AC82AD837A107423124D88DB
:104D3000F50B740C121799AC82AD837A107424129F
:104D40004D88F50C740C121799AC82AD837A0474FB
:104D500025124D88F508851882851983AC82AD83AC
:104D60007A0C74702FF9121361E9F8EE450A450BBD
:104D7000450C45084842098003750900A9097435A6
:104D80001217647F050218772508F9121361E922CA
:104D900074F71217A5E9900780F01211F3024C5A2C
:104DA00074F21217A574FB12174E8A088B09EB5484
:104DB000807003024E44900780E0F91210A38A0A23
:104DC0008B0BA80AA90BE8FEE9FFE849606CEE240A
:104DD00004F8EF3400F98E828F83E0245060381499
:104DE000600624E1604A804B88828983E070448EAB
:104DF000828F83A3A3A3A3A3A3A31219CF8E828F11
:104E0000831247358E828F83A3A3124F501211B1A4
:104E10007402121764801C88828983E0641E7013F8
:104E200079008E828F83A3A3124F501211AB80039F
:104E30001211BDEEFAEFFB121091AA08E509648089
:104E4000FB024F45EAA2E04003024F4190082A12BC
:104E5000472D740312179985820C85830D780C12E7
:104E600019B8750C02750D00780C1219B8750C0C78
:104E7000750D90780C1219B87CFF7DFF7A017B00CC
:104E800012072B7406121764024F29E4F50CF50D76
:104E9000780C1219B8740412179985820C85830D49
:104EA000780C1219B8740412179985820C85830D39
:104EB000780C1219B874091217991219CF7902EEE9
:104EC000FCEFFDAA0AAB0B12084B7408121764E939
:104ED0007035851882851983E0FA7401121799E0FC
:104EE000F9EA2400F50CE439F50DEA450D6018786F
:104EF0000C1219B88E828F83124736AA0AAB0B1296
:104F000011B17402121764E4F50CF50D780C121946
:104F1000B874051217991219CF7CFF7DFFEEFAEFD6
:104F2000FB12073774041217648A0C8B0DAE0CAF9A
:104F30000DEE4F6003024E8BE5086401FAAB098069
:104F4000047A007B00740502512885088285098354
:104F5000E0FAA3E0FB22C082C083900780E0F98AD8
:104F6000828B83A3124F5012085D024382C082C01D
:104F70008374FF12174E1211F9E9C3940285188247
:104F8000851983400474028002740AF0AC82AD83F8
:104F90007A0179051206E9740112176402438274DA
:104FA000F21217A574E812174EEAFEEBFF890A8C7D
:104FB000088D097C187D0079001251C1EEF0A3EF35
:104FC000F0900782E0C0E07402121799D0E0F090F0
:104FD0000783E0C0E07403121799D0E0F0900B0053
:104FE000E0C0E07417121799D0E0F0741512179909
:104FF000E054FEF8A3E0F9900AFFE0A2E0E433FAFF
:10500000E84AF87415121799125137A2E15004D2E8
:10501000F08002C2F0E854FDFAA2F0E43333F8EA7B
:1050200048F87415121799125137A2E35004D2F0C0
:105030008002C2F0E854F7FAA2F0E433F50C750DE3
:10504000007403780C12173B125130121799125149
:1050500037A2E45004D2F08002C2F0E854EFFAA282
:10506000F0E433F50C7404780C12173B1251301233
:105070001799125137A2E55004D2F08002C2F0E82D
:1050800054DFFAA2F0E433F50C7405780C12173BE8
:10509000125130121799125137A2E25004D2F08007
:1050A00002C2F0E854FBFAA2F0E433F50C74027883
:1050B0000C12173B125130121799E8F0A3E9F09047
:1050C0000783E0601B750C10780C1219B87C847D86
:1050D000077406121799AA82AB83124B0412176445
:1050E000900794E06011E50A60097415121799E0C1
:1050F0004402F07801800278007414121799E04895
:10510000F0900781E0600478048002780074141243
:105110001799E048F0AC08AD09851882851983AA73
:1051200082AB831205FF74181217647F060218778A
:10513000EA450CF8741522E8F0A3E9F0900AFFE0C4
:105140002274F31217A574E512174EEAFEEBFF8CDA
:10515000098D0A7428121799E0F50C75F006E9A478
:10516000F87408650A700474228002742128F50B13
:105170007C1B7D0079001251B97A1BA90B124BBD23
:105180007032741A121799E024F9C3940A5025E575
:105190000CF50B780B1219BC7401121799AC82AD87
:1051A00083E509A2E0E433F9EEFAEFFB120611748D
:1051B00001121764741B024D801251C1AC82AD8381
:1051C00022851882851983AA82AB8312107F8518E5
:1051D000828519832274F71217A51208CF7508006B
:1051E000E50875F00EA4F8A9F0749C28FE74073940
:1051F000FF7C0679FFEEFAEFFB1248ED7009EEFA3C
:10520000EFFB79001208D50508E508C3940A40D0E1
:10521000024C5AC082C0839061907404F0A3744819
:10522000F0A3E4F09061807440F09061BC7407F0EA
:105230009061877469F09061B67416F07900120B72
:10524000517902120B57902450E493F46006E493D2
:10525000F9120B2D7905120E4B025655C082C083F0
:10526000E9540FF9906185E0696012E5C654804405
:1052700049F5C6E59E547F644970F8E9F053C6804D
:10528000E59E547F70FA02565574F71217A5E5A8EB
:10529000FE53A87E120B39C2BA539AFEC289759B7F
:1052A00000C2C2120B3F75A91175B905120B45D288
:1052B000BA439A0174805E42A8025BE2C082C08356
:1052C000906181E4F0A302565275E9007591007572
:1052D000BF00020135C082C083906181E4F0A374F5
:1052E000C0F0A3E4025654C082C08374F812174E73
:1052F0009003C4125AC4E849700302539E9003C439
:10530000E0544060237908851882851983AA82AB0E
:1053100083120C47851882851983AA82AB831208F1
:10532000F39003C4E054BFF0E054806010790C7A2D
:10533000807B05120C479003C4E0547FF0E0A2E0AC
:10534000500879001253A654FEF0E0540260087928
:10535000011253A654FDF0E0540460087900125382
:10536000B154FBF0E05408600879011253B154F7CE
:10537000F0E05410600879021253B154EFF0E05499
:1053800020600879031253B154DFF0A3E0540160A8
:105390000D120B631209059003C5E054FEF074086A
:1053A000121764025655120B511208F99003C4E00B
:1053B00022120B571208FF9003C4E022C082C08360
:1053C000E9600514602A804F90619A7433F0A374E9
:1053D00055F09061A0743AF090055CE064017009AA
:1053E000C2919003C67467802D9003C674618026B5
:1053F00090619A743FF0A3745AF09061A0747FF0AA
:1054000090055CE064017009D2919003C6747180CC
:10541000059003C6746AF0025655C082C083E960E5
:105420000B14600D14600F146011802090245480C0
:10543000159024558010902456800B90055CE064F4
:105440000160F3902457E493906186F002565574FE
:10545000EE1217A574F412174E851882851983ACC5
:1054600082AD8375838F75829374041216619024C4
:105470005493F460030255E1907808E0C39402501D
:10548000030255C17404121799AC82AD8375838FE2
:105490007582207408121661F97AFF7BFF7FFF7E08
:1054A000008982858210801874086E700302557618
:1054B00074096E7003025576740A6E700302557695
:1054C000E510C333FCE433FD7404121799E5822C14
:1054D000F582E5833DF583E0F50EA3E0F50F8E0838
:1054E0007509007402780812173B74482508FC748B
:1054F000783509FD8C828D83780812161E74087821
:105500000812155F85080C85090D8C828D8378083B
:1055100012161E7418780812155FE50C4508F50878
:10552000E50DF509C3E50E9508E50F95098C828D0B
:1055300083780812161E8C828D83780812161E74CA
:10554000187808401412155FE50C4508FCAD0DE510
:105550000EC39CFCE50F9D800F12155FE50C4508FE
:10556000C3950EFCE50D950FFDC3EC9AED9B50061F
:10557000ECFAEDFBEEFF0EEEC3941350030254A8B9
:1055800074FF6A700374FF6B602D8F0874027808D3
:1055900012173B744812627074783509F5837808E5
:1055A00012161E851882851983E5822510F582E57D
:1055B00083125FFDE508F009E9C394045003025427
:1055C0009975080175090078081219B87402121744
:1055D00099AC82AD837A157B0912126B7402121793
:1055E00064740C1217647F0A021877C082C083901B
:1055F0006186E0F8902457E493687009902456E49B
:1056000093906186F09061AE7468F0A3746AF09034
:10561000624574FBF0A304F053F4FD43FE029005D1
:105620005C7401F09061A0E0643A7004790080023B
:105630007901120B51025655C082C08390050EE0CD
:105640006401700A900513E06004790C800279000F
:105650008003F0A3F0D083D082020135C082C083E2
:1056600075E1F1900511E0604D146008146051146B
:1056700060498051120B75900507E0F97A087B05A7
:10568000120DCD908F8B12163C120E03908FD712F5
:10569000163C120DD9900512E0F9120DE5790112B0
:1056A0000E3F900505E024161257EA748DF0A3749E
:1056B0000BF07900809F120B7B80BC120B8180B7AE
:1056C000120B8780B2791280EB74F41217A575D98A
:1056D0000D9004F6E0A2E0E4331313F81257564895
:1056E0004401F5D978001257D440FB78008808743B
:1056F000F712627074041257DE40F275E19590045F
:10570000F6E0F97AF77B04120DD3900A317403F0B6
:10571000A3740B1257F9125819125810125951123A
:105720005760780812161E908F8778081215AA9075
:105730008FCF78081215F81257E4780812162D90BA
:105740000505E024141257EA7413F09003C27402A2
:10575000F07F04021877900507E0C4333354C02269
:10576000900505E0F8A3E0F5838882A3A32274F6F0
:105770001217A51259228AD978001257D440FB7803
:105780000080061258881259D4E8C39940F512597E
:10579000141257D440FB7800800812626C74051212
:1057A00059D4E8C39940F375E195900A31740FF02C
:1057B000A3740B1257F912580312163C1257E41235
:1057C0001648900505E024141257EA7412F090036D
:1057D000C2025BBF880874082508F5827405125B55
:1057E00030940622900505E0240EF8A3E01257F14C
:1057F000223400F9888289832212593A7409F0A36D
:10580000740B22125819125810125955908FF72202
:10581000F0A37421F0A3740B2212581D22125821F8
:1058200022F0A374B3F0A3740C2274F61217A5121D
:10583000587D1257564402F5D978001257D440FBD0
:10584000780080061258881259D4E8C39940F5753B
:10585000E195900A31125893F0A31258931258060A
:1058600012163C1257E4121648900505E024141253
:1058700057EA7414F09003C27404025BC1900517D8
:10588000E0F9740729F5D922880874182508F582EB
:10589000740522741B1258A01258A0F0A3740B2296
:1058A000F0A3740BF0A3741B2274F61217A51259FF
:1058B0002274064AF5D978001257D440FB7800804C
:1058C000061258881259D4E8C39940F51259141297
:1058D00057D440FB7800800812626C74051259D4CA
:1058E000E8C39940F375E195900A317415F0A374FB
:1058F0000B12593012580312163C1257E412164874
:10590000900505E024141257EA7415F09003C27450
:1059100003025BC190053712588074044AF5D978A8
:10592000002212587D900507E0C4333354C0FA2298
:1059300012593A74B3F0A3740C2212593E22125930
:105940004B74B3F0A3740C12594B22125821F0A3DC
:105950002212595522F0900A3F74B3F0A3740C122E
:10596000593E74B3F0A3740C12581DF022C082C0CB
:1059700083125760A3A3A3A3E402565274F712172D
:10598000A51264B2F8740339F9E82405FAE9340081
:10599000FB8A828B8312622188828983A3A3A3A3BB
:1059A000A3A3A3A3A3ECF0A3EDF088828983A3A310
:1059B000A3A3A3A3A3E024FFF8A3E034FFF98A8202
:1059C0008B83E8F0A3E9F0025BE2880874602508A5
:1059D000F5827405126148F5D90822EAFEEBFF90C2
:1059E00061D0E0F87480C398FAEE2483221259F350
:1059F00094042212600BE0F5D90AEAC32274F6126D
:105A000017A5EAFEEBFF9061D0E0707575D90E75B1
:105A1000D90375D9047A008A08EE25081265802416
:105A20008C125A9640F17A008A08EE250812658099
:105A300024841259ED40F175E1957908EE248C1219
:105A40005A8F2484125A867C008C82AA82C3E49ADC
:105A5000F895E0F9EE28F8EF39F9E8248BF582E9BA
:105A6000126144C0E0EE2A12658024ABF582E9128F
:105A70005FFDD0E0F00CECC3940840CD125B4C808D
:105A8000027900025BC2FAEF3400FB120C3B2212D7
:105A90005A867904EE221259F3940822C082C083F8
:105AA00075D90275D90375D90575E195EA2470F5A4
:105AB00082EB125AC1EA2472F582EB125B5E025647
:105AC0005512600E125AC822E0F8A3E0F92274F6CB
:105AD0001217A5EAFEEBFF9005607406125B3A12FE
:105AE00019B87C017903125E6612176475D90675C0
:105AF000D9037800125B2040FB75E1959003C2E06A
:105B000064087017EE2470F582EF125AC1EE247209
:105B1000F582EF125FFDE8F0A3E9F07901025BC2C4
:105B2000880874602508F5827405125B309405229C
:105B300012600EE0F5D908E8C322F0750860750917
