:020000040000FA
:0600000002011D021D5665
:03002B0002221698
:030033000221F8AF
:03005300021DCCBF
:03006B000221CFA0
:10008300021C47E5C754F84401F5C7790122000073
:100093000080FB120086B90003020107E4791B7894
:1000A30002B800028004F709D8FCE4791D7802B88D
:1000B30000028004F709D8FCE49002817804790EE9
:1000C3008002F0A3D8FCD9FA781A90014D7A01BACC
:1000D30000028007E493A3F608DAF9900F84AA825A
:1000E300AB8390014E78D479018015E493A3AC825D
:1000F300AD838A828B83F0A3AA82AB838C828D83A8
:10010300D8E9D9E77582B27583BE740312012F75DE
:100113008291758300740012012F75D00075813FA1
:10012300751881751902759F00020096C09FF59F8F
:10013300E473D09F22D083D082C09FE493C0E07445
:100143000193C0E0740293F59F2201AD03BF03E95D
:1001530003B303FF0000B400002800280028307513
:10016300A000A000A000A00000080008E001F0002B
:10017300100010001000100010001000500050007C
:10018300500010001000D0070000000000000F0016
:1001930001000500307507001000010081FF000019
:1001A300FF0202021E910100000591021891010055
:1001B30000DA0F020A91010000B102021891010056
:1001C30000DB0F020891010000C702FFFF0100FFDF
:1001D30020021E9101000002910218910100000902
:1001E30010020E910000000000020C91030000A415
:1001F30003990B990B990B990B990B990B990B99E4
:100203000B990B990B990B990B990BB50DD30DAF5B
:100213000DFFFF01E803053F1002FF00FEFF12017F
:1002230038EEB50312013804B60312013831B603B0
:1002330012013861B60312013878B60312013899F6
:10024300B603120138CAB6031201381BB7031201F1
:100253003832B70312013879AF0312013890AF0374
:10026300120138BFAF03120138F8AF03120138206F
:10027300B0031201384EB00312013865B003120106
:10028300387CB00312013892B003120138B9B003BD
:10029300120138CCB003120138E2B0031201380A5C
:1002A300B103120138228D02120138218E0212018C
:1002B300384B8E02120138A08E02120138C18E0211
:1002C300120138DA8E02120138DC8E02120138FD77
:1002D3008E02120138009002120138BD9002120101
:1002E300388A9102120138EE910212013885920286
:1002F3001201388892021201380E9302120138510A
:100303009302120138A39302120138A69302120139
:1003130038DD93021201380494021201389A9402D0
:100323001201382395021201386C950212013879B3
:1003330095021201387C9502120138DA95021201F6
:1003430038F295021201386C96021201386F960248
:100353001201389296021201389596021201383C26
:1003630097021201385F9702120138779702120140
:1003730038A79702120138B49702120138B79702CF
:10038300120138239802120138119902120138C759
:100393009902120138F4AE02120138CFAF021201F2
:1003A30038FDAF021201387DB0021201389DB00250
:1003B300120138DBB0021201382EB1021201389655
:1003C300B10212013827B202120138F2B20212014D
:1003D3003801B6021201386DB70212013890B70224
:1003E300120138049A03120138959B03120138E66F
:1003F3009B03120138459C03120138539C031201DD
:10040300387C9C031201380DF30212013835F302D4
:1004130012013863F3021201389AF302120138020F
:10042300F4021201384BF40212013896F40212015D
:1004330038D4F40212013811F5021201383FF502E3
:10044300120138E6F502120138F0F502120138FD07
:10045300F50212013830F602120138F2F6021201E7
:1004630038FEF60212013816F70212013820F7029D
:100473001201389EF7021201384FBA031201385D98
:10048300BA0312013875BA031201388DBA03120187
:1004930038A5BA03120138FCD2011201389AD301EC
:1004A30012013812D40112013827D5011201386123
:1004B300D5011201380AD601120138DFD601120123
:1004C3003843D8011201389AD80112013821D901D1
:1004D30012013808DA0112013855DA01120138E342
:1004E300DA0112013807DB01120138DCDC011201E9
:1004F300381DDD011201383FDD0112013804DE0130
:10050300120138CADE01120138FFE001120138334B
:1005130096031201384996031201386F96031201AC
:1005230038979703120138A19703120138FA9803F9
:10053300120138FA99031201387689031201381827
:100543008A031201384B8A03120138958A03120178
:10055300384F8C03120138229101120138A0910106
:10056300120138B091011201389392011201389DA2
:100573009201120138CB9201120138D69201120175
:1005830038AF9301120138119401120138AD94016F
:10059300120138B19601120138689801120138E44A
:1005A3009801120138C19901120138EF9C0112011F
:1005B300388D9D01120138EA9E011201385DA001B8
:1005C30012013806A1011201384FA1011201388628
:1005D300A1011201382BA201120138A9A2011201B3
:1005E300387CB501120138D1B50112013816B701B3
:1005F30012013826B70112013849B70112013894A4
:10060300B70112013839B8011201382FB9011201AB
:1006130038F9B90112013871BB01120138B3BB01BA
:1006230012013851BC0112013877BC01120138653F
:10063300BE011201386ABE011201384BC00112011A
:10064300389FC00112013801C10112013829C101CB
:10065300120138CDC1011201388FC201120138C015
:10066300C201120138C3C2011201380BC3011201C6
:10067300384DC301120138B4C30112013836A70340
:1006830012013849A70312013852A7031201386B2C
:10069300A703120138B6A70312013891A803120168
:1006A3003820A9031201386BA9031201383C220038
:1006B3001201384C2200120138AF2200120138F423
:1006C3002200120138A423001201387D24001201F4
:1006D30038A62400120138D62400120138EA260075
:1006E300120138C62800120138A62A00120138DE8A
:1006F3002B00120138572E00120138432F0012012C
:1007030038893000120138963100120138D831008F
:100713001201381032001201382A320012013892C5
:1007230032001201382C3700120138CD3700120184
:100733003821380012013848380012013886380051
:10074300120138A53800120138F9380012013801B6
:100753003A001201388A3A0012013849ED021201B7
:100763003853ED02120138EFED02120138BAEE02EE
:10077300120138D9EE02120138FFEE021201383E9F
:10078300EF0212013876EF021201389FEF021201D5
:1007930038D9EF02120138EEEF02120138BBF00232
:1007A300120138DEF00212013800F102120138158D
:1007B300F1021201389FF102120138D9F10212013C
:1007C300384DF20212013896F202120138C0F202D9
:1007D300120138E5F202120138479203120138116F
:1007E3009303120138F493031201386A940312013C
:1007F30038AC9403120138D995031201380EE10184
:1008030012013837E10112013850E1011201389524
:10081300E20112013873E30112013892E30112017C
:10082300381FE40112013862E4011201389AE5012C
:1008330012013806E601120138FCE7011201388A79
:10084300EA011201381DEB01120138F1EB0112012B
:100853003894EC01120138A7ED011201383DEE0185
:1008630012013849B703120138B2B703120138062F
:10087300B80312013835B803120138F28D0312019F
:10088300385F8E03120138AA8E031201389F8F033B
:100893001201389B9003120138859103120138C469
:1008A300D9021201380BDA02120138E4DA0212011A
:1008B30038DFDB02120138BEDC021201382ADD0206
:1008C30012013846DE02120138ADDE02120138B0E1
:1008D300DE02120138DBDE021201384CDF021201A4
:1008E30038EFDF0212013804E0021201384CE00253
:1008F30012013865E00212013868E00212013894EF
:100903009D03120138D09D031201380E9E0312017C
:1009130038D89E031201384B9F03120138869F0378
:10092300120138C49F03120138F49F031201381BCC
:10093300A00312013886A003120138C8A0031201D4
:1009430038C76700120138896900120138216B002A
:10095300120138C86B001201380F6C0012013853B2
:100963006C00120138656C00120138A56C0012018D
:1009730038D46C001201381F6D001201385F6D000E
:100983001201388D6D00120138DE6D001201386BD3
:100993006E00120138B46F00120138A87000120102
:1009A300385D720012013800770012013849770070
:1009B300120138907700120138A6790012013830FD
:1009C300FD02120138A2FD02120138F8FD021201E4
:1009D300383CFE021201385CFE02120138A9FE0205
:1009E300120138F1FE0212013844FF021201389558
:1009F300FF02120138F13A001201383A3B001201AA
:100A030038673B001201389A3B00120138AA3B00B9
:100A1300120138B63B00120138C73B001201389C63
:100A23003C00120138FA3C001201382F3D0012013C
:100A330038CB3E001201381D3F001201386B3F00D6
:100A4300120138C73F00120138C340001201384970
:100A530042001201382043001201383043001201D2
:100A6300384C43001201384F430012013809440047
:100A7300120138D24400120138784500120138D7E8
:100A830045001201385F4600120138C446001201C6
:100A9300385347001201381C4800120138B9480086
:100AA300120138404900120138974900120138F801
:100AB3004900120138324A00120138E04A0012019B
:100AC30038D84C00120138284D001201386B4D0004
:100AD300120138E04D001201386C4E00120138B794
:100AE3004E00120138DC4E001201382D4F00120166
:100AF300384F4F00120138944F0012013803500051
:100B0300120138455000120138455100120138CD09
:100B130051001201389E5200120138B752001201DF
:100B230038C8B8021201381BB90212013827B902BA
:100B3300120138FCB90212013823BA021201385EDD
:100B4300BA02120138CABA02120138FEBA021201FD
:100B53003837BB021201384FBB02120138A8BB025F
:100B6300120138C1BB021201380ABC021201381D3E
:100B7300BC0212013837BC021201384DBC0212010B
:100B83003869BD021201387ABE02120138C7BF02AA
:100B9300120138ACC002120138EF7F001201380095
:100BA30080031201387283031201388A840312010D
:100BB30038008002120138F38502120138F98502E8
:100BC3001201387988021201382FF802120138DA3B
:100BD300F8021201388AF902120138AFF902120140
:100BE30038A6FB02120138F9FC021201385DA30199
:100BF30012013891A301120138E5AB01120138311A
:100C0300AD011201384EAE01120138D8AF01120105
:100C130038BAB001120138F4B00112013817B1012A
:100C230012013859B101120138A3B101120138ADD3
:100C3300B10112013859B2011201382DB301120169
:100C43003881B301120138E3B30112013836B4011C
:100C530012013865B401120138A4B40112013843FA
:100C6300FC01120138B9FC01120138CFFC01120159
:100C7300380CFD0112013844FD01120138C1FD0198
:100C8300120138FCFD0112013877FE01120138B35D
:100C9300FE01120138BCFE01120138C8FE01120127
:100CA30038E2FE0112013807FF011201381DFF016E
:100CB30012013846FF01120138A9FF011201388CD5
:100CC300E0021201389FE002120138B9E00212017A
:100CD30038E2E00212013825E10212013864E10230
:100CE300120138A2E10212013807E2021201381C94
:100CF300E20212013833E20212013841E202120128
:100D03003850E20212013865E2021201387AE20237
:100D130012013885E20212013891E2021201389E73
:100D2300E202120138B1E202120138BCE2021201FE
:100D330038E1E2021201388AE3021201389FE3022A
:100D4300120138B4E302120138CEE302120138E98A
:100D5300E30212013806E40212013811E40212011F
:100D630038CDE402120138B9E502120138DEE5029A
:100D7300120138E8E502120138FCE5021201381BC2
:100D8300E6021201387CE60212013882E602120101
:100D93003888E6021201388EE6021201389AE6021A
:100DA300120138CDE602120138BDA402120138E95E
:100DB300A402120138CDA50212013867A80212015C
:100DC300387DA9021201389AAA021201383DAB02FA
:100DD300120138E3AB02120138B9EE011201383BBC
:100DE300EF01120138E4EF011201382CF101120175
:100DF300383AF30112013820F40112013855F40195
:100E030012013877F40112013820F501120138F08C
:100E1300F60112013819F70112013891F701120195
:100E230038C3F701120138D0F7011201381BF8015A
:100E33001201383FF80112013890FA011201389A71
:100E4300FB01120138F6FB011201387EC4011201C5
:100E5300388FC50112013873C6011201387DC601EE
:100E63001201389FC601120138ABC6011201384F77
:100E7300C8011201387CC80112013892C90112015C
:100E830038E7C90112013836CB011201380BCC0106
:100E930012013867CC01120138D2CC011201380794
:100EA300CD011201384ACD0112013814D0011201CB
:100EB300382CD001120138BDD001120138CBD0013A
:100EC30012013818D10112013826D10112013892CA
:100ED300D1011201380DD20112013864D20112017D
:100EE30038C0AD03120138E5AD031201385BAE0320
:100EF300120138D5D202120138DED202120138E7CC
:100F0300D202120138BFD30212013870D502120186
:100F130038A0D502120138CBD502120138FBD50215
:100F230012013826D6021201385AD6021201388627
:100F3300D602120138C9D602120138F4D6021201C0
:100F4300383BD70212013890D702120138D2D702A8
:100F53001201382CD80212013857D802120138A6D0
:100F6300D802120138D6D80212013801D90212016F
:100F73003824D90212013867BD0312013893BD0327
:100F8300120138C0BD03120138CABD03120138DA99
:100F9300BD0312013869C20212013873C202120181
:100FA30038B4C202120138FDC20212013837C3023B
:100FB3001201388DC302120138AEC3021201385D2B
:100FC300C60212013866C602120138BAC6021201FD
:100FD30038E3C602120138EDC6021201385BC702BC
:100FE300120138EBC70212013846C80212013874E5
:100FF300C802120138FCC8021201383BC9021201AF
:101003003870C90212013882C902120138A1C9021B
:10101300120138AAC90212013871CA0212013858E2
:10102300B903120138CFAB0312013805AC03120127
:101033003839AC0312013886AD03120138D1BC0331
:10104300120138E7BC03120138F1BC031201383B2B
:10105300BD03120138D58403120138E88403120159
:1010630038A98503120138E8850312013805860380
:101073001201383E86031201388B8603120138BDF4
:101083008603120138F48603120138FD8803120126
:101093003869890312013853BE0312013856B40369
:1010A30012013879B403120138A8B403120138408D
:1010B300B50312013858B5031201389AB50312016A
:1010C300384AE7021201388CE7021201380CE802B1
:1010D3001201381FE80212013874E802120138C8FD
:1010E300E8021201380DE9021201381CE90212016B
:1010F30038CBE90212013826EA0212013875EA02F6
:10110300120138CFEA02120138DCEB02120138D4A3
:10111300EC0212013811ED02120138E4BD03120191
:1011230038E95200120138E754001201388456009E
:10113300120138315700120138B157001201383308
:1011430058001201385C5800120138AE58001201E1
:1011530038E75C001201385E5D00120138755E00ED
:10116300120138AF5E00120138F05E001201383709
:101173006000120138666000120138BC6000120181
:1011830038056100120138716100120138E5610010
:101193001201381362001201382B62001201384425
:1011A30063001201385463001201380F6500120105
:1011B30038266500120138586500120138F56600BB
:1011C30012013889670012013820BC03120138313B
:1011D300BC031201380ABF0312013849BF031201CD
:1011E30038B6BF031201383EBB031201384EBB03AE
:1011F30012013866BB031201381ABC0312013856B8
:10120300B803120138DBB8031201383FB9031201E6
:10121300381CB10312013845B103120138ABB103D5
:10122300120138CBB1031201381CB2031201387713
:10123300B203120138B1B203120138B4B20312017E
:101243003810A10312013825A10312013846A20365
:10125300120138C9A2031201383DA3031201385702
:10126300A3031201386AA30312013878A3031201FE
:101273003892A303120138A9A303120138D3A3039D
:1012830012013829A403120138D37B00120138EA72
:101293007B00120138647C00120138487D00120182
:1012A300381F7F00120138847F00120138DB7F0072
:1012B300120138F87F0012013895A903120138256D
:1012C300AB0312013886AB03120138CCAB03120116
:1012D30038BEB20312013810B30312013883B303CB
:1012E300120138F0B3031201385EA40312013888E7
:1012F300A40312013857A50312013833A6031201C0
:1013030038C4A6031201389FCA021201386BCB02FC
:10131300120138ACCB02120138E6CB021201384479
:10132300CC0212013898CC02120138F6CC02120119
:10133300388CCD0212013894CE021201381ED0022D
:10134300120138BCD00212013823D10212013836FF
:10135300D1021201382AD20212013873D2021201C9
:10136300383F9A02120138469B02120138249C022C
:10137300120138459E02120138169F021201383DB0
:101383009F0212013874A102120138C4A102120192
:101393003862A20212013893A3021201383BA4025D
:1013A30012013889BF0312013853BF03120138D623
:1013B300FF02120138D9FF01E066701008A3E0664E
:1013C300700A08A3E066700408A3E06622C3E796E8
:1013D3000809E7960809E7960809E79622C3E09605
:1013E30008A3E09608A3E09608A3E09622C008C3EA
:1013F300E096F50808A3E096420808A3E0964208A1
:1014030008A3E09645087001D3D00822080808EA2B
:10141300C0E0EBC0E086F0E7A4FA180986F0E7A481
:101423002AFA180986F0E7A42AFA180986F0E7A42D
:101433002AFA1986F0E7A4FBE5F02AFA190886F0E0
:10144300E7A42BFBE5F03AFA190886F0E7A42BFB97
:10145300E5F03AFA18180986F0E7A4C5F02BFBE487
:101463003AFA1908E7C5F0C6A426F6E5F03BFBE413
:101473003AFA1886F0E7A4F6E5F00826F6E43B0806
:10148300F6E43A08F6D0E0FBD0E0FA22E4CFC0E07D
:10149300E4CEC0E0E4CDC0E0E4CCC0E075F020C30E
:1014A300E633F608E633F608E633F608E633F618CD
:1014B3001818EC33FCED33FDEE33FEEF33FFC3ECD2
:1014C3009709ED9709EE9709EF97191919400FFF3F
:1014D300EC97FC09ED97FD09EE97FE191906D5F077
:1014E300BEECF709EDF709EEF709EFF7191919D073
:1014F300E0FCD0E0FDD0E0FED0E0FF22601608085B
:1015030008C6C313C618C613C618C613C618C6130F
:10151300C6D5E0EA227009080808226016181818D0
:10152300C6C333C608C633C608C633C608C633C6E1
:10153300D5E0EA22E627F60809E637F60809E63792
:10154300F60809E637F622E026F608A3E036F608A1
:10155300A3E036F608A3E036F622E026F008A3E07F
:1015630036F008A3E036F008A3E036F022C3E6978E
:10157300F60809E697F60809E697F60809E697F6E6
:1015830022C3E096F008A3E096F008A3E096F008E3
:10159300A3E096F022E657F60809E657F60809E6AF
:1015A30057F60809E657F622E056F608A3E056F682
:1015B30008A3E056F608A3E056F622E056F008A387
:1015C300E056F008A3E056F008A3E056F022E066E8
:1015D300F608A3E066F608A3E066F608A3E066F65D
:1015E30022E0F608A3E0F608A3E0F608A3E0F6225B
:1015F300E6F008A3E6F008A3E6F008A3E6F022E08D
:10160300FAA3E0FBA3E0FCA3E0FD22EAF0A3EBF0E6
:10161300A3ECF0A3EDF022CAC0E0E6F0A308DAFAE7
:10162300D0E0FA22CAC0E0E0A3C582CCC582C5835C
:10163300CDC583F0A3C582CCC582C583CDC583DA6E
:10164300E6D0E0CA22C3E498F8E499F91216898037
:1016530026C3E49AFAE49BFBE920E7E9121689E43E
:1016630098F8E499F922C3E498F8E499F9121689F1
:10167300E498F8E499F9C3E49AFAE49BFB22EB209B
:10168300E7CFE920E7E0B90010BB0008E88AF0845F
:10169300F8AAF022E4FBC8FA22EB70227B10C833CD
:1016A300C8C933C9335007C39AC3DBF280069A50C3
:1016B300012ADBEAC833F4C8C933F4C9FA2275F046
:1016C30008E4C833C8C933C933C99AC99B5004C98C
:1016D3002AC93BD5F0ECFBC833F4C8E4C9FA22604D
:1016E3000D08C6A2E713C618C613C6D5E0F32260D9
:1016F3000C08C6C313C618C613C6D5E0F42270047B
:1017030022600D18C6C333C608C633C6D5E0F41825
:1017130022251810AF08F518400215198008F5188E
:1017230040021519D2AF22C0D0251810AF08F51802
:10173300500205198008F51850020519D2AFD0D010
:10174300222518F58210AF08F518400215198008F4
:10175300F51840021519D2AF851983222518F58291
:10176300E43519F58322E4732518C582C0E0E51931
:1017730034FFC583C0E0E518C3958224F810AF0891
:101783008583198582188008858319858218D2AFCD
:10179300CEF0A3E520F0A37808E608F0A3DEFAEF85
:1017A300F0A3E58124FAF8E608F0A3E608F0A3E63F
:1017B30008F0A30808E608F0A3E608F0A3158115CE
:1017C30081D0E0FED0E0F8158115811581E8C0E0F5
:1017D300EEC0E0222518C582C0E0E51934FFC583B9
:1017E300C0E0E518C3958224F910AF0885831985F5
:1017F30082188008858319858218D2AFCEF0A3E5BD
:1018030020F0A37808E608F0A3DEFAEFF0A3E58161
:1018130024FBF8E608F0A3E608F0A30808E608F0BE
:10182300A3E608F0A315811581D0E0FED0E0F815FA
:10183300811581E8C0E0EEC0E02285198385188216
:10184300E0A3FEE0A3F5207808E0A3F608DFFAE0C2
:10185300A3FFE0A3C0E0E0A3C0E0E0A3C0E0E0A3F7
:10186300C0E0E0A3C0E010AF08858218858319802B
:1018730008858218858319D2AFD083D082020135BF
:10188300851983851882E0A3FEE0A3F5207808E09C
:10189300A3F608DFFAE0A3FFE0A3C0E0E0A3C0E003
:1018A300E0A3C0E0E0A3C0E010AF08858218858301
:1018B300198008858218858319D2AFD083D08222FC
:1018C300C0D02518C582C0E0E51934FFC583C0E048
:1018D300E518C3958224F310AF0885831985821810
:1018E3008008858319858218D2AFC8F0A3E9F0A3D5
:1018F300EAF0A3EBF0A37908E709F0A3D8FAECF038
:10190300A3EDF0A3EEF0A3EFF0A3D0E0F0A3D0E0BB
:10191300F0A3D0E0F0A3E520F0A3E5F0F0A3228547
:101923001983851882E0C0E0A3E0F9A3E0FAA3E0FD
:10193300FBA37808E0F608A3DFFAE0FCA3E0FDA32D
:10194300E0FEA3E0FFA3E0C0E0A3E0C0E0A3E0F576
:10195300D0A3E0F520A3E0A3F5F010AF0885831929
:101963008582188008858319858218D2AFD082D0EA
:1019730083D0E0F8D0E032740480067402800274ED
:1019830001C0E0F404121744D0E012161A227404C2
:10199300800474028000CCC0E0EDC0E0E518C39C75
:1019A300CCAD1950011D10AF068C188D1980068C13
:1019B300188D19D2AF121627D0E0FDD0E0FC22D04B
:1019C30083D082E9C0E0E493A3C386F0C5F095F029
:1019D300F908E493A386F0C5F095F0700BE493A3A4
:1019E300C3994005E9048002A3E475F002A42582AB
:1019F300F582E5F03583F583D0E0F9E493A3C0E005
:101A0300E493C0E022D083D082ECC0E0EDC0E0E4F8
:101A130093A3FCE493A3FDED4C600D121A54EC2444
:101A2300FFFCED34FFFD80EFE493A3FCE493A3FDFF
:101A3300ED4C600D121A93EC24FFFCED34FFFD8096
:101A4300EFD0E0FDD0E0FCE493A3C0E0E493C0E07A
:101A530022C0E0C3E49396087401939618400FE400
:101A63009366700808740193661870007019A3A335
:101A7300C3E49396087401939618A3A3400DD0E092
:101A8300D0E0D0E0021A44A3A3A3A3A3A3D0E022EF
:101A9300C0E0C0F088F0E4936670080874019366B0
:101AA300187000A8F0A3A3700BD0F0D0E0D0E0D062
:0B1AB300E0021A44A3A3D0F0D0E02210
:101AC00074F51217D7EAFEEBFFEE2434F8EF34007A
:101AD000F988088909EE2435121BF8F8EE2437122C
:101AE0001BF8F50AEC850AF0A4FCAAF0850AF0EDD3
:101AF000A42AFDE82CF8E43DF97A257B001216892A
:101B0000EA850882850983F05407F87401B8000259
:101B10008004C333D8FCC0E0E0131313541FF8EE65
:101B200028F8EF3400F9E8245DF582E93400F58304
:101B3000D0E0F8E0586008850882850983801DEEB2
:101B40002436121BF8F5F0EA84A8F0EE28F8EF34FA
:101B500000F9E82438F582E93400F583E0F97F04E0
:101B600002188374F51217D7EAFEEBFFEE24341245
:101B70001BF8C0E0EE2435F582EF3400F583D0E0A9
:101B8000F08E828F83A3A3A3A3A3E0FAA3E0FB8E2E
:101B9000828F83A3A3A3A3A3A3A3E0FCA3E0FDECF4
:101BA000C39AF50AED9BF50BEE2480F508EF34009F
:101BB000F509850882F583E06401702BEE2481F538
:101BC00082EF3400F583121995121C01740212176A
:101BD0002AE960137CE27D07EEFAEFFB120AB58575
:101BE0000882850983E4F0AC0AAD0BEEFAEFFB1234
:101BF0001AC01221C1021B5EF582EF3400F583E0AA
:101C000022C082C083851882851983E0F8A3E0F999
:101C1000C3EA9CEB9D5012C3EC98ED994019C3EABE
:101C200098EB99501279018010C3EA98EB9940F52E
:101C3000C3EC98ED9950EE7900D083D08222000059
:101C4000851B87851CC622C0E074EF1218C3759BE4
:101C500000906182E0A2E64003021D08E591A2E641
:101C60004003021D087591BF900499E06405700857
:101C7000120C8F120C9B8003120C95751B00120D19
:101C80000DE990049AF07900120CEF120A197A010A
:101C90007B00900498E0F9120FF5907803E064421D
:101CA0006003021D51900817E014F06003021D51FB
:101CB000C2AF121CB500781ED0E0F618D0E0F6E5F1
:101CC0009F5407F970059090EE80039090D27808A9
:101CD0001215E4E9C4C0E0781DE65508F50808E6E9
:101CE0005509F509740B78081216F2D0E02508F8AA
:101CF000906270E0A2E740F8E8C333906272F0901F
:101D00006270E0D2E0F08049E0A2E55024E591A2C3
:101D1000E5501E7591DF900499E0640D70139004F6
:101D2000BBE004F064287002E4F07A00E0F9120DE0
:101D30009D906181E0A2E35009E5E9A2E3500375BB
:101D4000E9F7A3E0A2E75009E591A2E750037591F6
:101D50007F7F04021922C0E0C0D0C082C08390619E
:101D600083E0A2E05009E5BFA2E0500375BFFEE0AA
:101D7000A2E15009E5BFA2E1500375BFFDE0A2E278
:101D80005009E5BFA2E2500375BFFBE0A2E3500992
:101D9000E5BFA2E3500375BFF7E0A2E45009E5BF39
:101DA000A2E4500375BFEFE0A2E55009E5BFA2E54C
:101DB000500375BFDFE0A2E65009E5BFA2E650037D
:101DC00075BFBFD083D082D0D0D0E032C0E074F2F3
:101DD0001218C3E5A7A2E4500FE5A1A2E4500953ED
:101DE000A7EF75A1EF121E20E5A7A2E5500CE5A113
:101DF000A2E5500653A7DF75A1DFE5A7A2E15009D0
:101E0000E5A1A2E1500375A1FDE5A7A2E2500CE512
:101E1000A1A2E2500653A7FB75A1FB7F0102192284
:101E200074F81217D7751B01900499E064067007C7
:101E30007A007B00120C77A2AFE433FED2AF90049D
:101E40009FE0640170187A207B00900498E0F912FA
:101E500010797A207B00900498E0F9120FFB9061D2
:101E600082E0D2E6F0900816E0602185C61C80165C
:101E700090049EE064017008E5C654F84405F5C678
:101E800053BEFC121C407401651B60E4EEA2E0929C
:101E9000AF7F0102188374E91217D774FA1217146E
:101EA000EAFEEBFF8C088D09900499E024F7C394B7
:101EB0000550069090DE021FBD120C178A0A8B0B8C
:101EC000EA450B7003021FBA120CAD8A0C8B0D127F
:101ED0000CADEA650C7003EB650D60ECEEFCEFFDFC
:101EE000851882851983AA82AB83120CB3850A8276
:101EF000850B83A3A3780C1215E4909056780C12EE
:101F000015AB85188285198378141215E4909056C4
:101F100078141215AB780C79141213D0501F780C6A
:101F2000791412157090905A780C1213F04047856E
:101F30000C10850D11850E12850F1380418514102C
:101F40008515118516128517137810790C121570E6
:101F500090905A78101213F0501C751000751100F3
:101F600075120075130178107914121570781079B4
:101F70000C12153780089090DE78101215E4740961
:101F8000781012151890909A780C1215E478107940
:101F90000C12148F900499E06408600AE0640660F3
:101FA00005E06405701C90906A78101213F05012CE
:101FB00090908E781012154A80089090FE7810123A
:101FC00015E485088285098378101215F3740612CA
:101FD000172A7F1002188374F71217D7120CC590B6
:101FE0000814E064017010906245E4F0A3F053F42B
:101FF000F343FE0C5390F3120C65E5C6548044493C
:10200000F5C6E59E547F644970F8906185740FF0C1
:10201000900812E0F47002A3E0602C7508017509C5
:1020200000900812E07808121701E508F4FAA3E01E
:10203000600814600A14600C800DEA52808008EA7F
:1020400052908003EA52A079007F0202188374F74D
:102050001217D7E9FEEAFF74016E700C7A807B00DC
:10206000900498E0F9120FF5902234E493F460089C
:10207000E493F91209FB800953C680E59E547F70F2
:10208000FA120C6B900814E064017003120A31908C
:102090000812E0F47002A3E0602A750801750900D7
:1020A000900812E07808121701AA08A3E06008144B
:1020B000600A14600C800DEA42808008EA42908039
:1020C00003EA42A0120C178A088B09A808A909E89C
:1020D000496017E5E170FCE82414F582E93400F565
:1020E00083E0F874FF68600288E174016F700A7A17
:1020F00001900498E0F912104902204974F1121776
:10210000D78A088B098C0A8D0B740F12175F780C15
:102110001215E490905678081215AB909056780CF2
:102120001215AB7808790C1213D050157808790C79
:1021300012157090905A78081213F04015790180AA
:1021400013780C790812157090905A780C1213F0CD
:1021500040EB79007F0802188374ED1217D78A08C4
:102160008B098C0A8D0B741312175F780C1215E40F
:1021700090905678081215AB909056780C1215ABCB
:10218000780C79081213D040117808790C12157068
:10219000AA08AB09AC0AAD0B8022751000751100BE
:1021A0007512007513017810790C1215707810797A
:1021B00008121537AA10AB11AC12AD137F0C021820
:1021C00083C082C083E9906000F0D083D08222C0B7
:1021D000E074F21218C3A2AFE433FED2AFE589A2D5
:1021E000E1500312122F758900C2C5751A00EEA2C4
:1021F000E092AF7F01021922C0E074F21218C3A26C
:10220000AFE433FED2AFE58BA2E0500312122F757C
:102210008B00C2E880D5C0E0C0D0E8C0E0E5A8D21D
:10222000AFC2C7751A00A2E792AFD0E0F8D0D0D005
:02223000E0329A
:10223400FFFFFFFFFFFFFFFFC082C083E99010088C
:10224400F0D083D08202013574F612176BE9900343
:1022540064F07CA47D037AFF7BFF1207377A008A3F
:10226400087509007402780812170174652508F8C6
:102274007403350912229BA3F00AEAC3940340DFD6
:1022840079051206C5900364E0F91205ED7A4F7BD7
:102294000712090502381CF98882898374FF122207
:1022A400A8E4F022F0A31236A9A32274F412176B47
:1022B4008A088B09EB54806030900364E0F9120FB4
:1022C400DD8A0A8B0BAE0AAF0BEE4F60138E828F42
:1022D40083E064B070031206D7EEFAEFFB120FCB63
:1022E400AA08E5096480FB80047A007B0002247854
:1022F40074F212176B74FC121714EAFEEBFF7412DB
:1023040012175F1236F2EE4F700302239774021213
:10231400175FEEF0A3EF1226D3ECF0A3ED1226D351
:10232400AA82AB831205E7E9F50A706AE508450954
:1023340060648E828F831236D3EE4F60567A067BAA
:10234400001210318A0C8B0DA80CA90DE8497005F8
:10235400750A13804188828983E41222A8EEF0A3CF
:10236400EF123703E508F0A3E509F0900372122495
:10237400729003727005123190801B12317E8003BB
:10238400EAFCEBFD8C828D8312247270F38C828DB7
:102394008380E3750A02A90A740412172A0238E634
:1023A40074F212176B890AE975F045A4FEAFF09038
:1023B4000371E4F0900367122472602812103779D5
:1023C40000890875090074027808121701746725DA
:1023D40008F58274033509F583E4F0A3F009E9C331
:1023E400940340DDEEFAEFFB1210318A088B09EA00
:1023F40045096075EEFCEFFD7900120FB37D008D89
:102404000C750D007402780C1217017467250CF812
:102414007403350DF9E50AF5F0EDA475F017A4FA87
:10242400ABF0E5082AFAE5093BFB88828983EAF0E8
:10243400A3EBF07E00801BEE75F017A4FAABF088D6
:10244400828983E02AFCA3E03B8C82F583E4F0A339
:10245400F00EEEC3950A40DF0DEDC3940340A0E5F2
:102464000A900371F07900800279130238E6122E83
:1024740022EA4B227F0402183D74F412176B790090
:10248400EAA2E0501B750832750990780812197E8B
:102494007C047D007A0A7B101206BF740212172A8C
:1024A40080D2C082C0839003721236ED49601C88CA
:1024B400828983A3A3E06A7003A3E06B8882898383
:1024C40070E7A3A3A3A3122E1E80047A007B00024C
:1024D400224574EE12176B74FC121714EAFEEBFF1C
:1024E400851882851983E4F0A3F0EE24021231707A
:1024F400EE24051236B0EE2404F50EEF122A7DE028
:1025040024FE603924FC604624FE605224FE605E92
:1025140024FE70030225E924FE700302264D24FEE6
:10252400700302265C24FE700302266B24FC7003F5
:1025340002267A24FE70030226890226C690038BA3
:102544007417F0A3E41226DB12025D0226C6851876
:1025540082851983AC82AD831206DD022696851826
:1025640082851983AC82AD831206E3022696850C1C
:1025740008850D09740212175FAC82AD8385088249
:10258400850983122E1E12060B8A0C8B0DAC0CAD22
:102594000DEC4D603BE4F50CF50D780C12197E75CD
:1025A4000C8B750D03780C12197E750C8C750D034C
:1025B400780C12197E740812175F1219951239F0EB
:1025C40012172AE9F50C700B122E14120275800FE3
:1025D400750C018508828509831226C912319085FC
:1025E4000C08022699740212175FAC82AD83850C25
:1025F40082850D83122BD0603C850C82850D83A3CC
:10260400A312199575108B751103781012197E7524
:10261400108C751103781012197E740812175F124A
:1026240019951239F012172AE9F509700B122E14B4
:1026340012027B800F750901850C82850D83122699
:10264400C9123190850908804C851882851983AC9C
:1026540082AD831206E9803A851882851983AC829B
:10266400AD831206EF802B851882851983AC82AD69
:10267400831206F5801C851882851983AC82AD838C
:102684001206FB800D851882851983AC82AD8312F6
:102694000701E9F508E50860298E828F83A3E064C9
:1026A40014601F850E82850F83E090038B1226D35E
:1026B4001239C890038C123190E508A31226DB125C
:1026C400025702307F1239CC85188285198322F093
:1026D40085188285198322F07C8B7D03850A828587
:1026E4000B83122E222274EE12176B74FC12171431
:1026F4008A0A8B0B8C0E8D0FEA2405F508EB340047
:10270400F5097C157D0079007A8B7B03120FB3E504
:10271400082402F50CE5091236B38518828519835D
:10272400858210858311781012197E8508828509A7
:1027340083A3A3A3A3122BC712197EE5082405F5CE
:1027440010E5093400F511781012197E850C828584
:102754000D83122F35120605740612172A8A108B60
:1027640011AE10AF11E50A2402F50AE50B1231731C
:10277400EE4F70030228A88017740212175F122EFE
:102784001E88828983EAF0A3EBF090038BE004F0C7
:1027940090038BE0C3940540030228A8E4F510F5E8
:1027A40011781012197E75107475110378101219AE
:1027B4007E751075751103781012197E7406121740
:1027C4005F1219957910EEFCEFFD1239F212172AF7
:1027D400E9705E850882850983A3A3A3A3A3A3A3A9
:1027E400E0F8900374E0687048122BC712197E7CDD
:1027F400757D03E5082408FAE5093400FB120FADE2
:10280400740212172AE960298E828F83A3A3A3A3DB
:10281400122E1E90038BE0F510740278101217012B
:10282400748C2510F58274033511F583EAF0A3EB5B
:10283400F0740212175F85821085831178101219C3
:102844007E740212175F121995850C82850D83120E
:102854002E4412172A8A108B11AE10AF1190038BDD
:10286400E0F51075110074027810121701748B25AD
:1028740010F874033511F988828983A312247270C5
:1028840003022774E82403080808E93400F9EE4F2A
:10289400600302277D8882898374FFF0A3F090038C
:1028A4008BE004F090038BE0600A122E141202698C
:1028B4007900800B850882850983123187790A02A1
:1028C400307F74EA12176B74FE1217148C128D1376
:1028D400EA2405F50CEB1239DA1236D775080075BF
:1028E4000900EA2402F510EB3400F51185188285FD
:1028F400198385820A85830B780A12197E850C82D6
:10290400850D83A3A3A3A3122A9312197EE50C2495
:1029140005F50AE50D123173780A12197E850C82C9
:10292400850D83122A97120605740612172A8A0A3D
:102934008B0BEA450B7003022A48EA2404F50EEBDC
:10294400122A7D1236D78A828B83A3A3A3E0F9854A
:102954001082851183122E286003022A48E4F5149C
:10296400F515781412197E751474751503781412FC
:10297400197E751475751503781412197E74061270
:10298400175F1219957913AC0AAD0B851082851166
:10299400831239F812172AE9F5096003022A4890CC
:1029A4000374E0F8E5087009E0240290038CF080D9
:1029B4001790038CE0FCE82402FAE43400FBEA6C90
:1029C4007001EB6003022A4C850882AA82122BBE96
:1029D4009414122BB6506D850E82850F83E0C0E0EF
:1029E400122DEED0E0F00508850E82850F83A3E05A
:1029F400C0E085080A748D250AF58274033400F555
:102A040083D0E0F00508900374122A9312197E7C97
:102A1400757D0385080A748D250A122A8712172AE0
:102A2400900374E02508F50874FF6E700374FF6F5B
:102A34006012EE24010EEF3400FFE508C394145035
:102A4400030228F0E5086013122E328510828511E6
:102A540083122E1E12026F79008014E5097003752B
:102A6400090A851282851383EEF0A3EFF0A9097495
:102A74000212172A7F0E02183D3400F50F850E82CC
:102A8400F58322FA74033400FB120F9B74022212A2
:102A9400371222A3A3122A9D2212317EFDEEFAEFF1
:102AA400FB2274EE12176B74FE1217148C0E8D0F2A
:102AB400EA2405F50CEB1236B3750B0090038BE496
:102AC400F0F50AEA2402F508EB3400F50980449095
:102AD400038BE0FA900374E0F8122BBE9417122BC8
:102AE400B6400D90038BE0F87416C398900374F00D
:102AF400122BC712197E7C757D03748C2AFA740319
:102B0400122A8A12172A900374E0F890038BE028A3
:102B1400F0050AE50C2416F582E50D3400F583E092
:102B2400F8E50AC398507490038BE0C39416506B75
:102B3400E50AC333F8E433F9E50C28FEE50D39FF63
:102B4400851882851983AC82AD838E828F83122B84
:102B5400D07008750B011231838050E4F510F51123
:102B6400781012197E751074751103781012197E7D
:102B7400751075751103781012197E740612175F9B
:102B840012199579168508828509831239F8121766
:102B94002AE9F50B7003022AD380BB7C8B7D038565
:102BA4000882850983122E1E120281A90B74020267
:102BB4003081E99400C365D03322EA28F8E4340074
:102BC400F9E822E0F5107511007810221230768AA7
:102BD400108B11AC10AD11EC4D2274EA12176B740A
:102BE400FC1217148A0C8B0D8C128D13EA2405F534
:102BF4000AEB123173750800750900E50A2402F521
:102C040010E50B3400F511740212175F85820E85EE
:102C1400830F780E12197E850A82850B83A3A3A3E2
:102C2400A31236B812197EE50A2405F50EE50B3415
:102C340000F50F780E12197E8510828511831231EA
:102C440079122E18120605740612172A8A0E8B0F93
:102C5400AE0EAF0FE50C2402F50EE50D3400F50FB2
:102C640080388882898374FFF00508122DFA74FF76
:102C7400F00508900374E0F50C750D00780C12193A
:102C84007E7C757D0385080C748D250C122A8712B1
:102C9400172A900374E02508F508EE4F60278E820A
:102CA4008F83A3A3A3E0F9850E82850F83122E28B8
:102CB400EE24041236B0E96027850C82850D831258
:102CC4002E0A123190E5087003022DD4122E32859B
:102CD4000E82850F83122E1E1202877900022DE9BF
:102CE400E4F514F515781412197E7514747515032A
:102CF400781412197E751475751503781412197EDB
:102D0400740812175F1219957911EEFCEFFD850E08
:102D140082850F831239F812172AE9F509709A850A
:102D24000882AA82EA9003747009E0240490038C58
:102D3400F08025E0F890038CE0F514E82404FCE42A
:102D44003400FDEC65147001ED7081122BBE9412F9
:102D5400122BB64003022CD0850C82850D83E0C073
:102D6400E0122DEED0E0F00508850C82850D83A3DA
:102D7400E0C0E0122DFAD0E0122E4D85820C85833E
:102D84000D780C12197E740412175F1219958510B0
:102D940082851183122E4412172A8A0C8B0DAE0CD5
:102DA400AF0D85080C748D250CF874033400F9EE0E
:102DB4004F7003022C66851882851983E088828906
:102DC40083122E4DA3E0C0E0122DFAD0E0022C7441
:102DD400E509700375090A850A82850B83122E0A98
:102DE400123190A9097404022A75748D2AF582742B
:102DF400033400F5832285080C748D250CF5827448
:102E0400033400F583221239CC8512828513832280
:102E14007C8B7D03850A82850B83122E2222E0FAA5
:102E2400A3E0FB22122E221205F3E9F509229003F6
:102E34008CE0F5F0E5088490038BF07C8B7D032215
:102E4400122A9D120611740422F005088518828541
:102E540019832274EC12176B74FE1217148A088BF0
:102E6400098C0E8D0FEA2405FEEB3400FF1230604E
:102E7400EE24181236B0EA450B7003022F03123009
:102E8400495029122F288A108B11EA4511606B7959
:102E940012AC0AAD0B850882850983122E1E85109B
:102EA40082851183121769E9F50A7058E4F50AF569
:102EB4000B780A12197E8E828F83A3A3E0F50A7819
:102EC4000A12197EEE2403123170780A12197E8ECA
:102ED400828F83122F35120725740612172AE9F5FB
:102EE4000A7021850C82850D83E0701F8508828518
:102EF4000983122E1E12028D8011750A0E80097527
:102F04000A018004E50A6003123183850C82850D71
:102F140083E0600479008002A90A740212172A7FF0
:102F24000C02183D851882851983122E221207136C
:102F34002212317EFD850882850983122E22227495
:102F4400EE12176B74FE1217148A088B098C0C8D01
:102F54000DEA2405FEEB3400FF750E00123060EA22
:102F6400450B7003023027123049502C122F288A47
:102F74000E8B0FEA450F604A7912AC0AAD0B850837
:102F840082850983122E1E850E82850F831217698E
:102F9400E9F50E600302302A85088285098312321E
:102FA4008AAA0AFB12303B70147AFF7BFF12303B73
:102FB400606C88828983E50AF0A3E50BF0750A004A
:102FC4008007750E0E805F050A900371E0FAE50A2A
:102FD400C39A504AE50A75F017A4FAABF0888289BF
:102FE40083A3A3E02AFAA3E03BFB8A828B831231FA
:102FF40079EC4D70D2750A17750B00780A12197E98
:10300400EEFCEFFD120F9B740212172AEEFCEFFD8B
:10301400850882850983122E1E1202938014750E70
:10302400098003750E011239C4850C82850D831243
:103034003190A90E022BB11207078A108B11A81028
:10304400A911E84922E5082402F508E5093400F548
:10305400098A828B83A3A3A3E0A2E5228518828533
:103064001983AC82AD838E828F831230768A0A8B69
:103074000B22E0FAA3E0FB12060B22740412172AB7
:103084007F0A02183D74EC12176B8C108D11EA2420
:1030940005F50CEB1236B3750F00EA2402F50AEBC2
:1030A400123173850A82F583122E1E123A7F700341
:1030B400023165750E008071850C82850D83E06494
:1030C40001704F8E828F83A3A31219958E828F83F2
:1030D400A3A3A3A3E0F512751300781212197EEED0
:1030E4002405F512EF3400F513781212197E122E0E
:1030F40018120725740612172AE9F50F6014850CB7
:1031040082850D83E4F01239C485108285118312FF
:1031140031907C177D007900EEFAEFFB120FB38E2D
:10312400828F83E4F0A3F0050E900371E0F8E50EBE
:10313400C398501EE50E75F017A4F8A9F08508820F
:10314400850983A3A31239E4123179EC4D6003029B
:1031540030BC85088285098374FFF0A3F0E50F7005
:1031640006122E18120299A90F022F23F50AEF3422
:1031740000F50B22A312317EFD22E0FCA3E0228E97
:10318400828F831239CC850E82850F83E8F0A3E900
:10319400F02274F612176B7C008C08750900740217
:1031A40078081217011231C86A7003A3E06B700625
:1031B400E8FAE9FB800B0CECC3940340DC7A007B57
:1031C4000002381C74652508F874033509F98882EF
:1031D4008983E02274F712176B7F00EF75F003A464
:1031E400F8A9F0EC28F8ED39F988828983E06A704F
:1031F40003A3E06B7006E8FAE9FB800B0FEFC394BE
:103204000440D87A007B007F0102183D74F612173F
:103214006B1237C170067A007B008007A3A3A3A3B7
:10322400122E1E02381C74F212176BE9FE740E1271
:10323400175F12328A741012175F1236F28C828D65
:1032440083E06402703BA31239C888828983E0F565
:103254000CA3E0F9A80C7402687003742969702146
:10326400750C02750D00780C12197E780812197EFF
:10327400780A12197EEEF9120749740612172A8089
:103284000279010238E6E0F50AA3E0F50B2274E8BE
:1032940012176B74FB121714E9851882851983F0D1
:1032A4008A168B178C0E8D0F741F12175F1236F24D
:1032B400742112175F12328A742312175F1236D7E1
:1032C4007510008C828D83A3A3A3E0A2E4502A741A
:1032D4001D12175F122F2E8A828B83E5824583701D
:1032E4000302339E790AAC0EAD0FAA16AB17121760
:1032F40069E9F51060030233A1850E82850F83E02E
:1033040064026003023657A31239C885088285090E
:1033140083A3858212858313E50E2406F50CE50F3D
:103324001236B388828983E0FAA3E0F9EA2400F52F
:1033340014E439F5157814121A080100002801283C
:103344006633070002283D340328AD33002967356E
:1033540001298F3502293635032967350429F835C3
:103364005736EE4F703E850C82850D831236EDFA8A
:10337400E9FB8A828B83E0850A82850B83123709F5
:1033840012197E8A828B83A312317EFDAA08AB09AF
:10339400120F9B740212172A800375100EA9107461
:1033A400050239D275100B80F4EE4F70F7850A824E
:1033B400850B837401F01236DD850882850983F05C
:1033C4007C007D00850E82850F83A3A3A3A3E02444
:1033D40001FAA3E03400FB12060BEA4B60418A8237
:1033E4008B83E02402F8850A82850B83E028F0EAC7
:1033F4002404F8EB3400F988828983E085128285FD
:10340400138312371B12370912197E8A828B831297
:103414003178E5082403FAE5093400FB0233948586
:103424000A82850B83E02404F07C047D007900AAE1
:1034340012AB13120FB30233A1EE4F60030233A891
:103444001236DDFEA3E0FF850A82850B837404F047
:10345400EE850882850983F0EF851282851383F057
:10346400740312175FAC82AD83EEFAEFFB1237AF31
:1034740070030235138A828B83A3A31236D374019B
:1034840012175F85820E85830F780E12197E7405DC
:1034940012175F1219957CFF7DFF12061174041236
:1034A400172A8B0FEA450F7033850C82850D831222
:1034B40036B812197E850C82850D83A31219957C6A
:1034C400027D007A127B91120389740412172AE98F
:1034D400700A740112175F74FFF0A3F08E828F8359
:1034E400E064027034750C02750D00780C12197EBC
:1034F4008E828F83123178E5082404FAE509122AB2
:103504008A12172A850A82850B83E02402800974B3
:103514000112175FEEF0A3EFF0740112175F123679
:10352400C9F0740112175FA31236C1A3A3A3F0025A
:1035340033A1EE4F60030233A8850C82850D8312FC
:103544003179AA16AB1712073D850A82850B83745D
:1035540002F0EA850882850983F085128285138347
:10356400EB80CBEE4F60030233A81236DDF8A3E004
:10357400F9850A82850B837402F0E885088285093F
:1035840083F0E985128285138380A3850C82850DDF
:1035940083122E1E120F95EAFC8C82A882C39EE42D
:1035A4009F404BE86E7001EF70047C00801F85180B
:1035B40082851983E0FAEE2AFAEF3400FBC3EA9815
:1035C400EB94005003E08004EECCC39CFCEC850A31
:1035D40082850B83F08C0A750B00780A12197E859C
:1035E4000C82850D83E02EFCA3E03F02338F75101F
:1035F400070233A1EE4F60030233A8850C82850DC8
:10360400831239C8850A82850B837407F0888289FE
:10361400831236C11236A9E0851282851383F0E83D
:103624002402FAE93400FB8A828B831236C11236F3
:10363400FA1236C9A31237031236CDF0E82405F87E
:10364400E93400F9888289831236CDA312371BA38B
:1036540002352F741D12175F1237BA700302339E9E
:103664001239C8880C890DE8450D700302339E8E0B
:10367400108F11781012197E780A12197E780812A8
:10368400197E740612175FE0F9AC0EAD0FAA16ABE3
:1036940017850C82850D83121769740612172AE99F
:1036A400F5100233A1F088828983A322F50CEF344C
:1036B40000F50D22E0F50E750F00780E22E0850866
:1036C400828509832212372222123722A3A322A33E
:1036D400A3A3A3E0FEA3E0FF22850C82850D83E073
:1036E400F8A3E0F5838882E0221239CCE822E0F5E1
:1036F40008A3E0F50922A3A3F08A828B83A32212F4
:1037040022AAA3A322F08A828B8312371222E0F525
:103714000A750B00780A221236A912372222E08594
:103724000882850983A3A32274EE12176B74FE1218
:1037340017148A0A8B0BECFAEDFB741412175FE072
:10374400F510A3E0F511741612175FE0FE74181259
:10375400175FE0F50EA3E0F50F851882851983AC99
:1037640082AD831237AF603E851882851983123784
:10377400BA602FA3A31236F2E50845096024780E37
:1037840012197E781012197EEEF9AC0CAD0DAA0A4E
:10379400AB0B850882850983121769740412172AF2
:1037A4008006790E80027901022BB112060B8A0C75
:1037B4008B0DEA450D22122E221237C1221206D198
:1037C4008A828B83E58245832274F612176B74FE1A
:1037D400121714740C12175F1236ED8518828519AE
:1037E40083F0740112175FE9F0E4F508F50978082D
:1037F40012197E750802780812197E740412175F74
:10380400858208858309780812197E1207257406B3
:1038140012172A740212172A7F0202183D74F71233
:10382400176BEAFEEBFF89087CA47D0312073DEACF
:103834005402600BA908EEFAEFFB1205FF8002792F
:103844000102320B74F612176B74FF6A700374FF73
:103854006B701B7B00EB75F003A4F8A9F0EC28F85F
:10386400ED3912229B0BEBC39404501480E712072A
:103874000D8A088B09A808A909E849600312229C4B
:10388400809674F612176B12070D8A828B83E58279
:1038940045836006A3A3E0FA80027A007B00023825
:1038A4001C74F212176B8A088B09ECFEEDFF740E80
:1038B40012175FE0F50A1238EB701CEEFCEFFD7A8C
:1038C400FF7BFF1238EB700479118016888289839C
:1038D400E508F0A3E509F088828983A3A3E50AF04B
:1038E40079007F0602183D12070D8A0C8B0DA80C77
:1038F400A90DE8492274EE12176BEAFEEBFF8C085F
:103904008D09890C741212175F1239C874141217B6
:103914005F123179741612175F122E1E750D00ECAA
:103924004D60030239BC7402650C60030239B78828
:1039340082898312317EF9EC2400F50EE439F50F07
:10394400EAF4F8EBF4F9EC58F8E50F59F9E84970A2
:103954005DE5082406F8E5093400F9880A890B882E
:1039640082F583122A9912073D8A108B11E50E65A0
:10397400107004E50F65116042780E12197E850AF5
:1039840082850B83122A99120743740212172AE9BB
:10399400F50D7027780E12197E850882850983A398
:1039A400A3122A97120755740212172A800D750D57
:1039B400808008750D0D8003750D0BA90D023084F0
:1039C4008E828F831239CC22E0F8A3E0F9221217F9
:1039D4002A7F1002183D3400F50D850C82F58322F0
:1039E400E028FEA3E039FF8E828F83227916850AB0
:1039F40082850B83122E2212071F74082274F2127E
:103A0400176BEAFEEBFF890B7401650B600E740201
:103A1400650B70647901120923E9705CEEFAEFFB1F
:103A2400123A7F6048750A00800B7C177D0079008C
:103A3400120FB3050A900371E0F8E50AC398502207
:103A4400E50A75F017A4F8A9F0850882850983A30F
:103A5400A3E028FAA3E039FB8A828B831236ED496E
:103A640070C885088285098374FFF0A3F07CA47D67
:103A740003EEFAEFFB1207370238E61207078A084B
:103A84008B09EA45092274F212176B8A088B09EC38
:103A9400FEEDFF740E12175F12328A901008E0F4E4
:103AA400603D7A097B00120FC5EA4B60328A828B33
:103AB4008374B1F0A3E41236FCA31236FAA3E5082A
:103AC400F0A3E509123AE6EEF0A3EF123AE6A3A357
:103AD400E50AF0A3E50BF0901008E0F9120FD1020B
:103AE40038E6F08A828B83A3A3A3A3A322C082C057
:103AF400839061907404F0A37448F0A3E4F090619F
:103B0400807440F09061BC7407F09061877469F030
:103B14009061B67416F07900120A1F7902120A2510
:103B2400902234E493F46006E493F91209FB7905D6
:103B3400120D7F023F57C082C083E9540FF9906190
:103B440085E0696012E5C654804449F5C6E59E5493
:103B54007F644970F8E9F053C680E59E547F70FA9B
:103B6400023F5774F712176BE5A8FE53A87E120A9A
:103B740007C2BA539AFEC289759B00C2C2120A0DCB
:103B840075A91175B905120A13D2BA439A01748042
:103B94005E42A8024E5AC082C083906181E4F0A3C1
:103BA400F0A3F0023F5775E90075910075BF00025C
:103BB4000135C082C083906181E4F0A374C0F0A396
:103BC400E480DFC082C08374F812171490049B123F
:103BD40045CDE8497003023C7E90049BE05440606C
:103BE400237908851882851983AA82AB83120B2D49
:103BF400851882851983AA82AB831207C190049B1E
:103C0400E054BFF0E054806010790C7A387B0812DD
:103C14000B2D90049BE0547FF0E0A2E05008790063
:103C2400123C8654FEF0E0540260087901123C868E
:103C340054FDF0E0540460087900123C9154FBF008
:103C4400E0540860087901123C9154F7F0E05410F4
:103C540060087902123C9154EFF0E0542060087936
:103C640003123C9154DFF0A3E05401600D120A31B9
:103C74001207D390049CE054FEF0740812172A0231
:103C84003F57120A1F1207C790049BE022120A250D
:103C94001207CD90049BE022C082C083E960051422
:103CA400602A804F90619A7433F0A37455F0906148
:103CB400A0743AF0900814E064017009C291900471
:103CC4009D7467802D90049D7461802690619A7420
:103CD4003FF0A3745AF09061A0747FF0900814E050
:103CE40064017009D29190049D7471800590049DC3
:103CF400746AF0023F57C082C083E9600B14600D00
:103D040014600F146011802090223880159022399D
:103D1400801090223A800B900814E0640160F390C4
:103D2400223BE493906186F0023F5774EE12176BC6
:103D340074F4121714851882851983AC82AD8375C7
:103D44008390758282740412162790223893F4604B
:103D540003023EC1907808E0C394025003023EA1DE
:103D6400740412175FAC82AD8375839075821574E9
:103D740008121627F97AFF7BFF7FFF7E0089828570
:103D84008210801874086E7003023E5674096E70B7
:103D940003023E56740A6E7003023E56E510C333A6
:103DA400FCE433FD740412175FE5822CF582E5838D
:103DB4003DF583E0F50EA3E0F50F8E087509007458
:103DC40002780812170174482508FC74783509FD37
:103DD4008C828D8378081215E4740878081214FF15
:103DE40085080C85090D8C828D8378081215E4747E
:103DF4001878081214FFE50C4508F508E50DF509D7
:103E0400C3E50E9508E50F95098C828D8378081219
:103E140015E48C828D8378081215E47418780840B0
:103E2400141214FFE50C4508FCAD0DE50EC39CFC13
:103E3400E50F9D800F1214FFE50C4508C3950EFC99
:103E4400E50D950FFDC3EC9AED9B5006ECFAEDFBE6
:103E5400EEFF0EEEC394135003023D8874FF6A70A4
:103E64000374FF6B602D8F087402780812170174B5
:103E740048124ADB74783509F58378081215E4850D
:103E84001882851983E5822510F582E583124A1983
:103E9400E508F009E9C394045003023D797508016B
:103EA400750900780812197E740212175FAC82AD8E
:103EB400837A8E7B08121205740212172A740C126C
:103EC400172A7F0A02183DC082C083906186E0F8F9
:103ED40090223BE49368700990223AE493906186BF
:103EE400F09061AE7468F0A3746AF090624574FB5C
:103EF400F0A304F053F4FD43FE029008147401F09F
:103F04009061A0E0643A7004790080027901120A99
:103F14001F023F577F0402183DC082C0839007F2FE
:103F2400E0640170179007F8E0F87401686009E82C
:103F3400700AA3E064017004790C8012900809E00F
:103F44006401700890080FE0640160EC790080035C
:103F54001240B4D083D08202013512462594062241
:103F6400E0C4333354C022C082C0839007FC74255C
:103F7400F09007FA7401F0A3E4F07A01FB120CFB51
:103F84009007E8E02416123FB87455F0A3740AF0C1
:103F94009007F9E0640170169007F8E07010790159
:103FA400120D5B120D2B120D557900120D67023F95
:103FB40057E02414F8A3E0123FBF223400F98882AA
:103FC40089832274F612176B74FA1217149007F18E
:103FD400E064017008120A3D9007F1E4F075E1F124
:103FE4009007E8E02415123FB87401F09007F3E05D
:103FF4006401705390902CC082851882851983AC1B
:1040040082AD83758390D082740612162775D90DFC
:104014009007EA123F644403F5D97800880874EBEA
:10402400124ADB7407123F5E40F278008808851854
:1040340082851983E582124ADBE583123F5E40ECF8
:1040440075E195790180027900120D0190102A1210
:1040540040BA74CFF0A3740BF0A31240BA1240BA62
:1040640012421974D5F0A3740B12422E9007EAE0A1
:10407400F97AEB7B07120CDD9007FC1240B479014E
:10408400120D07909062121602120D1F9090EA1200
:104094001602120CE97900120D739007E8123FB56D
:1040A4007416F09004997405F00412172A0246B6A7
:1040B400E0F91221C12274C9F0A3740BF0A3227495
:1040C400F412176B8908A8081241FD900801E0F961
:1040D4007A027B08120CDD90080FE0701A79001246
:1040E4000D3D9007DBE0700B79007ADC7B07120C46
:1040F400E38009790180F37901120D3D75E1F175D1
:10410400D923900801123F644405F5D97800880A40
:104114007402250AF5827408123F5E40F175D900D5
:1041240075D90075D90075D90075D90075D9007A8B
:1041340000125289242212454840F67A001252890C
:104144002426F582E91246BE0AEAC3940340EEEE41
:10415400242B1246BB7A00125289242C12454E405D
:10416400F67A00125289242E12454E40F67A001235
:104174005289243012454E40F67A00125289243274
:1041840012454E40F67A008A0AEE250AF8EF124AE2
:10419400C912455B940540EFEE2437124D1B541FA2
:1041A400F8EE242A124D1BC43354E048F5D975E1C6
:1041B4009590102A749FF0A3740BF0A374A5F0A338
:1041C400740B12421074ABF0A3740B12422E9008BD
:1041D4000E1240B4909062121602120D1F9090EAD3
:1041E400121602120CE990600DE4F07901120D73BD
:1041F4009004997406F0023F18E875F006A4C8AA62
:10420400F02AF974C928FE740439FF22F0A312427B
:10421400191242192212421D227499F0A3740BF050
:10422400A37499F0A3740BF0A32212423222F090EB
:10423400103812423EA312423E2212421D7499F0DB
:10424400A3740BF02274EC12176B9007FF124DD17C
:1042540078101215E4900810E0FAF875F006A4C876
:10426400ACF02CF974F728F582740439F583E0FE78
:10427400A3E0FFEEC333FEEF33FF8E0CF50D750E96
:1042840000750F0085100885110985120A85130B26
:104294009090F2780812154A780812197A85100855
:1042A40085110985120A85130B7808790C121537C4
:1042B4007810790C12148FE4F50EF50F7808790C48
:1042C4001215708A0C750D007403780C121701789E
:1042D40008790C12153790905678081215ABAA0875
:1042E400AB09AC0AAD0B122159740412172A8A08BF
:1042F4008B09A808A909C3EE98EF995006E82EF88F
:10430400E93FF9E890600EF0E9A3F0EEA3F0EFA323
:10431400F090600D74C1F07F0C02183DC082C08320
:104324009007E81243409007FC023F54C082C083C8
:104334009007FF12434090080E023F54124DD5A33C
:10434400A3A3A3E4F0A3F02202013574F212176BC5
:1043540012449AF50AEF1248116004780480027836
:1043640000E8240EF8EAC39850030243F875080CD9
:10437400900818E4F0EE2477124D1B900819F07998
:1043840002EE2478FCEF3400FD7A1A7B08120B1B32
:104394007902EE247A1243FD247C1243FD247EFC30
:1043A400EF3400FD120B1BEE24751244B0850A8213
:1043B400850B83E0601675081875090878081219CA
:1043C4007E7C0C12492512172A75081074012508E1
:1043D400F5D975D90378008009880A7418250A125A
:1043E400448FE8C3950840F175E1957904120D25D1
:1043F400790180027900024AC4FCEF3400FD120BFB
:104404001B7902EE2274F212176B12449AF508EF2C
:104414003400F509850882F583E06004780480029D
:104424007800E8240AF8EAC3984055750A08900809
:10443400187401F079057CE27D077A197B08120B68
:104444001BEE24811244B0850882850983E060163E
:10445400750818750908780812197E7C0812492510
:1044640012172A750A0C1247188003124489E8C3EC
:10447400950A40F775E1957904120D2579018002BA
:104484007900024AC4880874182508F58274081251
:104494004D22F5D9082212449E22EAFEEBFF9061D8
:1044A400D0E0F87480C398FAEE248322FCEF340041
:1044B400FD8E828F83A3A3A3A3A31245D18C828DE7
:1044C40083E028F0A3E039F07902120B1B2274F682
:1044D40012176BEAFEEBFF9061D0E0706275D91899
:1044E40075D90375D9037A008A08EE250812528E0D
:1044F400249C12457240F17A008A08EE2508125273
:104504008E24A412454E40F17A008A08EE25081242
:10451400528E249412457240F17A008A08EE2508DE
:1045240012528E248812454840F175E1957908EEBF
:10453400249412456B248812456212463D80027908
:10454400000246B6124554940422124554940222A1
:10455400F582E93400F583E0F5D90AEAC322FAEFDB
:104564003400FB120B21221245627904EE2212451B
:104574005494082274F612176BEAFEEBFF900818A5
:10458400740612463012197E7C01790312492B12EB
:10459400172A75D90675D903780012461540FB759C
:1045A400E195900499E064087017EE2470F582EFA9
:1045B4001245CAEE2472F582EF124A19E8F0A3E913
:1045C400F079010246B6124AD61245D122E0F8A388
:1045D400E0F92274F612176BEAFEEBFF9061D0E06B
:1045E400702A900818740A12463012197E7C0179D8
:1045F4000312492B12172A75D90675D903780012AC
:10460400461540FB75E19512464280027900024648
:10461400B6880874182508F582740812462594058E
:10462400223400F583E0F5D908E8C322F0750818B0
:1046340075090878082275E1957904120D25EE2490
:1046440070F582EF124AD61245D1EE2472F582EF4C
:10465400124AD6E8F0A3E9F079012274F612176B36
:10466400EAFEEBFF9061D0E0704379019008187482
:104674000BF0900499E06407701775081875090821
:10468400780812197E7C01090912492B12172A791C
:1046940005740129F5D975D903780080031244897A
:1046A400E8C39940F875E19512464280027900808A
:1046B40001F07F0202183DF582EF124D22F5D92256
:1046C40074F512176B12474760047804800278006F
:1046D400E8240BF8EAC3984036750A099008187460
:1046E40008F0F9124730601475081875090878083D
:1046F40012197E12492312172A750A0D12471880BF
:1047040003124489E8C3950A40F712463A800279B5
:10471400000249927401250AF5D975D9037800225B
:10472400EE241DF582EF124A2BA3F022EE24E5FCC1
:10473400EF3400FD7A197B08120B1B85088285096A
:1047440083E02212449EF8EF124EA5F583E0227412
:10475400F312176B8A088B09124936FAE508248389
:10476400F50AEB1248116004780480027800E8240A
:1047740008F8EAC398500302480A750C0690081812
:10478400740CF09004B6E0900819F07402C0E0F9DB
:104794007CB77D047A1A7B08120B1BD0E0F97CB934
:1047A4007D04120B1B850A82850B83E0601C750A4D
:1047B40018750B08780A12197E7C067903AA08ABCF
:1047C4000912492B12172A750C0A7401250CF5D904
:1047D40075D90378008009880A7418250A12448F51
:1047E400E8C3950C40F175E1957904120D25E508AF
:1047F4002470F582E5091245CAE5082472F582E5BC
:1048040009124654800279007F0502183D3400F5F0
:104814000B850A82F583E02274F612176BEAFEEB2D
:10482400FF124936FCEE2483F8EF12493160047A12
:104834000480027A00EA2404FAECC39A405E7A0205
:10484400900818EAF0EE24F7F582EF1248AC6019EC
:10485400750818750908780812197E7C027903EE28
:10486400FA12492B12172A7A0674012AF5D975D936
:104874000378008003124489E8C39A40F875E195EF
:10488400EE24741248A5EE24801248A51247247918
:1048940004120D25EE240D124645800279000246CD
:1048A400B6F582EF124A2B22124D22900819F08895
:1048B400828983E02274F612176B124936FEEA24C9
:1048C40083F8EB12493160047C0480027C00EC2400
:1048D40004FCEEC39C40437C029008187407F0EA81
:1048E40024F8F582EB1248AC6015750818750908B0
:1048F400780812197E790312492B12172A7C067440
:10490400012CF5D975D90378008003124489E8C3D2
:104914009C40F875E1957901800279000246B67CE5
:10492400097903EEFAEFFB120B8D740222123FBFDA
:10493400E0229061D0E0F87480C3982274F51217D5
:104944006BE9FEA2AFE433F50AC2AF7F00EA246F3D
:10495400F8EB3400F980010F88828983E0FCEFC30F
:104964009C50188F08EA2508FCEB3400FDEC246BFE
:10497400F582ED124D1E6E70DE800DEA2CFAEB12FC
:104984004CAEEE1248B204F0E50AA2E092AF7F0307
:1049940002183D74F612176BA2AFE433FFC2AFEAFC
:1049A400246FF8EB125290FCE9FD8C828D83E014A5
:1049B400F07E00801E8E08EA2508F8EB125290243F
:1049C4006CF582E9124D1EC0E0E8246B124A16D041
:1049D400E0F00E8C828D83E0F8EEC39840D7EA2491
:1049E4006EF582EB124A1974FF124A1DEFA2E0928F
:1049F400AF0246B6C082C083E5A8F8C2AFEA246B12
:104A0400F582EB124A19E9124A1DE8A2E792AF02B5
:104A14003F57F582E9124AD622F0EA246AF582EB7E
:104A2400124A2B22F582E93400F583E4F02274F271
:104A340012176B8C828D83A3A3A3A3E0541FF0EA07
:104A44002436124FD88E828F83E4F0F50C850C82C5
:104A540085820AEC250AF8ED124EA1F583E0C0E048
:104A6400EA250AF8EB124AC9D0E0F0750D00850872
:104A740082850983E0F50A750B00E50D780A1216A4
:104A8400E2E50AA2E05027E50C33333354F8250D50
:104A9400C0E08E828F83E0F8EA28F8EB125290246B
:104AA40038124A16D0E0F08E828F83E004F0050DB0
:104AB400E50DC3940840B7050CE50CC39405408D7F
:104AC4007F0602183D3400F9E8245D124AD322F52A
:104AD40082E93400F583222508F5822274F6121740
:104AE4006B9004C5E0640370077A007B000246B64D
:104AF4007C00ECF875F006A4C8AAF02AF974CB2857
:104B0400F582740439F583E06003024C92124F1A63
:104B1400124CC0E4F0E82404FAE93400FBEAFEEBAA
:104B2400FFEC8E828F83F0E82462124C9F2465127E
:104B34004CCF2468124A16124CC0A3A3E4F0A3126B
:104B44004D64A3124CD3240F124C9F2435124CA74E
:104B5400121602E82418124A1612160EE8241C1221
:104B64004CBB241D124CCF2480124CBB2474124C19
:104B7400BB2469124A167480F0E8246A124CBB24E0
:104B84006F124CBB2467124CBB24ED124CBB24EEB9
:104B9400124CBB24EF124CBB24F0124CBB24F11278
:104BA4004CCF24F3124CCF24F6124CBB2483124C6A
:104BB400BB24D3124CBB24D4124CA7121602E824F3
:104BC400D5124A1612160E9090FE121602E824D937
:104BD400124A1612160EE824DF124CBB24E1124CC2
:104BE400BB24DD124CBB24E2124CBB24E3124CBBAD
:104BF40024F9124CCF24FB124CCF24FD124CCF24A9
:104C0400FFF582E912472AFC8C08E82508FAE91224
:104C14004CAE74FFF00CECC3940440EC7C008C822A
:104C2400AA8274E22AF5827407124D1EC0E0E82AB3
:104C3400FAE93400FBEA245DF582EB124A19D0E06C
:104C4400F00CECC3940540D67C008C82AA8274AD2F
:104C54002AF5827404124D1EC0E0E82AFAE93400F1
:104C6400FBEA24E5F582EB124A19D0E0F00CECC320
:104C7400940840D69004C5E004F0640170098E8263
:104C84008F83E09004C7F0E8FAE9FB024AF10CECE8
:104C9400C394034003024AED024AF6124AD3740154
:104CA400F0E822124A289090FE223400FBEA246B9A
:104CB400F582EB124AD622124A28E8227401124CD9
:104CC400C622F088828983A3A3A322124AD3E4F0E4
:104CD400A3F0E822C082C083EA2403F582EB124DDC
:104CE4001E6008E4F09004C6E014F09004C5E014DB
:104CF400F070069004C774FFF08A828B83A3A3E448
:104D0400F09007E7E0700D9004C6E0640170057947
:104D140000120CEF023F57F582EF124D22223400AD
:104D2400F583E022C082C0837B00EBF875F006A413
:104D3400C8AAF02AF974C528F87404124F24A3A34E
:104D4400A3A3A3E4124D64F00BEBC3940340DB90E4
:104D540004C5E4F0A3F0A374FFF075E1F1023F573A
:104D6400124CC6A3A3A32274F512176B7508007521
:104D74000900750A00A80A1241FD8E828F83A3A33D
:104D8400A3E0602DE5084509700AEEF8EFF98808FC
:104D94008909801D850882850983124DD1121991D4
:104DA400124DCD1216021220FC740412172AE96067
:104DB400D9050AE50AC3940340BB850882850983A3
:104DC400A3A3A3A3E0F90249928E828F83124DD547
:104DD40022E0F8A3E0F5838882A3A32274F71217D4
:104DE4006B78FF79FF7F00EFFC75F006A4CCAEF082
:104DF4002EFD74C92CFC74043DFD8C828D83A3A309
:104E0400A3E06040EC2474F582ED124D1EFE74FFA5
:104E140068700374FF69701574016E700BEC247A6A
:104E2400F582ED1245CA801CEC242E80F374016EC9
:104E3400700AEC247A124E5F500A80E1EC242E12A0
:104E44004E5F40E40FEFC39403409CC3EA98EB9990
:104E54004004E8FAE9FB7F0102183DF582ED124AAD
:104E6400D6C3E098A3E0992274F612176BEAFEEB1E
:104E7400FF120AC1EE2465F8EF124EA1124EAFECF8
:104E84004D60109004C71251C5850882850983E4DA
:104E9400F0A3F0EEFAEFFB120C110246B6124EA587
:104EA400223400F988088909888222F583E0FCA36A
:104EB400E0FD2274F712176BEAFEEBFF8E828F83FC
:104EC400A3A3A3A3E0FA7B0012083FEEFAEFFB12C0
:104ED4000AD9120BF3024E5AC082C0837B00EBF84E
:104EE40075F006A4C8AAF02AF9124F1AA3E0601AB2
:104EF400E8246FF582E9124D1E600FE8246BF582F9
:104F0400E9124D1E7004790180090BEBC394034030
:104F1400CD7900023F5774C928F87404124F242233
:104F240039F988828983A3A32274F612176B780057
:104F3400880874AD124ADB74041248A808E8C394C4
:104F44000840ED9004AD74010246B5C082C083747C
:104F5400FC1217149090FE1216028518828519838C
:104F640012160E120B27E9851882851983F0120B8D
:104F740027740112175FE9F0120B27740212175FEE
:104F8400E9F08518828519831216027404023C80A4
:104F940074F612176BEA240D124FD8EC2403F8EDC3
:104FA4003400F988088909EC2407F8ED125290FCC2
:104FB400E9FD124FE21216898E828F83E8F0A3E98D
:104FC400F0124FE21216898B09EA45096003124F69
:104FD400F50246B6F8EB3400F9E8FEE9FF228C82CC
:104FE4008D831245D1850882850983E0FAA3E0FB0D
:104FF400228E828F83E02401F0A3E03400F0227437
:10500400F612176BEA242EF582EB3400124EAFEA47
:105014002470124FD8780079FAECFAEDFB12168955
:105024008E828F83E8F0A3E9F0780079FAECFAED48
:10503400FB1216898B09EA45096003124FF50246F3
:10504400B674F012176BEAFEEBFF741012175F7858
:10505400081215E4120CA78A0C8B0D8C0E8D0F9080
:105064009076780C12154A909056780C1215AB78FD
:105074000C12197A124DCD1216021220FC7404126D
:10508400172AE960030251298E828F83E02402F8F3
:10509400A3E0125290FAE9FB8A828B8378081215F6
:1050A4005D90905678081215E48A828B83780812F2
:1050B40015BEEE240BF582EF124A19C082C0838E0E
:1050C400828F83A3A3A3A3A3E02401F8A3E0340065
:1050D400F9D083D082E0687003A3E0697004790199
:1050E4008045EE2407F8EF123FBF124FF9EE247407
:1050F4001252957014EE24751251307003A3E06DB2
:1051040070078A828B83124FF9EE248012529570B5
:1051140014EE24811251307003A3E06D70078A826B
:105124008B83124FF979007F0802183DFAEF34009F
:10513400FB8A828B83E0FCA3E0FD88828983E06C98
:105144002274F312176B9004C7E0F81241FEEE24A8
:1051540004F50AEF3400F50BEE2465F508EF34008E
:10516400F5098010124EB1850882850983E4F0A305
:10517400F01251BF850882850983124EB1EC4D604F
:1051840030EE2464124D1BF50C780C121982EE24B7
:1051940063124D1BF9EEFAEFFB120B0F7401121799
:1051A4002AE985088285098360BA1245CDE84970E9
:1051B400077C007D001251BF02480C850A82850BD2
:1051C40083E0FA7B001207F72274F212176BEAFEEF
:1051D400EBFF890A740E12175FE0FAEE2462125292
:1051E400956003025284124936F50CEE2483124D65
:1051F4001BFB60047804800278008908E928F8E43D
:1052040012529024020808E93400F9E50C98E49954
:10521400A2D265D0334065EA7005750B0280037530
:105224000B01EB6033750900780812197E7A187B3C
:1052340008120B57740212172A7508187509087892
:105244000812197EAC0AA90B12492712172A7404F2
:10525400250AF50A7C187D087401250AF5D9850B01
:10526400D97800800A8808EC124ADBED124493E8EE
:10527400C3950A40F075E1957900800679078002AC
:1052840079FF024AC48A0AEE250AF8EF3400F9E8E5
:1052940022F582EF124D22640122C082C083800372
:1052A4001252CCE9F874FF28190470F4ECFAEDFBFF
:1052B400023F57C082C08380031252CCE9F874FFC6
:1052C40028190470F4023F578C828D83E08A828B04
:1052D40083F08C828D83A3AC82AD838A828B83A37B
:1052E400AA82AB832274F412176BE9FF7E008A084A
:1052F4008B0978081219C200040FBA5420533C5386
:10530400515366537B539053AC53C553D7530554F1
:10531400275443545F547D54BA549E5474016F709F
:10532400128C828D83E0C394035008E090104CF0FB
:105334000254D87E180254D874026F70F68C828D91
:1053440083125CC990104DE8F0A3E980E274016F08
:1053540070E18C828D83E0C3940250D7E0900DDC21
:1053640080CD74016F70CC8C828D83E0C394055022
:10537400C2E0900DDD80B874016F70B78C828D83AC
:10538400E0C3940250ADE0900DDE80A374106F7002
:10539400A27508108E09780812197E7ADF7B0D1227
:1053A40060B612172A0254D874016F70868C828DED
:1053B40083E0C394024003025337E0900DEF02539D
:1053C4003374016F60030253378C828D83E0901035
:1053D40050808D74046F6003025337909066780890
:1053E4001215E48D838C8278081213E04003025373
:1053F400378C828D83121602900DF112160E025410
:10540400D8EF6003025337120521E9700E1211938D
:10541400795012135B1211870254D8900E847401D0
:1054240002533374016F60030253378C828D83E01F
:10543400C394024003025337E0900DF002533374D7
:10544400016F60030253378C828D83E0C3940A405A
:1054540003025337E090104F02533374016F60031B
:105464000253378C828D83E024F9C3940A400302EB
:105474005337E090105102533374016F60030253A9
:1054840037900E83E0F88C828D83E0900E83F0E8F1
:105494007042E06401703D02541974016F600302AC
:1054A40053378C828D83E0C394044003025337E066
:1054B400901052025333C3EA9426EB9400501374B1
:1054C400026F700E8C828D83125CD4120407E9FE85
:1054D40080020E0EEEF90254E2740E12172A7F04B3
:1054E40002183D74F212176B74DA121714890AEC5D
:1054F400FEEDFF743412175FE0F50B742012175F92
:10550400AC82AD8375839075824474061216277439
:105514002012175FAC82AD8312112DE9F508C394F4
:105524000A400302563A12116FE9F50990104CE053
:105534006402700474018001E4F50C780C12198281
:10554400AD0BAC09A908EEFAEFFB1211BD74011200
:10555400172A7C147D007900740C12175FAA82ABA1
:1055640083120FB375F006E508A4F50B740C12173B
:105574005FAC82AD837A107424250B12616B703892
:105584007C1079FF740C12175F125E6C702A741C05
:1055940012175FAC82AD837A047425250BF91213BC
:1055A40055740C12175FAC82AD83E509A2E0E433B5
:1055B400F9EEFAEFFB12049D851882851983AC82FB
:1055C400AD837A0C7470250812616B70558518824E
:1055D400851983AA82AB83121163750800E50875E7
:1055E400F003A4F8A9F0851882851983E58228F8C8
:1055F400E583125EA8125CD4EC4D601D8882898319
:10560400A3A3E0F50C750D00780C12197EEEFAEFE9
:10561400FB12072B740212172A0508E508C3940429
:1056240040BBE509A2E15046900DDBE0F9EEFAEF4C
:10563400FB12073180387408650B703290104CE00F
:105644006402702A7C007D00A90AEEFAEFFB1211B5
:10565400B71256796018125CDA88828983E582452C
:1056640083600B7C007900EEFAEFFB121769790076
:1056740074260264FB900DF5E0F8A3E0F9E84922F2
:1056840074F012176BEAFEEBFF8C088D09750A0A99
:10569400E9600C14600914602E14607F02572A120A
:1056A400117BE9F50AC3940A507CE5084509607644
:1056B400750E06750F00780E12197EEEFCEFFD12C2
:1056C40060B212172A805F750B00750E06750F0005
:1056D400780E12197EEEFCEFFDE50B75F00EA4F8C2
:1056E400A9F074FD28FA740D39FB120FAD7402127F
:1056F400172AE9601B850B0AE50AC3940A5027E5BB
:105704000845096021AA08AB09A90A121175801677
:10571400050BE50BC3940A500D80AF121181E9F516
:105724000AC3940A40D9A90A7F0802183D74F412E6
:10573400176B890875091574FF6A700374FF6B7021
:10574400277E00AC087A027B00EEF9121151E96061
:10575400037509000EEEC3940A40E8E50860497A2F
:10576400AB7B1112093580401209178A0A8B0BAEE4
:105774000AAF0BEE4F602E7C007D00EE2405FAEF9D
:105784003400FB8E828F83125828500CAC087A02A6
:105794007B00121151750900E508600CEEFAEFFB6D
:1057A4001211AB8003750914A9090254E274F212B0
:1057B400176BECFEEDFF740E12175F125CC17508D7
:1057C4001574FF6A700374FF6B7021750900AC0ACD
:1057D400AD0BEEFAEFFBA909121157E96003750846
:1057E400000509E509C3940A503580E21209178AB5
:1057F400828B83E582458360237C007D00E58224DF
:1058040005FAE5833400FB1258285013AC0AAD0B9B
:10581400EEFAEFFB1211577508008003750814A9FE
:10582400080264FEA3A3A3A3125CABC3940A22C020
:1058340082C083900DF5EAF0A3EBF0900DDBE0FC61
:105844007D007A257B00120407900DDBE0F9120637
:10585400ADD083D08202013574EC12176B8A088BA9
:1058640009E9FE741412175F780C1215E47F00EE38
:10587400702E780812197E90906678101215E478CC
:105884000C791012148FAA10AB11AC12AD131204C0
:10589400AF740212172AE9FF60097901AA08AB095B
:1058A4001204A9EFF97F0C02183D74EA12176B7405
:1058B400EC121714EAFEEBFFEE240CF514EF34009F
:1058C400F5158E828F83A3858212858313EE240AB5
:1058D400F510EF3400F511EE2403F508EF3400F56C
:1058E400098E828F83A3A3E024FA7003025C8324CD
:1058F400FD7003025BA614700302599A146010141D
:105904007003025BD824FE7003025B26025CA1EEE6
:105914002409F50AEF3400F50B125679604AE0F5D4
:10592400838882125CC9880C890DE8450D6039852D
:105934001482851583E0F50E780E121982EE240B7D
:10594400F582EF3400F583E0F9850A82850B831232
:105954005CD40A0A0AAB09850C82850D8312176987
:10596400740112172A025CA1850A82850B8312191D
:1059740095900DF11216021204AF740212172AE95F
:105984007003025CA17901850A82850B8312650983
:105994001204A9025CA1851282851383E0600302CC
:1059A4005AF9EE2405F50CEF3400F50D850C82F55B
:1059B40083E0A2E04003025AF97C0E7D0079008561
:1059C4001882851983AA82AB83120FB3EE2408F5DB
:1059D4000AEF3400F50B850A82F58312567C6019B0
:1059E400750E06750F00780E12197E850A82850BD6
:1059F40083E02410FCA3E0801A125CB2EA4B70032B
:105A0400025CA1750E06750F00780E12197EEA2449
:105A140005FCEB3400FD740212175FAA82AB8312FB
:105A240060B612172A850C82850D83E0A2E2500429
:105A3400D2F08002C2F0A2F0E433F8740C12175FC3
:105A4400E048F085108285118312567C601585101C
:105A540082851183E02410F8A3E03400F988828958
:105A640083800390909E780C1215E4851082851132
:105A74008312567C600F851082851183E0F510A394
:105A8400E0F5118006751000751100850A82850BFA
:105A94008312567C600B850A82850B83125CC1805D
:105AA40006750A00750B00780C12197A7810121911
:105AB4007E780A12197E8514828515831219958EB3
:105AC400828F83A3125CCF740A12175FAA82AB83FE
:105AD400121169740A12172A850882850983125CD7
:105AE400C9900E85E8F0A3E9F07A017B00900DDB04
:105AF400E0F9120FF51256797003025CA1125CDA18
:105B0400E8FEE9FFEE4F7003025CA1851282851363
:105B140083E0FC79011265038E828F831217690278
:105B24005CA1851282851383E06406704C125CB21A
