:020000040000FA
:0600000002011D021FB207
:03002B00021CFABA
:0300530002202860
:03006B00021CC8AC
:10008300021EA3E5C754F84401F5C7790122000015
:100093000080FB120086B90003020107E47921788E
:1000A30008B800028004F709D8FCE479297802B87B
:1000B30000028004F709D8FCE490028178FE7907F6
:1000C3008002F0A3D8FCD9FA781A90014D7A01BACC
:1000D30000028007E493A3F608DAF990097EAA8266
:1000E300AB8390014E78C479048015E493A3AC826A
:1000F300AD838A828B83F0A3AA82AB838C828D83A8
:10010300D8E9D9E775827E7583A5740312012F752B
:100113008291758300740012012F75D00075813FA1
:10012300751881751902759F00020096C09FF59F8F
:10013300E473D09F22D083D082C09FE493C0E07445
:100143000193C0E0740293F59F2201FFFF0A41630C
:1001530063656C20456E61626C65000002140041AA
:100163006363656C2052616E676500001010104177
:100173006363656C20582D436F6F7264696E61749D
:10018300650000416363656C20592D436F6F726492
:10019300696E6174650000416363656C205A2D4389
:1001A3006F6F7264696E6174650000024D900100A7
:1001B300001C90024990010000800902799003001D
:1001C30000A002026F900100008109024990010022
:1001D300008F090277900100009009026F900100DF
:1001E3000092090249900100009F090275900000E6
:1001F30000A102024590030000A402026F900100D7
:1002030000A209024990010000A0090273900000B6
:1002130000A202024590030000AA02026F900100AF
:1002230000B609024990010000A109027190000083
:1002330000A302024590030000B002026F90010088
:1002430000CA09110199010F12640401024D9001C2
:10025300000016900249900100007B0A026B900196
:1002630000007C0A024590030000BE0202339001A5
:1002730000007D0A020202020202020202010D00D4
:1002830000001001024D90010000199002499001F5
:100293000000A70A026590010000C502024990010F
:1002A3000000A80A026390010000138F0249900125
:1002B3000000A90A026190010000F78E0249900133
:1002C3000000AA0A025F90010000918E024990018A
:1002D3000000AB0A025D900100007F8E024990018D
:1002E3000000AC0A025B90010000A38E024990015A
:1002F3000000AD0A025990010000B58E0249900139
:100303000000AE0A025790010000058F02499001D8
:100313000000AF0A025590010000B00A01E803058E
:100323003F100B094B6579666F6264656D6F02015F
:10033300050702031802180418544920424C4520AB
:100343004B6579666F6200000000000000004708FB
:1003530000004D085308FF00013075030201060039
:10036300000000000000000000000000000000008A
:100373000000000000000000000000FFFF060080F6
:100383000CE8030A0412024D900100001F90024979
:1003930090010000B60B0253900300009404024D39
:1003A300900100002290024990010000B70B025314
:1003B300900200009504024D90010000259002492F
:1003C30090010000B80B024790010000960402451B
:1003D300900300009704104B657920507265737386
:1003E30020537461746500024D900100002E900249
:1003F3004990010000090C0231900000009D0402A5
:1004030045900300009E04026F900100000A0CFF58
:100413000000B4000028002800283075A000A000C8
:10042300A000A00000080008E001F0001000100088
:100433001000100010001000500050005000100079
:100443001000D0070000000000000F0001000500AD
:10045300307507001000010081FF0000FF6B0B895E
:100463000B710BFF02020208025000A0000000E81B
:1004730003024D900100002B900249900100009768
:100483000C024190010000D504024990010000983C
:100493000C023F90010000EB040249900100009917
:1004A3000C023B90010000ED040249900100009A08
:1004B3000C023990080000EE040249900100009BF1
:1004C3000C0237900100009C0CFF0100FF20024D3D
:1004D300900100002890024990010000000D0235B0
:1004E3009000000000000245900300003B059B11B3
:1004F3009B119B119B119B119B119B119B119B1199
:100503009B119B119B119B11711489146B14120184
:1005130038F77900120138017A00120138427A0063
:100523001201388B7A00120138C57A001201381B88
:100533007B001201383C7B00120138457B0012011D
:1005430038997B00120138C27B00120138CC7B0042
:100553001201383A7C00120138CA7C001201382596
:100563007D00120138537D00120138DB7D0012013A
:10057300381A7E001201384F7E00120138617E0066
:10058300120138807E00120138897E001201385032
:100593007F00120138E69F031201387E7F001201AB
:1005A30038C69203120138FC9203120138309303C8
:1005B3001201387D940312013855FF011201386B83
:1005C300FF0112013875FF01120138BFFF0112014B
:1005D300382AE3021201383DE302120138FEE30236
:1005E3001201383DE4021201385AE4021201389331
:1005F300E402120138E0E40212013812E5021201AA
:100603003849E50212013852E702120138BEE70207
:10061300120138DDA00312013800A1031201382FA3
:10062300A10312013847A10312013889A103120162
:1006330038F6F70212013851F8021201386EF80247
:100643001201387DF902120138C8F9021201388CFF
:10065300FA0212013872FB021201382386031201D7
:10066300385A86031201387186031201381D870335
:10067300120138B687031201383E88031201388805
:10068300A303120138A9A3031201383AA4031201E8
:1006930038B99C03120138169D031201382E9D03AD
:1006A3001201384C9D031201386B9D03120138A8C7
:1006B3009D03120138B69D031201380B8903120101
:1006C300383089031201385A8903120138D6A50339
:1006D300120138FF3F00120138DD41001201387C5E
:1006E3004300120138274400120138A744001201C5
:1006F300382C4500120138554500120138304900A5
:10070300120138A74900120138BE4A00120138F815
:100713004A00120138394B00120138804C00120193
:1007230038D64C001201381F4D001201388E4D008F
:10073300120138FA4D001201382B4E0012013843D2
:100743004E001201385C4F001201386C4F00120149
:10075300382251001201383951001201386B51000F
:100763001201380D5300120138A15300120138450C
:10077300A40312013856A403120138F6A40312018C
:1007830038EE7F00120138DD7F00120138D2A10359
:10079300120138E2A103120138F7A103120138ABA9
:1007A300A203120138E49E03120138699F03120168
:1007B30038CD9F031201388A9B03120138AC9B0387
:1007C3001201380D9C031201381F9C031201386F6C
:1007D3009C03120138AD9C03120138B09C03120133
:1007E3003820EC0212013834EC02120138AEEC026C
:1007F30012013892ED0212013869EF02120138CE6C
:10080300EF0212013825F002120138F87F001201BD
:10081300388C90031201381C92031201387D920325
:10082300120138C3920312013808BA02120138FCCC
:10083300BB0212013879BD021201384EBE02120109
:1008430038D4BE02120138F7BE0212013826C002A4
:100853001201386DC002120138BBC002120138F216
:100863009903120138449A03120138B79A0312010B
:1008730038249B03120138458E031201386F8E030F
:100883001201383E8F031201381A9003120138D235
:10089300B1021201389EB202120138DFB202120114
:1008A3003819B30212013877B302120138CBB302FD
:1008B30012013829B402120138BFB402120138C739
:1008C300B50212013851B702120138EFB702120113
:1008D3003856B80212013869B8021201385DB902FC
:1008E300120138A6B90212013862DA0112013894F2
:1008F300DD0112013825DF011201387CDF0112010D
:100903003899DF0112013819E00112013895E1012C
:1009130012013864E201120138D1E501120138BB3A
:10092300E6011201380080031201387E80031201B0
:10093300389B80031201382381031201384E81034F
:10094300120138E08103120138F08203120138B733
:100953009403120138FC94031201385095031201D9
:1009630038D595031201384D96031201383F980389
:10097300120138569803120138859803120138BEC4
:100983009803120138E698031201381499031201EF
:10099300382B9903120138429903120138589903ED
:1009A3001201387F9903120138929903120138A872
:1009B3009903120138BB9903120138E0990312011C
:1009C30038828C02120138818D02120138B68D02F1
:1009D300120138D78D02120138E78D02120138084F
:1009E3008E02120138148F02120138E18F021201B4
:1009F30038549002120138DA90021201381D910224
:100A0300120138549102120138DA9102120138AC02
:100A130092021201380A9302120138229302120140
:100A2300389C93021201389F9302120138A2930259
:100A3300120138499402120138619402120138916B
:100A43009402120138B194021201389F95021201E7
:100A53003855960212013882DE02120138AADE02EC
:100A6300120138D8DE021201380FDF021201387783
:100A7300DF02120138C0DF021201380BE00212015B
:100A83003849E00212013886E002120138B4E0026C
:100A93001201385BE10212013865E102120138727A
:100AA300E102120138A5E10212013867E2021201E4
:100AB3003873E2021201388BE20212013895E20226
:100AC300120138B1A203120138BFA203120138D7B1
:100AD300A203120138EFA203120138ACAF011201D5
:100AE300384AB001120138C2B001120138D7B1013E
:100AF30012013811B201120138BAB2011201388F52
:100B0300B301120138F3B4011201384AB5011201DD
:100B130038D1B501120138B8B60112013805B70151
:100B230012013893B701120138B7B7011201388C9B
:100B3300B901120138CDB901120138EFB90112011F
:100B43003870BA011201385ABB0112013820BC01B6
:100B5300120138B8C8021201388AC90212013833A7
:100B6300CA0212013876CA0212013803CB021201FB
:100B7300388FCB0212013870CC021201389FCC029D
:100B83001201389BCD02120138E3CD02120138E580
:100B9300CE0212013829CF021201384FCF021201BF
:100BA3003855FF0212013825F4021201383BF402D2
:100BB30012013861F40212013889F50212013893E7
:100BC300F502120138ECF602120138ECF7021201B9
:100BD30038C4CF02120138F9D0021201382CD102E5
:100BE30012013876D10212013834D3021201384F80
:100BF300A001120138B2A001120138F7A1011201BC
:100C03003807A2011201382AA20112013875A20184
:100C13001201381AA30112013810A401120138DAA3
:100C2300A40112013852A60112013894A60112013F
:100C33003832A7011201387FA701120138A5A70195
:100C430012013893A90112013898A90112013879C8
:100C5300AB01120138CDAB011201382FAC011201E7
:100C63003857AC01120138FBAC01120138BDAD019C
:100C7300120138EEAD01120138F1AD01120138391C
:100C8300AE011201387BAE01120138E2AE0112014E
:100C930038EF8B03120138028C031201381B8C03CB
:100CA300120138668C03120138418D03120138D0CA
:100CB3008D031201381B8E03120138242600120102
:100CC30038302600120138692600120138AE26009A
:100CD300120138652700120138EB27001201385042
:100CE30028001201387C2800120138B528001201AF
:100CF30038C92A00120138A52C00120138902E00A1
:100D0300120138C72F00120138273200120138139D
:100D130033001201385934001201386635001201CC
:100D230038833500120138BB3500120138D5350040
:100D33001201383D3600120138D73A0012013878D3
:100D43003B00120138C93B00120138F03B0012018D
:100D5300383E3C001201385C3C00120138B03C00C4
:100D6300120138893D00120138103F0012013898F2
:100D73003F00120138EAD402120138F4D4021201FE
:100D830038BFD502120138DAD50212013800D60273
:100D930012013844D6021201387CD602120138A55A
:100DA300D6021201381ED70212013833D7021201BC
:100DB3003848D7021201387FD70212013893D7027D
:100DC300120138C4D702120138FED7021201382AA1
:100DD300D80212013862D80212013800D902120176
:100DE3003849D90212013873D90212013898D9024D
:100DF30012013839F00212013803F102120138E608
:100E0300F1021201385CF2021201389EF202120161
:100E130038CBF30212013800800212013829800214
:100E230012013842800212013887810212013865AB
:100E330082021201388482021201381183021201E4
:100E430038548302120138A184021201384085020A
:100E5300120138BF87021201385688021201382A5C
:100E630089021201380C8A02120138788B021201AE
:100E7300380B8C02120138CF9D03120138389E03C0
:100E83001201388C9E03120138B39E03120138CB32
:100E9300E70212013838E80212013883E80212012E
:100EA3003878E90212013874EA021201385EEB0263
:100EB30012013864A902120138A6A902120138806E
:100EC300AA0212013859AB0212013854AC021201C2
:100ED3003833AD021201389FAD0212013866AE02FB
:100EE300120138D1AE0212013838AF021201386351
:100EF300AF02120138D4AF0212013867B0021201F7
:100F030038D0B002120138E5B0021201382DB10217
:100F130012013846B102120138ABB102120138AEE8
:100F2300B1021201382983031201385183031201DC
:100F3300388F83031201384D8403120138B88403B8
:100F4300120138D48403120138FC84031201382CB3
:100F530085031201383B8503120138B5850312015D
:100F630038DB85031201388090011201381D92018C
:100F7300120138039401120138CD9401120138147F
:100F830095011201385B95011201386D950112012B
:100F930038AD9501120138DC95011201382896010C
:100FA3001201386096011201388E9601120138DF62
:100FB30096011201386E97011201385C9A011201F1
:100FC30038369C01120138729C01120138CC9D0104
:100FD300120138139E01120138889E01120138D67E
:100FE3009E01120138FC9E0112013861A002120118
:100FF300387EA00212013818A6021201381AA7027D
:1010030012013894A80212013842A902120138DFF2
:1010130053001201382854001201385554001201AC
:1010230038885400120138955400120138A1540035
:10103300120138B35400120138885500120138E602
:1010430055001201381B5600120138B75700120120
:1010530038045800120138285800120138955800F6
:101063001201383A5900120138F659001201387545
:101073005A00120138395B00120138485B00120133
:1010830038C95B00120138685C001201389A5C00B1
:10109300120138355D00120138935D00120138CD1D
:1010A3005D001201384E5E00120138175F00120115
:1010B30038C05F001201384760001201389F60009A
:1010C300120138006100120138296100120138DF72
:1010D30061001201382963001201386C63001201A8
:1010E30038896300120138A86300120138F36300E2
:1010F300120138186400120138416400120138B03B
:101103006400120138F26400120138F6650012011E
:10111300389066001201385C670012013875670069
:10112300120138C096021201381397021201381FB8
:101133009702120138F497021201381B9802120128
:1011430038569802120138C29802120138F69802F2
:101153001201382F9902120138479902120138A05F
:101163009902120138B99902120138029A02120146
:1011730038159A021201382F9A02120138459A0241
:10118300120138619B02120138729C02120138BFAE
:101193009D02120138A49E02120138F17F00120150
:1011A3003851E70112013885E701120138F0EA01ED
:1011B3001201383AEC0112013804ED011201388EA4
:1011C300EE0112013869EF01120138A3EF01120198
:1011D30038C6EF0112013808F00112013811F0018D
:1011E3001201385BF00112013865F0011201381168
:1011F300F101120138E5F10112013839F20112014E
:10120300389BF201120138EEF2011201381DF3018D
:101213001201385CF301120138A76700120138018B
:101223007000120138077000120138C275001201F4
:1012330038A87900120138BFFB0212013835FC02CD
:101243001201384BFC0212013888FC02120138C02B
:10125300FC021201383DFD0212013878FD02120131
:1012630038F3FD021201382FFE0212013838FE0254
:1012730012013844FE021201385EFE021201388365
:10128300FE0212013899FE02120138C2FE02120157
:101293003825FF02120138C0D902120138D3D9020E
:1012A300120138EDD90212013816DA021201385947
:1012B300DA0212013898DA02120138D6DA02120180
:1012C300383BDB0212013850DB021201385BDB02D0
:1012D30012013868DB021201387FDB021201388DFC
:1012E300DB0212013898DB02120138A4DB0212017F
:1012F30038B7DB02120138C2DB02120138E5DB0228
:101303001201388EDC021201389EDC02120138B859
:10131300DC02120138D5DC02120138F1DC021201C1
:101323003816DD0212013820DD0212013834DD02E5
:1013330012013853DD02120138B4DD02120138BA4A
:10134300DD02120138C0DD02120138C6DD021201CE
:1013530038D2DD0212013805DE02120138D8CC0181
:101363001201385ACD0112013803CE011201384B54
:10137300CF0112013859D1011201383FD2011201B4
:101383003874D20112013896D2011201383FD301C9
:101393001201380FD50112013838D501120138B0C6
:1013A300D501120138E2D501120138EFD50112013E
:1013B300383AD6011201385ED601120138AFD8018E
:1013C300120138B9D90112013815DA011201385561
:1013D300BE0112013866BF011201384AC001120171
:1013E3003854C00112013876C00112013882C0019D
:1013F30012013826C20112013853C20112013869A1
:10140300C301120138BEC3011201380DC501120117
:1014130038E2C5011201383EC601120138A9C601DE
:10142300120138DEC60112013821C701120138EB5F
:10143300C90112013803CA0112013894CA01120109
:1014430038A2CA01120138EFCA01120138FDCA01DC
:1014530012013869CB01120138E4CB011201383B88
:10146300CC0112013837F40112013859F401120189
:10147300386AF60112013829F90112013853FA01C9
:1014830012013811FB01120138FDFB0112013886EC
:101493009603120138AB9603120138219703120108
:1014A300389BC102120138A4C102120138ADC10236
:1014B30012013885C20212013836C402120138669D
:1014C300C40212013891C402120138C1C4021201CC
:1014D30038ECC40212013820C5021201384CC5028F
:1014E3001201388FC502120138BAC5021201380140
:1014F300C60212013856C60212013898C6021201FA
:1015030038F2C6021201381DC7021201386CC70235
:101513001201389CC702120138C7C702120138F5FD
:10152300C70212013818C80212013801A5031201BB
:10153300382DA5031201385AA50312013864A503F7
:1015430012013874A5031201382CA603120138DEE8
:10155300FF02E066701008A3E066700A08A3E06665
:10156300700408A3E06622C3E7960809E796080912
:10157300E7960809E79622C3E09608A3E09608A336
:10158300E09608A3E09622C008C3E096F50808A3F6
:10159300E096420808A3E096420808A3E0964508AF
:1015A3007001D3D00822080808EAC0E0EBC0E08647
:1015B300F0E7A4FA180986F0E7A42AFA180986F0D6
:1015C300E7A42AFA180986F0E7A42AFA1986F0E7AD
:1015D300A4FBE5F02AFA190886F0E7A42BFBE5F053
:1015E3003AFA190886F0E7A42BFBE5F03AFA181843
:1015F3000986F0E7A4C5F02BFBE43AFA1908E7C51E
:10160300F0C6A426F6E5F03BFBE43AFA1886F0E7C9
:10161300A4F6E5F00826F6E43B08F6E43A08F6D02B
:10162300E0FBD0E0FA22E4CFC0E0E4CEC0E0E4CDBA
:10163300C0E0E4CCC0E075F020C3E633F608E6333F
:10164300F608E633F608E633F6181818EC33FCED23
:1016530033FDEE33FEEF33FFC3EC9709ED9709EE4D
:101663009709EF97191919400FFFEC97FC09ED97AC
:10167300FD09EE97FE191906D5F0BEECF709EDF753
:1016830009EEF709EFF7191919D0E0FCD0E0FDD006
:10169300E0FED0E0FF2212170118181812162912C3
:1016A30016F0191919221216F0191919080808E663
:1016B30018181820E7E01216291217011818182213
:1016C300090909E719191920E7DC080808E61818B9
:1016D3001820E703021629121701181818121629E1
:1016E3001217011818181216F019191922E4C397C2
:1016F300F709E497F709E497F709E497F722E4C3B6
:1017030096F608E496F608E496F608E496F6226060
:1017130017080808C6A2E713C618C613C618C613C7
:10172300C618C613C6D5E0E9226016080808C6C362
:1017330013C618C613C618C613C618C613C6D5E0F3
:10174300EA227009080808226016181818C6C3335D
:10175300C608C633C608C633C608C633C6D5E0EACC
:1017630022E627F60809E637F60809E637F60809F8
:10177300E637F622E026F608A3E036F608A3E036BD
:10178300F608A3E036F622E026F008A3E036F008D8
:10179300A3E036F008A3E036F022C3E697F6080983
:1017A300E697F60809E697F60809E697F622C3E0F6
:1017B30096F008A3E096F008A3E096F008A3E0965D
:1017C300F022E056F608A3E056F608A3E056F60822
:1017D300A3E056F622E056F008A3E056F008A3E093
:1017E30056F008A3E056F022E0F608A3E0F608A3BB
:1017F300E0F608A3E0F622E6F008A3E6F008A3E685
:10180300F008A3E6F022E0FAA3E0FBA3E0FCA3E0E8
:10181300FD22EAF0A3EBF0A3ECF0A3EDF022CAC0A3
:10182300E0E6F0A308DAFAD0E0FA22CAC0E0E0A3C7
:10183300C582CCC582C583CDC583F0A3C582CCC583
:1018430082C583CDC583DAE6D0E0CA22C3E498F823
:10185300E499F91218908026C3E49AFAE49BFBE911
:1018630020E7E9121890E498F8E499F922C3E49880
:10187300F8E499F9121890E498F8E499F9C3E49A12
:10188300FAE49BFB22EB20E7CFE920E7E0B9001065
:10189300BB0008E88AF084F8AAF022E4FBC8FA2225
:1018A300EB70227B10C833C8C933C9335007C39ABE
:1018B300C3DBF280069A50012ADBEAC833F4C8C9B5
:1018C30033F4C9FA2275F008E4C833C8C933C933FD
:1018D300C99AC99B5004C92AC93BD5F0ECFBC8334C
:1018E300F4C8E4C9FA22600D08C6A2E713C618C6F5
:1018F30013C6D5E0F322600C08C6C313C618C6137B
:10190300C6D5E0F422700422600D18C6C333C6089E
:10191300C633C6D5E0F41822251810AF08F51840D1
:101923000215198008F51840021519D2AF22C0D04C
:10193300251810AF08F518500205198008F518503E
:10194300020519D2AFD0D0222518F58210AF08F5C1
:1019530018400215198008F51840021519D2AF85F1
:101963001983222518F582E43519F58322E47325BA
:1019730018C582C0E0E51934FFC583C0E0E518C38C
:10198300958224F810AF088583198582188008850D
:101993008319858218D2AFCEF0A3E520F0A378088F
:1019A300E608F0A3DEFAEFF0A3E58124FAF8E608EF
:1019B300F0A3E608F0A3E608F0A30808E608F0A3FE
:1019C300E608F0A315811581D0E0FED0E0F815817B
:1019D30015811581E8C0E0EEC0E0222518C582C05C
:1019E300E0E51934FFC583C0E0E518C3958224F907
:1019F30010AF08858319858218800885831985822D
:101A030018D2AFCEF0A3E520F0A37808E608F0A340
:101A1300DEFAEFF0A3E58124FBF8E608F0A3E6087D
:101A2300F0A30808E608F0A3E608F0A315811581E2
:101A3300D0E0FED0E0F815811581E8C0E0EEC0E00B
:101A430022851983851882E0A3FEE0A3F520780898
:101A5300E0A3F608DFFAE0A3FFE0A3C0E0E0A3C041
:101A6300E0E0A3C0E0E0A3C0E0E0A3C0E010AF0863
:101A73008582188583198008858218858319D2AFDA
:101A8300D083D082020135851983851882E0A3FEB5
:101A9300E0A3F5207808E0A3F608DFFAE0A3FFE06F
:101AA300A3C0E0E0A3C0E0E0A3C0E0E0A3C0E01077
:101AB300AF08858218858319800885821885831964
:101AC300D2AFD083D08222C0D02518C582C0E0E532
:101AD3001934FFC583C0E0E518C3958224F310AF22
:101AE300088583198582188008858319858218D211
:101AF300AFC8F0A3E9F0A3EAF0A3EBF0A37908E7FA
:101B030009F0A3D8FAECF0A3EDF0A3EEF0A3EFF005
:101B1300A3D0E0F0A3D0E0F0A3D0E0F0A3E520F061
:101B2300A3E5F0F0A322851983851882E0C0E0A322
:101B3300E0F9A3E0FAA3E0FBA37808E0F608A3DF4B
:101B4300FAE0FCA3E0FDA3E0FEA3E0FFA3E0C0E016
:101B5300A3E0C0E0A3E0F5D0A3E0F520A3E0A3F564
:101B6300F010AF088583198582188008858319854D
:101B73008218D2AFD082D083D0E0F8D0E0327404A0
:101B83008006740280027401C0E0F40412194BD081
:101B9300E0121821227404800474028000CCC0E097
:101BA300EDC0E0E518C39CCCAD1950011D10AF0684
:101BB3008C188D1980068C188D19D2AF12182ED05F
:101BC300E0FDD0E0FC22D083D082E9C0E0E493A31F
:101BD300C386F0C5F095F0F908E493A386F0C5F049
:101BE30095F0700BE493A3C3994005E9048002A325
:101BF300E475F002A42582F582E5F03583F583D000
:101C0300E0F9E493A3C0E0E493C0E022D083D08260
:101C1300ECC0E0EDC0E0E493A3FCE493A3FDED4C42
:101C2300600D121C5BEC24FFFCED34FFFD80EFE440
:101C330093A3FCE493A3FDED4C600D121C9AEC24DA
:101C4300FFFCED34FFFD80EFD0E0FDD0E0FCE4933A
:101C5300A3C0E0E493C0E022C0E0C3E49396087419
:101C630001939618400FE493667008087401936615
:101C73001870007019A3A3C3E49396087401939694
:101C830018A3A3400DD0E0D0E0D0E0021C4BA3A3E7
:101C9300A3A3A3A3D0E022C0E0C0F088F0E493663E
:101CA30070080874019366187000A8F0A3A3700B62
:101CB300D0F0D0E0D0E0D0E0021C4BA3A3D0F0D012
:021CC300E0221D
:101CC800C0E074F2121ACAA2AFE433FED2AFE589BB
:101CD800A2E04006E589A2E150031207CF7589000A
:101CE800758900C2C5751A00EEA2E092AF7F0102A5
:101CF8001B29C0E0C0D0E8C0E0E5A8D2AFC2C775D4
:101D08001A00A2E792AFD0E0F8D0D0D0E03274F554
:101D18001219DEEAFEEBFFEE2434F8EF3400F988FE
:101D2800088909EE2435121E4EF8EE2437121E4E8D
:101D3800F50AEC850AF0A4FCAAF0850AF0EDA42ABD
:101D4800FDE82CF8E43DF97A257B00121890EA8525
:101D58000882850983F05407F87401B800028004EA
:101D6800C333D8FCC0E0E0131313541FF8EE28F86F
:101D7800EF3400F9E8245DF582E93400F583D0E01A
:101D8800F8E0586008850882850983801DEE2436AE
:101D9800121E4EF5F0EA84A8F0EE28F8EF3400F9A8
:101DA800E82438F582E93400F583E0F97F04021A63
:101DB8008A74F51219DEEAFEEBFFEE2434121E4E89
:101DC800C0E0EE2435F582EF3400F583D0E0F08EE4
:101DD800828F83A3A3A3A3A3E0FAA3E0FB8E828F41
:101DE80083A3A3A3A3A3A3A3E0FCA3E0FDECC39A4E
:101DF800F50AED9BF50BEE2480F508EF3400F509A4
:101E0800850882F583E06401702BEE2481F582EF6A
:101E18003400F583121B9C121E577402121931E903
:101E280060137C207D07EEFAEFFB1210C98508824B
:101E3800850983E4F0AC0AAD0BEEFAEFFB121D1630
:101E480012260E021DB4F582EF3400F583E022C09D
:101E580082C083851882851983E0F8A3E0F9C3EA74
:101E68009CEB9D5012C3EC98ED994019C3EA98EB8E
:101E780099501279018010C3EA98EB9940F5C3ECA8
:101E880098ED9950EE7900D083D08222EAC39CFA6B
:101E9800EB9DFB228521878522C622C0E074EF12C4
:101EA8001ACA759B00906182E0A2E64003021F6493
:101EB800E591A2E64003021F647591BF9005E5E035
:101EC80064057008121267121273800312126D757E
:101ED80021001212DFE99005E6F079001212D31200
:101EE80010337A017B009005E4E0F912056B9078D5
:101EF80003E064426003021FAD900782E014F060C3
:101F080003021FADC2AF121F1100782AD0E0F618E5
:101F1800D0E0F6E59F5407F97005908F6E80039026
:101F28008F7278081217EBE9C4C0E07829E65508E3
:101F3800F50808E65509F509740B78081218F9D060
:101F4800E02508F8906270E0A2E740F8E8C3339013
:101F58006272F0906270E0D2E0F08049E0A2E55051
:101F680024E591A2E5501E7591DF9005E5E0640D2A
:101F78007013900607E004F064287002E4F07A0019
:101F8800E0F9121351906181E0A2E35009E5E9A25A
:101F9800E3500375E9F7A3E0A2E75009E591A2E74A
:101FA800500375917F7F04021B29C0E0C0D0C08216
:101FB800C083906183E0A2E05009E5BFA2E050032E
:101FC80075BFFEE0A2E15009E5BFA2E1500375BF6D
:101FD800FDE0A2E25009E5BFA2E2500375BFFBE0B5
:101FE800A2E35009E5BFA2E3500375BFF7E0A2E4FE
:101FF8005009E5BFA2E4500375BFEFE0A2E5500920
:10200800E5BFA2E5500375BFDFE0A2E65009E5BFD2
:10201800A2E6500375BFBFD083D082D0D0D0E032C3
:10202800C0E074F2121ACAE5A7A2E4500FE5A1A213
:10203800E4500953A7EF75A1EF12207CE5A7A2E5AC
:10204800500CE5A1A2E5500653A7DF75A1DFE5A76F
:10205800A2E15009E5A1A2E1500375A1FDE5A7A2FF
:10206800E2500CE5A1A2E2500653A7FB75A1FB7F45
:1020780001021B2974F81219DE7521019005E5E0AB
:10208800640670077A007B0012124FA2AFE433FE99
:10209800D2AF9005EBE0640170187A207B009005C0
:1020A800E4E0F91205F57A207B009005E4E0F912E6
:1020B8000571906182E0D2E6F0900781E0602185A9
:1020C800C62280169005EAE064017008E5C654F857
:1020D8004405F5C653BEFC121E9C7401652160E4DC
:1020E800EEA2E092AF7F01021A8A00008E238F24AD
:1020F800858228858327851882851983E0CEA3E009
:10210800CF852882852783EBC9EAC8EDCBECCA7551
:10211800F010C3E833C8E933C9EA33CAEB33CBC399
:10212800EA9EF526EB9FF525B35004AB25AA26ECCD
:1021380033CCED33CDD5F0DAAE23AF242274E912D7
:1021480019DE74FA12191BEAFEEBFF8C088D099050
:1021580005E5E024F7C394055006908FC202226C6F
:102168001211CB8A0A8B0BEA450B70030222691203
:1021780012858A0C8B0D121285EA650C7003EB65CB
:102188000D60ECEEFCEFFD851882851983AA82AB01
:102198008312128B850A82850B83A3A3780C1217EE
:1021A800EB908FA2780C1217C58518828519837851
:1021B800141217EB908FA278141217C5780C7914A3
:1021C80012156A501F780C791412179D908F7A781F
:1021D8000C12158A4047850C10850D11850E128545
:1021E8000F13804185141085151185161285171354
:1021F8007810790C12179D908F7A781012158A50E2
:102208001C7510007511007512007513017810798E
:102218001412179D7810790C1217648008908FC2D9
:1022280078101217EB74097810121745908FD6782A
:102238000C1217EB7810790C1216299005E5E0645A
:1022480008600AE064066005E06405701C908FA6CB
:10225800781012158A5012908F7E78101217778096
:1022680008908FCA78101217EB8508828509837841
:10227800101217FA74061219317F10021A8A74F7AD
:102288001219DE12129D90077FE0640170109062AF
:1022980045E4F0A3F053F4F343FE0C5390F3121209
:1022A8003DE5C654804449F5C6E59E547F644970AF
:1022B800F8906185740FF090077DE0F47002A3E058
:1022C800602C75080175090090077DE078081219DF
:1022D80008E508F4FAA3E0600814600A14600C80AA
:1022E8000DEA52808008EA52908003EA52A07900F1
:1022F8007F02021A8A74F71219DEE9FEEAFF7401F6
:102308006E700C7A807B009005E4E0F912056B9002
:10231800261CE493F46008E493F91210158009531D
:10232800C680E59E547F70FA12124390077FE064DE
:1023380001700312104B90077DE0F47002A3E06077
:102348002A75080175090090077DE07808121908B8
:10235800AA08A3E0600814600A14600C800DEA4221
:10236800808008EA42908003EA42A01211CB8A08D2
:102378008B09A808A909E8496017E5E170FCE82479
:1023880014F582E93400F583E0F874FF6860028888
:10239800E174016F700A7A019005E4E0F91205C54D
:1023A8000222F874F11219DE8A088B098C0A8D0B47
:1023B800740F121966780C1217EB908FA278081216
:1023C80017C5908FA2780C1217C57808790C1215CA
:1023D8006A50157808790C12179D908F7A78081230
:1023E800158A401579018013780C790812179D9089
:1023F8008F7A780C12158A40EB79007F08021A8AC6
:1024080074ED1219DE8A088B098C0A8D0B7413126D
:102418001966780C1217EB908FA278081217C590DE
:102428008FA2780C1217C5780C790812156A40111A
:102438007808790C12179DAA08AB09AC0AAD0B8075
:102448002275100075110075120075130178107946
:102458000C12179D78107908121764AA10AB11ACEA
:1024680012AD137F0C021A8A908FA278081217EB0C
:102478008A828B8378081217D87F04021A8A74F527
:102488001219DE8C828D8378081217EB8A828B836F
:1024980078081217B11224DAC3E098F0A3E0991271
:1024A80024CC401E908F9678081217EB8A828B8373
:1024B800780812178A8E828F83E02420F0A3E034F4
:1024C8004EF080A4F08E828F83C3E09420A3E09422
:1024D8004E22EA2404F8EB3400F9E8FEE9FF8C8286
:1024E8008D83A3A3A3A3E0F8A3E0F98E828F8322B0
:1024F80074F51219DEE9FE900737E0FAA3E0FBEE67
:10250800C333F8E433F974E728F582748E39F58318
:10251800E02AF508A3E03BF5097808121B85908F9F
:10252800921218091220F474021219318A088B09C0
:102538008C0A8D0B7410780812172CAA08AB097F27
:1025480004021A8A74F11219DE8A0C8B0D8C0E8D16
:102558000F740F121966E0FAA3E0FB7411121966E2
:10256800E0F508A3E0F5097413121966E0FEA3E08C
:10257800FF7808121B85EA2401F508EB3400F509F9
:10258800E4F50AF50B780C79081215A9908F86786E
:10259800081217EB780C79081215A9AA0CAB0DAC28
:1025A8000EAD0F1220F474021219318B09EA450995
:1025B80060047A0180027A00EC2AFCED3400FDEC1C
:1025C800F8EDF97A717B0212189088088909E4F508
:1025D8000AF50B8E828F8378081217FAECF8EDF95A
:1025E8007A717B021218908A088B09740578081290
:1025F80019088E828F83A3A3A3A3E508F0A3E50996
:10260800F07F08021A8AC082C083E9906000F0D087
:1026180083D08222FFFFFFFFFFFFFFFFC082C0833E
:10262800E9900CFFF00228A874F7121972E99005D6
:1026380003F07C3B7D057AFF7BFF120D4B90050470
:1026480074FFF0A3F0A3E4F0A3F07905120CD39083
:102658000503E0F9120BFB7A697B0D120F2B02358B
:10266800B674F41219728A088B09EB5480603090A2
:102678000503E0F91205538A0A8B0BAE0AAF0BEE7D
:102688004F60138E828F83E064B07003120CEBEE00
:10269800FAEFFB120541AA08E5096480FB80047A79
:1026A800007B0002287774F212197274FC12191B4D
:1026B800EAFEEBFF7412121966123A9DEE4F700390
:1026C8000227517402121966EEF0A3EF122AB2EC37
:1026D800F0A3ED122AB2AA82AB83120BF5E9F50A30
:1026E800706AE508450960648E828F83123A83EE2A
:1026F8004F60567A067B001205AD8A0C8B0DA80C2C
:10270800A90DE8497005750A13804188828983E418
:1027180012275EEEF0A3EF123AAEE508F0A3E50942
:10272800F09005091227E5900509700512356080BB
:102738001B12354E8003EAFCEBFD8C828D83122739
:10274800E570F38C828D8380E3750A02A90A74040C
:10275800121931023C9DF0A3123A54A32274F212CA
:102768001972890AE975F017A4FEAFF0900508E41C
:10277800F09005061227E5600A1205B3900506E4F5
:10278800F0A3F0EEFAEFFB1205AD8A088B09EA45D3
:1027980009602FEEFCEFFD790012052F900506E584
:1027A80008F0A3E509F07B0080081227CFE4F0A326
:1027B800F00BEBC3950A40F2E50A900508F07900A2
:1027C80080027913023C9DEB75F017A4F8A9F090EC
:1027D8000506E028FAA3E0398A82F583221231F24D
:1027E800EA4B2274F4121972740C121966123A78B0
:1027F800FEE9FF750800750900800CE5082401F55D
:1028080008E5093400F509C3E5089CE5099D50323F
:1028180085080A85090B7403780A121908EA250A3B
:10282800F8EB350BF988828983A3A3A3A3A3A3128A
:102838003635EE650A7003EF650B70BFE8FAE9FB01
:1028480080047A007B00802774F41219727900EAF8
:10285800A2E0501B75085275098F7808121B857CF9
:10286800047D007A017B0D120CCD74021219317FA0
:1028780004021A44C082C0839005091228AF601C64
:1028880088828983A3A3E06A7003A3E06B888289A6
:102898008370E8A3A3A3A31231EE80047A007B001F
:1028A800D083D082020135123D83E8492274EE12AA
:1028B800197274FC12191BEAFEEBFF851882851940
:1028C80083E4F0A3F0EE2402123540EE2405123A18
:1028D8005BEE2404F50EEF122E67E024FE60392427
:1028E800FC604624FE605224FE605E24FE700302F3
:1028F80029C824FE7003022A2C24FE7003022A3BF6
:1029080024FE7003022A4A24FC7003022A5924FE7A
:102918007003022A68022AA59005227417F0A3E41E
:10292800122ABA120973022AA5851882851983AC5E
:1029380082AD83120CF1022A75851882851983AC41
:1029480082AD83120CF7022A75850C08850D09746F
:1029580002121966AC82AD8385088285098312311B
:10296800EE120C198A0C8B0DAC0CAD0DEC4D603BC6
:10297800E4F50CF50D780C121B85750C22750D0508
:10298800780C121B85750C23750D05780C121B85A8
:102998007408121966121B9C123EFF121931E9F5D0
:1029A8000C700B1231E412098B800F750C0185082D
:1029B80082850983122AA8123560850C08022A78B4
:1029C8007402121966AC82AD83850C82850D831260
:1029D8002FB9603C850C82850D83A3A3121B9C75BF
:1029E80010227511057810121B85751023751105B5
:1029F8007810121B857408121966121B9C123EFF70
:102A0800121931E9F509700B1231E4120991800F9E
:102A1800750901850C82850D83122AA812356085F7
:102A28000908804C851882851983AC82AD83120C05
:102A3800FD803A851882851983AC82AD83120D0317
:102A4800802B851882851983AC82AD83120D09808D
:102A58001C851882851983AC82AD83120D0F800DF9
:102A6800851882851983AC82AD83120D15E9F508A6
:102A7800E50860298E828F83A3E06414601F850EA9
:102A880082850F83E0900522122AB2123D7F9005BD
:102A980023123560E508A3122ABA12096D02344FD1
:102AA800123D8385188285198322F085188285193D
:102AB8008322F07C227D05850A82850B831231F200
:102AC8002274EE12197274FC12191B8A0A8B0B8C71
:102AD8000E8D0FEA2405F508EB3400F5097C157D09
:102AE8000079007A227B0512052FE5082402F50CEF
:102AF800E509123A5E8518828519838582108583D7
:102B0800117810121B85850882850983A3A3A3A3C6
:102B1800122FB0121B85E5082405F510E5093400CD
:102B2800F5117810121B85850C82850D83123305EB
:102B3800120C1374061219318A108B11AE10AF11D2
:102B4800E50A2402F50AE50B123543EE4F7003023D
:102B58002C87801774021219661231EE88828983D5
:102B6800EAF0A3EBF0900522E004F0900522E0C320
:102B780094054003022C87E4F510F5117810121B18
:102B88008575100B7511057810121B8575100C755D
:102B980011057810121B857406121966121B9C7990
:102BA80010EEFCEFFD123F01121931E9705E850845
:102BB80082850983A3A3A3A3A3A3A3E0F890050B8D
:102BC800E0687048122FB0121B857C0C7D05E50863
:102BD8002408FAE5093400FB120529740212193198
:102BE800E960298E828F83A3A3A3A31231EE9005F7
:102BF80022E0F5107402781012190874232510F5D4
:102C08008274053511F583EAF0A3EBF0740212190A
:102C1800668582108583117810121B85740212193B
:102C280066121B9C850C82850D8312321412193191
:102C38008A108B11AE10AF11900522E0F5107511B6
:102C4800007402781012190874222510F8740535DA
:102C580011F988828983A31227E57003022B53E8B0
:102C68002403080808E93400F9EE4F6003022B5CDE
:102C78008882898374FFF0A3F0900522E004F09025
:102C88000522E0600A1231E412097F7900800B8581
:102C98000882850983123557790A02344F74EA127B
:102CA800197274FE12191B8C128D13EA2405F50C87
:102CB800EB123EE9123A87750800750900EA24020A
:102CC800F510EB3400F51185188285198385820A81
:102CD80085830B780A121B85850C82850D83A3A337
:102CE800A3A3122E7D121B85E50C2405F50AE50D1C
:102CF800123543780A121B85850C82850D83122EA6
:102D080081120C1374061219318A0A8B0BEA450BCF
:102D18007003022E22EA2404F50EEB122E67123AF3
:102D2800878A828B83A3A3A3E0F985108285118308
:102D38001231F86003022E22E4F514F51578141206
:102D48001B8575140B7515057814121B8575140CE5
:102D58007515057814121B857406121966121B9CCA
:102D68007913AC0AAD0B851082851183123F0712C7
:102D78001931E9F5096003022E2290050BE0F8E508
:102D8800087009E02402900523F08014900523E0E0
:102D9800FCE82402FAE43400FBEA6C7001EB707E74
:102DA800850882AA82122FA79414122F9F506B8530
:102DB8000E82850F83E0C0E074242A122E5ED0E0D4
:102DC800F00508850E82850F83A3E0C0E085080A18
:102DD8007424250A122E5ED0E0F0050890050B1227
:102DE8002E7D121B857C0C7D0585080A7424250A16
:102DF800122E7112193190050BE02508F50874FFA1
:102E08006E700374FF6F6012EE24010EEF3400FF42
:102E1800E508C394145003022CCFE508601312325E
:102E2800028510828511831231EE1209857900809E
:102E380014E509700375090A851282851383EEF07B
:102E4800A3EFF0A90974021219317F0E021A448502
:102E5800080C7424250CF58274053400F58322349B
:102E680000F50F850E82F58322FA74053400FB12F3
:102E78000517740222123ABD22A3A3122E8722122A
:102E8800354EFDEEFAEFFB2274EE12197274FE1243
:102E9800191B8C0E8D0FEA2405F50CEB123A5E75A2
:102EA8000B00900522E4F0F50AEA2402F508EB3459
:102EB80000F5098044900522E0FA90050BE0F8122D
:102EC8002FA79417122F9F400D900522E0F8741633
:102ED800C39890050BF0122FB0121B857C0C7D0552
:102EE80074232AFA7405122E7412193190050BE016
:102EF800F8900522E028F0050AE50C2416F582E58D
:102F08000D122E62E0F8E50AC3985074900522E08D
:102F1800C39416506BE50AC333F8E433F9E50C287B
:102F2800FEE50D39FF851882851983AC82AD838E45
:102F3800828F83122FB97008750B01123553805098
:102F4800E4F510F5117810121B8575100B75110535
:102F58007810121B8575100C7511057810121B85D9
:102F68007406121966121B9C7916850882850983D6
:102F7800123F07121931E9F50B7003022EBD80BB11
:102F88007C227D058508828509831231EE12099716
:102F9800A90B7402023451E99400C365D03322EAC4
:102FA80028F8E43400F9E822E0F5107511007810EB
:102FB800221234468A108B11AC10AD11EC4D2274DC
:102FC800EA12197274FC12191B8A0C8B0D8C128D63
:102FD80013EA2405F50AEB12354375080075090054
:102FE800E50A2402F510E50B3400F51174021219F4
:102FF8006685820E85830F780E121B85850A828569
:103008000B83A3A3A3A3123A63121B85E50A240525
:10301800F50EE50B3400F50F780E121B858510822E
:103028008511831235491231E8120C1374061219EE
:10303800318A0E8B0FAE0EAF0FE50C2402F50EE5AC
:103048000D3400F50F80388882898374FFF00508F5
:10305800122E5774FFF0050890050BE0F50C750D5E
:1030680000780C121B857C0C7D0585080C742425C2
:103078000C122E7112193190050BE02508F508EE97
:103088004F60278E828F83A3A3A3E0F9850E8285E4
:103098000F831231F8EE2404123A5BE96027850C9D
:1030A80082850D831231DA123560E508700302312A
:1030B800C0123202850E82850F831231EE12099DED
:1030C80079000231D5E4F514F5157814121B8575CD
:1030D800140B7515057814121B8575140C751505D8
:1030E8007814121B857408121966121B9C7911EE4C
:1030F800FCEFFD850E82850F83123F07121931E917
:10310800F509709A850882AA82EA90050B7009E091
:103118002404900523F08025E0F8900523E0F514B9
:10312800E82404FCE43400FDEC65147001ED7081C2
:10313800122FA79412122F9F40030230B9850C82D8
:10314800850D83E0C0E074242A122E5ED0E0F005DD
:1031580008850C82850D83A3E0C0E0122E57D0E0CD
:1031680012321D85820C85830D780C121B85740420
:10317800121966121B9C8510828511831232141253
:1031880019318A0C8B0DAE0CAF0D85080C742425F3
:103198000CF874053400F9EE4F700302304F8518AF
:1031A80082851983E08882898312321DA3E0C0E0FA
:1031B800122E57D0E002305DE509700375090A85C3
:1031C8000A82850B831231DA123560A90974040268
:1031D8002E4F123D83851282851383227C227D0522
:1031E800850A82850B831231F222E0FAA3E0FB22E2
:1031F8001231F2120C01E9F50922900523E0F5F0ED
:10320800E50884900522F07C227D0522122E871283
:103218000C1F740422F0050885188285198322740E
:10322800EC12197274FE12191B8A088B098C0E8D08
:103238000FEA2405FEEB3400FF123430EE24181296
:103248003A5BEA450B70030232D312341950291243
:1032580032F88A108B11EA4511606B7912AC0AAD0D
:103268000B8508828509831231EE851082851183CA
:10327800121970E9F50A7058E4F50AF50B780A1284
:103288001B858E828F83A3A3E0F50A780A121B851B
:10329800EE2403123540780A121B858E828F831222
:1032A8003305120D397406121931E9F50A702185B2
:1032B8000C82850D83E0701F850882850983123191
:1032C800EE1209A38011750A0E8009750A0180049F
:1032D800E50A6003123553850C82850D83E060048E
:1032E80079008002A90A74021219317F0C021A446B
:1032F8008518828519831231F2120D272212354E54
:10330800FD8508828509831231F22274EE12197242
:1033180074FE12191B8A088B098C0C8D0DEA240582
:10332800FEEB3400FF750E00123430EA450B7003D3
:103338000233F7123419502C1232F88A0E8B0FEA26
:10334800450F604A7912AC0AAD0B8508828509835E
:103358001231EE850E82850F83121970E9F50E6021
:10336800030233FA850882850983123635AA0AFBD7
:1033780012340B70147AFF7BFF12340B606C888256
:103388008983E50AF0A3E50BF0750A008007750E3E
:103398000E805F050A900508E0FAE50AC39A504ACC
:1033A800E50A75F017A4FAABF088828983A3A3E035
:1033B8002AFAA3E03BFB8A828B83123549EC4D70D5
:1033C800D2750A17750B00780A121B85EEFCEFFD03
:1033D8001205177402121931EEFCEFFD850882857B
:1033E80009831231EE1209A98014750E098003753C
:1033F8000E01123D7B850C82850D83123560A90E66
:10340800022F9A120D1B8A108B11A810A911E849D6
:1034180022E5082402F508E5093400F5098A828BBB
:1034280083A3A3A3E0A2E522851882851983AC8231
:10343800AD838E828F831234468A0A8B0B22E0FA80
:10344800A3E0FB120C192274041219317F0A021A24
:103458004474EC1219728C108D11EA2405F50CEBEA
:10346800123A5E750F00EA2402F50AEB123543851D
:103478000A82F5831231EE123F8D700302353575DD
:103488000E008071850C82850D83E06401704F8E7B
:10349800828F83A3A3121B9C8E828F83A3A3A3A3D3
:1034A800E0F5127513007812121B85EE2405F5124B
:1034B800EF3400F5137812121B851231E8120D391A
:1034C8007406121931E9F50F6014850C82850D8395
:1034D800E4F0123D7B8510828511831235607C17DC
:1034E8007D007900EEFAEFFB12052F8E828F83E4C0
:1034F800F0A3F0050E900508E0F8E50EC398501EFD
:10350800E50E75F017A4F8A9F0850882850983A34C
:10351800A3123EF3123549EC4D600302348C850842
:103528008285098374FFF0A3F0E50F70061231E875
:103538001209AFA90F0232F3F50AEF3400F50B2296
:10354800A312354EFD22E0FCA3E0228E828F831267
:103558003D83850E82850F83E8F0A3E9F022C082BF
:10356800C083900504E06A7003A3E06B70067A04D8
:103578007B0580047A007B000228A874F712197270
:103588007F00EF75F003A4F8A9F0EC28F8ED39F9FD
:1035980088828983E06A7003A3E06B7006E8FAE921
:1035A800FB800B0FEFC3940240D87A007B007F01A9
:1035B800021A4474F6121972123B6C70067A007B78
:1035C800008007A3A3A3A31231EE023C2D74F212CC
:1035D8001972E9FE740E1219661236357410121932
:1035E80066123A9D8C828D83E06402703BA3123D83
:1035F8007F88828983E0F50CA3E0F9A80C7402683F
:1036080070037429697021750C02750D00780C120D
:103618001B857808121B85780A121B85EEF9120D96
:103628005D740612193180027901023C9DE0F50AA9
:10363800A3E0F50B2274E812197274FB12191BE946
:10364800851882851983F08A168B178C0E8D0F7456
:103658001F121966123A9D742112196612363574B2
:1036680023121966123A877510008C828D83A3A3E2
:10367800A3E0A2E4502A741D1219661232FE8A824F
:103688008B83E58245837003023749790AAC0EAD16
:103698000FAA16AB17121970E9F510600302374C20
:1036A800850E82850F83E064026003023A02A3124A
:1036B8003D7F850882850983A3858212858313E56A
:1036C8000E2406F50CE50F123A5E88828983E0FA2B
:1036D800A3E0F9EA2400F514E439F5157814121C6E
:1036E8000F010000280128113707000228E83703D6
:1036F8002858370029123901293A390229E13803B3
:103708002912390429A339023AEE4F703E850C82FA
:10371800850D83123A78FAE9FB8A828B83E0850A61
:1037280082850B83123AB4121B858A828B83A3127B
:10373800354EFDAA08AB091205177402121931801B
:103748000375100EA9107405023EE175100B80F484
:10375800EE4F70F7850A82850B837401F0123A8D5B
:10376800850882850983F07C007D00850E82850F9F
:1037780083A3A3A3A3E02401FAA3E03400FB120C63
:1037880019EA4B60418A828B83E02402F8850A8219
:10379800850B83E028F0EA2404F8EB3400F98882EA
:1037A8008983E0851282851383123AC6123AB412CD
:1037B8001B858A828B83123548E5082403FAE509BC
:1037C8003400FB02373F850A82850B83E02404F02E
:1037D8007C047D007900AA12AB1312052F02374C26
:1037E800EE4F6003023753123A8DFEA3E0FF850ABD
:1037F80082850B837404F0EE850882850983F0EFD7
:10380800851282851383F07403121966AC82AD8326
:10381800EEFAEFFB123B5A70030238BE8A828B83A2
:10382800A3A3123A83740112196685820E85830F49
:10383800780E121B857405121966121B9C7CFF7D7D
:10384800FF120C1F74041219318B0FEA450F7033E5
:10385800850C82850D83123A63121B85850C82853F
:103868000D83A3121B9C7C027D007A4B7B90120A6D
:103878004B7404121931E9700A740112196674FF45
:10388800F0A3F08E828F83E064027034750C0275A9
:103898000D00780C121B858E828F83123548E5083F
:1038A8002404FAE509122E74121931850A82850B4F
:1038B80083E0240280097401121966EEF0A3EFF088
:1038C8007401121966123A74F07401121966A3127F
:1038D8003A6CA3A3A3F002374CEE4F6003023753B0
:1038E800850C82850D83123549AA16AB17120D5126
:1038F800850A82850B837402F0EA8508828509832C
:10390800F0851282851383EB80CBEE4F600302377C
:1039180053123A8DF8A3E0F9850A82850B83740265
:10392800F0E8850882850983F0E98512828513838A
:1039380080A3850C82850D831231EE120511EAFCF5
:103948008C82A882C39EE49F404BE86E7001EF70A2
:10395800047C00801F851882851983E0FAEE2AFA14
:10396800EF3400FBC3EA98EB94005003E08004EEC8
:10397800CCC39CFCEC850A82850B83F08C0A750B02
:1039880000780A121B85850C82850D83E02EFCA326
:10399800E03F02373A75100702374CEE4F600302DA
:1039A8003753850C82850D83123D7F850A82850BEE
:1039B800837407F088828983123A6C123A54E0853E
:1039C8001282851383F0E82402FAE93400FB8A8224
:1039D8008B83123A6C123AA5123A74A3123AAE12B9
:1039E8003A7DF0E82405F8E93400F98882898312E1
:1039F8003A7DA3123AC6A30238DA741D1219661268
:103A08003B657003023749123D7F880C890DE845F4
:103A18000D70030237498E108F117810121B8578AC
:103A28000A121B857808121B857406121966E0F9BC
:103A3800AC0EAD0FAA16AB17850C82850D83121933
:103A4800707406121931E9F51002374CF088828932
:103A580083A322F50CEF3400F50D22E0F50E750F67
:103A680000780E22E085088285098322123ACD2249
:103A7800123D83E822123ACDA3A322A3A3A3A3E075
:103A8800FEA3E0FF22850C82850D83E0F8A3E0F514
:103A9800838882E022E0F508A3E0F50922A3A3F0D9
:103AA8008A828B83A322122760A3A322F08A828BA7
:103AB80083123ABD22E0F50A750B00780A22123A01
:103AC80054123ACD22E0850882850983A3A3227483
:103AD800EE12197274FE12191B8A0A8B0BECFAED9E
:103AE800FB7414121966E0F510A3E0F511741612B0
:103AF8001966E0FE7418121966E0F50EA3E0F50FDA
:103B0800851882851983AC82AD83123B5A603E8545
:103B18001882851983123B65602FA3A3123A9DE58D
:103B28000845096024780E121B857810121B85EE53
:103B3800F9AC0CAD0DAA0AAB0B8508828509831276
:103B4800197074041219318006790E800279010205
:103B58002F9A120C198A0C8B0DEA450D221231F29C
:103B6800123B6C22120CE58A828B83E58245832204
:103B780074F612197274FE12191B740C121966125B
:103B88003A78851882851983F07401121966E9F06C
:103B9800E4F508F5097808121B85750802780812FB
:103BA8001B857404121966858208858309780812B2
:103BB8001B85120D397406121931740212193180DD
:103BC8006474F7121972EAFEEBFF89087C3B7D05E5
:103BD800120D51EA5402600BA908EEFAEFFB120C21
:103BE8000D800279010235B674F612197274FF6AF3
:103BF800700374FF6B701C7B00EB75F003A4F8A9CD
:103C0800F0EC28F8ED39F9123C320BEBC394025072
:103C18001480E6120D218A088B09A808A909E84929
:103C28006003123C327F02021A448882898374FF3F
:103C380012275EE4F02274F6121972120D218A829C
:103C48008B83E58245836006A3A3E0FA80027A00AD
:103C58007B0080D174F21219728A088B09ECFEED90
:103C6800FF740E121966E0F50A123CA2701CEEFCF5
:103C7800EFFD7AFF7BFF123CA27004791180168851
:103C8800828983E508F0A3E509F088828983A3A3E4
:103C9800E50AF079007F06021A44120D218A0C8B7E
:103CA8000DA80CA90DE8492274EE121972EAFEEB70
:103CB800FF8C088D09890C7412121966123D7F74E5
:103CC8001412196612354974161219661231EE75F6
:103CD8000D00EC4D6003023D737402650C60030235
:103CE8003D6E8882898312354EF9EC2400F50EE486
:103CF80039F50FEAF4F8EBF4F9EC58F8E50F59F94F
:103D0800E849705DE5082406F8E5093400F9880AF1
:103D1800890B8882F583122E83120D518A108B111C
:103D2800E50E65107004E50F65116042780E121BF0
:103D380085850A82850B83122E83120D5774021211
:103D48001931E9F50D7027780E121B8585088285D3
:103D58000983A3A3122E81120D6F740212193180E8
:103D68000D750D808008750D0D8003750D0BA90D5F
:103D78000234548E828F83123D8322E0F8A3E0F947
:103D88002274E812197274E712191B8518828519B2
:103D980083EAF0A3EBF08C168D17890E7431121993
:103DA80066E0F512A3E0F5137433121966E0F51412
:103DB800A3E0F5157435121966E0F50F750800755E
:103DC8000900E50975F003A4F8A9F085188285199A
:103DD80083123EF3E0F47003A3E0F47003023ED1D3
:103DE800EE2402F50CEF123EE9E07003023ED185A5
:103DF800160A85170B780A121B85AC14AD15AA1282
:103E0800AB13120CD974021219318A0A8B0BEA45CA
:103E18000B7003023ED1E4F510F5117810121B85E2
:103E280074061219668582108583117810121B8515
:103E380074091219668582108583117810121B8502
:103E4800851282851383A3A3A3A3121B9C7914ACA8
:103E58000AAD0B8E828F83123F07121931E9706900
:103E6800850A82850B83A3A3A3A3123D7F74021244
:103E78001966123560850C82850D83E0A2E0501822
:103E8800A90E7402121966AC82AD838E828F8312DA
:103E980031EE120C31E94208850C82850D83E0A2CF
:103EA800E15026E50FF50A780A121B89A90E74035A
:103EB800121966AC82AD838E828F831231EE120C9A
:103EC8002B7401121931E942080509E509C3940266
:103ED8005003023DCAA90874191219317F10021A39
:103EE800443400F50D850C82F58322E028FEA3E01A
:103EF80039FF8E828F83227916850A82850B831279
:103F080031F2120D3374082274F2121972EAFEEBC0
:103F1800FF890B7401650B600E7402650B70637981
:103F280001120F49E9705BEEFAEFFB123F8D604713
:103F3800750A00800B7C177D00790012052F050A91
:103F4800900508E0F8E50AC3985021E50A75F017CE
:103F5800A4F8A9F0850882850983A3A3E028FAA319
:103F6800E039FB8A828B831228AF70C98508828565
:103F7800098374FFF0A3F07C3B7D05EEFAEFFB129A
:103F88000D4B023C9D120D1B8A088B09EA4509223C
:103F980074F21219728A088B09ECFEEDFF740E1286
:103FA8001966123635900CFFE0F4603D7A097B0003
:103FB80012053BEA4B60328A828B8374B1F0A3E42A
:103FC800123AA7A3123AA5A3E508F0A3E509123F00
:103FD800F4EEF0A3EF123FF4A3A3E50AF0A3E50B78
:103FE800F0900CFFE0F9120547023C9DF08A828BA5
:103FF80083A3A3A3A3A32274F4121972E9FF7E007A
:104008008A088B097808121BC900040DB041324098
:104018004E40634078408D40A240BE40D740E940C2
:1040280017413941554171418F4174016F70128CAC
:10403800828D83E0C394035008E0900B4FF0024157
:10404800CE7E180241CE74026F70F68C828D831278
:10405800490C900B50E8F0A3E980E274016F70E11D
:104068008C828D83E0C3940250D7E09002CE80CD3D
:1040780074016F70CC8C828D83E0C3940550C2E0CC
:104088009002CF80B874016F70B78C828D83E0C3C3
:10409800940250ADE09002D080A374106F70A275A6
:1040A80008108E097808121B857AD17B02124CD031
:1040B8001219310241CE74016F70868C828D83E0B3
:1040C800C394024003024049E09002E10240457473
:1040D800016F60030240498C828D83E0900B53800E
:1040E8008D74046F6003024049908F92780812170C
:1040F800EB8D838C82780812157A40030240498C34
:10410800828D831218099002E31218150241CEEF2E
:104118006003024049120BB9E9700E120739795051
:104128001208E312072D0241CE9003767401024073
:104138004574016F60030240498C828D83E0C3940B
:10414800024003024049E09002E202404574016FD8
:1041580060030240498C828D83E0C3940A400302C5
:104168004049E0900B5202404574016F60030240E1
:10417800498C828D83E024F9C3940A4003024049A4
:10418800E0900B5402404574016F6003024049906F
:104198000375E0F88C828D83E0900375F0E8702653
:1041A800E06401702102412BC3EA9426EB9400508D
:1041B8001374026F700E8C828D83124906120A578F
:1041C800E9FE80020E0EEEF90241D8740E12193182
:1041D8007F04021A4474F012197274CC12191B8CE1
:1041E8000A8D0B7444121966E0FE7420121966AC2D
:1041F80082AD8375838F75822E740612182E7420F3
:10420800121966AC82AD831206DFE9F508C3940A79
:10421800400302434175F006E9A4F5097426121912
:1042280066AC82AD837A0E74202509124D88700918
:104238007432121966E0FF80027F00900B4FE06431
:1042480002700474018001E4F50D780D121B89EEEB
:10425800FDEFFCA908AA0AAB0B1207637401121937
:10426800317C147D007900740C121966AA82AB8324
:1042780012052F740C121966AC82AD837A1074245F
:104288002509124D8870377C1079FF740C12196655
:10429800124AB57029741C121966AC82AD837A046F
:1042A80074252509F91208DD740C121966AC82AD63
:1042B80083EFA2E0E433F9AA0AAB0B120AE18518EE
:1042C80082851983AC82AD837A0C74702508124DEF
:1042D800887055851882851983AA82AB8312070FC7
:1042E800750800E50875F003A4F8A9F0851882851B
:1042F8001983E58228F8E583124AF1124906EC4D44
:10430800601D88828983A3A3E0F50E750F00780EDF
:10431800121B85AA0AAB0B120D3F74021219310544
:1043280008E508C3940440BBEFA2E1500C9002CD0D
:10433800E0F9AA0AAB0B120D4574046E702A900BB3
:104348004FE0640270229002E1E060047A0180028A
:104358007A009002CEE06004780480027800E84A8F
:10436800F9AA0AAB0B120BA1790074341219317F28
:1043780008021A4474F0121972EAFEEBFF8C088DD9
:1043880009750A0AE9600C14600914602E14607F2C
:10439800024422120721E9F50AC3940A507CE50871
:1043A80045096076750E06750F00780E121B85EEAE
:1043B800FCEFFD124CCC121931805F750B00750EA5
:1043C80006750F00780E121B85EEFCEFFDE50B75E8
:1043D800F00EA4F8A9F074EF28FA740239FB12055C
:1043E800297402121931E9601B850B0AE50AC39486
:1043F8000A5027E50845096021AA08AB09A90A124D
:10440800071B8016050BE50BC3940A500D80AF12ED
:104418000727E9F50AC3940A40D9A90A0243777421
:10442800F4121972890875091574FF6A700374FF0C
:104438006B70277E00AC087A027B00EEF91206FD4D
:10444800E960037509000EEEC3940A40E8E50860C8
:10445800497A517B07120F5B8040120F3D8A0A8B05
:104468000BAE0AAF0BEE4F602E7C007D00EE2405EC
:10447800FAEF3400FB8E828F8312451E500CAC0875
:104488007A027B001206FD750900E508600CEEFA59
:10449800EFFB1207518003750914A9090241D8746A
:1044A800F2121972ECFEEDFF740E1219661248F939
:1044B80075081574FF6A700374FF6B702175090025
:1044C800AC0AAD0BEEFAEFFBA909120703E960038A
:1044D8007508000509E509C3940A503580E2120FF2
:1044E8003D8A828B83E582458360237C007D00E5DD
:1044F800822405FAE5833400FB12451E5013AC0AEA
:10450800AD0BEEFAEFFB1207037508008003750880
:1045180014A9080252F7A3A3A3A3E0F91206DFE93E
:10452800C3940A22C082C0839002E7EAF0A3EBF0AA
:104538009002CDE0FC7D007A257B00120A5790029C
:10454800CDE0F9120CBBD083D08202013574EA1297
:10455800197274EC12191BEAFEEBFFEE240CF51429
:10456800EF3400F515EE240AF510EF3400F511EEDE
:104578002405F50EEF3400F50FEE2409F50AEF34A3
:1045880000F50BEE2403F508EF3400F5098E828F51
:1045980083A3A3E024FA70030248C224FD70030237
:1045A80047F114700302464014601024FD700302A2
:1045B80047C21470030248260248E0124925604A9F
:1045C800E0F583888212490C880C890DE8450D6056
:1045D80039851482851583E0F50E780E121B89EE55
:1045E800240BF582EF3400F583E0F9850A82850B08
:1045F800831249060A0A0AAB09850C82850D8312C3
:10460800197074011219310248E0850A82850B83FA
:10461800121B9C9002E3121809120AF37402121971
:1046280031E970030248E07901850A82850B83121B
:10463800511C120AED0248E08E828F83A3858212F4
:10464800858313E0600302479B850E82850F83E014
:10465800A2E0400302479B7C0E7D0079008518820A
:10466800851983AA82AB8312052FEE2408F50AEF79
:104678003400F50B850A82F5831249286019750CF8
:1046880006750D00780C121B85850A82850B83E060
:104698002410FCA3E0801A1248EAEA4B700302488F
:1046A800E0750C06750D00780C121B85EA2405FCD4
:1046B800EB3400FD7402121966AA82AB83124CD047
:1046C800121931850E82850F83E0A2E25004D2F0E0
:1046D8008002C2F0A2F0E433F8740C121966E048C4
:1046E800F08510828511831249286015851082850E
:1046F8001183E02410F8A3E03400F98882898380CC
:1047080003908F96780C1217EB851082851183120F
:104718004928600F851082851183E0F510A3E0F524
:10472800118006751000751100850A82850B8312A9
:104738004928600B850A82850B831248F980067523
:104748000A00750B00780C121B817810121B8578F3
:104758000A121B85851482851583121B9C8E828FF5
:1047680083A3124901740A121966AA82AB8312073D
:1047780015740A12193185088285098312490C902B
:104788000377E8F0A3E9F07A017B009002CDE0F925
:1047980012056B12492570030248E0124912700392
:1047A8000248E0851282851383E0FC7901125116D4
:1047B8008E828F831219700248E012492570030215
:1047C80048E0E0F5838882A3A312490C890BE845E9
:1047D8000B70030248E08E828F83A3E0FC790212FB
:1047E80051168882850B8380CB7C007D00EE2404E3
:1047F800FAEF3400FB850882850983E0F91206DFA9
:10480800E9F8C3940A40030248E0AC10AD117A04F9
:1048180075F006E8A42425F91208D70248E09002AA
:10482800E2E0600E900B52E0F98508828509830268
:104838004637900B4FE07004790580ED1248EA8AFC
:104848000C8B0DA80CA90DE82404F50CE93400F52F
:104858000D8E828F83A3A3A3A3A3A3A3E0A2E050FA
:1048680036E8496073850C82850D83E0FE602885F3
:104878000A82850B83E05410701D740E121966AC01
:1048880082AD83E82405FAE93400FBEEF91206DF6D
:10489800E9700479038092AC0EAD0F850C82850D0A
:1048A80083E0F912511612075D124925602A124950
:1048B8001260257C0079000247B5120BB9E970181F
:1048C800900376E064017008120739900376E4F0EB
:1048D80079501208E312072D74141219317F0E0251
:1048E8001A44850882850983E0FAA3E0FB120F3D8C
:1048F80022E0F50AA3E0F50B22A3A3A3A3A3E0FCFF
:10490800A3E0FD22E0F8A3E0F922E0F5838882A382
:10491800A3E0F8A3E0F9E8FEE9FFEE4F229002E7F2
:10492800E0F8A3E0F9E8492274F412197274F2125B
:10493800191BEAFE8C0B75F006E9A42420F50885FE
:104948001882851983AC82AD837A0E124D88704A1D
:104958007C06124AAD7043740C12196612490CE8B1
:10496800F509E50B6005EE42098004EEF45209856D
:104978000982AA82E86A7001E9601B740C12196640
:10498800EAF0A3E4F0851882851983AC82AD837AB6
:104998000EA9081208D77901800279000241D37460
:1049A800F212197274E612191B890A8A088B09EC2B
:1049B800FEEDFF740C121966124D7B6003024A610A
:1049C8007C0679FF740C121966124AB56003024A14
:1049D800617470250AF50B851882851983AC82AD40
:1049E800837A0C124D886003024AA68518828519BD
:1049F80083AA82AB8312070FE508450970217C0C56
:104A08007900124AAF6003024AA67C0C7D00790047
:104A1800851882851983AA82AB8312052F80618548
:104A28001882851983AC82AD83AA08AB09120709DD
:104A38008A0C8B0DA80CA90DE849702CEE4F601953
:104A4800851882851983AC82AD837A007B001207B2
:104A580009EAF8EBF9EA4B70047900804388828907
:104A680083E508F0A3E509F0124B2DFAEE6A700110
:104A7800EF602BEEF04F700888828983E4F0A3F092
:104A8800851882851983AA82AB8312070F8518823D
:104A9800851983AC82AD837A0CA90B1208D77901EA
:104AA800741A0252F479FF851882851983AA82AB99
:104AB8008312058FE92274F71219727F00EF75F0DF
:104AC80003A4F8A9F0EC28F8ED124AF1E06A7003A3
:104AD800A3E06B7006E8FAE9FB800B0FEFC39404C0
:104AE80040DB7A007B00024E2639F98882898322CE
:104AF80074F71219727E00EE75F003A4F8A9F0EAB3
:104B080028F8EB124AF1E0F4FCA3E0F4FD8882896E
:104B180083ECF0A3EDF0124B2DF4F00EEEC39404E9
:104B280040D5024E26E82402F582E93400F583E0F8
:104B38002274EE12197274F412191BEAFEEBFF8C40
:104B48000A8D0B741E121966E0F50CA3E0F50D74BE
:104B580020121966E0F508A3E0F509742212196617
:104B6800E0F510A3E0F511EE4F7005790A024C5EEE
:104B7800120721E9F50EC3940A4023750F007C063D
:104B880079FFE50F75F00EA4FAABF074E92AFA7410
:104B9800023BFB124AB97003024C68850F0EE50E02
:104BA800C3940A4003024C5C75F006E50EA4F50FA9
:104BB800EEFCEFFD7A0E7420124C79E50A450B6085
:104BC8000BAC0AAD0B7A1B7421124C79E50C450D20
:104BD800600BAC0CAD0D7A1B7422124C79E50845BC
:104BE80009600BAC08AD097A107423124C79E510F2
:104BF8004511601BAC10AD117A107424124C7974F5
:104C080024121966AC82AD837A047425124C797C1F
:104C18000C7D0079FF1253857A0C7470250EF912F9
:104C280008D775080E7509007808121B85EEFCEF89
:104C3800FDE50E75F00EA4F8A9F074E928FA7402DF
:104C480039FB124CD0121931900375E0600312073A
:104C580069120757A90E740C1219317F0A021A44F7
:104C6800050FE50FC3940A5003024B86750E0A80A0
:104C7800E3250FF91208D72274F412197274F2128C
:104C8800191BEAFEEBFFE9C3940A5004EE4F7004C7
:104C98007902802D851882851983124D7BF508705D
:104CA8001E750A06750B00780A121B857402121904
:104CB80066AC82AD83EEFAEFFB124CD0121931A923
:104CC800080241D3AA08AB0912051774022274F42A
:104CD800121972EAFEEBFF750800750A06750B00DB
:104CE800780A121B85EEFCEFFDE50875F00EA4F8B6
:104CF800A9F074E928FA740239FB12052974021222
:104D08001931E96004A908800B0508E508C3940A6D
:104D180040C8790A0241D874F712197274F012194E
:104D28001BEAFEEBFF750800851882851983AC82A3
:104D3800AD837A1075F006E508A42423124D887017
:104D48001F7C10124AAD7018EEFCEFFD85188285A5
:104D58001983AA82AB83120AC3E97004A908800BDD
:104D68000508E508C3940A40BF790A74101219317E
:104D7800024E26AC82AD837A0E75F006E9A4242093
:104D8800F91208DDE92274F7121972750800E508AE
:104D980075F00EA4F8A9F074E928FE740239FFEE44
:104DA800FCEFFD7A0E75F006E508124D85602C7C47
:104DB800067D0079FFEEFAEFFB12052F7C067D00D9
:104DC80079FFEE2406FAEF3400FB12052FEE240CCF
:104DD800F582EF3400F583E4F0A3F00508E508C395
:104DE800940A40AA900375E06003120769120757F6
:104DF800802C74F71219727E007F007C0679FFEF11
:104E080075F00EA4FAABF074E92AFA74023BFB12AF
:104E18004AB970010E0FEFC3940A40DFEEF97F0123
:104E2800021A4474F71219727E00EEF912073F0E47
:104E3800EEC3940A5003E960F180E374F312197227
:104E480074CB12191BE9FF75F006A4F50874202528
:104E580008FE7427121966AC82AD837A0EEE124DE5
:104E6800886003024F457C0679FF74271219661281
:104E78004AB56003024F457C0E7D0079FF74271206
:104E88001966AA82AB8312052F7C1B7D0079FF74FB
:104E98000C121966AA82AB8312052F7C0C7D00794F
:104EA800FF851882851983AA82AB8312052F742780
:104EB800121966AC82AD837A0EEEF91208D7E9F5BD
:104EC80009740C121966AC82AD837A1B7421124FD7
:104ED80054FE740C121966AC82AD837A1B742212CC
:104EE8004F54F50A740C121966AC82AD837A1074AB
:104EF80023124F54F50B740C121966AC82AD837AE9
:104F0800107424124F54F50C740C121966AC82AD4F
:104F1800837A047425124F54F508851882851983FD
:104F2800AC82AD837A0C74702FF91208D7E9F8EEC9
:104F3800450A450B450C4508484209800375090098
:104F4800A90974351219317F05021A442508F91286
:104F580008D7E92274F7121972E99002CDF0120706
:104F68002D024E2674F212197274FB12191B8A084C
:104F78008B09EB548070030250109002CDE0F912B7
:104F880005538A0A8B0BA80AA90BE8FEE9FFE84932
:104F9800606CEE2404F8EF3400F98E828F83E024ED
:104FA80050603814600624E1604A804B8882898307
:104FB800E070448E828F83A3A3A3A3A3A3A3121B91
:104FC8009C8E828F831249018E828F83A3A31251F4
:104FD8001C1206EB7402121931801C88828983E046
:104FE800641E701379008E828F83A3A312511C1242
:104FF80006E580031206F7EEFAEFFB120541AA0850
:10500800E5096480FB025111EAA2E0400302510D58
:105018009003771248F9740312196685820C858308
:105028000D780C121B85750C02750D00780C121B7F
:1050380085750C45750D90780C121B857CFF7DFFDE
:105048007A017B00120C1374061219310250F5E430
:10505800F50CF50D780C121B8574041219668582FF
:105068000C85830D780C121B8574041219668582D1
:105078000C85830D780C121B857409121966121B96
:105088009C7902EEFCEFFDAA0AAB0B120D337408F3
:10509800121931E97035851882851983E0FA74018F
:1050A800121966E0F9EA2400F50CE439F50DEA4531
:1050B8000D6018780C121B858E828F83124902AA04
:1050C8000AAB0B1206EB7402121931E4F50CF50D5C
:1050D800780C121B857405121966121B9C7CFF7DC7
:1050E800FFEEFAEFFB120C1F74041219318A0C8BB5
:1050F8000DAE0CAF0DEE4F6003025057E50864018A
:10510800FAAB0980047A007B0074050252F4850822
:1051180082850983E0FAA3E0FB22C082C083900263
:10512800CDE0F98A828B83A312511C120D450245EA
:105138004EC082C08374FF12191B120733E9C3944F
:1051480002851882851983400474028002740AF06B
:10515800AC82AD837A017905120BD1740112193131
:1051680002454E74F212197274E812191BEAFEEB2A
:10517800FF890A8C088D097C187D00790012538DEF
:10518800EEF0A3EFF09002CFE0C0E07402121966CF
:10519800D0E0F09002D0E0C0E07403121966D0E0CD
:1051A800F0900B54E0C0E07417121966D0E0F07468
:1051B80015121966E054FEF8A3E0F9900B53E0A22B
:1051C800E0E433FAE84AF87415121966125303A298
:1051D800E15004D2F08002C2F0E854FDFAA2F0E4F3
:1051E8003333F8EA48F87415121966125303A2E328
:1051F8005004D2F08002C2F0E854F7FAA2F0E43387
:10520800F50C750D007403780C1219081252FC1273
:105218001966125303A2E45004D2F08002C2F0E8E7
:1052280054EFFAA2F0E433F50C7404780C12190860
:105238001252FC121966125303A2E55004D2F080F0
:1052480002C2F0E854DFFAA2F0E433F50C740578F2
:105258000C1219081252FC121966125303A2E250DA
:1052680004D2F08002C2F0E854FBFAA2F0E433F56D
:105278000C7402780C1219081252FC121966E8F024
:10528800A3E9F09002D0E0601B750C10780C121B9B
:10529800857CD17D027406121966AA82AB83124CF2
:1052A800D01219319002E1E06011E50A6009741525
:1052B800121966E04402F078018002780074141232
:1052C8001966E048F09002CEE06004780480027825
:1052D800007414121966E048F0AC08AD098518820C
:1052E800851983AA82AB83120AE774181219317FD1
:1052F80006021A44EA450CF8741522E8F0A3E9F00E
:10530800900B53E02274F312197274E512191BEA18
:10531800FEEBFF8C098D0A7428121966E0F50C75EE
:10532800F006E9A4F87408650A700474228002740F
:105338002128F50B7C1B7D0079001253857A1BA967
:105348000B124D897032741A121966E024F9C3944D
:105358000A5025E50CF50B780B121B8974011219FC
:1053680066AC82AD83E509A2E0E433F9EEFAEFFB1F
:10537800120AF97401121931741B024F4C12538D21
:10538800AC82AD8322851882851983AA82AB8312E9
:10539800052F8518828519832274F7121972120D48
:1053A800B7750800E50875F00EA4F8A9F074E928A7
:1053B800FE740239FF7C0679FFEEFAEFFB124AB958
:1053C8007009EEFAEFFB7900120DBD0508E508C378
:1053D800940A40D0024E26C082C083906190740423
:1053E800F0A37448F0A3E4F09061807440F09061F9
:1053F800BC7407F09061877469F09061B67416F018
:105408007900121039790212103F90261CE493F4A7
:105418006006E493F9121015790512133302582126
:10542800C082C083E9540FF9906185E0696012E594
:10543800C654804449F5C6E59E547F644970F8E92E
:10544800F053C680E59E547F70FA02582174F71213
:105458001972E5A8FE53A87E121021C2BA539AFE0B
:10546800C289759B00C2C212102775A91175B905AA
:1054780012102DD2BA439A0174805E42A8025DAE22
:10548800C082C083906181E4F0A302581E75E900D0
:1054980075910075BF00020135C082C0839061819B
:1054A800E4F0A374C0F0A3E4025820C082C083745F
:1054B800F812191B9005E7125C90E8497003025531
:1054C8006A9005E7E05440602379088518828519B9
:1054D80083AA82AB8312112F851882851983AA8229
:1054E800AB83120DDB9005E7E054BFF0E054806019
:1054F80010790C7AA37B0712112F9005E7E0547FEF
:10550800F0E0A2E05008790012557254FEF0E05421
:10551800026008790112557254FDF0E054046008E5
:10552800790012557D54FBF0E054086008790112A7
:10553800557D54F7F0E054106008790212557D54F7
:10554800EFF0E054206008790312557D54DFF0A392
:10555800E05401600D12104B120DED9005E8E05477
:10556800FEF07408121931025821121039120DE197
:105578009005E7E02212103F120DE79005E7E022C0
:10558800C082C083E9600514602A804F90619A74D4
:1055980033F0A37455F09061A0743AF090077FE05F
:1055A80064017009C2919005E97467802D9005E93E
:1055B8007461802690619A743FF0A3745AF09061E8
:1055C800A0747FF090077FE064017009D291900584
:1055D800E9747180059005E9746AF0025821C08267
:1055E800C083E9600B14600D14600F1460118020F3
:1055F80090262080159026218010902622800B90DE
:10560800077FE0640160F3902623E493906186F0BD
:1056180002582174EE12197274F412191B8518823B
:10562800851983AC82AD8375838F75826A74041281
:10563800182E90262093F460030257AD907808E066
:10564800C39402500302578D7404121966AC82ADDC
:105658008375838F758226740812182EF97AFF7B5A
:10566800FF7FFF7E008982858210801874086E7023
:105678000302574274096E7003025742740A6E702F
:1056880003025742E510C333FCE433FD74041219D6
:1056980066E5822CF582E5833DF583E0F50EA3E00F
:1056A800F50F8E08750900740278081219087448F5
:1056B8002508FC74783509FD8C828D8378081217CB
:1056C800EB7408780812172C85080C85090D8C8254
:1056D8008D8378081217EB7418780812172CE50CCC
:1056E8004508F508E50DF509C3E50E9508E50F959C
:1056F800098C828D8378081217EB8C828D83780849
:105708001217EB74187808401412172CE50C45088A
:10571800FCAD0DE50EC39CFCE50F9D800F12172C08
:10572800E50C4508C3950EFCE50D950FFDC3EC9AF5
:10573800ED9B5006ECFAEDFBEEFF0EEEC394135012
:105748000302567474FF6A700374FF6B602D8F0830
:1057580074027808121908744812643C7478350980
:10576800F58378081217EB851882851983E5822559
:1057780010F582E5831261C9E508F009E9C39404CC
:1057880050030256657508017509007808121B85D3
:105798007402121966AC82AD837A887B091207AB52
:1057A8007402121931740C1219317F0A021A44C09A
:1057B80082C083906186E0F8902623E4936870099C
:1057C800902622E493906186F09061AE7468F0A30D
:1057D800746AF090624574FBF0A304F053F4FD433F
:1057E800FE0290077F7401F09061A0E0643A7004B3
:1057F800790080027901121039025821C082C083D1
:10580800900731E06401700A900736E06004790C73
:10581800800279008003F0A3F0D083D082020135A2
:10582800C082C08375E1F1900734E0604D146008D0
:10583800146051146049805112105D90072AE0F9F4
:105848007A2B7B071212B5908F621218091212EB8D
:10585800908FAA1218091212C1900735E0F9121296
:10586800CD7901121327900728E024161259B6742F
:1058780075F0A37410F07900809F12106380BC1239
:10588800106980B712106F80B2791280EB74F4122D
:10589800197275D90D900719E0A2E0E4331313F8D3
:1058A800125922484401F5D978001259A040FB78D2
:1058B800008808741A12643C74071259AA40F275D9
:1058C800E195900719E0F97A1A7B071212BB900D3F
:1058D8002174EBF0A3740F1259C51259E51259DC63
:1058E800125B1D12592C78081217EB908F5E7808FE
:1058F800121777908FA278081217C51259B0780836
:105908001217FA900728E024141259B67413F0906D
:1059180005E57402F07F04021A4490072AE0C433B4
:105928003354C022900728E0F8A3E0F5838882A3C7
:10593800A32274F6121972125AEE8AD978001259F3
:10594800A040FB78008006125A54125BA0E8C39965
:1059580040F5125AE01259A040FB78008008126402
:10596800387407125BA0E8C39940F375E195900D70
:105978002174F7F0A3740F1259C51259CF121809E0
:105988001259B0121815900728E024141259B67449
:1059980012F09005E5025D8B8808742B2508F582C6
:1059A8007407125CFC940622900728E0240EF8A3E2
:1059B800E01259BD223400F98882898322125B06DD
:1059C80074F1F0A3740F221259E51259DC125B210D
:1059D800908F9622F0A37409F0A37410221259E94B
:1059E800221259ED22F0A3749BF0A374112274F6CD
:1059F800121972125A491259224402F5D978001222
:105A080059A040FB78008006125A54125BA0E8C3E4
:105A18009940F575E195900D21125A5FF0A3125A3D
:105A28005F1259D21218091259B012181590072886
:105A3800E024141259B67414F09005E57404025D5C
:105A48008D90073AE0F9740729F5D9228808743B44
:105A58002508F5827407227403125A6C125A6CF0E6
:105A6800A3741022F0A37410F0A374032274F61226
:105A78001972125AEE74064AF5D978001259A040E4
:105A8800FB78008006125A54125BA0E8C39940F5CF
:105A9800125AE01259A040FB78008008126438744A
:105AA80007125BA0E8C39940F375E195900D217446
:105AB800FDF0A3740F125AFC1259CF12180912598B
:105AC800B0121815900728E024141259B67415F06E
:105AD8009005E57403025D8D90075A125A4C7404C0
:105AE8004AF5D9780022125A4990072AE0C433337C
:105AF80054C0FA22125B06749BF0A3741122125B45
:105B08000A22125B17749BF0A37411125B172212FE
:105B180059EDF0A322125B2122F0900D2F749BF017
:105B2800A37411125B0A749BF0A374111259E9F063
:105B380022C082C08312592CA3A3A3A3E402581E37
