:020000040000FA
:0600000002011D021E2397
:03002B000225515A
:03005300021E96F4
:03006B0002251F4C
:10008300021CD7E5C754F84401F5C77901220000E3
:100093000080FB120086B90003020107E47921788E
:1000A30008B800028004F709D8FCE479297802B87B
:1000B30000028004F709D8FCE490028178D2790722
:1000C3008002F0A3D8FCD9FA781A90014D7A01BACC
:1000D30000028007E493A3F608DAF9900952AA8292
:1000E300AB8390014E783879048015E493A3AC82F6
:1000F300AD838A828B83F0A3AA82AB838C828D83A8
:10010300D8E9D9E775823475839F740312012F757B
:100113008291758300740012012F75D00075813FA1
:10012300751881751902759F00020096C09FF59F8F
:10013300E473D09F22D083D082C09FE493C0E07445
:100143000193C0E0740293F59F2201FF0000B40005
:100153000028002800283075A000A000A000A000FF
:1001630000080008E001F00010001000100010006B
:100173001000100050005000500010001000D00775
:100183000000000000000F000100050030750700AB
:100193001000010081FF0000FF8306A1068906FF0E
:1001A30002020208025000A0000000E803022282BB
:1001B3000100000B82021E82010000A709021282C5
:1001C300010000B202021E82010000A8090214828B
:1001D300010000C802021E82010000A90902168262
:1001E300010000CA02021E82010000AA090218824D
:1001F300080000CB02021E82010000AB09021A8232
:10020300010000AC09FF0100FF200222820100006F
:100213000882021E82010000100A021C82000000F4
:1002230000000210820300001803650C650C650CC6
:10023300650C650C650C650C650C650C650C650C33
:10024300650C650CF30E0B0FED0EFFFF02020202AD
:100253000202020202010D000000100102228201CB
:1002630000000582021E82010000530A023282014D
:1002730000007807021E82010000540A0230820146
:1002830000001581021E82010000550A022E820120
:100293000000F980021E82010000560A022C82012E
:1002A3000000A580021E82010000570A022A820173
:1002B3000000B780021E82010000580A0228820152
:1002C30000009380021E82010000590A0226820167
:1002D30000008180021E820100005A0A024A820144
:1002E30000000781021E820100005B0A02428201B4
:1002F30000005C0A01E803053F10FF0001307503AD
:1003030002010600000000000000000000000000E1
:10031300000000000000000000000000000000FFDB
:10032300FF0600800CE803140953696D706C654285
:100333004C455065726970686572616C05125000B6
:100343002003020A000201050302F0FF53696D70E6
:100353006C6520424C452050657269706865726116
:100363006C251300002B130A436861726163746583
:100373007269737469632031000243686172616357
:10038300746572697374696320320008436861722B
:100393006163746572697374696320330010436821
:1003A30061726163746572697374696320340002F6
:1003B300436861726163746572697374696320353C
:1003C300000222820100000282021E820100006EEE
:1003D3000B0238820300003C09020E820100006F09
:1003E3000B021E82010000800B023A820100003DD5
:1003F30009020E82010000810B021E82010000929D
:100403000B023C820200003E09020E8201000093AF
:100413000B021E82010000A40B023E820000003F7B
:10042300090210820300004009020E82010000A5A8
:100433000B021E82010000B60B024082040000463C
:1004430009020E82010000B70B104B657920507230
:100453006573732053746174650002228201000086
:10046300FF81021E82010000500C0248820000003E
:100473004B090210820300004C09020E82010000A6
:10048300510C1201381B94031201383294031201E8
:10049300386194031201389A9403120138C2940309
:1004A300120138F094031201380795031201381E24
:1004B30095031201383495031201385B9503120139
:1004C300386E95031201388495031201389795030A
:1004D300120138BC950312013811A402120138101D
:1004E300A50212013845A50212013866A5021201C0
:1004F3003876A50212013897A502120138A3A60285
:1005030012013870A702120138E3A70212013869F9
:10051300A802120138ACA802120138E3A8021201A2
:100523003869A9021201383BAA0212013899AA02BA
:10053300120138B1AA021201382BAB021201382E74
:10054300AB0212013831AB02120138D8AB021201EF
:1005530038F0AB0212013820AC0212013840AC0271
:100563001201382EAD02120138E4AD021201382116
:10057300E10212013849E10212013877E102120166
:1005830038AEE10212013816E2021201385FE202CC
:10059300120138AAE202120138E8E20212013825F8
:1005A300E30212013853E302120138FAE3021201A3
:1005B3003804E40212013811E40212013844E4025F
:1005C30012013806E50212013812E5021201382A37
:1005D300E50212013834E502120138629C0312016C
:1005E30038709C03120138889C03120138A09C03C5
:1005F300120138DEA9011201387CAA01120138F474
:10060300AA0112013809AC0112013843AC011201ED
:1006130038ECAC01120138C1AD0112013825AF012C
:100623001201387CAF0112013803B001120138EA1C
:10063300B00112013837B101120138C5B1011201FD
:1006430038E9B101120138BEB301120138FFB30119
:1006530012013821B401120138A2B4011201388CFD
:10066300B50112013852B60112013810C602120147
:1006730038E2C6021201388BC702120138CEC70214
:100683001201385BC802120138E7C802120138C8E8
:10069300C902120138F7C902120138F3CA02120162
:1006A300383BCB021201383DCC0212013881CC0217
:1006B300120138A7CC02120138CF9D031201381062
:1006C300FB0212013826FB021201384CFB02120115
:1006D3003874FC021201387EFC02120138D7FD0285
:1006E300120138D7FE02120138A3D202120138D800
:1006F300D3021201380BD40212013855D40212016D
:100703003813D602120138AF6D00120138126E0091
:10071300120138576F00120138676F001201388ACF
:100723006F00120138D56F001201387A7000120180
:10073300387071001201383A7200120138B2730036
:10074300120138F47300120138927400120138DF79
:100753007400120138057500120138F37600120196
:1007630038F87600120138D978001201382D790053
:100773001201388F7900120138B779001201385B02
:100783007A001201381D7B001201384E7B001201E2
:1007930038517B00120138997B00120138DB7B0052
:1007A300120138427C0012013883FD011201389690
:1007B300FD01120138AFFD01120138FAFD011201EA
:1007C30038D5FE0112013864FF01120138AFFF0171
:1007D300120138782500120138842500120138BD32
:1007E3002500120138022600120138B92600120131
:1007F300383F2700120138A42700120138D0270000
:100803001201380928001201381D2A00120138F993
:100813002B00120138E42D001201381B2F001201A6
:10082300387B3100120138673200120138AD3300D2
:10083300120138BA3400120138D734001201380FCC
:1008430035001201382935001201389135001201A3
:10085300382B3A00120138CC3A001201381D3B0004
:10086300120138443B00120138923B00120138B0A8
:100873003B00120138043C00120138DD3C00120138
:1008830038643E00120138EC3E0012013877DC0276
:1008930012013881DC021201384CDD021201386783
:1008A300DD021201388DDD02120138D1DD021201A1
:1008B3003809DE0212013832DE02120138ABDE02E1
:1008C300120138C0DE02120138D5DE021201380CE3
:1008D300DF0212013820DF0212013851DF02120158
:1008E300388BDF02120138B7DF021201380DE00244
:1008F30012013861E002120138AAE002120138D471
:10090300E002120138F9E00212013824F702120161
:1009130038EEF702120138D1F80212013847F90212
:1009230012013889F902120138B6FA0212013800AD
:10093300800212013829800212013842800212011A
:1009430038878102120138658202120138848202DB
:10095300120138118302120138548302120138A1A3
:100963008402120138408502120138BF8702120146
:10097300385688021201382A89021201380C8A0279
:10098300120138788B021201380B8C02120138E104
:10099300FE021201384AFF021201389EFF021201C1
:1009A30038C5FF021201386AEA02120138D7EA0297
:1009B30012013822EB0212013817EC02120138132C
:1009C300ED02120138FDED021201384FAE021201A1
:1009D3003891AE021201386BAF0212013844B002F3
:1009E3001201383FB1021201381EB2021201388AD5
:1009F300B20212013851B302120138BCB302120120
:100A03003823B4021201384EB402120138BFB402C3
:100A130012013852B502120138BBB502120138D0A7
:100A2300B50212013818B60212013831B6021201AA
:100A33003896B60212013899B60212013827870395
:100A43001201384F87031201388D87031201384B87
:100A53008803120138B68803120138D288031201C1
:100A630038FA88031201382A8903120138398903B5
:100A7300120138B38903120138D9890312013805E9
:100A8300C701120138E2C801120138DDCA0112019F
:100A930038B0CB01120138FBCB0112013846CC012F
:100AA30012013858CC0112013898CC01120138CD0B
:100AB300CC0112013819CD0112013848CD011201C0
:100AC300386BCD01120138B8CD0112013841CE0186
:100AD3001201384ED00112013839D2011201387C8B
:100AE300D201120138E1D30112013822D4011201DB
:100AF3003895D401120138E1D4011201380CD50123
:100B0300120138828C02120138AD8C021201389422
:100B13009302120138B89502120138739702120139
:100B230038D09802120138533F00120138EA3F00CF
:100B33001201381740001201385D40001201389C41
:100B43004100120138334300120138AD4300120152
:100B530038C843001201383D44001201386C450087
:100B6300120138C74600120138C94700120138265E
:100B730049001201383F49001201389C4900120113
:100B8300387E4A00120138B14A00120138214B0065
:100B93001201389B4B00120138EA4B00120138B6A0
:100BA3004C00120138BB4D001201389A4E0012015D
:100BB30038254F00120138934F00120138075000B7
:100BC300120138305000120138EF50001201386919
:100BD3005200120138865200120138A55200120148
:100BE300383653001201385B530012013883530027
:100BF300120138FE5300120138585400120138AC68
:100C030055001201386956001201383C5700120191
:100C13003836D50112013886D50112013892D50133
:100C23001201386FD6011201389FD601120138D74D
:100C3300D60112013856D7011201388ED70112019D
:100C430038E0D7011201381DD80112013842DA0108
:100C53001201386EDC0112013869DE0112013844D9
:100C6300E0011201386D25001201382D96011201A1
:100C730038779601120138569C01120138D79D012D
:100C830012013836A40112013831A5011201386E60
:100C9300A50112013891A501120138D3A501120152
:100CA30038DCA501120138E6A501120138D2A601EC
:100CB300120138C6A7011201386A5700120138E23F
:100CC3006100120138E86100120138F46800120172
:100CD30038008003120138968003120138AC800378
:100CE3001201382681031201387C8103120138BABC
:100CF300810312013817820312013894820312010F
:100D0300389D8203120138A98203120138BC820381
:100D1300120138F882031201380E83031201386D71
:100D23008303120138BFEE02120138CCEE02120126
:100D330038E6EE0212013825EF0212013863EF02A2
:100D4300120138C8EF02120138DDEF02120138E850
:100D5300EF02120138F5EF021201380CF002120112
:100D6300381AF00212013825F00212013831F0026C
:100D730012013840F0021201384BF0021201386EB2
:100D8300F00212013817F10212013827F1021201A1
:100D93003841F1021201385EF1021201387AF10290
:100DA3001201389FF102120138A9F102120138BD74
:100DB300F102120138DCF1021201383DF202120194
:100DC3003843F20212013849F2021201384FF2029B
:100DD3001201385BF2021201388EF2021201380A54
:100DE300E3011201388CE30112013835E4011201E9
:100DF300387DE5011201388BE70112013871E801F2
:100E0300120138A6E801120138C8E801120138714D
:100E1300E90112013841EB011201386AEB011201B9
:100E230038E2EB0112013814EC0112013821EC0114
:100E33001201386CEC0112013890EC01120138E117
:100E4300EE01120138EBEF0112013847F0011201F4
:100E53003887B80112013898B9011201387CBA01F8
:100E630012013886BA01120138A8BA01120138B446
:100E7300BA0112013858BC0112013885BC011201B4
:100E8300389BBD01120138F0BD011201383FBF018B
:100E930012013814C00112013870C001120138DB8D
:100EA300C00112013810C10112013853C1011201EE
:100EB300381DC40112013835C401120138C6C401FA
:100EC300120138D4C40112013821C5011201382F8F
:100ED300C5011201389BC50112013816C601120162
:100EE300386DC601120138F39802120138159902C0
:100EF300120138269B02120138E59D021201380FB8
:100F03009F02120138CD9F02120138B9A0021201CB
:100F130038629203120138879203120138FD92035B
:100F2300120138F3BE02120138FCBE021201380569
:100F3300BF02120138DDBF021201388EC102120155
:100F430038BEC102120138E9C10212013819C202C6
:100F530012013844C20212013878C202120138A4C5
:100F6300C202120138E7C20212013812C30212018F
:100F73003859C302120138AEC302120138F0C3025A
:100F83001201384AC40212013875C402120138C46E
:100F9300C402120138F4C4021201381FC50212013F
:100FA300384DC50212013870C502120138589E032C
:100FB300120138849E03120138B19E03120138BB1B
:100FC3009E03120138CB9E031201381CCD0212017D
:100FD3003826CD0212013867CD02120138B0CD0296
:100FE300120138EACD0212013840CE0212013861F3
:100FF300CE021201386ACE02120138BECE021201AD
:1010030038E7CE02120138F1CE021201385FCF0267
:10101300120138EFCF021201384AD0021201387898
:10102300D00212013800D1021201383FD10212015D
:101033003874D10212013886D102120138A5D102C7
:10104300120138AED10212013875D202120138975B
:101053009903120138A28E03120138D88E031201AC
:10106300380C8F03120138599003120138399D034C
:101073001201384F9D03120138599D03120138A301
:101083009D03120138D59E03120138C9E5021201EE
:1010930038DCE5021201389DE602120138DCE60273
:1010A300120138F9E60212013832E7021201387FE1
:1010B300E702120138B1E702120138E8E702120130
:1010C30038F1E9021201385DEA021201388E9A03FF
:1010D300120138B19A03120138E09A03120138F869
:1010E3009A031201383A9B031201380C7D00120156
:1010F30038317D001201385B7D001201388C9F036B
:101103001201384D82011201382B8401120138CAB1
:101113008501120138758601120138F58601120125
:10112300387A8701120138A387011201387E8B01B7
:10113300120138F58B011201380C8D01120138466A
:101143008D01120138878D01120138CE8E011201F3
:1011530038248F011201386D8F01120138DC8F01A1
:101163001201384890011201387990011201389127
:101173009001120138AA9101120138BA91011201AA
:1011830038709301120138879301120138B9930122
:101193001201385B9501120138EF9501120138589D
:1011A300A003120138E29F0312013821A0031201A8
:1011B3003869A003120138839B03120138939B0300
:1011C300120138A89B031201385C9C031201389565
:1011D30098031201381A99031201387E99031201F8
:1011E30038669703120138889703120138E9970389
:1011F300120138FB97031201384B98031201388907
:1012030098031201388C98031201380BF302120170
:10121300381FF30212013899F3021201387DF402E8
:1012230012013854F602120138B9F60212013810CD
:10123300F702120138F87F00120138688C0312019B
:1012430038F88D03120138598E031201389F8E032B
:10125300120138CE950312013820960312013893F8
:101263009603120138009703120138218A031201F1
:10127300384B8A031201381A8B03120138F68B0399
:10128300120138BDB60212013889B702120138CAF9
:10129300B70212013804B80212013862B80212010F
:1012A30038B6B80212013814B902120138AAB902C9
:1012B300120138B2BA021201383CBC02120138DA08
:1012C300BC0212013841BD0212013854BD021201A1
:1012D3003848BE0212013891BE0212013894F0015F
:1012E300120138C6F30112013857F501120138AE65
:1012F300F501120138CBF5011201384BF601120149
:1013030038C7F70112013896F80112013803FC01BE
:10131300120138EDFC01120138C9D7021201386FEE
:10132300DA0212013898DB0212013842DC021201A0
:10133300389D8303120138E28303120138FF8303CC
:10134300120138B58403120138088503120138D815
:101353008503120138EE86031201389390031201BC
:1013630038D890031201382C9103120138B191033C
:101373001201382992031201382BA003120138D924
:10138300FF01E066701008A3E066700A08A3E06638
:10139300700408A3E06622C3E7960809E7960809E4
:1013A300E7960809E79622C3E09608A3E09608A308
:1013B300E09608A3E09622C008C3E096F50808A3C8
:1013C300E096420808A3E096420808A3E096450881
:1013D3007001D3D00822080808EAC0E0EBC0E08619
:1013E300F0E7A4FA180986F0E7A42AFA180986F0A8
:1013F300E7A42AFA180986F0E7A42AFA1986F0E77F
:10140300A4FBE5F02AFA190886F0E7A42BFBE5F024
:101413003AFA190886F0E7A42BFBE5F03AFA181814
:101423000986F0E7A4C5F02BFBE43AFA1908E7C5EF
:10143300F0C6A426F6E5F03BFBE43AFA1886F0E79B
:10144300A4F6E5F00826F6E43B08F6E43A08F6D0FD
:10145300E0FBD0E0FA22E4CFC0E0E4CEC0E0E4CD8C
:10146300C0E0E4CCC0E075F020C3E633F608E63311
:10147300F608E633F608E633F6181818EC33FCEDF5
:1014830033FDEE33FEEF33FFC3EC9709ED9709EE1F
:101493009709EF97191919400FFFEC97FC09ED977E
:1014A300FD09EE97FE191906D5F0BEECF709EDF725
:1014B30009EEF709EFF7191919D0E0FCD0E0FDD0D8
:1014C300E0FED0E0FF226016080808C6C313C61862
:1014D300C613C618C613C618C613C6D5E0EA2270CB
:1014E30009080808226016181818C6C333C608C6A8
:1014F30033C608C633C608C633C6D5E0EA22E62794
:10150300F60809E637F60809E637F60809E637F676
:1015130022E026F608A3E036F608A3E036F608A391
:10152300E036F622E026F008A3E036F008A3E03622
:10153300F008A3E036F022C3E697F60809E697F62B
:101543000809E697F60809E697F622C3E096F0083D
:10155300A3E096F008A3E096F008A3E096F022E05B
:1015630056F608A3E056F608A3E056F608A3E0569D
:10157300F622E056F008A3E056F008A3E056F00880
:10158300A3E056F022E0F608A3E0F608A3E0F6088D
:10159300A3E0F622E6F008A3E6F008A3E6F008A32A
:1015A300E6F022E0FAA3E0FBA3E0FCA3E0FD22EADD
:1015B300F0A3EBF0A3ECF0A3EDF022CAC0E0E6F059
:1015C300A308DAFAD0E0FA22CAC0E0E0A3C582CCCD
:1015D300C582C583CDC583F0A3C582CCC582C5832F
:1015E300CDC583DAE6D0E0CA22C3E498F8E499F9DA
:1015F30012162D8026C3E49AFAE49BFBE920E7E95F
:1016030012162DE498F8E499F922C3E498F8E499C2
:10161300F912162DE498F8E499F9C3E49AFAE49BD5
:10162300FB22EB20E7CFE920E7E0B90010BB00087D
:10163300E88AF084F8AAF022E4FBC8FA22EB7022CD
:101643007B10C833C8C933C9335007C39AC3DBF20D
:1016530080069A50012ADBEAC833F4C8C933F4C9B7
:10166300FA2275F008E4C833C8C933C933C99AC923
:101673009B5004C92AC93BD5F0ECFBC833F4C8E43A
:10168300C9FA22600D08C6A2E713C618C613C6D549
:10169300E0F322600C08C6C313C618C613C6D5E010
:1016A300F422700422600D18C6C333C608C633C6BD
:1016B300D5E0F41822251810AF08F51840021519C3
:1016C3008008F51840021519D2AF22C0D025181092
:1016D300AF08F518500205198008F51850020519CE
:1016E300D2AFD0D0222518F58210AF08F5184002EA
:1016F30015198008F51840021519D2AF85198322F0
:101703002518F582E43519F58322E4732518C5827B
:10171300C0E0E51934FFC583C0E0E518C395822412
:10172300F810AF0885831985821880088583198589
:101733008218D2AFCEF0A3E520F0A37808E608F034
:10174300A3DEFAEFF0A3E58124FAF8E608F0A3E6B6
:1017530008F0A3E608F0A30808E608F0A3E608F0FB
:10176300A315811581D0E0FED0E0F8158115811510
:1017730081E8C0E0EEC0E0222518C582C0E0E5198B
:1017830034FFC583C0E0E518C3958224F910AF0880
:101793008583198582188008858319858218D2AFBD
:1017A300CEF0A3E520F0A37808E608F0A3DEFAEF75
:1017B300F0A3E58124FBF8E608F0A3E608F0A3080C
:1017C30008E608F0A3E608F0A315811581D0E0FE32
:1017D300D0E0F815811581E8C0E0EEC0E02285195C
:1017E30083851882E0A3FEE0A3F5207808E0A3F642
:1017F30008DFFAE0A3FFE0A3C0E0E0A3C0E0E0A3BA
:10180300C0E0E0A3C0E0E0A3C0E010AF0885821809
:101813008583198008858218858319D2AFD083D038
:1018230082020135851983851882E0A3FEE0A3F5C2
:10183300207808E0A3F608DFFAE0A3FFE0A3C0E006
:10184300E0A3C0E0E0A3C0E0E0A3C0E010AF0885E0
:1018530082188583198008858218858319D2AFD0B1
:1018630083D08222C0D02518C582C0E0E51934FF99
:10187300C583C0E0E518C3958224F310AF088583C0
:10188300198582188008858319858218D2AFC8F01C
:10189300A3E9F0A3EAF0A3EBF0A37908E709F0A327
:1018A300D8FAECF0A3EDF0A3EEF0A3EFF0A3D0E0B1
:1018B300F0A3D0E0F0A3D0E0F0A3E520F0A3E5F09F
:1018C300F0A322851983851882E0C0E0A3E0F9A381
:1018D300E0FAA3E0FBA37808E0F608A3DFFAE0FC54
:1018E300A3E0FDA3E0FEA3E0FFA3E0C0E0A3E0C00C
:1018F300E0A3E0F5D0A3E0F520A3E0A3F5F010AF5B
:10190300088583198582188008858319858218D2F2
:10191300AFD082D083D0E0F8D0E032740480067474
:101923000280027401C0E0F4041216E8D0E012153C
:10193300BE227404800474028000CCC0E0EDC0E0D9
:10194300E518C39CCCAD1950011D10AF068C188D42
:101953001980068C188D19D2AF1215CBD0E0FDD0AB
:10196300E0FC22D083D082E9C0E0E493A3C386F0F5
:10197300C5F095F0F908E493A386F0C5F095F070EF
:101983000BE493A3C3994005E9048002A3E475F033
:1019930002A42582F582E5F03583F583D0E0F9E4EE
:1019A30093A3C0E0E493C0E022D083D082ECC0E0F4
:1019B300EDC0E0E493A3FCE493A3FDED4C600D12B2
:1019C30019F8EC24FFFCED34FFFD80EFE493A3FC56
:1019D300E493A3FDED4C600D121A37EC24FFFCEDEC
:1019E30034FFFD80EFD0E0FDD0E0FCE493A3C0E042
:1019F300E493C0E022C0E0C3E49396087401939695
:101A030018400FE493667008087401936618700019
:101A13007019A3A3C3E49396087401939618A3A320
:101A2300400DD0E0D0E0D0E00219E8A3A3A3A3A324
:101A3300A3D0E022C0E0C0F088F0E4936670080809
:101A430074019366187000A8F0A3A3700BD0F0D0B4
:0F1A5300E0D0E0D0E00219E8A3A3D0F0D0E02269
:101A640074F512177BEAFEEBFFEE2434F8EF340032
:101A7400F988088909EE2435F582EF3400F583E00E
:101A8400F8EE2437F582EF3400F583E0F50AEC85AF
:101A94000AF0A4FCAAF0850AF0EDA42AFDE82CF8CB
:101AA400E43DF97A257B0012162DEA850882850922
:101AB40083F05407F87401B800028004C333D8FCDF
:101AC400C0E0E0131313541FF8EE28F8EF3400F9C4
:101AD400E8245DF582E93400F583D0E0F8E058604D
:101AE40008EE2434F582EF801EEE2436F582EF34BE
:101AF40000F583E0F5F0EA84A8F0EE28F8EF34006E
:101B0400F9E82438F582E93400F583E0F97F04022A
:101B1400182774F512177BEAFEEBFFEE2434F582E6
:101B2400EF3400F583E0C0E0EE2435F582EF3400B5
:101B3400F583D0E0F08E828F83A3A3A3A3A3A3A3F2
:101B4400C082C0838E828F83A3A3A3A3A3E0F8A340
:101B5400E0F9D083D082E0C398F508A3E099F509B1
:101B6400EE2480F582EF3400F583E064017069EEC1
:101B74002481F582EF3400F583E0F8A3E0F98E8246
:101B84008F83A3A3A3A3A3A3A3E0FCA3E0FD8E825E
:101B94008F83A3A3A3A3A3E0FAA3E0FBC3EA9CEB74
:101BA4009D5027C3EC98ED99402EC3EA98EB9950C9
:101BB400277CFD7D04EEFAEFFB120BC3EE2480F5C7
:101BC40082EF3400F583E4F0800EC3EA98EB994089
:101BD400E0C3EC98ED9950D9EE2434F8EF3400F9D1
:101BE400E8FCE9FDEE2435F582EF3400F583E0F8F6
:101BF400EE2437F582EF3400F583E0F50AE5088535
:101C04000AF0A4F508AAF0850AF0E509A42AF50962
:101C1400E82508F8E43509F97A257B0012162DEA3F
:101C24008C828D83F05407F87401B800028004C3D9
:101C340033D8FCC0E0E0131313541FF8EE28F8EF78
:101C44003400F9E8245DF582E93400F583D0E0F846
:101C5400E0586008EE2434F582EF801EEE2436F559
:101C640082EF3400F583E0F5F0EA84A8F0EE28F87A
:101C7400EF3400F9E82438F582E93400F583E0F91B
:101C8400122511021B11C082C08385188285198315
:101C9400E0F8A3E0F9C3EA9CEB9D5012C3EC98ED85
:101CA400994019C3EA98EB99501279018010C3EA5C
:101CB40098EB9940F5C3EC98ED9950EE7900D083F8
:101CC400D08222EAC39CFAEB9DFB22008521878502
:101CD40022C622C0E0C0D0E8C0E0E9C0E0EAC0E02B
:101CE400EBC0E0ECC0E0EDC0E0C008C009C00AC031
:101CF4000BC082C083C0F0759B00906182E0A2E6B5
:101D04004003021DB5E591A2E64003021DB575919D
:101D1400BF9003C2E064057008120CFB120D07802B
:101D240003120D01752100120D61E99003C3F079CE
:101D340000120D55120B397A017B009003C1E0F9B2
:101D4400121025907803E064426003021DFE9005A2
:101D54005FE014F06003021DFEC2AF121D62007842
:101D64002AD0E0F618D0E0F6E59F5407F970059004
:101D7400817F80039081AB7808121588E9C4C0E0A4
:101D84007829E65508F50808E65509F509740B782D
:101D940008121696D0E02508F8906270E0A2E74099
:101DA400F8E8C333906272F0906270E0D2E0F080A1
:101DB40049E0A2E55024E591A2E5501E7591DF901B
:101DC40003C2E0640D70139003E4E004F06428702F
:101DD40002E4F07A00E0F9120DD3906181E0A2E30D
:101DE4005009E5E9A2E3500375E9F7A3E0A2E7503F
:101DF40009E591A2E7500375917FD0F0D083D0829A
:101E0400D00BD00AD009D008D0E0FDD0E0FCD0E05F
:101E1400FBD0E0FAD0E0F9D0E0F8D0D0D0E032C086
:101E2400E0C0D0C082C083906183E0A2E05009E5A5
:101E3400BFA2E0500375BFFEE0A2E15009E5BFA2D6
:101E4400E1500375BFFDE0A2E25009E5BFA2E250F4
:101E54000375BFFBE0A2E35009E5BFA2E35003759D
:101E6400BFF7E0A2E45009E5BFA2E4500375BFEF59
:101E7400E0A2E55009E5BFA2E5500375BFDFE0A28B
:101E8400E65009E5BFA2E6500375BFBFD083D082F8
:101E94008088C0E0C0D0E8C0E0E9C0E0EAC0E0EB80
:101EA400C0E0ECC0E0EDC0E0C0F0E5A7A2E6500F52
:101EB400E5A1A2E6500953A7BF75A1BF121EFBE519
:101EC400A7A2E5500CE5A1A2E5500653A7DF75A132
:101ED400DFE5A7A2E15009E5A1A2E1500375A1FD48
:101EE400E5A7A2E2500CE5A1A2E2500653A7FB75B8
:101EF400A1FBD0F0021E0C74F812177B752101901F
:101F040003C2E064067015120C8F8A828B83A3A32C
:101F1400A3A3A3A3E0FAA3E0FB120CE9A2AFE4336A
:101F2400FED2AF9003C8E0640170187A207B009061
:101F340003C1E0F91210AF7A207B009003C1E0F9ED
:101F440012102B906182E0D2E6F090055EE06021F1
:101F540085C62280169003C7E064017008E5C65464
:101F6400F84405F5C653BEFC121CD074016521600B
:101F7400E4EEA2E092AF7F01021827008E238F24A3
:101F8400858228858327851882851983E0CEA3E07E
:101F9400CF852882852783EBC9EAC8EDCBECCA75C7
:101FA400F010C3E833C8E933C9EA33CAEB33CBC30F
:101FB400EA9EF526EB9FF525B35004AB25AA26EC43
:101FC40033CCED33CDD5F0DAAE23AF242274EB124B
:101FD400177B74FA1216B88A088B098C148D159025
:101FE40003C2E024F7C3940550069081F302213321
:101FF400120C8F8A0A8B0BAE0AAF0BEE4F700302E2
:102004002130AC08AD09851882851983AA82AB8377
:10201400120D198E828F83A3A378081215889081DC
:10202400D37808121562851882851983780C1215E5
:10203400889081D3780C1215627808790C12139A5F
:10204400501F7808790C12153A908173780812138E
:10205400BA4047850810850911850A12850B13803B
:1020640041850C10850D11850E12850F137810799A
:102074000812153A90817378101213BA501C751017
:10208400007511007512007513017810790C121582
:102094003A7810790812150180089081F3781012AB
:1020A4001588740978101214E29081E378081215E7
:1020B40088781079081214598E828F83A3A3A3A35E
:1020C400A3A3E0F8A3E0F97AD07B0312162D8808C5
:1020D4008909E4F50AF50B781079081215017404DE
:1020E400121703E0F8A3E0F97AD07B0312162DE867
:1020F400FA8A08E4F5097810790812139A500778D7
:1021040010790812153A9003C2E06408600AE0648A
:10211400066005E06405701C90817778101213BA8C
:10212400501290817B7810121514800890819F784A
:1021340010121588851482851583781012159774EA
:10214400061216CE7F0E02182774F712177B120D93
:102154002B90055CE064017010906245E4F0A3F0FC
:1021640053F4F343FE0C5390F3120CD7E5C654809A
:102174004449F5C6E59E547F644970F890618574BE
:102184000FF090055AE0F47002A3E0604E90055BF6
:10219400E0600814601B14602E8040750801750906
:1021A4000090055AE078081216A5E508F4528080DC
:1021B4002A75080175090090055AE078081216A5D9
:1021C400E508F45290801475080175090090055AC9
:1021D400E078081216A5E508F452A079007F0202FF
:1021E400182774F712177BE9FEEAFF74016E700C6E
:1021F4007A807B009003C1E0F9121025902570E4E9
:1022040093F46008E493F9120B2D800953C680E51A
:102214009E547F70FA120CDD90055CE0640170033B
:10222400120B4590055AE0F47002A3E0604B900550
:102234005BE0600814601A14602C803D7508017519
:10224400090090055AE078081216A5E50842808036
:102254002875080175090090055AE078081216A53A
:10226400E5084290801375080175090090055AE04D
:1022740078081216A5E50842A0120D2B120C8F8ABD
:10228400088B09A808A909E8496015E5E170FCE88C
:102294002414F582E93400F583E0F46003E0F5E109
:1022A40074016F700A7A019003C1E0F91210790287
:1022B40021E174F112177B8A088B098C0A8D0B7447
:1022C4000F121703780C1215889081D37808121511
:1022D400629081D3780C1215627808790C12139AE3
:1022E40050157808790C12153A90817378081213F6
:1022F400BA401579018013780C790812153A908147
:1023040073780C1213BA40EB79007F080218277413
:10231400ED12177B8A088B098C0A8D0B7413121724
:1023240003780C1215889081D37808121562908175
:10233400D3780C121562780C790812139A4011782C
:1023440008790C12153AAA08AB09AC0AAD0B802225
:102354007510007511007512007513017810790C51
:1023640012153A78107908121501AA10AB11AC12A3
:10237400AD137F0C0218279081D378081215888A30
:10238400828B8378081215757F0402182774F5125E
:10239400177B8C828D8378081215888A828B8378C8
:1023A4000812154EEA2404F8EB3400F98C828D836C
:1023B400A3A3A3A3E0FCA3E0FD88828983C3E09CDC
:1023C400F0A3E09DF088828983C3E09420A3E09485
:1023D4004E40229081FB78081215888A828B83787C
:1023E400081215278A828B83A3A3A3A3E02420F0D9
:1023F400A3E0344EF0808074F512177BE9FE90055B
:1024040014E0FAA3E0FBEEC333F8E433F974E928EB
:10241400F582748039F583E02AF508A3E03BF509D9
:1024240078081219229081F71215A6121F807402DF
:102434001216CE8A088B098C0A8D0B741078081238
:1024440014C9AA08AB097F0402182774F112177B78
:102454008A0C8B0D8C0E8D0F740F121703E0FAA3E8
:10246400E0FB7411121703E0F508A3E0F5097413F7
:10247400121703E0FEA3E0FF7808121922EA2401F0
:10248400F508EB3400F509E4F50AF50B780C790846
:102494001213D99081877808121588780C7908125C
:1024A40013D9AA0CAB0DAC0EAD0F121F807402121F
:1024B40016CE8B09EA450960047A0180027A00ECA1
:1024C4002AFCED3400FDECF8EDF97A717B0212166A
:1024D4002D88088909E4F50AF50B8E828F83780824
:1024E400121597ECF8EDF97A717B0212162D8A0811
:1024F4008B09740578081216A58E828F83A3A3A373
:10250400A3E508F0A3E509F07F08021827C082C0FC
:1025140083E9906000F0D083D08222C0E074F2128C
:102524001867A2AFE433FED2AFE589A2E04006E526
:1025340089A2E150031211F9758900758900C2C599
:10254400751A00EEA2E092AF7F010218C6C0E0C087
:10255400D0E8C0E0E5A8D2AFC2C7751A00A2E792DE
:10256400AFD0E0F8D0D0D0E032020135FFFFFFFF5A
:10257400FFFFFFFFC082C083E9900A0FF00227FC2F
:1025840074F712170FE99002E0F07C187D037AFFCC
:102594007BFF1208639002E174FFF0A3F0A3E4F060
:1025A400A3F079051207EB9002E0E0F91207137A21
:1025B400817B08120A4302350A74F412170F8A0841
:1025C4008B09EB548060309002E0E0F912100D8A20
:1025D4000A8B0BAE0AAF0BEE4F60138E828F83E033
:1025E40064B07003120803EEFAEFFB120FFBAA08A3
:1025F400E5096480FB80047A007B000227CB74F237
:1026040012170F74FC1216B8EAFEEBFF74121217BD
:10261400031239F1EE4F70030226A5740212170358
:10262400EEF0A3EF122A06ECF0A3ED122A06AA821A
:10263400AB8312070DE9F50A706AE5084509606481
:102644008E828F831239D7EE4F60567A067B001242
:1026540010618A0C8B0DA80CA90DE8497005750A48
:1026640013804188828983E41226B2EEF0A3EF122C
:102674003A02E508F0A3E509F09002E61227399042
:1026840002E670051234B4801B1234A28003EAFC03
:10269400EBFD8C828D8312273970F38C828D8380BD
:1026A400E3750A02A90A74041216CE023BF1F0A3E0
:1026B4001239A8A32274F212170F890AE975F017C8
:1026C400A4FEAFF09002E5E4F09002E31227396033
:1026D4000A1210679002E3E4F0A3F0EEFAEFFB12A3
:1026E40010618A088B09EA4509602FEEFCEFFD7939
:1026F40000120FE99002E3E508F0A3E509F07B007E
:102704008008122723E4F0A3F00BEBC3950A40F2F0
:10271400E50A9002E5F0790080027913023BF1EBBF
:1027240075F017A4F8A9F09002E3E028FAA3E039C1
:102734008A82F58322123146EA4B2274F412170F6F
:10274400740C1217031239CCFEE9FF7508007509E1
:1027540000800CE5082401F508E5093400F509C3F7
:10276400E5089CE5099D503285080A85090B740328
:10277400780A1216A5EA250AF8EB350BF98882893E
:1027840083A3A3A3A3A3A3123589EE650A7003EF61
:10279400650B70BFE8FAE9FB80047A007B008027B0
:1027A40074F412170F7900EAA2E0501B75084A75F9
:1027B400098178081219227C047D007A117B0A129F
:1027C40007E574021216CE7F040217E1C082C083AB
:1027D4009002E6122803601C88828983A3A3E06A1E
:1027E4007003A3E06B8882898370E8A3A3A3A31278
:1027F400314280047A007B00D083D08202013512FA
:102804003CD7E8492274EE12170F74FC1216B8EA8A
:10281400FEEBFF851882851983E4F0A3F0EE240211
:10282400123494EE24051239AFEE2404F50EEF129F
:102834002DBBE024FE603924FC604624FE60522453
:10284400FE605E24FE700302291C24FE700302292C
:102854008024FE700302298F24FE700302299E2423
:10286400FC70030229AD24FE70030229BC0229F97D
:102874009002FF7417F0A3E4122A0E12048B0229AB
:10288400F9851882851983AC82AD8312080902295F
:10289400C9851882851983AC82AD8312080F022979
:1028A400C9850C08850D097402121703AC82AD8327
:1028B4008508828509831231421207318A0C8B0DF7
:1028C400AC0CAD0DEC4D603BE4F50CF50D780C1241
:1028D4001922750CFF750D02780C121922750C0063
:1028E400750D03780C121922740812170312193982
:1028F400123E531216CEE9F50C700B123138120445
:10290400A3800F750C018508828509831229FC12A6
:1029140034B4850C080229CC7402121703AC82ADBE
:1029240083850C82850D83122F0D603C850C828576
:102934000D83A3A31219397510FF751102781012B3
:1029440019227510007511037810121922740812D7
:102954001703121939123E531216CEE9F509700BFA
:102964001231381204A9800F750901850C82850D76
:10297400831229FC1234B4850908804C8518828599
:102984001983AC82AD83120815803A8518828519A3
:1029940083AC82AD8312081B802B85188285198332
:1029A400AC82AD83120821801C851882851983AC02
:1029B40082AD83120827800D851882851983AC8225
:1029C400AD8312082DE9F508E50860298E828F830E
:1029D400A3E06414601F850E82850F83E09002FFDC
:1029E400122A06123CD39003001234B4E508A31251
:1029F4002A0E1204850233A3123CD7851882851946
:102A04008322F085188285198322F07CFF7D02855C
:102A14000A82850B831231462274EE12170F74FC5E
:102A24001216B88A0A8B0B8C0E8D0FEA2405F50852
:102A3400EB3400F5097C157D0079007AFF7B0212E6
:102A44000FE9E5082402F50CE5091239B28518826C
:102A540085198385821085831178101219228508BF
:102A640082850983A3A3A3A3122F04121922E508C4
:102A74002405F510E5093400F511781012192285A2
:102A84000C82850D8312325912072B74061216CE4E
:102A94008A108B11AE10AF11E50A2402F50AE50B7A
:102AA400123497EE4F7003022BDB80177402121757
:102AB4000312314288828983EAF0A3EBF09002FF8B
:102AC400E004F09002FFE0C394054003022BDBE432
:102AD400F510F51178101219227510E875110278A5
:102AE400101219227510E975110278101219227446
:102AF400061217031219397910EEFCEFFD123E5538
:102B04001216CEE9705E850882850983A3A3A3A368
:102B1400A3A3A3E0F89002E8E0687048122F04121F
:102B240019227CE97D02E5082408FAE5093400FB52
:102B3400120FE374021216CEE960298E828F83A3EA
:102B4400A3A3A31231429002FFE0F510740278109F
:102B54001216A574002510F58274033511F583EA65
:102B6400F0A3EBF0740212170385821085831178A9
:102B7400101219227402121703121939850C828556
:102B84000D831231681216CE8A108B11AE10AF115C
:102B94009002FFE0F510751100740278101216A56A
:102BA40074FF2510F874023511F988828983A31201
:102BB40027397003022AA7E82403080808E9340027
:102BC400F9EE4F6003022AB08882898374FFF0A370
:102BD400F09002FFE004F09002FFE0600A12313846
:102BE4001204977900800B8508828509831234AB1F
:102BF400790A0233A374EA12170F74FE1216B88C02
:102C0400128D13EA2405F50CEB123E3D1239DB75E7
:102C14000800750900EA2402F510EB3400F511856B
:102C2400188285198385820A85830B780A121922F2
:102C3400850C82850D83A3A3A3A3122DD11219227F
:102C4400E50C2405F50AE50D123497780A121922C9
:102C5400850C82850D83122DD512072B740612164E
:102C6400CE8A0A8B0BEA450B7003022D76EA240404
:102C7400F50EEB122DBB1239DB8A828B83A3A3A33F
:102C8400E0F985108285118312314C6003022D76A0
:102C9400E4F514F51578141219227514E875150263
:102CA40078141219227514E9751502781412192270
:102CB40074061217031219397913AC0AAD0B851077
:102CC40082851183123E5B1216CEE9F50960030278
:102CD4002D769002E8E0F8E5087009E024029003FC
:102CE40000F08014900300E0FCE82402FAE43400CD
:102CF400FBEA6C7001EB707E850882AA82122EFBBF
:102D04009414122EF3506B850E82850F83E0C0E07D
:102D140074012A122DB2D0E0F00508850E82850FC9
:102D240083A3E0C0E085080A7401250A122DB2D0FD
:102D3400E0F005089002E8122DD11219227CE97DF9
:102D44000285080A7401250A122DC51216CE9002B6
:102D5400E8E02508F50874FF6E700374FF6F6012D5
:102D6400EE24010EEF3400FFE508C394145003026F
:102D74002C23E508601312315685108285118312C5
:102D8400314212049D79008014E509700375090A23
:102D9400851282851383EEF0A3EFF0A90974021261
:102DA40016CE7F0E0217E185080C7401250CF582FE
:102DB40074033400F583223400F50F850E82F58305
:102DC40022FA74033400FB120FD1740222123A1156
:102DD40022A3A3122DDB221234A2FDEEFAEFFB2272
:102DE40074EE12170F74FE1216B88C0E8D0FEA24AF
:102DF40005F50CEB1239B2750B009002FFE4F0F507
:102E04000AEA2402F508EB3400F50980449002FF35
:102E1400E0FA9002E8E0F8122EFB9417122EF34029
:102E24000D9002FFE0F87416C3989002E8F0122F98
:102E3400041219227CE97D0274002AFA7403122D0B
:102E4400C81216CE9002E8E0F89002FFE028F005E0
:102E54000AE50C2416F582E50D122DB6E0F8E50A14
:102E6400C39850749002FFE0C39416506BE50AC3F4
:102E740033F8E433F9E50C28FEE50D39FF851882B3
:102E8400851983AC82AD838E828F83122F0D7008D7
:102E9400750B011234A78050E4F510F51178101267
:102EA40019227510E875110278101219227510E9AB
:102EB40075110278101219227406121703121939A7
:102EC4007916850882850983123E5B1216CEE9F5D0
:102ED4000B7003022E1180BB7CFF7D028508828566
:102EE40009831231421204AFA90B74020233A5E91B
:102EF4009400C365D03322EA28F8E43400F9E822C8
:102F0400E0F51075110078102212339A8A108B1193
:102F1400AC10AD11EC4D2274EA12170F74FC1216AA
:102F2400B88A0C8B0D8C128D13EA2405F50AEB126A
:102F34003497750800750900E50A2402F510E50BBD
:102F44003400F511740212170385820E85830F78FD
:102F54000E121922850A82850B83A3A3A3A3123917
:102F6400B7121922E50A2405F50EE50B3400F50F16
:102F7400780E12192285108285118312349D123124
:102F84003C12072B74061216CE8A0E8B0FAE0EAFB0
:102F94000FE50C2402F50EE50D3400F50F8038889A
:102FA40082898374FFF00508122DAB74FFF00508C5
:102FB4009002E8E0F50C750D00780C1219227CE9FA
:102FC4007D0285080C7401250C122DC51216CE90B5
:102FD40002E8E02508F508EE4F60278E828F83A370
:102FE400A3A3E0F9850E82850F8312314CEE2404ED
:102FF4001239AFE96027850C82850D8312312E12B8
:1030040034B4E5087003023114123156850E8285FA
:103014000F831231421204B57900023129E4F51408
:10302400F51578141219227514E87515027814121E
:1030340019227514E97515027814121922740812EC
:1030440017031219397911EEFCEFFD850E82850FF5
:1030540083123E5B1216CEE9F509709A850882AA9E
:1030640082EA9002E87009E02404900300F08025CD
:10307400E0F8900300E0F514E82404FCE43400FDD7
:10308400EC65147001ED7081122EFB9412122EF374
:10309400400302300D850C82850D83E0C0E074018D
:1030A4002A122DB2D0E0F00508850C82850D83A389
:1030B400E0C0E0122DABD0E012317185820C858323
:1030C4000D780C1219227404121703121939851081
:1030D400828511831231681216CE8A0C8B0DAE0CC8
:1030E400AF0D85080C7401250CF874033400F9EE57
:1030F4004F7003022FA3851882851983E088828983
:1031040083123171A3E0C0E0122DABD0E0022FB1E5
:10311400E509700375090A850A82850B8312312E2D
:103124001234B4A9097404022DA3123CD785128267
:10313400851383227CFF7D02850A82850B831231ED
:103144004622E0FAA3E0FB22123146120719E9F500
:103154000922900300E0F5F0E508849002FFF07C7A
:10316400FF7D0222122DDB120737740422F00508BA
:103174008518828519832274EC12170F74FE1216B7
:10318400B88A088B098C0E8D0FEA2405FEEB3400F7
:10319400FF123384EE24181239AFEA450B70030290
:1031A400322712336D502912324C8A108B11EA45A2
:1031B40011606B7912AC0AAD0B8508828509831204
:1031C400314285108285118312170DE9F50A705872
:1031D400E4F50AF50B780A1219228E828F83A3A3D1
:1031E400E0F50A780A121922EE2403123494780ABC
:1031F4001219228E828F83123259120851740612C8
:1032040016CEE9F50A7021850C82850D83E0701FC6
:103214008508828509831231421204BB8011750A24
:103224000E8009750A018004E50A60031234A7853B
:103234000C82850D83E0600479008002A90A74027F
:103244001216CE7F0C0217E185188285198312317C
:103254004612083F221234A2FD8508828509831292
:1032640031462274EE12170F74FE1216B88A088BB8
:10327400098C0C8D0DEA2405FEEB3400FF750E005D
:10328400123384EA450B700302334B12336D502C16
:1032940012324C8A0E8B0FEA450F604A7912AC0A3F
:1032A400AD0B850882850983123142850E82850F14
:1032B4008312170DE9F50E600302334E85088285EB
:1032C4000983123589AA0AFB12335F70147AFF7BD3
:1032D400FF12335F606C88828983E50AF0A3E50BF3
:1032E400F0750A008007750E0E805F050A9002E5EE
:1032F400E0FAE50AC39A504AE50A75F017A4FAAB56
:10330400F088828983A3A3E02AFAA3E03BFB8A82A4
:103314008B8312349DEC4D70D2750A17750B0078AF
:103324000A121922EEFCEFFD120FD174021216CE0E
:10333400EEFCEFFD8508828509831231421204C137
:103344008014750E098003750E01123CCF850C8222
:10335400850D831234B4A90E022EEE1208338A109E
:103364008B11A810A911E84922E5082402F508E503
:10337400093400F5098A828B83A3A3A3E0A2E52282
:10338400851882851983AC82AD838E828F83123334
:103394009A8A0A8B0B22E0FAA3E0FB12073122740B
:1033A400041216CE7F0A0217E174EC12170F8C1068
:1033B4008D11EA2405F50CEB1239B2750F00EA24DD
:1033C40002F50AEB123497850A82F5831231421210
:1033D4003EE17003023489750E008071850C82858C
:1033E4000D83E06401704F8E828F83A3A312193979
:1033F4008E828F83A3A3A3A3E0F512751300781222
:10340400121922EE2405F512EF3400F51378121286
:10341400192212313C12085174061216CEE9F50F26
:103424006014850C82850D83E4F0123CCF851082F4
:103434008511831234B47C177D007900EEFAEFFB1A
:10344400120FE98E828F83E4F0A3F0050E9002E55B
:10345400E0F8E50EC398501EE50E75F017A4F8A920
:10346400F0850882850983A3A3123E4712349DEC9C
:103474004D60030233E085088285098374FFF0A35D
:10348400F0E50F700612313C1204C7A90F0232474F
:10349400F50AEF3400F50B22A31234A2FD22E0FC5E
:1034A400A3E0228E828F83123CD7850E82850F8300
:1034B400E8F0A3E9F022C082C0839002E1E06A70E0
:1034C40003A3E06B70067AE17B0280047A007B0040
:1034D4000227FC74F712170F7F00EF75F003A4F8AE
:1034E400A9F0EC28F8ED39F988828983E06A700341
:1034F400A3E06B7006E8FAE9FB800B0FEFC39402BC
:1035040040D87A007B007F010217E174F612170F8E
:10351400123AC070067A007B008007A3A3A3A3120B
:103524003142023B8174F212170FE9FE740E121736
:103534000312358974101217031239F18C828D83AA
:10354400E06402703BA3123CD388828983E0F50CCB
:10355400A3E0F9A80C7402687003742969702175DA
:103564000C02750D00780C121922780812192278B1
:103574000A121922EEF912087574061216CE800288
:103584007901023BF1E0F50AA3E0F50B2274E8129D
:10359400170F74FB1216B8E9851882851983F08A0F
:1035A400168B178C0E8D0F741F1217031239F174BA
:1035B4002112170312358974231217031239DB758C
:1035C40010008C828D83A3A3A3E0A2E4502A741D6F
:1035D4001217031232528A828B83E5824583700369
:1035E40002369D790AAC0EAD0FAA16AB1712170D51
:1035F400E9F51060030236A0850E82850F83E0642E
:10360400026003023956A3123CD3850882850983DC
:10361400A3858212858313E50E2406F50CE50F12AB
:1036240039B288828983E0FAA3E0F9EA2400F51428
:10363400E439F51578141219AC0100002801286545
:1036440036070002283C370328AC360029663801C7
:10365400298E3802293538032966380429F7385663
:1036640039EE4F703E850C82850D831239CCFAE910
:10367400FB8A828B83E0850A82850B83123A0812C7
:1036840019228A828B83A31234A2FDAA08AB0912E1
:103694000FD174021216CE800375100EA910740592
:1036A400023E3575100B80F4EE4F70F7850A828563
:1036B4000B837401F01239E1850882850983F07C5B
:1036C400007D00850E82850F83A3A3A3A3E02401BC
:1036D400FAA3E03400FB120731EA4B60418A828B83
:1036E40083E02402F8850A82850B83E028F0EA242B
:1036F40004F8EB3400F988828983E085128285130B
:1037040083123A1A123A081219228A828B831234CB
:103714009CE5082403FAE5093400FB023693850A84
:1037240082850B83E02404F07C047D007900AA12D6
:10373400AB13120FE90236A0EE4F60030236A71254
:1037440039E1FEA3E0FF850A82850B837404F0EE61
:10375400850882850983F0EF851282851383F074CE
:1037640003121703AC82AD83EEFAEFFB123AAE708C
:10377400030238128A828B83A3A31239D7740112ED
:10378400170385820E85830F780E12192274051291
:1037940017031219397CFF7DFF12073774041216C0
:1037A400CE8B0FEA450F7033850C82850D83123959
:1037B400B7121922850C82850D83A31219397C0254
:1037C4007D007A207B8212056374041216CEE970A0
:1037D4000A740112170374FFF0A3F08E828F83E042
:1037E40064027034750C02750D00780C1219228E67
:1037F400828F8312349CE5082404FAE509122DC84B
:103804001216CE850A82850B83E024028009740196
:10381400121703EEF0A3EFF074011217031239C864
:10382400F07401121703A31239C0A3A3A3F0023644
:10383400A0EE4F60030236A7850C82850D831234F7
:103844009DAA16AB17120869850A82850B83740238
:10385400F0EA850882850983F0851282851383EB5B
:1038640080CBEE4F60030236A71239E1F8A3E0F9EA
:10387400850A82850B837402F0E8850882850983B2
:10388400F0E985128285138380A3850C82850D83DC
:10389400123142120FCBEAFC8C82A882C39EE49FB1
:1038A400404BE86E7001EF70047C00801F85188225
:1038B400851983E0FAEE2AFAEF3400FBC3EA98EBA9
:1038C40094005003E08004EECCC39CFCEC850A8297
:1038D400850B83F08C0A750B00780A121922850C6B
:1038E40082850D83E02EFCA3E03F02368E7510071F
:1038F4000236A0EE4F60030236A7850C82850D8345
:10390400123CD3850A82850B837407F088828983ED
:103914001239C01239A8E0851282851383F0E82495
:1039240002FAE93400FB8A828B831239C01239F916
:103934001239C8A3123A021239D1F0E82405F8E981
:103944003400F9888289831239D1A3123A1AA30266
:10395400382E741D121703123AB9700302369D12E1
:103964003CD3880C890DE8450D700302369D8E10FA
:103974008F117810121922780A1219227808121954
:10398400227406121703E0F9AC0EAD0FAA16AB179A
:10399400850C82850D8312170D74061216CEE9F577
:1039A400100236A0F088828983A322F50CEF34003C
:1039B400F50D22E0F50E750F00780E22E0850882E1
:1039C40085098322123A2122123CD7E822123A2195
:1039D400A3A322A3A3A3A3E0FEA3E0FF22850C825A
:1039E400850D83E0F8A3E0F5838882E022E0F50802
:1039F400A3E0F50922A3A3F08A828B83A3221226D3
:103A0400B4A3A322F08A828B83123A1122E0F50A2E
:103A1400750B00780A221239A8123A2122E085088F
:103A240082850983A3A32274EE12170F74FE121663
:103A3400B88A0A8B0BECFAEDFB7414121703E0F549
:103A440010A3E0F5117416121703E0FE7418121790
:103A540003E0F50EA3E0F50F851882851983AC8287
:103A6400AD83123AAE603E851882851983123AB945
:103A7400602FA3A31239F1E50845096024780E12DA
:103A840019227810121922EEF9AC0CAD0DAA0AAB6A
:103A94000B85088285098312170D74041216CE80D3
:103AA40006790E80027901022EEE1207318A0C8B00
:103AB4000DEA450D22123146123AC0221207FD8A40
:103AC400828B83E58245832274F612170F74FE12EB
:103AD40016B8740C1217031239CC85188285198311
:103AE400F07401121703E9F0E4F508F509780812F7
:103AF4001922750802780812192274041217038512
:103B04008208858309780812192212085174061252
:103B140016CE74021216CE806474F712170FEAFEE2
:103B2400EBFF89087C187D03120869EA5402600BD4
:103B3400A908EEFAEFFB1207258002790102350A83
:103B440074F612170F74FF6A700374FF6B701C7B9A
:103B540000EB75F003A4F8A9F0EC28F8ED39F9129C
:103B64003B860BEBC39402501480E61208398A0892
:103B74008B09A808A909E8496003123B867F020261
:103B840017E18882898374FF1226B2E4F02274F666
:103B940012170F1208398A828B83E58245836006E7
:103BA400A3A3E0FA80027A007B0080D174F212179A
:103BB4000F8A088B09ECFEEDFF740E121703E0F573
:103BC4000A123BF6701CEEFCEFFD7AFF7BFF123B02
:103BD400F670047911801688828983E508F0A3E5DC
:103BE40009F088828983A3A3E50AF079007F06029D
:103BF40017E11208398A0C8B0DA80CA90DE849228B
:103C040074EE12170FEAFEEBFF8C088D09890C7411
:103C140012121703123CD3741412170312349D7436
:103C240016121703123142750D00EC4D6003023C6D
:103C3400C77402650C6003023CC288828983123413
:103C4400A2F9EC2400F50EE439F50FEAF4F8EBF4EC
:103C5400F9EC58F8E50F59F9E849705DE5082406D0
:103C6400F8E5093400F9880A890B8882F583122D56
:103C7400D71208698A108B11E50E65107004E50FE0
:103C840065116042780E121922850A82850B83120F
:103C94002DD712086F74021216CEE9F50D7027782D
:103CA4000E121922850882850983A3A3122DD51229
:103CB400088774021216CE800D750D808008750D6C
:103CC4000D8003750D0BA90D0233A88E828F83120C
:103CD4003CD722E0F8A3E0F92274E812170F74E746
:103CE4001216B8851882851983EAF0A3EBF08C16B6
:103CF4008D17890E7431121703E0F512A3E0F51342
:103D04007433121703E0F514A3E0F5157435121794
:103D140003E0F50F750800750900E50975F003A4C3
:103D2400F8A9F0851882851983123E47E0F47003E0
:103D3400A3E0F47003023E25EE2402F50CEF123EDC
:103D44003DE07003023E2585160A85170B780A129A
:103D54001922AC14AD15AA12AB131207F174021296
:103D640016CE8A0A8B0BEA450B7003023E25E4F556
:103D740010F5117810121922740612170385821097
:103D84008583117810121922740912170385821081
:103D94008583117810121922851282851383A3A3B7
:103DA400A3A31219397914AC0AAD0B8E828F831236
:103DB4003E5B1216CEE97069850A82850B83A3A344
:103DC400A3A3123CD374021217031234B4850C82D9
:103DD400850D83E0A2E05018A90E7402121703ACFB
:103DE40082AD838E828F83123142120749E94208E1
:103DF400850C82850D83E0A2E15026E50FF50A7853
:103E04000A121926A90E7403121703AC82AD838E0D
:103E1400828F8312314212074374011216CEE94293
:103E2400080509E509C394025003023D1EA908745C
:103E3400191216CE7F100217E13400F50D850C829D
:103E4400F58322E028FEA3E039FF8E828F83227956
:103E540016850A82850B8312314612084B74082298
:103E640074F212170FEAFEEBFF890B7401650B6005
:103E74000E7402650B70637901120A61E9705BEEDE
:103E8400FAEFFB123EE16047750A00800B7C177D58
:103E9400007900120FE9050A9002E5E0F8E50AC38B
:103EA400985021E50A75F017A4F8A9F085088285D1
:103EB4000983A3A3E028FAA3E039FB8A828B831247
:103EC400280370C985088285098374FFF0A3F07CF8
:103ED400187D03EEFAEFFB120863023BF11208337C
:103EE4008A088B09EA45092274F212170F8A088B93
:103EF40009ECFEEDFF740E121703123589900A0FB8
:103F0400E0F4603D7A097B00120FF5EA4B60328AD7
:103F1400828B8374B1F0A3E41239FBA31239F9A3A1
:103F2400E508F0A3E509123F48EEF0A3EF123F487D
:103F3400A3A3E50AF0A3E50BF0900A0FE0F9121031
:103F440001023BF1F08A828B83A3A3A3A3A322C023
:103F540082C0839061907404F0A37448F0A3740247
:103F6400F09061807440F09061BC7403F0906187BC
:103F74007419F0906265741BF090619C740DF0905C
:103F8400619A7433F0A37455F09061A0743AF09080
:103F9400055CE064017009C2919003C674678005F2
:103FA4009003C67461F0902576E493906186F09056
:103FB4002570E493F46027E493540FF8906185E04E
:103FC400686012E5C654804449F5C6E59E547F6492
:103FD4004970F8E8F053C680E59E547F70FA79057D
:103FE400120DB5024195C082C083E9540FF9906166
:103FF40085E0696012E5C654804449F5C6E59E54DF
:104004007F644970F8E9F053C680E59E547F70FAE6
:10401400024195C082C083E5A8F853A87E906181CF
:10402400E4F0A3F0A3F0C2BA539AFEC289759B00D0
:10403400C2C275E90075910075BF0075A91175B903
:1040440005906181F0A374C0F0A3E4F0D2BA439A5E
:104054000174805842A8024195C082C08374F8124A
:1040640016B89003C4E0F8A3E0F9E84970030241EC
:104074008B9003C4E0544060237908851882851925
:1040840083AA82AB83120C1D851882851983AA82A8
:10409400AB831208F39003C4E054BFF0E054806093
:1040A40010790C7A807B05120C1D9003C4E0547FB8
:1040B400F0E0A2E0503190619A7433F0A37455F0AB
:1040C4009061A0743AF090055CE064017009C291BB
:1040D4009003C6746780059003C67461F01208F9F2
:1040E4009003C4E054FEF0E05402603190619A748D
:1040F4003FF0A3745AF09061A0747FF090055CE0E7
:1041040064017009D2919003C6747180059003C64E
:10411400746AF01208F99003C4E054FDF0E054040A
:104124006013902574E493906186F01208FF900365
:10413400C4E054FBF0E054086013902575E49390B8
:104144006186F01208FF9003C4E054F7F0E05410C5
:104154006013902576E493906186F01208FF900333
:10416400C4E054EFF0E05420600A1208FF9003C446
:10417400E054DFF0A3E05401600D120B4512090571
:104184009003C5E054FEF074081216CE8003F0A329
:10419400F0D083D08202013574EC12170F74F4123C
:1041A40016B8851882851983AC82AD8375838175B1
:1041B400829774041215CB90257493F46003024320
:1041C40029907808E0C3940250030243097404124E
:1041D4001703AC82AD83758381758222740812152E
:1041E400CB85188285198385821285831374041202
:1041F4001703AC82AD83750EFF750FFF7FFF7E0042
:10420400750C48750D78801574086E700302429C15
:1042140074096E700302429C740A6E607B850C8282
:10422400850D8378081215888C828D83A909E50A87
:10423400C9F88810741878081214C9E5104508F8EC
:10424400C3E098A3E099850C82850D837808121544
:104254008840188C828D83741878081214C9E5106C
:104264004508F8E0C398F8A3E0801C741878081295
:1042740014C9E5104508FAE9FB8C828D83E0F8A3A4
:10428400E0F9EAC398F8EB99F9C3E8950EE9950FBC
:104294005006880E890FEEFF0EE50C2404F50CE59C
:1042A4000D3400F50DEEC39413500302420C74FF59
:1042B400650E700474FF650F60238F08740278081C
:1042C4001216A574482508F58274783509F58378A3
:1042D40008121588851282851383E508F0EC240200
:1042E4000C0CED3400FD851282851383A3858212A4
:1042F400858313740C121703E5826C7003E5836DD8
:1043040060030241FA750801750900780812192240
:104314007402121703AC82AD837A5D7B091211D546
:1043240074021216CE740C1216CE7F0C0217E1C062
:1043340082C0839061AE7468F0A3746AF0906245A1
:1043440074FBF0A304F053F4FD43FE0290055C7487
:1043540001F09061A0E0643A90619A70237433F0A4
:10436400A37455F09061A0743AF07401640170096B
:10437400C2919003C6746780289003C6746180213B
:10438400743FF0A3745AF09061A0747FF0740164D8
:10439400017009D2919003C6747180059003C674AC
:1043A4006A0241947F040217E1C082C08390050E23
:1043B400E06401700A900513E06004790C800279CE
:1043C40000024195C082C08375E1F1900511E0605F
:1043D400551460081460591460518059120B579099
:1043E4000507E0F97A087B05120D3790818F1215C5
:1043F400A6120D6D9081DB1215A6120D43900512C5
:10440400E0F9120D4F7901120DA9900505E024166B
:10441400F8A3E03400F988828983746FF0A3740BE5
:10442400F07900024195120B5D80B4120B6380AFEA
:10443400120B6980AA791280EA74F412170F75D9E5
:104444000D9004F6E0A2E0E4331313F8900507E0BE
:10445400C4333354C0484401F5D9780579058882BA
:104464008983A3A3A3E0F5D988828983A3A882A919
:1044740083E8640B7003E9640570E378F6790488D3
:10448400828983A3E0F5D988828983A3A882A9833A
:10449400E864FC7003E9640470E575E1959004F642
:1044A400E0F97AF77B04120D3D900A317403F0A30E
:1044B400740BF0A37465F0A3740CF0A37465F0A3FB
:1044C400740CF0A37465F0A3740CF0A37409F0A346
:1044D400740BF0A37465F0A3740CF0A37421F0A31F
:1044E400740BF0900A3F7465F0A3740CF0A3746528
:1044F400F0A3740CF0A37465F0A3740CF0A37465BA
:10450400F0A3740CF0A37465F0A3740CF0A37465A9
:10451400F0A3740CF0900505E0F8A3E0F58388821D
:10452400A3A3780812158890818B7808121514902B
:1045340081D37808121562900505E0240EF8A3E0F3
:104544003400F9888289837808121597900505E06C
:104554002414F8A3E03400F9888289837413F0905A
:1045640003C27402F00243A8C082C083900517E01E
:104574002407F5D9900507E0C4333354C0F5D9783E
:1045840005790588828983A3A3A3E0F5D988828964
:1045940083A3A882A983E8640B7003E9640570E32C
:1045A400900517E0601F78057905FAE82413F58271
:1045B400E93400F583E0F5D988828983A3A882A928
:1045C400831AEA70E6900537E02407F5D9900507C9
:1045D400E0C4333354C04404F5D97805790588829E
:1045E4008983A3A3A3E0F5D988828983A3A882A998
:1045F40083E8640B7003E9640570E3900537E060B9
:104604001F78057905FAE82433F582E93400F58347
:10461400E0F5D988828983A3A882A9831AEA70E67F
:1046240075E195900A31740FF0A3740BF0A37465CF
:10463400F0A3740CF0A37465F0A3740CF0A3746578
:10464400F0A3740CF0A37409F0A3740BF0A37465C5
:10465400F0A3740CF0A37421F0A3740BF0900A3F40
:104664007465F0A3740CF0A37465F0A3740CF0A348
:104674007465F0A3740CF0A37465F0A3740CF0A338
:104684007465F0A3740CF0A37465F0A3740CF0903B
:1046940081FB1215A6900505E0240EF8A3E0340072
:1046A400F9888289831215B2900505E02414F8A3D1
:1046B400E03400F9888289837412F09003C2740193
:1046C400024194C082C083900517E02407F5D99075
:1046D4000507E0C4333354C04402F5D9780579059D
:1046E40088828983A3A3A3E0F5D988828983A3A8B8
:1046F40082A983E8640B7003E9640570E3900517ED
:10470400E0601F78057905FAE82413F582E934009E
:10471400F583E0F5D988828983A3A882A9831AEA5C
:1047240070E675E195900A31741BF0A3740BF0A345
:10473400741BF0A3740BF0A3741BF0A3740BF0A30D
:10474400741BF0A3740BF0A3741BF0A3740BF0A3FD
:10475400741BF0A3740BF0A37421F0A3740BF090FA
:104764000A3F7465F0A3740CF0A37465F0A3740C91
:10477400F0A37465F0A3740CF0A37465F0A3740C37
:10478400F0A37465F0A3740CF0A37465F0A3740C27
:10479400F09081FB1215A6900505E0240EF8A3E025
:1047A4003400F9888289831215B2900505E0241437
:1047B400F8A3E03400F9888289837414F09003C26A
:1047C4007404024194C082C083900517E02407F565
:1047D400D9900507E0C4333354C04406F5D97805AD
:1047E400790588828983A3A3A3E0F5D98882898384
:1047F400A3A882A983E8640B7003E9640570E390BD
:104804000517E0601F78057905FAE82413F582E9B5
:104814003400F583E0F5D988828983A3A882A9832B
:104824001AEA70E6900537E02407F5D9900507E009
:10483400C4333354C04404F5D97805790588828992
:1048440083A3A3A3E0F5D988828983A3A882A9833B
:10485400E8640B7003E9640570E3900537E0601FBA
:1048640078057905FAE82433F582E93400F583E024
:10487400F5D988828983A3A882A9831AEA70E67588
:10488400E195900A317415F0A3740BF0A37465F0EC
:10489400A3740CF0A37465F0A3740CF0A37465F016
:1048A400A3740CF0A37465F0A3740CF0A37465F006
:1048B400A3740CF0A37421F0A3740BF0900A3F745A
:1048C40065F0A3740CF0A37465F0A3740CF0A374E6
:1048D40065F0A3740CF0A37465F0A3740CF0A374D6
:1048E40065F0A3740CF0A37465F0A3740CF09081CC
:1048F400FB1215A6900505E0240EF8A3E03400F998
:10490400888289831215B2900505E02414F8A3E087
:104914003400F9888289837415F09003C274030209
:104924004194C082C083900505E0F8A3E0F5838834
:1049340082A3A3A3A3A3A3E402419274F712170FC3
:104944009003F0E0F875F004A4C8AAF02AF974F210
:1049540028F8740339F9E82405FAE93400FB8A825B
:104964008B83E0FCA3E0FD88828983A3A3A3A3A394
:10497400A3A3A3A3ECF0A3EDF088828983A3A3A34C
:10498400A3A3A3A3E024FFF8A3E034FFF98A828B56
:1049940083E8F0A3E9024BE474F712170FEAFEEB85
:1049A400FF9061D0E06003024A7975D90E75D9038E
:1049B40075D904EE248CF582EF3400F583E5822466
:1049C40008F8E5833400F9E0F5D9A3E865827003BB
:1049D400E9658370F2EE2484F582EF3400F583E513
:1049E400822404F8E5833400F9E0F5D9A3E865826C
:1049F4007003E9658370F275E1957908EE248CFA09
:104A0400EF3400FB120C117904EE2484FAEF340025
:104A1400FB120C117C00EEF8EFF9ECFAC3E49AFAFD
:104A240095E0FBEE2AFAEF3BFBEA248BF582EB34AC
:104A340000F583E0C0E0E824ABF582E93400F583B7
:104A4400D0E0F00C88828983A3A882A983ECC39464
:104A54000840C7EE2470F582EF3400F583E0F8A334
:104A6400E0F9EE2472F582EF3400F583E8F0A3E96F
:104A7400F0790180027900024BE5C082C08375D9C8
:104A84000275D90375D90575E195EA2470F582EBB1
:104A94003400F583E0F8A3E0F9EA2472F582EB34FC
:104AA40000F583E8F0A3E9F0790102419574F61268
:104AB400170FEAFEEBFF9005607406F07508607549
:104AC400090578081219227C017903120C59740221
:104AD4001216CE75D90675D903758260758305E003
:104AE400F5D9A3E58264657004E583640570F07507
:104AF400E1959003C2E06408701EEE2470F582EF25
:104B04003400F583E0F8A3E0F9EE2472F582EF3483
:104B140000F583E8F0A3E9F07901024CB174F612D0
:104B2400170FEAFEEBFF9061D0E070667801900504
:104B340060740BF09003C2E0640770197508607527
:104B4400090578081219227C017903120C597402A0
:104B54001216CE7805740128F5D975D903758260CB
:104B6400758305E8FAE0F5D9A31AEA70F875E195BA
:104B7400EE2470F582EF3400F583E0F8A3E0F9EE5B
:104B84002472F582EF3400F583E8F0A3E9F07901AB
:104B940080027900024CB174F712170FEAFEEBFFA2
:104BA40075D90375D90375D90DEE24DEF582EF347A
:104BB40000F583E0F5D975E1957904120D73EE24BF
:104BC40070F582EF3400F583E0F8A3E0F9EE247287
:104BD400F582EF3400F583E8F0A3E9F07901800170
:104BE400F07F010217E174F612170FEAFEEBFF9053
:104BF40061D0E0F87480C398FAEE2483F582EF3430
:104C040000F583E06004780480027800E8240BF85F
:104C1400EAC3985003024CAF7D09900560EDF0EEB5
:104C240024E3F8EF3400F97A617B057C08888289F3
:104C340083E08A828B83F088828983A3A882A983F4
:104C44008A828B83A3AA82AB831CEC70E0EE24835C
:104C5400F582EF3400F583E0601D75086075090581
:104C640078081219227C097903EEFAEFFB120C5929
:104C740074021216CE7D0D74012DF5D975D9037504
:104C840082607583058D08E0F5D9A31508E50870E1
:104C9400F675E1957904120D73EE241DF582EF3457
:104CA40000F583E4F0A3F07901800279007F020229
:104CB40017E174F612170FEAFEEBFF9061D0E0F8EB
:104CC4007480C398FAEE2483F582EF3400F583E010
:104CD4006004780480027800E82408F8EAC3985055
:104CE40003024DB67D06900560740CF09003DFE07E
:104CF400900561F07AE07B03786279057C028A8210
:104D04008B83E088828983F08A828B83A3AA82AB17
:104D14008388828983A3A882A9831CEC70E07AE249
:104D24007B037C028A828B83E088828983F08A8277
:104D34008B83A3AA82AB8388828983A3A882A98355
:104D44001CEC70E0EE2483F582EF3400F583E06020
:104D54001D75086075090578081219227C06790307
:104D6400EEFAEFFB120C5974021216CE7D0A74018E
:104D74002DF5D975D9037582607583058D08E0F525
:104D8400D9A31508E50870F675E1957904120D7339
:104D9400EE2470F582EF3400F583E0F8A3E0F9EE39
:104DA4002472F582EF3400F583E8F0A3E9F0790189
:104DB40080027900024CB174F612170FEAFEEBFF81
:104DC4009061D0E0F87480C398FAEE2483F582EF02
:104DD4003400F583E06004780480027800E8240459
:104DE400F8EAC3985003024E957802900560E8F003
:104DF400EE24F5F582EF3400F583E0900561F0EEE2
:104E04002483F582EF3400F583E0601B7508607538
:104E1400090578081219227C027903EEFA120C595A
:104E240074021216CE7806740128F5D975D9037563
:104E340082607583058808E0F5D9A31508E5087034
:104E4400F675E195EE2474F582EF3400F583E4F011
:104E5400EE2480F582EF3400F583E4F0EE241DF5B2
:104E640082EF3400F583E4F0A3F07904120D73EEBD
:104E7400240DF582EF3400F583E0F8A3E0F9EE2485
:104E840072F582EF3400F583E8F0A3E9F07901804C
:104E9400027900024CB174F612170F9061D0E0F859
:104EA4007480C398FCEA2483F582EB3400F583E034
:104EB4006004780480027800E82404F8ECC3984085
:104EC4005B79029005607407F0EA24F6F582EB340E
:104ED40000F583E0900561F0EA2483F582EB340069
:104EE400F583E060187508607509057808121922C1
:104EF4007C0209120C5974021216CE790674012927
:104F0400F5D975D903758260758305E9F8E0F5D99B
:104F1400A318E870F875E195790180027900024CD4
:104F2400B174F512170FE9FCA2AFE433F50AC2AF6E
:104F34007D0080010DEA246FF582EB3400F583E0F7
:104F4400F8EDC398501A8D08EA2508F8EB3400F9F7
:104F5400E8246BF582E93400F583E06C70D6802494
:104F6400EA246FF8EB3400F9E0FEEA2EFAEB3400A1
:104F7400FBEA246BF582EB3400F583ECF08882893C
:104F840083E004F0E50AA2E092AF7F030217E17424
:104F9400F612170FA2AFE433FDC2AFEA246FF58215
:104FA400EB3400F583E014F07C0060368C08EA25CD
:104FB40008F8EB3400F9E8246CF582E93400F58351
:104FC400E0C0E0E8246BF582E93400F583D0E0F03A
:104FD4000CEA246FF582EB3400F583E0F8ECC39817
:104FE40040CAEA246EF582EB3400F58374FFF0EADC
:104FF400246AF582EB3400F583E4F0EDA2E092AF8D
:10500400024CB1C082C083E5A8F8C2AFEA246BF5B4
:1050140082EB3400F583E9F0EA246AF582EB34008C
:10502400F583E4F0E8A2E792AF02419574F3121716
:105034000FEAFEEBFFECFAEDFB8A828B83A3A3A3BA
:10504400A3E0541FF0EE2436F582EF3400F583E438
:10505400F0F50AEEFCEFFD8A828B83E0C0E0EC24DD
:105064005DF582ED3400F583D0E0F0750B00E50AC0
:1050740033333354F8F50C8A828B83E0F5087509D1
:1050840000E50B7808121686E508A2E0502FEE24FE
:1050940036F8EF3400F988828983E0F508EE2508B4
:1050A400F508EF3400F509E5082438F582E50934FC
:1050B40000F583E50CF088828983E004F0050B0594
:1050C4000CE50BC3940840AF050A8A828B83A3AA1C
:1050D40082AB838C828D83A3AC82AD83E50AC394B7
:1050E40005500302505B7F050217E174F712170F96
:1050F4009003EEE0640170077A007B000252667E42
:10510400009003F4E070F17401F0A3E4F0A3F090D4
:10511400045404F0900457E4F0A3F090045A04F00B
:105124009003F7E4F0A3F0A3F0A3F090040104F0DB
:10513400900427E4F090819F1215A690040A12159A
:10514400B290040EE4F0A3F0A3F0900472F0900483
:1051540066F090045B7480F0A3E4F0900461F09036
:105164000459F09004DDF0A3F0A3F0A3F0A3F0A39E
:10517400F0A3F0A3F09004E6F0900475F09004C559
:10518400F0A3F090819F1215A69004C71215B29057
:10519400819F1215A69004CB1215B29004D1E4F0AD
:1051A4009004D3F09004CFF09004E9F0A3F0A3F0BE
:1051B400A3F0A3F0A3F0A3F0A3F078EE7903E8241E
:1051C4006FF582E93400F58374FFF00E88828983D9
:1051D400A3A882A983EEC3940440E37AEE7B037808
:1051E400FD790488828983E0C0E0EA2461F582EBDA
:1051F4003400F583D0E0F088828983A3A882A98350
:105204008A828B83A3AA82AB83E864027003E96475
:105214000570D07AEE7B0378D5790388828983A3DD
:10522400E0C0E0EA24E7F582EB3400F583D0E0F057
:1052340088828983A3A882A9838A828B83A3AA8272
:10524400AB83E864DD7003E9640370CF9003EEE0A0
:1052540004F0640170089003F6E09003F0F07AF231
:105264007B03024BE5C082C0839003F5E4F0900316
:10527400F4F09003EEF0A3F0A374FFF075E1F102F3
:105284004195C082C083780079009003F5E0600402
:1052940078F2790388828983A3A3A3A3E0F9024166
:1052A4009574F612170FEAFEEBFF8E828F83A3A389
:1052B400A3E0600F8E828F83A3A3A3E4F09003EF97
:1052C400E014F09003EEE014F070069003F074FF25
:1052D400F08E828F83A3A3E4F0900502E0700D901A
:1052E40003EFE0640170057900120D55EE2465F5B5
:1052F40082EF3400F583E0F8A3E0F9E8496029EE91
:105304002465F8EF3400F9880889098882F583E078
:10531400FCA3E0FD9003F0E0FA7B00120929850864
:1053240082850983E4F0A3F0EEFAEFFB120C890204
:105334004CB174F712170FEAFEEBFF8E828F83A332
:10534400A3A3A3E0FA7B0012096BEEFAEFFB120BA6
:10535400DB120C71024BE5C082C08378D5790388D7
:10536400828983A3E4F088828983A3A882A983E83D
:1053740064DD7003E9640370E69003D60246C274E8
:10538400F612170FEAFEEBFFEC2403F8ED3400F9F4
:1053940088088909EC2407F8ED3400F9E8FCE9FDF4
:1053A4008C828D83E0F8A3E0F9850882850983E087
:1053B400FAA3E0FB12162DEE240DF582EF3400F56E
:1053C40083E8F0A3E9F08C828D83E0F8A3E0F9850B
:1053D4000882850983E0FAA3E0FB12162D8B09EA03
:1053E40045096013EE240DF582EF3400F583E024C3
:1053F40001F0A3E03400F0024CB174F612170FEA86
:10540400FEEBFFEE242EF582EF3400F583E0FCA3DF
:10541400E0FD780079FAECFAEDFB12162DEE24701B
:10542400F582EF3400F583E8F0A3E9F0780079FA27
:10543400ECFAEDFB12162D8B09EA45096013EE24F4
:1054440070F582EF3400F583E02401F0A3E034002A
:10545400F0024CB174F012170FEAFEEBFF74101255
:1054640017037808121588120D138A0C8B0D8C0EF5
:105474008D0F908183780C1215149081D3780C12BF
:105484001562780C12191E8E828F83E0F8A3E0F562
:10549400838882A3A31215A61222B674041216CE10
:1054A400E960030255A58E828F83E02402F8A3E00D
:1054B4003400F9E8FAE9FB8A828B8378081215270D
:1054C4009081D378081215888A828B837808121504
:1054D40075EE240BF582EF3400F583C082C0838E11
:1054E400828F83A3A3A3A3A3E02401F8A3E0340041
:1054F400F9D083D082E0687003A3E0697005790174
:105504000255A78E828F83A3A3A3A3A3A3A3E024FE
:1055140001F0A3E03400F0EE2474F582EF3400F5DA
:1055240083E064017036EE2475F582EF3400F58370
:10553400E0F8A3E0F98E828F83A3A3A3A3A3A3A37C
:10554400E0687003A3E0697013EE2475F582EF340C
:1055540000F583E02401F0A3E03400F0EE2480F5AC
:1055640082EF3400F583E064017036EE2481F58225
:10557400EF3400F583E0F8A3E0F98E828F83A3A3D0
:10558400A3A3A3A3A3E0687003A3E0697013EE24AC
:1055940081F582EF3400F583E02401F0A3E03400C8
:1055A400F079007F080217E174F712170F9003F0E7
:1055B400E0F875F004A4C8AAF02AF974F228FE747D
:1055C4000339FF8028EE2465F8EF3400F9888289D6
:1055D40083E0FCA3E0FD88828983E4F0A3F08E825B
:1055E4008F83A3A3A3A3E0FA7B00120929EE246509
:1055F400F582EF3400F583E0F8A3E0F9E849604F61
:10560400EE2464F582EF3400F583E0F5087808129F
:105614001926EE2463F582EF3400F583E0F9EE24D5
:1056240065F582EF3400F583E0FCA3E0FDEEFAEFCC
:10563400FB120C0574011216CEE96089EE2465F59F
:1056440082EF3400F583E0F8A3E0F9E84970137CB5
:10565400007D008E828F83A3A3A3A3E0FA7B0012B4
:105664000929024BE574F212170FEAFEEBFF890ACF
:10567400740E121703E0FAEE2462F582EF3400F59B
:1056840083E0640160030257359061D0E0F87480D0
:10569400C398F50CEE2483F582EF3400F583E060C3
:1056A400047804800278008908E928F8E43400F9D1
:1056B400E824020808E93400F9E50C98E499A2D238
:1056C40065D0334068EA7005750B028003750B01E1
:1056D400E0603975090078081219227A607B051296
:1056E4000C3B74021216CE75086075090578081211
:1056F4001922AC0AA90BEEFAEFFB120C5974021230
:1057040016CE7404250AF50A7C607D057401250A09
:10571400F5D9850BD9E50A600D8C828D83F8E0F507
:10572400D9A318E870F875E19579008006790780A7
:105734000279FF7F060217E1C082C083E960208CF2
:10574400828D83E08A828B83F08C828D83A3AC82EA
:10575400AD838A828B83A3AA82AB8319E970E0ECC0
:10576400FAEDFB02419574EA12170F907803E06496
:1057740042705E90055FE014F07056C2AF12578419
:1057840000782AD0E0F618D0E0F6E59F5407F970C7
:105794000590817F80039081AB7808121588E9C455
:1057A400C0E07829E65508F50808E65509F50974B6
:1057B4000B7808121696D0E02508F8906270E0A2E3
:1057C400E740F8E8C333906272F0906270E0D2E090
:1057D400F09003F0E0F47003025B8DE0F875F004E0
:1057E400A4C8AAF02AF974F228FE740339FFEE243F
:1057F40002F582EF3401F583E0F8A3E0F9E84960AB
:105804001EEE2402F582EF3401F583E0FAA3E0FBF7
:10581400EE2401F582EF3401F583E0F91210258EB0
:10582400828F83A3A3A3A3A3A3A3E0F8A3E0F98E89
:10583400828F83A3A3A3A3A3E8F0A3E9F090605409
:10584400E09003C9F0906055E09003CAF090605670
:10585400E09003CBF0906057E09003CCF090605858
:10586400E09003CDF0906059E09003CEF090605A40
:10587400E09003CFF090605BE09003D0F090605C28
:10588400E0FC9003D1F090605DE0FB9003D2F090D7
:10589400605EE0FD9003D3F090605FE0FA9003D483
:1058A400F09003CFE08C082508F8E43400F98D0863
:1058B400E82508F8E93400F98B08E82508F8E93404
:1058C40000F98A08E82508FAE93400FBEE24F7F524
:1058D40082EF3400F583E02AF0A3E03BF08C08EE7D
:1058E40024F9F582EF3400F583E02508F0A3E034D1
:1058F40000F0EE24FBF582EF3400F583E02401F0A0
:10590400A3E03400F0EE24FFF582EF3400F583E0E9
:10591400F8A3E0F9E8496042906000E0C333FCE496
:1059240033FDE82CF582E93DF583E02AF0A3E03B62
:10593400F0906000E0FA9003D1E0FCEAC333FAE4AB
:1059440033FBE82AF8E93BF9E8244AF582E9340014
:10595400F583E02CF0A3E03400F09003CFE0701165
:105964009003D2E0700BA3E07007A3E07003025A27
:105974006D8E828F83A3A3A3A3A3E0F8A3E0F9EE23
:10598400240DF582EF3400F583E028F8A3E039F91B
:10599400EE240BF582EF3400F583E8F0A3E9F0EE92
:1059A400240FF582EF3400F583E4F0EE241CF58235
:1059B400EF3400F583E06401701EEE2420F582EFDD
:1059C4003400F583E0F8A3E0F9EE241DF582EF340A
:1059D40000F583E8F0A3E9F09003CAE06052EE24F6
:1059E4001CF582EF3400F5837401F0EE246AF5822D
:1059F400EF3400F583E07038EE2474F582EF340060
:105A0400F583E0702BEE2480F582EF3400F583E01B
:105A1400701EEE2420F582EF3400F583E0F8A3E055
:105A2400F9EE241DF582EF3400F583E8F0A3E9F0E4
:105A3400906062E07003025B208E828F83E0F8A3A3
:105A4400E0F9E82406FCE93400FDE82402FAE9342C
:105A540000FB120D0D8E828F83E02412F8A3E03434
:105A640000F988828983025B2A9003D1E0603AEED0
:105A7400240FF582EF3400F583E4F0EE241CF58264
:105A8400EF3400F583E064017040EE2420F582EFEA
:105A94003400F583E0F8A3E0F9EE241DF582EF3439
:105AA40000F583E8F0A3E98020EE24FDF582EF34CD
:105AB40000F583E02401F0A3E03400F0EE241DF5AA
:105AC40082EF3400F583E4F0A3F0EE240BF582EFCB
:105AD4003400F583E0F8A3E0F98E828F83A3A3A3B7
:105AE400A3A3E0687003A3E06960030259DCEE2419
:105AF4000FF582EF3400F583E060128E828F83A36A
:105B0400A3A3A3A3E064057002A3E0600B7908EEED
:105B1400FAEFFB120BE18071793E80F3EE241DF560
:105B240082EF3400F583E4F0A3F0906060E0C0E01D
:105B3400EE2469F582EF3400F583D0E0F09003CFD2
