:020000040000FA
:0600000002011D021D8B30
:03002B000222E6C8
:030033000222C8DE
:03005300021DFE8D
:03006B0002229FCF
:10008300021C3FE5C754F84401F5C779012200007B
:100093000080FB120086B90003020107E4791B7894
:1000A30002B800028004F709D8FCE4791D7802B88D
:1000B30000028004F709D8FCE49002817804790EE9
:1000C3008002F0A3D8FCD9FA781A90014D7A01BACC
:1000D30000028007E493A3F608DAF9900F84AA825A
:1000E300AB8390014E78D479018015E493A3AC825D
:1000F300AD838A828B83F0A3AA82AB838C828D83A8
:10010300D8E9D9E77582D17583C9740312012F75B4
:100113008291758300740012012F75D00075813FA1
:10012300751881751902759F00020096C09FF59F8F
:10013300E473D09F22D083D082C09FE493C0E07445
:100143000193C0E0740293F59F2201AD03BF03E95D
:1001530003B303FF0000B400002800280028307513
:10016300A000A000A000A00000080008E001F0002B
:10017300100010001000100010001000500050007C
:10018300500010001000D0070000000000000F0016
:1001930001000500307507001000010081FF000019
:1001A300FF0202021C830100000383021683010085
:1001B30000DA0F020883010000B102021683010076
:1001C30000DB0F020683010000C702FFFF0100FFEF
:1001D30020021C8301000000830216830100000932
:1001E30010020C830000000000020A83030000A435
:1001F30003270B270B270B270B270B270B270B2774
:100203000B270B270B270B270B270B070D250D019F
:100213000DFFFF01E803053F1002FF00FEFF12017F
:10022300380DC10312013823C10312013850C10331
:1002330012013880C10312013897C103120138B883
:10024300C103120138E9C1031201383AC203120192
:100253003851C20312013898BA03120138AFBA03F6
:10026300120138DEBA0312013817BB031201383FFB
:10027300BB031201386DBB0312013884BB031201A7
:10028300389BBB03120138B1BB03120138D8BB033F
:10029300120138EBBB0312013801BC0312013829E8
:1002A300BC0312013804A90212013803AA02120185
:1002B300382DAA0212013882AA02120138A3AA0217
:1002C300120138BCAA02120138BEAA02120138DF99
:1002D300AA02120138E2AB021201389FAC021201EA
:1002E300386CAD02120138D0AD0212013867AE028C
:1002F3001201386AAE02120138F0AE02120138332D
:10030300AF0212013885AF0212013888AF02120121
:1003130038BFAF02120138E6AF021201387CB002D7
:1003230012013805B1021201384EB1021201385BD5
:10033300B1021201385EB102120138BCB1021201DE
:1003430038D4B1021201384EB20212013851B2024E
:1003530012013874B20212013877B2021201381E48
:10036300B30212013841B30212013859B302120128
:100373003889B30212013896B30212013899B302D5
:1003830012013805B402120138F3B402120138A97C
:10039300B5021201389FC0021201387AC10212015C
:1003A30038A8C10212013828C20212013848C20219
:1003B30012013886C202120138D9C2021201384131
:1003C300C302120138D2C3021201389DC4021201C2
:1003D30038ACC70212013818C9021201383BC902EE
:1003E3001201382DA303120138BEA4031201380FE2
:1003F300A5031201386EA5031201387CA50312016F
:1004030038A5A503120138C48503120138EC85030E
:100413001201381A8603120138518603120138B9C2
:1004230086031201380287031201384D8703120134
:10043300388B8703120138C88703120138F6870304
:100443001201389D8803120138A78803120138B4BA
:100453008803120138E78803120138A989031201BE
:1004630038B58903120138CD8903120138D78903BE
:10047300120138558A031201386EC5031201387C04
:10048300C50312013894C503120138ACC503120128
:1004930038C4C50312013808ED01120138A6ED0175
:1004A3001201381EEE0112013833EF011201386DCB
:1004B300EF0112013816F001120138EBF0011201BD
:1004C300384FF201120138A6F2011201382DF3015F
:1004D30012013814F40112013861F401120138EFEA
:1004E300F40112013813F501120138E8F601120183
:1004F3003829F7011201384BF70112013810F801BE
:10050300120138D6F8011201380BFB01120138BF72
:100513009B03120138D59B03120138FB9B03120185
:1005230038239D031201382D9D03120138869E0343
:10053300120138869F03120138E68A0312013888B4
:100543008B03120138BB8B03120138058C03120194
:1005530038BF8D03120138BBAD0112013839AE012A
:1005630012013849AE011201382CAF01120138369D
:10057300AF0112013864AF011201386FAF011201EC
:100583003848B001120138AAB00112013846B1014E
:100593001201384AB30112013801B5011201387D45
:1005A300B5011201385AB60112013888B901120196
:1005B3003826BA0112013883BB01120138F6BC0197
:1005C3001201389FBD01120138E8BD011201381F25
:1005D300BE01120138C4BE0112013842BF0112012B
:1005E3003888CF01120138DDCF0112013822D10141
:1005F30012013832D10112013855D101120138A04C
:10060300D10112013845D2011201383BD301120145
:100613003805D4011201387DD501120138BFD50147
:100623001201385DD60112013883D60112013871E7
:10063300D80112013876D80112013857DA011201B4
:1006430038ABDA011201380DDB0112013835DB0159
:10065300120138D9DB011201389BDC01120138CCBD
:10066300DC01120138CFDC0112013817DD01120160
:100673003859DD01120138C0DD011201385FB003C2
:1006830012013872B0031201387BB003120138949F
:10069300B003120138DFB003120138BAB1031201FB
:1006A3003849B20312013894B203120138F25C00E4
:1006B300120138025D00120138655D00120138AA8B
:1006C3005D001201385A5E00120138335F001201D7
:1006D300385C5F001201388C5F00120138A06100A2
:1006E3001201387C63001201385C650012013894F2
:1006F30066001201380D6900120138F96900120110
:10070300383F6B001201384C6C001201388E6C00BC
:10071300120138C66C00120138E06C00120138482F
:100723006D00120138E27100120138837200120168
:1007330038D77200120138FE72001201383C730080
:100743001201385B7300120138AF7300120138B71E
:100753007400120138407500120138008003120141
:10076300380A8003120138A680031201387181030D
:10077300120138908103120138B68103120138F552
:1007830081031201382D82031201385682031201AC
:1007930038908203120138A5820312013872830351
:1007A300120138958303120138B78303120138CC41
:1007B3008303120138568403120138908403120113
:1007C300380485031201384D8503120138778503F8
:1007D3001201389C8503120138D397031201389D07
:1007E3009803120138809903120138F69903120114
:1007F30038389A03120138659B03120138CF8D02F2
:10080300120138F88D02120138118E021201385686
:100813008F021201383490021201385390021201F0
:1008230038E090021201382391021201385B9202E0
:10083300120138C79202120138BD94021201384BDB
:100843009702120138DE9702120138B298021201A0
:1008530038559902120138689A02120138FE9A0239
:1008630012013868C203120138D1C20312013825BC
:10087300C30312013854C303120138628F031201F8
:1008830038CF8F031201381A90031201380F9103E6
:100893001201380B9203120138F59203120138CE7C
:1008A300E10212013815E202120138EEE2021201EE
:1008B30038E9E302120138C8E40212013834E502D0
:1008C30012013850E602120138B7E602120138BAB3
:1008D300E602120138E5E60212013856E702120178
:1008E30038F9E7021201380EE80212013856E8021D
:1008F3001201386FE80212013872E802120138BDA2
:10090300A603120138F9A60312013837A70312010F
:100913003801A80312013874A803120138AFA803E1
:10092300120138EDA8031201381DA903120138443E
:10093300A903120138AFA903120138F1A903120167
:10094300382083011201383E8501120138ED8601FA
:100953001201389D8701120138E8870112013833EB
:100963008801120138458801120138858801120176
:1009730038BA880112013806890112013835890114
:10098300120138588901120138DF8901120138CB6D
:100993008A01120138098C011201380B8D011201F1
:1009A30038E78E011201380B94011201385194017A
:1009B3001201388F9401120138C49601120138F8DC
:1009C300B40312013898B6031201380C2300120144
:1009D30038A32300120138D0230012013816240053
:1009E3001201384C2500120138E326001201385B4E
:1009F30027001201389D2700120138ED270012014C
:100A030038582900120138C32B001201389F2C00DB
:100A1300120138BE2C00120138DD2C00120138E01F
:100A23002C00120138662E001201385B2F001201D0
:100A330038573000120138C73000120138393100FD
:100A4300120138B831001201389332001201389A7A
:100A530033001201387934001201380435001201D1
:100A630038723500120138E635001201380F3600AE
:100A7300120138CE3600120138DD39001201382652
:100A83003A00120138693A00120138EC3A001201B7
:100A930038903B00120138213C00120138463C00DB
:100AA300120138903C00120138BA3C00120138FFA1
:100AB3003C001201387A3D00120138D43D00120186
:100AC30038283F00120138E53F00120138B84000D2
:100AD3001201380080021201385080021201385C82
:100AE3008002120138398102120138698102120130
:100AF30038A1810212013820820212013858820281
:100B0300120138AA8202120138E782021201380C5C
:100B13008502120138388702120138338902120123
:100B2300380E8B02120138EF7F00120138DDF40218
:100B33001201380FF9021201385FFA02120138F676
:100B4300BF01120138C8C601120138CEC601120115
:100B5300387EC901120138A2FA021201384EFB0293
:100B63001201381CFC0212013846FC0212013894AF
:100B7300FE02120138E64000120138304100120132
:100B830038E24D00120138634F001201385B500008
:100B9300120138BA5600120138B55700120138F263
:100BA3005700120138155800120138575800120126
:100BB300386158001201384D5900120138415A006A
:100BC300120138DA5A00120138909F0312013826B5
:100BD300A0031201383CA003120138B6A00312018E
:100BE300380CA1031201384AA103120138A7A1034B
:100BF30012013824A2031201382DA203120138393D
:100C0300A2031201384CA20312013888A203120175
:100C1300389EA203120138FDA20312013896E8029E
:100C2300120138A3E802120138BDE802120138FCB0
:100C3300E8021201383AE9021201389FE90212016F
:100C430038B4E902120138CBE902120138D9E902BA
:100C5300120138E8E902120138FDE90212013812E3
:100C6300EA021201381DEA0212013829EA021201CE
:100C73003836EA0212013845EA0212013850EA0214
:100C830012013875EA021201381EEB0212013833E1
:100C9300EB0212013848EB0212013862EB02120137
:100CA300387DEB021201389AEB02120138A5EB02F0
:100CB30012013861EC021201384DED021201387253
:100CC300ED021201387CED0212013890ED0212019F
:100CD30038AFED0212013810EE0212013816EE029F
:100CE3001201381CEE0212013822EE021201382ED4
:100CF300EE0212013861EE02120138A775001201EB
:100D030038D37500120138B77600120138517900D3
:100D1300120138677A00120138847B0012013827E8
:100D23007C00120138CD7C001201387A9B0212013B
:100D330038FC9B02120138A59C02120138ED9D027A
:100D4300120138FB9F02120138E1A002120138168A
:100D5300A10212013838A102120138E1A1021201E5
:100D630038B1A302120138DAA30212013852A402E5
:100D730012013884A40212013891A402120138DC52
:100D8300A40212013800A50212013851A702120170
:100D9300385BA802120138B7A8021201388ADE01B3
:100DA3001201389BDF011201387FE00112013889FB
:100DB300E001120138ABE001120138B7E001120182
:100DC300385BE20112013888E2011201389EE30127
:100DD300120138F3E30112013842E5011201381719
:100DE300E60112013873E601120138DEE601120151
:100DF3003813E70112013856E70112013820EA01DE
:100E030012013838EA01120138C9EA01120138D750
:100E1300EA0112013824EB0112013832EB0112010D
:100E2300389EEB0112013819EC0112013870EC0104
:100E3300120138DFB80312013804B9031201387AFA
:100E4300B903120138DFDA02120138E8DA021201BB
:100E530038F1DA02120138C9DB021201387ADD02F5
:100E6300120138AADD02120138D5DD02120138055C
:100E7300DE0212013830DE0212013864DE02120192
:100E83003890DE02120138D3DE02120138FEDE0290
:100E930012013845DF021201389ADF02120138DCF1
:100EA300DF0212013836E00212013861E00212015A
:100EB30038B0E002120138E0E0021201380BE1021F
:100EC3001201382EE10212013886C803120138B22A
:100ED300C803120138DFC803120138E9C80312013D
:100EE30038F9C803120138A9D202120138B3D20269
:100EF300120138F4D2021201383DD30212013877BD
:100F0300D302120138CDD302120138EED3021201FB
:100F1300389DD602120138A6D602120138FAD6023B
:100F230012013823D7021201382DD7021201389B40
:100F3300D7021201382BD80212013886D8021201C7
:100F430038B4D8021201383CD9021201387BD902D5
:100F5300120138B0D902120138C2D902120138E1A4
:100F6300D902120138EAD902120138B1DA021201A8
:100F73003877C403120138EEB60312013824B703DD
:100F830012013858B703120138A5B803120138F01B
:100F9300C70312013806C80312013810C80312012F
:100FA300385AC8031201381AFB011201382DFB010C
:100FB300120138EEFB011201382DFC011201384AEF
:100FC300FC0112013883FC01120138D0FC0112012B
:100FD3003802FD0112013839FD0112013842FF01C7
:100FE300120138AEFF0112013872C90312013875BC
:100FF300BF0312013898BF03120138C7BF031201A0
:10100300385FC00312013877C003120138B9C00337
:10101300120138DEEE0212013820EF02120138A06D
:10102300EF02120138B3EF0212013808F002120185
:10103300385CF002120138A1F002120138B0F0025C
:101043001201385FF102120138BAF10212013809B4
:10105300F20212013863F20212013870F302120134
:101063003868F402120138A5F40212013803C903E7
:10107300120138DD9801120138DB9A011201387828
:101083009C01120138259D01120138A59D01120111
:1010930038279E01120138509E01120138A29E0189
:1010A300120138DBA20112013852A301120138697F
:1010B300A401120138A3A401120138E4A40112010E
:1010C300382BA6011201385AA601120138B0A60125
:1010D300120138F9A60112013865A701120138D9A6
:1010E300A70112013807A8011201381FA801120134
:1010F3003838A90112013848A90112013803AB019C
:101103001201381AAB011201384CAB01120138E954
:10111300AC011201387DAD011201383FC703120142
:101123003850C70312013829CA0312013868CA03A9
:10113300120138DE7F001201385DC6031201386DDB
:10114300C60312013885C60312013839C7031201D9
:101153003875C303120138FAC3031201385EC4039E
:101163001201383BBC0312013864BC03120138CAB4
:10117300BC03120138EABC031201383BBD03120160
:101183003896BD03120138D0BD03120138D3BD0315
:1011930012013839AA031201384EAA031201386F1B
:1011A300AB03120138F2AB0312013866AC03120130
:1011B3003880AC0312013893AC03120138A1AC039D
:1011C300120138BBAC03120138D2AC03120138FC54
:1011D300AC0312013852AD03120138B79303120165
:1011E30038CE93031201384894031201382C950327
:1011F300120138039703120138689703120138BFAD
:101203009703120138F87F00120138BEB2031201AE
:10121300384EB403120138AFB403120138F5B403E6
:10122300120138DDBD031201382FBE03120138A2AB
:10123300BE031201380FBF0312013887AD03120139
:1012430038B1AD0312013880AE031201385CAF032D
:10125300120138EDAF0312013873CA021201383F8D
:10126300CB0212013880CB02120138BACB02120131
:101273003818CC021201386CCC02120138CACC02E5
:1012830012013860CD0212013868CE02120138F221
:10129300CF0212013890D002120138F7D0021201A6
:1012A300380AD102120138FED10212013847D202A4
:1012B30012013821B60212013828B702120138068A
:1012C300B80212013827BA02120138F8BA02120121
:1012D300381FBB0212013856BD02120138A6BD02E7
:1012E30012013844BE0212013875BF021201381DC3
:1012F300C00212013872CA03120138BBFF01120186
:10130300389FCA03120138DFFF02E066701008A39A
:10131300E066700A08A3E066700408A3E06622C3CF
:10132300E7960809E7960809E7960809E79622C3AE
:10133300E09608A3E09608A3E09608A3E09622C0EF
:1013430008C3E096F50808A3E096420808A3E096D0
:10135300420808A3E09645087001D3D00822080884
:1013630008EAC0E0EBC0E086F0E7A4FA180986F0CB
:10137300E7A42AFA180986F0E7A42AFA180986F0DE
:10138300E7A42AFA1986F0E7A4FBE5F02AFA19087C
:1013930086F0E7A42BFBE5F03AFA190886F0E7A4F8
:1013A3002BFBE5F03AFA18180986F0E7A4C5F02BF1
:1013B300FBE43AFA1908E7C5F0C6A426F6E5F03BC4
:1013C300FBE43AFA1886F0E7A4F6E5F00826F6E41B
:1013D3003B08F6E43A08F6D0E0FBD0E0FA22E4CF8B
:1013E300C0E0E4CEC0E0E4CDC0E0E4CCC0E075F002
:1013F30020C3E633F608E633F608E633F608E633A9
:10140300F6181818EC33FCED33FDEE33FEEF33FF23
:10141300C3EC9709ED9709EE9709EF97191919404E
:101423000FFFEC97FC09ED97FD09EE97FE191906DE
:10143300D5F0BEECF709EDF709EEF709EFF7191947
:1014430019D0E0FCD0E0FDD0E0FED0E0FF22601632
:10145300080808C6C313C618C613C618C613C61889
:10146300C613C6D5E0EA22700908080822601618D8
:101473001818C6C333C608C633C608C633C608C65B
:1014830033C6D5E0EA22E627F60809E637F6080967
:10149300E637F60809E637F622E026F608A3E03633
:1014A300F608A3E036F608A3E036F622E026F008B5
:1014B300A3E036F008A3E036F008A3E036F022C339
:1014C300E697F60809E697F60809E697F60809E6A7
:1014D30097F622C3E096F008A3E096F008A3E096FF
:1014E300F008A3E096F022E657F60809E657F60857
:1014F30009E657F60809E657F622E056F608A3E090
:1015030056F608A3E056F608A3E056F622E056F096
:1015130008A3E056F008A3E056F008A3E056F02233
:10152300E066F608A3E066F608A3E066F608A3E023
:1015330066F622E0F608A3E0F608A3E0F608A3E0C7
:10154300F622E6F008A3E6F008A3E6F008A3E6F027
:1015530022E0FAA3E0FBA3E0FCA3E0FD22EAF0A370
:10156300EBF0A3ECF0A3EDF022CAC0E0E6F0A30891
:10157300DAFAD0E0FA22CAC0E0E0A3C582CCC58281
:10158300C583CDC583F0A3C582CCC582C583CDC534
:1015930083DAE6D0E0CA22C3E498F8E499F9121595
:1015A300DB8026C3E49AFAE49BFBE920E7E9121502
:1015B300DBE498F8E499F922C3E498F8E499F91282
:1015C30015DBE498F8E499F9C3E49AFAE49BFB2267
:1015D300EB20E7CFE920E7E0B90010BB0008E88A79
:1015E300F084F8AAF022E4FBC8FA22EB70227B1005
:1015F300C833C8C933C9335007C39AC3DBF2800663
:101603009A50012ADBEAC833F4C8C933F4C9FA2271
:1016130075F008E4C833C8C933C933C99AC99B50A4
:1016230004C92AC93BD5F0ECFBC833F4C8E4C9FAB2
:1016330022600D08C6A2E713C618C613C6D5E0F389
:1016430022600C08C6C313C618C613C6D5E0F4221D
:10165300700422600D18C6C333C608C633C6D5E06E
:10166300F41822251810AF08F51840021519800840
:10167300F51840021519D2AF22C0D0251810AF08B3
:10168300F518500205198008F51850020519D2AF54
:10169300D0D0222518F58210AF08F518400215198D
:1016A3008008F51840021519D2AF85198322251831
:1016B300F582E43519F58322E4732518C582C0E069
:1016C300E51934FFC583C0E0E518C3958224F810FB
:1016D300AF08858319858218800885831985821848
:1016E300D2AFCEF0A3E520F0A37808E608F0A3DE9E
:1016F300FAEFF0A3E58124FAF8E608F0A3E608F090
:10170300A3E608F0A30808E608F0A3E608F0A3158B
:10171300811581D0E0FED0E0F8158115811581E8AF
:10172300C0E0EEC0E0222518C582C0E0E51934FF11
:10173300C583C0E0E518C3958224F910AF088583FB
:10174300198582188008858319858218D2AFCEF057
:10175300A3E520F0A37808E608F0A3DEFAEFF0A3F0
:10176300E58124FBF8E608F0A3E608F0A30808E601
:1017730008F0A3E608F0A315811581D0E0FED0E0C0
:10178300F815811581E8C0E0EEC0E0228519838554
:101793001882E0A3FEE0A3F5207808E0A3F608DFB3
:1017A300FAE0A3FFE0A3C0E0E0A3C0E0E0A3C0E051
:1017B300E0A3C0E0E0A3C0E010AF088582188583F2
:1017C300198008858218858319D2AFD083D082020D
:1017D3000135851983851882E0A3FEE0A3F52078FF
:1017E30008E0A3F608DFFAE0A3FFE0A3C0E0E0A36C
:1017F300C0E0E0A3C0E0E0A3C0E010AF088582181A
:101803008583198008858218858319D2AFD083D048
:101813008222C0D02518C582C0E0E51934FFC583F4
:10182300C0E0E518C3958224F310AF0885831985BA
:1018330082188008858319858218D2AFC8F0A3E97E
:10184300F0A3EAF0A3EBF0A37908E709F0A3D8FA31
:10185300ECF0A3EDF0A3EEF0A3EFF0A3D0E0F0A340
:10186300D0E0F0A3D0E0F0A3E520F0A3E5F0F0A3EF
:1018730022851983851882E0C0E0A3E0F9A3E0FA8A
:10188300A3E0FBA37808E0F608A3DFFAE0FCA3E0FB
:10189300FDA3E0FEA3E0FFA3E0C0E0A3E0C0E0A35C
:1018A300E0F5D0A3E0F520A3E0A3F5F010AF0885A1
:1018B30083198582188008858319858218D2AFD051
:1018C30082D083D0E0F8D0E03274048006740280C2
:1018D300027401C0E0F404121696D0E012156C22D3
:1018E3007404800474028000CCC0E0EDC0E0E5180D
:1018F300C39CCCAD1950011D10AF068C188D1980F7
:10190300068C188D19D2AF121579D0E0FDD0E0FC0A
:1019130022D083D082E9C0E0E493A3C386F0C5F06C
:1019230095F0F908E493A386F0C5F095F0700BE405
:1019330093A3C3994005E9048002A3E475F002A4CC
:101943002582F582E5F03583F583D0E0F9E493A3AE
:10195300C0E0E493C0E022D083D082ECC0E0EDC0CD
:10196300E0E493A3FCE493A3FDED4C600D1219A6F0
:10197300EC24FFFCED34FFFD80EFE493A3FCE49340
:10198300A3FDED4C600D1219E5EC24FFFCED34FFD3
:10199300FD80EFD0E0FDD0E0FCE493A3C0E0E4934E
:1019A300C0E022C0E0C3E493960874019396184004
:1019B3000FE4936670080874019366187000701939
:1019C300A3A3C3E49396087401939618A3A3400DAD
:1019D300D0E0D0E0D0E0021996A3A3A3A3A3A3D0A1
:1019E300E022C0E0C0F088F0E49366700808740158
:1019F3009366187000A8F0A3A3700BD0F0D0E0D0CA
:101A0300E0D0E0021996A3A3D0F0D0E02274F5123F
:101A13001729EAFEEBFFEE2434F8EF3400F98808C7
:101A23008909EE2435F582EF3400F583E0F8EE24DE
:101A330037F582EF3400F583E0F50AEC850AF0A46C
:101A4300FCAAF0850AF0EDA42AFDE82CF8E43DF9A0
:101A53007A257B001215DBEA850882850983F05419
:101A630007F87401B800028004C333D8FCC0E0E077
:101A7300131313541FF8EE28F8EF3400F9E8245D2C
:101A8300F582E93400F583D0E0F8E0586008EE24ED
:101A930034F582EF801EEE2436F582EF3400F583B1
:101AA300E0F5F0EA84A8F0EE28F8EF3400F9E82432
:101AB30038F582E93400F583E0F97F040217D57421
:101AC300F5121729EAFEEBFFEE2434F582EF34001A
:101AD300F583E0C0E0EE2435F582EF3400F583D0E2
:101AE300E0F08E828F83A3A3A3A3A3A3A3C082C08A
:101AF300838E828F83A3A3A3A3A3E0F8A3E0F9D0EB
:101B030083D082E0C398F508A3E099F509EE248019
:101B1300F582EF3400F583E064017069EE2481F50A
:101B230082EF3400F583E0F8A3E0F98E828F83A37C
:101B3300A3A3A3A3A3A3E0FCA3E0FD8E828F83A3AF
:101B4300A3A3A3A3E0FAA3E0FBC3EA9CEB9D502766
:101B5300C3EC98ED99402EC3EA98EB9950277CE2A9
:101B63007D07EEFAEFFB120A6DEE2480F582EF3467
:101B730000F583E4F0800EC3EA98EB9940E0C3ECF0
:101B830098ED9950D9EE2434F8EF3400F9E8FCE9E4
:101B9300FDEE2435F582EF3400F583E0F8EE2437CB
:101BA300F582EF3400F583E0F50AE508850AF0A431
:101BB300F508AAF0850AF0E509A42AF509E825083D
:101BC300F8E43509F97A257B001215DBEA8C828D5E
:101BD30083F05407F87401B800028004C333D8FCBF
:101BE300C0E0E0131313541FF8EE28F8EF3400F9A4
:101BF300E8245DF582E93400F583D0E0F8E058602D
:101C030008EE2434F582EF801EEE2436F582EF349D
:101C130000F583E0F5F0EA84A8F0EE28F8EF34004D
:101C2300F9E82438F582E93400F583E0F9122291CA
:101C3300021ABD0000851B87851CC622C0E0C0D0E8
:101C4300E8C0E0E9C0E0EAC0E0EBC0E0ECC0E0EDF2
:101C5300C0E0C008C009C00AC00BC082C083C0F086
:101C6300759B00906182E0A2E64003021D1DE59191
:101C7300A2E64003021D1D7591BF900499E064051F
:101C83007008120BF3120BFF8003120BF9751B0084
:101C9300120C5FE990049AF07900120C411209DDED
:101CA3007A017B00900498E0F9120F47907803E0E3
:101CB30064426003021D66900817E014F06003029B
:101CC3001D66C2AF121CCA00781ED0E0F618D0E021
:101CD300F6E59F5407F970059082D08003908284C3
:101CE3007808121536E9C4C0E0781DE65508F508F2
:101CF30008E65509F509740B7808121644D0E02557
:101D030008F8906270E0A2E740F8E8C3339062728B
:101D1300F0906270E0D2E0F08049E0A2E55024E563
:101D230091A2E5501E7591DF900499E0640D701344
:101D33009004BBE004F064287002E4F07A00E0F958
:101D4300120CEF906181E0A2E35009E5E9A2E350B0
:101D53000375E9F7A3E0A2E75009E591A2E7500371
:101D630075917FD0F0D083D082D00BD00AD009D028
:101D730008D0E0FDD0E0FCD0E0FBD0E0FAD0E0F901
:101D8300D0E0F8D0D0D0E032C0E0C0D0C082C08371
:101D9300906183E0A2E05009E5BFA2E0500375BF64
:101DA300FEE0A2E15009E5BFA2E1500375BFFDE0EB
:101DB300A2E25009E5BFA2E2500375BFFBE0A2E334
:101DC3005009E5BFA2E3500375BFF7E0A2E4500951
:101DD300E5BFA2E4500375BFEFE0A2E55009E5BFFC
:101DE300A2E5500375BFDFE0A2E65009E5BFA2E616
:101DF300500375BFBFD083D0828088C0E0C0D0E8D5
:101E0300C0E0E9C0E0EAC0E0EBC0E0ECC0E0EDC058
:101E1300E0C0F0E5A7A2E6500FE5A1A2E650095302
:101E2300A7BF75A1BF121E63E5A7A2E5500CE5A1EC
:101E3300A2E5500653A7DF75A1DFE5A7A2E150098C
:101E4300E5A1A2E1500375A1FDE5A7A2E2500CE5CF
:101E5300A1A2E2500653A7FB75A1FBD0F0021D74AB
:101E630074F8121729751B01900499E06406701524
:101E7300120B9F8A828B83A3A3A3A3A3A3E0FAA33A
:101E8300E0FB120BE1A2AFE433FED2AF90049FE07C
:101E9300640170187A207B00900498E0F9120FCB4C
:101EA3007A207B00900498E0F9120F4D906182E054
:101EB300D2E6F0900816E0602185C61C80169004D7
:101EC3009EE064017008E5C654F84405F5C653BEA8
:101ED300FC121C387401651B60E4EEA2E092AF7F34
:101EE300010217D574EB12172974FA1216668A08C1
:101EF3008B098C148D15900499E024F7C394055035
:101F0300069082DC022049120B9F8A0A8B0BAE0AD1
:101F1300AF0BEE4F7003022046AC08AD0985188263
:101F2300851983AA82AB83120C118E828F83A3A39C
:101F3300780812153690825478081214FD85188299
:101F4300851983780C121536908254780C1214FD7F
:101F53007808790C121322501F7808790C1214C2D6
:101F630090829C7808121342404785081085091116
:101F7300850A12850B138041850C10850D11850E82
:101F830012850F13781079081214C290829C78106E
:101F9300121342501C751000751100751200751351
:101FA300017810790C1214C2781079081214898000
:101FB300089082DC78101215367409781012146AAE
:101FC3009082987808121536781079081213E18EEA
:101FD300828F83A3A3A3A3A3A3E0F8A3E0F97AD0FA
:101FE3007B031215DB88088909E4F50AF50B7810E1
:101FF300790812148974041216B1E0F8A3E0F97A8F
:10200300D07B031215DBE8FA8A08E4F50978107926
:10201300081213225007781079081214C2900499F9
:10202300E06408600AE064066005E06405701C90E3
:1020330082907810121342501290828C78101214EE
:102043009C800890824C7810121536851482851571
:10205300837810121545740612167C7F0E0217D56D
:1020630074F7121729120C23900814E064017010FE
:10207300906245E4F0A3F053F4F343FE0C5390F362
:10208300120BCFE5C654804449F5C6E59E547F64E0
:102093004970F8906185740FF0900812E0F47002B3
:1020A300A3E0604E900813E0600814601B14602ED8
:1020B3008040750801750900900812E0780812162F
:1020C30053E508F45280802A7508017509009008C9
:1020D30012E07808121653E508F45290801475083C
:1020E30001750900900812E07808121653E508F408
:1020F30052A079007F020217D574F7121729E9FE5F
:10210300EAFF74016E700C7A807B00900498E0F90A
:10211300120F47902304E493F46008E493F912093F
:10212300D1800953C680E59E547F70FA120BD59077
:102133000814E0640170031209E9900812E0F470D6
:1021430002A3E0604B900813E0600814601A146067
:102153002C803D750801750900900812E07808127B
:102163001653E50842808028750801750900900818
:1021730012E07808121653E508429080137508019F
:10218300750900900812E07808121653E50842A07A
:10219300120C23120B9F8A088B09A808A909E84986
:1021A3006015E5E170FCE82414F582E93400F58359
:1021B300E0F46003E0F5E174016F700A7A019004C2
:1021C30098E0F9120F9B0220F774F11217298A087D
:1021D3008B098C0A8D0B740F1216B1780C121536FD
:1021E30090825478081214FD908254780C1214FDD6
:1021F3007808790C12132250157808790C1214C23E
:1022030090829C7808121342401579018013780C50
:1022130079081214C290829C780C12134240EB7915
:10222300007F080217D574ED1217298A088B098CD1
:102233000A8D0B74131216B1780C12153690825452
:1022430078081214FD908254780C1214FD780C79DE
:102253000812132240117808790C1214C2AA08AB91
:1022630009AC0AAD0B8022751000751100751200C0
:102273007513017810790C1214C2781079081214AE
:1022830089AA10AB11AC12AD137F0C0217D5C08213
:10229300C083E9906000F0D083D08222C0E074F262
:1022A300121815A2AFE433FED2AFE589A2E15003C1
:1022B300121181758900C2C5751A00EEA2E092AFB2
:1022C3007F01021874C0E074F2121815A2AFE43350
:1022D300FED2AFE58BA2E05003121181758B00C2D1
:1022E300E880D5C0E0C0D0E8C0E0E5A8D2AFC2C75F
:0F22F300751A00A2E792AFD0E0F8D0D0D0E03259
:10230400FFFFFFFFFFFFFFFFC082C0839061907457
:1023140004F0A37448F0A37402F09061807440F058
:102324009061BC7403F09061877419F090626574D5
:102334001BF090619C740DF090619A7433F0A37457
:1023440055F09061A0743AF0900814E064017009AB
:10235400C29190049D7467800590049D7461F0900F
:10236400230AE493906186F0902304E493F46027B5
:10237400E493540FF8906185E0686012E5C65480D8
:102384004449F5C6E59E547F644970F8E8F053C6A5
:1023940080E59E547F70FA7905120CD1022796C00D
:1023A40082C083E9540FF9906185E0696012E5C643
:1023B40054804449F5C6E59E547F644970F8E9F0B9
:1023C40053C680E59E547F70FA022796C082C0836C
:1023D400E5A8F853A87E906181E4F0A3F0A3F0C2CD
:1023E400BA539AFEC289759B00C2C275E900759101
:1023F4000075BF0075A91175B905906181F0A374CA
:10240400C0F0A3E4F0D2BA439A0174805842A802FF
:102414002796C082C08374F812166690049BE0F875
:10242400A3E0F9E849700302254490049BE054407A
:1024340060237908851882851983AA82AB83120ADE
:10244400DF851882851983AA82AB831207C19004A1
:102454009BE054BFF0E054806010790C7A387B081C
:10246400120ADF90049BE0547FF0E0A2E050319028
:10247400619A7433F0A37455F09061A0743AF090AB
:102484000814E064017009C29190049D746780058A
:1024940090049D7461F01207C790049BE054FEF011
:1024A400E05402603190619A743FF0A3745AF09042
:1024B40061A0747FF0900814E064017009D29190D7
:1024C400049D7471800590049D746AF01207C7908E
:1024D400049BE054FDF0E054046013902308E4935B
:1024E400906186F01207CD90049BE054FBF0E05419
:1024F400086013902309E493906186F01207CD904D
:10250400049BE054F7F0E05410601390230AE49322
:10251400906186F01207CD90049BE054EFF0E054F4
:1025240020600A1207CD90049BE054DFF0A3E0542E
:1025340001600D1209E91207D390049CE054FEF0E7
:10254400740812167C02279674EC1216BD74F412E9
:102554001666851882851983AC82AD83758382756E
:10256400827C740412157990230893F46003022684
:10257400D9907808E0C3940250030226B974041277
:1025840016B1AC82AD8375838275821F74081215EF
:1025940079851882851983858212858313740412C0
:1025A40016B1AC82AD83750EFF750FFF7FFF7E0001
:1025B400750C48750D78801574086E700302264CEE
:1025C40074096E700302264C740A6E607B850C825B
:1025D400850D8378081215368C828D83A909E50A46
:1025E400C9F8881074187808121451E5104508F8D1
:1025F400C3E098A3E099850C82850D8378081215B1
:102604003640188C828D8374187808121451E510A2
:102614004508F8E0C398F8A3E0801C741878081201
:102624001451E5104508FAE9FB8C828D83E0F8A388
:10263400E0F9EAC398F8EB99F9C3E8950EE9950F28
:102644005006880E890FEEFF0EE50C2404F50CE508
:102654000D3400F50DEEC3941350030225BC74FF32
:10266400650E700474FF650F60238F087402780888
:1026740012165374482508F58274783509F5837861
:1026840008121536851282851383E508F0EC2402BE
:102694000C0CED3400FD851282851383A385821210
:1026A400858313740C1216B1E5826C7003E5836D97
:1026B40060030225AA75080175090078081218D06C
:1026C40074021216B1AC82AD837AC27B0812115720
:1026D400740212167C740C12167C7F0C02178FC0C5
:1026E40082C0839061AE7468F0A3746AF09062450E
:1026F40074FBF0A304F053F4FD43FE029008147439
:1027040001F09061A0E0643A90619A70237433F010
:10271400A37455F09061A0743AF0740164017009D7
:10272400C29190049D7467802890049D74618021F7
:10273400743FF0A3745AF09061A0747FF074016444
:10274400017009D29190049D7471800590049D7468
:102754006A8000F0022796C082C0839007F2E0648A
:102764000170159007F8E064016009E0700AA3E0C5
:1027740064017004790C8012900809E06401700807
:1027840090080FE0640160EC7900022796E0F912EA
:102794002291D083D082020135C082C0839007FC8D
:1027A4007425F09007FA7401F0A3E4F07A01FB12A7
:1027B4000C4D9007E8E02416F8A3E03400F9888271
:1027C4008983740DF0A3740AF09007F9E064017032
:1027D400169007F8E070107901120CAD120C7D12FE
:1027E4000CA77900120CB980A9C082C08374FA12B4
:1027F40016669007F1E0640170081209F59007F17C
:10280400E4F075E1F19007E8E02415F8A3E0340062
:10281400F9888289837401F09007F3E0640170768B
:10282400908246C082851882851983AC82AD8375F7
:102834008382D082740612157975D90D9007EAE067
:10284400C4333354C04403F5D978E87907888289BE
:1028540083A3A3A3E0F5D988828983A3A882A9834B
:10286400E864EE7003E9640770E3851882851983D0
:10287400A882A98388828983E0F5D9A3A882A98341
:1028840074061216B1E582687003E5836970E57514
:10289400E195790180027900120C5390102A745743
:1028A400F0A3740BF0A3745DF0A3740BF0A374573E
:1028B400F0A3740BF0A37457F0A3740BF0A3742764
:1028C400F0A3740BF0A37427F0A3740BF0A3746348
:1028D400F0A3740BF09010387427F0A3740BF0A3DA
:1028E4007427F0A3740BF0A37427F0A3740BF0A364
:1028F4007427F0A3740BF0A37427F0A3740BF0A354
:102904007427F0A3740BF09007EAE0F97AEB7B07E5
:10291400120C2F9007FCE0F91222917901120C5944
:10292400908260121554120C719082781215541210
:102934000C3B7900120CC59007E8E02414F8A3E0DE
:102944003400F9888289837416F09004997405F030
:102954000402254674F71216BD8908A808E875F024
:1029640006A4C8AAF02AF974C928FE740439FF9091
:102974000801E0F97A027B08120C2F90080FE0702E
:102984001A7900120C8F9007DBE0700B79007ADC67
:102994007B07120C358009790180F37901120C8FC1
:1029A40075E1F175D923900801E0C4333354C04470
:1029B40005F5D978FF790788828983A3A3A3E0F575
:1029C400D988828983A3A882A983E864057003E96E
:1029D400640870E375D90075D90075D90075D900FC
:1029E40075D90075D900EEF8EFF9E82404FAE93452
:1029F40000FBE82422F582E93400F583E0F5D98868
:102A0400828983A3A882A983EA687002EB6970E2D1
:102A1400EEF8EFF9E824031AE93400FBE82426F57C
:102A240082E93400F583E0F5D988828983A3A882FA
:102A3400A983EA687002EB6970E2EE242BF582EF59
:102A44003400F583E0F5D9EEF8EFF9E824021AE949
:102A54003400FBE8242CF582E93400F583E0F5D951
:102A640088828983A3A882A983EA687002EB6970CB
:102A7400E2EEF8EFF9E8242EF582E93400F583E07C
:102A8400F5D988828983A3A882A983EA687002EBB6
:102A94006970E2EEF8EFF9E82430F582E93400F5E4
:102AA40083E0F5D988828983A3A882A983EA687020
:102AB40002EB6970E2EEF8EFF9E82432F582E934CA
:102AC40000F583E0F5D988828983A3A882A983EAE3
:102AD400687002EB6970E2EEF8EFF9E824050A0A7F
:102AE4000AE93400FBE8245DF582E93400F583E06B
:102AF400F5D988828983A3A882A983EA687002EB46
:102B04006970E2EE2437F582EF3400F583E0541F58
:102B1400F8EE242AF582EF3400F583E0C43354E060
:102B240048F5D975E19590102A742DF0A3740BF033
:102B3400A37433F0A3740BF0A37427F0A3740BF005
:102B4400A37427F0A3740BF0A37427F0A3740BF001
:102B5400A37427F0A3740BF0A37439F0A3740BF0DF
:102B64009010387427F0A3740BF0A37427F0A374A7
:102B74000BF0A37427F0A3740BF0A37427F0A374D1
:102B84000BF0A37427F0A3740BF0A37427F0A374C1
:102B94000BF090080EE0F912229190826012155405
:102BA400120C71908278121554120C3B90600DE453
:102BB400F07901120CC59004997406F00231B374D3
:102BC400EC1216BD9007FFE0F8A3E0F5838882A31A
:102BD400A37810121536900810E0FAF875F006A4E0
:102BE400C8ACF02CF974F728F582740439F583E045
:102BF400FEA3E0FFEEC333FEEF33FF8E0CF50D753D
:102C04000E00750F0085100885110985120A8513B9
:102C14000B9082F8780812149C78081218CC85104E
:102C24000885110985120A85130B7808790C12148A
:102C3400897810790C1213E1E4F50EF50F78087910
:102C44000C1214C28A0C750D007403780C121653FE
:102C54007808790C12148990825478081214FDAA09
:102C640008AB09AC0AAD0B122229740412167C8A33
:102C7400088B09A808A909C3EE98EF995006E82E15
:102C8400F8E93FF9E890600EF0E9A3F0EEA3F0EF65
:102C9400A3F090600D74C1F00226DEC082C0839060
:102CA40007E8E0F8A3E0F5838882A3A3A3A3A3A382
:102CB400E4F0A3F09007FC022791C082C083900740
:102CC400FFE0F8A3E0F5838882A3A3A3A3A3A3E46E
:102CD400F0A3F090080E02279102013574F6121643
:102CE400BD9061D0E0F87480C398FCEA2483F58237
:102CF400EB3400F583E06004780480027800E82473
:102D04000EF8ECC3985003022E617E0C900818E470
:102D1400F0EA2477F582EB3400F583E0900819F0AB
:102D2400EA2478FCEB3400FD781A79087F028C825F
:102D34008D83E088828983F08C828D83A3AC82ADFD
:102D44008388828983A3A882A9831FEF70E0EA2481
:102D54007AFCEB3400FD7F028C828D83E0888289CB
:102D640083F08C828D83A3AC82AD8388828983A314
:102D7400A882A9831FEF70E0EA247CFCEB3400FDF9
:102D84007F028C828D83E088828983F08C828D839C
:102D9400A3AC82AD8388828983A3A882A9831FEF11
:102DA40070E0EA247EFCEB3400FD7F028C828D838C
:102DB400E088828983F08C828D83A3AC82AD838882
:102DC400828983A3A882A9831FEF70E0EA2475FC9B
:102DD400EB3400FD8A828B83A3A3A3A3A3E0F508AD
:102DE400A3E0F5098C828D83E02508F0A3E0350982
:102DF400F07F028C828D83E088828983F08C828DBF
:102E040083A3AC82AD8388828983A3A882A9831F0C
:102E1400EF70E0EA2483F582EB3400F583E0601977
:102E240075081875090878081218D07C0C790312F3
:102E34000B1B740212167C7E1074012EF5D975D901
:102E440003758218758308EEFFE0F5D9A31FEF70B0
:102E5400F875E1957904120C777901800279000202
:102E6400339574F61216BD9061D0E0F87480C3985F
:102E7400FCEA2483F582EB3400F583E060047804F3
:102E840080027800E8240AF8ECC3985003022F5615
:102E94007508089008187401F07CE27D07781979A8
:102EA400087E058C828D83E088828983F08C828DF4
:102EB40083A3AC82AD8388828983A3A882A9831E5D
:102EC400EE70E0EA2481FCEB3400FD8A828B83A35C
:102ED400A3A3A3A3E0FEA3E0FF8C828D83E02EF0E6
:102EE400A3E03FF07E028C828D83E088828983F0A8
:102EF4008C828D83A3AC82AD8388828983A3A882CC
:102F0400A9831EEE70E0EA2483F582EB3400F58396
:102F1400E0601A75081875090878081218D07C083A
:102F24007903120B1B740212167C75080C740125AC
:102F340008F5D975D903758218758308AE08E0F5CC
:102F4400D9A31EEE70F875E1957904120C77790116
:102F54008002790002339574F71216BDEAFEEBFF86
:102F64009061D0E0600302305275D91875D90375A9
:102F7400D903EEF8EFF9E82408FAE93400FBE82471
:102F84009CF582E93400F583E0F5D988828983A32E
:102F9400A882A983EA687002EB6970E2EEF8EFF99F
:102FA400E82402FAE93400FBE824A4F582E93400B9
:102FB400F583E0F5D988828983A3A882A983EA6886
:102FC4007002EB6970E2EE2494F582EF3400F5832D
:102FD400E5822408F8E5833400F9E0F5D9A3E8652F
:102FE400827003E9658370F2EE2488F582EF340081
:102FF400F583E5822404F8E5833400F9E0F5D9A3E8
:10300400E865827003E9658370F275E1957908EEED
:103014002494FAEF3400FB120AD37904EE2488FADC
:10302400EF3400FB120AD37904120C77EE2470F506
:1030340082EF3400F583E0F8A3E0F9EE2472F58220
:10304400EF3400F583E8F0A3E9F079018002790018
:103054000231B374F61216BDEAFEEBFF9008187441
:1030640006F075081875090878081218D07C0179DB
:1030740003120B1B740212167C75D90675D90375DD
:103084008218758308E0F5D9A3E582641D7004E510
:1030940083640870F075E195900499E06408701EEB
:1030A400EE2470F582EF3400F583E0F8A3E0F9EE46
:1030B4002472F582EF3400F583E8F0A3E9F0790196
:1030C40002339574F61216BDEAFEEBFF9061D0E070
:1030D400705E900818740AF0750818750908780865
:1030E4001218D07C017903120B1B740212167C7522
:1030F400D90675D903758218758308E0F5D9A3E557
:1031040082641D7004E583640870F075E195EE2413
:1031140070F582EF3400F583E0F8A3E0F9EE247251
:10312400F582EF3400F583E8F0A3E9F07901800239
:10313400790002339574F61216BDEAFEEBFF906136
:10314400D0E070667801900818740BF0900499E050
:103154006407701975081875090878081218D07C66
:10316400017903120B1B740212167C780574012872
:10317400F5D975D903758218758308E8FAE0F5D98D
:10318400A31AEA70F875E195EE2470F582EF340025
:10319400F583E0F8A3E0F9EE2472F582EF3400F54C
:1031A40083E8F0A3E9F07901800279000233957F86
:1031B4000102178F74F61216BDEAFEEBFF9061D080
:1031C400E0F87480C398FAEE2483F582EF3400F5B6
:1031D40083E06004780480027800E8240BF8EAC3F2
:1031E40098500302328E7D099008187408F0EE247A
:1031F400E5F8EF3400F97A197B087C088882898322
:10320400E08A828B83F088828983A3A882A9838A37
:10321400828B83A3AA82AB831CEC70E0EE2483F53B
:1032240082EF3400F583E0601D750818750908788D
:10323400081218D07C097903EEFAEFFB120B1B7409
:103244000212167C7D0D74012DF5D975D903758292
:10325400187583088D08E0F5D9A31508E50870F6FC
:1032640075E1957904120C77EE2470F582EF340041
:10327400F583E0F8A3E0F9EE2472F582EF3400F56B
:1032840083E8F0A3E9F079018002790002339574B0
:10329400F61216BDEAFEEBFF9061D0E0F87480C32D
:1032A40098FAEE2483F582EF3400F583E060047825
:1032B4000480027800E82408F8EAC3985003023333
:1032C400937D06900818740CF09004B6E0900819E9
:1032D400F07AB77B04781A79087C028A828B83E0BF
:1032E40088828983F08A828B83A3AA82AB838882B3
:1032F4008983A3A882A9831CEC70E07AB97B047C3F
:10330400028A828B83E088828983F08A828B83A3FA
:10331400AA82AB8388828983A3A882A9831CEC70C8
:10332400E0EE2483F582EF3400F583E0601D750838
:103334001875090878081218D07C067903EEFAEF9C
:10334400FB120B1B740212167C7D0A74012DF5D935
:1033540075D9037582187583088D08E0F5D9A3150E
:1033640008E50870F675E1957904120C77EE24707F
:10337400F582EF3400F583E0F8A3E0F9EE2472F56A
:1033840082EF3400F583E8F0A3E9F0790180027953
:10339400007F0202178F74F61216BDEAFEEBFF904F
:1033A40061D0E0F87480C398FAEE2483F582EF3498
:1033B40000F583E06004780480027800E82404F8CF
:1033C400EAC39850030234747802900818E8F0EEC7
:1033D40024F7F582EF3400F583E0900819F0EE2429
:1033E40083F582EF3400F583E0601B7508187509D6
:1033F4000878081218D07C027903EEFA120B1B74B9
:103404000212167C7806740128F5D975D9037582E1
:10341400187583088808E0F5D9A31508E50870F63F
:1034240075E195EE2474F582EF3400F583E4F0EE53
:103434002480F582EF3400F583E4F0EE241DF58258
:10344400EF3400F583E4F0A3F07904120C77EE2452
:103454000DF582EF3400F583E0F8A3E0F9EE247271
:10346400F582EF3400F583E8F0A3E9F079018002F6
:10347400790002339574F61216BD9061D0E0F874A9
:1034840080C398FCEA2483F582EB3400F583E06082
:1034940004780480027800E82404F8ECC398405BC4
:1034A40079029008187407F0EA24F8F582EB3400E6
:1034B400F583E0900819F0EA2483F582EB3400F5F3
:1034C40083E0601875081875090878081218D07C0C
:1034D4000209120B1B740212167C7906740129F579
:1034E400D975D903758218758308E9F8E0F5D9A36D
:1034F40018E870F875E19579018002790002339536
:1035040074F51216BDE9FCA2AFE433F50AC2AF7D2F
:103514000080010DEA246FF582EB3400F583E0F8B6
:10352400EDC398501A8D08EA2508F8EB3400F9E841
:10353400246BF582E93400F583E06C70D68024EACC
:10354400246FF8EB3400F9E0FEEA2EFAEB3400FBCA
:10355400EA246BF582EB3400F583ECF088828983EE
:10356400E004F0E50AA2E092AF7F0302178F74F63D
:103574001216BDA2AFE433FDC2AFEA246FF582EBAD
:103584003400F583E014F07C0060368C08EA2508EA
:10359400F8EB3400F9E8246CF582E93400F583E0B3
:1035A400C0E0E8246BF582E93400F583D0E0F00C48
:1035B400EA246FF582EB3400F583E0F8ECC398401D
:1035C400CAEA246EF582EB3400F58374FFF0EA2432
:1035D4006AF582EB3400F583E4F0EDA2E092AF02E9
:1035E4003395C082C083E5A8F8C2AFEA246BF582A4
:1035F400EB3400F583E9F0EA246AF582EB3400F554
:1036040083E4F0E8A2E792AF02279674F31216BDA2
:10361400EAFEEBFFECFAEDFB8A828B83A3A3A3A360
:10362400E0541FF0EE2436F582EF3400F583E4F025
:10363400F50AEEFCEFFD8A828B83E0C0E0EC245DAA
:10364400F582ED3400F583D0E0F0750B00E50A3324
:10365400333354F8F50C8A828B83E0F5087509003E
:10366400E50B7808121634E508A2E0502FEE243654
:10367400F8EF3400F988828983E0F508EE2508F52F
:1036840008EF3400F509E5082438F582E50934002B
:10369400F583E50CF088828983E004F0050B050CC2
:1036A400E50BC3940840AF050A8A828B83A3AA82E0
:1036B400AB838C828D83A3AC82AD83E50AC394056E
:1036C400500302363A7F0502178F74F71216BD9025
:1036D40004C5E0640370077A007B000231B37B0009
:1036E40078C5790488828983A3A3A3A3A3A3E060F4
:1036F400030239C8EBF875F006A4C8AAF02AF974D5
:10370400C928F8740439F988828983A3A37401F061
:1037140088828983A3A3A3E4F0EB88828983A3A38B
:10372400A3A3F0E82462F582E93400F5837401F080
:10373400E82465F582E93400F583E4F0A3F0E82495
:1037440068F582E93400F5837401F088828983A3E3
:10375400A3A3A3A3E4F0A3F088828983A3A3A3A3D0
:10376400A3A3A3F0A3F0E8240FF582E93400F583C2
:103774007401F0E82435F582E93400F583E4F0902F
:10378400824C121554E82418F582E93400F58312AA
:103794001560E8241CF582E93400F583E4F0E8249C
:1037A4001DF582E93400F583E4F0A3F0E82480F504
:1037B40082E93400F583E4F0E82474F582E9340006
:1037C400F583E4F0E82469F582E93400F583748034
:1037D400F0E8246AF582E93400F583E4F0E8246F24
:1037E400F582E93400F583E4F0E82467F582E934EE
:1037F40000F583E4F0E824EDF582E93400F583E490
:10380400F0E824EEF582E93400F583E4F0E824EFEF
:10381400F582E93400F583E4F0E824F0F582E93434
:1038240000F583E4F0E824F1F582E93400F583E45B
:10383400F0A3F0E824F3F582E93400F583E4F0A37F
:10384400F0E824F6F582E93400F583E4F0E8248313
:10385400F582E93400F583E4F0E824D3F582E93411
:1038640000F583E4F0E824D4F582E93400F583E438
:10387400F090824C121554E824D5F582E93400F511
:103884008312156090824C121554E824D9F582E90C
:103894003400F583121560E824DFF582E93400F57D
:1038A40083E4F0E824E1F582E93400F583E4F0E808
:1038B40024DDF582E93400F583E4F0E824E2F582BE
:1038C400E93400F583E4F0E824E3F582E93400F513
:1038D40083E4F0E824F9F582E93400F583E4F0A305
:1038E400F0E824FBF582E93400F583E4F0A3F0E882
:1038F40024FDF582E93400F583E4F0A3F0E824FF25
:10390400F582E93400F583E4F0A3F0E8FAE9FBEA90
:103914002404FCEB3400FDEA246BF582EB3400F55F
:103924008374FFF08A828B83A3AA82AB83EC6A70D0
:1039340002ED6B70E2E8FAE9FB7CE27D078C828D94
:1039440083E0C0E0EA245DF582EB3400F583D0E047
:10395400F08C828D83A3AC82AD838A828B83A3AAED
:1039640082AB83EC64E77003ED640770D0E8FAE996
:10397400FB7CAC7D048C828D83A3E0C0E0EA24E56B
:10398400F582EB3400F583D0E0F08C828D83A3AC18
:1039940082AD838A828B83A3AA82AB83EC64B470E6
:1039A40003ED640470CF9004C5E004F06401700D6D
:1039B40088828983A3A3A3A3E09004C7F0E8FAE96B
:1039C400FB0236DF0BE82406F8E93401F9EBC39473
:1039D4000340030236DB0236E8C082C0838A828B4E
:1039E40083A3A3A3E0600F8A828B83A3A3A3E4F041
:1039F4009004C6E014F09004C5E014F0700690043E
:103A0400C774FFF08A828B83A3A3E4F09007E7E0F6
:103A1400700D9004C6E0640170057900120C410237
:103A24002796C082C08378C5790488828983A3A33A
:103A3400A3A3A3A3A3E4F088828983A3A3A3A3A33A
:103A4400A3F0E82406F8E93401F9E864D77003E93F
:103A5400640770D69004C5E4F0A3F0A374FFF07576
:103A6400E1F102279674F31216BD7508007509007A
:103A7400750C00750AC9750B04AE0AAF0B8E828FE4
:103A840083A3A3A3E0603FE5084509700AEEF8EFBD
:103A9400F988088909802F850882850983E0F8A3BD
:103AA400E0F5838882A3A31218E38E828F83E0F863
:103AB400A3E0F5838882A3A31215541221CC7404C5
:103AC40012167CE960C7050CEE2406F50AEF3401F2
:103AD400F50BE50CC3940340A0850882850983A3F4
:103AE400A3A3A3E0F90236C974F61216BD78FF79D0
:103AF400FF7508007EC97F04EEFCEFFD8C828D8388
:103B0400A3A3A3E0606474FF68700374FF69702565
:103B1400EC2474F582ED3400F583E064017011EC5B
:103B2400247AF582ED3400F583E0F8A3E0F9803AD5
:103B3400EC242E80EDEC2474F582ED3400F583E062
:103B440064017014EC247AF582ED3400F583C3E04B
:103B540098A3E099501480C7EC242EF582ED34002C
:103B6400F583C3E098A3E09940C60508EE2406FE59
:103B7400EF3401FFE508C394035003023AFCC3EA9F
:103B840098EB994004E8FAE9FB02339574F61216AF
:103B9400BDEAFEEBFF8E828F83A3A3A3E0600F8EAA
:103BA400828F83A3A3A3E4F09004C6E014F09004EE
:103BB400C5E014F070069004C774FFF08E828F8302
:103BC400A3A3E4F09007E7E0700D9004C6E064015D
:103BD40070057900120C41EE2465F582EF3400F58E
:103BE40083E0F8A3E0F9E8496029EE2465F8EF34AE
:103BF40000F9880889098882F583E0FCA3E0FD9038
:103C040004C7E0FA7B001207F7850882850983E47C
:103C1400F0A3F0EEFAEFFB120B9902339574F7124E
:103C240016BDEAFEEBFF8E828F83A3A3A3A3E0FA63
:103C34007B0012083FEEFAEFFB120A91120B7B0293
:103C440031B3C082C0837C007AC97B04EAF8EBF903
:103C540088828983A3A3A3E0601EE8246FF582E928
:103C64003400F583E06011E8246BF582E93400F553
:103C740083E07004790180110CEA2406FAEB340124
:103C8400FBECC3940340C57900022796C082C0832D
:103C940078AC790488828983A3E4F088828983A339
:103CA400A882A983E864B47003E9640470E690040C
:103CB400AD7401022757C082C08374FC121666904B
:103CC400824C121554851882851983121560120AC4
:103CD400D9E9851882851983F0120AD9740112165C
:103CE400B1E9F0120AD974021216B1E9F08518820A
:103CF400851983121554740402254674F61216BDF0
:103D0400EAFEEBFFEC2403F8ED3400F98808890996
:103D1400EC2407F8ED3400F9E8FCE9FD8C828D838E
:103D2400E0F8A3E0F9850882850983E0FAA3E0FBC3
:103D34001215DBEE240DF582EF3400F583E8F0A3D1
:103D4400E9F08C828D83E0F8A3E0F9850882850987
:103D540083E0FAA3E0FB1215DB8B09EA4509601343
:103D6400EE240DF582EF3400F583E02401F0A3E0A6
:103D74003400F002339574F61216BDEAFEEBFFEE42
:103D8400242EF582EF3400F583E0FCA3E0FD7800F7
:103D940079FAECFAEDFB1215DBEE2470F582EF34C0
:103DA40000F583E8F0A3E9F0780079FAECFAEDFB8A
:103DB4001215DB8B09EA45096013EE2470F582EFD6
:103DC4003400F583E02401F0A3E03400F0023395DD
:103DD40074F01216BDEAFEEBFF74101216B17808E7
:103DE400121536120C0B8A0C8B0D8C0E8D0F9082D3
:103DF400F0780C12149C908254780C1214FD780CF8
:103E04001218CC8E828F83E0F8A3E0F5838882A316
:103E1400A31215541221CC740412167CE960030217
:103E24003F218E828F83E02402F8A3E03400F9E876
:103E3400FAE9FB8A828B8378081214AF9082547853
:103E4400081215368A828B837808121510EE240B1B
:103E5400F582EF3400F583C082C0838E828F83A302
:103E6400A3A3A3A3E02401F8A3E03400F9D083D0F2
:103E740082E0687003A3E06970057901023F238E34
:103E8400828F83A3A3A3A3A3A3A3E02401F0A3E0AD
:103E94003400F0EE2474F582EF3400F583E064011D
:103EA4007036EE2475F582EF3400F583E0F8A3E074
:103EB400F98E828F83A3A3A3A3A3A3A3E0687003B3
:103EC400A3E0697013EE2475F582EF3400F583E006
:103ED4002401F0A3E03400F0EE2480F582EF3400F6
:103EE400F583E064017036EE2481F582EF3400F549
:103EF40083E0F8A3E0F98E828F83A3A3A3A3A3A3F3
:103F0400A3E0687003A3E0697013EE2481F582EFE7
:103F14003400F583E02401F0A3E03400F079007F5D
:103F24000802178F74F71216BD9004C7E0F875F0F5
:103F340006A4C8AAF02AF974C928FE740439FF80BB
:103F440028EE2465F8EF3400F988828983E0FCA325
:103F5400E0FD88828983E4F0A3F08E828F83A3A39B
:103F6400A3A3E0FA7B001207F7EE2465F582EF3491
:103F740000F583E0F8A3E0F9E849604FEE2464F526
:103F840082EF3400F583E0F50878081218D4EE24A3
:103F940063F582EF3400F583E0F9EE2465F582EFF2
:103FA4003400F583E0FCA3E0FDEEFAEFFB120AC750
:103FB400740112167CE96089EE2465F582EF340001
:103FC400F583E0F8A3E0F9E84970137C007D008EE6
:103FD400828F83A3A3A3A3E0FA7B001207F7023125
:103FE400B374F21216BDEAFEEBFF890A740E1216C0
:103FF400B1E0FAEE2462F582EF3400F583E0640167
:1040040060030240B19061D0E0F87480C398F50C6D
:10401400EE2483F582EF3400F583E06004780480B5
:104024000278008908E928F8E43400F9E824020851
:1040340008E93400F9E50C98E499A2D265D033403C
:1040440068EA7005750B028003750B01E060397531
:10405400090078081218D07A187B08120AFD740235
:1040640012167C75081875090878081218D0AC0A5D
:10407400A90BEEFAEFFB120B1B740212167C7404EC
:10408400250AF50A7C187D087401250AF5D9850BE3
:10409400D9E50A600D8C828D83F8E0F5D9A318E880
:1040A40070F875E195790080067907800279FF7FC1
:1040B4000602178FC082C083E960208C828D83E062
:1040C4008A828B83F08C828D83A3AC82AD838A82B7
:1040D4008B83A3AA82AB8319E970E0ECFAEDFB02AF
:1040E4002796C082C0837869790888828983A3A3CC
:1040F400A3A3A3A3E4F088828983A3A3A3A3A374A3
:10410400FFF0E82418F8E93400F9E864C97003E919
:10411400640870D690086B74FFF090086AE4F0901D
:104124000869F090086CF0A3F002580E74EC1216B3
:10413400BD90086CE0F508A3E0F509E508450970B1
:10414400061209DD024DDD850882850983E01460CD
:104154001814601524FE601124C4700302489F24BF
:10416400C0700302489F024DDDE0F9120B8D8A0AEC
:104174008B0BAE0AAF0B9004C6E0700302451D1210
:104184000A85E9F875F006A4C8AAF02AF974C928C2
:10419400F50C740439F50D850C82F583E0F50AA35A
:1041A400E0F50BAC0AFDEEFAEFFB120B87E9F50E16
:1041B4007402650E70030244DC8E828F83E024FE59
:1041C400600A24FE70030243D4024DDDEE650870DC
:1041D40003EF650960211209FB9007F9E06401709F
:1041E400169007F8E070107901120CAD120C7D12D4
:1041F4000CA77900120CB3E50E6021E5082415F52F
:1042040082E5093400F583E060129007F4E0F8A336
:10421400E0F9A3E0687003A3E0697026120C0B8A2E
:104224000C8B0D8C0E8D0F908274780C12149C9054
:104234008254780C1214FD8E828F83A3A3780C12FF
:104244001545E5082415F582E5093400F583E06495
:104254000160030242FA850A82850B83A3A3780CCA
:104264001215369082F4780C12149C780C1218CC27
:104274008E828F83A3A3C082C0839007F6E0F508E3
:10428400A3E085080CF50DE4F50EF50FD083D0827C
:10429400780C12149CAA0CAB0DAC0EAD0F1221CCF1
:1042A400740412167CE9703C8E828F83A3A3C082AF
:1042B400C0839007F6E0F508A3E0F509E4F50AF5F4
:1042C4000BD083D082780812149C90825478081200
:1042D40014FDEE240EF582EF3400F58378081215F0
:1042E400450243CC850A82850B83A3A37808121563
:1042F400369082F480CFEE240EF582EF3400F583FD
:104304001218E38E828F83A3A31215541221CC7446
:104314000412167CE9640160030243CC850A828599
:104324000B83A3A3780C1215369082F4780C121424
:104334009C780C1218CC8E828F83A3A3C082C08376
:104344009007F6E0F508A3E085080CF50DE4F50EFA
:10435400F50FD083D082780C12149CAA0CAB0DAC50
:104364000EAD0F1221CC740412167CE9701F8E82DC
:104374008F83A3A3C082C0839007F6E0F508A3E06F
:10438400F509E4F50AF50BD083D0828010850A8202
:10439400850B83A3A378081215369082F47808124B
:1043A400149C90825478081214FDEE240EF582EFCA
:1043B4003400F58378081215459007FCE0642770F3
:1043C4000474258002E004F090086B7402024DD559
:1043D400EE65087003EF65096031900810E0F9128A
:1043E4000A01850882850983E06402701E9007F93A
:1043F400E0640170169007F8E070107900120CADBB
:10440400120C7D120CA77901120CB3E50E60129008
:10441400080AE0F8A3E0F9A3E0687003A3E0697078
:1044240026120C0B8A0C8B0D8C0E8D0F90827478D7
:104434000C12149C908254780C1214FD8E828F837B
:10444400A3A3780C121545850A82850B83A3A37850
:104454000C1215369082F4780C12149C780C1218F5
:10446400CC8E828F83A3A3C082C08390080CE0F516
:1044740008A3E085080CF50DE4F50EF50FD083D004
:1044840082780C12149CAA0CAB0DAC0EAD0F122149
:10449400CC740412167CE9701F8E828F83A3A3C090
:1044A40082C08390080CE0F508A3E0F509E4F50A5E
:1044B400F50BD083D0828010850A82850B83A3A359
:1044C40078081215369082F4780812149C9082545D
:1044D40078081214FD024DBE850882850983E064C4
:1044E4000270139007F9E06401700B9007F8E07014
:1044F400057900120CADE50C2404FEE50D3400FF33
:104504008E828F83E0F9120BC38E828F83E0900436
:10451400C7F0AA0AAB0B024DDAEE65087003EF652B
:10452400098E828F836003024701E024FE600A241F
:10453400FE700302465C024DD6EE2415F582EF347C
:1045440000F583E060419007F4E0F8A3E0F9A3E00C
:10455400687003A3E069602F120C0B8A088B098C26
:104564000A8D0B9082CC780812149C78081218CC0F
:104574008E828F83A3A31215541221CC74041216B5
:104584007CE96003024DD6120C0B8A088B098C0A55
:104594008D0B908274780812149C908254780812BF
:1045A40014FD8E828F83A3A37808121545EE24157B
:1045B400F582EF3400F583E0640170348E828F83DA
:1045C400A3A3C082C0839007F6E0F508A3E0F50931
:1045D400E4F50AF50BD083D082780812149CEE24FB
:1045E4000EF582EF3400F5837808121545024DD696
:1045F400EE240EF582EF3400F5831218E38E828FD9
:1046040083A3A31215541221CC740412167CE964FA
:10461400016003024DD68E828F83A3A3C082C08320
:104624009007F6E0F508A3E0F509E4F50AF50BD0E8
:1046340083D082780812149CEE240EF582EF3400A5
:10464400F58378081215459007FCE064277005741B
:1046540025024DD5E00480F990080AE0F8A3E0F9BA
:10466400A3E0687003A3E069602C120C0B8A088B2A
:10467400098C0A8D0B9082CC780812149C7808124D
:1046840018CC8E828F83A3A31215541221CC7404E8
:1046940012167CE97064EE2402F508EF3400F50983
:1046A400120C0B8A0C8B0D8C0E8D0F908274780C6F
:1046B40012149C908254780C1214FD85088285098A
:1046C40083780C121545850882850983C082C083CE
:1046D40090080CE0F508A3E0F509E4F50AF50BD021
:1046E40083D082780812149CEE240EF582EF3400F5
:1046F400F5837808121545120A07024DD6E024FE08
:10470400600A24FE70030247C7024DDD1209FB90C4
:1047140007F9E0640170169007F8E070107901124F
:104724000CAD120C7D120CA77900120CB39007F497
:10473400E0F8A3E0F9A3E0687003A3E069602F1236
:104744000C0B8A088B098C0A8D0B9082CC7808128A
:10475400149C78081218CC8E828F83A3A31215544C
:104764001221CC740412167CE960030243CCEE24BB
:1047740002F508EF3400F509120C0B8A0C8B0D8C32
:104784000E8D0F908274780C12149C908254780CC5
:104794001214FD850882850983780C121545850855
:1047A40082850983C082C0839007F6E0F508A3E000
:1047B400F509E4F50AF50BD083D082780812149C2D
:1047C4000242D6900810E0F9120A01850882850990
:1047D40083E06402701E9007F9E06401701690078C
:1047E400F8E070107900120CAD120C7D120CA77950
:1047F40001120CB390080AE0F8A3E0F9A3E0687092
:1048040003A3E069602C120C0B8A088B098C0A8DB7
:104814000B9082CC780812149C78081218CC8E82E3
:104824008F83A3A31215541221CC740412167CE9AD
:104834007066EE2402F8EF3400F988088909120C36
:104844000B8A0C8B0D8C0E8D0F908274780C1214C5
:104854009C908254780C1214FD8508828509837813
:104864000C121545850882850983C082C08390088F
:104874000CE0F508A3E0F509E4F50AF50BD083D0C4
:1048840082780812149CEE240EF582EF3400F5832E
:104894007808121545120A07024DD09004C6E0703C
:1048A40003024C35120A85E9F875F006A4C8AAF08B
:1048B4002AF974C928F510740439F511851082F5A4
:1048C40083E0F508A3E0F5099004C7E0F875F00665
:1048D400A4C8AAF02AF974C928F50C740439F50D92
:1048E40090086AE054077003024B5EA3E0F9120BD0
:1048F4008D8A0A8B0BAE0AAF0BAC08AD09120B877D
:10490400E9F50E7402650E7003024B5E850C828518
:104914000D83A3A3A3A3E0F875F08AA4C8AAF02A80
:10492400F974CE28F50A740839F50BAA0AFB120BA0
:10493400B7AA0AAB0B120BB175128075130078126B
:104944001218D07C007D60E50A2406FAE50B3401D8
:10495400FB120AFD740212167CA80AA90B90619539
:10496400E0C0E0E82486F582E93401F583D0E0F084
:10497400906196E0C0E0E82487F582E93401F5838C
:10498400D0E0F0906197E0C0E0E82488F582E93453
:1049940001F583D0E0F0906198E0C0E0E82489F567
:1049A40082E93401F583D0E0F08E828F83E024FE27
:1049B400600A24FE7003024A99024B5E1209FB90BE
:1049C40007F9E0640170119007F8E0700B120C7D98
:1049D400120CA77900120CB3E50E60129007F4E0F4
:1049E400F8A3E0F9A3E0687003A3E0697026120C51
:1049F4000B8A0C8B0D8C0E8D0F908274780C121414
:104A04009C908254780C1214FD8E828F83A3A37819
:104A14000C121545850882850983A3A3780C121509
:104A2400369082F4780C12149C780C1218CC8E8276
:104A34008F83A3A3C082C0839007F6E0F50CA3E0A4
:104A4400F50DE4F50EF50FD083D082780C12149C8A
:104A5400AA0CAB0DAC0EAD0F1221CC740412167C53
:104A6400E9701F8E828F83A3A3C082C0839007F650
:104A7400E0F508A3E0F509E4F50AF50BD083D0824C
:104A84008010850882850983A3A3780812153690BF
:104A940082F40242C9900810E0F9120A01E50E609E
:104AA4001290080AE0F8A3E0F9A3E0687003A3E019
:104AB400697026120C0B8A0C8B0D8C0E8D0F908254
:104AC40074780C12149C908254780C1214FD8E820B
:104AD4008F83A3A3780C121545850882850983A3C7
:104AE400A3780C1215369082F4780C12149C780C6E
:104AF4001218CC8E828F83A3A3C082C08390080C2B
:104B0400E0F50CA3E0F50DE4F50EF50FD083D082AB
:104B1400780C12149CAA0CAB0DAC0EAD0F1221CC68
:104B2400740412167CE9701F8E828F83A3A3C08243
:104B3400C08390080CE0F508A3E0F509E4F50AF554
:104B44000BD083D0828010850882850983A3A37843
:104B5400081215369082F40244CCE510650C7004FA
:104B6400E511650D7003024C2E850C82850D83A31F
:104B7400A3A3E07003024C12850C82850D83A3A3CA
:104B8400A3A3E0F875F08AA4C8AAF02AF974CE2881
:104B9400FE740839FFEEFAEFFB120BB7EEFAEFFBE7
:104BA400120BB1750A80750B00780A1218D07C00BC
:104BB4007D60EE2406FAEF3401FB120AFD74021242
:104BC400167C906195E0C0E0EE2486F582EF340116
:104BD400F583D0E0F0906196E0C0E0EE2487F582A2
:104BE400EF3401F583D0E0F0906197E0C0E0EE246B
:104BF40088F582EF3401F583D0E0F0906198E0C04D
:104C0400E0EE2489F582EF3401F583D0E0F0E5107D
:104C14002404FEE5113400FF8E828F83E0F9120B29
:104C2400C38E828F83E09004C7F0AA08AB09024DBB
:104C3400DA90086AE054077003024DDDA3E0F9122C
:104C44000B8D8A088B09AE08AF098E828F83E0240E
:104C5400FE600A24FE7003024D24024DDD1209FB9E
:104C64009007F9E0640170169007F8E0701079017C
:104C7400120CAD120C7D120CA77900120CB3900724
:104C8400F4E0F8A3E0F9A3E0687003A3E069602C02
:104C9400120C0B8A088B098C0A8D0B9082CC780835
:104CA40012149C78081218CC8E828F83A3A3121539
:104CB400541221CC740412167CE97061EE2402F5BE
:104CC40008EF3400F509120C0B8A0C8B0D8C0E8D39
:104CD4000F908274780C12149C908254780C1214E5
:104CE400FD850882850983780C121545850882851F
:104CF4000983C082C0839007F6E0F508A3E0F509B4
:104D0400E4F50AF50BD083D082780812149CEE24C3
:104D14000EF582EF3400F58378081215450243CC72
:104D2400900810E0F9120A0190080AE0F8A3E0F9EB
:104D3400A3E0687003A3E069602C120C0B8A088B53
:104D4400098C0A8D0B9082CC780812149C78081276
:104D540018CC8E828F83A3A31215541221CC740411
:104D640012167CE97063EE2402F8EF3400F9880827
:104D74008909120C0B8A0C8B0D8C0E8D0F9082748A
:104D8400780C12149C908254780C1214FD850882BD
:104D9400850983780C121545850882850983C082AC
:104DA400C08390080CE0F508A3E0F509E4F50AF5E2
:104DB4000BD083D082780812149CEE240EF582EF77
:104DC4003400F5837808121545120A0790086B74AD
:104DD40004F0EEFAEFFB120B817F0C02178F74F0D4
:104DE4001216BDEAFEEBFFEE2402F8EF3400F98858
:104DF400088909EE2406F8EF3400F9880A890B883B
:104E040082F5831218E785088285098312155412E6
:104E14000BE7740212167C850A82850B831218E74D
:104E2400850882850983121554120BDB740212164D
:104E34007CEE240EF582EF3400F583121554120B28
:104E4400ED8E828F83E06440701CEE2412F8EF3400
:104E540000F988828983E0906064F088828983A362
:104E6400E09060658006906064E4F0A3F090086CC4
:104E7400EEF0A3EFF0EE2416F582EF3400F583E0B4
:104E8400F8A3E0F58388821216BB906054E4F0A383
:104E9400F0A3F0A3F0A3F0A3F0A3F0A3F0A3F0A376
:104EA400F0A3F0A3F0906182E0C2E6F07591BFEE4A
:104EB4002415F582EF3400F583E064017003120CCD
:104EC40023E5E170FCEE2414F582EF3400F583E071
:104ED400F46003E0F5E1EE2415F582EF3400F58388
:104EE4007401F090049FE06401706F120C0B8A0847
:104EF4008B098C0A8D0B78081218CC8E828F83A3B1
:104F0400A3121554122229740412167C8A088B09E0
:104F14008C0A8D0B9082E8780C1215367808790C7F
:104F240012136174037808121451E50824F4F50887
:104F3400E5093401F509900816E06003120F71E4E5
:104F4400F50AF50B78081218CC7A207B00900498A7
:104F5400E0F9120FBF740412167C7F0802178F74D5
:104F6400EC1216BDEAFEEBFF8C088D09EE4F7005BE
:104F74007902025058120C0B8A0C8B0D8C0E8D0F7B
:104F84009082DC780C12149C908254780C1214FDDC
:104F94008E828F83E06402701F9007F4E0F8A3E030
:104FA400F9A3E0687003A3E06970248E828F83A361
:104FB400A3780C1215458017E06404701290080A57
:104FC400E0F8A3E0F9A3E0687003A3E06960DC788B
:104FD4000C1218CC850882850983A3A312155412D8
:104FE4002229740412167C8A108B118C128D139052
:104FF40082E478101213424003024F7485088285BC
:105004000983A3A378081215369082B8780812147D
:105014009C78081218CC8E828F83A3A31215541285
:1050240021CC740412167CE96003024F749082D878
:10503400780C12149C780C1218CC8E828F83A3A344
:105044001215541221CC740412167CE970047900F0
:1050540080027901024DDD74F01216BD890874FFD7
:10506400650860030251E790086AE0540770030280
:1050740056B37A007869790888828983A3A3A3A3A5
:10508400A3E064047050EA75F018A4F8A9F0746FF2
:1050940028F582740839F583E0640170487A007851
:1050A40069790888828983A3A3A3A3A3E064046025
:1050B4000302513F88828983A3A3A3A3A3A3E0642B
:1050C400017078EA75F018A4F8A9F0746E28FA74DF
:1050D4000839FB0256B70AE82418F8E93400F9EA5B
:1050E400C3940440937A007869790888828983A3F9
:1050F400A3A3A3A3E064017057EA75F018A4F8A968
:10510400F0746F28F582740839F583E06401704FF8
:105114007A007869790888828983A3A3A3A3A3E08A
:10512400640160030251C388828983A3A3A3A3A358
:10513400A3E0640160030251C380880AE82418F8DC
:10514400E93400F9EAC3940450030250A70256B3A9
:105154000AE82418F8E93400F9EAC39404408C7A84
:10516400007869790888828983A3A3A3A3A3E06450
:10517400027061EA75F018A4F8A9F0746F28F5823A
:10518400740839F583E0640170597A007869790804
:1051940088828983A3A3A3A3A3E06402707A88828C
:1051A4008983A3A3A3A3A3A3E06401706BEA75F0AE
:1051B40018A4F8A9F0746E28FA740839FB806F0AF1
:1051C400E82418F8E93400F9EAC3940450030251BE
:1051D4001A0256B30AE82418F8E93400F9EAC39429
:1051E4000440827A007869790888828983A3A3A31A
:1051F400A3A3E06508703D88828983A3A3A3A3A326
:10520400A3E06401702EEA75F018A4F8A9F0746E96
:1052140028FE740839FF802F0AE82418F8E93400BE
:10522400F9EAC3940450030251947A007B000256B5
:10523400B70256B30AE82418F8E93400F9EAC3942B
:105244000440A67E007F007A007869790888828904
:1052540083A3A3A3A3A3E06508701BEA75F018A4B5
:10526400F8A9F0746F28F582740839F583E06401B5
:1052740070137A0180110AE82418F8E93400F9EA75
:10528400C3940440C87A00E50814600F1470030244
:10529400545024FE70030255AA80967B00786979E5
:1052A4000888828983A3A3A3A3A3E064027055EBB7
:1052B40075F018A4F8A9F0746F28F582740839F50C
:1052C40083E06401704D7B00786979088882898362
:1052D400A3A3A3A3A3E06402600302538688828984
:1052E40083A3A3A3A3A3A3E064016003025386EBF7
:1052F40075F018A4F8A9F0746E28F50A740839F545
:105304000B02539E0BE82418F8E93400F9EBC3941C
:1053140004408E7B007869790888828983A3A3A3DB
:10532400A3A3E0640460030253DAEB75F018A4F855
:10533400A9F0746F28F582740839F583E06401607C
:10534400030253EC7B007869790888828983A3A3DC
:10535400A3A3A3E0640460030253F788828983A3B0
:10536400A3A3A3A3A3E0640160030253F7EB75F0C6
:1053740018A4F8A9F0746E28F50A740839F50B021C
:10538400540F0BE82418F8E93400F9EBC3940450E3
:10539400030252D0750A00750B00EAA2E040030232
:1053A4005442850A82850B83A3A3780C1215369088
:1053B40082D4780C12149C780C1218CC8E828F83B1
:1053C400A3A31215541221CC740412167CE9706E36
:1053D400EEFAEF0250D60BE82418F8E93400F9EBA2
:1053E400C39404500302531DEAA2E05058EEFAEFAE
:1053F400FB80560BE82418F8E93400F9EBC3940455
:10540400500302534E750A00750B00EAA2E0502EB9
:10541400850A82850B83A3A3780C1215369082D457
:10542400780C12149C780C1218CC8E828F83A3A350
:105434001215541221CC740412167CE96092AA0A43
:10544400AB0B0256B77A007B000256B77B00786933
:10545400790888828983A3A3A3A3A3E06404705278
:10546400EB75F018A4F8A9F0746F28F58274083964
:10547400F583E06401704A7B007869790888828941
:1054840083A3A3A3A3A3E06404600302551E88823C
:105494008983A3A3A3A3A3A3E06401707DEB75F0A8
:1054A40018A4F8A9F0746E28F50A740839F50B02EB
:1054B40055360BE82418F8E93400F9EBC39404409A
:1054C400917B007869790888828983A3A3A3A3A325
:1054D400E064016003025572EB75F018A4F8A9F0BA
:1054E400746F28F582740839F583E064016003025F
:1054F40055847B007869790888828983A3A3A3A350
:10550400A3E06401600302558F88828983A3A3A367
:10551400A3A3A3E06401707380830BE82418F8E963
:105524003400F9EBC394045003025481750A0075E6
:105534000B00EAA2E04003025442850A82850B83F1
:10554400A3A3780C1215369082D4780C12149C788C
:105554000C1218CC8E828F83A3A31215541221CC63
:10556400740412167CE960030254420253D40BE81B
:105574002418F8E93400F9EBC3940450030254CB23
:10558400EAA2E0501AEEFAEFFB80180BE82418F8B0
:10559400E93400F9EBC3940450030254FC808D7A7F
:1055A400007B000256B77B0078697908888289837A
:1055B400A3A3A3A3A3E064017040EB75F018A4F8BF
:1055C400A9F0746F28F582740839F583E0640170DA
:1055D400387B007869790888828983A3A3A3A3A36D
:1055E400E06401600302566F88828983A3A3A3A3A6
:1055F400A3A3E0640170740254A10BE82418F8E931
:105604003400F9EBC3940440A37B007869790888DB
:10561400828983A3A3A3A3A3E064027063EB75F060
:1056240018A4F8A9F0746F28F582740839F583E09A
:105634006401705B7B007869790888828983A3A3FD
:10564400A3A3A3E06402704F88828983A3A3A3A3C6
:10565400A3A3E064017040EB75F018A4F8A9F074FA
:105664006E28F50A740839F50B80410BE82418F804
:10567400E93400F9EBC3940450030255DB025530BE
:105684000BE82418F8E93400F9EBC394044080EAE9
:10569400A2E0501B0253D40BE82418F8E93400F9B3
:1056A400EBC394044094750A00750B000255367AD6
:1056B400007B00024F5E74F61216BD89097508005E
:1056C4007869790888828983A3A3A3A3A3A3E0604C
:1056D40003025796E50875F018A4F8A9F0746E282B
:1056E400FE740839FF8E828F83A37401F08E828F3B
:1056F40083E509F0120C0B8E828F83A3A31215602D
:105704008E828F83A3A3A3A3A3A3E4F0A3F0908228
:1057140068121554EE240EF582EF3400F583121549
:1057240060EE2414F582EF3400F5837401F0EE2466
:1057340015F582EF3400F5837401F0EE2416F5823A
:10574400EF3400F583E4F0A3F090086AE04509F033
:10575400900869E004F06401600C748065096006D7
:10576400744065097019E50875F018A4F8A9F07477
:105774006E28F8740839F990086CE8F0A3E9F0E5AC
:105784000875F018A4F8A9F0746E28FA740839FBA7
:1057940080180508E82418F8E93400F9E508C394EA
:1057A4000450030256C87A007B0080007F0202176F
:1057B4008FC082C0838A828B83E0F8A3E0F98A8257
:1057C4008B83E4F0A3F088828983A3F088828983A1
:1057D400E0F4F890086AE058F0900869E014F0707A
:1057E4000B90086CE4F0A3F0900499F0801CC08244
:1057F400C083900869E0600A90086CE0FAA3E0FBBB
:1058040080047A007B008002E0F9D083D082020118
:1058140035C082C083E9FB7A007869790888828977
:1058240083A3A3A3A3A3E06B7016EA75F018A4F8EE
:10583400A9F0746F28F582740839F583E0F98011B2
:105844000AE82418F8E93400F9EAC3940440CE794C
:105854000080B7C082C08390086902580C74F612A5
:1058640016BDEAFEEBFF9061D0E0C0E0EE2400F547
:1058740082EF3401F583D0E0F09061D7E0FA9061D3
:10588400D5E0C39A547FC0E0EE2401F582EF3401E1
:10589400F583D0E0F0EE2402F8EF3401F99061D6FC
:1058A400E0C39A547F88828983F0701A9061C5E0BE
:1058B400A2E45012E0A2E7500DEE2402F582EF3488
:1058C40001F5837480F0120CD7EE2401F582EF34D5
:1058D40001F583E07034EE2402F582EF3401F583A0
:1058E400E070279061C5E0A2E4501FE0A2E7501ADF
:1058F400EE2402F582EF3401F5837480F0EE240186
:10590400F582EF3401F5837480F075E1957800EE4B
:105914002400F582EF3401F583E060279061D3E041
:10592400C0E08808EE2508F582EF3400F583D0E066
:10593400F008EE2400F582EF3401F583E0F9E8C3C2
:105944009940D975E1910257B074F61216BDEAFE7A
:10595400EBFF9061C8E0C0E0EE2403F582EF340170
:10596400F583D0E0F09061CFE0FA9061CDE0C39A86
:10597400547FC0E0EE2404F582EF3401F583D0E0D7
:10598400F0EE2405F8EF3401F99061CEE0C39A54A7
:105994007F88828983F0701A9061C5E0A2E050127A
:1059A400E0A2E3500DEE2405F582EF3401F5837493
:1059B40080F0120CDDEE2404F582EF3401F583E06F
:1059C4007034EE2405F582EF3401F583E0702790FE
:1059D40061C5E0A2E0501FE0A2E3501AEE2405F5F1
:1059E40082EF3401F5837480F0EE2404F582EF3401
:1059F40001F5837480F0120CE37A00EE2403F5823F
:105A0400EF3401F583E0602F9061CBE0C0E08A08B9
:105A1400EE2508F8EF3400F9E82480F582E9340033
:105A2400F583D0E0F00AEE2403F582EF3401F58328
:105A3400E0F8EAC39840D175E1810257B074F412DA
:105A440016BD8908A808E875F08AA4C8AAF02AF93E
:105A540074CE28FE740839FFEEFAEFFB120BB7EE92
:105A6400FAEFFB120BB1750A80750B00780A121855
:105A7400D07C007D60EE2406FAEF3401FB120AFDAF
:105A8400740212167C906195E0C0E0EE2486F582E3
:105A9400EF3401F583D0E0F0906196E0C0E0EE24AD
:105AA40087F582EF3401F583D0E0F0906197E0C090
:105AB400E0EE2488F582EF3401F583D0E0F09061C4
:105AC40098E0C0E0EE2489F582EF3401F583D0E05C
:105AD400F07F0402178F74F21216BD8908A808E833
:105AE40075F08AA4C8AAF02AF974CE28F874083983
:105AF400F99061C6E0FDE054F0F075E1817C00E8C6
:105B04002403F582E93401F583E0602B8C0AE8254F
:105B14000AFAE93400FBEA2480F582EB3400F583C9
:105B2400E09061CAF00CE82403F582E93401F583BE
:105B3400E0FAECC39A40D5E82405F582E93401F58E
