:020000040000FA
:0600000002011D02222393
:03002B00021E486A
:03005300022296F0
:03006B00021DC6AD
:03007B00021D580B
:100083000220D7E5C754F84401F5C77901220000DF
:100093000080FB120086B90003020107E47921788E
:1000A30008B800028004F709D8FCE479297802B87B
:1000B30000028004F709D8FCE49003C178D67909DB
:1000C3008002F0A3D8FCD9FA781A90014D7A01BACC
:1000D30000028007E493A3F608DAF9900C96AA824B
:1000E300AB8390014E78A879058015E493A3AC8285
:1000F300AD838A828B83F0A3AA82AB838C828D83A8
:10010300D8E9D9E77582527583F0740312012F750C
:100113008291758300740012012F75D00075813FA1
:100123007518C1751903759F00020096C09FF59F4E
:10013300E473D09F22D083D082C09FE493C0E07445
:100143000193C0E0740293F59F22011F0000000F8A
:1001530000000040000000AFFFFFFFA30000000409
:10016300000000000100000300000080000000A662
:1001730000000034100000050000000C0000001611
:100183000000000800000000000000360000000D21
:100193000100000A000000EC000000910C0000E0E8
:1001A300E6FFFF71F3FFFF20190000BD02000056B8
:1001B300FFFFFF00020000260400003AFEFFFFA934
:1001C300050000480600008F0C0000470600009061
:1001D3000C0000B7F9FFFF020000003F00000068B9
:1001E300000000100000002900000000100000FFC4
:1001F300FF110199010F1264040102B2830100008F
:10020300668302AC83010000410D02BC8301000040
:10021300420D02AA83030000B604029A8301000080
:10022300430D020202020202020202010D0000005B
:10023300100102B2830100006C8302AC8301000051
:100243006D0D028883010000BC0402AC8301000031
:100253006E0D0276830100005D8202AC8301000013
:100263006F0D028E830100004F8202AC83010000F8
:10027300700D029083010000DB8102AC830100005A
:10028300710D029483010000C98102AC8301000057
:10029300720D029883010000ED8102AC830100001E
:1002A300730D02B883010000FF8102AC83010000DB
:1002B300740D02BA83010000418202AC8301000085
:1002C300750D02C083010000760D01E803053F10A0
:1002D3001B001C001D001E101F00200021041B809A
:1002E3001B001D021E301FE02000210429195A089B
:1002F3001B821B00140F1806150416190F0F00009C
:100303000000000008900190010002202801014034
:100313000006010E094849442041647652656D6F19
:1003230074650201050319C003050212180F18486A
:1003330049442041647652656D6F74650000C003C3
:1003430060EA000001B509BB09C109FFFF010F0AFB
:100353000000E60202192A04060112010112020139
:100363001203010E0002120E120A000302B28301ED
:100373000000698302AE83010000D70602AC83014B
:1003830000009E0E027C830100005C8302AC8301AB
:100393000000A20E027883020000D90602AC83019A
:1003A3000000A30E027283030000A40E02AC8301BB
:1003B30000009F0E027A830100000080029C8301EB
:1003C3000000A00E02AC83010000A50E027483019D
:1003D3000000DA0602AA83030000DB06029A830107
:1003E3000000A60E02AC83010000A80E0274830174
:1003F3000000E10602AA83030000E206029A8301D9
:100403000000A90E02AC83010000AB0E027483014D
:100413000000E80602AA83030000E906029A8301AA
:100423000000AC0E02AC83010000AE0E0274830325
:100433000000EF06029A83010000AF0E02AC8301B5
:100443000000B10E028683010000F00602AA8303B6
:100453000000F10602AC83010000B20E02848303A4
:100463000000F70602AC83010000B30E02C2830151
:100473000000F80602AA83030000F90602AC830118
:100483000000B40E027483030000FF06029A830186
:100493000000B50EFF0001307503020106000000E5
:1004A3000000000000000000000000000000000049
:1004B300000000000000000000FFFF0600800CE8C1
:1004C30003041002B283010000608302AC830100C5
:1004D300000C10028083020000B10702AC8301000C
:1004E300000D10028283000000B50702AA830300F7
:1004F30000B607FF0000B40000280028002830756C
:10050300A000A000A000A00000080008E001F00087
:1005130010001000100010001000100050005000D8
:10052300500010001000D0070000000000000F0072
:1005330001000500307507001000010081FF000075
:10054300FFFD0C1B0D030DFF02020208025000A069
:10055300000000E80302B2830100006F8302AC8352
:10056300010000931002A883010000ED0702AC8391
:10057300010000941002A683010000030802AC836B
:10058300010000951002A483010000050802AC835A
:10059300010000961002A283080000060802AC8343
:1005A300010000971002A0830100009810FF0100D2
:1005B300FF2002B283010000638302AC83010000C9
:1005C300FC10029E83000000000002AA83030000C7
:1005D3005308D312D312D312D312D312D312D3127A
:1005E300D312D312D312D312D312D31261157915A6
:1005F3005B1512013849CF0112013894D001120161
:1006030038E0D101120138D6D20112013832D401B7
:100613001201389AD401120138EBD5011201384284
:10062300D90112013876D0021201381CD10212010D
:1006330038BDD102120138F8D102120138D8D202E2
:1006430012013877D3021201380FD6021201387023
:100653009D031201387A9D03120138BC9D031201D8
:1006630038039E031201385A9E03120138B29E03C7
:10067300120138D39E03120138DD9E031201383074
:100683009F031201385E9F03120138689F03120112
:10069300387CA003120138B4A103120138F3A1037B
:1006A30012013838A2031201384AA2031201386931
:1006B300A20312013872A2031201382BA303120101
:1006C300389EE60312013888DA03120138BEDA03D2
:1006D3001201382EDB031201387BDC03120138359B
:1006E300EE031201384BEE0312013855EE031201EB
:1006F300389FEE03120138ACAD03120138BFAD03CE
:10070300120138BBAE03120138F4AE0312013841B3
:10071300AF03120138A2AF0312013808B00312016C
:100723003838B2031201388A7F00120138AFEC0364
:10073300120138D8EC031201380CED0312013855BD
:10074300A30312013885A30312013898A3031201EE
:1007530038C7A30312013852A40312013847A50373
:10076300120138A8A50312013839A703120138D2A0
:10077300A70312013850A803120138D4FC01120157
:1007830038F9FC01120138AAF0031201385D59004F
:10079300120138585B00120138615C001201389D68
:1007A3005E001201381260001201387561001201F7
:1007B300389E6100120138F0610012013830660082
:1007C300120138346800120138536A001201383EAE
:1007D3006B001201386E6C001201387E6C0012013E
:1007E300380B6D00120138A66D00120138BF6D0081
:1007F300120138876F00120138F0E9031201380F34
:10080300EA031201382DEA031201388EEA031201BA
:1008130038A5EA031201387BED031201388CED038E
:100823001201382AEE0312013800F1031201383F96
:10083300F10312013854EF031201386BEF03120175
:1008430038B5EF03120138A4F103120138ECEA03BF
:10085300120138FEEA0312013818EB03120138249F
:10086300EB0312013830EB03120138D5EB0312010D
:1008730038F2E80312013873E903120138D7E903A8
:100883001201380BD6031201383ED60312013896F3
:10089300D60312013809D70312013826D7031201F0
:1008A30038A7D70312013800D80312013814D8032C
:1008B30012013824E50312013843E503120138E33A
:1008C300E50312013872E60312013888E6031201C8
:1008D30038B5DC03120138F6DC0312013852DD03AC
:1008E3001201380FDE0312013879DE031201387C5E
:1008F300DE031201388EF1031201389EF103120157
:1009030038A1F103120138979603120138B6960302
:10091300120138E896031201385C9703120138B7C5
:100923009703120138D29703120138039803120177
:10093300387F9803120138709903120138A599037F
:10094300120138CC9C031201381A9D03120138F8A6
:100953007F0012013851D80312013854DA0312010F
:1009630038EAE6021201383CE902120138C8E9020A
:10097300120138B3EB0212013817ED021201385F8E
:10098300EE02120138A3EE02120138A6EE021201A2
:1009930038FDEE021201380EEF021201381FEF028A
:1009A30012013848EF0212013853EF021201386482
:1009B300EF02120138B3F00212013811F1021201F1
:1009C3003814F1021201382DF10212013832F1020A
:1009D300120138328E02120138938E02120138C787
:1009E3008F02120138E28F02120138F48F021201D2
:1009F30038E290021201384C9102120138779102C9
:100A03001201381A94021201380397021201384373
:100A130098021201381E99021201388799021201B5
:100A230038E89902120138299A021201382C9A02E5
:100A3300120138639B0212013893CE031201388FDF
:100A4300D003120138F7D0031201389EE3031201D9
:100A530038F5E30312013873E403120138B7D30303
:100A6300120138E1D303120138B9D40312013895C6
:100A7300D503120138BBAD0112013814B2011201C2
:100A8300383CB60112013888B7011201385CBA014B
:100A930012013873BA01120138E9BC01120138C8D6
:100AA300BD01120138ECBE011201387EC3011201EF
:100AB3003828C5011201387FC501120138A1C501CB
:100AC30012013821C601120138CCC801120138D8ED
:100AD300C901120138ACCD01120138EDE103120155
:100AE300381DE20312013835E2031201388AE203AA
:100AF3001201388FE20312013867E3031201383A17
:100B0300E00312013851E00312013880E0031201BF
:100B130038B9E003120138E1E0031201380FE103B1
:100B230012013826E1031201383DE1031201385363
:100B3300E1031201387AE1031201388DE103120156
:100B430038A3E103120138B6E103120138DBE103F4
:100B530012013837F10212013836F2021201386BF2
:100B6300F2021201388CF2021201389CF2021201D5
:100B730038BDF202120138C9F30212013896F402A9
:100B830012013809F5021201388FF502120138D229
:100B9300F50212013809F6021201388FF60212012A
:100BA3003861F702120138BFF702120138D7F70292
:100BB30012013851F80212013854F8021201385761
:100BC300F802120138FEF80212013816F902120176
:100BD3003846F90212013866F90212013854FA0252
:100BE3001201380AFB021201384BB70312013873A2
:100BF300B703120138A1B703120138D8B7031201A2
:100C03003840B80312013889B803120138D4B80345
:100C130012013812B9031201384FB9031201387D9A
:100C2300B90312013824BA031201382EBA03120190
:100C3300383BBA031201386EBA0312013830BB03D2
:100C43001201383CBB0312013854BB031201385E56
:100C5300BB03120138D8EB03120138E6EB03120190
:100C630038FEEB0312013816EC03120138E1700071
:100C73001201387F7100120138F771001201380C2C
:100C83007300120138467300120138EF730012012A
:100C930038C474001201382876001201387F7600B8
:100CA300120138067700120138ED77001201383A45
:100CB3007800120138C87800120138EC780012016C
:100CC30038C17A00120138027B00120138247B00FC
:100CD300120138A57B001201388F7C0012013855B0
:100CE3007D001201388B8F031201385D90031201CE
:100CF30038069103120138499103120138D6910342
:100D030012013862920312013843930312013872BD
:100D130093031201386E9403120138B6940312013F
:100D230038B89503120138FC950312013822960353
:100D3300120138CBEE031201382BC40312013841E0
:100D4300C40312013867C4031201388FC5031201AB
:100D53003899C503120138F2C603120138F2C703EA
:100D630012013886A803120138BBA903120138EE19
:100D7300A90312013838AA03120138F6AB03120192
:100D830038F9DE011201385CDF01120138A1E001FC
:100D9300120138B1E001120138D4E0011201381F09
:100DA300E101120138C4E101120138BAE201120172
:100DB3003884E301120138FCE4011201383EE501F5
:100DC300120138DCE50112013829E6011201384F1E
:100DD300E6011201383DE80112013842E80112012F
:100DE3003823EA0112013877EA01120138D9EA01FE
:100DF30012013801EB01120138A5EB01120138672A
:100E0300EC0112013898EC011201389BEC0112013C
:100E130038E3EC0112013825ED011201388CED01A4
:100E230012013861D10312013874D1031201388DD4
:100E3300D103120138D8D103120138B3D2031201FE
:100E43003842D3031201388DD30312013828290005
:100E53001201383429001201386D2900120138B209
:100E63002900120138692A00120138EF2A00120101
:100E7300381B2B00120138542B00120138682D0047
:100E8300120138442F001201382F31001201386645
:100E93003200120138C63400120138B23500120193
:100EA30038F83600120138053800120138223800AC
:100EB3001201385A3800120138743800120138DC34
:100EC3003800120138763D00120138173E00120136
:100ED30038683E001201388F3E00120138DD3E00B3
:100EE300120138FB3E001201384F3F001201385700
:100EF3004000120138DF4000120138A1B203120191
:100F030038ABB20312013876B30312013891B3033D
:100F1300120138B7B303120138FBB303120138339C
:100F2300B4031201385CB403120138D5B4031201BF
:100F330038EAB403120138FFB40312013836B5039B
:100F43001201384AB5031201387BB503120138B5D3
:100F5300B503120138E1B50312013826B6031201B5
:100F6300388BB603120138D4B603120138FEB60328
:100F730012013823B7031201383FC00312013809A5
:100F8300C103120138ECC10312013862C20312011A
:100F930038A4C203120138D1C30312013883B70244
:100FA300120138ACB702120138C5B7021201380A70
:100FB300B902120138E8B90212013807BA02120164
:100FC3003894BA02120138D7BA0212013824BC028B
:100FD300120138C3BC0212013842BF02120138D9D0
:100FE300BF02120138ADC0021201388FC1021201D3
:100FF30038FBC2021201388EC302120138DDE70347
:1010030012013846E8031201389AE803120138C185
:10101300E80312013875FB02120138E2FB021201E8
:10102300382DFC0212013822FD021201381EFE0285
:1010330012013808FF0212013800800312013842FE
:1010430080031201381C8103120138F58103120158
:1010530038F08203120138CF83031201383B840333
:101063001201380285031201386D8503120138D449
:101073008503120138FF85031201387086031201BC
:10108300380387031201386C870312013881870301
:10109300120138C98703120138E287031201384766
:1010A30088031201384A880312013899CB031201CD
:1010B30038C1CB03120138FFCB03120138BDCC0377
:1010C30012013828CD0312013844CD031201386CC4
:1010D300CD031201389CCD03120138ABCD031201AD
:1010E3003825CE031201384BCE031201380080029B
:1010F300120138DD8102120138D88302120138ABA4
:101103008402120138F68402120138418502120169
:1011130038538502120138938502120138C88502BB
:10112300120138148602120138438602120138660E
:101133008602120138B386021201383C870212017B
:1011430038498902120138348B02120138778B0235
:10115300120138DC8C021201381D8D021201389005
:101163008D02120138DC8D02120138078E02120142
:101173003805C40212013830C40212013817CB02F9
:101183001201383BCD02120138F6CE021201385358
:10119300D002120138464100120138DD410012012C
:1011A300380A42001201385042001201388F4300BE
:1011B300120138264500120138A04500120138BB40
:1011C30045001201383046001201385F4700120112
:1011D30038BA4800120138BC4900120138194B00D3
:1011E300120138324B001201388F4B001201387153
:1011F3004C00120138A44C00120138144D001201A6
:10120300388E4D00120138DD4D00120138A94E0011
:10121300120138AE4F001201388D500012013818F8
:101223005100120138865100120138FA510012019F
:1012330038235200120138E252001201385C540084
:1012430012013879540012013898540012013829D8
:1012530055001201384E550012013876550012011F
:1012630038F155001201384B56001201389F5700D0
:101273001201385C58001201382F59001201382529
:101283009C02120138759C02120138819C021201E2
:10129300385E9D021201388E9D02120138C69D02EE
:1012A300120138459E021201387D9E02120138CF89
:1012B3009E021201380C9F0212013831A102120161
:1012C300385DA30212013858A50212013833A70270
:1012D300120138EE7F001201380A9A0112013854C4
:1012E3009A0112013833A001120138B4A10112018D
:1012F3003813A8011201380EA9011201384BA901B4
:101303001201386EA901120138B0A901120138B9CE
:10131300A901120138C3A901120138AFAA011201B0
:1013230038A3AB01120138C583011201383D8E0188
:10133300120138438E011201384F9501120138FC16
:10134300C70312013892C803120138A8C803120157
:101353003822C90312013878C903120138B6C90308
:1013630012013813CA0312013890CA0312013899C3
:10137300CA03120138A5CA03120138B8CA031201FD
:1013830038F4CA031201380ACB0312013869CB03BC
:10139300120138F3BB0312013800BC031201381ADF
:1013A300BC0312013859BC0312013897BC03120164
:1013B30038FCBC0312013811BD031201381CBD03F4
:1013C30012013829BD0312013840BD031201384E02
:1013D300BD0312013859BD0312013865BD03120163
:1013E3003874BD031201387FBD03120138A2BD0357
:1013F3001201384BBE031201385BBE03120138756C
:10140300BE0312013892BE03120138AEBE031201AD
:1014130038D3BE03120138DDBE03120138F1BE0317
:1014230012013810BF0312013871BF03120138775C
:10143300BF031201387DBF0312013883BF031201BA
:10144300388FBF03120138C2BF03120138F9A90252
:101453001201387BAA0212013824AB021201386C44
:10146300AC021201387AAE0212013860AF021201E7
:101473003895AF02120138B7AF0212013860B002DB
:1014830012013830B20212013859B202120138D1B6
:10149300B20212013803B30212013810B30212016F
:1014A300385BB3021201387FB302120138D0B502A0
:1014B300120138DAB60212013836B7021201385671
:1014C300EE0112013867EF011201384BF0011201EE
:1014D3003855F00112013877F00112013883F00119
:1014E30012013827F20112013854F2011201386A4D
:1014F300F301120138BFF3011201380EF501120195
:1015030038E3F5011201383FF601120138AAF6015A
:10151300120138DFF60112013822F701120138EC0B
:10152300F90112013804FA0112013895FA01120186
:1015330038A3FA01120138F0FA01120138FEFA0158
:101543001201386AFB01120138E5FB011201383C34
:10155300FC01120138CCDB02120138EEDB0212016E
:1015630038FFDD02120138BEE002120138E8E10261
:10157300120138A6E20212013892E3021201388105
:10158300DE03120138A6DE031201381CDF03120149
:10159300386E880312013877880312013880880374
:1015A300120138588903120138098B0312013839A3
:1015B3008B03120138648B03120138948B031201DD
:1015C30038BF8B03120138F38B031201381F8C03CE
:1015D300120138628C031201388D8C03120138D446
:1015E3008C03120138298D031201386B8D0312010C
:1015F30038C58D03120138F08D031201383F8E0375
:101603001201386F8E031201389A8E03120138C803
:101613008E03120138EB8E03120138D5EF0312014A
:101623003801F0031201382EF00312013838F003A9
:1016330012013848F00312013848F103120138CA85
:10164300FF02120138DCFF01E066701008A3E066B8
:10165300700A08A3E066700408A3E06622C3E0965C
:1016630008A3E09608A3E09608A3E096A2D265D06B
:101673003322C008C3E096F50808A3E096420808A1
:10168300A3E096420808A3E0964208A2D265D033AD
:10169300E5087001D3D00822C3E7960809E7960846
:1016A30009E7960809E79622C3E09608A3E096089F
:1016B300A3E09608A3E09622C008C3E096F50808C5
:1016C300A3E096420808A3E096420808A3E09645E3
:1016D300087001D3D00822080808EAC0E0EBC0E094
:1016E30086F0E7A4FA180986F0E7A42AFA1809860F
:1016F300F0E7A42AFA180986F0E7A42AFA1986F073
:10170300E7A4FBE5F02AFA190886F0E7A42BFBE52A
:10171300F03AFA190886F0E7A42BFBE5F03AFA1839
:10172300180986F0E7A4C5F02BFBE43AFA1908E799
:10173300C5F0C6A426F6E5F03BFBE43AFA1886F0BA
:10174300E7A4F6E5F00826F6E43B08F6E43A08F6E3
:10175300D0E0FBD0E0FA22E4CFC0E0E4CEC0E0E486
:10176300CDC0E0E4CCC0E075F020C3E633F608E674
:1017730033F608E633F608E633F6181818EC33FCAC
:10178300ED33FDEE33FEEF33FFC3EC9709ED97091D
:10179300EE9709EF97191919400FFFEC97FC09ED24
:1017A30097FD09EE97FE191906D5F0BEECF709ED82
:1017B300F709EEF709EFF7191919D0E0FCD0E0FDAE
:1017C300D0E0FED0E0FF2212183218181812175A70
:1017D30012182119191922121821191919080808A0
:1017E300E618181820E7E012175A121832181818BA
:1017F30022090909E719191920E7DC080808E6187E
:10180300181820E70302175A12183218181812175B
:101813005A12183218181812182119191922E4C368
:1018230097F709E497F709E497F709E497F722E4B0
:10183300C396F608E496F608E496F608E496F622CC
:101843006017080808C6A2E713C618C613C618C649
:1018530013C618C613C6D5E0E9226016080808C6E1
:10186300C313C618C613C618C613C618C613C6D5DF
:10187300E0EA227009080808226016181818C6C37F
:1018830033C608C633C608C633C608C633C6D5E052
:10189300EA22E627F60809E637F60809E637F608E6
:1018A30009E637F622E026F608A3E036F608A3E0B9
:1018B30036F608A3E036F622E026F008A3E036F079
:1018C30008A3E036F008A3E036F022C3E697F60853
:1018D30009E697F60809E697F60809E697F622C39C
:1018E300E0C696F608A3E0C696F608A3E0C696F609
:1018F30008A3E0C696F622C3E096F008A3E096F0AC
:1019030008A3E096F008A3E096F022E056F608A3B9
:10191300E056F608A3E056F608A3E056F622E05692
:10192300F008A3E056F008A3E056F008A3E056F051
:1019330022E0F608A3E0F608A3E0F608A3E0F62207
:10194300E6F008A3E6F008A3E6F008A3E6F022E039
:10195300FAA3E0FBA3E0FCA3E0FD22EAF0A3EBF093
:10196300A3ECF0A3EDF022CAC0E0E6F0A308DAFA94
:10197300D0E0FA22CAC0E0E0A3C582CCC582C58309
:10198300CDC583F0A3C582CCC582C583CDC583DA1B
:10199300E6D0E0CA22C3E498F8E499F91219D98091
:1019A30026C3E49AFAE49BFBE920E7E91219D9E498
:1019B30098F8E499F922C3E498F8E499F91219D94B
:1019C300E498F8E499F9C3E49AFAE49BFB22EB2048
:1019D300E7CFE920E7E0B90010BB0008E88AF0840C
:1019E300F8AAF022E4FBC8FA22EB70227B10C8337A
:1019F300C8C933C9335007C39AC3DBF280069A5070
:101A0300012ADBEAC833F4C8C933F4C9FA2275F0F2
:101A130008E4C833C8C933C933C99AC99B5004C938
:101A23002AC93BD5F0ECFBC833F4C8E4C9FA2260F9
:101A33000D08C6A2E713C618C613C6D5E0F3226085
:101A43000C08C6C313C618C613C6D5E0F422700427
:101A530022600D18C6C333C608C633C6D5E0F418D2
:101A630022251810AF08F518400215198008F5183B
:101A730040021519D2AF22C0D0251810AF08F518AF
:101A8300500205198008F51850020519D2AFD0D0BD
:101A9300222518F58210AF08F518400215198008A1
:101AA300F51840021519D2AF851983222518F5823E
:101AB300E43519F58322E4732518C582C0E0E519DE
:101AC30034FFC583C0E0E518C3958224F810AF083E
:101AD3008583198582188008858319858218D2AF7A
:101AE300CEF0A3E520F0A37808E608F0A3DEFAEF32
:101AF300F0A3E58124FAF8E608F0A3E608F0A3E6EC
:101B030008F0A30808E608F0A3E608F0A31581157A
:101B130081D0E0FED0E0F8158115811581E8C0E0A1
:101B2300EEC0E0222518C582C0E0E51934FFC58365
:101B3300C0E0E518C3958224F910AF0885831985A1
:101B430082188008858319858218D2AFCEF0A3E569
:101B530020F0A37808E608F0A3DEFAEFF0A3E5810E
:101B630024FBF8E608F0A3E608F0A30808E608F06B
:101B7300A3E608F0A315811581D0E0FED0E0F815A7
:101B8300811581E8C0E0EEC0E022851983851882C3
:101B9300E0A3FEE0A3F5207808E0A3F608DFFAE06F
:101BA300A3FFE0A3C0E0E0A3C0E0E0A3C0E0E0A3A4
:101BB300C0E0E0A3C0E010AF0885821885831980D8
:101BC30008858218858319D2AFD083D0820201356C
:101BD300851983851882E0A3FEE0A3F5207808E049
:101BE300A3F608DFFAE0A3FFE0A3C0E0E0A3C0E0B0
:101BF300E0A3C0E0E0A3C0E010AF088582188583AE
:101C0300198008858218858319D2AFD083D08222A8
:101C130074048006740280027401C0E0F404121A92
:101C230094D0E012196A227404800474028000CCF8
:101C3300C0E0EDC0E0E518C39CCCAD1950011D1008
:101C4300AF068C188D1980068C188D19D2AF121916
:101C530077D0E0FDD0E0FC22D083D082E9C0E0E47D
:101C630093A3C386F0C5F095F0F908E493A386F037
:101C7300C5F095F0700BE493A3C3994005E9048084
:101C830002A3E475F002A42582F582E5F03583F51D
:101C930083D0E0F9E493A3C0E0E493C0E022D083CF
:101CA300D082ECC0E0EDC0E0E493A3FCE493A3FD99
:101CB300ED4C600D121CEDEC24FFFCED34FFFD80B8
:101CC300EFE493A3FCE493A3FDED4C600D121D2CF4
:101CD300EC24FFFCED34FFFD80EFD0E0FDD0E0FC11
:101CE300E493A3C0E0E493C0E022C0E0C3E493968E
:101CF300087401939618400FE49366700808740102
:101D030093661870007019A3A3C3E4939608740133
:101D1300939618A3A3400DD0E0D0E0D0E0021CDDE1
:101D2300A3A3A3A3A3A3D0E022C0E0C0F088F0E460
:101D3300936670080874019366187000A8F0A3A353
:101D4300700BD0F0D0E0D0E0D0E0021CDDA3A3D034
:041D5300F0D0E022CA
:101D5800C0E0C0D0E8C0E0E9C0E0EAC0E0EBC0E025
:101D6800ECC0E0EDC0E0EEC0E0C082C083C0F0A2ED
:101D7800AFE433FED2AFE58AA2E25018E58DA2E2C5
:101D88005012538DFB539AEF7A007B0190059DE02A
:101D9800F9120697758A00C2EBEEA2E092AFD0F076
:101DA800D083D082D0E0FED0E0FDD0E0FCD0E0FBD4
:101DB800D0E0FAD0E0F9D0E0F8D0D0D0E032C0E0FE
:101DC800C0D0E8C0E0E9C0E0EAC0E0EBC0E0ECC0A9
:101DD800E0EDC0E0EEC0E0C082C083C0F0A2AFE496
:101DE80033FED2AFE5895407602C53ABF87589F8F8
:101DF8009005A7E0701D7401F01206C190830812C7
:101E08001C2A7A017B0090059DE0F91207037404EF
:101E1800121A7A43AB077589F8C2C5EEA2E092AFF1
:101E2800D0F0D083D082D0E0FED0E0FDD0E0FCD06E
:101E3800E0FBD0E0FAD0E0F9D0E0F8D0D0D0E03242
:101E4800C0E0C0D0E8C0E0E5A8D2AFC2C7751A00AC
:101E5800A2E792AFD0E0F8D0D0D0E03274F5121BF0
:101E680027EAFEEBFFEE2434F8EF3400F9880889FE
:101E780009EE2435F582EF3400F583E0F8EE2437D7
:101E8800F582EF3400F583E0F50AEC850AF0A4FC4E
:101E9800AAF0850AF0EDA42AFDE82CF8E43DF97AC9
:101EA800257B001219D9EA850882850983F0540731
:101EB800F87401B800028004C333D8FCC0E0E01312
:101EC8001313541FF8EE28F8EF3400F9E8245DF5F1
:101ED80082E93400F583D0E0F8E0586008EE243455
:101EE800F582EF801EEE2436F582EF3400F583E0AC
:101EF800F5F0EA84A8F0EE28F8EF3400F9E8243881
:101F0800F582E93400F583E0F97F04021BD374F508
:101F1800121B27EAFEEBFFEE2434F582EF3400F5BE
:101F280083E0C0E0EE2435F582EF3400F583D0E09D
:101F3800F08E828F83A3A3A3A3A3A3A3C082C0838D
:101F48008E828F83A3A3A3A3A3E0F8A3E0F9D08391
:101F5800D082E0C398F508A3E099F509EE2480F54E
:101F680082EF3400F583E064017069EE2481F58224
:101F7800EF3400F583E0F8A3E0F98E828F83A3A302
:101F8800A3A3A3A3A3E0FCA3E0FD8E828F83A3A356
:101F9800A3A3A3E0FAA3E0FBC3EA9CEB9D5027C3ED
:101FA800EC98ED99402EC3EA98EB9950277C387D40
:101FB8000AEEFAEFFB121231EE2480F582EF3400BC
:101FC800F583E4F0800EC3EA98EB9940E0C3EC98FF
:101FD800ED9950D9EE2434F8EF3400F9E8FCE9FD26
:101FE800EE2435F582EF3400F583E0F8EE2437F57A
:101FF80082EF3400F583E0F50AE508850AF0A4F5D8
:1020080008AAF0850AF0E509A42AF509E82508F8E0
:10201800E43509F97A257B001219D9EA8C828D8377
:10202800F05407F87401B800028004C333D8FCC028
:10203800E0E0131313541FF8EE28F8EF3400F9E822
:10204800245DF582E93400F583D0E0F8E0586008B3
:10205800EE2434F582EF801EEE2436F582EF34004C
:10206800F583E0F5F0EA84A8F0EE28F8EF3400F9FB
:10207800E82438F582E93400F583E0F912291102E1
:102088001F11C082C083851882851983E0F8A3E0F8
:10209800F9C3EA9CEB9D5012C3EC98ED994019C323
:1020A800EA98EB99501279018010C3EA98EB9940AD
:1020B800F5C3EC98ED9950EE7900D083D08222EAEE
:1020C800C39CFAEB9DFB22008521878522C622C08E
:1020D800E0C0D0E8C0E0E9C0E0EAC0E0EBC0E0EC76
:1020E800C0E0EDC0E0C008C009C00AC00BC082C093
:1020F80083C0F0759B00906182E0A2E64003022154
:10210800B5E591A2E640030221B57591BF9008FD9F
:10211800E064057008121369121375800312136FB7
:102128007521001213CFE99008FEF079001213C34D
:102138001211A77A017B009008FCE0F9120697902B
:102148007803E0644260030221FE900A9AE014F0EA
:1021580060030221FEC2AF12216200782AD0E0F6A5
:1021680018D0E0F6E59F5407F970059083188003AE
:102178009082DC7808121934E9C4C0E07829E65561
:1021880008F50808E65509F509740B7808121A428B
:10219800D0E02508F8906270E0A2E740F8E8C33381
:1021A800906272F0906270E0D2E0F08049E0A2E5BF
:1021B8005024E591A2E5501E7591DF9008FDE0647A
:1021C8000D701390091FE004F064287002E4F07A9F
:1021D80000E0F9121441906181E0A2E35009E5E9B9
:1021E800A2E3500375E9F7A3E0A2E75009E591A23D
:1021F800E7500375917FD0F0D083D082D00BD00AFE
:10220800D009D008D0E0FDD0E0FCD0E0FBD0E0FA67
:10221800D0E0F9D0E0F8D0D0D0E032C0E0C0D0C0F3
:1022280082C083906183E0A2E05009E5BFA2E0503C
:102238000375BFFEE0A2E15009E5BFA2E1500375B6
:10224800BFFDE0A2E25009E5BFA2E2500375BFFB63
:10225800E0A2E35009E5BFA2E3500375BFF7E0A28F
:10226800E45009E5BFA2E4500375BFEFE0A2E550D2
:1022780009E5BFA2E5500375BFDFE0A2E65009E516
:10228800BFA2E6500375BFBFD083D0828088C0E06C
:10229800C0D0E8C0E0E9C0E0EAC0E0EBC0E0ECC0D4
:1022A800E0EDC0E0C0F0E5A7A2E6500FE5A1A2E688
:1022B800500953A7BF75A1BF1222FBE5A7A2E5509D
:1022C8000CE5A1A2E5500653A7DF75A1DFE5A7A29B
:1022D800E15009E5A1A2E1500375A1FDE5A7A2E23D
:1022E800500CE5A1A2E2500653A7FB75A1FBD0F064
:1022F80002220C74F8121B277521019008FDE06476
:102308000670151212FD8A828B83A3A3A3A3A3A32D
:10231800E0FAA3E0FB121357A2AFE433FED2AF906A
:102328000903E0640170187A207B009008FCE0F94A
:1023380012070F7A207B009008FCE0F912069D90A6
:102348006182E0D2E6F0900A99E0602185C6228099
:1023580016900902E064017008E5C654F84405F5D2
:10236800C653BEFC1220D07401652160E4EEA2E0E1
:1023780092AF7F01021BD3008E238F24858228858C
:102388008327851882851983E0CEA3E0CF8528822C
:10239800852783EBC9EAC8EDCBECCA75F010C3E812
:1023A80033C8E933C9EA33CAEB33CBC3EA9EF5260F
:1023B800EB9FF525B35004AB25AA26EC33CCED33BF
:1023C800CDD5F0DAAE23AF242274EB121B2774FAB2
:1023D800121A648A088B098C148D159008FDE02464
:1023E800F7C39405500690833C0225331212FD8AE8
:1023F8000A8B0BAE0AAF0BEE4F7003022530AC0808
:10240800AD09851882851983AA82AB831213878E3A
:10241800828F83A3A378081219349082F478081263
:10242800190E851882851983780C1219349082F454
:10243800780C12190E7808790C12169B501F780820
:10244800790C1218CE9082C478081216BB404785C2
:102458000810850911850A12850B138041850C1017
:10246800850D11850E12850F13781079081218CE74
:102478009082C478101216BB501C7510007511009C
:102488007512007513017810790C1218CE7810792E
:1024980008121895800890833C7810121934740932
:1024A8007810121876908308780812193478107901
:1024B8000812175A8E828F83A3A3A3A3A3A3E0F8BD
:1024C800A3E0F97AD07B031219D988088909E4F5C1
:1024D8000AF50B781079081218957404121AAFE0EF
:1024E800F8A3E0F97AD07B031219D9E8FA8A08E44C
:1024F800F5097810790812169B5007781079081298
:1025080018CE9008FDE06408600AE064066005E003
:102518006405701C9082E078101216BB50129082ED
:10252800EC78101218A88008900CD2781012193480
:1025380085148285158378101219437406121A7A45
:102548007F0E021BD374F7121B27121399900A9758
:10255800E064017010906245E4F0A3F053F4F34393
:10256800FE0C5390F3121345E5C654804449F5C652
:10257800E59E547F644970F8906185740FF0900A65
:1025880095E0F47002A3E0604E900A96E0600814AB
:10259800601B14602E8040750801750900900A952B
:1025A800E07808121A51E508F45280802A7508016B
:1025B800750900900A95E07808121A51E508F45256
:1025C800908014750801750900900A95E078081242
:1025D8001A51E508F452A079007F02021BD374F760
:1025E800121B27E9FEEAFF74016E700C7A807B00EB
:1025F8009008FCE0F9120697902920E493F460080B
:10260800E493F912119B800953C680E59E547F70AC
:10261800FA12134B900A97E0640170031211B390F9
:102628000A95E0F47002A3E0604B900A96E0600817
:1026380014601A14602C803D750801750900900A11
:1026480095E07808121A51E508428080287508013B
:10265800750900900A95E07808121A51E508429029
:102668008013750801750900900A95E07808121A18
:1026780051E50842A01213991212FD8A088B09A885
:1026880008A909E8496015E5E170FCE82414F58219
:10269800E93400F583E0F46003E0F5E174016F705C
:1026A8000A7A019008FCE0F91206EB0225E174F1C0
:1026B800121B278A088B098C0A8D0B740F121AAF0C
:1026C800780C1219349082F4780812190E9082F45A
:1026D800780C12190E7808790C12169B5015780888
:1026E800790C1218CE9082C478081216BB4015795E
:1026F800018013780C79081218CE9082C4780C12D5
:1027080016BB40EB79007F08021BD374ED121B2720
:102718008A088B098C0A8D0B7413121AAF780C1265
:1027280019349082F4780812190E9082F4780C12F9
:10273800190E780C790812169B40117808790C123A
:1027480018CEAA08AB09AC0AAD0B8022751000752B
:1027580011007512007513017810790C1218CE78D3
:10276800107908121895AA10AB11AC12AD137F0C92
:10277800021BD39082F478081219348A828B8378EA
:10278800081219217F04021BD374F5121B278C82AF
:102798008D8378081219348A828B8378081218FA84
:1027A800EA2404F8EB3400F98C828D83A3A3A3A355
:1027B800E0FCA3E0FD88828983C3E09CF0A3E09D50
:1027C800F088828983C3E09420A3E0944E4022904D
:1027D80082C078081219348A828B8378081218BB51
:1027E8008A828B83A3A3A3A3E02420F0A3E0344E22
:1027F800F0808074F5121B27E9FE900A4FE0FAA3D7
:10280800E0FBEEC333F8E433F9743128F5827482BF
:1028180039F583E02AF508A3E03BF5097808121C8E
:10282800179083341219521223807402121A7A8A6A
:10283800088B098C0A8D0B7410780812185DAA0889
:10284800AB097F04021BD374F1121B278A0C8B0D72
:102858008C0E8D0F740F121AAFE0FAA3E0FB7411FF
:10286800121AAFE0F508A3E0F5097413121AAFE0E5
:10287800FEA3E0FF7808121C17EA2401F508EB34E0
:1028880000F509E4F50AF50B780C79081216DA90C8
:1028980083107808121934780C79081216DAAA0C01
:1028A800AB0DAC0EAD0F1223807402121A7A8B098D
:1028B800EA450960047A0180027A00EC2AFCED34CA
:1028C80000FDECF8EDF97A717B021219D9880889B4
:1028D80009E4F50AF50B8E828F837808121943EC08
:1028E800F8EDF97A717B021219D98A088B097405F7
:1028F8007808121A518E828F83A3A3A3A3E508F048
:10290800A3E509F07F08021BD3C082C083E9906069
:0729180000F0D083D0822201
:10292000FFFFFFFFFFFFFFFFC082C083E99010FBA6
:10293000F0022B4774F7121ABBE990081BF07C5386
:102940007D087AFF7BFF120ED790081C74FFF0A35E
:10295000F0A3E4F0A3F07905120E6590081BE0F9EE
:10296000120D8D7AEF7B0E1210B102385574F412ED
:102970001ABB8A088B09EB5480603090081BE0F981
:102980001206918A0A8B0BAE0AAF0BEE4F60138EC4
:10299000828F83E064B07003120E77EEFAEFFB12C1
:1029A000067FAA08E5096480FB80047A007B0002A8
:1029B0002B1674F2121ABB74FC121A64EAFEEBFFB7
:1029C0007412121AAF123D3CEE4F7003022A557476
:1029D00002121AAFEEF0A3EF122D51ECF0A3ED129C
:1029E0002D51AA82AB83120D87E9F50A706AE508BA
:1029F000450960648E828F83123D22EE4F60567AC5
:102A0000067B001206D38A0C8B0DA80CA90DE84991
:102A10007005750A13804188828983E4122A62EE68
:102A2000F0A3EF123D4DE508F0A3E509F090082171
:102A3000122AE990082170051237FF801B1237ED2A
:102A40008003EAFCEBFD8C828D83122AE970F38C03
:102A5000828D8380E3750A02A90A7404121A7A022D
:102A60003F3CF0A3123CF3A32274F2121ABB890A72
:102A7000E975F017A4FEAFF0900820E4F090081E6E
:102A8000122AE9600A1206D990081EE4F0A3F0EEBB
:102A9000FAEFFB1206D38A088B09EA4509602FEE8C
:102AA000FCEFFD790012066D90081EE508F0A3E525
:102AB00009F07B008008122AD3E4F0A3F00BEBC3EB
:102AC000950A40F2E50A900820F079008002791317
:102AD000023F3CEB75F017A4F8A9F090081EE0281F
:102AE000FAA3E0398A82F58322123491EA4B2274E8
:102AF000F4121ABB7900EAA2E0501B75089C750914
:102B0000827808121C177C047D007AFD7B10120E5F
:102B10005F7402121A7A7F04021B8DC082C08390F8
:102B20000821122B4E601C88828983A3A3E06A705F
:102B300003A3E06B8882898370E8A3A3A3A3123464
:102B40008D80047A007B00D083D082020135124050
:102B500022E8492274EE121ABB74FC121A64EAFECF
:102B6000EBFF851882851983E4F0A3F0EE240212AE
:102B700037DFEE2405123CFAEE2404F50EEF123195
:102B800006E024FE603924FC604624FE605224FEE8
:102B9000605E24FE7003022C6724FE7003022CCBBF
:102BA00024FE7003022CDA24FE7003022CE924FCBC
:102BB0007003022CF824FE7003022D07022D4490AE
:102BC000083A7417F0A3E4122D59120B05022D4494
:102BD000851882851983AC82AD83120E7D022D1477
:102BE000851882851983AC82AD83120E83022D1461
:102BF000850C08850D097402121AAFAC82AD83856D
:102C0000088285098312348D120DAB8A0C8B0DACB2
:102C10000CAD0DEC4D603BE4F50CF50D780C121C81
:102C200017750C3A750D08780C121C17750C3B754E
:102C30000D08780C121C177408121AAF121C2E12F1
:102C40004046121A7AE9F50C700B123483120B1DF0
:102C5000800F750C01850882850983122D47123774
:102C6000FF850C08022D177402121AAFAC82AD83D7
:102C7000850C82850D83123258603C850C82850D4F
:102C800083A3A3121C2E75103A7511087810121C1C
:102C90001775103B7511087810121C177408121A5A
:102CA000AF121C2E124046121A7AE9F509700B1267
:102CB0003483120B23800F750901850C82850D83E7
:102CC000122D471237FF850908804C851882851917
:102CD00083AC82AD83120E89803A85188285198370
:102CE000AC82AD83120E8F802B851882851983AC40
:102CF00082AD83120E95801C851882851983AC8263
:102D0000AD83120E9B800D851882851983AC82AD30
:102D100083120EA1E9F508E50860298E828F83A34E
:102D2000E06414601F850E82850F83E090083A12DC
:102D30002D5112401E90083B1237FFE508A3122DBB
:102D400059120AFF0236EE12402285188285198335
:102D500022F085188285198322F07C3A7D08850A45
:102D600082850B831234912274EE121ABB74FC120A
:102D70001A648A0A8B0B8C0E8D0FEA2405F508EB7A
:102D80003400F5097C157D0079007A3A7B0812063B
:102D90006DE5082402F50CE509123CFD85188285D5
:102DA00019838582108583117810121C178508827B
:102DB000850983A3A3A3A312324F121C17E508248D
:102DC00005F510E5093400F5117810121C17850C73
:102DD00082850D831235A4120DA57406121A7A8A03
:102DE000108B11AE10AF11E50A2402F50AE50B12A3
:102DF00037E2EE4F7003022F2680177402121AAFCB
:102E000012348D88828983EAF0A3EBF090083AE0CF
:102E100004F090083AE0C394054003022F26E4F53D
:102E200010F5117810121C17751023751108781001
:102E3000121C177510247511087810121C177406CF
:102E4000121AAF121C2E7910EEFCEFFD1240481240
:102E50001A7AE9705E850882850983A3A3A3A3A3D8
:102E6000A3A3E0F8900823E068704812324F121CC8
:102E7000177C247D08E5082408FAE5093400FB12D4
:102E800006677402121A7AE960298E828F83A3A3DF
:102E9000A3A312348D90083AE0F510740278101252
:102EA0001A51743B2510F58274083511F583EAF048
:102EB000A3EBF07402121AAF85821085831178108B
:102EC000121C177402121AAF121C2E850C82850D6B
:102ED000831234B3121A7A8A108B11AE10AF11908C
:102EE000083AE0F51075110074027810121A517446
:102EF0003A2510F874083511F988828983A3122ABB
:102F0000E97003022DF2E82403080808E93400F907
:102F1000EE4F6003022DFB8882898374FFF0A3F0DB
:102F200090083AE004F090083AE0600A1234831204
:102F30000B117900800B8508828509831237F67999
:102F40000A0236EE74EA121ABB74FE121A648C126C
:102F50008D13EA2405F50CEB124030123D2675085E
:102F600000750900EA2402F510EB3400F51185180C
:102F70008285198385820A85830B780A121C17853E
:102F80000C82850D83A3A3A3A312311C121C17E589
:102F90000C2405F50AE50D1237E2780A121C178594
:102FA0000C82850D83123120120DA57406121A7A37
:102FB0008A0A8B0BEA450B70030230C1EA2404F540
:102FC0000EEB123106123D268A828B83A3A3A3E067
:102FD000F985108285118312349760030230C1E4B1
:102FE000F514F5157814121C177514237515087847
:102FF00014121C177514247515087814121C1774F4
:1030000006121AAF121C2E7913AC0AAD0B85108272
:1030100085118312404E121A7AE9F50960030230D5
:10302000C1900823E0F8E5087009E0240290083B0D
:10303000F0801490083BE0FCE82402FAE43400FB42
:10304000EA6C7001EB707E850882AA821232469487
:103050001412323E506B850E82850F83E0C0E074FF
:103060003C2A1230FDD0E0F00508850E82850F83E2
:10307000A3E0C0E085080A743C250A1230FDD0E0C8
:10308000F0050890082312311C121C177C247D08BF
:1030900085080A743C250A123110121A7A90082306
:1030A000E02508F50874FF6E700374FF6F6012EE80
:1030B00024010EEF3400FFE508C394145003022FDF
:1030C0006EE50860131234A18510828511831234D5
:1030D0008D120B1779008014E509700375090A85B4
:1030E0001282851383EEF0A3EFF0A9097402121A7D
:1030F0007A7F0E021B8D85080C743C250CF58274BA
:10310000083400F583223400F50F850E82F5832202
:10311000FA74083400FB120655740222123D5C2238
:10312000A3A3123126221237EDFDEEFAEFFB227433
:10313000EE121ABB74FE121A648C0E8D0FEA24056F
:10314000F50CEB123CFD750B0090083AE4F0F50A23
:10315000EA2402F508EB3400F509804490083AE0CF
:10316000FA900823E0F8123246941712323E400DCE
:1031700090083AE0F87416C398900823F012324F82
:10318000121C177C247D08743B2AFA740812311330
:10319000121A7A900823E0F890083AE028F0050A1D
:1031A000E50C2416F582E50D123101E0F8E50AC3BD
:1031B00098507490083AE0C39416506BE50AC333F4
:1031C000F8E433F9E50C28FEE50D39FF8518828512
:1031D0001983AC82AD838E828F831232587008754A
:1031E0000B011237F28050E4F510F5117810121C23
:1031F000177510237511087810121C177510247597
:1032000011087810121C177406121AAF121C2E79AE
:103210001685088285098312404E121A7AE9F50B49
:10322000700302315C80BB7C3A7D08850882850989
:103230008312348D120B29A90B74020236F0E99423
:1032400000C365D03322EA28F8E43400F9E822E02C
:10325000F5107511007810221236E58A108B11AC2A
:1032600010AD11EC4D2274EA121ABB74FC121A64F0
:103270008A0C8B0D8C128D13EA2405F50AEB12379C
:10328000E2750800750900E50A2402F510E50B3423
:1032900000F5117402121AAF85820E85830F780E25
:1032A000121C17850A82850B83A3A3A3A3123D02D8
:1032B000121C17E50A2405F50EE50B3400F50F780E
:1032C0000E121C178510828511831237E81234877D
:1032D000120DA57406121A7A8A0E8B0FAE0EAF0F5E
:1032E000E50C2402F50EE50D3400F50F80388882D8
:1032F000898374FFF005081230F674FFF00508901A
:103300000823E0F50C750D00780C121C177C247D49
:103310000885080C743C250C123110121A7A90089A
:1033200023E02508F508EE4F60278E828F83A3A344
:10333000A3E0F9850E82850F83123497EE240412E0
:103340003CFAE96027850C82850D831234791237A7
:10335000FFE508700302345F1234A1850E82850FE9
:103360008312348D120B2F7900023474E4F514F5B6
:10337000157814121C177514237515087814121C6F
:10338000177514247515087814121C177408121A6E
:10339000AF121C2E7911EEFCEFFD850E82850F8396
:1033A00012404E121A7AE9F509709A850882AA82AB
:1033B000EA9008237009E0240490083BF08025E09F
:1033C000F890083BE0F514E82404FCE43400FDEC3C
:1033D00065147001ED7081123246941212323E4033
:1033E00003023358850C82850D83E0C0E0743C2ACB
:1033F0001230FDD0E0F00508850C82850D83A3E036
:10340000C0E01230F6D0E01234BC85820C85830D0A
:10341000780C121C177404121AAF121C2E8510821D
:103420008511831234B3121A7A8A0C8B0DAE0CAF4D
:103430000D85080C743C250CF874083400F9EE4F27
:1034400070030232EE851882851983E088828983B1
:103450001234BCA3E0C0E01230F6D0E00232FCE54A
:1034600009700375090A850A82850B831234791263
:1034700037FFA90974040230EE12402285128285BA
:103480001383227C3A7D08850A82850B831234914E
:1034900022E0FAA3E0FB22123491120D93E9F50920
:1034A0002290083BE0F5F0E5088490083AF07C3A79
:1034B0007D0822123126120DB1740422F005088510
:1034C00018828519832274EC121ABB74FE121A64D6
:1034D0008A088B098C0E8D0FEA2405FEEB3400FF61
:1034E0001236CFEE2418123CFAEA450B700302356F
:1034F000721236B850291235978A108B11EA45118D
:10350000606B7912AC0AAD0B850882850983123491
:103510008D851082851183121AB9E9F50A7058E475
:10352000F50AF50B780A121C178E828F83A3A3E08D
:10353000F50A780A121C17EE24031237DF780A12F4
:103540001C178E828F831235A4120EC57406121AB0
:103550007AE9F50A7021850C82850D83E0701F855C
:10356000088285098312348D120B358011750A0E7D
:103570008009750A018004E50A60031237F2850CA0
:1035800082850D83E0600479008002A90A7402122A
:103590001A7A7F0C021B8D8518828519831234914B
:1035A000120EB3221237EDFD85088285098312348D
:1035B000912274EE121ABB74FE121A648A088B09E7
:1035C0008C0C8D0DEA2405FEEB3400FF750E001205
:1035D00036CFEA450B70030236961236B8502C12DD
:1035E00035978A0E8B0FEA450F604A7912AC0AAD07
:1035F0000B85088285098312348D850E82850F83A1
:10360000121AB9E9F50E6003023699850882850918
:10361000831238D4AA0AFB1236AA70147AFF7BFFF1
:103620001236AA606C88828983E50AF0A3E50BF064
:10363000750A008007750E0E805F050A900820E06D
:10364000FAE50AC39A504AE50A75F017A4FAABF0F6
:1036500088828983A3A3E02AFAA3E03BFB8A828BBA
:10366000831237E8EC4D70D2750A17750B00780A93
:10367000121C17EEFCEFFD1206557402121A7AEEB8
:10368000FCEFFD85088285098312348D120B3B8087
:1036900014750E098003750E0112401A850C82857F
:1036A0000D831237FFA90E023239120EA78A108B32
:1036B00011A810A911E84922E5082402F508E50936
:1036C0003400F5098A828B83A3A3A3E0A2E52285B7
:1036D0001882851983AC82AD838E828F831236E582
:1036E0008A0A8B0B22E0FAA3E0FB120DAB227404D2
:1036F000121A7A7F0A021B8D74EC121ABB8C108D81
:1037000011EA2405F50CEB123CFD750F00EA2402CA
:10371000F50AEB1237E2850A82F58312348D1240E6
:10372000D470030237D4750E008071850C82850D2C
:1037300083E06401704F8E828F83A3A3121C2E8EB0
:10374000828F83A3A3A3A3E0F5127513007812124E
:103750001C17EE2405F512EF3400F5137812121C35
:1037600017123487120EC57406121A7AE9F50F6023
:1037700014850C82850D83E4F012401A8510828531
:1037800011831237FF7C177D007900EEFAEFFB12F0
:10379000066D8E828F83E4F0A3F0050E900820E082
:1037A000F8E50EC398501EE50E75F017A4F8A9F0C1
:1037B000850882850983A3A312403A1237E8EC4DAD
:1037C000600302372B85088285098374FFF0A3F01C
:1037D000E50F7006123487120B41A90F023592F5DE
:1037E0000AEF3400F50B22A31237EDFD22E0FCA313
:1037F000E0228E828F83124022850E82850F83E81D
:10380000F0A3E9F022C082C08390081CE06A700334
:10381000A3E06B70067A1C7B0880047A007B0002B0
:103820002B4774F7121ABB7F00EF75F003A4F8A9B9
:10383000F0EC28F8ED39F988828983E06A7003A3F7
:10384000E06B7006E8FAE9FB800B0FEFC3940240CF
:10385000D87A007B007F01021B8D74F6121ABB120E
:103860003E0B70067A007B008007A3A3A3A312344B
:103870008D023ECC74F2121ABBE9FE740E121AAF1E
:103880001238D47410121AAF123D3C8C828D83E032
:103890006402703BA312401E88828983E0F50CA36A
:1038A000E0F9A80C74026870037429697021750C22
:1038B00002750D00780C121C177808121C17780A74
:1038C000121C17EEF9120EE97406121A7A800279A8
:1038D00001023F3CE0F50AA3E0F50B2274E8121A5E
:1038E000BB74FB121A64E9851882851983F08A1665
:1038F0008B178C0E8D0F741F121AAF123D3C742162
:10390000121AAF1238D47423121AAF123D26751052
:10391000008C828D83A3A3A3E0A2E4502A741D121D
:103920001AAF12359D8A828B83E58245837003022C
:1039300039E8790AAC0EAD0FAA16AB17121AB9E91D
:10394000F51060030239EB850E82850F83E0640277
:103950006003023CA1A312401E850882850983A34F
:10396000858212858313E50E2406F50CE50F123CC3
:10397000FD88828983E0FAA3E0F9EA2400F514E4E3
:1039800039F5157814121CA1010000280128B0395E
:1039900007000228873A0328F7390029B13B01299B
:1039A000D93B0229803B0329B13B0429423CA13C7D
:1039B000EE4F703E850C82850D83123D17FAE9FBB0
:1039C0008A828B83E0850A82850B83123D53121C09
:1039D000178A828B83A31237EDFDAA08AB09120662
:1039E000557402121A7A800375100EA9107405021C
:1039F000402875100B80F4EE4F70F7850A82850B16
:103A0000837401F0123D2C850882850983F07C00C7
:103A10007D00850E82850F83A3A3A3A3E02401FA72
:103A2000A3E03400FB120DABEA4B60418A828B832A
:103A3000E02402F8850A82850B83E028F0EA24045A
:103A4000F8EB3400F988828983E08512828513833C
:103A5000123D65123D53121C178A828B831237E781
:103A6000E5082403FAE5093400FB0239DE850A8201
:103A7000850B83E02404F07C047D007900AA12AB5E
:103A80001312066D0239EBEE4F60030239F2123D5C
:103A90002CFEA3E0FF850A82850B837404F0EE857B
:103AA0000882850983F0EF851282851383F0740301
:103AB000121AAFAC82AD83EEFAEFFB123DF9700340
:103AC000023B5D8A828B83A3A3123D227401121AEA
:103AD000AF85820E85830F780E121C177405121A9B
:103AE000AF121C2E7CFF7DFF120DB17404121A7AE6
:103AF0008B0FEA450F7033850C82850D83123D02D2
:103B0000121C17850C82850D83A3121C2E7C027D4E
:103B1000007AB07B83120BDD7404121A7AE9700A02
:103B20007401121AAF74FFF0A3F08E828F83E064E9
:103B3000027034750C02750D00780C121C178E8201
:103B40008F831237E7E5082404FAE50912311312CE
:103B50001A7A850A82850B83E02402800974011297
:103B60001AAFEEF0A3EFF07401121AAF123D13F08A
:103B70007401121AAFA3123D0BA3A3A3F00239EBF9
:103B8000EE4F60030239F2850C82850D831237E80F
:103B9000AA16AB17120EDD850A82850B837402F01C
:103BA000EA850882850983F0851282851383EB807C
:103BB000CBEE4F60030239F2123D2CF8A3E0F985F9
:103BC0000A82850B837402F0E8850882850983F0F8
:103BD000E985128285138380A3850C82850D83126B
:103BE000348D12064FEAFC8C82A882C39EE49F406B
:103BF0004BE86E7001EF70047C00801F8518828591
:103C00001983E0FAEE2AFAEF3400FBC3EA98EB944A
:103C1000005003E08004EECCC39CFCEC850A828556
:103C20000B83F08C0A750B00780A121C17850C8226
:103C3000850D83E02EFCA3E03F0239D97510070201
:103C400039EBEE4F60030239F2850C82850D831249
:103C5000401E850A82850B837407F088828983124F
:103C60003D0B123CF3E0851282851383F0E82402B9
:103C7000FAE93400FB8A828B83123D0B123D441219
:103C80003D13A3123D4D123D1CF0E82405F8E93424
:103C900000F988828983123D1CA3123D65A3023B73
:103CA00079741D121AAF123E0470030239E81240F3
:103CB0001E880C890DE8450D70030239E88E108FBF
:103CC000117810121C17780A121C177808121C178A
:103CD0007406121AAFE0F9AC0EAD0FAA16AB178539
:103CE0000C82850D83121AB97406121A7AE9F5103E
:103CF0000239EBF088828983A322F50CEF3400F5BA
:103D00000D22E0F50E750F00780E22E08508828501
:103D1000098322123D6C22124022E822123D6CA33C
:103D2000A322A3A3A3A3E0FEA3E0FF22850C828528
:103D30000D83E0F8A3E0F5838882E022E0F508A394
:103D4000E0F50922A3A3F08A828B83A322122A64BE
:103D5000A3A322F08A828B83123D5C22E0F50A75D0
:103D60000B00780A22123CF3123D6C22E085088297
:103D7000850983A3A32274EE121ABB74FE121A647F
:103D80008A0A8B0BECFAEDFB7414121AAFE0F510F3
:103D9000A3E0F5117416121AAFE0FE7418121AAFF0
:103DA000E0F50EA3E0F50F851882851983AC82AD8E
:103DB00083123DF9603E851882851983123E0460A6
:103DC0002FA3A3123D3CE50845096024780E121C80
:103DD000177810121C17EEF9AC0CAD0DAA0AAB0B3C
:103DE000850882850983121AB97404121A7A80062A
:103DF000790E80027901023239120DAB8A0C8B0DDB
:103E0000EA450D22123491123E0B22120E718A8263
:103E10008B83E58245832274F6121ABB74FE121A54
:103E200064740C121AAF123D17851882851983F03D
:103E30007401121AAFE9F0E4F508F5097808121CCC
:103E4000177508027808121C177404121AAF8582BD
:103E5000088583097808121C17120EC57406121AF9
:103E60007A7402121A7A806474F7121ABBEAFEEBB3
:103E7000FF89087C537D08120EDDEA5402600BA90D
:103E800008EEFAEFFB120D9F80027901023855749B
:103E9000F6121ABB74FF6A700374FF6B701C7B0010
:103EA000EB75F003A4F8A9F0EC28F8ED39F9123E0F
:103EB000D10BEBC39402501480E6120EAD8A088B2E
:103EC00009A808A909E8496003123ED17F02021B34
:103ED0008D8882898374FF122A62E4F02274F612BC
:103EE0001ABB120EAD8A828B83E58245836006A3DE
:103EF000A3E0FA80027A007B0080D174F2121ABB30
:103F00008A088B09ECFEEDFF740E121AAFE0F50A79
:103F1000123F41701CEEFCEFFD7AFF7BFF123F4128
:103F200070047911801688828983E508F0A3E50979
:103F3000F088828983A3A3E50AF079007F06021B3B
:103F40008D120EAD8A0C8B0DA80CA90DE8492274B8
:103F5000EE121ABBEAFEEBFF8C088D09890C741275
:103F6000121AAF12401E7414121AAF1237E87416E8
:103F7000121AAF12348D750D00EC4D600302401221
:103F80007402650C600302400D888289831237ED4C
:103F9000F9EC2400F50EE439F50FEAF4F8EBF4F946
:103FA000EC58F8E50F59F9E849705DE5082406F882
:103FB000E5093400F9880A890B8882F583123122D9
:103FC000120EDD8A108B11E50E65107004E50F6589
:103FD000116042780E121C17850A82850B831231FC
:103FE00022120EE37402121A7AE9F50D7027780E88
:103FF000121C17850882850983A3A3123120120E93
:10400000F57402121A7A800D750D808008750D0DF9
:104010008003750D0BA90D0236F38E828F8312403B
:104020002222E0F8A3E0F922121A7A7F10021B8DF7
:104030003400F50D850C82F58322E028FEA3E039DB
:10404000FF8E828F83227916850A82850B83123434
:1040500091120EBF74082274F2121ABBEAFEEBFF33
:10406000890B7401650B600E7402650B7063790136
:104070001210CFE9705BEEFAEFFB1240D460477587
:104080000A00800B7C177D00790012066D050A90EE
:104090000820E0F8E50AC3985021E50A75F017A456
:1040A000F8A9F0850882850983A3A3E028FAA3E094
:1040B00039FB8A828B83122B4E70C9850882850951
:1040C0008374FFF0A3F07C537D08EEFAEFFB120E31
:1040D000D7023F3C120EA78A088B09EA45092274D1
:1040E000F2121ABB8A088B09ECFEEDFF740E121A4D
:1040F000AF1238D49010FBE0F4603D7A097B0012D7
:104100000679EA4B60328A828B8374B1F0A3E412A1
:104110003D46A3123D44A3E508F0A3E50912413B47
:10412000EEF0A3EF12413BA3A3E50AF0A3E50BF0E9
:104130009010FBE0F9120685023F3CF08A828B83E7
:10414000A3A3A3A3A322C082C0839061907404F0B0
:10415000A37448F0A37402F09061807440F0906101
:10416000BC7403F09061877419F0906265741BF061
:1041700090619C740DF090619A7433F0A37455F0C3
:104180009061A0743AF0900A97E064017009C291BE
:10419000900901746780059009017461F0902926E7
:1041A000E493906186F0902920E493F46027E493EF
:1041B000540FF8906185E0686012E5C65480444968
:1041C000F5C6E59E547F644970F8E8F053C680E573
:1041D0009E547F70FA7905121423024388C082C06E
:1041E00083E9540FF9906185E0696012E5C6548057
:1041F0004449F5C6E59E547F644970F8E9F053C61A
:1042000080E59E547F70FA024388C082C083E5A88F
:10421000F853A87E906181E4F0A3F0A3F0C2BA53F2
:104220009AFEC289759B00C2C275E900759100753E
:10423000BF0075A91175B905906181F0A374C0F034
:10424000A3E4F0D2BA439A0174805842A80243888A
:10425000C082C08374F8121A649008FFE0F8A3E0EB
:10426000F9E849700302437E9008FFE05440602360
:104270007908851882851983AA82AB8312128B85EF
:104280001882851983AA82AB83120F619008FFE020
:1042900054BFF0E054806010790C7ABB7B0A121294
:1042A0008B9008FFE0547FF0E0A2E0503190619ADB
:1042B0007433F0A37455F09061A0743AF0900A97AB
:1042C000E064017009C2919009017467800590094A
:1042D000017461F0120F679008FFE054FEF0E054A3
:1042E00002603190619A743FF0A3745AF09061A01B
:1042F000747FF0900A97E064017009D291900901EF
:1043000074718005900901746AF0120F679008FFBC
:10431000E054FDF0E054046013902924E49390618C
:1043200086F0120F6D9008FFE054FBF0E054086037
:1043300013902925E493906186F0120F6D9008FF89
:10434000E054F7F0E054106013902926E493906154
:1043500086F0120F6D9008FFE054EFF0E0542060FB
:104360000A120F6D9008FFE054DFF0A3E0540160E3
:104370000D1211B3120F73900900E054FEF074088F
:10438000121A7A8003F0A3F0D083D0820201357430
:10439000EC121ABB74F4121A64851882851983AC66
:1043A00082AD837583827582F07404121977902927
:1043B0002493F4600302451C907808E0C3940250F3
:1043C000030244FC7404121AAFAC82AD837583827D
:1043D00075827E7408121977851882851983858203
:1043E000128583137404121AAFAC82AD83750EFF6D
:1043F000750FFF7FFF7E00750C48750D7880157472
:10440000086E700302448F74096E700302448F7447
:104410000A6E607B850C82850D8378081219348CB6
:10442000828D83A909E50AC9F888107418780812E2
:10443000185DE5104508F8C3E098A3E099850C8263
:10444000850D83780812193440188C828D83741876
:10445000780812185DE5104508F8E0C398F8A3E065
:10446000801C7418780812185DE5104508FAE9FBFD
:104470008C828D83E0F8A3E0F9EAC398F8EB99F910
:10448000C3E8950EE9950F5006880E890FEEFF0ED2
:10449000E50C2404F50CE50D3400F50DEEC3941382
:1044A00050030243FF74FF650E700474FF650F60D4
:1044B000238F0874027808121A5174482508F5826F
:1044C00074783509F58378081219348512828513BA
:1044D00083E508F0EC24020C0CED3400FD8512821B
:1044E000851383A3858212858313740C121AAFE59A
:1044F000826C7003E5836D60030243ED75080175FE
:1045000009007808121C177402121AAFAC82AD832E
:104510007A497B0A1208777402121A7A740C121AFA
:104520007A7F0C021B8DC082C0839061AE7468F0EC
:10453000A3746AF090624574FBF0A304F053F4FD99
:1045400043FE02900A977401F09061A0E0643A90F3
:10455000619A70237433F0A37455F09061A0743A9B
:10456000F0740164017009C2919009017467802898
:1045700090090174618021743FF0A3745AF0906136
:10458000A0747FF0740164017009D29190090174E4
:10459000718005900901746A0243877F04021B8DB4
:1045A000C082C083900A49E06401700A900A4EE01C
:1045B0006004790C80027900024388C082C0837550
:1045C000E1F1900A4CE060551460081460591460E1
:1045D0005180591211C5900A42E0F97A437B0A12C0
:1045E00013A59082E81219521213DB9082FC121963
:1045F000521213B1900A4DE0F91213BD7901121451
:1046000017900A40E02416F8A3E03400F988828964
:104610008374DDF0A37411F079000243881211CB8A
:1046200080B41211D180AF1211D780AA791280EA1A
:1046300074F4121ABB75D90D900A31E0A2E0E4338C
:104640001313F8900A42E0C4333354C0484401F5D0
:10465000D97840790A88828983A3A3A3E0F5D98811
:10466000828983A3A882A983E864467003E9640A67
:1046700070E37831790A88828983A3E0F5D988824A
:104680008983A3A882A983E864377003E9640A7068
:10469000E575E195900A31E0F97A327B0A1213ABA5
:1046A00090111D7471F0A37411F0A374D3F0A3746E
:1046B00012F0A374D3F0A37412F0A374D3F0A37414
:1046C00012F0A37477F0A37411F0A374D3F0A37461
:1046D00012F0A3748FF0A37411F090112B74D3F027
:1046E000A37412F0A374D3F0A37412F0A374D3F0E4
:1046F000A37412F0A374D3F0A37412F0A374D3F0D4
:10470000A37412F0A374D3F0A37412F0900A40E0E3
:10471000F8A3E0F5838882A3A37808121934908265
:10472000E478081218A89082F4780812190E900AFA
:1047300040E0240EF8A3E03400F9888289837808E9
:10474000121943900A40E02414F8A3E03400F988D9
:104750008289837413F09008FD7402F002459BC0B7
:1047600082C083900A52E02407F5D9900A42E0C43F
:10477000333354C0F5D97840790A88828983A3A35A
:10478000A3E0F5D988828983A3A882A983E8644637
:104790007003E9640A70E3900A52E0601F78407980
:1047A0000AFAE82413F582E93400F583E0F5D988A4
:1047B000828983A3A882A9831AEA70E6900A72E02C
:1047C0002407F5D9900A42E0C4333354C04404F5B9
:1047D000D97840790A88828983A3A3A3E0F5D98890
:1047E000828983A3A882A983E864467003E9640AE6
:1047F00070E3900A72E0601F7840790AFAE8243387
:10480000F582E93400F583E0F5D988828983A3A88D
:1048100082A9831AEA70E675E19590111D747DF006
:10482000A37411F0A374D3F0A37412F0A374D3F0A3
:10483000A37412F0A374D3F0A37412F0A37477F0EE
:10484000A37411F0A374D3F0A37412F0A3748FF0C7
:10485000A37411F090112B74D3F0A37412F0A3740D
:10486000D3F0A37412F0A374D3F0A37412F0A37462
:10487000D3F0A37412F0A374D3F0A37412F0A37452
:10488000D3F0A37412F09082C0121952900A40E043
:10489000240EF8A3E03400F98882898312195E900F
:1048A0000A40E02414F8A3E03400F9888289837474
:1048B00012F09008FD7401024387C082C083900A01
:1048C00052E02407F5D9900A42E0C4333354C0447F
:1048D00002F5D97840790A88828983A3A3A3E0F5F9
:1048E000D988828983A3A882A983E864467003E9F2
:1048F000640A70E3900A52E0601F7840790AFAE88F
:104900002413F582E93400F583E0F5D988828983A0
:10491000A3A882A9831AEA70E675E19590111D7427
:1049200089F0A37411F0A37489F0A37411F0A37437
:1049300089F0A37411F0A37489F0A37411F0A37427
:1049400089F0A37411F0A37489F0A37411F0A37417
:104950008FF0A37411F090112B74D3F0A37412F0A4
:10496000A374D3F0A37412F0A374D3F0A37412F061
:10497000A374D3F0A37412F0A374D3F0A37412F051
:10498000A374D3F0A37412F09082C0121952900A4B
:1049900040E0240EF8A3E03400F9888289831219DC
:1049A0005E900A40E02414F8A3E03400F98882897C
:1049B000837414F09008FD7404024387C082C0839E
:1049C000900A52E02407F5D9900A42E0C4333354E8
:1049D000C04406F5D97840790A88828983A3A3A3C5
:1049E000E0F5D988828983A3A882A983E864467008
:1049F00003E9640A70E3900A52E0601F7840790A84
:104A0000FAE82413F582E93400F583E0F5D98882C9
:104A10008983A3A882A9831AEA70E6900A72E02427
:104A200007F5D9900A42E0C4333354C04404F5D9A1
:104A30007840790A88828983A3A3A3E0F5D9888284
:104A40008983A3A882A983E864467003E9640A7095
:104A5000E3900A72E0601F7840790AFAE82433F59F
:104A600082E93400F583E0F5D988828983A3A8829E
:104A7000A9831AEA70E675E19590111D7483F0A37D
:104A80007411F0A374D3F0A37412F0A374D3F0A341
:104A90007412F0A374D3F0A37412F0A374D3F0A330
:104AA0007412F0A374D3F0A37412F0A3748FF0A364
:104AB0007411F090112B74D3F0A37412F0A374D37B
:104AC000F0A37412F0A374D3F0A37412F0A374D300
:104AD000F0A37412F0A374D3F0A37412F0A374D3F0
:104AE000F0A37412F09082C0121952900A40E02490
:104AF0000EF8A3E03400F98882898312195E900AC7
:104B000040E02414F8A3E03400F988828983741506
:104B1000F09008FD7403024387C082C083900A406E
:104B2000E0F8A3E0F5838882A3A3A3A3A3A3E402F0
:104B3000438574F7121ABB90092BE0F875F004A4B2
:104B4000C8AAF02AF9742D28F8740939F9E824055F
:104B5000FAE93400FB8A828B83E0FCA3E0FD8882C3
:104B60008983A3A3A3A3A3A3A3A3A3ECF0A3EDF022
:104B700088828983A3A3A3A3A3A3A3E024FFF8A30C
:104B8000E034FFF98A828B83E8F0A3E9024DD77401
:104B9000F7121ABBEAFEEBFF9061D0E06003024C13
:104BA0006C75D90E75D90375D904EE248CF582EF96
:104BB0003400F583E5822408F8E5833400F9E0F554
:104BC000D9A3E865827003E9658370F2EE2484F569
:104BD00082EF3400F583E5822404F8E5833400F99C
:104BE000E0F5D9A3E865827003E9658370F275E1A9
:104BF000957908EE248CFAEF3400FB12127F7904C9
:104C0000EE2484FAEF3400FB12127F7C00EEF8EF02
:104C1000F9ECFAC3E49AFA95E0FBEE2AFAEF3BFBD3
:104C2000EA248BF582EB3400F583E0C0E0E824ABA6
:104C3000F582E93400F583D0E0F00C88828983A303
:104C4000A882A983ECC3940840C7EE2470F582EFD4
:104C50003400F583E0F8A3E0F9EE2472F582EF3436
:104C600000F583E8F0A3E9F0790180027900024DB4
:104C7000D8C082C08375D90275D90375D90575E18D
:104C800095EA2470F582EB3400F583E0F8A3E0F9AF
:104C9000EA2472F582EB3400F583E8F0A3E9F079B9
:104CA0000102438874F6121ABBEAFEEBFF900A9BDE
:104CB0007406F075089B75090A7808121C177C01A8
:104CC00079031212C77402121A7A75D90675D903BC
:104CD00075829B75830AE0F5D9A3E58264A0700410
:104CE000E583640A70F075E1959008FDE064087052
:104CF0001EEE2470F582EF3400F583E0F8A3E0F9AE
:104D0000EE2472F582EF3400F583E8F0A3E9F07940
:104D100001024EA474F6121ABBEAFEEBFF9061D0BA
:104D2000E070667801900A9B740BF09008FDE064D7
:104D300007701975089B75090A7808121C177C0101
:104D400079031212C77402121A7A7805740128F5D1
:104D5000D975D90375829B75830AE8FAE0F5D9A362
:104D60001AEA70F875E195EE2470F582EF3400F5DB
:104D700083E0F8A3E0F9EE2472F582EF3400F583C6
:104D8000E8F0A3E9F0790180027900024EA474F7FB
:104D9000121ABBEAFEEBFF75D90375D90375D90D5D
:104DA000EE24DEF582EF3400F583E0F5D975E19568
:104DB00079041213E1EE2470F582EF3400F583E0FC
:104DC000F8A3E0F9EE2472F582EF3400F583E8F001
:104DD000A3E9F079018001F07F01021B8D74F612C6
:104DE0001ABBEAFEEBFF9061D0E0F87480C398FA3A
:104DF000EE2483F582EF3400F583E06004780480CC
:104E0000027800E8240BF8EAC3985003024EA27D12
:104E100009900A9BEDF0EE24E3F8EF3400F97A9C58
:104E20007B0A7C0888828983E08A828B83F088826F
:104E30008983A3A882A9838A828B83A3AA82AB8356
:104E40001CEC70E0EE2483F582EF3400F583E06023
:104E50001D75089B75090A7808121C177C097903CF
:104E6000EEFAEFFB1212C77402121A7A7D0D74016A
:104E70002DF5D975D90375829B75830A8D08E0F5E8
:104E8000D9A31508E50870F675E19579041213E1C8
:104E9000EE241DF582EF3400F583E4F0A3F07901F0
:104EA000800279007F02021B8D74F6121ABBEAFEA3
:104EB000EBFF9061D0E0F87480C398FAEE2483F59C
:104EC00082EF3400F583E06004780480027800E823
:104ED0002408F8EAC3985003024FA97D06900A9B64
:104EE000740CF090091AE0900A9CF07A1B7B097808
:104EF0009D790A7C028A828B83E088828983F08A8A
:104F0000828B83A3AA82AB8388828983A3A882A988
:104F1000831CEC70E07A1D7B097C028A828B83E023
:104F200088828983F08A828B83A3AA82AB8388825A
:104F30008983A3A882A9831CEC70E0EE2483F58208
:104F4000EF3400F583E0601D75089B75090A780849
:104F5000121C177C067903EEFAEFFB1212C77402DB
:104F6000121A7A7D0A74012DF5D975D90375829BC1
:104F700075830A8D08E0F5D9A31508E50870F67564
:104F8000E19579041213E1EE2470F582EF3400F517
:104F900083E0F8A3E0F9EE2472F582EF3400F583A4
:104FA000E8F0A3E9F0790180027900024EA474F6DA
:104FB000121ABBEAFEEBFF9061D0E0F87480C39850
:104FC000FAEE2483F582EF3400F583E06004780480
:104FD00080027800E82404F8EAC39850030250885D
:104FE0007802900A9BE8F0EE24F5F582EF3400F5A4
:104FF00083E0900A9CF0EE2483F582EF3400F58381
:10500000E0601B75089B75090A7808121C177C0262
:105010007903EEFA1212C77402121A7A7806740132
:1050200028F5D975D90375829B75830A8808E0F540
:10503000D9A31508E50870F675E195EE2474F5829C
:10504000EF3400F583E4F0EE2480F582EF3400F5D0
:1050500083E4F0EE241DF582EF3400F583E4F0A341
:10506000F079041213E1EE240DF582EF3400F5839C
:10507000E0F8A3E0F9EE2472F582EF3400F583E85E
:10508000F0A3E9F0790180027900024EA474F612CF
:105090001ABB9061D0E0F87480C398FCEA2483F5D1
:1050A00082EB3400F583E06004780480027800E845
:1050B0002404F8ECC398405B7902900A9B7407F0D3
:1050C000EA24F6F582EB3400F583E0900A9CF0EADE
:1050D0002483F582EB3400F583E0601875089B7536
:1050E000090A7808121C177C02091212C7740212EE
:1050F0001A7A7906740129F5D975D90375829B75D9
:10510000830AE9F8E0F5D9A318E870F875E1957914
:105110000180027900024EA474F5121ABBE9FCA2C8
:10512000AFE433F50AC2AF7D0080010DEA246FF5CC
:1051300082EB3400F583E0F8EDC398501A8D08EA4D
:105140002508F8EB3400F9E8246BF582E93400F522
:1051500083E06C70D68024EA246FF8EB3400F9E029
:10516000FEEA2EFAEB3400FBEA246BF582EB340006
:10517000F583ECF088828983E004F0E50AA2E092EE
:10518000AF7F03021B8D74F6121ABBA2AFE433FD8E
:10519000C2AFEA246FF582EB3400F583E014F07CB3
:1051A0000060368C08EA2508F8EB3400F9E8246C36
:1051B000F582E93400F583E0C0E0E8246BF582E98C
:1051C0003400F583D0E0F00CEA246FF582EB340074
:1051D000F583E0F8ECC39840CAEA246EF582EB341C
:1051E00000F58374FFF0EA246AF582EB3400F5835E
:1051F000E4F0EDA2E092AF024EA4C082C083E5A825
:10520000F8C2AFEA246BF582EB3400F583E9F0EAEB
:10521000246AF582EB3400F583E4F0E8A2E792AF6C
:1052200002438874F3121ABBEAFEEBFFECFAEDFBC3
:105230008A828B83A3A3A3A3E0541FF0EE2436F548
:1052400082EF3400F583E4F0F50AEEFCEFFD8A828C
:105250008B83E0C0E0EC245DF582ED3400F583D073
:10526000E0F0750B00E50A33333354F8F50C8A820D
:105270008B83E0F508750900E50B7808121A32E512
:1052800008A2E0502FEE2436F8EF3400F988828926
:1052900083E0F508EE2508F508EF3400F509E50888
:1052A0002438F582E5093400F583E50CF08882891D
:1052B00083E004F0050B050CE50BC3940840AF0533
:1052C0000A8A828B83A3AA82AB838C828D83A3AC50
:1052D00082AD83E50AC39405500302524E7F050256
:1052E0001B8D74F7121ABB900929E0640170077ACC
:1052F000007B000254597E0090092FE070F1740188
:10530000F0A3E4F0A3F090098F04F0900992E4F088
:10531000A3F090099504F0900932E4F0A3F0A3F013
:10532000A3F090093C04F0900962E4F0900CD212D2
:10533000195290094512195E900949E4F0A3F0A3AF
:10534000F09009ADF09009A1F09009967480F0A357
:10535000E4F090099CF0900994F0900A18F0A3F002
:10536000A3F0A3F0A3F0A3F0A3F0A3F0900A21F020
:105370009009B0F0900A00F0A3F0900CD2121952EC
:10538000900A0212195E900CD2121952900A06125B
:10539000195E900A0CE4F0900A0EF0900A0AF09060
:1053A0000A24F0A3F0A3F0A3F0A3F0A3F0A3F0A3CA
:1053B000F078297909E8246FF582E93400F58374DF
:1053C000FFF00E88828983A3A882A983EEC3940488
:1053D00040E37A297B097838790A88828983E0C09A
:1053E000E0EA2461F582EB3400F583D0E0F08882B6
:1053F0008983A3A882A9838A828B83A3AA82AB8391
:10540000E8643D7003E9640A70D07A297B0978105A
:10541000790988828983A3E0C0E0EA24E7F582EB7A
:105420003400F583D0E0F088828983A3A882A98321
:105430008A828B83A3AA82AB83E864187003E96431
:105440000970CF900929E004F064017008900931D7
:10545000E090092BF07A2D7B09024DD8C082C083E1
:10546000900930E4F090092FF0900929F0A3F0A3FF
:1054700074FFF075E1F1024388C082C0837800793F
:1054800000900930E06004782D790988828983A32F
:10549000A3A3A3E0F902438874F6121ABBEAFEEB59
:1054A000FF8E828F83A3A3A3E0600F8E828F83A3DE
:1054B000A3A3E4F090092AE014F0900929E014F085
:1054C000700690092B74FFF08E828F83A3A3E4F003
:1054D000900A3DE0700D90092AE0640170057900A2
:1054E0001213C3EE2465F582EF3400F583E0F8A3D0
:1054F000E0F9E8496029EE2465F8EF3400F98808FE
:1055000089098882F583E0FCA3E0FD90092BE0FA8D
:105510007B00120F97850882850983E4F0A3F0EEE3
:10552000FAEFFB1212F7024EA474F7121ABBEAFE4E
:10553000EBFF8E828F83A3A3A3A3E0FA7B00120F5D
:10554000D9EEFAEFFB1212491212DF024DD8C082D7
:10555000C0837810790988828983A3E4F0888289DE
:1055600083A3A882A983E864187003E9640970E63C
:105570009009110248B574F6121ABBEAFEEBFFEC73
:105580002403F8ED3400F988088909EC2407F8EDC4
:105590003400F9E8FCE9FD8C828D83E0F8A3E0F9A2
:1055A000850882850983E0FAA3E0FB1219D9EE246D
:1055B0000DF582EF3400F583E8F0A3E9F08C828DDD
:1055C00083E0F8A3E0F9850882850983E0FAA3E087
:1055D000FB1219D98B09EA45096013EE240DF582F7
:1055E000EF3400F583E02401F0A3E03400F0024E34
:1055F000A474F6121ABBEAFEEBFFEE242EF582EF3E
:105600003400F583E0FCA3E0FD780079FAECFAEDD4
:10561000FB1219D9EE2470F582EF3400F583E8F01F
:10562000A3E9F0780079FAECFAEDFB1219D98B09AD
:10563000EA45096013EE2470F582EF3400F583E04B
:105640002401F0A3E03400F0024EA474F0121ABB5F
:10565000EAFEEBFF7410121AAF7808121934121315
:10566000818A0C8B0D8C0E8D0F900D22780C1218E8
:10567000A89082F4780C12190E780C121C138E82EA
:105680008F83E0F8A3E0F5838882A3A31219521256
:1056900026B67404121A7AE960030257988E828F34
:1056A00083E02402F8A3E03400F9E8FAE9FB8A82F7
:1056B0008B8378081218BB9082F478081219348A08
:1056C000828B837808121921EE240BF582EF3400C7
:1056D000F583C082C0838E828F83A3A3A3A3A3E09C
:1056E0002401F8A3E03400F9D083D082E06870038D
:1056F000A3E0697005790102579A8E828F83A3A374
:10570000A3A3A3A3A3E02401F0A3E03400F0EE24BC
:1057100074F582EF3400F583E064017036EE247591
:10572000F582EF3400F583E0F8A3E0F98E828F83F1
:10573000A3A3A3A3A3A3A3E0687003A3E0697013CA
:10574000EE2475F582EF3400F583E02401F0A3E048
:105750003400F0EE2480F582EF3400F583E064013C
:105760007036EE2481F582EF3400F583E0F8A3E093
:10577000F98E828F83A3A3A3A3A3A3A3E0687003DE
:10578000A3E0697013EE2481F582EF3400F583E025
:105790002401F0A3E03400F079007F08021B8D742F
:1057A000F7121ABB90092BE0F875F004A4C8AAF010
:1057B0002AF9742D28FE740939FF8028EE2465F833
:1057C000EF3400F988828983E0FCA3E0FD888289B8
:1057D00083E4F0A3F08E828F83A3A3A3A3E0FA7BDC
:1057E00000120F97EE2465F582EF3400F583E0F8A0
:1057F000A3E0F9E849604FEE2464F582EF3400F548
:1058000083E0F5087808121C1BEE2463F582EF3460
:1058100000F583E0F9EE2465F582EF3400F583E0CE
:10582000FCA3E0FDEEFAEFFB1212737401121A7A78
:10583000E96089EE2465F582EF3400F583E0F8A392
:10584000E0F9E84970137C007D008E828F83A3A36A
:10585000A3A3E0FA7B00120F97024DD874F2121A3C
:10586000BBEAFEEBFF890A740E121AAFE0FAEE24CF
:1058700062F582EF3400F583E06401600302592889
:105880009061D0E0F87480C398F50CEE2483F58223
:10589000EF3400F583E06004780480027800890822
:1058A000E928F8E43400F9E824020808E93400F9AA
:1058B000E50C98E499A2D265D0334068EA7005758A
:1058C0000B028003750B01E060397509007808123E
:1058D0001C177A9B7B0A1212A97402121A7A750895
:1058E0009B75090A7808121C17AC0AA90BEEFAEF8F
:1058F000FB1212C77402121A7A7404250AF50A7C84
:105900009B7D0A7401250AF5D9850BD9E50A600D3E
:105910008C828D83F8E0F5D9A318E870F875E195CD
:10592000790080067907800279FF7F06021B8DC00F
:1059300082C083E960208C828D83E08A828B83F031
:105940008C828D83A3AC82AD838A828B83A3AA824F
:10595000AB8319E970E0ECFAEDFB02438874F012B6
:105960001ABB890A7F008A088B097808121C5B0021
:10597000040D325B9059AD59C559DB59F159075A9D
:10598000265A435A565A855AB75AD45AF15A105B76
:105990007401650A70128C828D83E0C394035008F1
:1059A000E0900E15F0025B537F18025B53740265A2
:1059B0000A70F58C828D83E0F8A3E0F9900E16E86A
:1059C000F0A3E980DF7401650A70DD8C828D83E0CD
:1059D000C3940250D3E09004C580C97401650A7075
:1059E000C78C828D83E0C3940550BDE09004C680CF
:1059F000B37401650A70B18C828D83E0C394025048
:105A0000A7E09004C7809D7410650A709B7508100C
:105A10008F097808121C177AC87B04120655740285
:105A2000121A7A025B537401650A60030259A88C4A
:105A3000828D83E0C3940240030259A8E09004D809
:105A40000259A47401650A60030259A88C828D83EF
:105A5000E0900E1980837404650A60030259A890CF
:105A60008334780C1219348D838C82780C1216AB27
:105A700040030259A88C828D831219529004DA12C5
:105A8000195E025B53E960030259A8120D4BE970DD
:105A90001E7E00EEF91207CFE9F80EEEC3940A500D
:105AA00003E860EF7950120A9F1207C9025B539016
:105AB000056D74010259A47401650A60030259A8B6
:105AC0008C828D83E0C3940240030259A8E09004C5
:105AD000D90259A47401650A60030259A88C828D09
:105AE00083E0C3940A40030259A8E0900E180259BB
:105AF000A47401650A60030259A88C828D83E02496
:105B0000F9C3940A40030259A8E0900E1A0259A45E
:105B10007401650A60030259A890056CE0F88C8254
:105B20008D83E090056CF0E87029E0640170240238
