:0400000500000EE702
:020000040000FA
:1000000002066DC2AFF508610DFFFFC2AFF50861D2
:100010001FFFFFC2AFF5086131FFFFC2AFF50861F6
:1000200043FFFFC2AFF5086155FFFFC2AFF508619E
:1000300067FFFFC2AFF5086179FFFFC2AFF5086146
:100040008BFFFFC2AFF508619DFFFFC2AFF50861EE
:10005000AFFFFFC2AFF50861C1FFFFC2AFF5086196
:10006000D3FFFFC2AFF50861E5FFFFC2AFF508613E
:10007000F7FFFFC2AFF5088109FFFFC2AFF50881A6
:100080001BFFFFC2AFF508812DFFFFC2AFF508814E
:100090003FFFFFFF758701002274F312053A890ABA
:1000A000750C00750D08780C12063E7C807D017A77
:1000B000007B0012045574021205FB850A0D9001A5
:1000C00086E0F50EA3E0F50F7409780E12064FE5F1
:1000D0000EF50B9001867409780E12062BE0C3F51D
:1000E0000EA3E0950FF50F7402780E12062BAE0EDC
:1000F000AF0FE50D250BF50B7401650D7006743E11
:10010000250BF50B53B4F375BC0075BC008042742D
:100110008028F582740139F583E0F5BDE8240108F3
:10012000E93400F9C39408402C050A7408650A7084
:1001300003750A46750E00750F08780E12063E7C90
:10014000807D017A007B00A90A1204557402120511
:10015000FB78007900E50D650A700AE849700678B9
:1001600003790080B7E50B650A70A4EE687002EFB2
:1001700069709CE5BD85BC0C850C0EAA0EFB7F0644
:100180000205A074F612053A890CEAFEEBFF53BE95
:10019000FBE59DA2E650FAE5C654804449F5C6E564
:1001A0009E547F644970F853C67FE59EA2E740FAEB
:1001B00053C680E59E547F70FA43BE04906270740B
:1001C00008F07409F5D575D4801200998E828F835A
:1001D000E0F8A3E0F9EA687002EB6970428E828F62
:1001E00083A3A3E8F0A3E9F08E828F8374FFF0A3CA
:1001F000F0750A01750B00780A12063EEEFCEFFD61
:10020000850C0A7409780A12062BFAAB0B1204D675
:1002100074021205FBC2AF75C9AB75C95B80FE7F66
:10022000030205A074FC120615750A04750B00780C
:100230000A12063E7402120689AC82AD837A007BF4
:1002400000790812045574021205FB851A82E0F445
:100250007003A3E0F4602D851A82851B83E0F8A368
:10026000E0F9E849601E7402120689E0687003A391
:10027000E0697010750901024030C2AF75C9AB75F5
:10028000C95B80FE780A12063E7402120689AC82AF
:10029000AD837A007B00790112045574021205FBCC
:1002A000851A82E0F47003A3E0F46051851A828518
:1002B0001B83E0F8A3E0F9E8496042740212068962
:1002C000E0F8A3E0F9851A82851B83E0687003A338
:1002D000E0697010750900020830C2AF75C9AB75CE
:1002E000C95B80FE74FF68700374FF69700F851A24
:1002F00082851B83AA82AB83790112018343BE03EB
:10030000120094C2AF75C9AB75C95B80FEE5096088
:1003100007E508D2AF024033E508D2AF020833E563
:10032000096007E508D2AF02403BE508D2AF0208FA
:100330003BE5096007E508D2AF024043E508D2AFCC
:10034000020843E5096007E508D2AF02404BE50823
:10035000D2AF02084BE5096007E508D2AF0240536F
:10036000E508D2AF020853E5096007E508D2AF02FD
:10037000405BE508D2AF02085BE5096007E508D2FB
:10038000AF024063E508D2AF020863E5096007E504
:1003900008D2AF02406BE508D2AF02086BE50960F6
:1003A00007E508D2AF024073E508D2AF020873E553
:1003B000096007E508D2AF02407BE508D2AF02082A
:1003C0007BE5096007E508D2AF024083E508D2AFBC
:1003D000020883E5096007E508D2AF02408BE50813
:1003E000D2AF02088BE5096007E508D2AF0240935F
:1003F000E508D2AF020893E5096007E508D2AF022D
:10040000409BE508D2AF02089BE5096007E508D2EA
:10041000AF0240A3E508D2AF0208A3E5096007E5F3
:1004200008D2AF0240ABE508D2AF0208ABE50960E5
:1004300007E508D2AF0240B3E508D2AF0208B3E542
:10044000096007E508D2AF0240BBE508D2AF020859
:10045000BB0002045174F512053A890A740B1206A6
:1004600089E0FEA3E0FF740F550AF50C750D0074CA
:100470000B780C12062BEA2400F8EB3480F9E82400
:1004800000E9350DF9E5C7FBA2AFE433F50BC2AFC8
:10049000E50AC4540FFAE5C754F84AF5C7EE4F60B1
:1004A0002888828983E08C828D83F088828983A367
:1004B000A882A9838C828D83A3AC82AD83EE24FFB6
:1004C0001EEF34FFFFEE4F70D88BC7E50BA2E09212
:1004D000AF7F040205A074F712053A740912068969
:1004E000E0F50AA3E0F50BED900980F0ECA3F0A392
:1004F0007462F0A37473F0A3E0541FF0E50A333381
:1005000054FCA3F07406780A12064FE50A90098499
:10051000F09009867412F0A37442F053D1FE75D6A0
:1005200001EA906271F0EBA3F0906270E0D2E1F02A
:10053000E0A2E740FB7F020205A0251AC582C0E0C9
:10054000E51B34FFC583C0E0E51AC3958224F9108A
:10055000AF0885831B85821A800885831B85821AD4
:10056000D2AFCEF0A3E520F0A3780AE608F0A3DE30
:10057000FAEFF0A3E58124FBF8E608F0A3E608F023
:10058000A30808E608F0A3E608F0A315811581D0BA
:10059000E0FED0E0F815811581E8C0E0EEC0E02271
:1005A000851B83851A82E0A3FEE0A3F520780AE08C
:1005B000A3F608DFFAE0A3FFE0A3C0E0E0A3C0E0F9
:1005C000E0A3C0E0E0A3C0E010AF0885821A8583F5
:1005D0001B800885821A85831BD2AFD083D08222EC
:1005E000251AF58210AF08F51A4002151B8008F590
:1005F0001A4002151BD2AF851B8322C0D0251A10CA
:10060000AF08F51A5002051B8008F51A5002051BA9
:10061000D2AFD0D022251A10AF08F51A4002151B10
:100620008008F51A4002151BD2AF22700422600D1B
:1006300018C6C333C608C633C6D5E0F41822740200
:100640008000C0E0F4041205E0D0E012067C2260D5
:100650000C08C6C313C618C613C6D5E0F42212068A
:1006600098B9000302066712022412069375D0009F
:1006700075813F751A80751B0102065ECAC0E0E6EF
:10068000F0A308DAFAD0E0FA22251AF582E4351B45
:10069000F5832200000080FB790122FFFFFFFFFFAE
:1006A000FFFFFFFFFFFFFFFFFFFFFFFFFFFFFFFF5A
:1006B000FFFFFFFFFFFFFFFFFFFFFFFFFFFFFFFF4A
:1006C000FFFFFFFFFFFFFFFFFFFFFFFFFFFFFFFF3A
:1006D000FFFFFFFFFFFFFFFFFFFFFFFFFFFFFFFF2A
:1006E000FFFFFFFFFFFFFFFFFFFFFFFFFFFFFFFF1A
:1006F000FFFFFFFFFFFFFFFFFFFFFFFFFFFFFFFF0A
:10070000FFFFFFFFFFFFFFFFFFFFFFFFFFFFFFFFF9
:10071000FFFFFFFFFFFFFFFFFFFFFFFFFFFFFFFFE9
:10072000FFFFFFFFFFFFFFFFFFFFFFFFFFFFFFFFD9
:10073000FFFFFFFFFFFFFFFFFFFFFFFFFFFFFFFFC9
:10074000FFFFFFFFFFFFFFFFFFFFFFFFFFFFFFFFB9
:10075000FFFFFFFFFFFFFFFFFFFFFFFFFFFFFFFFA9
:10076000FFFFFFFFFFFFFFFFFFFFFFFFFFFFFFFF99
:10077000FFFFFFFFFFFFFFFFFFFFFFFFFFFFFFFF89
:10078000FFFFFFFFFFFFFFFFFFFFFFFFFFFFFFFF79
:10079000FFFFFFFFFFFFFFFFFFFFFFFFFFFFFFFF69
:1007A000FFFFFFFFFFFFFFFFFFFFFFFFFFFFFFFF59
:1007B000FFFFFFFFFFFFFFFFFFFFFFFFFFFFFFFF49
:1007C000FFFFFFFFFFFFFFFFFFFFFFFFFFFFFFFF39
:1007D000FFFFFFFFFFFFFFFFFFFFFFFFFFFFFFFF29
:1007E000FFFFFFFFFFFFFFFFFFFFFFFFFFFFFFFF19
:1007F000FFFFFFFFFFFFFFFFFFFFFFFFFFFFFFFF09
:10080000DEC0FFFF0600007C41414141FFFFFFFFCA
:10081000FFFFFFFFFFFFFFFFFFFFFFFFFFFFFFFFE8
:10082000000102030405060708090A0BFFFFFFFF8A
:10083000020EE70219B3FFFFFFFFFFFFFFFFFFFFFD
:10084000FFFFFFFFFFFFFFFFFFFFFFFFFFFFFFFFB8
:10085000FFFFFFFFFFFFFFFFFFFFFF022118FFFF6A
:10086000FFFFFF0220FCFFFFFFFFFFFFFFFFFFFF77
:10087000FFFFFFFFFFFFFFFFFFFFFFFFFFFFFFFF88
:10088000FFFFFF021A26FFFFFFFFFFFFFFFFFFFF33
:10089000FFFFFFFFFFFFFFFFFFFFFF0220AFFFFF94
:1008A000FFFFFFFFFFFFFFFFFFFFFF0220D5FFFF5E
:1008B000FFFFFF02186701FF0000B40000280028B6
:1008C00000283075A000A000A000A00000080008CB
:1008D000E001F000100010001000100010001000E7
:1008E00050005000500010001000D0070000000021
:1008F00000000F0001000500307507001000010026
:1009000081FF0000FF322350233823FF0202020838
:10091000025000A0000000E803020A84010000E683
:1009200083020684010000550A020084010000B120
:1009300002020684010000560A02FE83010000C77D
:1009400002020684010000570A02FC83010000C96C
:1009500002020684010000580A02FA83080000CA55
:1009600002020684010000590A02F8830100005ABD
:100970000AFF0100FF20020A84010000E38302064F
:1009800084010000BE0A0210840000000000020280
:100990008403000017031429142914291429142985
:1009A000142914291429142914291429142914295F
:1009B000A22BBA2B9C2BFFFF0A0953656E736F7233
:1009C000546167051250002003020A000201055419
:1009D0004920424C452053656E736F722054616705
:1009E00000D007E803B22D0000B82DBE2DC42DD0D5
:1009F0002DCA2DD62DDC2D12416363656C2E20444B
:100A0000617461000A416363656C2E20436F6E66FA
:100A10002E000A4163632E20506572696F640002E4
:100A20000A84010000F283020684010000400B10DA
:100A3000E5800100008D0702028403000090070298
:100A40000484010000410B0206840100004D0B10DC
:100A5000958103000096070204840100004E0B02FA
:100A600006840100005B0B107582030000970702EB
:100A700004840100005C0B124261726F6D65746545
:100A800072204461746100024261726F6D65746529
:100A9000722043616C692E000A4261726F6D657449
:100AA000657220436F6E662E00020A84010000EC1E
:100AB00083020684010000C00B10D5800100009A5B
:100AC000070202840300009E07020484010000C1A3
:100AD0000B020684010000E10B101581030000BA2F
:100AE00007020484010000E20B020684010000D02A
:100AF0000B102581010000A407020284030000B44A
:100B000007020484010000D10B0202020202020269
:100B10000202010D0000001001020A84010000F52C
:100B200083020684010000520C022684010000BBEF
:100B300007020684010000530C0224840100001205
:100B400083020684010000540C0222840100000D7F
:100B500083020684010000560C022084010000B3C9
:100B600080020684010000570C021E840100000868
:100B700083020684010000550C021884010000174E
:100B800083020684010000580C021684010000A1B3
:100B900080020684010000590C02148401000085C3
:100BA000820206840100005A0C0212840100005BDC
:100BB0000C01E803053F10124779726F2E20446143
:100BC0007461000A4779726F2E20436F6E662E00A3
:100BD000020A84010000D483020684010000000D93
:100BE00010358201000071080202840300007708BA
:100BF000020484010000010D0206840100000C0DB6
:100C00001045820300007D080204840100000D0DE0
:100C10000380000080700061801248756D69642E49
:100C20002044617461000A48756D69642E20436F29
:100C30006E662E00020A84010000EF830206840122
:100C40000000620D10F58101000007090202840313
:100C500000000B09020484010000630D02068401F8
:100C600000006F0D10E581030000110902048401EA
:100C70000000700D1249522054656D702E204461A1
:100C80007461000A49522054656D702E20436F6EC6
:100C9000662E00020A84010000D783020684010048
:100CA00000BD0D10B581010000140902028403008B
:100CB000001809020484010000BE0D020684010030
:100CC00000CC0D10A5810300001E09020484010060
:100CD00000CD0D124D61672E2044617461000A4DF4
:100CE00061672E20436F6E662E000A4D61672E20CD
:100CF000506572696F6400020A84010000DA8302A1
:100D000006840100001C0E1065810100002109020B
:100D1000028403000027090204840100001D0E0262
:100D20000684010000270E1055810300002D0902E2
:100D30000484010000280E020684010000330E1016
:100D400045810300002E09020484010000340E1CBA
:100D5000020A84010000DD83020684010000980E6F
:100D60001050800200002F090202840300003109A4
:100D70000204840100009382020684010000980EA0
:100D8000106080020000300902028403000037096D
:100D9000020484010000A082FFFFFF000130750300
:100DA000020106000000000000000000000000003A
:100DB000000000000000000000000000000000FF34
:100DC000FF0600800CE803104B65792050726573B4
:100DD0007320537461746500020A84010000E0838B
:100DE000020684010000100F021C84000000EE09BE
:100DF000020284030000EF09020484010000110FC5
:100E000002546573742044617461000A54657374FC
:100E100020436F6E66696700020A84010000E9835F
:100E2000020684010000490F100581030000F70944
:100E30000204840100004A0F020684010000540FDE
:100E4000107581030000FF09020484010000550FA2
:100E5000E5C754F84405F5C779012200000080FB7E
:100E6000120E50B90003020ED1E479217808B800BF
:100E7000028004F709D8FCE479297802B8000280DE
:100E800004F709D8FCE4900280788179088002F0A8
:100E9000A3D8FCD9FA781C9008B67A01BA0002806F
:100EA00007E493A3F608DAF9900A00AA82AB8390CC
:100EB00008B7789A79068015E493A3AC82AD838A4B
:100EC000828B83F0A3AA82AB838C828D83D8E9D9ED
:100ED000E77582F87583CD7407120EF975825B751C
:100EE000830E7400120EF975D00075813F751A805B
:100EF000751B02759F00020E60C09FF59FE473D0C2
:100F00009F22D083D082C09FE493C0E0740193C03D
:100F1000E0740293F59F22E066701008A3E066700B
:100F20000A08A3E066700408A3E06622C3E79608F7
:100F300009E7960809E7960809E79622C3E09608AC
:100F4000A3E09608A3E09608A3E09622C00AC3E0B7
:100F500096F50A08A3E096420A08A3E096420A081A
:100F6000A3E096450A7001D3D00A22080808EAC017
:100F7000E0EBC0E086F0E7A4FA180986F0E7A42ABF
:100F8000FA180986F0E7A42AFA180986F0E7A42AD5
:100F9000FA1986F0E7A4FBE5F02AFA190886F0E7CB
:100FA000A42BFBE5F03AFA190886F0E7A42BFBE541
:100FB000F03AFA18180986F0E7A4C5F02BFBE43ADA
:100FC000FA1908E7C5F0C6A426F6E5F03BFBE43ABB
:100FD000FA1886F0E7A4F6E5F00826F6E43B08F6F2
:100FE000E43A08F6D0E0FBD0E0FA22E4CFC0E0E437
:100FF000CEC0E0E4CDC0E0E4CCC0E075F020C3E6B4
:1010000033F608E633F608E633F608E633F6181842
:1010100018EC33FCED33FDEE33FEEF33FFC3EC97FA
:1010200009ED9709EE9709EF97191919400FFFEC91
:1010300097FC09ED97FD09EE97FE191906D5F0BE4C
:10104000ECF709EDF709EEF709EFF7191919D0E0F8
:10105000FCD0E0FDD0E0FED0E0FF226016080808DA
:10106000C6C313C618C613C618C613C618C613C6F9
:10107000D5E0EA227009080808226016181818C678
:10108000C333C608C633C608C633C608C633C6D57A
:10109000E0EA22E627F60809E637F60809E637F619
:1010A0000809E637F622E026F608A3E036F608A39C
:1010B000E036F608A3E036F622E026F008A3E03694
:1010C000F008A3E036F008A3E036F022C3E697F676
:1010D0000809E697F60809E697F60809E697F62262
:1010E000C3E096F008A3E096F008A3E096F008A30A
:1010F000E096F022E056F608A3E056F608A3E05684
:10110000F608A3E056F622E056F008A3E056F008F1
:10111000A3E056F008A3E056F022E0F608A3E0F6BC
:1011200008A3E0F608A3E0F622E6F008A3E6F0083C
:10113000A3E6F008A3E6F022E0FAA3E0FBA3E0FCBC
:10114000A3E0FD22EAF0A3EBF0A3ECF0A3EDF02284
:10115000CAC0E0E6F0A308DAFAD0E0FA22CAC0E09A
:10116000E0A3C582CCC582C583CDC583F0A3C5826B
:10117000CCC582C583CDC583DAE6D0E0CA22C3E4FC
:1011800098F8E499F91211BF8026C3E49AFAE49B17
:10119000FBE920E7E91211BFE498F8E499F922C3CA
:1011A000E498F8E499F91211BFE498F8E499F9C3C6
:1011B000E49AFAE49BFB22EB20E7CFE920E7E0B9D1
:1011C0000010BB0008E88AF084F8AAF022E4FBC80B
:1011D000FA22EB70227B10C833C8C933C9335007D9
:1011E000C39AC3DBF280069A50012ADBEAC833F4C3
:1011F000C8C933F4C9FA2275F008E4C833C8C93342
:10120000C933C99AC99B5004C92AC93BD5F0ECFB24
:10121000C833F4C8E4C9FA22600D08C6A2E713C6B1
:1012200018C613C6D5E0F322600C08C6C313C6184F
:10123000C613C6D5E0F422700422600D18C6C3336D
:10124000C608C633C6D5E0F41822251A10AF08F533
:101250001A4002151B8008F51A4002151BD2AF2256
:10126000C0D0251A10AF08F51A5002051B8008F5EA
:101270001A5002051BD2AFD0D022251AF58210AF2A
:1012800008F51A4002151B8008F51A4002151BD2FA
:10129000AF851B8322251AF582E4351BF58322E4F2
:1012A00073251AC582C0E0E51B34FFC583C0E0E5A5
:1012B0001AC3958224F810AF0885831B85821A8093
:1012C0000885831B85821AD2AFCEF0A3E520F0A358
:1012D000780AE608F0A3DEFAEFF0A3E58124FAF835
:1012E000E608F0A3E608F0A3E608F0A30808E6087D
:1012F000F0A3E608F0A315811581D0E0FED0E0F858
:10130000158115811581E8C0E0EEC0E022251AC5DF
:1013100082C0E0E51B34FFC583C0E0E51AC39582B7
:1013200024F910AF0885831B85821A800885831BEA
:1013300085821AD2AFCEF0A3E520F0A3780AE608A2
:10134000F0A3DEFAEFF0A3E58124FBF8E608F0A3B2
:10135000E608F0A30808E608F0A3E608F0A3158164
:101360001581D0E0FED0E0F815811581E8C0E0EEEF
:10137000C0E022851B83851A82E0A3FEE0A3F5204E
:10138000780AE0A3F608DFFAE0A3FFE0A3C0E0E0FC
:10139000A3C0E0E0A3C0E0E0A3C0E0E0A3C0E01091
:1013A000AF0885821A85831B800885821A85831B76
:1013B000D2AFD083D082020EFF851B83851A82E0D4
:1013C000A3FEE0A3F520780AE0A3F608DFFAE0A385
:1013D000FFE0A3C0E0E0A3C0E0E0A3C0E0E0A3C062
:1013E000E010AF0885821A85831B800885821A85E4
:1013F000831BD2AFD083D08222C0D0251AC582C031
:10140000E0E51B34FFC583C0E0E51AC3958224F3F1
:1014100010AF0885831B85821A800885831B85820F
:101420001AD2AFC8F0A3E9F0A3EAF0A3EBF0A379D6
:101430000AE709F0A3D8FAECF0A3EDF0A3EEF0A3CD
:10144000EFF0A3D0E0F0A3D0E0F0A3D0E0F0A3E56C
:1014500020F0A3E5F0F0A322851B83851A82E0C06B
:10146000E0A3E0F9A3E0FAA3E0FBA3780AE0F60822
:10147000A3DFFAE0FCA3E0FDA3E0FEA3E0FFA3E00E
:10148000C0E0A3E0C0E0A3E0F5D0A3E0F520A3E036
:10149000A3F5F010AF0885831B85821A8008858329
:1014A0001B85821AD2AFD082D083D0E0F8D0E03250
:1014B00074048006740280027401C0E0F404121205
:1014C0007AD0E0121150227404800474028000CC9F
:1014D000C0E0EDC0E0E51AC39CCCAD1B50011D106F
:1014E000AF068C1A8D1B80068C1A8D1BD2AF121181
:1014F0005DD0E0FDD0E0FC22D083D082E9C0E0E402
:1015000093A3C386F0C5F095F0F908E493A386F0A1
:10151000C5F095F0700BE493A3C3994005E90480EE
:1015200002A3E475F002A42582F582E5F03583F587
:1015300083D0E0F9E493A3C0E0E493C0E022D08339
:10154000D082ECC0E0EDC0E0E493A3FCE493A3FD03
:10155000ED4C600D12158AEC24FFFCED34FFFD808C
:10156000EFE493A3FCE493A3FDED4C600D1215C9C9
:10157000EC24FFFCED34FFFD80EFD0E0FDD0E0FC7B
:10158000E493A3C0E0E493C0E022C0E0C3E49396F8
:10159000087401939618400FE4936670080874016C
:1015A00093661870007019A3A3C3E493960874019E
:1015B000939618A3A3400DD0E0D0E0D0E002157AB6
:1015C000A3A3A3A3A3A3D0E022C0E0C0F088F0E4CB
:1015D000936670080874019366187000A8F0A3A3BE
:1015E000700BD0F0D0E0D0E0D0E002157AA3A3D009
:1015F000F0D0E02274F512130DEAFEEBFFEE243476
:10160000F8EF3400F9880A890BEE2435F582EF34BF
:1016100000F583E0F8EE2437F582EF3400F583E03F
:10162000F50CEC850CF0A4FCAAF0850CF0EDA42AD6
:10163000FDE82CF8E43DF97A257B001211BFEA851C
:101640000A82850B83F05407F87401B80002800405
:10165000C333D8FCC0E0E0131313541FF8EE28F88E
:10166000EF3400F9E8245DF582E93400F583D0E039
:10167000F8E0586008EE2434F582EF801EEE243640
:10168000F582EF3400F583E0F5F0EA84A8F0EE2867
:10169000F8EF3400F9E82438F582E93400F583E006
:1016A000F97F040213B974F512130DEAFEEBFFEE95
:1016B0002434F582EF3400F583E0C0E0EE2435F504
:1016C00082EF3400F583D0E0F08E828F83A3A3A352
:1016D000A3A3A3A3C082C0838E828F83A3A3A3A34B
:1016E000A3E0F8A3E0F9D083D082E0C398F50AA381
:1016F000E099F50BEE2480F582EF3400F583E06489
:10170000017069EE2481F582EF3400F583E0F8A3DF
:10171000E0F98E828F83A3A3A3A3A3A3A3E0FCA3DA
:10172000E0FD8E828F83A3A3A3A3A3E0FAA3E0FB33
:10173000C3EA9CEB9D5027C3EC98ED99402EC3EA79
:1017400098EB9950277CFC7D04EEFAEFFB1228728F
:10175000EE2480F582EF3400F583E4F0800EC3EAD6
:1017600098EB9940E0C3EC98ED9950D9EE2434F809
:10177000EF3400F9E8FCE9FDEE2435F582EF3400A2
:10178000F583E0F8EE2437F582EF3400F583E0F5D9
:101790000CE50A850CF0A4F50AAAF0850CF0E50B1F
:1017A000A42AF50BE8250AF8E4350BF97A257B0025
:1017B0001211BFEA8C828D83F05407F87401B800CF
:1017C000028004C333D8FCC0E0E0131313541FF8A5
:1017D000EE28F8EF3400F9E8245DF582E93400F5ED
:1017E00083D0E0F8E0586008EE2434F582EF801EE4
:1017F000EE2436F582EF3400F583E0F5F0EA84A8B4
:10180000F0EE28F8EF3400F9E82438F582E93400E6
:10181000F583E0F91220A10216A1C082C083851AC7
:1018200082851B83E0F8A3E0F9C3EA9CEB9D50128C
:10183000C3EC98ED994019C3EA98EB9950127901DD
:101840008010C3EA98EB9940F5C3EC98ED9950EEFF
:101850007900D083D08222EAC39CFAEB9DFB22FF61
:101860008521878522C622C0E0C0D0E8C0E0E9C05B
:10187000E0EAC0E0EBC0E0ECC0E0EDC0E0C00AC0D0
:101880000BC00CC00DC082C083C0F0759B0090617E
:1018900082E0A2E64003021945E591A2E640030278
:1018A00019457591BF9003C1E0640570081229AA1B
:1018B0001229B680031229B0752100122A10E9906E
:1018C00003C2F07900122A041227E87A017B009003
:1018D00003C0E0F9122CD4907803E0644260030264
:1018E000198E90055EE014F0600302198EC2AF12EB
:1018F00018F200782AD0E0F618D0E0F6E59F5407F9
:10190000F97005908398800390839C780A12111ACD
:10191000E9C4C0E07829E6550AF50A08E6550BF552
:101920000B740B780A121228D0E0250AF890627026
:10193000E0A2E740F8E8C333906272F0906270E092
:10194000D2E0F08049E0A2E55024E591A2E5501EE6
:101950007591DF9003C1E0640D70139003E3E00420
:10196000F064287002E4F07A00E0F9122A829061B3
:1019700081E0A2E35009E5E9A2E3500375E9F7A38A
:10198000E0A2E75009E591A2E7500375917FD0F0FE
:10199000D083D082D00DD00CD00BD00AD0E0FDD0B7
:1019A000E0FCD0E0FBD0E0FAD0E0F9D0E0F8D0D015
:1019B000D0E032C0E0C0D0C082C083906183E0A29A
:1019C000E05009E5BFA2E0500375BFFEE0A2E15080
:1019D00009E5BFA2E1500375BFFDE0A2E25009E5B1
:1019E000BFA2E2500375BFFBE0A2E35009E5BFA22E
:1019F000E3500375BFF7E0A2E45009E5BFA2E4504D
:101A00000375BFEFE0A2E55009E5BFA2E5500375FD
:101A1000BFDFE0A2E65009E5BFA2E6500375BFBFF5
:101A2000D083D0828088C0E0C0D0E8C0E0E9C0E0C8
:101A3000EAC0E0EBC0E0ECC0E0EDC0E0C0F0E5A73C
:101A4000A2E6500FE5A1A2E6500953A7BF75A1BFBA
:101A5000121A8BE5A7A2E5500CE5A1A2E5500653AA
:101A6000A7DF75A1DFE5A7A2E15009E5A1A2E1503A
:101A70000375A1FDE5A7A2E2500CE5A1A2E2500684
:101A800053A7FB75A1FBD0F002199C74F812130D3B
:101A90007521019003C1E06406701512293E8A8207
:101AA0008B83A3A3A3A3A3A3E0FAA3E0FB1229982B
:101AB000A2AFE433FED2AF9003C7E0640170187A9E
:101AC000207B009003C0E0F9122D5E7A207B00900D
:101AD00003C0E0F9122CDA906182E0D2E6F09005C2
:101AE0005DE0602185C62280169003C6E064017027
:101AF00008E5C654F84405F5C653BEFC12186074D8
:101B000001652160E4EEA2E092AF7F010213B9FF0C
:101B10008E238F24858228858327851A82851B83BF
:101B2000E0CEA3E0CF852882852783EBC9EAC8ED04
:101B3000CBECCA75F010C3E833C8E933C9EA33CA3D
:101B4000EB33CBC3EA9EF526EB9FF525B35004ABF0
:101B500025AA26EC33CCED33CDD5F0DAAE23AF2475
:101B60002274EB12130D74FA12124A8A0A8B0B8C30
:101B7000168D179003C1E024F7C394055006908397
:101B8000C4021CC312293E8A0C8B0DAE0CAF0DEEA5
:101B90004F7003021CC0AC0AAD0B851A82851B83F3
:101BA000AA82AB831229C88E828F83A3A3780A12DC
:101BB000111A90837C780A1210F4851A82851B838F
:101BC000780E12111A90837C780E1210F4780A792C
:101BD0000E120F2C501F780A790E1210CC90832809
:101BE000780A120F4C4047850A12850B13850C1496
:101BF000850D158041850E12850F138510148511F2
:101C0000157812790A1210CC9083287812120F4C92
:101C1000501C7512007513007514007515017812AB
:101C2000790E1210CC7812790A12109380089083E2
:101C3000C4781212111A740978121210749083D099
:101C4000780A12111A7812790A120FEB8E828F839A
:101C5000A3A3A3A3A3A3E0F8A3E0F97AD07B031284
:101C600011BF880A890BE4F50CF50D7812790A1278
:101C700010937404121295E0F8A3E0F97AD07B0374
:101C80001211BFE8FA8A0AE4F50B7812790A120FEA
:101C90002C50077812790A1210CC9003C1E0640826
:101CA000600AE064066005E06405701C90835C785F
:101CB00012120F4C50129083C078121210A6800896
:101CC000908370781212111A851682851783781204
:101CD00012112974061212607F0E0213B974F712E2
:101CE000130D1229DA90055BE064017010906245D3
:101CF000E4F0A3F053F4F343FE0C5390F31229865F
:101D0000E5C654804449F5C6E59E547F644970F8A1
:101D1000906185740FF0900559E0F47002A3E060C3
:101D20004E90055AE0600814601B14602E804075C8
:101D30000A01750B00900559E0780A121237E50A7E
:101D4000F45280802A750A01750B00900559E078DD
:101D50000A121237E50AF452908014750A01750BC5
:101D600000900559E0780A121237E50AF452A0797A
:101D7000007F020213B974F712130DE9FEEAFF7433
:101D8000016E700C7A807B009003C0E0F9122CD4B5
:101D90009032A4E493F46008E493F91227DC8009FC
:101DA00053C680E59E547F70FA12298C90055BE043
:101DB000640170031227F4900559E0F47002A3E067
:101DC000604B90055AE0600814601A14602C803D46
:101DD000750A01750B00900559E0780A121237E573
:101DE0000A42808028750A01750B00900559E07839
:101DF0000A121237E50A42908013750A01750B002A
:101E0000900559E0780A121237E50A42A01229DA41
:101E100012293E8A0A8B0BA80AA90BE8496015E52E
:101E2000E170FCE82414F582E93400F583E0F46005
:101E300003E0F5E174016F700A7A019003C0E0F9E4
:101E4000122D28021D7174F112130D8A0A8B0B8C4E
:101E50000C8D0D740F121295780E12111A90837C4E
:101E6000780A1210F490837C780E1210F4780A79B4
:101E70000E120F2C5015780A790E1210CC90832870
:101E8000780A120F4C401579018013780E790A12E6
:101E900010CC908328780E120F4C40EB79007F080D
:101EA0000213B974ED12130D8A0A8B0B8C0C8D0D75
:101EB0007413121295780E12111A90837C780A12FC
:101EC00010F490837C780E1210F4780E790A120FB9
:101ED0002C4011780A790E1210CCAA0AAB0BAC0C6C
:101EE000AD0D802275120075130075140075150173
:101EF0007812790E1210CC7812790A121093AA1265
:101F0000AB13AC14AD157F0C0213B990837C780A27
:101F100012111A8A828B83780A1211077F04021326
:101F2000B974F512130D8C828D83780A12111A8AF6
:101F3000828B83780A1210E0EA2404F8EB3400F96B
:101F40008C828D83A3A3A3A3E0FCA3E0FD888289F8
:101F500083C3E09CF0A3E09DF088828983C3E09472
:101F600020A3E0944E4022908368780A12111A8AC6
:101F7000828B83780A1210B98A828B83A3A3A3A3CE
:101F8000E02420F0A3E0344EF0808074F512130DAD
:101F9000E9FE900513E0FAA3E0FBEEC333F8E43367
:101FA000F9742528F582748239F583E02AF50AA3AD
:101FB000E03BF50B780A1214B490837812113812B2
:101FC0001B1074021212608A0A8B0B8C0C8D0D741C
:101FD00010780A12105BAA0AAB0B7F040213B974C3
:101FE000F112130D8A0E8B0F8C108D11740F1212BB
:101FF00095E0FAA3E0FB7411121295E0F50AA3E054
:10200000F50B7413121295E0FEA3E0FF780A121488
:10201000B4EA2401F50AEB3400F50BE4F50CF50DF8
:10202000780E790A120F6B9083B8780A12111A7819
:102030000E790A120F6BAA0EAB0FAC10AD11121B6A
:102040001074021212608B0BEA450B60047A018057
:10205000027A00EC2AFCED3400FDECF8EDF97A711F
:102060007B021211BF880A890BE4F50CF50D8E82F4
:102070008F83780A121129ECF8EDF97A717B02123C
:1020800011BF8A0A8B0B7405780A1212378E828F61
:1020900083A3A3A3A3E50AF0A3E50BF07F08021333
:1020A000B9C082C083E9906000F0D083D08222C0A2
:1020B000E074F21213F9A2AFE433FED2AFE589A2C5
:1020C000E05003123034758900C2C5EEA2E092AF31
:1020D0007F01021458C0E074F21213F9A2AFE43386
:1020E000FED2AFE58AA2E64006E58AA2E7500312D7
:1020F0003034758A00758A00C2EB80CFC0E0C0D052
:10210000E8C0E0E5A8D2AF758B00C2E8A2E792AFC5
:10211000D0E0F8D0D0D0E032C0E0C0D0E8C0E0E5F8
:10212000A8D2AFC2C7751C00A2E792AFD0E0F8D02A
:10213000D0D0E032120F0275BC07120F028CBC0720
:10214000120F02BBBC07120F02F4BC07120F021CD5
:10215000BD07120F024ABD07120F0261BD07120F21
:102160000278BD07120F028EBD07120F02B5BD0720
:10217000120F02C8BD07120F02DEBD07120F02F1D7
:10218000BD07120F0216BE07120F02A1B206120FF0
:1021900002A0B306120F02D5B306120F02F6B30661
:1021A000120F0206B406120F0227B406120F0233F2
:1021B000B506120F0200B606120F0273B606120F12
:1021C00002F9B606120F023CB706120F0273B706E9
:1021D000120F02F9B706120F02CBB806120F02292E
:1021E000B906120F0241B906120F02BBB906120F4F
:1021F00002BEB906120F02C1B906120F0268BA0672
:10220000120F0280BA06120F02B0BA06120F02D0E5
:10221000BA06120F02BEBB06120F0274BC06120FE2
:10222000028AEA06120F02B2EA06120F02E0EA067A
:10223000120F0217EB06120F027FEB06120F02C8F5
:10224000EB06120F0213EC06120F0251EC06120FEE
:10225000028EEC06120F02BCEC06120F0263ED06B2
:10226000120F026DED06120F027AED06120F02AD8B
:10227000ED06120F026FEE06120F027BEE06120F32
:102280000293EE06120F029DEE06120F02A4CC0777
:10229000120F02B2CC07120F02CACC07120F02E2D1
:1022A000CC07120F0219BB05120F02B7BB05120FA4
:1022B000022FBC05120F0244BD05120F027EBD05A0
:1022C000120F0227BE05120F02FCBE05120F02609C
:1022D000C005120F02B7C005120F023EC105120F52
:1022E0000225C205120F0272C205120F0200C305B9
:1022F000120F0224C305120F02F9C405120F023A8D
:10230000C505120F025CC505120F02DDC505120FCF
:1023100002C7C605120F028DC705120F0283CD0634
:10232000120F0255CE06120F02FECE06120F024108
:10233000CF06120F02CECF06120F025AD006120F8E
:10234000023BD106120F026AD106120F0266D206B4
:10235000120F02AED206120F02B0D306120F02F411
:10236000D306120F021AD406120F026FFF05120FC6
:1023700002A98B07120F02BF8B07120F02E58B0712
:10238000120F020D8D07120F02178D07120F027028
:102390008E07120F02708F07120F02BAE006120F9B
:1023A00002EFE106120F0222E206120F026CE206B1
:1023B000120F022AE406120F02BCAB05120F021F15
:1023C000AC05120F0264AD05120F0274AD05120FB9
:1023D0000297AD05120F02E2AD05120F0287AE059E
:1023E000120F027DAF05120F0247B005120F02BF98
:1023F000B105120F0201B205120F029FB205120FB2
:1024000002ECB205120F0212B305120F0200B5055D
:10241000120F0205B505120F02E6B605120F023AB9
:10242000B705120F029CB705120F02C4B705120FB1
:102430000268B805120F022AB905120F025BB9052E
:10244000120F025EB905120F02A6B905120F02E8BB
:10245000B905120F024FBA05120F0295AA07120F03
:1024600002A8AA07120F02C1AA07120F020CAB079B
:10247000120F02E7AB07120F0276AC07120F02C170
:10248000AC07120F0200B004120F020CB004120FBE
:102490000245B004120F028AB004120F0241B104C7
:1024A000120F02C7B104120F022CB204120F02580D
:1024B000B204120F0291B204120F02A5B404120F5B
:1024C0000281B604120F026CB804120F02A3B90401
:1024D000120F0203BC04120F02EFBC04120F0235EC
:1024E000BE04120F0242BF04120F025FBF04120F9C
:1024F0000297BF04120F02B1BF04120F0219C004E9
:10250000120F02B3C404120F0254C504120F02A525
:10251000C504120F02CCC504120F021AC604120F12
:102520000238C604120F028CC604120F0265C704DB
:10253000120F02ECC804120F0274C904120F02E059
:10254000E506120F02EAE506120F02B5E606120FC3
:1025500002D0E606120F02F6E606120F023AE7066E
:10256000120F0272E706120F029BE706120F021407
:10257000E806120F0229E806120F023EE806120FC3
:102580000275E806120F0289E806120F02BAE80681
:10259000120F02F4E806120F0220E906120F02766B
:1025A000E906120F02CAE906120F0213EA06120F19
:1025B000023DEA06120F0262EA06120F02008007CD
:1025C000120F02CA8007120F02AD8107120F0223F9
:1025D0008207120F02658207120F02928307120F01
:1025E000028F8D06120F02B88D06120F02D18D06D2
:1025F000120F02168F06120F02F48F06120F02132B
:102600009006120F02A09006120F02E39006120F1E
:1026100002309206120F02CF9206120F024E95065A
:10262000120F02E59506120F02B99606120F029BD1
:102630009706120F02079906120F029A9906120FB7
:1026400002C8C707120F0231C807120F0285C80758
:10265000120F02ACC807120F02D3F306120F02408A
:10266000F406120F028BF406120F0280F506120F09
:10267000027CF606120F0266F706120F02DFBC0696
:10268000120F0221BD06120F02FBBD06120F02D46B
:10269000BE06120F02CFBF06120F02AEC006120F07
:1026A000021AC106120F02E1C106120F024CC20645
:1026B000120F02B3C206120F02DEC206120F024F41
:1026C000C306120F02E2C306120F024BC406120F1A
:1026D0000260C406120F02A8C406120F02C1C4068B
:1026E000120F0226C506120F0229C506120F02B8E4
:1026F000A407120F02E0A407120F021EA507120F73
:1027000002DCA507120F0247A607120F0263A607F5
:10271000120F028BA607120F02BBA607120F02CAE6
:10272000A607120F0244A707120F026AA707120F8B
:102730000240D805120F021DDA05120F0218DC053F
:10274000120F02EBDC05120F0236DD05120F0281BB
:10275000DD05120F0293DD05120F02D3DD05120F06
:102760000208DE05120F0254DE05120F0283DE0599
:10277000120F02A6DE05120F02F3DE05120F028D04
:10278000DF05120F029AE105120F0285E305120F11
:1027900002C8E305120F022DE505120F026EE505D2
:1027A000120F02E1E505120F022DE605120F025885
:1027B000E605120F02119A06120F023C9A06120F3A
:1027C0000223A106120F0247A306120F0202A5065A
:1027D000120F025FA606120F02DBC904120F02726B
:1027E000CA04120F029FCA04120F02E5CA04120F94
:1027F0000224CC04120F02BBCD04120F0210CE042F
:10280000120F022BCE04120F02A0CE04120F02CF21
:10281000CF04120F022AD104120F022CD204120F7D
:102820000289D304120F02A2D304120F02FFD304B1
:10283000120F02E1D404120F0214D504120F028405
:10284000D504120F02FED504120F024DD604120F4A
:102850000219D704120F021ED804120F02FDD80469
:10286000120F0288D904120F02F6D904120F026A5D
:10287000DA04120F0293DA04120F0252DB04120F71
:1028800002CCDC04120F02E9DC04120F0208DD04A2
:10289000120F0299DD04120F02BEDD04120F02E6D0
:1028A000DD04120F0261DE04120F02BBDE04120F00
:1028B000020FE004120F02CCE004120F029FE104A9
:1028C000120F0282E605120F02D2E605120F02DE97
:1028D000E605120F02BBE705120F02EBE705120F28
:1028E0000223E805120F02A2E805120F02DAE8053A
:1028F000120F022CE905120F0269E905120F028E70
:10290000EB05120F02BAED05120F02B5EF05120F1B
:102910000290F105120F02F2FF04120F020B98054C
:10292000120F02559805120F02349E05120F02B5C0
:102930009F05120F0214A605120F020FA705120F12
:10294000024CA705120F026FA705120F02B1A705CF
:10295000120F02BAA705120F02C4A705120F02B088
:10296000A805120F02A4A905120F02CDE104120F4F
:102970000245EC04120F024BEC04120F0257F30451
:10298000120F02E79607120F027D9707120F0293AC
:102990009707120F020D9807120F02639807120F84
:1029A00002A19807120F02FE9807120F027B9907E7
:1029B000120F02849907120F02909907120F02A3B7
:1029C0009907120F02DF9907120F02F59907120FEC
:1029D00002549A07120F0228F806120F0235F80661
:1029E000120F024FF806120F028EF806120F02CCD9
:1029F000F806120F0231F906120F0246F906120FFD
:102A00000251F906120F025EF906120F0275F9065D
:102A1000120F0283F906120F028EF906120F029AA4
:102A2000F906120F02A9F906120F02B4F906120FE5
:102A300002D7F906120F0280FA06120F0290FA0668
:102A4000120F02AAFA06120F02C7FA06120F02E3C9
:102A5000FA06120F0208FB06120F0212FB06120FF3
:102A60000226FB06120F0245FB06120F02A6FB060A
:102A7000120F02ACFB06120F02B2FB06120F02B8D5
:102A8000FB06120F02C4FB06120F02F7FB06120F21
:102A900002058006120F02878006120F023081069F
:102AA000120F02788206120F02868406120F026C41
:102AB0008506120F02A18506120F02C38506120FAA
:102AC000026C8606120F023C8806120F0265880609
:102AD000120F02DD8806120F020F8906120F021C68
:102AE0008906120F02678906120F028B8906120FE0
:102AF00002DC8B06120F02E68C06120F02428D06D4
:102B0000120F02C2C905120F02D3CA05120F02B773
:102B1000CB05120F02C1CB05120F02E3CB05120F3A
:102B200002EFCB05120F0293CD05120F02C0CD05A7
:102B3000120F02D6CE05120F022BCF05120F027A0A
:102B4000D005120F024FD105120F02ABD105120FA3
:102B50000216D205120F024BD205120F028ED205B9
:102B6000120F0258D505120F0270D505120F02017F
:102B7000D605120F020FD605120F025CD605120FF2
:102B8000026AD605120F02D6D605120F0251D705DA
:102B9000120F02A8D705120F0251F405120F02738B
:102BA000F405120F0284F605120F0243F905120F05
:102BB000026DFA05120F022BFB05120F0217FC051E
:102BC000120F02BCBA07120F02E1BA07120F025726
:102BD000BB07120F0212F804120F021BF804120FA7
:102BE0000224F804120F02FCF804120F02ADFA04DA
:102BF000120F02DDFA04120F0208FB04120F023852
:102C0000FB04120F0263FB04120F0297FB04120F66
:102C100002C3FB04120F0206FC04120F0231FC0473
:102C2000120F0278FC04120F02CDFC04120F020FE7
:102C3000FD04120F0269FD04120F0294FD04120F2D
:102C400002E3FD04120F0213FE04120F023EFE0403
:102C5000120F026CFE04120F028FFE04120F027B91
:102C6000CD07120F02A7CD07120F02D4CD07120F06
:102C700002DECD07120F02EECD07120F0233DB0684
:102C8000120F023DDB06120F027EDB06120F02C797
:102C9000DB06120F0201DC06120F0257DC06120FD0
:102CA0000278DC06120F0281DC06120F02D5DC0668
:102CB000120F02FEDC06120F0208DD06120F02766A
:102CC000DD06120F0206DE06120F0261DE06120F8B
:102CD000028FDE06120F0217DF06120F0256DF0602
:102CE000120F028BDF06120F029DDF06120F02BCCD
:102CF000DF06120F02C5DF06120F028CE006120F6C
:102D000002DFC907120F0273B107120F02A9B10740
:102D1000120F02DDB107120F022AB307120F022FA2
:102D2000FF04120F0245FF04120F024FFF04120F9F
:102D30000299FF04120F026DCE07120F0232EF0646
:102D4000120F0245EF06120F0206F006120F02459F
:102D5000F006120F0262F006120F029BF006120F2D
:102D600002E8F006120F021AF106120F0251F106E4
:102D7000120F025AF306120F02C6F306120F02D602
:102D8000CA07120F02F9CA07120F0228CB07120F47
:102D90000240CB07120F0282CB07120F0282A60657
:102DA000120F02F6A806120F02E7AB06120F021767
:102DB000AC06120F02FFAC06120F0245AE06120F50
:102DC00002C3AE06120F0210AF06120F028AAF0640
:102DD000120F02FBAF06120F0257B006120F02B01D
:102DE000B006120F0233B106120F02E1B106120F44
:102DF00002D48707120F02198807120F02428807B0
:102E0000120F02CD8807120F02128907120F02F764
:102E10008907120F02708B07120F02EC8307120F43
:102E2000023C8407120F02608407120F021E8507FE
:102E3000120F02728507120F026F8607120F029B94
:102E40008707120F02B2A707120F02D7A707120FA8
:102E50000201A807120F02CCCE07120F022B840525
:102E6000120F02098605120F02A88705120F0253DE
:102E70008805120F02D38805120F02588905120F18
:102E800002818905120F025C8D05120F02D38D0598
:102E9000120F02EA8E05120F02248F05120F02652F
:102EA0008F05120F02AC9005120F02029105120F4E
:102EB000024B9105120F02BA9105120F02269205DC
:102EC000120F02579205120F026F9205120F02881D
:102ED0009305120F02989305120F024E9505120FDB
:102EE00002659505120F02979505120F0239970595
:102EF000120F02CD9705120F02F19D07120F022B40
:102F00009E07120F024F9E07120F02C79E07120F55
:102F100002049F07120F02F69F07120F021EA1075D
:102F2000120F02C0BF07120F02D6BF07120F02AD69
:102F3000C007120F0294C207120F02BFC207120F7E
:102F400002DCC207120F0254C307120F0274C30738
:102F5000120F0240CF07120F024BCF07120F025081
:102F6000CF07120F02E5FF06120F02CBCB07120F9D
:102F700002DBCB07120F02EACB07120F029ECC072F
:102F8000120F02DDC807120F0262C907120F02C634
:102F9000C907120F0252B507120F0266B507120FCA
:102FA000029DB507120F02F3B507120F0290B60784
:102FB000120F02B3B607120F02BFB607120F02F2CA
:102FC000B607120F02EAC307120F021EC407120F40
:102FD00002C6C407120F02FAC407120F023BC5074C
:102FE000120F026FC507120F0298C507120F020FCA
:102FF000C607120F027EC607120F0264B307120F34
:10300000027EB307120F02A3B307120F02CEB3075B
:10301000120F0260B407120F0293B407120F0233AB
:10302000C107120F025BC107120F02CDC107120FB9
:1030300002E7C107120F023FC207120F0288C20740
:10304000120F028BC207120F02469307120F02548F
:103050009307120F02CE9307120F02A69407120FC6
:1030600002619607120F02A69607120F02D4960766
:10307000120F02FDB807120F0203B907120F023F29
:10308000B907120F0273B907120F028BB907120F9B
:103090000212BA07120F028BC607120F02D6C6071A
:1030A000120F0231C707120F029FC707120F02F853
:1030B0003F00120F0232AF07120F02C9B007120F02
:1030C000022AB107120F0270B107120F0274FC0638
:1030D000120F02B9FC06120F02DDFC06120F025598
:1030E000FD06120F0292FD06120F0284FE06120F59
:1030F00002ACFF06120F02849A07120F02C99A0748
:10310000120F02ED9A07120F02639B07120F029E25
:103110009B07120F02909C07120F02B89D07120F17
:10312000027A8F07120F02BF8F07120F02E88F0774
:10313000120F026F9007120F02AF9007120F029446
:103140009107120F020D9307120F028FD406120F70
:1031500002D1D406120F02ECD406120F02BDD5061E
:10316000120F029FD606120F02ACD806120F021ED3
:10317000D906120F0208DA06120F02EFDA06120F52
:103180000228BE07120F027ABE07120F02EDBE0719
:10319000120F025ABF07120F02EBAC07120F0215F3
:1031A000AD07120F02E4AD07120F02C0AE07120FF7
:1031B000024DC506120F0219C606120F025AC606A4
:1031C000120F0294C606120F02F2C606120F024632
:1031D000C706120F02A4C706120F023AC806120F42
:1031E0000242C906120F02CCCA06120F026ACB06AF
:1031F000120F02D1CB06120F02E4CB06120F02D837
:10320000CC06120F0221CD06120F02A83200120FB7
:1032100002DA3500120F026B3700120F02C23700BC
:10322000120F02DF3700120F025F3800120F02DBAD
:103230003900120F02AA3A00120F02173E00120FB5
:1032400002013F00120F022EB707120F0273B707D9
:10325000120F02C7B707120F024CB807120F02C4B1
:10326000B807120F02973F00120F0257A107120F63
:10327000029CA107120F02C0A107120F0236A2077B
:10328000120F0271A207120F025BA307120F027F37
:10329000A407120F02C5FF04120F0222CF07FFFF7F
:1032A000FFFFFFFFFFFFFFFF74F21212A1E9FE8C88
:1032B0000A8D0B7F008E8285820C8F0D8A0E8B0FFC
:1032C000780E1214F80103188435FC321B332E33A8
:1032D000843543339633AC33DB330A3425344034FE
:1032E0005734733484358F34C634E234FC341135AA
:1032F0002E3584358435843584354B3574106E70A5
:1033000015750C10780C1214B47A847B091239D517
:103310001212600235A27F180235A274106E70F688
:10332000750C10780C1214B47A947B0980DF740445
:103330006E70E38C828D831211389009A4121144AF
:103340000235A274016E70CE900EE5E0F88C828D8D
:1033500083E0900EE5F0E8601CE060030235A29087
:103360000982E0640260030235A2900981E0F9124B
:1033700023260235A2E070030235A2900982E064A0
:1033800001600DE064036008E0640460030235A29C
:10339000123DB80235A274026E6003023316123E6B
:1033A000E4900EE6E8F0A3E9F00235A2EEC3942023
:1033B00040030233167C1F7D0079007AE97B0E12F0
:1033C0002C98780C1214B4AC0AAD0B7AE97B0E126F
:1033D00039D5121260EE900EE880CDEEC3942040F5
:1033E000030233167C1F7D0079007AAF7B09122C13
:1033F00098780C1214B4AC0AAD0B7AAF7B09123971
:10340000D5121260EE9009AE809E74016E600302C8
:1034100033168C828D83E0C394044003023316E09C
:103420009009CE808374016E60030233168C828D06
:1034300083E0C394044003023316E09009CF80C8B0
:1034400074066E6003023316750C06780C1214B401
:103450007AD07B0902330D74016E60030233168C3F
:10346000828D83E0C394084003023316E09009D6AE
:103470000233A874016E60030233168C828D83E0E0
:10348000C394044003023316E09009D70233A874B2
:10349000026E6003023316123EE49009D8123DB268
:1034A000E84970030235A2900982E06405600302D6
:1034B00035A29009D8123E03780A1214B0123EF2D7
:1034C0001212600235A274016E60030233168C8200
:1034D0008D83E0C394024003023316E09009E002BA
:1034E00033A81235BD60030233161235B140030212
:1034F0003316900F0AEAF0A3EB0233A81235BD6031
:10350000030233161235B14003023316900F0C80BC
:10351000E4123EE474026E6003023316C3E894F4CE
:10352000E9940140030233169009E10233A41235F5
:10353000BD6003023316EA24F61235A99477E994A4
:103540000C4003023316900F0E80AA74016E6003C4
:103550000233168C828D83E0640160030233167A95
:10356000087B00900981E0F9122D64EAF8EBF9EC90
:10357000FAEDFBE8494A4B700779001235CA802200
:103580007F16801EC3EA9426EB9400501374026EDB
:10359000700E8C828D831239CF12221EE9FF8002B9
:1035A0000F0FEFF97F06021373F8EB34FFF9C3E84E
:1035B00022EA24FA1235A9947BE9940C228C828D9C
:1035C00083E0FAA3E0FB74026E221232387A047BA5
:1035D00000900981E0F9122D5E2274F41212A1EC20
:1035E000FEEDFF750A008A0C8B0D780C1214F800A2
:1035F00003182A37263630364C365D366D367E3621
:1036000083368B369A36A936AF36B736C936CF36BB
:10361000D836E136E636F236FA36FF360437093761
:103620001B3720372537900983123751F002374472
:10363000750C10750D00780C1214B47C847D09EEA5
:10364000FAEFFB1239D5121260023744750C10756F
:103650000D00780C1214B47C947D0980E29009A4CA
:103660001211388E828F83121144023744750C0672
:10367000750D00780C1214B47CA87D0980C1900EE1
:10368000E580A6900EE612375780A1900EE812371B
:10369000481214B47CE97D0E80A59009AE1237481B
:1036A0001214B47CAF7D0980969009CE0236299021
:1036B00009CF12375180D2750C06750D00780C12A7
:1036C00014B47CD07D0902363F9009D60236299089
:1036D00009D712375102362C900F0812375702368D
:1036E0002C9009D880A09009E0123751F0A3E40291
:1036F000362C900F0A12375780DB900F0C80DC902D
:1037000009E18082900F0E80D2750C06750D00784D
:103710000C1214B47CDA7D0902363F9009E380BBB9
:103720009009E580B69009E780B1C3EA9426EB944E
:1037300000500E1222248E828F83EAF0A3EB023611
:103740002C750A02A90A801EE0F50C750D00780C94
:1037500022E08E828F8322123EEC8E828F83E8F0ED
:10376000A3E9221212607F0402137374F61212A1ED
:10377000900982E0703EEA4B60089009EAEAF0A303
:10378000EBF0750AA4750B09780A1214B4750A9443
:10379000750B09780A1214B47C847D097B009009AA
:1037A00083E0FA900981E0F9122E54740412126039
:1037B0007900800279117F02021373D083D08202D4
:1037C0000EFFC082C083900982E06405700D123D37
:1037D000CE900981E0F91222A28002791280DC7475
:1037E000F71212A1E9900981F0900982E4F0900F9C
:1037F0000874FFF0A3F012236E9009837404F07C28
:10380000107D0079007A847B09122C987C107D0051
:1038100079007A947B09122C989083701211389059
:1038200009A41211449009CEE4F09009CFF0900958
:10383000D67407F09009D7E4F07C847D097A10797A
:10384000021231FC7C947D097A1079031231FC7CE0
:10385000A47D097A0479041231FC7F010213737488
:10386000F41212A174F612124AEAFEEBFF548060C1
:1038700025900981E0F9122CBC8A0A8B0BA90BEA6E
:1038800049600A12322CAA0AAB0B122CAAEEFAEFEC
:103890006480FB0239CAEF544060127CA47D097A2F
:1038A0000479041231F6EEFAEF644080E5EEA2E00E
:1038B000400302394E900EE5E0700302394690094C
:1038C000CEE0851A82851B83F09009CFE0C0E074BA
:1038D00001121295D0E0F0750A06750B00780A12F5
:1038E00014B47CD07D097404121295AA82AB8312A1
:1038F00039D51212609009D6E0C0E0740812129512
:10390000D0E0F09009D7E0C0E07409121295D0E041
:10391000F0851A82851B83AA82AB83900981E0F926
:1039200012231AE960209009827406F0123E0E609C
:1039300015123DC8123EE888828983E5824583607E
:1039400005790612129FEE6401FAEF0238925402D2
:10395000602A900982E06405701D123DCE12255444
:103960009009D8123E11600F9009D8123DFB121435
:10397000B0123EF2121260EE640280CDEE5404608A
:103980000A7900123238EE640480BEEE54086036C4
:103990009009E9E014600814702712321A8022900E
:1039A0000F0E1214CB9009E11214CB7901900F0C79
:1039B0001239CF900F0A123DD112323E7404121206
:1039C00060EE640880837A007B00740A023763E04B
:1039D000FCA3E0FD22122C8074022274F41212A1C6
:1039E000EA2405F8EB3400F98A828B83E0246F60C7
:1039F0000B24EF606724D2605E023AA7A3E0640E56
:103A00006003023AA78A828B83A3A3A3E0640570B4
:103A100004A3E064146003023AA788828983123DFC
:103A2000C5A3A3A3E0F9900982E064057079747FCF
:103A30006960749009EA123DD1EA4B606A9009EA24
:103A4000123DC5A3A3123DD18A828B83E5824583B3
:103A5000605512129F8050123232804B88828983C7
:103A6000E0641370428A828B83A3A3A3A3A3A3E081
:103A700064017002A3E070129009E9E06402700A28
:103A80007A081235CF12321A801D7A057B00122275
:103A9000248A0A8B0BE4F50CF50D780A1214B07A1F
:103AA00008123EF412126002376674EE1212A1EA96
:103AB000FEEBFF8E828F83A3A3E0F8EE2403F50ACA
:103AC000EF3400F50BEE240AF50CEF3400F50D8E03
:103AD000828F83A385820E85830FE8602724FE7082
:103AE00003023B7C147003023BB3147003023BB32C
:103AF000147003023BED147003023CE314700302E4
:103B00003D368073E070497C847D097A1079021219
:103B100031F67C947D097A1079031231F6750C0622
:103B2000750D00780C1214B4AC0AAD0B7AA87B09A1
:103B30001239D51212609009827401F07CE97D0E71
:103B4000900EE8E0FB7A01900981E0F9122320E968
:103B500060069009827406F0123E0E601A123DC88B
:103B6000123EE8E8FAE9FBEA4B600C900982E0F9C2
:103B70008A828B8312129F7F0A021373E070298559
:103B80000A82850B83E0601D7CAF7D099009AEE061
:103B9000FB7A00900981E0F9122320E9850E8285E5
:103BA0000F83F08003123DB8850E82850F83E0708D
:103BB000A180C4E0709C740368700790098274024D
:103BC0008095900EE6123E11900EE56016E06015AD
:103BD000900EE6123DFB1214B07A01123EF412125E
:103BE000608002E4F09009827403023B57E06003B6
:103BF000023CD6EE2404F512EF3400F513750E06E0
:103C0000750F00780E1214B4AC12AD137ADA7B097A
:103C10001239D5121260850C82850D83123EE89010
:103C20000F08123DB29009827405F09009D8123E37
:103C300011601A9009D8E0F50EA3E0F50FE4F51035
:103C4000F511780E1214B0123EF2121260EE240C2E
:103C5000F582EF3400F583123DEFEE240EF582EF8E
:103C60003400F583123DE3EE2410F582EF3400F5C5
:103C700083123DD79009E0E0640170327A1F7B0027
:103C80001222248A0EEA75F0E8A4C50EA8F075F099
:103C900003A428F875F0E8EBA428F50FE4F510F577
:103CA00011780E1214B07A04123EF4121260750EDE
:103CB00004780E1214B8850C82850D831239CFAAB0
:103CC00012AB13850A82850B83E0F9122E60740112
:103CD000121260023B5864316003023B52900EE5C1
:103CE000023BE3122E7E7C067D0079007ADA7B09A6
:103CF000122C989009E3E4F0A3F09009E5F0A3F00A
:103D00009009E7F0A3F07A04FB1235D17A08123556
:103D1000CF8E828F83A3A3A3A3A3E064089009821C
:103D20007004740480027403F0123DB8900F08749C
:103D3000FFF0A3023B577A081235CF850E82850F1C
:103D400083E06003023B778E828F83A3A3A3A3A3A8
:103D5000A3123DEF8E828F83A3A3A3A3A3A3A3A348
:103D6000123DE3850C82850D83123DD77A047B00DA
:103D7000900981E0F9122D64EA4B4C4D6003023B3F
:103D8000779009EC123E117003023B779009E7121D
:103D900014CB9009E51239CF9009E3123DD1900977
:103DA000EC123DC5123DC512129F74021212600240
:103DB0003B77E8F0A3E9F0227A017B00900981E0EB
:103DC000F9122CD422E0F8A3E0F583888222900F28
:103DD00008E0FAA3E0FB22123EEC9009E7E8F0A32A
:103DE000E9F022123EEC9009E5E8F0A3E9F0221296
:103DF0003EEC9009E3E8F0A3E9F022123E03F50D52
:103E0000780A22E0F50AA3E0F50BE4F50C2290090C
:103E1000EA123EECE8492274F41212A174F812126C
:103E20004AE9FE900F0A123EE87583097582E3C3E2
:103E3000E098A3E09940389009E3123EE875830FBB
:103E400075820CC3E098A3E09940249009E5123EE6
:103E5000E89009E1E0687003A3E06970129009E757
:103E6000123EE8900F0EE0687003A3E06960707A7C
:103E7000057B001222248A0A8B0B900F0A123EE85F
:103E8000851A82851B83123DB2900F0C123EE87496
:103E900002121295123DB29009E1123EE87404122A
:103EA0001295123DB2900F0E123EE8740612129552
:103EB000123DB2900981E0F9851A82851B83AC829C
:103EC000AD83123DCE122650EE9009E9F0E4F50CD8
:103ED000F50D780A1214B07A08123EF412126074CA
:103EE000080237638C828D83123EEC22E0F8A3E057
:103EF000F9227A027B00900981E0F9122D527404B4
:103F00002274F41212A1E9FE740C121295E0F50C61
:103F1000A3E0F50D740E121295E0F50AA3E0F50B7F
:103F2000900982E0640560047914805FEA24FAF85D
:103F3000EB123F8E5053EC24FAF8ED123F8E5049AD
:103F4000C3E50C94F4E50D9401503EE50A24F6F81F
:103F5000E50B1235AB9476E9940C502D900F0AEADC
:103F6000F0A3EBF0900F0CECF0A3EDF09009E1E57D
:103F70000CF0A3E50DF0900F0EE50AF0A3E50BF0B1
:103F8000EEF91235CA7900800279180237661235C7
:103F9000AB947AE9940C2274F71212A18A828B8373
:103FA0007A00E0F8740268701AA3E0F8A3E0F988D8
:103FB000828983E0FEA3E0F9EE8C828D83F0A3E991
:103FC000F0802D741068701EA3E0F8A3E0F9E824D7
:103FD0000CF582E93400F583E0FEE8240DF582E972
:103FE0003400F58380D08C828D8374FFF0A3F00AB7
:103FF000EAF97F01021373FF851C87C2AF020EFF2F
:020000040002F8
:10300000C082C083E9900ABDF002B28474F7121244
:10301000A1E99002DFF07C177D037AFF7BFF122588
:10302000129002E074FFF0A3F0A3E4F0A3F079059E
:1030300012249A9002DFE0F91223C27A307B251223
:1030400026F202BF9274F41212A18A0A8B0BEB547F
:103050008060309002DFE0F9122CBC8A0C8B0DAE40
:103060000CAF0DEE4F60138E828F83E064B070035F
:103070001224B2EEFAEFFB122CAAAA0AE50B648026
:10308000FB80047A007B0002B25374F21212A17426
:10309000FC12124AEAFEEBFF741212129512C47966
:1030A000EE4F700302B12D7402121295EEF0A3EFF1
:1030B00012B48EECF0A3ED12B48EAA82AB8312236D
:1030C000BCE9F50C706AE50A450B60648E828F835B
:1030D00012C45FEE4F60567A067B00122D108A0EE6
:1030E0008B0FA80EA90FE8497005750C1380418855
:1030F000828983E412B13AEEF0A3EF12C48AE50AA2
:10310000F0A3E50BF09002E512B1C19002E5700565
:1031100012BF3C801B12BF2A8003EAFCEBFD8C82AD
:103120008D8312B1C170F38C828D8380E3750C02A4
:10313000A90C740412126002C679F0A312C430A361
:103140002274F21212A1890CE975F017A4FEAFF0F7
:103150009002E4E4F09002E212B1C1600A122D166E
:103160009002E2E4F0A3F0EEFAEFFB122D108A0ACF
:103170008B0BEA450B602FEEFCEFFD7900122C98CB
:103180009002E2E50AF0A3E50BF07B00800812B1A3
:10319000ABE4F0A3F00BEBC3950C40F2E50C90020E
:1031A000E4F079008002791302C679EB75F017A478
:1031B000F8A9F09002E2E028FAA3E0398A82F583C8
:1031C0002212BBCEEA4B2274F41212A1740C12121A
:1031D0009512C454FEE9FF750A00750B00800CE5DA
:1031E0000A2401F50AE50B3400F50BC3E50A9CE55A
:1031F0000B9D5032850A0C850B0D7403780C12124E
:1032000037EA250CF8EB350DF988828983A3A3A34F
:10321000A3A3A312C011EE650C7003EF650D70BF80
:10322000E8FAE9FB80047A007B00802774F412122C
:10323000A17900EAA2E0501B750AEA750B82780AB0
:103240001214B47C047D007ABF7B0A1224947402A9
:103250001212607F04021373C082C0839002E512D1
:10326000B28B601C88828983A3A3E06A7003A3E009
:103270006B8882898370E8A3A3A3A312BBCA8004CE
:103280007A007B00D083D082020EFF12C75FE8492C
:103290002274EE1212A174FC12124AEAFEEBFF85B0
:1032A0001A82851B83E4F0A3F0EE240212BF1CEE09
:1032B000240512C437EE2404F510EF12B843E024BD
:1032C000FE603924FC604624FE605224FE605E24C9
:1032D000FE700302B3A424FE700302B40824FE703F
:1032E0000302B41724FE700302B42624FC70030208
:1032F000B43524FE700302B44402B4819002FE741B
:1033000017F0A3E412B49612213A02B481851A820E
:10331000851B83AC82AD831224B802B451851A8216
:10332000851B83AC82AD831224BE02B451850E0A84
:10333000850F0B7402121295AC82AD83850A8285CB
:103340000B8312BBCA1223E08A0E8B0FAC0EAD0F9B
:10335000EC4D603BE4F50EF50F780E1214B4750ECB
:10336000FE750F02780E1214B4750EFF750F0278F9
:103370000E1214B474081212951214CB12C8DB1278
:103380001260E9F50E700B12BBC0122152800F754E
:103390000E01850A82850B8312B48412BF3C850E10
:1033A0000A02B4547402121295AC82AD83850E8267
:1033B000850F8312B995603C850E82850F83A3A388
:1033C0001214CB7512FE75130278121214B4751212
:1033D000FF75130278121214B474081212951214A5
:1033E000CB12C8DB121260E9F50B700B12BBC012D6
:1033F0002158800F750B01850E82850F8312B484CE
:1034000012BF3C850B0A804C851A82851B83AC82D7
:10341000AD831224C4803A851A82851B83AC82ADA9
:10342000831224CA802B851A82851B83AC82AD83CC
:103430001224D0801C851A82851B83AC82AD831236
:1034400024D6800D851A82851B83AC82AD8312241D
:10345000DCE9F50AE50A60298E828F83A3E0641413
:10346000601F851082851183E09002FE12B48E12D7
:10347000C75B9002FF12BF3CE50AA312B49612216B
:103480003402BE2B12C75F851A82851B8322F0850A
:103490001A82851B8322F07CFE7D02850C82850DBD
:1034A0008312BBCE2274EE1212A174FC12124A8A4D
:1034B0000C8B0D8C108D11EA2405F50AEB3400F508
:1034C0000B7C157D0079007AFE7B02122C98E50AB0
:1034D0002402F50EE50B12C43A851A82851B8385FA
:1034E000821285831378121214B4850A82850B83A5
:1034F000A3A3A3A312B98C1214B4E50A2405F512F0
:10350000E50B3400F51378121214B4850E82850F82
:103510008312BCE11223DA74061212608A128B1332
:10352000AE12AF13E50C2402F50CE50D12BF1FEE31
:103530004F700302B6638017740212129512BBCA51
:1035400088828983EAF0A3EBF09002FEE004F09019
:1035500002FEE0C39405400302B663E4F512F513DE
:1035600078121214B47512E775130278121214B49B
:103570007512E875130278121214B47406121295BB
:103580001214CB7910EEFCEFFD12C8DD121260E9C7
:10359000705E850A82850B83A3A3A3A3A3A3A3E0E4
:1035A000F89002E7E068704812B98C1214B47CE815
:1035B0007D02E50A2408FAE50B3400FB122C927414
:1035C00002121260E960298E828F83A3A3A3A31243
:1035D000BBCA9002FEE0F512740278121212377420
:1035E000FF2512F58274023513F583EAF0A3EBF0A0
:1035F000740212129585821285831378121214B404
:1036000074021212951214CB850E82850F8312BBA1
:10361000F01212608A128B13AE12AF139002FEE00A
:10362000F5127513007402781212123774FE251207
:10363000F874023513F988828983A312B1C170032B
:1036400002B52FE82403080808E93400F9EE4F60BA
:103650000302B5388882898374FFF0A3F09002FEDC
:10366000E004F09002FEE0600A12BBC0122146792D
:1036700000800B850A82850B8312BF33790A02BE54
:103680002B74EA1212A174FE12124A8C148D15EAE0
:103690002405F50EEB12C8C512C463750A00750B3C
:1036A00000EA2402F512EB3400F513851A82851B1B
:1036B0008385820C85830D780C1214B4850E828567
:1036C0000F83A3A3A3A312B8591214B4E50E2405C3
:1036D000F50CE50F12BF1F780C1214B4850E82850D
:1036E0000F8312B85D1223DA74061212608A0C8BF3
:1036F0000DEA450D700302B7FEEA2404F510EB1243
:10370000B84312C4638A828B83A3A3A3E0F9851212
:103710008285138312BBD4600302B7FEE4F516F56D
:103720001778161214B47516E77517027816121466
:10373000B47516E875170278161214B474061212CE
:10374000951214CB7913AC0CAD0D851282851383C1
:1037500012C8E3121260E9F50B600302B7FE900293
:10376000E7E0F8E50A7009E024029002FFF0801417
:103770009002FFE0FCE82402FAE43400FBEA6C70FB
:1037800001EB707E850A82AA8212B983941412B961
:103790007B506B851082851183E0C0E074002A1293
:1037A000B83AD0E0F0050A851082851183A3E0C005
:1037B000E0850A0C7400250C12B83AD0E0F0050A36
:1037C0009002E712B8591214B47CE87D02850A0C05
:1037D0007400250C12B84D1212609002E7E0250A21
:1037E000F50A74FF6E700374FF6F6012EE24010E11
:1037F000EF3400FFE50AC39414500302B6ABE50AA8
:10380000601312BBDE85128285138312BBCA12219C
:103810004C79008014E50B7003750B0A85148285C2
:103820001583EEF0A3EFF0A90B74021212607F0E65
:10383000021373850A0E7400250EF582740334009A
:10384000F583223400F511851082F58322FA740382
:103850003400FB122C8074022212C49922A3A312FA
:10386000B8632212BF2AFDEEFAEFFB2274EE1212A9
:10387000A174FE12124A8C108D11EA2405F50EEB8C
:1038800012C43A750D009002FEE4F0F50CEA240231
:10389000F50AEB3400F50B80449002FEE0FA90024A
:1038A000E7E0F812B983941712B97B400D9002FE3D
:1038B000E0F87416C3989002E7F012B98C1214B4B1
:1038C0007CE87D0274FF2AFA740212B8501212606A
:1038D0009002E7E0F89002FEE028F0050CE50E24E7
:1038E00016F582E50F12B83EE0F8E50CC398507467
:1038F0009002FEE0C39416506BE50CC333F8E4333A
:10390000F9E50E28FEE50F39FF851A82851B83AC89
:1039100082AD838E828F8312B9957008750D011266
:10392000BF2F8050E4F512F51378121214B47512FB
:10393000E775130278121214B47512E87513027841
:10394000121214B474061212951214CB7916850A49
:1039500082850B8312C8E3121260E9F50D70030231
:10396000B89980BB7CFE7D02850A82850B8312BBE1
:10397000CA12215EA90D740202BE2DE99400C3652E
:10398000D03322EA28F8E43400F9E822E0F5127591
:10399000130078122212BE228A128B13AC12AD13BE
:1039A000EC4D2274EA1212A174FC12124A8A0E8B98
:1039B0000F8C148D15EA2405F50CEB12BF1F750A48
:1039C00000750B00E50C2402F512E50D3400F5132B
:1039D000740212129585821085831178101214B426
:1039E000850C82850D83A3A3A3A312C43F1214B434
:1039F000E50C2405F510E50D3400F51178101214CE
:103A0000B485128285138312BF2512BBC41223DA38
:103A100074061212608A108B11AE10AF11E50E24DD
:103A200002F510E50F3400F511803888828983741F
:103A3000FFF0050A12B83374FFF0050A9002E7E0C0
:103A4000F50E750F00780E1214B47CE87D02850A1D
:103A50000E7400250E12B84D1212609002E7E02598
:103A60000AF50AEE4F60278E828F83A3A3A3E0F9A5
:103A700085108285118312BBD4EE240412C437E969
:103A80006027850E82850F8312BBB612BF3CE50A04
:103A9000700302BB9C12BBDE85108285118312BBB2
:103AA000CA122164790002BBB1E4F516F517781645
:103AB0001214B47516E775170278161214B4751639
:103AC000E875170278161214B474081212951214BD
:103AD000CB7911EEFCEFFD85108285118312C8E3CE
:103AE000121260E9F50B709A850A82AA82EA9002A6
:103AF000E77009E024049002FFF08025E0F89002CE
:103B0000FFE0F516E82404FCE43400FDEC651670D3
:103B100001ED708112B983941212B97B400302BA8D
:103B200095850E82850F83E0C0E074002A12B83AB2
:103B3000D0E0F0050A850E82850F83A3E0C0E01275
:103B4000B833D0E012BBF985820E85830F780E1250
:103B500014B474041212951214CB85128285138347
:103B600012BBF01212608A0E8B0FAE0EAF0F850AD9
:103B70000E7400250EF874033400F9EE4F70030242
:103B8000BA2B851A82851B83E08882898312BBF950
:103B9000A3E0C0E012B833D0E002BA39E50B7003FD
:103BA000750B0A850C82850D8312BBB612BF3CA92A
:103BB0000B740402B82B12C75F851482851583220B
:103BC0007CFE7D02850C82850D8312BBCE22E0FA3D
:103BD000A3E0FB2212BBCE1223C8E9F50B22900210
:103BE000FFE0F5F0E50A849002FEF07CFE7D022203
:103BF00012B8631223E6740422F0050A851A82853E
:103C00001B832274EC1212A174FE12124A8A0A8BD0
:103C10000B8C108D11EA2405FEEB3400FF12BE0C54
:103C2000EE241812C437EA450D700302BCAF12BD72
:103C3000F5502912BCD48A128B13EA4513606B79B4
:103C400012AC0CAD0D850A82850B8312BBCA85129E
:103C50008285138312129FE9F50C7058E4F50CF578
:103C60000D780C1214B48E828F83A3A3E0F50C7828
:103C70000C1214B4EE240312BF1C780C1214B48E70
:103C8000828F8312BCE11225007406121260E9F5DE
:103C90000C7021850E82850F83E0701F850A828556
:103CA0000B8312BBCA12216A8011750C0E80097534
:103CB0000C018004E50C600312BF2F850E82850F76
:103CC00083E0600479008002A90C74021212607F04
:103CD0000C021373851A82851B8312BBCE1224EE4D
:103CE0002212BF2AFD850A82850B8312BBCE227465
:103CF000EE1212A174FE12124A8A0A8B0B8C0E8DE0
:103D00000FEA2405FEEB3400FF75100012BE0CEA2A
:103D1000450D700302BDD312BDF5502C12BCD48AE0
:103D2000108B11EA4511604A7912AC0CAD0D850A71
:103D300082850B8312BBCA85108285118312129F64
:103D4000E9F510600302BDD6850A82850B8312C097
:103D500011AA0CFB12BDE770147AFF7BFF12BDE7BE
:103D6000606C88828983E50CF0A3E50DF0750C008A
:103D7000800775100E805F050C9002E4E0FAE50CF8
:103D8000C39A504AE50C75F017A4FAABF088828903
:103D900083A3A3E02AFAA3E03BFB8A828B8312BFB2
:103DA00025EC4D70D2750C17750D00780C1214B4FB
:103DB000EEFCEFFD122C807402121260EEFCEFFD9F
:103DC000850A82850B8312BBCA122170801475107C
:103DD00009800375100112C757850E82850F831263
:103DE000BF3CA91002B9761224E28A128B13A812E2
:103DF000A913E84922E50A2402F50AE50B3400F587
:103E00000B8A828B83A3A3A3E0A2E522851A828575
:103E10001B83AC82AD838E828F8312BE228A0C8B71
:103E20000D22E0FAA3E0FB1223E0227404121260D8
:103E30007F0A02137374EC1212A18C128D13EA2400
:103E400005F50EEB12C43A751100EA2402F50CEBED
:103E500012BF1F850C82F58312BBCA12C969700399
:103E600002BF117510008071850E82850F83E0649A
:103E700001704F8E828F83A3A31214CB8E828F8307
:103E8000A3A3A3A3E0F51475150078141214B4EEDF
:103E90002405F514EF3400F51578141214B412BB90
:103EA000C41225007406121260E9F5116014850E23
:103EB00082850F83E4F012C757851282851383121F
:103EC000BF3C7C177D007900EEFAEFFB122C988E38
:103ED000828F83E4F0A3F005109002E4E0F8E5108F
:103EE000C398501EE51075F017A4F8A9F0850A8252
:103EF000850B83A3A312C8CF12BF25EC4D6003022C
:103F0000BE68850A82850B8374FFF0A3F0E511700B
:103F10000612BBC4122176A91102BCCFF50CEF34F6
:103F200000F50D22A312BF2AFD22E0FCA3E0228EA1
:103F3000828F8312C75F851082851183E8F0A3E921
:103F4000F022C082C0839002E0E06A7003A3E06BBD
:103F500070067AE07B0280047A007B0002B28474EF
:103F6000F71212A17F00EF75F003A4F8A9F0EC2876
:103F7000F8ED39F988828983E06A7003A3E06B70F9
:103F800006E8FAE9FB800B0FEFC3940240D87A00F1
:103F90007B007F0102137374F61212A112C54870E0
:103FA000067A007B008007A3A3A3A312BBCA02C6A4
:103FB0000974F21212A1E9FE740E12129512C011C8
:103FC000741012129512C4798C828D83E064027091
:103FD0003BA312C75B88828983E0F50EA3E0F9A8B2
:103FE0000E74026870037429697021750E02750FD2
:103FF00000780E1214B4780A1214B4780C1214B4A7
:10400000EEF912252474061212608002790102C6AC
:1040100079E0F50CA3E0F50D2274E81212A174FB0F
:1040200012124AE9851A82851B83F08A188B198C33
:10403000108D11741F12129512C4797421121295E9
:1040400012C011742312129512C4637512008C826F
:104050008D83A3A3A3E0A2E4502A741D121295122B
:10406000BCDA8A828B83E5824583700302C125799D
:104070000AAC10AD11AA18AB1912129FE9F5126023
:104080000302C128851082851183E0640260030267
:10409000C3DEA312C75B850A82850B83A3858214C6
:1040A000858315E5102406F50EE51112C43A8882C1
:1040B0008983E0FAA3E0F9EA2400F516E439F5175C
:1040C000781612153E010000280128EDC0070002F5
:1040D00028C4C1032834C10029EEC2012916C30235
:1040E00029BDC20329EEC204297FC3DEC3EE4F708F
:1040F0003E850E82850F8312C454FAE9FB8A828BB7
:1041000083E0850C82850D8312C4901214B48A82D8
:104110008B83A312BF2AFDAA0AAB0B122C80740258
:10412000121260800375120EA912740502C8BD75C3
:10413000120B80F4EE4F70F7850C82850D837401AD
:10414000F012C469850A82850B83F07C007D0085AE
:104150001082851183A3A3A3A3E02401FAA3E03472
:1041600000FB1223E0EA4B60418A828B83E0240249
:10417000F8850C82850D83E028F0EA2404F8EB34FE
:1041800000F988828983E085148285158312C4A290
:1041900012C4901214B48A828B8312BF24E50A24BD
:1041A00003FAE50B3400FB02C11B850C82850D83ED
:1041B000E02404F07C047D007900AA14AB15122CD5
:1041C0009802C128EE4F600302C12F12C469FEA3FA
:1041D000E0FF850C82850D837404F0EE850A8285EC
:1041E0000B83F0EF851482851583F074031212950A
:1041F000AC82AD83EEFAEFFB12C536700302C29AB1
:104200008A828B83A3A312C45F74011212958582E4
:104210001085831178101214B474051212951214BB
:10422000CB7CFF7DFF1223E674041212608B11EA2F
:1042300045117033850E82850F8312C43F1214B46A
:10424000850E82850F83A31214CB7C027D007A0831
:104250007B841222127404121260E9700A74011233
:10426000129574FFF0A3F08E828F83E064027034A5
:10427000750E02750F00780E1214B48E828F8312A1
:10428000BF24E50A2404FAE50B12B8501212608527
:104290000C82850D83E0240280097401121295EED0
:1042A000F0A3EFF0740112129512C450F0740112D1
:1042B0001295A312C448A3A3A3F002C128EE4F6035
:1042C0000302C12F850E82850F8312BF25AA18AB6A
:1042D00019122518850C82850D837402F0EA850A6F
:1042E00082850B83F0851482851583EB80CBEE4F9E
:1042F000600302C12F12C469F8A3E0F9850C82851E
:104300000D837402F0E8850A82850B83F0E9851439
:104310008285158380A3850E82850F8312BBCA1206
:104320002C7AEAFC8C82A882C39EE49F404BE86E04
:104330007001EF70047C00801F851A82851B83E06A
:10434000FAEE2AFAEF3400FBC3EA98EB940050032C
:10435000E08004EECCC39CFCEC850C82850D83F0E0
:104360008C0C750D00780C1214B4850E82850F83A9
:10437000E02EFCA3E03F02C11675120702C128EE31
:104380004F600302C12F850E82850F8312C75B85A4
:104390000C82850D837407F08882898312C44812C9
:1043A000C430E0851482851583F0E82402FAE934EC
:1043B00000FB8A828B8312C44812C48112C450A3AA
:1043C00012C48A12C459F0E82405F8E93400F988C7
:1043D00082898312C459A312C4A2A302C2B6741D57
:1043E00012129512C541700302C12512C75B880ED7
:1043F000890FE8450F700302C1258E128F137812C2
:104400001214B4780C1214B4780A1214B47406128C
:104410001295E0F9AC10AD11AA18AB19850E828582
:104420000F8312129F7406121260E9F51202C1285E
:10443000F088828983A322F50EEF3400F50F22E085
:10444000F510751100781022E0850A82850B832211
:1044500012C4A92212C75FE82212C4A9A3A322A3EF
:10446000A3A3A3E0FEA3E0FF22850E82850F83E0D5
:10447000F8A3E0F5838882E022E0F50AA3E0F50BDB
:1044800022A3A3F08A828B83A32212B13CA3A3228E
:10449000F08A828B8312C49922E0F50C750D0078A6
:1044A0000C2212C43012C4A922E0850A82850B8333
:1044B000A3A32274EE1212A174FE12124A8A0C8B6C
:1044C0000DECFAEDFB7414121295E0F512A3E0F571
:1044D000137416121295E0FE7418121295E0F5107E
:1044E000A3E0F511851A82851B83AC82AD8312C5CA
:1044F00036603E851A82851B8312C541602FA3A3B7
:1045000012C479E50A450B602478101214B47812AD
:104510001214B4EEF9AC0EAD0FAA0CAB0D850A82E5
:10452000850B8312129F74041212608006790E802C
:1045300002790102B9761223E08A0E8B0FEA450F49
:104540002212BBCE12C548221224AC8A828B83E58C
:104550008245832274F61212A174FE12124A740C60
:1045600012129512C454851A82851B83F0740112AD
:104570001295E9F0E4F50AF50B780A1214B4750AFD
:1045800002780A1214B4740412129585820A858383
:104590000B780A1214B41225007406121260740209
:1045A000121260806474F71212A1EAFEEBFF890A0E
:1045B0007C177D03122518EA5402600BA90AEEFA53
:1045C000EFFB1223D48002790102BF9274F612121B
:1045D000A174FF6A700374FF6B701C7B00EB75F0B5
:1045E00003A4F8A9F0EC28F8ED39F912C60E0BEB8C
:1045F000C39402501480E61224E88A0A8B0BA80A9E
:10460000A90BE849600312C60E7F02021373888269
:10461000898374FF12B13AE4F02274F61212A112E7
:1046200024E88A828B83E58245836006A3A3E0FAAF
:1046300080027A007B0080D174F21212A18A0A8B68
:104640000BECFEEDFF740E121295E0F50C12C67E17
:10465000701CEEFCEFFD7AFF7BFF12C67E700479C2
:1046600011801688828983E50AF0A3E50BF0888221
:104670008983A3A3E50CF079007F0602137312244B
:10468000E88A0E8B0FA80EA90FE8492274EE1212C9
:10469000A1EAFEEBFF8C0A8D0B890E7412121295A3
:1046A00012C75B741412129512BF2574161212955C
:1046B00012BBCA750F00EC4D600302C74F74026550
:1046C0000E600302C74A8882898312BF2AF9EC244C
:1046D00000F510E439F511EAF4F8EBF4F9EC58F8C8
:1046E000E51159F9E849705DE50A2406F8E50B344F
:1046F00000F9880C890D8882F58312B85F1225189D
:104700008A128B13E51065127004E511651360427F
:1047100078101214B4850C82850D8312B85F1225AF
:104720001E7402121260E9F50F702778101214B48B
:10473000850A82850B83A3A312B85D122536740205
:10474000121260800D750F808008750F0D80037543
:104750000F0BA90F02BE308E828F8312C75F22E03B
:10476000F8A3E0F92274E81212A174E712124A8544
:104770001A82851B83EAF0A3EBF08C188D1989103F
:104780007431121295E0F514A3E0F515743312128A
:1047900095E0F516A3E0F5177435121295E0F511C2
:1047A000750A00750B00E50B75F003A4F8A9F085F8
:1047B0001A82851B8312C8CFE0F47003A3E0F47063
:1047C0000302C8ADEE2402F50EEF12C8C5E0700377
:1047D00002C8AD85180C85190D780C1214B4AC16EE
:1047E000AD17AA14AB151224A074021212608A0C21
:1047F0008B0DEA450D700302C8ADE4F512F5137890
:10480000121214B4740612129585821285831378DD
:10481000121214B4740912129585821285831378CA
:10482000121214B4851482851583A3A3A3A31214B2
:10483000CB7914AC0CAD0D8E828F8312C8E31212AB
:1048400060E97069850C82850D83A3A3A3A312C7B9
:104850005B740212129512BF3C850E82850F83E0B5
:10486000A2E05018A9107402121295AC82AD838E8A
:10487000828F8312BBCA1223F8E9420A850E828511
:104880000F83E0A2E15026E511F50C780C1214B864
:10489000A9107403121295AC82AD838E828F83129D
:1048A000BBCA1223F27401121260E9420A050BE539
:1048B0000BC39402500302C7A6A90A74191212600E
:1048C0007F100213733400F50F850E82F58322E00A
:1048D00028FEA3E039FF8E828F83227916850C8211
:1048E000850D8312BBCE1224FA74082274F21212C0
:1048F000A1EAFEEBFF890D7401650D600E7402657F
:104900000D70637901122710E9705BEEFAEFFB126C
:10491000C9696047750C00800B7C177D0079001217
:104920002C98050C9002E4E0F8E50CC3985021E5C2
:104930000C75F017A4F8A9F0850A82850B83A3A350
:10494000E028FAA3E039FB8A828B8312B28B70C90C
:10495000850A82850B8374FFF0A3F07C177D03EE3C
:10496000FAEFFB12251202C6791224E28A0A8B0B97
:10497000EA450B2274F21212A18A0A8B0BECFEEDAF
:10498000FF740E12129512C011900ABDE0F4603D42
:104990007A097B00122CA4EA4B60328A828B8374E2
:1049A000B1F0A3E412C483A312C481A3E50AF0A367
:1049B000E50B12C9D0EEF0A3EF12C9D0A3A3E50C0A
:1049C000F0A3E50DF0900ABDE0F9122CB002C67913
:1049D000F08A828B83A3A3A3A3A322C082C0839067
:1049E00061907404F0A37448F0A37402F0906180A5
:1049F0007440F09061BC7403F09061877419F0907A
:104A00006265741BF090619C740DF090619A743330
:104A1000F0A37455F09061A0743AF090055BE064E7
:104A2000017009C2919003C5746780059003C57435
:104A300061F09032A2E493906186F09032A4E49306
:104A4000F46027E493540FF8906185E0686012E504
:104A5000C654804449F5C6E59E547F644970F8E821
:104A6000F053C680E59E547F70FA7905122A6402DD
:104A7000CC1DC082C083E9540FF9906185E0696064
:104A800012E5C654804449F5C6E59E547F644970DA
:104A9000F8E9F053C680E59E547F70FA02CC1DC041
:104AA00082C083E5A8F853A87E906181E4F0A3F06A
:104AB000A3F0C2BA539AFEC289759B00C2C275E9BF
:104AC0000075910075BF0075A91175B905906181D8
