:020000040000FA
:0600000002010A0224DAED
:03002B000221B8F7
:0300330002219A0D
:03003B000221D1CE
:0300430002214E49
:0300530002255033
:03006B00022174FB
:100083000223CBE5C754F84401F5C77901220000E8
:100093000080FB120086B900030200F4E4792178A2
:1000A30008B800028004F709D8FCE479297802B87B
:1000B30000028004F709D8FCE49002817847790FA5
:1000C3008002F0A3D8FCD9FA9010C7AA82AB839020
:1000D300013A782979028015E493A3AC82AD838A2F
:1000E300828B83F0A3AA82AB838C828D83D8E9D9D8
:1000F300E775824E7583BE740412011C7582917577
:100103008300740012011C75D00075813F7518813E
:10011300751902759F00020096C09FF59FE473D086
:100123009F22D083D082C09FE493C0E0740193C028
:10013300E0740293F59F22FF544920424C4520412D
:100143006C6C00000000000000000000001100FFC4
:1001530000600772079C076607FF0000B4000028D1
:10016300002800283075A000A000A000A00000080F
:100173000008E001F0001000100010001000100053
:10018300100050005000500010001000D007000075
:10019300000000000F00010005003075070010008B
:1001A300010081FF0000FF040922090A09FF02027E
:1001B3000208025000A0000000E803023091010091
:1001C300002D910244910100003E11024091010073
:1001D300007F050244910100003F11023E9101009E
:1001E3000095050244910100004011023C91010079
:1001F3000097050244910100004111023A91080061
:100203000098050244910100004211023891010057
:10021300004311FFFF0100FF200230910100002A7B
:1002230091024491010000A81102369100000000E0
:1002330000024291030000790654135413541354DB
:100243001354135413541354135413541354135473
:10025300135413CA15E815C41508172017021712EB
:100263000125A7BE041201250CF00312012516F087
:100273000312012557F003120125A0F003120125F3
:10028300DAF00312012530F10312012551F10312B3
:1002930001255AF103120125AEF103120125D7F10D
:1002A30003120125E1F103120125EBF103120125EC
:1002B30059F203120125E9F20312012544F3031253
:1002C300012572F303120125FAF30312012539F410
:1002D300031201256EF4031201258DF40312012587
:1002E30096F40312012558F503120125A2F5031212
:1002F300012503B904120125AABE041201253AAE51
:100303000412012570AE04120125A4AE04120125C6
:10031300F1AF04120125E4BD04120125FABD041254
:10032300012504BE041201257A8D041201258D8D49
:1003330004120125518E04120125908E0412012509
:10034300AD8E04120125E68E04120125338F0412AB
:100353000125658F041201259C8F04120125AF919D
:1003630004120125B9FF02120125E8FF021201253B
:100373005EBD04120125E9BA04120125FABA04127A
:100383000125FFBE041201253EBF04120125EBFF28
:100393000212012538BC0412012548BC04120125B0
:1003A30063BC04120125CBBC0412012501B804125D
:1003B300012586B804120125EAB8041201252FB5D8
:1003C3000412012558B504120125C3B504120125F1
:1003D30014B6041201256FB60412012573A6041284
:1003E300012588A604120125A0A70412012514A83B
:1003F300041201252EA80412012541A80412012587
:100403004FA80412012569A80412012580A804122B
:100413000125AAA80412012500A904120125629945
:1004230004120125799904120125F3990412012577
:10043300D79A04120125AE9C041201259795041244
:100443000125279604120125B096041201254C9725
:1004530004120125DD97041201258D98041201254C
:100463009B98041201251999041201252C99041251
:1004730001254299041201254C99041201255F9923
:1004830004120125E828001201257E290012012506
:100493003D2A00120125972B00120125152D00126C
:1004A3000125B72D00120125C33600120125EB3DAE
:1004B300001201250847001201252C4800120125CE
:1004C3006152001201250E5300120125B55400128A
:1004D3000125895500120125C355001201259ABB38
:1004E300041201250BBC0412012516BC04120125BC
:1004F30026BC0412012531BC0412012597B3041252
:100503000125E9B3041201255CB404120125C9B421
:10051300041201259BA304120125C5A3041201257E
:1005230094A40412012570A50412012501A6041246
:1005330001255EDA031201252ADB031201256BDB99
:1005430003120125A5DB0312012503DC0312012598
:1005530057DC03120125B5DC031201254BDD031221
:10056300012553DE03120125DDDF031201257BE0A4
:1005730003120125E2E003120125F5E00312012530
:10058300E9E103120125187E00120125517E0012B4
:100593000125677E00120125947E00120125C47E89
:1005A30000120125DB7E00120125F27E00120125D7
:1005B3002D7F001201255E7F00120125AF7F0012FF
:1005C3000125C67F00120125DD7F00120125E4B15C
:1005D30004120125FBB1041201252AB204120125DC
:1005E30063B2041201258BB204120125B9B20412BD
:1005F3000125D0B204120125E7B204120125FDB290
:100603000412012524B30412012537B30412012572
:100613004DB30412012560B30412012585B30412FE
:10062300012587A30212012586A402120125B0A485
:1006330002120125FAA40212012505A502120125C1
:1006430026A5021201253AA50212012569A5021267
:1006530001256BA5021201258CA50212012585A691
:1006630002120125C7A70212012584A8021201253F
:1006730051A902120125B5A9021201254CAA0212A1
:1006830001254FAA02120125D5AA0212012518AB92
:10069300021201256AAB021201256DAB021201257C
:1006A300A4AB02120125CBAB0212012561AC0212ED
:1006B3000125EAAC0212012533AD0212012540AD3A
:1006C3000212012543AD02120125A1AD021201253B
:1006D300A4AD02120125CEAD0212012522AE0212F3
:1006E30001259CAE021201259FAE02120125DAAE4E
:1006F30002120125DDAE021201254FAF02120125C0
:1007030052AF02120125F9AF02120125FCAF02120A
:1007130001258CB002120125A4B002120125D4B028
:1007230002120125E1B002120125E4B002120125F3
:1007330050B1021201255DB1021201254BB2021222
:10074300012501B3021201258AAC0312012565AD0F
:100753000312012593AD0312012513AE03120125E4
:1007630033AE0312012571AE03120125C4AE031289
:1007730001252CAF03120125BDAF0312012588B05B
:100783000312012597B30312012503B503120125B3
:1007930026B5031201252A8904120125BB8A0412F6
:1007A3000125078B04120125CC8B041201252B8C08
:1007B30004120125398C04120125628C04120125CF
:1007C3005BE90312012583E903120125B1E9031251
:1007D3000125E8E9031201254AEA03120125DFEBAB
:1007E3000312012528EC0312012573EC03120125E2
:1007F300B1EC03120125EEEC031201251CED0312EB
:100803000125C3ED03120125CDED03120125DAED18
:10081300031201250DEE03120125CFEE031201256C
:10082300DBEE03120125F3EE03120125FDEE0312A5
:1008330001257BEF03120125FAB90412012508BA39
:100843000412012520BA0412012538BA0412012525
:1008530050BA0412012579B30212012517B402120A
:1008630001258FB402120125A4B502120125DEB5BC
:100873000212012570B60212012519B702120125D1
:10088300EEB70212012552B902120125A9B90212CB
:10089300012530BA0212012517BB0212012564BBE0
:1008A30002120125F2BB0212012516BC0212012518
:1008B300EBBD021201252CBE021201254EBE02120F
:1008C3000125CFBE02120125B9BF021201257FC047
:1008D30002120125B4C2021201255E9703120125FB
:1008E300309803120125D998031201251599031293
:1008F3000125CD9903120125E69903120125009ADA
:10090300031201258D9A03120125199B0312012558
:10091300FA9B03120125299C03120125259D03122D
:1009230001256D9D03120125239E03120125879E38
:1009330003120125F39E03120125209F03120125B3
:10094300AB9F0312012574A103120125B8A1031261
:100953000125DEA103120125D5BC04120125BC919A
:1009630004120125D29104120125F89104120125E4
:100973002093041201252A9304120125839404125F
:1009830001258395041201258D9504120125D0F5C7
:100993000312012505F70312012538F70312012578
:1009A30082F70312012540F9031201254EC60112F5
:1009B3000125CCC601120125DCC60112012522C77F
:1009C30001120125A8C70112012583C801120125BF
:1009D300AFC801120125ECC80112012503C9011298
:1009E30001258AC90112012594C901120125A6C94D
:1009F30001120125DEC9011201252ECA01120125AA
:100A03008DCA01120125D0CA01120125DBCA0112C8
:100A13000125E6CA0112012595CB0112012598CBC8
:100A2300011201259BCB011201259ECB0112012549
:100A3300A1CB011201257ACC01120125C1CC0112EF
:100A430001252BCD01120125A0CD01120125BECE1A
:100A530001120125C2D00112012579D2011201250B
:100A6300F5D201120125D2D30112012500D70112BB
:100A730001259ED701120125FBD8011201256EDA4B
:100A83000112012517DB0112012560DB011201258B
:100A930097DB011201253CDC01120125BADC0112AE
:100AA3000125DED10212012533D20212012578D3AA
:100AB3000212012588D302120125ABD302120125AC
:100AC300FBD302120125F1D402120125BBD5021278
:100AD300012533D70212012575D70212012513D838
:100AE3000212012560D80212012586D802120125BF
:100AF30074DA0212012579DA021201255ADC021294
:100B03000125AEDC0212012510DD0212012538DDBC
:100B130002120125DCDD021201259EDE02120125EF
:100B2300CFDE02120125D2DE021201251ADF0212E4
:100B330001255CDF02120125C3DF02120125DBABB5
:100B430004120125EEAB04120125F7AB04120125B3
:100B530010AC041201255BAC0412012536AD04125E
:100B63000125C5AD0412012510AE041201250FAEF7
:100B7300011201251FAE0112012582AE01120125CA
:100B8300C7AE0112012577AF0112012550B0011242
:100B9300012579B001120125A9B001120125BDB2C9
:100BA3000112012599B40112012579B6011201251B
:100BB300B1B7011201252ABA0112012516BB011290
:100BC30001255CBC0112012569BD01120125ABBDE4
:100BD30001120125E3BD01120125FDBD011201250D
:100BE30065BE01120125FFC201120125A5C3011231
:100BF3000125E3C30112012502C40112012556C4D4
:100C0300011201255EC501120125E7C50112012567
:100C13005092021201255A9202120125F6920212F3
:100C23000125BD9302120125CF93021201250794DA
:100C3300021201254C940212012578940212012517
:100C4300B69402120125FF94021201252795021280
:100C530001258C950212012543960212012559960E
:100C630002120125959602120125BB960212012557
:100C7300FA96021201252D97021201256597021299
:100C83000125849702120125AD97021201252A98A6
:100C9300021201253F9802120125549802120125E0
:100CA300699802120125A29802120125DC9802120A
:100CB3000125009902120125C99902120125DF9924
:100CC30002120125FE9902120125119A0212012531
:100CD300269A021201253B9A02120125B19A0212A9
:100CE3000125C59A02120125199B02120125289B91
:100CF30002120125779B02120125B19B02120125E5
:100D0300E29B021201250E9C021201253C9C021259
:100D130001256F9C02120125849C02120125999CD6
:100D230002120125DA9C02120125249D02120125DB
:100D3300949D02120125D69D02120125019E0212E5
:100D43000125429E021201256D9E02120125989EE5
:100D530002120125069F02120125309F021201256E
:100D6300719F02120125A09F02120125CF9F02123B
:100D73000125F99F0212012523A0021201254DA08E
:100D8300021201258AA002120125B3A00212012535
:100D9300DEA00212012508A10212012533A10212CD
:100DA30001255EA10212012587A102120125DEA100
:100DB3000212012543A2021201258CA2021201256F
:100DC300B6A202120125DBA2021201255FA30212C1
:100DD30001253EFB021201257AFB0212012544FC88
:100DE3000212012597FC021201257AFD0212012548
:100DF300F0FD0212012532FE021201255FFF0212ED
:100E03000125C3C202120125ECC20212012505C34A
:100E1300021201254AC40212012528C50212012526
:100E230047C502120125D4C50212012517C60212B5
:100E330001254FC702120125BBC702120125B1C903
:100E4300021201253FCC02120125D2CC0212012548
:100E5300A6CD0212012549CE0212012533CF02127B
:100E630001259FD00212012535D102120125A0D1FF
:100E730002120125A9B60412012512B70412012595
:100E830066B70412012588B704120125AFB704120F
:100E93000125E0B704120125D584041201254285FA
:100EA300041201258D850412012582860412012571
:100EB3007E87041201256888041201251DC00312D0
:100EC30001255FC00312012539C10312012512C296
:100ED300031201250DC303120125ECC303120125DF
:100EE30058C40312012500C5031201251EC50312B0
:100EF30001253AC503120125E3C5031201254EC698
:100F030003120125B5C603120125B8C60312012534
:100F1300E3C60312012554C703120125E7C70312D1
:100F2300012550C80312012565C803120125ADC868
:100F330003120125C6C8031201252BC9031201257B
:100F43002EC90312012561A0041201259DA00412DC
:100F53000125DBA004120125A5A10412012518A275
:100F63000412012553A20412012591A204120125A2
:100F7300C1A204120125E8A20412012553A30412FD
:100F83000125E65500120125D45700120125605AA8
:100F930000120125325B00120125755B0012012549
:100FA300BE5B00120125D05B00120125105C00120C
:100FB3000125515C00120125605C001201258F5C44
:100FC30000120125DB5C00120125135D00120125CF
:100FD3006A5D001201258D5D00120125C15D0012BD
:100FE3000125E45D00120125775E00120125A55E4F
:100FF300001201251E5F001201256F5F00120125FB
:10100300FB5F00120125C36200120125C0630012B9
:1010130001252364001201259F64001201257766D0
:1010230000120125B36600120125CE6700120125C7
:10103300FF6700120125466800120125436900126B
:101043000125166B001201257B6B00120125C26B73
:10105300001201259C7000120125CD70001201259C
:101063000B7100120125007300120125F0730012A9
:1010730001258F7500120125C475001201253676EE
:10108300001201250E77001201253F77001201257A
:10109300697700120125937700120125C8770012A2
:1010A3000125ED77001201250C780012012539780E
:1010B30000120125A078001201252B7900120125C9
:1010C3006F7900120125917900120125BF7A001270
:1010D3000125EC7A001201254A7B001201256F7B62
:1010E30000120125597C00120125707C0012012594
:1010F3001B7D00120125A67D00120125D17D001262
:10110300012535A904120125A7A904120125FDA96A
:101113000412012541AA0412012561AA0412012522
:10112300AEAA04120125F6AA0412012549AB041242
:1011330001259AAB0412012552C9031201256FC977
:101143000312012509CF031201250BD00312012538
:1011530085D10312012533D2031201254B910112CC
:101163000125949101120125C19101120125F491E8
:101173000112012504920112012510920112012589
:10118300219201120125F6920112012554930112B5
:101193000125899301120125C093011201255C9554
:1011A30001120125A99501120125F89501120125C6
:1011B300629601120125F496011201259A970112F4
:1011C30001251F9801120125A19801120125EB9811
:1011D300011201251B9A01120125769B011201259B
:1011E3004D9C01120125729C01120125B79C01122D
:1011F3000125C79C01120125E39C01120125E69CF0
:1012030001120125A09D01120125699E01120125EC
:10121300F99E01120125959F01120125BA9F011222
:10122300012519A001120125A8A001120125FDA085
:101233000112012526A10112012586A10112012512
:1012430014A201120125DDA2011201257AA30112C4
:10125300012501A40112012558A401120125B9A4F5
:1012630001120125F3A4011201259CA501120125F8
:10127300EAA501120125DAA7011201252AA8011204
:1012830001257AA801120125EFA80112012579A9E8
:1012930001120125C4A901120125E9A901120125A1
:1012A3003AAA0112012563AA01120125A8AA011273
:1012B300012517AB0112012559AB0112012559ACC8
:1012C30001120125F3AC01120125C4AD0112012560
:1012D300DDAD011201255EB603120125B1B603127D
:1012E3000125BDB60312012592B703120125B9B733
:1012F30003120125F4B70312012560B80312012577
:1013030084B803120125B2B803120125EBB8031206
:10131300012503B9031201255CB90312012575B92F
:1013230003120125BEB903120125D1B90312012508
:10133300EBB90312012501BA031201251DBB0312E8
:1013430001252EBC031201257BBD0312012560BEBE
:1013530003120125F57F00120125008004120125E7
:101363007283041201258A84041201251CEE0212E1
:1013730001250FF40212012515F40212012595F639
:1013830002120125F6FA03120125A1FB031201251E
:1013930051FC0312012576FC031201256DFE031295
:1013A3000125C0FF031201256EDD01120125A2DD17
:1013B30001120125A7E701120125F3E80112012516
:1013C30010EA011201259AEB011201257CEC0112AE
:1013D3000125B6EC01120125D9EC011201251BED03
:1013E3000112012524ED011201256EED01120125E3
:1013F30078ED0112012524EE01120125F8EE011208
:1014030001254CEF01120125AEEF0112012501F078
:101413000112012530F0011201256FF0011201259F
:101423000080021201255A880212012560880212E7
:1014330001251B8E02120125019202120125139D23
:1014430004120125899D041201259F9D0412012583
:10145300DC9D04120125149E04120125919E0412A1
:101463000125CC9E04120125479F04120125839F69
:10147300041201258C9F04120125989F0412012553
:10148300B29F04120125D79F04120125ED9F041278
:10149300012531A00412012555D20312012568D27A
:1014A3000312012582D203120125ABD203120125B7
:1014B300EED2031201252DD3031201256BD30312A0
:1014C3000125D0D303120125E5D303120125F0D35F
:1014D30003120125FDD30312012514D403120125A0
:1014E30022D40312012531D40312012546D4031259
:1014F30001255BD40312012566D40312012572D49E
:10150300031201257FD40312012592D4031201256E
:101513009DD403120125C2D403120125C7D403129B
:10152300012563D503120125C9D503120125D9D598
:1015330003120125EED50312012503D6031201255B
:101543001DD60312012538D60312012555D60312E1
:10155300012560D6031201251CD70312012508D8E3
:101563000312012524D8031201253BD803120125B8
:1015730045D80312012559D8031201257AD803123D
:101583000125DBD803120125E1D803120125E7D891
:1015930003120125EDD803120125F3D80312012507
:1015A3001AD90312012555D9031201256ED9031245
:1015B3000125AED903120125E1D90312012553A256
:1015C300031201257FA20312012563A30312012540
:1015D300FDA50312012513A70312012530A8031249
:1015E3000125D3A80312012579A90312012592E04D
:1015F3000212012514E102120125BDE102120125A7
:1016030005E30212012513E502120125F9E5021291
:1016130001252EE60212012550E602120125F9E604
:1016230002120125C9E802120125F2E8021201257E
:101633006AE9021201259CE902120125A9E90212B5
:101643000125F4E90212012518EA0212012569ECC9
:101653000212012573ED02120125CFED02120125BD
:101663006EF1011201257FF20112012563F30112CC
:1016730001256DF30112012577F30112012599F379
:1016830001120125A5F30112012549F501120125D6
:1016930076F5011201258CF601120125E1F60112FE
:1016A300012530F80112012505F90112012561F91F
:1016B30001120125CCF90112012501FA01120125BC
:1016C30044FA011201250EFD0112012526FD011226
:1016D3000125B7FD01120125C5FD0112012512FEE9
:1016E3000112012520FE011201258CFE01120125A4
:1016F30007FF011201255EFF01120125408C031231
:101703000125628C03120125738E03120125329188
:10171300031201255C92031201251A93031201257A
:101723000694031201252BB00412012550B00412B4
:101733000125C6B0041201253EE20312012547E24A
:101743000312012550E20312012528E303120125A8
:10175300D9E40312012509E50312012534E5031237
:10176300012564E5031201258FE503120125C3E575
:1017730003120125EFE50312012532E603120125C9
:101783005DE603120125A4E603120125F9E603121F
:1017930001253BE70312012595E703120125C0E765
:1017A300031201250FE8031201253FE80312012567
:1017B3006AE80312012598E803120125BBE8031226
:1017C300012500800312012536800312012579804B
:1017D300031201258480031201258F800312012542
:1017E3009A8003120125A58003120125E1830312C8
:1017F3000125B68403120125308503120125A7852F
:1018030003120125B48503120125C18503120125A5
:10181300CB8503120125D58503120125F18503121A
:1018230001250186031201254386031201257C86C7
:1018330003120125868603120125908603120125D2
:101843009A8603120125A78603120125B186031286
:101853000125BB8603120125C58603120125CF8608
:101863000312012519870312012536870312012567
:101873005387031201256387031201256D87031222
:101883000125C88703120125D587031201259988ED
:1018930003120125A38803120125AD880312012534
:1018A300B78803120125D48803120125F188031296
:1018B3000125B58903120125BE8903120125CA89B1
:1018C30003120125EF8903120125FC890312012567
:1018D300058A031201252C8A03120125538A031258
:1018E30001255F8A03120125698A03120125798A7A
:1018F30003120125928A031201259C8A03120125F2
:10190300AC8A03120125BC8A03120125C68A03127D
:101913000125D68A03120125E68A03120125058BC8
:1019230003120125128B031201251F8B03120125BC
:101933002F8B031201253F8B031201254F8B0312BB
:101943000125818B031201258B8B031201259B8BB0
:1019530003120125AB8B03120125B88B031201255A
:10196300E18B03120125EB8B03120125F88B031284
:101973000125028C03120125128C031201251C8CF4
:1019830003120125268C03120125368C031201252F
:1019930048BF0412012575BF04E066701008A3E078
:1019A30066700A08A3E066700408A3E06622C3E732
:1019B300960809E7960809E7960809E79622C3E01F
:1019C3009608A3E09608A3E09608A3E09622C00831
:1019D300C3E096F50808A3E096420808A3E0964200
:1019E3000808A3E09645087001D3D0082208080828
:1019F300EAC0E0EBC0E086F0E7A4FA180986F0E756
:101A0300A42AFA180986F0E7A42AFA180986F0E747
:101A1300A42AFA1986F0E7A4FBE5F02AFA19088646
:101A2300F0E7A42BFBE5F03AFA190886F0E7A42BBC
:101A3300FBE5F03AFA18180986F0E7A4C5F02BFB8A
:101A4300E43AFA1908E7C5F0C6A426F6E5F03BFB2D
:101A5300E43AFA1886F0E7A4F6E5F00826F6E43B44
:101A630008F6E43A08F6D0E0FBD0E0FA22E4CFC06F
:101A7300E0E4CEC0E0E4CDC0E0E4CCC0E075F0200B
:101A8300C3E633F608E633F608E633F608E633F63C
:101A9300181818EC33FCED33FDEE33FEEF33FFC3C0
:101AA300EC9709ED9709EE9709EF97191919400F6C
:101AB300FFEC97FC09ED97FD09EE97FE191906D582
:101AC300F0BEECF709EDF709EEF709EFF71919196D
:101AD300D0E0FCD0E0FDD0E0FED0E0FF22601608AD
:101AE3000808C6C313C618C613C618C613C618C635
:101AF30013C6D5E0EA2270090808082260161818F0
:101B030018C6C333C608C633C608C633C608C633A9
:101B1300C6D5E0EA22E627F60809E637F60809E61D
:101B230037F60809E637F622E026F608A3E036F68C
:101B330008A3E036F608A3E036F622E026F008A371
:101B4300E036F008A3E036F008A3E036F022C3E65F
:101B530097F60809E697F60809E697F60809E6975F
:101B6300F622C3E096F008A3E096F008A3E096F00F
:101B730008A3E096F022E657F60809E657F60809A7
:101B8300E657F60809E657F622E056F608A3E056AC
:101B9300F608A3E056F608A3E056F622E056F0084E
:101BA300A3E056F008A3E056F008A3E056F022E0C5
:101BB30046F008A3E046F008A3E046F008A3E04699
:101BC300F022E066F608A3E066F608A3E066F608EE
:101BD300A3E066F622E0F608A3E0F608A3E0F60821
:101BE300A3E0F622E6F008A3E6F008A3E6F008A3D4
:101BF300E6F022E0FAA3E0FBA3E0FCA3E0FD22EA87
:101C0300F0A3EBF0A3ECF0A3EDF022CAC0E0E6F002
:101C1300A308DAFAD0E0FA22CAC0E0E0A3C582CC76
:101C2300C582C583CDC583F0A3C582CCC582C583D8
:101C3300CDC583DAE6D0E0CA22C3E498F8E499F983
:101C4300121C7D8026C3E49AFAE49BFBE920E7E9B2
:101C5300121C7DE498F8E499F922C3E498F8E49916
:101C6300F9121C7DE498F8E499F9C3E49AFAE49B29
:101C7300FB22EB20E7CFE920E7E0B90010BB000827
:101C8300E88AF084F8AAF022E4FBC8FA22EB702277
:101C93007B10C833C8C933C9335007C39AC3DBF2B7
:101CA30080069A50012ADBEAC833F4C8C933F4C961
:101CB300FA2275F008E4C833C8C933C933C99AC9CD
:101CC3009B5004C92AC93BD5F0ECFBC833F4C8E4E4
:101CD300C9FA22600D08C6A2E713C618C613C6D5F3
:101CE300E0F322600C08C6C313C618C613C6D5E0BA
:101CF300F422700422600D18C6C333C608C633C667
:101D0300D5E0F41822251810AF08F518400215196C
:101D13008008F51840021519D2AF22C0D02518103B
:101D2300AF08F518500205198008F5185002051977
:101D3300D2AFD0D0222518F58210AF08F518400293
:101D430015198008F51840021519D2AF8519832299
:101D53002518F582E43519F58322E4732518C58225
:101D6300C0E0E51934FFC583C0E0E518C3958224BC
:101D7300F810AF0885831985821880088583198533
:101D83008218D2AFCEF0A3E520F0A37808E608F0DE
:101D9300A3DEFAEFF0A3E58124FAF8E608F0A3E660
:101DA30008F0A3E608F0A30808E608F0A3E608F0A5
:101DB300A315811581D0E0FED0E0F81581158115BA
:101DC30081E8C0E0EEC0E0222518C582C0E0E51935
:101DD30034FFC583C0E0E518C3958224F910AF082A
:101DE3008583198582188008858319858218D2AF67
:101DF300CEF0A3E520F0A37808E608F0A3DEFAEF1F
:101E0300F0A3E58124FBF8E608F0A3E608F0A308B5
:101E130008E608F0A3E608F0A315811581D0E0FEDB
:101E2300D0E0F815811581E8C0E0EEC0E022851905
:101E330083851882E0A3FEE0A3F5207808E0A3F6EB
:101E430008DFFAE0A3FFE0A3C0E0E0A3C0E0E0A363
:101E5300C0E0E0A3C0E0E0A3C0E010AF08858218B3
:101E63008583198008858218858319D2AFD083D0E2
:101E730082020122851983851882E0A3FEE0A3F57F
:101E8300207808E0A3F608DFFAE0A3FFE0A3C0E0B0
:101E9300E0A3C0E0E0A3C0E0E0A3C0E010AF08858A
:101EA30082188583198008858218858319D2AFD05B
:101EB30083D08222C0D02518C582C0E0E51934FF43
:101EC300C583C0E0E518C3958224F310AF0885836A
:101ED300198582188008858319858218D2AFC8F0C6
:101EE300A3E9F0A3EAF0A3EBF0A37908E709F0A3D1
:101EF300D8FAECF0A3EDF0A3EEF0A3EFF0A3D0E05B
:101F0300F0A3D0E0F0A3D0E0F0A3E520F0A3E5F048
:101F1300F0A322851983851882E0C0E0A3E0F9A32A
:101F2300E0FAA3E0FBA37808E0F608A3DFFAE0FCFD
:101F3300A3E0FDA3E0FEA3E0FFA3E0C0E0A3E0C0B5
:101F4300E0A3E0F5D0A3E0F520A3E0A3F5F010AF04
:101F5300088583198582188008858319858218D29C
:101F6300AFD082D083D0E0F8D0E03274048006741E
:101F73000280027401C0E0F404121D38D0E0121C88
:101F83000E227404800474028000CCC0E0EDC0E033
:101F9300E518C39CCCAD1950011D10AF068C188DEC
:101FA3001980068C188D19D2AF121C1BD0E0FDD0FE
:101FB300E0FC22D083D082C5F0E493A3C5F0C3959F
:101FC300F0F5F0E493A3C395F04005E5F004800138
:101FD300E475F002A42582F582E5F03583F583E408
:101FE30093A3C0E0E493C0E022D083D082E9C0E0B1
:101FF300E493A3C386F0C5F095F0F908E493A386B0
:10200300F0C5F095F0700BE493A3C3994005E90480
:102013008002A3E475F002A42582F582E5F03583FE
:10202300F583D0E0F9E493A3C0E0E493C0E022D0C9
:1020330083D082CCC0E0E493A3600612205C1470CA
:10204300FAE493A3600612207B1470FAD0E0FCE458
:1020530093A3C0E0E493C0E022C0E0E493A3D39C45
:102063005010E493A3C39C400AD0E0D0E0D0E00238
:10207300204FA3A3A3D0E022C0E0E493A36C700994
:10208300D0E0D0E0D0E002204FA3A3D0E022D08361
:10209300D082ECC0E0EDC0E0E493A3FCE493A3FDA5
:1020A300ED4C600D1220DDEC24FFFCED34FFFD80D0
:1020B300EFE493A3FCE493A3FDED4C600D12211C0C
:1020C300EC24FFFCED34FFFD80EFD0E0FDD0E0FC1D
:1020D300E493A3C0E0E493C0E022C0E0C3E493969A
:1020E300087401939618400FE4936670080874010E
:1020F30093661870007019A3A3C3E4939608740140
:10210300939618A3A3400DD0E0D0E0D0E00220CDF9
:10211300A3A3A3A3A3A3D0E022C0E0C0F088F0E46C
:10212300936670080874019366187000A8F0A3A35F
:10213300700BD0F0D0E0D0E0D0E00220CDA3A3D04C
:04214300F0D0E022D6
:10214800C2AF02000022C0E074F2121EB7A2AFE4D0
:1021580033FED2AFC2C0E5D1A2E4500653D1EF128C
:10216800047EEEA2E092AF7F01021F16C0E074F277
:10217800121EB7A2AFE433FED2AFE589A2E1500345
:102188001203D6758900C2C5EEA2E092AF7F0102A4
:102198001F16C0E074F2121EB7A2AFE433FED2AF2E
:1021A800E58BA2E050031203D6758B00C2E880D8F5
:1021B800C0E0C0D0E8C0E0E5A8D2AFC2C7A2E792AD
:1021C800AFD0E0F8D0D0D0E032C0E0C0D0E8C0E076
:1021D800E9C0E0C008C009C082C083A2AFE433F9F7
:1021E800D2AF900477E0F8A3E0687008539AFBA395
:1021F80074018026C2E9900477E0F5087401250887
:10220800F074F72508F58274033400F583E0F5C10E
:10221800900477E0C394804002E4F0E9A2E092AF32
:10222800D083D082D009D008D0E0F9D0E0F8D0D05F
:10223800D0E03274F5121DCBEAFEEBFFEE2434F841
:10224800EF3400F988088909EE2435122373F8EE73
:102258002437122373F50AEC850AF0A4FCAAF0854A
:102268000AF0EDA42AFDE82CF8E43DF97A257B0074
:10227800121C7DEA850882850983F05407F87401E9
:10228800B800028004C333D8FCC0E0E01313135431
:102298001FF8EE28F8EF3400F9E8245DF582E934F8
:1022A80000F583D0E0F8E058600885088285098346
:1022B800801DEE2436122373F5F0EA84A8F0EE2888
:1022C800F8EF3400F9E82438F582E93400F583E0C2
:1022D800F97F04021E7774F5121DCBEAFEEBFFEEC0
:1022E8002434122373C0E0EE2435F582EF3400F570
:1022F80083D0E0F08E828F83A3A3A3A3A3E0FAA3E5
:10230800E0FB8E828F83A3A3A3A3A3A3A3E0FCA3D4
:10231800E0FDECC39AF50AED9BF50BEE2480F50879
:10232800EF3400F509850882F583E06401702BEE2F
:102338002481F582EF3400F583121F8912237C74FF
:1023480002121D1EE960137CB87D0AEEFAEFFB123B
:102358001264850882850983E4F0AC0AAD0BEEFAB5
:10236800EFFB12223B1228D00222D9F582EF34006B
:10237800F583E022C082C083851882851983E0F83E
:10238800A3E0F9C3EA9CEB9D5012C3EC98ED994089
:1023980019C3EA98EB99501279018010C3EA98EBB7
:1023A8009940F5C3EC98ED9950EE7900D083D0822E
:1023B80022EAC39CFAEB9DFB220000008521878559
:1023C80022C622C0E074EF121EB7759B009061828E
:1023D800E0A2E6400302248CE591A2E64003022431
:1023E8008C7591BF90076FE06405700812146E1227
:1023F800147A80031214747521001214F2E99007FC
:1024080070F079001214D41211807A017B009007C1
:102418006EE0F91202C8907803E064426003022477
:10242800D5900B44E014F060030224D5C2AF122407
:102438003900782AD0E0F618D0E0F6E59F5407F97D
:10244800700590912280039091267808121BD8E994
:10245800C4C0E07829E65508F50808E65509F509E5
:10246800740B7808121CE6D0E02508F8906270E03A
:10247800A2E740F8E8C333906272F0906270E0D24D
:10248800E0F08049E0A2E55024E591A2E5501E75F0
:1024980091DF90076FE0640D7013900791E004F0EE
:1024A80064287002E4F07A00E0F91215B2906181B4
:1024B800E0A2E35009E5E9A2E3500375E9F7A3E0D8
:1024C800A2E75009E591A2E7500375917F7F0402C6
:1024D8001F16C0E0C0D0C082C083906183E0A2E034
:1024E8005009E5BFA2E0500375BFFEE0A2E1500924
:1024F800E5BFA2E1500375BFFDE0A2E25009E5BFC8
:10250800A2E2500375BFFBE0A2E35009E5BFA2E3D6
:10251800500375BFF7E0A2E45009E5BFA2E45003F9
:1025280075BFEFE0A2E55009E5BFA2E5500375BF0E
:10253800DFE0A2E65009E5BFA2E6500375BFBFD0B1
:1025480083D082D0D0D0E032C0E074F2121EB7E55A
:10255800A7A2E4500FE5A1A2E4500953A7EF75A183
:10256800EF1225A4E5A7A2E5500CE5A1A2E55006C7
:1025780053A7DF75A1DFE5A7A2E15009E5A1A2E114
:10258800500375A1FDE5A7A2E2500CE5A1A2E25017
:102598000653A7FB75A1FB7F01021F1674F8121DD5
:1025A800CB75210190076FE0640670077A007B0005
:1025B800121456A2AFE433FED2AF900775E064015F
:1025C80070187A207B0090076EE0F912034C7A208D
:1025D8007B0090076EE0F91202CE906182E0D2E6AD
:1025E800F0900B43E0602185C6228016900774E0C6
:1025F80064017008E5C654F84405F5C653BEFC12DC
:1026080023C47401652160E4EEA2E092AF7F010269
:102618001E7700008E238F248582288583278518BE
:1026280082851983E0CEA3E0CF852882852783EBB6
:10263800C9EAC8EDCBECCA75F010C3E833C8E93372
:10264800C9EA33CAEB33CBC3EA9EF526EB9FF525DF
:10265800B35004AB25AA26EC33CCED33CDD5F0DA54
:10266800AE23AF242274F1121DCB8A088B098C0A81
:102678008D0B740F121D53780C121BD89090E278B2
:1026880008121B8C9090E2780C121B8C7808790C3D
:102698001219B150157808790C121B519090C27814
:1026A800081219D1401579018013780C7908121B8A
:1026B800519090C2780C1219D140EB79007F080232
:1026C8001E7774ED121DCB8A088B098C0A8D0B744A
:1026D80013121D53780C121BD89090E27808121B25
:1026E8008C9090E2780C121B8C780C79081219B136
:1026F80040117808790C121B51AA08AB09AC0AAD35
:102708000B80227510007511007512007513017881
:1027180010790C121B5178107908121B18AA10ABEB
:1027280011AC12AD137F0C021E779090E27808125C
:102738001BD88A828B837808121B9F7F04021E771E
:1027480074F5121DCB8C828D837808121BD88A826F
:102758008B837808121B6512279CC3E098F0A3E0CE
:102768009912278E401E9090D27808121BD88A8220
:102778008B837808121B3E8E828F83E02420F0A37F
:10278800E0344EF080A4F08E828F83C3E09420A3BF
:10279800E0944E22EA2404F8EB3400F9E8FEE9FF5D
:1027A8008C828D83A3A3A3A3E0F8A3E0F98E828F84
:1027B800832274F5121DCBE9FE900ACFE0FAA3E05C
:1027C800FBEEC333F8E433F9742328F582749039A7
:1027D800F583E02AF508A3E03BF5097808121F7293
:1027E80090911E121BF612261C7402121D1E8A08D6
:1027F8008B098C0A8D0B74107808121AE0AA08ABA2
:10280800097F04021E7774F1121DCB8A0C8B0D8C84
:102818000E8D0F740F121D53E0FAA3E0FB74111212
:102828001D53E0F508A3E0F5097413121D53E0FEEB
:10283800A3E0FF7808121F72EA2401F508EB3400C0
:10284800F509E4F50AF50B780C79081219F090905F
:10285800CA7808121BD8780C79081219F0AA0CABA0
:102868000DAC0EAD0F12261C7402121D1E8B09EA48
:10287800450960047A0180027A00EC2AFCED3400F4
:10288800FDECF8EDF97A717B02121C7D8808890944
:10289800E4F50AF50B8E828F837808121BE7ECF8B3
:1028A800EDF97A717B02121C7D8A088B0974057810
:1028B80008121CF58E828F83A3A3A3A3E508F0A3B7
:1028C800E509F07F08021E77C082C083E9906000A6
:0628D800F0D083D0822243
:1028E000FFFFFFFFFFFFFFFF74F7121D5FE990047A
:1028F0007DF01217E090047DE0F912095E1209AC38
:1029000090047DE0F91209B290047DE0F9120B6E9B
:102910009090D2121BF61209949090D2121BF612CC
:102920000B8C7AC87B101202687CC87D107900126B
:10293000098E7CDD7D107A02790112098E79017A87
:10294000417B901203E279027A337B901203E279A1
:10295000037A4E7B901203E27CE27D047A107902C6
:102960001205807CF27D047A1079031205807C7E4A
:102970007D047A0479041205807F01021E3174F40B
:10298000121D5F8A088B09EB5480607390047DE010
:10299000F91202B08A0A8B0BAE0AAF0BEE4F6056EB
:1029A0008E828F83E0246F600924FE703C120490B5
:1029B000803AA3E0640E70378E828F83A3A3A3A313
:1029C000A3121F89EE24FDF582EF34FFF583E02486
:1029D000F9FC8E828F83A3A3A3123D55FB790E12BF
:1029E0000E2C7402121D1E80061204B4E96007EE5C
:1029F000FAEFFB120298AA08E5096480FB803BEB22
:102A0000544060137C7E7D047A04790412057AAA0E
:102A100008E509644080E5EAA2E0500AC2AF75C942
:102A2000AB75C95B80FE5402600C122148E5086456
:102A300002FAAB0980047A007B0002482774F41282
:102A40001D5F74F9121D08EAFEEBFF8518828519D7
:102A500083E4124698122D92C0E07401121D53D0E7
:102A6000E01250C7A882A983E0FCA3E0FBECFA7453
:102A700002121D53EAF0A3EBF0E824020808E91261
:102A80004FE0C0E07404121D53D0E01250C708A9F3
:102A9000837405121D531246B17402121D53E0F5E2
:102AA00008A3E085080AF50B7407780A121CE6787B
:102AB0000A121FEC010004432BC32AD92AEC2A096D
:102AC0002B262B7401121D53AA82AB83E508547F79
:102AD000F912049CE9F508806D7401121D53AA8255
:102AE000AB83E508547FF91204A280E8851882853B
:102AF0001983AC82AD837401121D53AA82AB83E5A6
:102B000008547FF91204A880CB851882851983ACFC
:102B100082AD837401121D53AA82AB83E508547FF2
:102B2000F91204AE80AE851882851983AC82AD831C
:102B30007401121D53AA82AB83E508547FF9120475
:102B4000968091750801EEFAEFFB1202989004AAA4
:102B5000747FF0A37406F0E508A3F07402121D530D
:102B6000E09004ADF07402121D53A3E044FC900405
:102B7000AEF0851882851983E09004AFF07CAA7DC1
:102B800004851882851983E02406FA79FF120E3233
:102B90007900740702482474E8121D5F8A828B83CF
:102BA000ECFEEDFFA3A3A3A3E0F50AA3E0F50B75EC
:102BB0000C008E828F83E4125580858208858309FC
:102BC000E96012146039147003022C4D1470030272
:102BD0002D05022D0B850A82850B83E090909E7057
:102BE00017121F857A017B0090047DE0F9120340E3
:102BF0007404121D1E022D0E121F857A0280E785B5
:102C00000A82850B83E0F9850882850983E0FAC38F
:102C100094325010E924FE601114600E1470057493
:102C2000046A600B750C02022D0E74106A70F57C3C
:102C3000B07D04120580E9F50C6003022D0E8508B5
:102C400082850983E08E828F83F0022D0E850A82B1
:102C5000850B83E0F50E850882850983E0FAE50E91
:102C600024FE600D14600A1470BA74046A70B58092
:102C70000574106A70AEE50A2402FEE50B3400FF0D
:102C8000EEFCEFFDA90E12057AE9F50C7404650E51
:102C9000707C8E828F83124620850A82850B83A3E7
:102CA000A3A3E0F514E4F515F516F51774087814E8
:102CB000121AF978107914121B18850A82850B8371
:102CC000A3A3A3A3E0F514E4F51574107814121A65
:102CD000F978107914121B18850A82850B83A3A337
:102CE000A3A3A3E0F508E4F509F50AF50B74187839
:102CF00008121AF978107908121B1890047E7810BF
:102D0000121BE7800912036A022C24750C01A90C1E
:102D10007F10021E3174F4121D5F74F4121D0889B5
:102D2000088A828B83A3A3A3122D92FEA3E0FDEE5B
:102D30002400E43DFFE82402FCE93400FDE508241A
:102D4000F6602624F87044122D98121F7274021235
:102D50001D53AA82AB83120EFE7402121D1EE9706F
:102D60002C122DAC120E8C8024122D98121F72740E
:102D700002121D53AA82AB83120EEC7402121D1EA6
:102D8000E9700A122DAC120E8680027901740C02D1
:102D90004824A31254ABE0228A828B83A3A3A3E02E
:102DA00024FEF50AE434FFF50B780A2290047D1224
:102DB00036A1EEFAEFFB2274EE121D5F74E7121DCE
:102DC00008890C8A0E8B0F8A828B83A3A3A3A3127C
:102DD0003D5A8C828D83123D55F9EA2400F50AE4B0
:102DE00039F50B750830750991EC2403FAED3400C0
:102DF000FBEC2402FEED3400FFE50C121FB6011DB2
:102E000019363E2E792EB62EED2E422F7A2F153002
:102E10004D300F3147318531BD31FB3133327132A5
:102E2000A93227335F33D333193619360134983436
:102E3000D034503519367E351936AD35EE35851816
:102E4000828519838582088583097808121F72128A
:102E500036AE12062E7402121D1EE9F50D60030235
:102E6000361C851882851983AC82AD83AA0AAB0B08
:102E70001205CEE9F50D02361C8518828519838569
:102E800082088583097808121F72850E82850F8358
:102E9000123DD7121F720C0CEFFD7A00790012065A
:102EA0003A7404121D1EE9F50D600302361C123639
:102EB000961209B880BD8518828519838582088598
:102EC00083097808121F721236AE12064674021277
:102ED0001D1EE9F50D600302361C851882851983D5
:102EE000AC82AD83AA0AAB0B1205D480868518820A
:102EF0008519838582088583097808121F72850EDB
:102F000082850F83123DD7121F720C0CEFFD7A00E1
:102F100079001206527404121D1EE9F50D600302B9
:102F2000361C7402121D53121F8990047DE0F9743F
:102F300002121D5312367E1209DC7402121D1E028B
:102F40002E73851882851983858208858309780800
:102F5000121F721236AE12065E7402121D1EE9F5C1
:102F60000D600302361C851882851983AC82AD83FF
:102F7000AA0AAB0B1205DA022E7385188285198313
:102F80008582108583117810121F72123668121F05
:102F9000720C0CEFFD7A00790012066A7404121D9F
:102FA0001EE9F50D600302361C7404121D5312361F
:102FB00056121F727407121D5385820E85830F7877
:102FC0000E121F72123648121D1EE96042851882C9
:102FD000851983E064017002A3E070337402121D4E
:102FE00053E0F47003A3E0F47025123DB2121F7693
:102FF0007408121D53E0F97409121D53AC82AD839D
:10300000AA0AAB0B1209C47401121D1E022E73759D
:103010000D0202361C8518828519838582088583F6
:10302000097808121F721236AE1206767402121D4B
:103030001EE9F50D600302361C851882851983ACE4
:1030400082AD83AA0AAB0B1205E0022E73851882AB
:103050008519838582088583097808121F72850E79
:1030600082850F83123DD7121F7212363A121D1E2F
:10307000E9F50D600302361C7404121D5312365F0D
:10308000121F727407121D53858208858309780800
:10309000121F727C027D007A467B91123650121DFF
:1030A0001EE9601B7402121D53121F8990047DE0FB
:1030B000F97402121D5312367E1209CA022F3A7495
:1030C00004121D5312365F121F727407121D5385AE
:1030D00082088583097808121F727C027D007A4479
:1030E0007B91123650121D1EE9601B7402121D5393
:1030F000121F8990047DE0F97402121D5312367E6E
:103100001209D0022F3A1236961209E8022E738560
:1031100018828519838582088583097808121F72B1
:103120001236AE12068E7402121D1EE9F50D6003F2
:1031300002361C851882851983AC82AD83AA0AAB3E
:103140000B1205E6022E7385188285198385820885
:103150008583097808121F72850E82850F83123DC0
:10316000D7121F720C0CEFFD7A00790012069A74C8
:1031700004121D1EE9F50D600302361C123696126C
:1031800009E2022E7385188285198385820885835A
:10319000097808121F721236AE1206A67402121DAA
:1031A0001EE9F50D600302361C851882851983AC73
:1031B00082AD83AA0AAB0B1205EC022E738518822E
:1031C0008519838582088583097808121F72850E08
:1031D00082850F83123DD7121F720C0CEFFD7A000F
:1031E00079001206C47404121D1EE9F50D60030275
:1031F000361C1236961209EE022E73851882851936
:10320000838582088583097808121F721236AE12F0
:1032100006D07402121D1EE9F50D600302361C85EE
:103220001882851983AC82AD83AA0AAB0B1205F212
:10323000022E738518828519838582088583097813
:1032400008121F72850E82850F83123DD7121F72DE
:103250000C0CEFFD7A0079001206DC7404121D1EBE
:10326000E9F50D600302361C1236961209F4022E9F
:1032700073851882851983858208858309780812E9
:103280001F721236AE1206E87402121D1EE9F50D09
:10329000600302361C851882851983AC82AD83AA2F
:1032A0000AAB0B1205F8022E7385188285198385E7
:1032B00082108583117810121F72123668121F72E5
:1032C00012363A121D1EE9F50D600302361C740415
:1032D000121D53123656121F727407121D53858227
:1032E0000E85830F780E121F72123648121D1EE9CA
:1032F000700302300F851882851983E06401700223
:10330000A3E0600302300F7402121D53E0F4700357
:10331000A3E0F4600302300F90047DE0F9AA0AAB49
:103320000B1209BE022E73851882851983858208C7
:103330008583097808121F721236AE1206F47402E1
:10334000121D1EE9F50D600302361C8518828519D1
:1033500083AC82AD83AA0AAB0B1205FE022E7385E5
:1033600018828519838582088583097808121F725F
:10337000850E82850F83A3A3A3E024FC123DE112F6
:103380001F72EC2404FCED3400FD8A828B83E0FA8A
:103390008E828F83E0F9123D68121D1EE9F50D60E3
:1033A0000302361C7418121D53E07009123696126F
:1033B0000A06022E737417121D53124600AC82AD1A
:1033C00083AA0AAB0B70061209FA022E73120A00C6
:1033D000022E738518828519838582088583097872
:1033E00008121F721236AE1206B87402121D1EE9C0
:1033F000F50D600302361CAA0AAB0B120604022E5E
:103400007385188285198385820885830978081257
:103410001F72850E82850F83123DD7121F720C0C0E
:10342000EFFD7A0079001207007404121D1EE9F501
:103430000D600302361C900503123DCB700F7A73AA
:103440007B0012030A900503EAF0A3EBF09005035A
:10345000123DCB603D900502E0C39405400302306D
:103460000F851882851983C082C083900502E0759C
:10347000F017A4F8A9F0900503E028FCA3E039FDBB
:10348000D083D0827417121C1B900502E004F00256
:10349000361C750D1302361C8518828519838582AA
:1034A000088583097808121F721236AE12070C7451
:1034B00002121D1EE9F50D600302361C8518828577
:1034C0001983AC82AD83AA0AAB0B12060A022E73D3
:1034D0008518828519838582088583097808121FDB
:1034E00072850E82850F83123DD7121F720C0CEF6E
:1034F000FD7A0179001207187404121D1EE9F50DFA
:10350000600302361C900503123DCB700302300F9E
:10351000123DB2121F767401121D53123DB5121FD7
:1035200076900502E0F990050312367E120A1274B5
:1035300002121D1EE9F50D600A900503123D55FBB0
:10354000120310900503E4F0A3F090050202348EFC
:103550008518828519838582088583097808121F5A
:10356000721236AE12071E7402121D1EE9F50D60AE
:103570000302361CAA0AAB0B120610022E73851822
:10358000828519838582088583097808121F721243
:103590003686121F7212362B121D1EE9F50D707C35
:1035A0008E828F83123699120ADE022E738518825C
:1035B0008519838582088583097808121F7212365F
:1035C00086121F7212362B121D1EE9F50D704D1258
:1035D0003DB2121F768E828F83E0F97401121D5363
:1035E000AC82AD83AA0AAB0B120AD8023007851849
:1035F000828519838582088583097808121F7212D3
:1036000036AE1207307402121D1EE9F50D700DAAB8
:103610000AAB0B1205C8022E73750D01A90D120419
:10362000D87419121D1E7F0A021E310C0C0CEBFD02
:103630007A00790012072A7404220C0CEFFD7A003C
:1036400079001206827404227C027D00AA08AB096C
:1036500012073C740422E0F50E750F00780E22E08C
:10366000F508750900780822850E82850F83A3A3CB
:10367000A3E024FEF50EE434FFF50F780E22123D90
:103680005AAA0AAB0B22850E82850F83A3A3A3E05F
:1036900024FD123DE12290047D1236A1AA0AAB0B53
:1036A00022E0F9851882851983AC82AD8322850ECC
:1036B00082850F83A3A3A3E024FEFCE434FFFD1A5C
:1036C000EFFB2274EA121D5F74E0121D08890E8A56
:1036D000828B83A3A3A3A3E0F508A3E0F5098508E3
:1036E00082F583E0FCA3E0F9EC2400F50CE439F565
:1036F0000DE5082405F512E5093400F513E5082465
:1037000004F510E5093400F511E5082402FEE50989
:103710003400FFE5082403F50AE5093400F50BE55C
:103720000E1220320016026A37045F3806B73708D7
:1037300025380AAC380C28390E6A3910AF371228F0
:103740003A16603A1BB53C1DF63C30DA3732DA37B0
:1037500034EE3836AC3938E9393A1B3B3CF93B3E5C
:103760003B3C407D3C42603A433D7407121D53850B
:1037700082088583097808121F72123DD3121F72C6
:10378000EEFCEFFD7A00790012063A7404121D1E59
:10379000E9F50A6003023D46123DAA121D53AC82B0
:1037A000AD83AA0CAB0D1209B8E9F50A023D461229
:1037B0003D7E1209BE80F2123DB2121F768A828BC4
:1037C00083A3A3A3E024FEF9EEFCEFFDAA0CAB0D4E
:1037D0001209C47401121D1E80CF123D6E7404685C
:1037E0007001E9703A123D9A2400FCE439FD123D63
:1037F00088F508E439F5097430650E780870101200
:103800001F72123D7E1209CA7402121D1E809A1286
:103810001F72123D7E1209D07402121D1E808A751D
:103820000A04023D467407121D53858208858309E8
:103830007808121F72123DD3121F72EEFC12363C32
:10384000121D1EE9F50A6003023D46123DAA121D33
:1038500053AC82AD83AA0CAB0D1209D60237A97402
:1038600007121D538582088583097808121F72127A
:103870003DD3121F72EEFCEFFD7A00790012065262
:103880007404121D1EE9F50A6003023D4674091214
:103890001D53121F8990047DE0F97409121D531203
:1038A0003D5AAA0CAB0D1209DC0238087407121D30
:1038B000538582088583097808121F72123DD3123E
:1038C0001F72EEFCEFFD7A00790012069A74041262
:1038D0001D1EE9F50A6003023D46123DAA121D5362
:1038E000AC82AD83AA0CAB0D1209E20237A97407B2
:1038F000121D538582088583097808121F72123DB4
:10390000D3121F72EEFC12363C121D1EE9F50A603E
:1039100003023D46123DAA121D53AC82AD83AA0C90
:10392000AB0D1209E80237A97407121D53858208EE
:103930008583097808121F72123DD3121F72EEFCA4
:10394000EFFD7A0079001206C47404121D1EE9F519
:103950000A6003023D46123DAA121D53AC82AD839C
:10396000AA0CAB0D1209EE0237A97407121D53857C
:1039700082088583097808121F72123DD3121F72C4
:10398000EEFCEFFD7A0079001206DC7404121D1EB5
:10399000E9F50A6003023D46123DAA121D53AC82AE
:1039A000AD83AA0CAB0D1209F40237A97407121DDE
:1039B000538582088583097808121F72123DD3123D
:1039C0001F72EEFCEFFD7A01123D66121D1EE9F535
:1039D0000A6003023D467407121D53AC82AD83AAF0
:1039E0000CAB0D1209FA0237A97407121D53858218
:1039F000088583097808121F72123DD3121F72EED8
:103A0000FCEFFD7A017901123D68121D1EE9F50AED
:103A10006003023D467407121D53AC82AD83AA0CAD
:103A2000AB0D120A000237A97407121D53858208D4
:103A30008583097808121F72123DD3121F72123D3E
:103A400060121D1EE9F50A6003023D46123DAA12EE
:103A50001D53AC82AD83AA0CAB0D120A060237A926
:103A60008A828B83A3A3A3E0FA24FEF8E434FFF94F
:103A7000C3E89405E99400A2D265D033500302381C
:103A80001F74FA2AF5147404121D53E514F0FA7B1E
:103A90000012030A7405121D53EAF0A3EBF074053B
:103AA000121D53123DCB606D123D9A851882851907
:103AB000831246B2123D88F87402121D531246B1A9
:103AC0007404121D53E0F50A750B00780A121F7278
:103AD000E5082406FCE5093400FD7407121D5312A5
:103AE00045F8121D1E7416650E90047D7008123D77
:103AF000BB120A0C8006123DBB120A2AE9F50AE540
:103B00000A7003023D467405121D53123D55FB1207
:103B10000310023D46750A13023D46123D6EC3E88E
:103B20009401E99400A2D265D033500302381F8E6D
:103B3000828F83E0F50F74FF250FC39405400302C5
:103B40003BF3E50F75F017A4FAABF012030A8A08ED
:103B50008B09AE08AF09EE4F60BB850A08850B09DB
:103B60007510008059850882850983E02404F512C8
:103B7000A3858208858309E51075F017A4F8A9F0DC
:103B8000EE28F50AEF39F50B780A121F7285120A32
:103B9000750B00780A121F72AC08AD097A00790023
:103BA0001207007404121D1EE9F50A6003023D4667
:103BB000E5082512F508E5093400F5090510E510BA
:103BC000C3950F40A0123DB2121F76750801780808
:103BD000121F76A90FEEFCEFFDAA0CAB0D120A1214
:103BE0007402121D1EE9F50A7003023D46EEFAEF5B
:103BF000023B0E750A02023D467407121D53858270
:103C0000088583097808121F72123DD3121F72EEC5
:103C1000FCEFFD7A00790012069A7404121D1EE969
:103C2000F50A6003023D46123DAA121D53AC82AD57
:103C300083AA0CAB0D120A180237A97407121D5380
:103C40008582088583097808121F72123DD3121FDE
:103C500072EEFCEFFD7A0079001206C47404121DA6
:103C60001EE9F50A6003023D46123DAA121D53AC3F
:103C700082AD83AA0CAB0D120A1E0237A97407127B
:103C80001D538582088583097808121F72123DD35F
:103C9000121F72123D60121D1EE9F50A6003023DFB
:103CA00046123DAA121D53AC82AD83AA0CAB0D1275
:103CB0000A240237A97407121D53858208858309D7
:103CC0007808121F728A828B8312368C121F72AC94
:103CD0000AAD0B123630121D1EE9F50A70688E828D
:103CE0008F83123DAD121D53AC82AD83AA0CAB0D78
:103CF000120ADE0237A97407121D538582088583D4
:103D0000097808121F728A828B8312368C121F72F6
:103D1000AC0AAD0B123630121D1EE9F50A702712DF
:103D20003DB2121F768E828F83E0F97408121D5304
:103D3000AC82AD83AA0CAB0D120AD87401121D1E01
:103D40000237A9750A01A90A1204D87420121D1E8F
:103D50007F0E021E31E0FAA3E022E0FCA3E0FD2288
:103D6000EEFCEFFD7A0079001206AC7404228A8220
:103D70008B83A3A3A3E024FEF8E434FFF92290048C
:103D80007DE0F9AA0CAB0D22851082851183E0FA43
:103D9000851282851383E0F9EA228E828F83E0FA0E
:103DA000850A82850B83E0F9EA2290047DE0F974AC
:103DB000072290047DE0F5087808221236A1AA0CAB
:103DC000AB0D22A3A3A3A3A3A3A3A3E0F8A3E0F9AD
:103DD000E849228A828B83A3A3A3E024FE123DE15B
:103DE00022F508E434FFF50978082274EA121D5F11
:103DF00074A5121D088C0C8D0D8A828B83A3A3A33E
:103E0000A3E0FEA3E0FFEE2402F50AEF3400F50B79
:103E10008E828F83A3858208858309E97003023E21
:103E2000B624FD7003023FBB1470030240111470EE
:103E30000302405314700302410014700302415AFC
:103E400014700302417114700302405D1470030288
:103E500040EF14700302417C147003024469147033
:103E6000030245081470030243EC14700302437309
:103E700014700302436A1470030240AD24E170031E
:103E800002447A1470030244AD1470030244F61421
:103E90007003024511147003024584147003024537
:103EA0009B1470030244A81470030245A11470030C
:103EB0000244A80245AB8E828F83E0F5147C107912
:103EC00000AA0AAB0B1202ECE97019750C10750D03
:103ED00000780C121F72AC0AAD0B7AE27B04124F11
:103EE000A7121D1EEE2412F50AEF3400F50B7C100C
:103EF0007900AA0AFB1202ECE97019750C10750D15
:103F000000780C121F72AC0AAD0B7AF27B04124FD0
:103F1000A7121D1EEE24221245CDF50CE4F50DF579
:103F20000EF50FEE2423F582EF124FDA1246181227
:103F30001AF9780C7910121B18EE2424F582EF126E
:103F40004FDA1245ED121AF9780C7910121B18EE9F
:103F50002425F582EF124FDA1245E2121AF9780C95
:103F60007910121B18E50C450D450E450F600890A1
:103F7000047E780C121BE7750A7E750B04780A1212
:103F80001F72750AF2750B04780A121F727CE27DAB
:103F900004850882850983E0FBAA1490047DE0F97A
:103FA0001203707404121D1EE9FE90047DE0FC7D76
:103FB000007A257B001207C00245AD750A00750B1B
:103FC00000740A121D53AC82AD8375839075827A9A
:103FD0007406121C1B750C06F50D780C121F7274FA
:103FE0000C121D53AC82AD83AA08AB091202807477
:103FF00002121D1EE96401600685080A85090BAAE4
:104000000AAB0B8E828F83E0F91207D8E9FE0245D6
:10401000AD90047DE0C0E07410121D53D0E0124654
:104020009DE0C0E07411121D53D0E01246C5C0E0FF
:104030007412121D53D0E0124698E0C0E0741312BF
:104040001D53D0E0F07410121D53AA82AB831207E7
:104050004880B990047DE0F912074E80AF90047D4E
:1040600012460012469DE0C0E07401121D53D0E0DC
:104070001246C5C0E07402121D53D0E01246DCC0E7
:10408000E07403121D53D0E01246D0121F72EEFCF2
:10409000EFFD7406121D53124FA3121D1E851882C8
:1040A000851983AA82AB8312079602400C12460838
:1040B0008518828519831246B7FAA3E0F9EAF874E5
:1040C00002121D531246EB7404121D531246EB7478
:1040D00006121D531246EB7408121D531246B18589
:1040E0001882851983AA82AB831207A202400C12A0
:1040F0004612E439FB90047DE0F912085602400CA8
:104100008E828F831246001246C5C0E07401121DD4
:1041100053D0E01246D0121F72EEFCEFFD74041271
:104120001D53124FA3121D1EEE24061245D7C0E0E8
:104130007408121D53D0E0124698E0C0E0740912D2
:104140001D53D0E0F0851882851983AA82AB839035
:10415000047DE0F91208DA02400CAC0AAD0BE0FB7A
:104160008E828F83E0FA90047DE0F91208E002402D
:104170000C90047DE0F91208E602400C750C007505
:104180000D007C187D0079007414121D53AA82ABB7
:1041900083120286124608F87414121D53E8124660
:1041A000B7C0E07416121D53D0E0124698AE82AF2D
:1041B00083E0C0E07417121D53D0E01246980EAF92
:1041C000837508107509007808121F72EEFCEFFD68
:1041D000741A121D53124FA3121D1E1245D4C0E0B3
:1041E0007428121D53D0E01246DCC0E0742B121D5F
:1041F00053D0E01246A3A30E0EAF83A2E0E433FC3B
:10420000EAA2E15004D2F08002C2F0A2F0E433F856
:10421000EAA2E25004D2F08002C2F0A2F0E433F548
:1042200008EAA2E35004D2F08002C2F0A2F0E43324
:10423000F50A750B00EAA2E45004D2F08002C2F045
:10424000A2F0E433F50E750F00EAA2E55004D2F0B7
:104250008002C2F07429121D53124644121CF5123A
:1042600045B4121CF5EA450A54EFFA7404780E12AC
:104270001CF5EA450E1245BF121CF5EA4508F87414
:1042800029121D531246B18E828F83E0A30EAF8395
:104290007003024357E0C0E0740A121D53D0E012CD
:1042A00046DCC0E0740B121D53D0E01246DCC0E0C7
:1042B000740C121D53D0E01246DCC0E0740D121DC8
:1042C00053D0E01246A3A2E0E433FCEAA2E150049A
:1042D000D2F08002C2F0A2F0E433F8EAA2E2500485
:1042E000D2F08002C2F0A2F0E433F508EAA2E35073
:1042F00004D2F08002C2F0A2F0E433F50AEAA2E4AC
:104300005004D2F08002C2F0A2F0E433F50CEAA22D
:10431000E55004D2F08002C2F0740E121D53124612
:1043200044121CF51245B4121CF5EA450A54EFFA82
:104330007404780C121CF5EA450C1245BF121CF5EA
:10434000EA4508F8740E121D531246B1740A121D84
:104350005385820C85830DAC0CAD0D7414121D5366
:10436000AA82AB8312086202400C12462B12086824
:1043700002400C124662121F72EEFCEFFD744212F4
:104380001D53124FA3121D1E1245D4FAA3E0F9EAE1
:10439000F87450121D531246B11246FE750C08787F
:1043A0000C121F72EEFCEFFD7454121D53124FA33A
:1043B000121D1E8E828F83A3A3A3A3A3A3A3A3E096
:1043C000C0E0745A121D53D0E0F0750B01780B1247
:1043D0001F767441121D53AC82AD83A90AAA08ABA3
:1043E0000912087A7401121D1E02400C1246621254
:1043F0001F72EEFCEFFD742E121D53124FA3121DFF
:104400001E1245D4F50CE4F50EF50FA31246181252
:104410001AF9780C7910121B188E828F83A3A312BD
:1044200045ED121AF9780C7910121B188E828F83C1
:10443000A3A3A31245E2121AF9780C7910121B18E3
:10444000743C121D53E50CF0A3E50DF0A3E50EF04E
:10445000A3E50FF0742C121D53AC82AD83A90AAAF8
:1044600008AB0912085C02400C124612FCE439FD4C
:10447000AA0AAB0B12086E02400C8E828F83E0FA00
:104480007B00850882850983E0FC850A82850B8391
:10449000E0F9EC2400E439FDEA6425600BEA942697
:1044A00050061207C002400C7E020245AD78FF792B
:1044B000FF8E828F83E0FA7B00F46024EA6425603B
:1044C0001FEAC3942650191207C68A088B09A80848
:1044D000A90974FF68700374FF6960047E0080029C
:1044E0007E02850C82850D837402F0E89004B0F0A2
:1044F000E9A3F00245ADEE2410FCEF3400FDEEFA26
:10450000EFFB12083802400C12462B1209580240E9
:104510000CE0F50EF58285820C750D002404FAE49A
:104520003400FB12030A8A088B09EA450960518EA0
:10453000828F83E08A828B83F0A3E50EF0EA240267
:10454000F8EB34000A0AFBE50824040808E50934FE
:1045500000F98A828B831246B1780C121F72AC0A62
:10456000AD0B8A828B831245F8121D1EAA08AB0977
:104570001208ECE9FE6036AA08AB09120310802D80
:104580007E1380298E828F83E0F91208F2EA4B7045
:10459000030244A81203107E0080121208F80240A1
:1045A0000C7E028C828D83E40244F27E01EEF9746B
:1045B0005B023D4DEA450854F7FA7403780A225429
:1045C0001FFAA2F0E433F5087405780822F582EFAB
:1045D0001251EA22EE2410FEEF3400FF8E828F8308
:1045E000E022E0F510E4F5127418781022E0F510DE
:1045F000E4F5117410781022123D55FB12507A2206
:10460000E08518828519832212460C2212468AF907
:10461000EA2212460C240022124620740878102246
:10462000E0F510E4F511F512F51322850A82850BE9
:1046300083E0F98E828F83E0FC850882850983E020
:10464000FBECFA22E054FEFAA3E0FBEA4C54FDFA3C
:10465000E8C333F8EA48F8EBF9E854FBFA74027857
:10466000082212468AF8E4C8F9EA2400F508E43979
:10467000F5090E0EAF0B8E828F83E0F50AA3AE8292
:10468000AF83750C10880D780C228E828F83E0FA30
:10469000850882850983E02212469DA322F08E823E
:1046A0008F832212469DA3E0FA22F985188285198C
:1046B00083E8F0A3E9F022F0A3E9F00E0EAF0B8E31
:1046C000828F83E022F0AE08AF098E828F83E022D2
:1046D0001246E17508067509007808221246E1E0E5
:1046E00022F08E828F83A30EAF8322E8F0A3E9F03D
:1046F0001246FE8E828F83123D55F9EAF822EE248F
:10470000020E0EEF3400FF2274F4121D5F74FE12CD
:104710001D08EAFEEBFF851882851983E4F0F50891
:10472000F50904121D53E4F07C28FDF97A827B041C
:104730001202868E828F83E0245E604324F2605DE5
:104740001470030247CA24E160030247EF740112A8
:104750001D538582088583097808121F727402121E
:104760001D538582088583097808121F727C827D1B
:1047700004EEFAEFFB1204BA7404121D1E806C855D
:1047800018828519838582088583097808121F722B
:104790007C827D04EEFAEFFB1204C08049740112A2
:1047A0001D538582088583097808121F72740212CE
:1047B0001D538582088583097808121F727C827DCB
:1047C00004EEFAEFFB1204C680AE851882851983C9
:1047D0008582088583097808121F727C827D04EE29
:1047E000FAEFFB1204CC7402121D1E8A088B09EE2C
:1047F000FAEFFB120298851882851983E0600AACF3
:1048000008AD09FA79FF120E32E508450960117406
:1048100001121D53E064017007AA08AB09120310CE
:1048200079007402121D1E7F04021E3174E8121DED
:104830005F74FE121D08EAFEEBFF8C088D097510EF
:1048400000750A00750B00EC2406F8ED3400F9EC55
:104850002405FAED3400FBEC2404F516ED3400F5E4
:10486000178C828D83A3858214858315EE2403F52E
:104870000EEF3400F50F8E828F83A385821285831D
:10488000138E828F83A3A3E0121FB6000F7A4FAF5F
:10489000482C49304A444A574A704A234B424BA25B
:1048A0004BC04B664C334CC44EF94E294E324E8CA5
:1048B000828D83E4125146121F72125000121D1E87
:1048C0001251A9C0E0124FD2D0E0F0750A10780A58
:1048D000121F727CE27D04E508240CFA12500A12C1
:1048E0001D1E780A121F727CF27D04E508241CFA52
:1048F00012500A121D1E851282851383E070217CDE
:10490000E27D047A10790212057A7CF27D047A1035
:10491000790312057A7C7E7D047A04790412057A83
:1049200085080A85090B75102C024F7A851282853D
:104930001383E060030249F3850E82850F83E070E4
:10494000030249F333333354F82404124FAB70039A
:104950000249EA8A828B837401F0A37406125126FD
:1049600085128285138312511F850E82850F831253
:10497000511F8E828F83A3A3A3A3E0F8A3E0124666
:10498000AA7E00804E12502912511F125029A312E4
:10499000511F7516067517007816121F72740212D1
:1049A0001D53E02402FCA3E03400FDAA0CAB0D1261
:1049B0004FA7121D1EE50C2406F50CE50D3400F57D
:1049C0000D0E851882851983E02408F8A3E03400D1
:1049D0001246AA850E82850F83E0F8EEC39840A5A3
:1049E000741C121D5312503C80088512828513835B
:1049F0007413F0851282851383E0700C850E828516
:104A00000F83E06003024F7A850882850983740171
:104A10001250F985128285138312555BF085088246
:104A2000850983A3A3A3E4125117751004024F7ADA
:104A30008C828D8374021250EB74061251528C0AD0
:104A40008D0B80E68C828D8374031252398C0A8D13
:104A50000B751005024F7A8C828D8374041250F905
:104A60008E828F8312502212509C751003024F7A4F
:104A70008C828D8374051250EB0412520D121F723A
:104A8000125013121D1E8E828F83A3A3A3A3A3A370
:104A9000A3A3A3A3125560125102C0E0124FD2D0BB
:104AA000E01250C2C0E0E508240C124FD6D0E0F06E
:104AB000124FF9124FDAA3E0C0E0E508240D124FBF
:104AC000D6D0E0F0EE240EF8124FDFC0E0E5082467
:104AD0000E124FD6D0E01250C7E0C0E0E508240F18
:104AE000124FD6D0E0F0EE24100808124FDFC0E0DD
:104AF000E5082410124FD6D0E01250C7E0C0E0E520
:104B0000082411124FD6D0E0F0EE24121245CDC089
:104B1000E0E5082412124FD6D0E012511775101399
:104B2000024F7A8C828D8374061250EB125152120E
:104B300052441250BC8A828B8312509E751006021A
:104B40004F7A8C828D8374071250EB14F085128299
:104B50008513831250231250A4125023A3A3A3122F
:104B600050BC8516828517831250CE8A828B8312A1
:104B700050DF8882898312512F1250F38C828D83EB
:104B8000A3A3A3A3A3A31250A4A3A3A3A3A31250BC
:104B9000221251028C828D83A312509575100B0244
:104BA0004F7A8C828D83740812520A121F7212502F
:104BB00013121D1E85080A85090B75100A024F7A0B
:104BC0008C828D83740912520A121F7212501312B2
:104BD0001D1E8E828F83A3A3A3A3A3A3A3A3A3A31A
:104BE000780C121BD8850882850983A3A3A3A3A3ED
:104BF000A3A3A3A3A3125185121BD8E50DF50CE5C1
:104C000008240B12517D121BD87410780C121AE074
:104C1000E508240C12517D121BD87418780C121A56
:104C2000E0E508240D124FD6E50C12511775100E51
:104C3000024F7A8C828D83740B125146121F7212AE
:104C40005000121D1E1251A9C0E0124FD2D0E01226
:104C500050C2C0E0E508240C124FD6D0E012511724
:104C600075100D024F7A75106A7A6A124FAE700392
:104C7000024DFF741C121D5312503CF07C6A7D00E3
:104C80007900120286850A82850B83740A1251F01C
:104C9000850E82850F831250808E828F83A3A3A3FB
:104CA000A3A312518DF8A3E0F9E849604485088276
:104CB0008509837401125190125195121F728E82D0
:104CC0008F83125069121D1EE5082410124FBB126B
:104CD000504212518D1250D3121F728E828F83A3B5
:104CE000A3A3A3A3A312505A121D1EE508240880F3
:104CF00004E508241C124FE9123DCB60428508826E
:104D000085098374011251DD125195121F72124FE1
:104D1000F9124FDA12506F121D1EE5082410124FBF
:104D2000E91250481251D61250D3121F72124FF985
:104D3000124FDA12505A121D1EE50824088004E5AD
:104D400008241C124FBB123DC360478508828509A9
:104D500083740112519D121F728E828F83125067CD
:104D6000121D1EE5082410F508E5093400F5097543
:104D70000C06780C121F728E828F83A3A3A3A3A3A9
:104D8000A3A3A3E0241012505D121D1EE508240603
:104D90008004E5082417124FCC123DC37003024F64
:104DA0007A850882850983740112519D121F728EC3
:104DB000828F83A3A3125067121D1EE508241012D0
:104DC0004FCCA3A3125042780C121BD812521612C9
:104DD0001BD8E50D85088285098312521E121BD847
:104DE0007410780C121AE0125216121BD87418782C
:104DF0000C121AE0850882850983E50C024F79853B
:104E00000882850983740A1250F98508828509830E
:104E1000A3A37413F0850E82850F8312555BA3F054
:104E2000125244125117024A518C828D83740E0221
:104E30004A4A8C828D83740F1252398E828F83A3DB
:104E4000A3A3A3A3E08A828B831250CE8882898396
:104E50001250DF8C828D83A3A3A3A3A3A3A312511B
:104E60002FA31250F3A2E0E433F50A8E828F83A3BE
:104E7000A3A3A3A3A3A3A3A3E05402600478028086
:104E8000027800124F915404600478048002780084
:104E9000124F9154086004780880027800124F91F4
:104EA00054106004781080027800124F91542060F2
:104EB00004782080027800E8450A8C828D831250A5
:104EC00095024BBA8C828D83740C125239750A0686
:104ED000780A121F72EE2405FCEF3400FD124FA772
:104EE000121D1EEE240B1245CDC0E0124FD2D0E0B1
:104EF00012511775100C024F7AEE240C1245CD2476
:104F00000D124FAB606B8A828B83740D1251F08E41
:104F1000828F83A3A3A3125080750C06750D0078B1
:104F20000C121F72EE2405FCEF3400FDAA08AB0939
:104F3000124FA7121D1EE5082406F508E5093400E6
:104F4000F509EE240BF582EF124FDA1251D6125109
:104F5000D7F50C780C121F72EE240DF582EF124F6C
:104F6000DA12506F121D1E741C121D5312503C8019
:104F7000088512828513837413F0741A121D53125C
:104F8000502FE510F0AA0AAB0B7402121D1E022D61
:104F900010E8420A8E828F83A3A3A3A3A3A3A3A393
:104FA000A3E022AA82AB8312507A22F510FA7B008A
:104FB00012030A8A0A8B0BEA450B22124FBF22F515
:104FC00008E5093400F5098E828F8322124FBFA3B2
:104FD000A322E508240BF582E5093400F58322EFCE
:104FE0003400F988828983E022F508E5093400F568
:104FF00009124FF93400F58322EE240CF582EF22DA
:10500000AC0EAD0FE50824031A1AE5093400FB12B3
:10501000507A22EE2404FCEF3400FD1AAB17125034
:105020007A22A3E08C828D832285188285198312CF
:10503000503322E0F8A3E0F58388822212503374C3
:105040000122A3A3A3A3A3A312504C22E02410F88F
:10505000A3E03400F98882898322E02412FCA3E0D3
:105060003400FD12507622A3A3A3A3A3A3A3A312EB
:105070003D5A12507622AA08AB0912026E7402221F
:1050800012508422A31251CE12508C22F0A385829A
:105090000885830922A3A3A3A3A3A3A3A3A3F08C9E
:1050A0000A8D0B22A3A31250AA221250AE22125034
:1050B000B222F08E828F83A3A3A3A3221250AAA3AD
:1050C000E022F01251E422F088828983A322125058
:1050D000E5E02212504D125084750C08780C221213
:1050E00050E5A3E0221250AEA3A322F085148285DE
:1050F00015832212513AA3E0221250FD2212525778
:10510000F022125108A3E022A3A3A3A3A3A3A3A365
:10511000A312513EA3A322F085080A85090B22E0C1
:10512000850C82850D83F0A385820C85830D221268
:10513000513A125174A3A3A3A32212513E2212503A
:10514000B2A3A3A3A3221250FD125165750A0678DB
:105150000A2212515622F0125165850E82850F8364
:10516000125174F022851282851383E08C828D8324
:10517000A3A3F022E08C828D83A3A3A322F582E572
:10518000093400F583E50C125111780C221251CA32
:1051900012522BE022241A12504F1251CA12508878
:1051A000750C10750D00780C228E828F83A3A3A33B
:1051B000A3A3A3A3A3A31251CA125108125576A305
:1051C000A3A3F0EE240B1251E7221251CE22E08568
:1051D000088285098322E085088285098312508828
:1051E0001251E422EE240CF582EF3400F583E02224
:1051F000F0A374061250888512828513831250859D
:10520000850E82850F8312508522125253125156F9
:10521000750A06780A22850882850983E50C1252F0
:105220002BA3A3A3A312504C780C2212508C8E8275
:105230008F83A3A3A3A3A3A32212525312515612E6
:105240005244F022850E82850F83A3E08516828565
:1052500017832212525722F0851482851583740613
:105260002274EE121D5FEAFEEBFF8C088D097412AA
:10527000121D53E0F510A3E0F511EE2405F50CEF37
:105280003400F50D8E828F83A385820A85830B8E71
:10529000828F83A3A3121F89850A82850B83E0F97D
:1052A000850C82850D83E04480FC7D04AA08AB094F
:1052B0001204D27402121D1EE9F50E850A82850BB6
:1052C00083E0703A890AE508250AFAE5093400FB0B
:1052D000EE2406FCEF3400FD850C82850D83E0147E
:1052E000600A24F6600B24F8600C8012120EDA803B
:1052F00008120EF28003120F04EA250EF50E851037
:1053000082851183E50EF0AA08AB0902362674EEF9
:10531000121D5F8A088B09ECFEEDFF7412121D53FB
:10532000E0F510A3E0F5117414121D531254AB757F
:105330000C00E4F0EA2404F50EEB3400F50F8A8249
:105340008B83A385820A85830BE06003025464EE9D
:105350002406FAEF3400FBE5082405FCE5093400D7
:10536000FD850E82850F83E014605714605A146027
:105370005D14606014606314606614606814606A91
:1053800014606C14606E1460701460721460741495
:10539000607614607814605214607714607924FC8D
:1053A000700302544F1470030254541470030254D7
:1053B0005924FD700302545E24FE700302545E0201
:1053C0005464120628025461120634025461120613
:1053D0004002546112064C02546112065802546194
:1053E000120664807C120670807712067C8072122E
:1053F0000688806D12069480681206A080631206EB
:10540000BE805E1206CA80591206D680541206E289
:10541000804F1206EE804AE508241CF582E5091249
:1054200045D08A828B83F0E508241DF582E50912B8
:1054300045D08E828F83A3A3A3A3A3A3A3F0EE24BE
:10544000080A0AEF3400FB1206B2EA2402801312A3
:1054500006FA800D12070680081207128003120751
:1054600024EAF50C850882850983A3A3121F898588
:105470000A82850B83E0F9850E82850F83E0FC7D2F
:1054800005EEFAEFFB1204D27402121D1E8E828FFB
:1054900083A3A3A3A3A3E50CF07406250C851082B7
:1054A000851183F0EEFAEFFB023626E0F8A3E0F96F
:1054B000888289832274F2121D5F8C088D09740E14
:1054C000121D53E0FEA3E0FF750A00EA2404F8EB86
:1054D0003400F9E8FCE9FD8A828B83A3A882A983C2
:1054E000E070268C828D83E0701FEA240512554EF1
:1054F0001251CA125569F0EA240712554E12555B33
:10550000125569A3A3F0750A048A828B83A3A312A0
:105510001F8988828983E0F98C828D83E04480FC36
:105520007D05AA08AB091204D27402121D1E85085B
:1055300082850983A3A3A3A3A3E50AF07406250A21
:105540008E828F83F0AA08AB097F06021E31F50A0E
:10555000EB3400F50B850A82F58322125560A322F5
:10556000125564221251CEA322A3A3A3A3A3A31274
:10557000558012557622125564A3A3A3A3A3A32298
:10558000F0850A82850B83A32274F7121D5FE9FE62
:105590007409121D53E0F8A3E0F9EC8A828B83F0C2
:1055A000EDA3F0EE8A828B83A3A3F0E88A828B833B
:1055B000A3A3A3F0E98A828B83A3A3A3A3F0790515
:1055C000022979E924FC600D14600E24F96012248C
:1055D000FD600A800E7940800A7941800679428018
:1055E00002794302012274F4121D5FE990076EF004
:1055F000121498907800E0C4540F540764037004A8
:10560000793F8002797F7508067509007808121FB6
:10561000727C5C7D077AEA7B071203AC7402121D70
:105620001E90075CE0F47049A3E0F47044A3E0F43A
:10563000703FA3E0F4703AA3E0F47035A3E0F47097
:105640003090780EE090075CF090780FE090075D66
:10565000F0907810E090075EF0907811E090075F8E
:10566000F0907812E0900760F0907813E090076176
:10567000F09007621257CB127A8890078C7406F06C
:10568000A3740D1264107432F0A37401F0900AC375
:105690001257CB900AC2E4F0900AC9F0A374A0128A
:1056A00064107403F0A37407126410742812641059
:1056B00004F0A3E4F0900AF2F0900B181257CB908C
:1056C0000B17E4F0900B1E041264101257B9E4F0AB
:1056D000A304F0A312641012640EF0900B2F125763
:1056E000CB900B2EE4F0900B3504F0A3E41257B9E5
:1056F00012640EF0A37405F0900B3F74FFF0A3E466
:10570000F0900B41F0900B4304F0121198120F8EA1
:1057100012143E79017A447B0B1212E2900B44E0A2
:1057200075F01484E5F004F0790C7A657B0B1212A5
:10573000E21213067A0090076EE0F91203229078C5
:1057400003E06442705E900B44E014F07056C2AF08
:1057500012575300782AD0E0F618D0E0F6E59F54AF
:1057600007F9700590912280039091267808121B0A
:10577000D8E9C4C0E07829E65508F50808E65509D7
:10578000F509740B7808121CE6D0E02508F8906241
:1057900070E0A2E740F8E8C333906272F090627064
:1057A000E0D2E0F0900799E4F0A3F07A80FB900754
:1057B0006EE0F91202C80267BC1257C21257C2F05B
:1057C000A322F0A37480F0A374022274FF125B2959
:1057D000F0A3F02274F6121D5FEAFEEBFFEEA2E0EA
:1057E0005043900770E0C39480E0500FC333F8E457
:1057F00033F974C928F5827411800EF4C333F8E4C8
:1058000033F974D728F582741139F58312705D125B
:105810001D5D7A0090076EE0F9120322EE6401FA32
:10582000EFFB0259F054086045900B3D125A487541
:1058300008007808121F76125A1E121CE678081209
:105840001F72EA24301259F3121F89125A2F121FA5
:10585000727508B275090A7808121F72900AB1E0D1
:10586000FD7C00125A06121D1EEE640880B1EE5433
:1058700010603E7508007808121F76E4F509780874
:10588000121F727808121F727808121F727508B200
:1058900075090A7808121F72900AB1E0FD7C007A3F
:1058A000007B007902125A18121D1EEE6410025875
:1058B0001FEE540260367508007808121F76E4F572
:1058C000097808121F727808121F727808121F7266
:1058D0007508B275090A7808121F721259FA793CD4
:1058E000125A18121D1EEE640202581FEE54046074
:1058F0004E90079D125A48EA242AF582EB12704F07
:10590000F5087808121F76125A1E121CE678081243
:105910001F72EA24201259F3121F89125A2F121FE4
:10592000727508B275090A7808121F72900AB1E000
:10593000FD7C01125A06121D1EEE640402581FEE71
:10594000544060367508007808121F76E4F509782F
:1059500008121F727808121F727808121F727508D9
:10596000B275090A7808121F721259FA793B125A55
:1059700018121D1EEE644002581FEE5480602279FA
:105980000012031C9090D6121F857A007B019007AD
:105990006EE0F91203407404121D1EEE648002587A
:1059A0001FEF5401600D790112031CEEFAEF640140
:1059B000025821900775E064017031EE5420602C8C
:1059C00090076FE024F9600314701B793F90079DE6
:1059D000E0FA75F006A4CAA8F028FB749F2AFA74AE
:1059E000073BFB121294EE642002581F7A007B00E2
:1059F000026838F582EB1273C522900AB1E0FD7C93
:105A0000017A007B00228A828B83A3A3A3A3E0FAFE
:105A10007B007900125A1822120E3E740922EA24E1
:105A200032F582EB1273C512703D7404780822EAD5
:105A3000242EF582EB12757DF508A3E0C313F5095A
:105A4000E50813F508780822E0F875F006A4C8AA5E
:105A5000F0125A55222AF9749F28FA740739FB224A
:105A6000C082C083C2AF121474E5E170FC75E1011D
:105A70001264951214B0790712156A790112157023
:105A800079021214DA12151012154C790012155EF3
:105A9000790112155E9090DA121BF61214C2900A68
:105AA000B1E41257CDA3F0900AC9F0A3F0A3F0908F
:105AB0000ACD7407F0900ACC7403F0900AD2E4F097
:105AC000900AD1F0900AF2F0900B1FF0900B36F094
:105AD00012127C1213A81212A07900121576900AE5
:105AE000B874FF125B29741FF0906012E4F0A3F009
:105AF000906063F075210090076FF0900771F0A33C
:105B0000F0900ABDF0900ABE04F0900ABFE4F09055
:105B10000774F090077504F090078B7403F0900BF6
:105B200042E4F0D2AFF9027738F0A3F0A3F0A3F08B
