:020000040800F2
:10000000304D002001010008090100080B01000823
:100010000D0100080F010008110100080000000098
:1000200000000000000000000000000013010008B4
:100030001501000800000000170100081901000860
:100040001B0100081B0100081B0100081B01000820
:100050001B0100081B010008411400081B010008D7
:100060001B0100081B0100081B0100081B01000800
:100070001B0100081B0100081B0100081B010008F0
:100080001B0100081B0100081B0100081B010008E0
:100090001B0100081B0100081B010008791400085F
:1000A0001B0100081B0100081B0100081B010008C0
:1000B000E53700081B0100081D3800081B01000877
:1000C0001B0100081B0100081B0100081B010008A0
:1000D0001B0100081B0100081B0100081B01000890
:1000E0001B0100081B0100081B010008DFF80CD0F1
:1000F00000F040FD004800477D790008304D0020A9
:100100000648804706480047FEE7FEE7FEE7FEE7B1
:10011000FEE7FEE7FEE7FEE7FEE7FEE7F53600084E
:10012000ED0000082DE9F05F0546002092469B4651
:1001300088460646814640241BE0284641464746FD
:10014000224600F029FB53465A46C01A914110D36B
:1001500011461846224600F010FB2D1A67EB0108E5
:100160004F4622460120002100F007FB17EB000953
:100170004E41201EA4F10104DFDC484631462A46E8
:100180004346BDE8F09F2DE9F0410024061B2546BB
:1001900071F1000605DA01240027D0EB070067EBB8
:1001A0000101161E73F1000605DA0027D2EB0702E3
:1001B000012567EB0303FFF7B5FF86460E4617469A
:1001C0009C46AC4204D00025D0EB050E65EB010641
:1001D00024B10020D2EB000760EB030C70463146DF
:1001E0003A466346BDE8F08140EA01039B0703D02D
:1001F00009E008C9121F08C0042AFAD203E011F866
:10020000013B00F8013B521EF9D27047D2B201E027
:1002100000F8012B491EFBD270470022F6E710B50B
:1002200013460A4604461946FFF7F0FF204610BD64
:1002300030B504460020034600E05B1C934203D225
:10024000E05CCD5C401BF8D030BDF0B480EA010228
:10025000D40F4200B2EB410F02D2024608461146CB
:100260004A0042D0C30DDDB2C1F3C752AD1A202DF2
:1002700035DAC1F3160141F4000204B15242C5F16E
:10028000200602FA06F12A411044B3EBD05F23D0D6
:10029000C4B1012DA0EBC35009DCF0BC4FF000420B
:1002A00002EAC352DBB200F5000000F08EBA400053
:1002B00000F1807000EBC350A0F1807040EAD17073
:1002C000490009E0490841EAC071A0EBC35000F5BC
:1002D0000000400800EBC350F0BC00F06DBA614272
:1002E000012202EB4101001BF6E7F0BC704781F0F0
:1002F0000041AAE780F00040A7E780EA010210B5BC
:1003000002F00043400022D04A001FD0010E01EB52
:100310001261C0F35600C2F3560240F4000042F4EA
:100320000002A0FB022000047F39140400D0401C0E
:1003300050EA124001D44000491EC2B20C0604EB40
:10034000D010401C4008802A02D003E0002010BDDD
:1003500020F00100002900DA0020184310BD30B45D
:1003600080EA010202F0004530F0004221F0004036
:1003700013D090B1C30DD40DC2F31601C0F3160013
:10038000E41A41F4000140F400027D34914201D3AB
:10039000641C00E04900002C02DA30BC00207047E9
:1003A0004FF400000023914201D3891A034340080F
:1003B0004FEA4101F7D151B1914202D14FF00041D2
:1003C00005E002D24FF0010101E06FF0010103EB03
:1003D000C450284430BC00F0EFB92DE9FE4F81EA4B
:1003E000030404F0004421F0004100944FF0000B9E
:1003F00023F0004350EA01045ED052EA03045BD0CC
:10040000C3F30A54C1F30A552C44A4F2F334019403
:10041000A0FB0254C1F3130141F48011C3F3130391
:1004200043F4801301FB024400FB034E840A970A45
:1004300044EA815447EA8357A4FB076802958D0A72
:1004400005FB07854FEA932C04FB0C542705029DFE
:100450004FEA065847EA1637B5EB08056EEB070C6E
:10046000870E920E47EA811742EA8312A7FB020128
:10047000B6EB0B0164EB00042B0D43EA0C335E1862
:1004800044EB1C50DA465146E7FB0201C5F3130466
:100490004FEA0B3343EA14534FEA0432019C43EA18
:1004A0000603A4F10C040294009CCDE900B400F012
:1004B000C9F903B0BDE8F08F00200146F9E72DE946
:1004C000F04D81EA030404F0004B21F0004514468E
:1004D0004FF0000A23F0004150EA050220D054EA10
:1004E00001021DD0C5F30A570246C5F31303C1F339
:1004F0001300C1F30A5640F4801543F48013A7EBB0
:100500000608101BD64608F2FD3873EB050002D32F
:1005100008F1010801E092185B41B8F1000F03DA1D
:1005200000200146BDE8F08D00204FF48011064602
:1005300084460EE0171B73EB050705D3121B63EB14
:10054000050306434CEA010C49084FEA30009218B3
:100550005B4150EA0107EDD152EA030012D082EA72
:10056000040083EA0501084305D0101BAB4106D205
:100570000122002306E000224FF0004302E06FF06A
:10058000010253101AEB06004CEB085110EB0A0065
:1005900041EB0B01BDE8F04D00F045B9002801DB4F
:1005A000C0F10040002901DBC1F10041814201D8C6
:1005B0000120704700207047002801DBC0F1004097
:1005C000002901DBC1F10041814201D201207047C5
:1005D00000207047002801DBC0F10040002901DB4A
:1005E000C1F10041814201D30120704700207047D2
:1005F000002801DBC0F10040002901DBC1F100410E
:10060000814201D1012070470020704730B5041E9F
:1006100071F1000404DB4FF00044404264EB01013F
:10062000141E73F1000405DB1C464FF000435242D8
:1006300063EB0403801A994101D3012030BD0020EF
:1006400030BDC10F80EAE0700844CA07962300213C
:1006500000F0BBB896230022114600F0B6B80EB5E4
:10066000C10F80EAE0700844CA07002140F233431A
:100670008DE80E000A460B4600F0E4F803B000BD1A
:1006800000F0004220F00040C10DC0F3160040F41D
:1006900000007F2901DA00207047962903DCC1F1B0
:1006A0009601C84001E096398840002AF4D04042C3
:1006B000704770B5C1F30A5201F000450024C1F340
:1006C000130140F2FF3341F480119A4201DA002015
:1006D00070BD40F233439A42A2F2334203DC5242ED
:1006E00000F05AF800E090402C43F1D0404270BD39
:1006F00000F0004230F000400AD0C10D01F56071F9
:10070000C0F3160042EA0151C20840071143704786
:1007100000200146704701F0004330B421F0004151
:1007200050EA010206D00A0DA2F56072C1F313016E
:10073000002A02DC30BC00207047440F44EAC104A8
:10074000C100E01830BC00EBC25000F035B830B545
:100750000B46014600202022012409E021FA02F57F
:100760009D4205D303FA02F5491B04FA02F5284419
:10077000151EA2F10102F1DC30BD202A04DB203A73
:1007800000FA02F1002070479140C2F1200320FAE4
:1007900003F3194390407047202A04DB203A21FAE2
:1007A00002F00021704721FA02F3D040C2F120028A
:1007B00091400843194670470029A8BF7047401C64
:1007C000490008BF20F00100704710B4B0FA80FC67
:1007D00000FA0CF050EA010404BF10BC704749B1A4
:1007E000CCF1200421FA04F411FA0CF118BF012114
:1007F00021430843A3EB0C01CB1D4FEA00614FEAF4
:10080000102042BF002010BC704700EBC3501044C2
:100810000029A4BF10BC7047401C490008BF20F04D
:10082000010010BC704710B5141E73F1000408DA03
:10083000401C41F1000192185B411A4301D120F0A4
:10084000010010BD2DE9F04D92469B4611B1B1FA61
:1008500081F202E0B0FA80F220329046FFF78DFF7D
:1008600004460F4640EA0A0041EA0B0153465A4645
:10087000084313D0114653EA010019D0C8F14002D1
:100880005046FFF789FF05460E46504659464246F8
:10089000FFF773FF084305D0012004E020463946E6
:1008A000BDE8F08D0020054346EAE0762C4337434F
:1008B0000A986305E40AA0EB08000022FD0A44EA56
:1008C00047540A3002D500200146E9E70105101916
:1008D0006941DDE9084500196941BDE8F04DA2E72D
:1008E0002DE9FE4F804681EA0300C00F0C460090C0
:1008F00021F0004123F00045B8EB0200A94105D2E8
:100900004046214690461C460B46024623F00040D6
:10091000104347D0270DC7F30A00C3F30A510290D2
:10092000401A019040286BDAC3F3130040F4801B97
:100930000098924620B10023D2EB030A63EB0B0B25
:1009400001985946C0F140025046FFF716FF06468F
:100950000D4650465946019A00F024F910EB080064
:100960006141002487EA115284EAE7731A4340D0B8
:10097000009A62B3019A012A4FEA075215DC001B64
:1009800061EB02014FF0004202EA0752CDE900425A
:10099000001C41F5801132462B46FFF753FF03B090
:1009A000BDE8F08F40462146F9E7001B61EB0201EC
:1009B000001C41F5801300185B412018A2F50017B8
:1009C00047EB030140EAD570B6196D4111E06D089F
:1009D0004FEA360645EAC0754FEA0752001B61EB45
:1009E0000201001C41F5801149084FEA300000194E
:1009F000514132462B4603B0BDE8F04FFFF713BF1D
:100A00000098012240000023D0EB020263EBE07368
:100A1000009821464FEAE074B8EB000061EB040156
:100A2000E9E783F000435BE781F0004158E770B5E8
:100A300021F0004303430CD0C1F30A550024D5EB49
:100A4000040564EB0403D617AD1AB34102DB0020A2
:100A5000014670BD201841EB025170BD2DE9F041F7
:100A6000054621F000400C46284309D0C4F30A5043
:100A700040F23341884205DD28462146BDE8F08139
:100A80002846FBE740F2FE31884210DC0CDB4FEADF
:100A9000043040EA155050EA053105D0104804F002
:100AA000004101430020E9E700200146E6E7A0F20B
:100AB00033404642C6F1400228462146FFF75DFE1C
:100AC00007468846284621463246FFF765FE4346DC
:100AD0003A46FFF7A8FE3246BDE8F041FFF74DBEAB
:100AE0000000F03FC1F30A52C1F3130140F2FF339B
:100AF00041F480119A4202DA00200146704740F228
:100B000033439A42A2F2334202DC5242FFF744BE20
:100B1000FFF733BE30B5041E71F1000404DB4FF063
:100B20000044404264EB0101141E73F1000405DB34
:100B30001C464FF00043524263EB04038B4208BF54
:100B4000824230BD30B5041E71F1000404DB4FF069
:100B50000044404264EB0101141E73F1000405DB04
:100B60001C464FF00043524263EB0403994208BF16
:100B7000904230BD1CB509480090094801900546D7
:100B8000009C06E0E06840F0010394E80700984705
:100B90001034AC42F6D3FFF7ADFA000098E4000839
:100BA000B8E40008202A06DBCB17203A41FA02F00D
:100BB00043EAE07306E041FA02F3D040C2F12002BA
:100BC00091400843194670472DE9F04D00231A461D
:100BD0001B1A8A4103DB00200146BDE8F08DC1F3FA
:100BE0000A52C1F3130141F480154FF0000BD107F5
:100BF00002D100186D41521E0027044640F2FF1139
:100C0000384601EB620A3E468046024600204FF419
:100C10008011FFF7C1FDC2197141BB1846EB0100FD
:100C2000B4EB030C75EB000C04D3E41A65EB000580
:100C300017460E46241908F101006D4180463428FC
:100C4000E3DDF91946EB0600091BA84103D24FF07A
:100C5000FF32134601E0002213461BEB070046EB70
:100C60000A51BDE8F04DFFF7DEBD000080B542F24D
:100C70000040C4F2010000F015F880BD82B0019080
:100C80000091009830B1FFE70199886840F00100B9
:100C9000886005E00199886820F001008860FFE71E
:100CA00002B0704780B584B00390039842F20041CF
:100CB000C4F2010188420BD1FFE74FF400700290AB
:100CC000012102F055FA0298002102F051FA27E0C2
:100CD000039842F60001C4F2010188420BD1FFE7FC
:100CE0004FF480600190012102F042FA0198002146
:100CF00002F03EFA13E0039843F60041C4F201010A
:100D000088420BD1FFE74FF400400090012102F030
:100D10002FFA0098002102F02BFAFFE7FFE7FFE728
:100D200004B080BD82B001900020009001988068DE
:100D30004007002803D5FFE70120009002E00020D3
:100D40000090FFE7009802B07047000081B000906B
:100D50000098C06C80B201B07047000083B0029070
:100D60008DF8071000200090029800689DF8071089
:100D7000084203D0FFE70120009002E0002000902D
:100D8000FFE7009803B0704782B001900020009008
:100D9000019880680007002803D5FFE70120009034
:100DA00002E000200090FFE7009802B070470000CA
:100DB00084B003900291002001908DF80300039805
:100DC0004068019001984FF6FF61CFF6F07108403E
:100DD000019002990868496840EA01210198084396
:100DE00001900198039948600398806801900198E8
:100DF0004FF2FD71CFF6F1710840019002988168C1
:100E0000C2680069104340EA41010198084301901B
:100E10000198039988600398C06A0190019820F4B2
:100E2000700001900298007D411E9DF80300084368
:100E30008DF803009DF80310019840EA01500190DD
:100E400001980399C86204B07047000080B590B063
:100E5000002003908DF83E008DF83D0005A8282164
:100E6000FFF7DBF903980490FFE704980021FFF7F0
:100E7000BFFB01460120029059B9FFE70498002109
:100E8000C4F22011FFF7A6FB002818BF0120029032
:100E9000FFE70298C007002800F08F80FFE740F2CC
:100EA0004001C2F200010020086004909DF83D005E
:100EB0000A2804DBFFE7FF208DF83F0081E00020D7
:100EC0008DF83E00FFE79DF83E0009280EDCFFE7A5
:100ED00000F07CF89DF83E2005A941F82200FFE7CC
:100EE0009DF83E0001308DF83E00ECE700208DF8C3
:100EF0003E00FFE79DF83E00092813DCFFE79DF860
:100F00003E1005A850F8212040F24001C2F2000135
:100F1000086810440860FFE79DF83E0001308DF836
:100F20003E00E7E740F24000C2F200000190006896
:100F300046F26761C6F2666180FB0101881000EB32
:100F4000D170FFF78CFB0AF0EFFBFFF7B2FB0199C2
:100F5000086000208DF83E00FFE79DF83E0009285C
:100F60001EDCFFE740F24000C2F2000000689DF87E
:100F70003E2005A951F82210401AFFF762FB0146F6
:100F8000049800900846FFF7B8F90099FFF75DF95B
:100F90000490FFE79DF83E0001308DF83E00DCE74D
:100FA00004980021C4F22011FFF7D9F904909DF8AC
:100FB0003D0001308DF83D0057E700208DF83F00DF
:100FC000FFE79DF93F0010B080BD000080B542F200
:100FD0000040C4F20100012100F034F9FFE742F2C1
:100FE0000040C4F201000221FFF7B8FE08B9FFE794
:100FF000F5E742F20040C4F20100FFF7A7FE80BD12
:1010000080B58CB04FF402700121019102F096F886
:101010000220ADF82400002000900B9003200A90DD
:1010200040F60040C4F2010009A900F08DFB4FF426
:10103000004002F053F800990198039107914FF492
:1010400060220692059104918DF8200042F2004042
:10105000C4F20100029003A9FFF7AAFE019A0298C8
:101060000921072300F026F801990298FFF706FEF0
:10107000029800F0DDF8FFE742F20040C4F2010000
:10108000FFF782FE012801D1FFE7F5E742F20040B9
:10109000C4F2010000F0EAF8FFE742F20040C4F2B7
:1010A0000100FFF73FFE012801D1FFE7F5E70CB093
:1010B00080BD000084B003908DF80B108DF80A20DD
:1010C0008DF809300020019000909DF80B000A284F
:1010D00021DBFFE70398C06801909DF80B0000EB4F
:1010E0004000A0F11E01072088400090009901985F
:1010F000884301909DF809009DF80B1001EB410118
:101100001E39884000900099019808430190019889
:101110000399C8601DE00398006901909DF80B00D9
:1011200000EB400107208840009000990198884317
:1011300001909DF809009DF80B1001EB41018840DA
:101140000090009901980843019001980399086163
:10115000FFE79DF80A00062820DCFFE70398406BB4
:1011600001909DF80A0000EB8000411F1F2088407D
:10117000009000990198884301909DF80B009DF81C
:101180000A1001EB8101053988400090009901980F
:101190000843019001980399486347E09DF80A00CD
:1011A0000C2821DCFFE70398006B01909DF80A00F2
:1011B00000EB8000A0F123011F20884000900099DF
:1011C0000198884301909DF80B009DF80A1001EBEF
:1011D00081012339884000900099019808430190CB
:1011E00001980399086320E00398C06A01909DF874
:1011F0000A0000EB8000A0F141011F208840009010
:1012000000990198884301909DF80B009DF80A1001
:1012100001EB810141398840009000990198084311
:10122000019001980399C862FFE7FFE704B0704797
:1012300081B000900099886840F00800886001B093
:101240007047000082B001900091009830B1FFE734
:101250000199886840F4A000886005E001998868D9
:1012600020F4A0008860FFE702B0704781B00090D2
:101270000099886840F00400886001B07047000061
:1012800080B592B0042004900121039101F056FF33
:101290000399049801F038FF0398ADF83C0048200A
:1012A000119003200090109040F60000C4F201005D
:1012B0000FA900F049FA039808900B9000200190C4
:1012C000099010200A9008A800F04EF900980399A0
:1012D00006228DF8182007918DF819008DF81A0054
:1012E00006A8059001F098FE019840F60F61ADF850
:1012F0003210ADF834001321ADF83610ADF83800D7
:1013000040F60000C4F2000002900DF1320102F03C
:1013100073FC0298039902F01FFB0298039A11468E
:1013200002F076FB4FF4A06001F0CAFE039A049924
:1013300005981E238DF8183007928DF819108DF836
:101340001A1001F069FE4CF63870C0F6000008F083
:10135000EBFF40F24401C2F2000141F26930C0F6F5
:101360000000486012B080BD40F24401C2F20001AA
:10137000002008607047000080B582B040F24C0049
:10138000C2F200000068019020B1FFE70198012837
:101390000DD019E040F24C01C2F2000101200860BA
:1013A0004CF6D340C0F6000008F0BEFF0CE040F25F
:1013B0004C01C2F20001002008604CF6C440C0F6A7
:1013C000000008F0B1FFFFE702B080BD80B582B039
:1013D0000190FFE70198411E019128B1FFE74FF40A
:1013E0007A7000F003F8F5E702B080BD81B000909C
:1013F000009800EBC000C0004EF21401CEF20001D4
:1014000008604EF21801CEF20001002008604EF292
:101410001001CEF2000105200860FFE74EF2100037
:10142000CEF200000068C003002801D4FFE7F5E712
:101430004EF21001CEF200010420086001B07047A6
:1014400080B5012000F06EF8012813D1FFE740F2CB
:101450004400C2F20000006840B9FFE740F6000017
:10146000C4F20000012102F08FFAFFE7012000F032
:101470004FF8FFE780BD000080B582B0202000F06B
:1014800051F8012821D1FFE740F25400C2F20000D8
:101490000190007800F0CAFB0198017801310170D9
:1014A000007896280DDBFFE740F25401C2F20001FC
:1014B0000020087040F25800C2F2000080688047A7
:1014C000FFE7202000F024F8FFE7802000F02AF852
:1014D00001281AD1FFE740F68060C2F200000068E0
:1014E00018B9FFE701F004FC0BE040F68060C2F29F
:1014F00000000068012803D1FFE701F069FBFFE766
:10150000FFE7802000F004F8FFE702B080BD000094
:1015100081B00090009840F21441C4F201010860CB
:1015200001B0704783B0029000200190009040F21B
:101530000040C4F20100006802990840009040F2A7
:101540001440C4F2010000680299084206D0FFE787
:10155000009818B1FFE70120019002E000200190FF
:10156000FFE7019803B0704782B00190002000901F
:1015700040F20040C4F2010000900198C0680028C9
:1015800059D0FFE70198026840F20041C4F201011E
:101590000868904308600198026840F20441C4F270
:1015A0000101086890430860019841680098084468
:1015B000009001980268009908681043086001983B
:1015C000026840F20841C4F20101086890430860D3
:1015D0000198026840F20C41C4F20101086890438E
:1015E000086001988068102813D1FFE7019802680D
:1015F00040F20841C4F201010868104308600198F4
:10160000026840F20C41C4F201010868104308600E
:1016100010E040F20040C4F201000090019881689F
:1016200000980844009001980268009908681043E7
:101630000860FFE70BE001984168009808440090BB
:10164000019802680099086890430860FFE702B0BB
:101650007047000040F20041C4F20101086840F008
:10166000010008607047000040F20041C4F201012F
:10167000086820F0010008607047000080B586B05F
:1016800068200190019808F031F90490049818B985
:10169000FFE70020059029E004983030039003987C
:1016A0001C30029004991A20C861049946F2310056
:1016B000C0F600004860049945F6C970C0F6000005
:1016C0008860039901200876029900200876049822
:1016D000039905F011FA049908620498029905F03B
:1016E0000BFA0499486204980590FFE7059806B044
:1016F00080BD000082B08DF807008DF80610002034
:1017000000909DF8060000F0030081000F20884043
:101710000090009B9DF8060000F0FC010822C4F236
:1017200001028858984388509DF807109DF80600DC
:1017300000F003039B0001FA03F300F0FC0188585A
:101740001843885002B0704788B007900691002077
:101750000590049003900290019000900698806894
:1017600000F00F0005900698007AC006002806D504
:10177000FFE706984168059808430590FFE706983B
:10178000007800284BD0FFE7079800680190002000
:101790000390FFE7039807283DD8FFE7039901204E
:1017A00088400290069800880299084004900498A6
:1017B000029988422AD1FFE703988000029002999B
:1017C0000F20884000900099019888430190059867
:1017D000029900FA01F10198084301900698806887
:1017E000282806D1FFE7039901208840079948611E
:1017F0000BE006988068482806D1FFE7039901208E
:10180000884007990861FFE7FFE7FFE7FFE70398D4
:1018100001300390BEE7019807990860FFE706983A
:101820000088B0F5807F50DBFFE7079840680190A3
:1018300000200390FFE70398072842D8FFE70398AA
:1018400000F1080101208840029006980088029962
:10185000084004900498029988422DD1FFE703982C
:101860008000029002990F20884000900099019812
:10187000884301900598029900FA01F10198084304
:10188000019006988068282808D1FFE7039800F1A6
:1018900008010120884007994861FFE706988068A1
:1018A000482808D1FFE7039800F10801012088408B
:1018B00007990861FFE7FFE7FFE70398013003900E
:1018C000B9E7019807994860FFE708B07047000042
:1018D00082B00190ADF8021000208DF8010001984F
:1018E0008068BDF80210084204D0FFE701208DF89F
:1018F000010003E000208DF80100FFE79DF80100E2
:1019000002B0704782B00190ADF80210BDF802003D
:101910000199086102B0704783B00290ADF80610DB
:101920000092009828B1FFE7BDF80600029908610F
:1019300004E0BDF8060002994861FFE703B0704774
:1019400080B586B008200121029101F0F7FB142038
:101950000590C020ADF80C000320049040F6004034
:10196000C4F20100019003A9FFF7EEFE0198029A6C
:101970008021FFF7D1FF0198029A4021FFF7CCFFA9
:1019800006B080BD80B582B000208DF8070040F61B
:101990000040C4F201008021FFF79AFF8DF8070094
:1019A0009DF8070002B080BD80B582B00120009094
:1019B00000F0A8F8009800F093F8FFF7E3FF8DF827
:1019C0000700002000F08CF89DF8070002B080BDF1
:1019D00080B582B0002000908DF807008DF80600D9
:1019E000012000F08FF800988DF80700FFE79DF8C0
:1019F000070007281DDCFFE7012000F071F8FFF762
:101A0000C1FF01280BD1FFE79DF80710802020FAC5
:101A100001F19DF8060008438DF80600FFE700205D
:101A200000F05EF8FFE79DF8070001308DF8070031
:101A3000DDE79DF8060002B080BD000080B582B0F1
:101A40008DF807009DF8070000F05CF8012000F019
:101A500047F8002000F044F802B080BD80B582B0A5
:101A60008DF80700002000900090FFE700980728FD
:101A700013DCFFE79DF80700009A8021D140084061
:101A800000F040F8012000F02BF8002000F028F8CA
:101A9000FFE7009801300090E8E702B080BD000049
:101AA00080B582B00120009000F02CF8009800F082
:101AB00017F80020019000F025F8019800F010F8C8
:101AC00002B080BD80B582B0002000F01BF801207C
:101AD000019000F005F8019800F014F802B080BD04
:101AE00080B582B08DF807009DF8072040F60040D1
:101AF000C4F201004021FFF70FFF0520FFF776FC3D
:101B000002B080BD80B582B08DF807009DF8072037
:101B100040F60040C4F201008021FFF7FDFE0520E1
:101B2000FFF764FC02B080BD80B582B08DF807007D
:101B30008DF806108DF805200093FFF7B1FF9DF892
:101B400007004000C0B2FFF789FFFFF72DFF9DF8A7
:101B50000600FFF783FFFFF727FFFFF7A1FF9DF8C0
:101B6000070040000130C0B2FFF778FFFFF71CFF0D
:101B7000FFE79DF80500F0B1FFE79DF8050001289B
:101B800008D1FFE7FFF724FF009908700120FFF755
:101B900055FF07E0FFF71CFF009908700020FFF7D2
:101BA0004DFFFFE70098013000909DF805000138D7
:101BB0008DF80500DDE7FFF785FF002002B080BD4E
:101BC00080B584B08DF80F008DF80E108DF80D20C3
:101BD0000293002000900190FFF762FF9DF80F0034
:101BE0004000C0B2FFF73AFFFFF7DEFE9DF80E009F
:101BF000FFF734FFFFF7D8FE00980190FFE7019848
:101C00009DF80D1088420CDAFFE702980199405CBC
:101C1000FFF724FFFFF7C8FEFFE7019801300190AE
:101C2000EDE7FFF74FFF002004B080BD80B592B014
:101C30008DF84700682005903B21062204920DF1A3
:101C40004103FFF771FF9DF841109DF8420040EA03
:101C5000012040F67461C2F2000106910A88801AE0
:101C6000ADF82E009DF843209DF8440040EA022084
:101C70004A88801AADF830009DF845209DF846004E
:101C800040EA02208988401AADF83200BDF92E00E2
:101C9000FEF7E5FC002201920023C4F2C003029388
:101CA000FEF70DFCFEF737FD9DF8472040F2580186
:101CB000C2F2000107910C31039102EB420241F89C
:101CC0002200BDF93000FEF7CAFC019A029BFEF724
:101CD000F6FBFEF720FD03999DF8472002EB420238
:101CE00001EB82014860BDF93200FEF7B8FC019AB1
:101CF000029BFEF7E4FBFEF70EFD039B049A0146F0
:101D000005989DF847C00CEB4C0C03EB8C039960D5
:101D100043210DF13B03FFF707FF06999DF83B2098
:101D20009DF83C0040EA02200A88801AADF82E0097
:101D30009DF83D209DF83E0040EA02204A88801A26
:101D4000ADF830009DF83F209DF8400040EA0220A9
:101D50008988401AADF83200BDF92E00FEF77FFCED
:101D600042F22112C1F2CA72089247F25C53C4F2E5
:101D7000B0030993FEF7A3FBFEF7CDFC07999DF88E
:101D8000472001F214710A9102EB420241F822004D
:101D9000BDF93000FEF763FC089A099BFEF78FFB44
:101DA000FEF7B9FC0A999DF8472002EB420201EBCD
:101DB00082014860BDF93200FEF751FC089A099B88
:101DC000FEF77DFBFEF7A7FC0A999DF8472002EB82
:101DD000420201EB8201886012B080BD80B500F044
:101DE000E9F840F25801C2F2000141F60160C0F684
:101DF0000000486041F62960C0F60000886080BDA0
:101E000040F20041C4F20101086820F001000860BE
:101E1000086840F02000086040F25801C2F200015A
:101E2000012008607047000040F20041C4F2010147
:101E3000086840F001000860086820F02000086091
:101E400040F25801C2F20001022008607047000011
:101E500080B58CB00B9000200A900B980990042854
:101E600000F281800999DFE801F0030C5B1538006E
:101E700040F60000C4F2010002210022FFF74CFDF1
:101E800071E040F60000C4F2010002210122FFF7D8
:101E900043FD68E000200A90FFE70A9805281BDC54
:101EA000FFE740F60000C4F201000690022107910E
:101EB0000022FFF731FD64200890FFF787FA0698AB
:101EC00007990122FFF728FD0898FFF77FFAFFE73F
:101ED0000A9801300A90E0E745E000200A90FFE709
:101EE0000A980A281BDCFFE740F60000C4F2010054
:101EF0000390022104910022FFF70EFD322005908D
:101F0000FFF764FA039804990122FFF705FD05988D
:101F1000FFF75CFAFFE70A9801300A90E0E722E059
:101F200000200A90FFE70A9803281BDCFFE740F631
:101F30000000C4F201000090022101910022FFF78D
:101F4000EBFCFA200290FFF741FA00980199012278
:101F5000FFF7E2FC0298FFF739FAFFE70A98013031
:101F60000A90E0E7FFE70CB080BD000080B584B0C8
:101F70000420012101F0E2F8102003900220ADF8C6
:101F800004000320029040F60000C4F2010001A901
:101F9000FFF7DAFB41F28860C2F2000000214160E5
:101FA00041F65161C0F60001016001684068884750
:101FB00004B080BD80B590B009200121039101F0EB
:101FC000BDF848200F9020200190ADF83400032088
:101FD0000E9040F60040C4F201000DA9FFF7B4FBDB
:101FE00003980521FFF786FB0199039809910C904E
:101FF000002002900A900C200B9009A8FFF7B4FA79
:10200000039817218DF81C10089006208DF81D00EC
:102010008DF81E0007A800F0FFFF40F20041C4F257
:102020000101086820F020000860FFF789FC029891
:10203000039A069005908DF81300682075210DF124
:102040001303FFF771FD9DF81300682802D0FFE726
:1020500002F008F9059806F071FA002840F0828035
:10206000FFE7782007F014FA38B9FFE74CF6DD6097
:10207000C0F6000008F058F9FFE7782006F0CCF829
:1020800038B9FFE74CF6B860C0F6000008F04CF92C
:10209000FFE7642007F07EF938B9FFE74CF62460CB
:1020A000C0F6000008F040F9FFE703F0E5FA38B9A0
:1020B000FFE74CF6CD50C0F6000008F035F9FFE719
:1020C00040F20800C2F2000004F0A6FC03F088FC15
:1020D00038B9FFE74CF69260C0F6000008F024F92A
:1020E000FFE740F2731003F017F938B9FFE74CF639
:1020F000FF50C0F6000008F017F9FFE7642003F076
:1021000075FB38B9FFE74CF64A60C0F6000008F0EE
:102110000BF9FFE707F096FE002006F09DFF38B9A7
:10212000FFE74CF66E60C0F6000008F0FDF8FFE730
:1021300006A803F0ADFB38B9FFE74CF6FE60C0F629
:10214000000008F0F1F8FFE7042006F027FE4FF446
:10215000FA7006F0E9FF4CF61970C0F6000008F0BE
:10216000E3F8FFE710B080BD80B582B08DF80700BE
:102170009DF8070040B9FFE740F20040C4F20000BC
:10218000002101F025FD08E040F20040C4F200000B
:102190004FF4D37101F01CFDFFE702B080BD0000D9
:1021A00080B59EB005200121099100F0C7FF099973
:1021B0000320049000F0A8FF049818211D914021ED
:1021C000ADF86C101C9040F60000C4F201000590C0
:1021D0001BA90691FFF7B8FA02200190ADF8620042
:1021E00000200D90ADF864004FF41E71ADF866103C
:1021F000ADF8680040F20040C4F2000002900DF11A
:102200006201089101F0F8FC0DF15200039001F019
:10221000C9FCDDF804C002980399099B0D9A4FF0A0
:10222000600EADF852E0ADF85AC0ADF85430ADF8DC
:10223000582001F005FC049A0598069948231D933F
:1022400080230793ADF86C301C92FFF77DFA0D9850
:1022500007210A91FFF74EFA079A09990D981092F3
:10226000139111901020129010A8FFF77DF9099892
:1022700017218DF838100F9006208DF839008DF851
:102280003A000EA80B9000F0C7FE08990D9840F296
:102290009F52ADF86220ADF8640040F6C312ADF86D
:1022A0006620ADF868004FF080400C9001F0A4FC6F
:1022B00009990C9801F050FB099A0C98114601F00D
:1022C000A7FB099A0A990B981C238DF838300F92B6
:1022D0008DF839108DF83A1000F09EFE0C980D998B
:1022E00001F052FB1EB080BD80B584B00021029188
:1022F000ADF80E1040F20040C4F20000009001F072
:1023000071FC00980121019101F03EFB01990298B6
:102310008DF80D10ADF80E00FFE7BDF80E0040F689
:102320008061C2F20001B1F80418884220DAFFE7A8
:102330009DF80D00FFF718FFBDF80E1040F6806005
:10234000C2F2000000EB4100808800EB80008000BA
:10235000FFF74CF89DF80D00B0FA80F040098DF8B9
:102360000D00FFE7BDF80E000130ADF80E00D4E718
:1023700040F20040C4F20000002101F005FB04B06F
:1023800080BD0000704700007047000070470000EB
:1023900080B596B005200121059100F0CFFE05998A
:1023A000084600F0B1FE0420159010200190ADF811
:1023B0004C0003200290149040F60000C4F201008B
:1023C000039013A90491FFF7BFF90020099007219A
:1023D0000691FFF78FF90198059A099980230C93CC
:1023E0000F920D910E900CA8FFF7BEF805981721DB
:1023F0008DF828100B9006208DF829008DF82A0002
:102400000AA8079000F008FE019B029A039804991D
:1024100015932023ADF84C301492FFF795F90998E5
:1024200040F29F51ADF84210ADF8440040F6C311A0
:10243000ADF84610ADF848004FF0804008900DF11F
:10244000420101F0D9FB0599089801F085FA059A37
:102450000898114601F0DCFA4FF4A06000F030FE5D
:10246000059A069907981C238DF828300B928DF851
:1024700029108DF82A1000F0CFFD0898099901F075
:1024800083FA16B080BD000080B582B08DF80700D9
:102490009DF8070048B9FFE740F60000C4F20100CC
:1024A00040210022FFF738FA08E040F60000C4F2AD
:1024B000010040210122FFF72FFAFFE702B080BDA3
:1024C00080B582B00020ADF8060001218DF805101E
:1024D000ADF80600FFE7BDF8060040F68061C2F2E5
:1024E0000001B1F80418884220DAFFE79DF80500E2
:1024F000FFF7CAFFBDF8061040F68060C2F2000088
:1025000000EB4100808800EB80008000FEF76EFF4A
:102510009DF80500B0FA80F040098DF80500FFE74E
:10252000BDF806000130ADF80600D4E702B080BD6A
:1025300080B58AB004200121019100F0FFFD0199CE
:10254000082000F0FBFD10200990F0200490ADF869
:102550001C000320089040F60000C4F20100039024
:1025600007A90291FFF7F0F8029940F601400690A2
:10257000ADF81C0040F60040C4F201000590FFF7E2
:10258000E3F803980499FFF7BDF905980699FFF75A
:10259000B9F90AB080BD0000704700007047000024
:1025A000704700007047000070470000704700004F
:1025B000704700007047000070470000704700003F
:1025C000704700007047000070470000704700002F
:1025D000704700007047000070470000704700001F
:1025E000704700007047000081B040F24000C2F226
:1025F0000000006840F64671884204DBFFE74FF0B8
:10260000FF300090FCE040F24000C2F200000068A1
:1026100040F6D55188420DDBFFE740F24000C2F2A0
:102620000000006840F64571884203DCFFE70A209D
:102630000090E5E040F24000C2F20000006840F681
:102640009F4188420DDBFFE740F24000C2F20000EC
:10265000006840F6D451884203DCFFE7092000906F
:10266000CEE040F24000C2F20000006840F6723155
:1026700088420DDBFFE740F24000C2F20000006834
:1026800040F69E41884203DCFFE708200090B7E057
:1026900040F24000C2F20000006840F64C2188423F
:1026A0000DDBFFE740F24000C2F20000006840F698
:1026B0007131884203DCFFE707200090A0E040F280
:1026C0004000C2F20000006840F6E90188420DDBDC
:1026D000FFE740F24000C2F20000006840F64B21E4
:1026E000884203DCFFE70620009089E040F24000CA
:1026F000C2F20000006840F2177188420DDBFFE76C
:1027000040F24000C2F20000006840F6E801884252
:1027100003DCFFE70520009072E040F24000C2F2C7
:102720000000006840F2B45188420DDBFFE740F240
:102730004000C2F20000006840F21671884203DCDB
:10274000FFE7042000905BE040F24000C2F200008E
:10275000006840F28E4188420DDBFFE740F2400006
:10276000C2F20000006840F2B351884203DCFFE788
:102770000320009044E040F24000C2F200000068F4
:10278000B0F5587F0DDDFFE740F24000C2F20000D7
:10279000006840F28D41884203DCFFE70220009090
:1027A0002EE040F24000C2F20000006840F22B210F
:1027B00088420CDBFFE740F24000C2F200000068F4
:1027C000B0F5587F03DCFFE70120009018E040F2ED
:1027D0004000C2F200000068BA280DDBFFE740F2BB
:1027E0004000C2F20000006840F22A21884203DC67
:1027F000FFE70020009003E04FF0FF300090FFE77C
:10280000009801B07047000081B041F2A260C2F2AE
:10281000000001788DF8021040788DF803009DF8D3
:1028200003109DF8020040EA012140F68060C2F2E8
:102830000000A0F80418B0F80408B0F5806F09DBB8
:10284000FFE740F68061C2F200010020A1F8040811
:10285000086037E00020ADF80000FFE7BDF8000099
:1028600040F68061C2F20001B1F80418884228DA0B
:10287000FFE7BDF8001041F2A260C2F2000000EBD9
:10288000410189788DF80210BDF8001000EB41007D
:10289000C0788DF803009DF803109DF8020040EA0F
:1028A0000120BDF8002040F68061C2F2000101EB7A
:1028B00042018880FFE7BDF800000130ADF800005C
:1028C000CCE7FFE701B0704781B040F68060C2F20C
:1028D0000000B0F80408B0F5806F01DBFFE750E0BE
:1028E00040F68060C2F20000B0F804188DF80210C3
:1028F00090F805088DF803009DF8020041F2A261EE
:10290000C2F2000108709DF8030048700020ADF885
:102910000000FFE7BDF8000040F68061C2F2000150
:10292000B1F8041888422BDAFFE7BDF8001040F632
:102930008060C2F20000043030F811108DF80210EF
:10294000BDF8001000EB410040788DF803009DF8C1
:102950000200BDF8002041F2A261C2F2000101EBC9
:10296000420290709DF80300BDF8002001EB420187
:10297000C870FFE7BDF800000130ADF80000C9E7FE
:10298000FFE701B07047000081B00020ADF8020001
:1029900041F2A061C2F200010880ADF80200FFE739
:1029A000BDF80200B0F5806F11DAFFE7BDF8021044
:1029B00040F68060C2F2000000EB410100208880F8
:1029C000FFE7BDF802000130ADF80200E8E740F68D
:1029D0008061C2F2000100200860A1F8040801B083
:1029E0007047000080B582B041F29060C2F20000F2
:1029F0000068019040B1FFE70198012807D0FFE788
:102A00000198022806D006E0FFF7CAFB04E0FFF7B2
:102A1000BFFC01E000E0FFE740F68061C2F2000188
:102A20000020086040F20041C4F20101086820F073
:102A30008000086002B080BD80B582B00020ADF893
:102A4000060040F68060C2F200000068022848D10B
:102A5000FFE741F29060C2F20000006838B9FFE77A
:102A60004CF64570C0F6000007F05EFC0FE041F246
:102A70009060C2F200000068012807D1FFE74CF621
:102A80005670C0F6000007F04FFCFFE7FFE700209C
:102A9000ADF80600FFE7BDF8060040F68061C2F21F
:102AA0000001B1F8041888421ADAFFE7BDF80620E1
:102AB000511C40F68060C2F2000000EB42008088AA
:102AC00000EB800082004CF68370C0F6000007F037
:102AD0002BFCFFE7BDF806000130ADF80600DAE791
:102AE000FFE702B080BD000080B582B040F6806193
:102AF000C2F200010020086040F20041C4F201016E
:102B0000086840F080000860FFE740F68060C2F28D
:102B100000000068022808D0FFE741F28860C2F296
:102B20000000016802208847EFE740F20041C4F24C
:102B30000101086820F08000086041F29060C2F254
:102B40000000006800EB4000800340F21101C2F277
:102B5000000191F9001000EB013141F29C60C2F2DA
:102B600000000190016001684CF6A270C0F6000000
:102B700007F0DAFB40F68060C2F20000B0F80418FB
:102B80004CF6B170C0F6000007F0CEFBFFF79CFEDC
:102B90004CF69C70C0F6000007F0C6FB0198006878
:102BA00001F0A2FA4CF66E70C0F6000007F0BCFB14
:102BB000FFF742FF41F28860C2F200000168042082
:102BC0008847FFF7E1FEFEF745FD02B080BD00003B
:102BD00080B582B04FF08040019000F0E9FE0146E0
:102BE000019841F2A062C2F20002B2F800C040F6C1
:102BF0008063C2F2000303EB4C039980118801311A
:102C00001180002100F0EEFF02B080BD80B582B0DF
:102C100041F29060C2F20000006800EB40008003C7
:102C200040F21101C2F2000191F9001000EB0131F4
:102C300041F29C60C2F200000190016001684CF614
:102C4000A670C0F6000007F06FFB0198006801F065
:102C5000DFF9FFF7D9FD40F68060C2F20000B0F85E
:102C60000408A0B3FFE740F68060C2F20000B0F8AD
:102C70000408B0F5806F2ADAFFE740F68061C2F2FF
:102C8000000102200860FEF7EFFC41F29060C2F202
:102C900000000068009040B1FFE70098012807D0CD
:102CA000FFE70098022806D006E0FFF71DFB04E0CE
:102CB000FFF706FC01E000E0FFE741F28860C2F2A6
:102CC0000000016804208847FEF7C4FC0DE040F6D0
:102CD0008061C2F200010020086041F28860C2F207
:102CE0000000016802208847FFE702B080BD0000B5
:102CF00080B582B04FF080400121019100F044FE88
:102D0000019840F68061C2F20001086041F2A061C2
:102D1000C2F200010020088002B080BD80B582B000
:102D20004FF0804000900021019100F02DFE0098AE
:102D3000019900F057FF019841F2A062C2F200022F
:102D4000138840F68061C2F20001A1F804381080B7
:102D50000220086002B080BD80B58CB041F2906066
:102D6000C2F200000068013001460B910B2800F20E
:102D70003C810B99DFE811F00C001B0035004F007F
:102D8000690083009D00B700D100EB0005011F0121
:102D900041F29061C2F2000142F6F170C0F600000B
:102DA000486043F20500C0F6000088601EE1FFF7AE
:102DB00019FE41F29060C2F200000A9001684CF6E0
:102DC000E240C0F6000007F0AFFA0A9942F60D4063
:102DD000C0F60000486042F6E920C0F600008860B6
:102DE00004E1FFF7FFFD41F29060C2F2000009909C
:102DF00001684CF6E240C0F6000007F095FA099928
:102E000042F60D40C0F60000486042F6E920C0F6E8
:102E100000008860EAE0FFF7E5FD41F29060C2F251
:102E20000000089001684CF6E240C0F6000007F090
:102E30007BFA089942F60D40C0F60000486042F661
:102E4000E920C0F600008860D0E0FFF771FB41F296
:102E50009060C2F20000079001684CF6E240C0F6B4
:102E6000000007F061FA079942F29950C0F600009D
:102E7000486042F29D50C0F600008860B6E0FFF75F
:102E80008FFB41F29060C2F20000069001684CF6A0
:102E9000E240C0F6000007F047FA069942F2A5505A
:102EA000C0F60000486042F2A950C0F600008860F9
:102EB0009CE0FFF77BFB41F29060C2F200000590BE
:102EC00001684CF6E240C0F6000007F02DFA0599C3
:102ED00042F2B150C0F60000486042F2B550C0F670
:102EE0000000886082E0FFF767FB41F29060C2F269
:102EF0000000049001684CF6E240C0F6000007F0C4
:102F000013FA049942F2BD50C0F60000486042F244
:102F1000C150C0F60000886068E0FFF753FB41F243
:102F20009060C2F20000039001684CF6E240C0F6E7
:102F3000000007F0F9F9039942F2C950C0F6000009
:102F4000486042F2CD50C0F6000088604EE0FFF7C6
:102F50003FFB41F29060C2F20000029001684CF623
:102F6000E240C0F6000007F0DFF9029942F2D550C6
:102F7000C0F60000486042F2D950C0F600008860F8
:102F800034E0FFF72BFB41F29060C2F200000190A9
:102F900001684CF6E240C0F6000007F0C5F901995F
:102FA00042F2E150C0F60000486042F2E550C0F63F
:102FB000000088601AE0FFF7E5F941F29060C2F284
:102FC0000000009001684CF6E240C0F6000007F0F7
:102FD000ABF9009942F28930C0F60000486042F235
:102FE0008D30C0F60000886000E0FFE70CB080BDC7
:102FF00080B541F28860C2F2000001680420884771
:1030000080BD000080B541F28860C2F20000016816
:103010000320884780BD000084B003900020029008
:1030200001900F20009003984068B8B3FFE74EF678
:103030000C50CEF200000068C043C0F302200290A2
:103040000298C0F10400019000980299C8400090D5
:1030500003984078019988400290039880780099FD
:1030600001400298084302900298000102900298E1
:10307000039909784EF20042CEF200028854039878
:10308000027802F01F01012088401C2101EAD201D0
:103090004EF20012CEF2000288500EE00398027841
:1030A00002F01F01012088401C2101EAD2014EF2EA
:1030B0008012CEF200028850FFE704B07047000093
:1030C00081B0009000980021C0F2FA5108434EF6FA
:1030D0000C51CEF20001086001B0704782B001903F
:1030E0000020009041F20401C4F20201086800903F
:1030F000009820F440400090019A009810430090FE
:103100000098086002B0704782B00190009100986A
:1031100048B1FFE7019A41F21C01C4F202010868BC
:103120001043086008E0019A41F21C01C4F2020158
:10313000086890430860FFE702B0704782B00190D2
:103140000091009848B1FFE7019A41F21801C4F2DA
:10315000020108681043086008E0019A41F2180172
:10316000C4F20201086890430860FFE702B07047AC
:1031700082B001900091009848B1FFE7019A41F2B6
:103180000C01C4F2020108681043086008E0019ACB
:1031900041F20C01C4F20201086890430860FFE7A5
:1031A00002B0704786B00590002004900390029012
:1031B000019041F20400C4F20200006800F00C002B
:1031C00004900498009040B1FFE7009804280BD0C9
:1031D000FFE7009808280ED047E0059941F200204B
:1031E000C0F27A00086047E0059941F20020C0F281
:1031F0007A00086040E041F20400C4F20200016875
:1032000001F470110391006800F48030029003997A
:10321000022000EB91400390029848B9FFE7039821
:1032200040F60011C0F23D014843059908601BE0DB
:1032300041F20400C4F2020000688003002809D5AE
:10324000FFE7039840F60011C0F23D01484305999D
:10325000086008E0039841F20021C0F27A01484377
:1032600005990860FFE7FFE706E0059941F20020B5
:10327000C0F27A000860FFE741F20400C4F20200E5
:10328000016801F0F0010491049909090491049A7C
:103290004BF69C01C0F600018A5C0192059B1A68FE
:1032A000DDF804C022FA0CF25A60026802F4E0620F
:1032B0000492049A120A0492049A8A5C0192059B71
:1032C0005A68DDF804C022FA0CF29A60026802F42F
:1032D00060520492049AD20A0492049A895C019181
:1032E000059A5168019BD940D160006800F44040C4
:1032F00004900498800B049004994BF69800C0F653
:103300000000405C01900599C868019AB0FBF2F09A
:10331000086106B07047000080B590B00920012117
:103320000791FFF70BFF07994FF480400090FFF7DC
:10333000EBFE102003900F904FF480500590ADF8F5
:103340003400032001900E9040F60040C4F20100CA
:1033500004900DA90291FEF7F7F9019A02990498D9
:1033600018230F934FF42043ADF834300E92FEF73C
:10337000EBF9009B019A029904984FF0480CCDF8A4
:103380003CC0ADF834300E92FEF7DEF903994FF4ED
:103390008270ADF824000020ADF82200ADF82600C0
:1033A000ADF83000ADF82E10ADF82800ADF82A00C9
:1033B0004FF40070ADF82C000720ADF8320043F652
:1033C0000000C4F2000006900DF1220100F08EF81A
:1033D00004980599079AFEF79FFA0698079900F056
:1033E00049F810B080BD000080B540F60040C4F23E
:1033F00001004FF480510022FEF78EFA80BD0000DC
:1034000080B540F60040C4F201004FF48051012223
:10341000FEF782FA80BD000080B582B08DF807000B
:10342000FFE743F60000C4F20000022100F036F886
:10343000012801D0FFE7F4E79DF8071043F60000EC
:10344000C4F2000000F048F8FFE743F60000C4F2C1
:103450000000012100F022F8012801D0FFE7F4E785
:1034600043F60000C4F2000000F030F8C0B202B031
:1034700080BD000082B001900091009830B1FFE75C
:103480000199088840F04000088005E0019908880B
:1034900020F040000880FFE702B0704783B0029040
:1034A000ADF806100020009002980089BDF80610C3
:1034B0000840000418B1FFE70120009002E000205E
:1034C0000090FFE7009803B07047000081B00090C3
:1034D0000098808901B0704782B00190ADF8021069
:1034E000BDF802000199888102B0704783B0029054
:1034F00001910020ADF8020002980088ADF80200AA
:10350000BDF8020000F44150ADF8020001990888AE
:103510004A8810438A881043CA8810430A89104396
:103520004A8910438A891043C9890143BDF80200C2
:103530000843ADF80200BDF8020002990880029924
:10354000888B20F4006088830198008A02990882A1
:1035500003B0704780B500F001F880BD84B0002052
:103560000390029041F20001C4F20201086840F4A5
:1035700080300860FFE741F20000C4F202000068FA
:1035800000F400300290039801300390FFE70299A5
:103590000020019039B9FFE70398B0F5A06018BF8B
:1035A00001200190FFE70198C0070028E3D1FFE761
:1035B00041F20000C4F2020000688003002803D535
:1035C000FFE70120029002E000200290FFE702984E
:1035D000012851D1FFE742F20001C4F2020108685C
:1035E00040F010000860086820F0070008600868D4
:1035F00040F00200086041F20401C4F202010091AF
:103600000868086008680860086840F4806008601E
:10361000086820F47C100860086840F4E81008602E
:1036200041F20001C4F20201086840F080700860B5
:10363000FFE741F20000C4F20200006880010028A8
:1036400001D4FFE7F5E741F20401C4F20201086882
:1036500020F003000860086840F002000860FFE7FF
:1036600041F20400C4F20200006800F00C000828D7
:1036700001D0FFE7F4E700E0FFE704B07047000087
:1036800080B586B068200190019806F02FF904906B
:10369000049818B9FFE70020059028E0049830301E
:1036A000039003981C30029004991220C861049979
:1036B0004AF2B100C0F60000486004994AF2610085
:1036C000C0F6000088600399012008760299087608
:1036D0000498039903F010FA049908620498029977
:1036E00003F00AFA0499486204980590FFE70598E8
:1036F00006B080BD80B541F20002C4F2020210683B
:1037000040F00100106041F20401C4F202010868B7
:103710000023CFF6FF031840086010684FF6FF73D0
:10372000CFF6F66318401060106820F48020106017
:10373000086820F4FE00086041F20801C4F20201AA
:103740004FF41F000860FFF705FF4EF60851CEF258
:1037500000014FF00060086080BD000080B500F0FF
:10376000EDFAFEF703FCFDF78BFDFFF7D5FDFEF745
:1037700035FB41F29061C2F2000142F6F170C0F6F1
:103780000000486043F20500C0F600008860FDF7C5
:1037900037FCFDF75BFB013070B9FFE741F2906148
:1037A000C2F200014FF0FF3008604CF6AF40C0F6A7
:1037B000000006F0B9FD0FE0FEF716FF014641F2EA
:1037C0009060C2F20000016001684CF69A40C0F6B9
:1037D000000006F0A9FDFFE7FDF748FAFFF7BCFA85
:1037E00080BD000080B54FF08040012100F0E6F878
:1037F000012811D1FFE740F68060C2F200000068A6
:10380000012803D1FFE7FFF789FAFFE74FF0804077
:10381000012100F0ADF8FFE780BD000080B582B067
:1038200040F60000C4F20000012100F0C7F80128B2
:1038300040F08F80FFE740F60000C4F20100012154
:10384000FEF746F88DF8070042F62410C2F2000099
:1038500000789DF8071088421AD1FFE79DF807000D
:10386000B0B9FFE744F62610C2F20000018801312A
:103870000180008841F28831884208DBFFE744F686
:103880002611C2F200014FF4FA700880FFE751E000
:1038900042F62410C2F2000000789DF8071088421A
:1038A00047D1FFE79DF80700012842D1FFE744F622
:1038B0002811C2F2000108880130088044F6261061
:1038C000C2F200000088B0F5FA7F07DBFFE740F2A4
:1038D0004401C2F20001032008600FE044F6261004
:1038E000C2F2000000880A2807DBFFE740F244012B
:1038F000C2F2000102200860FFE7FFE744F628104B
:10390000C2F2000000880A2812DBFFE744F6261006
:10391000C2F200000021018044F62810C2F200002B
:10392000018040F60000C4F2000000F02DF8FFE72F
:10393000FFE7FFE79DF8070042F62411C2F20001FD
:10394000087040F60000C4F20000012100F010F8F9
:10395000FFE702B080BD000082B00190ADF8021018
:10396000BDF80200C0430199088202B07047000010
:1039700082B00190ADF80210BDF80200C043019979
:10398000088202B07047000082B001900091009858
:1039900030B1FFE70199088840F00100088005E098
:1039A0000199088820F001000880FFE702B0704705
:1039B00081B000900098808C01B0704784B0039073
:1039C000ADF80A1000200190ADF80200ADF800003B
:1039D0000398008ABDF80A100840ADF80200039869
:1039E0008089BDF80A100840ADF80000BDF802005B
:1039F00038B1FFE7BDF8000018B1FFE701200190E2
:103A000002E000200190FFE7019804B07047000039
:103A100083B00290ADF806100092009838B1FFE72D
:103A2000BDF80620029988891043888106E0BDF818
:103A300006200299888990438881FFE703B0704788
:103A400084B0039002910020ADF80600ADF80400A8
:103A5000ADF802000399088C20F001000884039857
:103A6000008CADF8040003988088ADF8020003983C
:103A7000008BADF80600BDF8060020F07000ADF830
:103A80000600BDF8060020F00300ADF8060002981D
:103A90000188BDF806000843ADF80600BDF8040033
:103AA00020F00200ADF8040002980189BDF804007E
:103AB0000843ADF8040002984188BDF804000843AB
:103AC000ADF80400039842F60041C4F201018842B7
:103AD00020D0FFE7039843F20041C4F2010188427D
:103AE00018D0FFE7039844F20001C4F201018842B4
:103AF00010D0FFE7039844F20041C4F2010188426C
:103B000008D0FFE7039844F60001C4F2010188429F
:103B100035D1FFE7BDF8040020F00800ADF804003F
:103B200002984189BDF804000843ADF80400BDF8CF
:103B3000040020F00400ADF8040002988188BDF86C
:103B400004000843ADF80400BDF8020020F48070C2
:103B5000ADF80200BDF8020020F40070ADF80200DC
:103B600002988189BDF802000843ADF8020002986E
:103B7000C189BDF802000843ADF80200FFE7BDF8B7
:103B8000020003998880BDF8060003990883029813
:103B9000C08803998886BDF804000399088404B09E
:103BA0007047000081B000900099002008800099C3
:103BB0004880009988800099C88000990881009900
:103BC0004881009988810099C88101B07047000040
:103BD00082B00190ADF80210BDF80200019988860C
:103BE00002B0704782B00190ADF80210BDF802003B
:103BF0000199888402B0704783B00290019100203F
:103C0000ADF8020002980088ADF80200029842F672
:103C10000041C4F20101884225D0FFE7029843F237
:103C20000041C4F2010188421DD0FFE70298B0F1C3
:103C3000804F18D0FFE7029840F20041C4F2000123
:103C4000884210D0FFE7029840F60001C4F200015C
:103C5000884208D0FFE7029840F60041C4F2000114
:103C600088420ED1FFE7BDF8020020F07000ADF8E9
:103C7000020001984188BDF802000843ADF8020037
:103C8000FFE7029841F20001C4F20001884216D019
:103C9000FFE7029841F20041C4F2000188420ED0D1
:103CA000FFE7BDF8020020F44070ADF80200019873
:103CB000C188BDF802000843ADF80200FFE7BDF877
:103CC00002000299088001988088029988850198ED
:103CD000008802990885029842F60041C4F2010169
:103CE000884220D0FFE7029843F20041C4F201016C
:103CF000884218D0FFE7029844F20001C4F20101A3
:103D0000884210D0FFE7029844F20041C4F201015A
:103D1000884208D0FFE7029844F60001C4F201018E
:103D2000884205D1FFE70198007A02990886FFE7EB
:103D300002990120888203B07047000080B58EB0E0
:103D400044F2050001210491FFF7F8F918200D90C5
:103D50004FF40070ADF82C00032000900C9040F65A
:103D60000000C4F2010001900BA90291FDF7ECFCE8
:103D7000009A0198029948230D934FF48063ADF89F
:103D80002C300C92FDF7E0FC4FF4612005900020F0
:103D9000ADF820000C21ADF81E10ADF81C00ADF8F8
:103DA0001A00ADF8180043F60000C4F201000390B9
:103DB00005A900F07FF80398049A40F2255100F01D
:103DC00031F84FF4A060FFF77BF9049825218DF8B6
:103DD00024100A908DF825008DF8260009A8FFF719
:103DE0001BF90398049900F009F84CF62D70C0F601
:103DF000000006F099FA0EB080BD000082B001907C
:103E00000091009830B1FFE70199888940F4005093
:103E1000888105E00199888920F400508881FFE7B6
:103E200002B0704787B00690ADF8161004920020DB
:103E30000390029001900090BDF8160040F66A11C0
:103E4000884201D1FFE7FFE7069800909DF8160031
:103E500040090390BDF8160000F01F00029002997F
:103E60000120884001900398012804D1FFE70098C1
:103E70000C3000900CE00398022804D1FFE7009872
:103E80001030009003E0009814300090FFE7FFE747
:103E9000049830B1FFE7019A009908681043086060
:103EA00005E0019A0099086890430860FFE707B0B1
:103EB0007047000080B58CB00B900A9100200990EB
:103EC00008900790069005900A98808908B1FFE74E
:103ED000FFE70B9805900B98008A099009984CF61B
:103EE000FF71084009900A98C18809980843099011
:103EF00009980B9908820B988089099009984EF6C9
:103F0000F311084009900A9988880A891043498961
:103F1000014309980843099009980B9988810B98E7
:103F2000808A099009984FF6FF41084009900A9845
:103F3000818909980843099009980B9988826846F5
:103F4000FFF730F9059843F60001C4F201018842F9
:103F500003D1FFE70398089002E002980890FFE77A
:103F60000B988089000400280AD5FFE708981921DA
:103F700048430A9909684900B0FBF1F0079009E04D
:103F80000898192148430A9909688900B0FBF1F0A3
:103F90000790FFE7079848F21F51C5F2EB11A0FB0D
:103FA00001016FF00F0000EA51000990079A09988B
:103FB0000009642100FB112006900B988089000401
:103FC000002810D5FFE70699322000EBC10048F227
:103FD0001F51C5F2EB11A0FB0110C0F3421109986B
:103FE000084309900FE00699322000EB011048F2D7
:103FF0001F51C5F2EB11A0FB0110C0F3431109984A
:1040000008430990FFE709980B9908810CB080BD1F
:1040100080B582B00190FFF7E7F90320FFF7FCF9C4
:104020009DF80600FFF7F8F99DF80500FFF7F4F991
:104030009DF80400FFF7F0F90020ADF80200FFE75B
:10404000BDF80200B0F5805F11DAFFE7FF20FFF74F
:10405000E3F9BDF8022041F2A261C2F200018854E6
:10406000FFE7BDF802000130ADF80200E8E7FFF716
:10407000C7F902B080BD000080B582B0019000F0A9
:1040800029F8FFF7B1F92020FFF7C6F99DF80600DF
:10409000FFF7C2F99DF80500FFF7BEF99DF804008F
:1040A000FFF7BAF9FFF7ACF900F002F802B080BDF3
:1040B00080B5FFF799F90520FFF7AEF9FFE7FF207C
:1040C000FFF7AAF9C00708B1FFE7F8E7FFF798F98B
:1040D00080BD000080B5FFF787F90620FFF79CF947
:1040E000FFF78EF980BD000080B584B0039003987F
:1040F000FFF7C2FF0020ADF80800FFE7BDF8080099
:104100000F2843DCFFE7FFF7E5FFFFF76DF90398A2
:10411000BDF8081000EB012001900220FFF77CF9A8
:104120000198C0F30740FFF777F90198C0F3072023
:10413000FFF772F90198C0B2FFF76EF90020ADF8F1
:104140000A00FFE7BDF80A00FF2814DCFFE7BDF80E
:104150000810BDF80A0000EB012141F2A260C2F292
:104160000000405CFFF758F9FFE7BDF80A00013096
:10417000ADF80A00E6E7FFF743F9FFF799FFFFE71D
:10418000BDF808000130ADF80800B7E704B080BD05
:1041900085B0039002910298411E012000FA01F1BE
:1041A00049420191029901398840013800900398F1
:1041B0000199884203DAFFE7019804900AE0039826
:1041C0000099884203DDFFE70098049002E003981D
:1041D0000490FFE7049805B07047000085B0039095
:1041E00002910298411E012000FA01F14942019119
:1041F000029901398840013800900398019988425A
:1042000003DAFFE7019804900AE0039800998842D6
:1042100003DDFFE70098049002E003980490FFE7B5
:10422000049805B07047000084B002900191019994
:1042300001208840013800900298B0F1FF3F03DC74
:10424000FFE7002003900AE002980099884203DD0E
:10425000FFE70098039002E002980390FFE70398BD
:1042600004B07047BFF34F8F4EF60C51CEF20001F1
:10427000086800F4E0600422C0F2FA5210430860BB
:10428000BFF34F8FFFE700BFFDE7000080B58EB0A2
:104290000D900C91002004900A9007A801F0F6FE02
:1042A00004980B90FFE70B9802286EDCFFE70D984F
:1042B0000B9A50F822000C9951F82210401A0290E3
:1042C0000028039002D50298404203900398FCF71F
:1042D000B8F94FF08F41FCF742F806900B9907A808
:1042E00050F821000021FCF783F960BBFFE7069836
:1042F0000B9A07A951F82210FCF731F80021CBF6F0
:104300008071FBF7A2FF05900598FCF7F1F900908A
:1043100021F0004001904EF27040C0F60000406A6B
:10432000FCF7E6F9024600980B460199FCF76EF996
:1043300040B9FFE70B99012000FA01F10A98084300
:104340000A90FFE71CE006984EF27041C0F60001AB
:10435000C969FCF731F950B9FFE706984EF2704190
:10436000C0F60001096AFCF719F940B9FFE70B999B
:10437000012000FA01F10A9808430A90FFE7FFE7DD
:10438000FFE70B9801300B908DE70A980EB080BDC7
:1043900083B002900191029800900138032805D360
:1043A000FFE700980438042801D303E003E0072066
:1043B0000190FFE7FFE7019803B0704780B584B034
:1043C0000290102005F092FA0190019818B9FFE7C9
:1043D0000020039014E0019946F60140C0F6000069
:1043E000086001990220886002984FF08641FBF72F
:1043F00084FFFCF745F90199087301980390FFE7E2
:10440000039804B080BD000080B584B00290002005
:1044100001900090FFE7009807280FD8FFE7029867
:10442000009901EB410100EB8100007A08B9FFE738
:1044300004E0FFE7009801300090ECE700980828BE
:1044400009D1FFE74CF29170C0F6000005F06CFF57
:104450000020039009E00298009901EB410100EB74
:104460008100019001980390FFE7039804B080BD9C
:1044700080B584B00290029818B9FFE7002003903D
:1044800021E0029801900198006818B9FFE70198AF
:10449000039018E0FFE70198406820B1FFE701981A
:1044A00040680190F7E7082005F020FA019948607C
:1044B0000198406818B9FFE70020039003E00198D5
:1044C00040680390FFE7039804B080BD80B582B0D8
:1044D0000090009818B9FFE70020019023E00098B1
:1044E000006818B9FFE7009801901CE0FFE700980A
:1044F000806820B1FFE7009880680090F7E71C20F3
:1045000005F0F4F9009988600098806818B9FFE711
:104510000020019007E00098816840694861009898
:1045200080680190FFE7019802B080BD84B00390DD
:104530000291002000900190FFE70198072823D8FE
:10454000FFE70398019901EB410100EB8100406A0C
:1045500008B9FFE718E00298009908440399019A06
:1045600002EB420201EB820108620398019901EB20
:10457000410100EB8100416A009808440090FFE788
:10458000019801300190D8E7002004B07047000086
:1045900080B586B0059000200490059841F25971CD
:1045A000CDF2B711A0FB0110400B0390059948F222
:1045B0001F50C5F2EB10A1FB0013590945F6294223
:1045C000C0F28F22A1FB021264214A43C2EB5312B4
:1045D0000292059AA2FB0030400900FB11200190D5
:1045E000059840F2931188420CD0FFE70399029A94
:1045F000019B4CF25470C0F6000005F095FE0120BE
:10460000049009E00399029A019B4CF6AD10C0F6A4
:10461000000005F089FEFFE7049806B080BD0000A9
:1046200080B594B01290119110920F9300200E90CB
:1046300011980D90012007900F9818B9FFE707A86F
:104640000F90FFE70D98006A0C900D98406A0B9050
:10465000FFE70D98002800F0BD81FFE70D98006A84
:104660000C900C98006868BBFFE70C98006940BB91
:10467000FFE71098FFF7C8FE09900999087A013002
:1046800008720C98C06805F029FE042105F0A6F810
:104690000E900E9809994968884203D9FFE70E9851
:1046A000069003E0099840680690FFE7069809998C
:1046B000486009980C9908610C98016901204872BA
:1046C000FFE70CE0FFE70C9840B1FFE70C990868A2
:1046D000006908610C9880680C90F4E7FFE70D987A
:1046E000006A0C900C98D8B1FFE70C988068B8B1BC
:1046F000FFE7FFE70C9890B1FFE70C98006930B135
:10470000FFE70C980069407A012804D0FFE76FF0BA
:104710000700139061E10C9880680C90EAE7FFE7CE
:104720000D988168884712980D9902F041FA0D980A
:10473000006978B3FFE71098FFF766FE0D990969E5
:1047400008600D9800690168087A013008720D98B8
:1047500000690168012048720D98006940680421D1
:1047600005F03CF80E900E980D99096909684968A2
:10477000884203D9FFE70E98059005E00D9800697F
:10478000006840680590FFE705980D990969096878
:104790004860FFE70D980F9B19684A1C1A6005F0E6
:1047A000A9F90D98406A18B9FFE70020139014E1A9
:1047B0000D98406A8068002854D1FFE70D98406A40
:1047C000406800284ED1FFE70D98006A007E28B1AE
:1047D000FFE70D98406A007E60B9FFE70D99086A0F
:1047E000496A00690861109805F0A6FA0D9805F06D
:1047F00005FB36E01098FFF707FE0890089820B9EF
:10480000FFE76FF006001390E7E0089901200872B7
:10481000089948720D98406AC06805F05FFD042150
:1048200004F0DCFF0E900E9808994968884203D97D
:10483000FFE70E98049003E0089840680490FFE7B3
:1048400004980899486008980D99496A0861109879
:1048500005F072FA0D9805F0E1FA0D9805F0CEFA20
:10486000FFE7A9E00D98006A007E28B1FFE70D98E8
:10487000406A007EF8B9FFE70D99086A496A006945
:1048800008610D98406A04F0CBFF02460D98406A1B
:104890000169087A104408720D98406A0169012084
:1048A0004872109805F048FA0D9805F0B7FA0D987F
:1048B00005F0A4FA53E00D98406A0B90FFE70B99BE
:1048C0000020039039B1FFE70B980068002818BF5B
:1048D00001200390FFE70398C007B0B3FFE71098EB
:1048E000FFF792FD0B9908610B98006920B9FFE76B
:1048F0006FF00600139070E00B98C06805F0EEFCB6
:10490000042104F06BFF0E900E980B990969496819
:10491000884203D9FFE70E98029004E00B980069E3
:1049200040680290FFE702980B99096948600B986C
:1049300004F076FF0B99096908720B980169012050
:1049400048720B9880680B90B9E7109805F0F4F95D
:104950000D9805F063FA0D9805F050FAFFE70D98F1
:10496000406A0B90FFE70B9818B3FFE70B980A908B
:10497000FFE70A990020019039B1FFE70A98006823
:10498000002818BF01200190FFE70198C00760B11F
:10499000FFE712980A9909684969109A0F9BFFF777
:1049A0003FFE0A9840680A90E3E70B9880680B90F6
:1049B000D9E70020139010E00D98406A006818B9FC
:1049C000FFE70020139008E00D98406A00684069F6
:1049D0000D903EE600201390FFE7139814B080BDC1
:1049E00080B584B00390039802900398016A086828
:1049F000C068C8600398006AC068017D0298C26CF4
:104A0000002004F08FFE0399496AC8600398016A88
:104A1000406AC068C96805F07FFB0399086A496A63
:104A2000C06880680068029A136D926D9B681B686D
:104A300018441268801AC968896808600398406938
:104A400078B1FFE703994869496A8068C96889684D
:104A50000968FFF79DFC0399496AC968896808607D
:104A6000FFE70398006AC06840680088DDF808C066
:104A7000BCF83010DCF84820BCF83630BCF842C036
:104A8000EE46CEF800C000F04FFA0399496AC968B3
:104A9000496808800398006AC06840684088DDF86B
:104AA00008C0BCF83210DCF84820BCF83830BCF83C
:104AB00044C0EE46CEF800C000F036FA0399496AC9
:104AC000C968496848800298C06C0399496AC968F6
:104AD000496888800298806C012819D1FFE7029903
:104AE000B1F844004A8E013A504300EBD0704008C0
:104AF000C8870299B1F842000A8E013A504300EB90
:104B0000D0704008888702990020A1F84000FFE794
:104B10000299488E098E41430398026A406AD2681E
:104B20005268928851430191C06805F0D7FB014655
:104B30000198484303998862002004B080BD0000BA
:104B400080B582B001900198806958B9FFE701985B
:104B500000900098006D00F047FA0098406D00F05A
:104B600043FAFFE7002002B080BD00002DE9F04FBE
:104B7000ADB02C902C982B902C98006AC068407D8A
:104B800010286DD1FFE72C99086A496AC06802684D
:104B90002992406842882892028883882B981F9027
:104BA000C968D1F800C0CDF88CC0496820918C88C4
:104BB000458E068EC78FB0F83C80B0F83890B0F8BC
:104BC00036A0B0F844B0B0F842E0016DD0F854C05F
:104BD000806D25901F98C06D26902098DCF800C04D
:104BE000CDF89CC0D1F800C0096924914188229178
:104BF0000088219068462A900021816441642198B0
:104C00002A99086422992A98C16323982A9988636B
:104C100024992A98416325982A99086326992A9805
:104C2000C16227982A99886228992A98C0F824E0B6
:104C30002998DDF8A8E0CEF820B0CEF81CA0CEF878
:104C40001890CEF81480CEF81070CEF80C60CEF824
:104C50000850CEF80440CEF800C001F0FFFF6CE031
:104C60002C99086A496AC06802681D9240684288A7
:104C70001C92028883882B981390C968D1F800C0D1
:104C8000CDF85CC0496814918C88458E068EC78F1C
:104C9000B0F83C80B0F83890B0F836A0B0F844B026
:104CA000B0F842E0016DD0F854C0806D19901398AF
:104CB000C06D1A901498DCF800C0CDF86CC0D1F823
:104CC00000C00969189141881691008815906846BE
:104CD0001E9000218164416415981E9908641699FC
:104CE0001E98C16317981E99886318991E9841638E
:104CF00019981E9908631A991E98C1621B981E99EB
:104D000088621C991E98C0F824E01D98DDF878E0B0
:104D1000CEF820B0CEF81CA0CEF81890CEF81480B3
:104D2000CEF81070CEF80C60CEF80850CEF80440E3
:104D3000CEF800C002F04AF9FFE700202DB0BDE830
:104D4000F08F000080B598B01690A42011901198B3
:104D500004F0CCFD1590159818B9FFE700201790C6
:104D6000DEE015986030139013981C301290129862
:104D70001C30149015990420C861139901200876FD
:104D800012990876149908721598139901F0B4FED7
:104D9000159908621598129901F0AEFE15994862AE
:104DA000159944F66D30C0F600004860159944F638
:104DB000E110C0F600008860159944F64130C0F655
:104DC0000000C86016981599886116988068007D63
:104DD000032836D1FFE715980490169890F91C2007
:104DE0000DF13E000121069101F0ACFE049A0699F6
:104DF000BDF842009086DDF83E00106315980590DE
:104E0000169890F91E200EA805F07AF9059A0699D1
:104E1000BDF83C0050870E98C2F8360015980790F0
:104E2000169890F922200DF1320000F045FA07990A
:104E3000BDF83600A1F84600DDF83200C1F84200A6
:104E400035E015980190169890F91C1090F91D20E6
:104E50000BA801F077FE0199BDF8300088860B9809
:104E6000086315980290169890F91E1090F91F206B
:104E70000DF1260005F044F90299BDF82A00488793
:104E8000DDF82600C1F8360015980390169890F9C1
:104E9000221090F9232008A800F00EFA0399BDF81B
:104EA0002400A1F846000898C1F84200FFE71698D0
:104EB00080691599C8641698406A1599886416988F
:104EC0008068159908651698C06815994865169800
:104ED000006915998865169840691599C8651598EF
:104EE000806C012819D1FFE71599B1F842000A8EAC
:104EF000013A504300EBD070400888871599B1F80B
:104F000044004A8E013A504300EBD0704008C887F5
:104F100015990020A1F84000FFE715981790FFE7CA
:104F2000179818B080BD000087B0DDF81CC0059050
:104F3000049103920293059818B9FFE700200690A8
:104F40001AE004980138079948430130019003980A
:104F5000012803D1FFE70598009005E00598019925
:104F6000401A01300090FFE7009802990844013888
:104F7000B0FBF1F00690FFE7069807B0704700001D
:104F800080B582B001900198016A0868C068C86065
:104F90000198006AC068017D009105F005F900994B
:104FA0000246002004F0BEFB0199496AC8600198DE
:104FB000016A406AC068C96805F0AEF801984069A6
:104FC00078B1FFE701994869496A8068C9688968CA
:104FD0000968FFF7DDF90199496AC96889680860BD
:104FE000FFE7002002B080BD80B582B0019001983B
:104FF00020B1FFE7019804F00FFCFFE702B080BD8D
:1050000080B58AB00990099808900998016A0868E3
:10501000C068C8600998006AC068007D032823D171
:10502000FFE7012105910022104604F07BFB0146B9
:105030000598099A526AD160ADF81C000898006B77
:10504000ADF81E000998406AC06808994A6B9168DB
:10505000D268EC460823CCF804300223CCF80030A8
:1050600007AB05F0DDF825E00998006AC06805F097
:105070009BF8024600200121049104F053FB049B9D
:105080000999496AC8600898006BADF81A00099838
:10509000406AC06808994A6B9168D268EC464FF044
:1050A000080ECCF804E0CCF800300DF11A0305F03E
:1050B000B7F8FFE70999086A496AC068806800681C
:1050C000089A536BD26B9B681B6818441268801A4D
:1050D000C968896808600998406978B1FFE709994B
:1050E0004869496A8068C96889680968FFF750F9A2
:1050F0000999496AC96889680860FFE70998006AE0
:10510000C06805F0EBF84000099909694860099802
:10511000006AC06805F0E2F803900998406AC06828
:1051200005F0DCF80146039848430999886200209D
:105130000AB080BD80B582B001900198806958B9ED
:10514000FFE7019800900098406BFFF74DFF009833
:10515000806BFFF749FFFFE7002002B080BD000031
:10516000F0B58DB00C9000200B900C980A900A9826
:10517000006C006809900A98C06B006808900C9851
:10518000006AC068016807910A99496B096806912D
:1051900005F0A4F80699024607980C9BD3F810E096
:1051A0005B6AD3F80CC0DCF80060DCF804309CF8D3
:1051B00014C003EB4C0333F8023CBDF824C0BDF827
:1051C00020400A9DAD6B2D68DEF800E0DEF800702F
:1051D000EE46CEF81070CEF80C60CEF80850CEF83F
:1051E0000440CEF800C092B202F090F80B980DB0D7
:1051F000F0BD000080B588B006908820019001982D
:1052000004F074FB0590059818B9FFE7002007909B
:105210004FE005984430039003981C3002900298A8
:105220001C30049005990820C86103990120087674
:1052300002990876049908720598039901F05CFCBC
:10524000059908620598029901F056FC0599486293
:10525000049805990861059945F26110C0F60000AF
:105260004860059945F20100C0F600008860059984
:1052700045F23510C0F60000C8600698806804F05A
:1052800093FF059908630698C06805998863069896
:10529000806805994863069800690599C86306986F
:1052A00040690599086406980599886105980790F2
:1052B000FFE7079808B080BD80B582B001910092E9
:1052C0000199009A012304F0BBFE02B080BD0000EA
:1052D00080B582B08DF807009DF8070068B1FFE740
:1052E00020208DF8000028208DF8010030208DF856
:1052F000020038208DF8030003E04FF0A330009047
:10530000FFE740F69E2004216A4604F06FF903F09F
:105310003BFB02B080BD000080B586B0ADF8160042
:1053200002208DF80C00CA208DF80D00E3208DF8C6
:105330000E0009208DF80F006820042103AA04F054
:1053400055F9A3208DF80C00BDF816004006002882
:105350000AD5FFE7C0208DF80D00C8208DF80E009B
:10536000C2208DF80F0007E0A3208DF80D008DF806
:105370000E008DF80F00FFE7BDF8160010F4C07F97
:105380000AD0FFE7C4208DF81000CC208DF8110062
:10539000C6208DF8120007E0A3208DF810008DF8CC
:1053A00011008DF81200FFE7A3208DF813008DF88F
:1053B00014008DF8150040F6A7200A2103AA04F076
:1053C00015F9BDF81600800720B1FFE720208DF801
:1053D0000C0003E0D8208DF80C00FFE740F6B62063
:1053E000012103AA04F002F9BDF816008006002886
:1053F00004D5FFE7012000F0E5F803E0002000F00D
:10540000E1F8FFE7BDF8160010F4C07F27D0FFE7F2
:10541000BDF81600C00500280DD5FFE7B2208DF8B5
:105420000C008B208DF80D00B6208DF80E009B200F
:105430008DF80F000CE0B0208DF80C0080208DF866
:105440000D00B4208DF80E0090208DF80F00FFE7BE
:1054500040F6A220042103AA04F0C8F8FFE7BDF833
:105460001600C00750B3FFE7F8208DF80C004FF48A
:105470000B600121029103AA04F0B8F80720019003
:10548000FA2100F049FC019800F0EAFB029800F0D4
:105490001DFC642000F03EFD4FF4FA7000F05AFD50
:1054A0004EF20930C0F2CA20C82100F071FB28205A
:1054B00000F09AFB0A2000F0B5FB09E0D8208DF837
:1054C0000C004FF40B60012103AA04F08FF8FFE7F2
:1054D000BDF816008007002804D5FFE7D9208DF815
:1054E0000C0003E0D8208DF80C00FFE740F23D707F
:1054F000012103AA04F07AF8BDF81600400700283D
:1055000004D5FFE7012000F093F803E0002000F04D
:105510008FF8FFE7BDF81600C006002804D5FFE7A6
:105520000120FFF7D5FE03E00020FFF7D1FEFFE7E3
:10553000BDF8160040F0080042F2A461C2F200017A
:105540000091488103F020FA009900208873BDF88B
:1055500016004006002808D5FFE742F2A461C2F217
:105560000001887B06308873FFE7BDF8160010F451
:10557000C07F08D0FFE742F2A461C2F20001887B3D
:1055800006308873FFE7BDF8160010F0140F08D03E
:10559000FFE742F2A461C2F20001887B10308873F9
:1055A000FFE7BDF81600800740B1FFE742F2A461B3
:1055B000C2F20001887B04308873FFE7002006B048
:1055C00080BD000080B588B08DF81B009DF81B00E1
:1055D000A8B1FFE75D208DF8180049F6B400C3F2CA
:1055E0000D5005904AF6B820C8F6B35004904FF419
:1055F0009760092104AA03F0F9FF079014E0C7207F
:105600008DF80C0048F6B000CCF2C35002904AF678
:10561000B820CAF6AA2001904FF49760092101AA88
:1056200003F0E4FF0790FFE7079808B080BD000093
:1056300080B582B08DF807009DF8070068B1FFE7DC
:10564000C0208DF80000C2208DF80100C4208DF824
:105650000200C6208DF8030003E04FF08B3000906D
:10566000FFE740F6982004216A4603F0BFFF03F0ED
:105670008BF902B080BD000080B54BF61831C0F642
:10568000000140F6F6304FF48062C82302F0EEFFCE
:1056900080BD000080B58CB00B900DF1060002F0CB
:1056A0005BFEBDF80600C0030021039102900B9938
:1056B00042F2A460C2F20000028902F0030251F833
:1056C0002210089100894007002804D5FFE70898B8
:1056D00040420890FFE70B9942F2A460C2F200003A
:1056E00003890C2202EA5302895809910089800635
:1056F000002804D5FFE7099840420990FFE70B997D
:1057000042F2A460C2F200000289C2F3811251F891
:1057100022100A910089C005002804D5FFE70A98E5
:1057200040420A90FFE7089BD917029ADDF80CC0A7
:10573000A3FB020E03FB0CE301FB0231800F40EAE6
:1057400081000890099BD917029ADDF80CC0A3FBD1
:10575000020E03FB0CE301FB0231800F40EA8100E3
:1057600009900A9BD917029ADDF80CC0A3FB020E20
:1057700003FB0CE301FB0231800F40EA81000A9039
:105780009DF823008DF81400BDF822008DF8150057
:105790000898000A8DF8160008988DF817009DF8F3
:1057A00027008DF81800BDF826008DF8190009981B
:1057B000000A8DF81A0009988DF81B009DF82B003F
:1057C0008DF81C00BDF82A008DF81D000A98000A0B
:1057D0008DF81E000A988DF81F004FF425700C21DB
:1057E00005AA03F003FF0CB080BD000080B588B0AF
:1057F000ADF81A004AF6BB70CDF6DF7005904FF297
:10580000AA10CDF6DF7004904FF2FE20CCF2AB4030
:105810000390BDF81A00C92804DBFFE74FF0FF3002
:10582000079032E0BDF81A10C820B0FBF1F0013843
:10583000ADF80A009DF80B008DF80200BDF80A00D3
:105840008DF8030040F2162002210DF1020203F050
:10585000CDFE20B1FFE74FF0FF30079015E040F696
:10586000C1200C2103AA03F0C1FE20B1FFE74FF0D5
:10587000FF30079009E0BDF81A0042F2A461C2F2BD
:105880000001888100200790FFE7079808B080BDDD
:1058900080B586B00490049942F2A460C2F2000080
:1058A000028902F0030251F8221001910089400799
:1058B000002804D5FFE7019840420190FFE70499D2
:1058C00042F2A460C2F2000003890C2202EA5302F1
:1058D0008958029100898006002804D5FFE70298C4
:1058E00040420290FFE7049942F2A460C2F2000035
:1058F0000289C2F3811251F8221003910089C00578
:10590000002804D5FFE7039840420390FFE7019881
:105910004EF20931C0F2CA2180FB0102800F40EA39
:1059200082000190029880FB0102800F40EA820011
:105930000290039880FB0101800F40EA81000390F0
:105940009DF807008DF80000BDF806008DF80100F5
:105950000198000A8DF8020001988DF803004FF4B9
:10596000747004216A4603F041FE20B1FFE74FF056
:10597000FF30059031E09DF80B008DF80000BDF878
:105980000A008DF801000298000A8DF802000298C2
:105990008DF803004FF4757004216A4603F026FE6B
:1059A00020B1FFE74FF0FF30059016E09DF80F00A3
:1059B0008DF80000BDF80E008DF801000398000A74
:1059C0008DF8020003988DF803004FF476700421DF
:1059D0006A4603F00BFE0590FFE7059806B080BD10
:1059E00080B588B0ADF81A006C208DF810004CF628
:1059F0004C50ADF80E002C208DF80C004CF60C101D
:105A0000ADF80A0076208DF8080045F23660ADF852
:105A1000060066208DF8040044F22660ADF802000E
:105A2000BDF81A0000F003010DF10E00415C8DF885
:105A30001610BDF81A10C1F3C101415C8DF81710A2
:105A4000BDF81A10C1F38111405C8DF81800BDF843
:105A50001A0000F003010DF10A00415C8DF81210EC
:105A6000BDF81A10C1F3C101415C8DF81310BDF8E7
:105A70001A10C1F38111405C8DF8140040F22640E9
:105A800003210DF1160203F0B1FD20B1FFE74FF045
:105A9000FF30079079E040F22A4003210DF1120215
:105AA00003F0A4FD20B1FFE74FF0FF3007906CE05A
:105AB0009DF808008DF81800BDF80600ADF8160036
:105AC0009DF804008DF81400BDF80200ADF8120036
:105AD000BDF81A00400700280DD5FFE79DF8160015
