:020000040800F2
:10000000B84D002051610108596101085B61010888
:100010005D6101085F610108616101080000000085
:100020000000000000000000000000006361010803
:10003000656101080000000067610108696101084D
:100040006B6101086B6101086B6101086B6101085C
:100050006B6101086B610108D90801086B61010837
:100060006B6101086B6101086B6101086B6101083C
:100070006B6101086B6101086B6101086B6101082C
:100080006B6101086B6101086B6101086B6101081C
:100090006B6101086B6101086B6101083DB20008EA
:1000A0006B6101086B6101086B6101086B610108FC
:1000B000351A01086B610108110901086B6101081B
:1000C0006B6101086B6101086B6101086B610108DC
:1000D0006B6101086B6101086B6101086B610108CC
:1000E0006B6101086B6101086B610108DFF80CD0DE
:1000F00016F0CCFE0048004799BE0008B84D00201D
:100100002DE9F04F8CB01F469046894682461F98D5
:100110001E981D981C991B9A1A9BDDF864C0DDF887
:1001200060E0179C169D159ECDF82CA0ADF82A9086
:10013000ADF82880ADF82670ADF82460ADF82250F7
:10014000ADF82040ADF81EE0ADF81CC0ADF81A3097
:10015000ADF81820ADF81610ADF814000020ADF879
:100160001200FFE7BDF91200BDF82610884280F2A8
:10017000BB80FFE70020ADF80E00FFE7BDF90E00E1
:10018000BDF81610884280F2A880FFE70020ADF885
:100190001000FFE7BDF91000BDF81810884280F28A
:1001A0009580FFE7002001900090BDF80E00BDF89B
:1001B0001A104843BDF81E10401AADF80A00FFE7B8
:1001C000BDF90A00BDF90E10BDF81A205143BDF863
:1001D0001E20891ABDF822201144884258DAFFE710
:1001E000BDF81000BDF81C104843BDF82010401A9F
:1001F000ADF80C00FFE7BDF90C00BDF91010BDF81B
:100200001C205143BDF82020891ABDF82420114438
:10021000884236DAFFE7BDF90A0000282AD4FFE752
:10022000BDF90C00002825D4FFE7BDF90A00BDF890
:10023000281088421EDAFFE7BDF90C00BDF82A102D
:10024000884217DAFFE70B98BDF91230BDF8261087
:10025000BDF90CE0BDF90A20BDF82AC002FB0CE292
:1002600001FB023141560198084401900098013089
:100270000090FFE7FFE7BDF80C000130ADF80C007F
:10028000B9E7FFE7BDF80A000130ADF80A0097E7CB
:1002900001980099BDF81420114190FBF1F01F99CD
:1002A000BDF912C0BDF82620BDF91040BDF90E30D1
:1002B000BDF818E003FB0E4302FB03C28854FFE7BE
:1002C000BDF810000130ADF8100063E7FFE7BDF89E
:1002D0000E000130ADF80E0050E7FFE7BDF8120048
:1002E0000130ADF812003DE70CB0BDE8F08F00BF63
:1002F0002DE9F04F8DB01F469046894682462098E2
:100300001F981E981D991C9A1B9BDDF868C0DDF88C
:1003100064E0189C179D169ECDF830A0ADF82E9085
:10032000ADF82C80ADF82A70ADF82860ADF82650F5
:10033000ADF82440ADF822E0ADF820C0ADF81E3095
:10034000ADF81C20ADF81A10ADF818000020ADF87B
:100350001600FFE7BDF91600BDF82A10884280F2AA
:10036000C280FFE7BDF91600BDF82E104843BDF866
:100370002C10484302900020ADF81200FFE7BDF9B1
:100380001200BDF81A10884280F2A680FFE7002014
:10039000ADF81400FFE7BDF91400BDF81C10884249
:1003A00080F29380FFE7002001900090BDF81200DA
:1003B000BDF81E104843BDF82210401AADF80E00DB
:1003C000FFE7BDF90E00BDF91210BDF81E20514324
:1003D000BDF82220891ABDF826201144884254DA3B
:1003E000FFE7BDF81400BDF820104843BDF8241005
:1003F000401AADF81000FFE7BDF91000BDF9141068
:10040000BDF820205143BDF82420891ABDF82820CA
:100410001144884232DAFFE7BDF90E00002826D4E5
:10042000FFE7BDF91000002821D4FFE7BDF90E0059
:10043000BDF82C1088421ADAFFE7BDF91000BDF8AC
:100440002E10884213DAFFE70C980299BDF910C00C
:10045000BDF90E20BDF82E3002FB03C211444156F7
:10046000019808440190009801300090FFE7FFE7F1
:10047000BDF810000130ADF81000BDE7FFE7BDF892
:100480000E000130ADF80E009BE701980099BDF811
:100490001820114190FBF1F02099BDF91620BDF80C
:1004A0001CE002FB0EF2BDF81A30BDF91440BDF994
:1004B00012C00CFB0E4C02FB03C28854FFE7BDF8D0
:1004C00014000130ADF8140065E7FFE7BDF8120035
:1004D0000130ADF8120052E7FFE7BDF81600013019
:1004E000ADF8160036E70DB0BDE8F08F2DE9F04706
:1004F0008AB01E461746884681461B981A98199856
:100500001899179A169BDDF854C0DDF850E0139C3B
:10051000129DCDF82490ADF82280ADF82070ADF892
:100520001E60ADF81C50ADF81A40ADF818E0ADF8FB
:1005300016C0ADF81430ADF81220ADF81010ADF8BB
:100540000E000020ADF80C00FFE7BDF90C00BDF86F
:100550001E10884280F2C580FFE70020ADF8080039
:10056000FFE7BDF90800BDF80E10884280F2B280A6
:10057000FFE70020ADF80A00FFE7BDF90A00BDF86B
:100580001010884280F29F80FFE76FF0800000909B
:10059000BDF80800BDF812104843BDF81610401A07
:1005A000ADF80400FFE7BDF90400BDF90810BDF87F
:1005B00012205143BDF81620891ABDF81A201144A3
:1005C000884268DAFFE7BDF80A00BDF81410484316
:1005D000BDF81810401AADF80600FFE7BDF9060097
:1005E000BDF90A10BDF814205143BDF81820891A2E
:1005F000BDF81C201144884246DAFFE7BDF904002B
:1006000000283AD4FFE7BDF90600002835D4FFE7FB
:10061000BDF90400BDF8201088422EDAFFE7BDF9CD
:100620000600BDF82210884227DAFFE70998BDF9D5
:100630000C30BDF81E10BDF906E0BDF90420BDF870
:1006400022C002FB0CE201FB0231405600998842B5
:1006500012DDFFE70998BDF90C30BDF81E10BDF999
:1006600006E0BDF90420BDF822C002FB0CE201FB4C
:10067000023140560090FFE7FFE7FFE7BDF80600B4
:100680000130ADF80600A9E7FFE7BDF8040001302E
:10069000ADF8040087E700981B99BDF90CC0BDF8C0
:1006A0001E20BDF90A40BDF90830BDF810E003FB7B
:1006B0000E4302FB03C28854FFE7BDF80A00013075
:1006C000ADF80A0059E7FFE7BDF808000130ADF8C2
:1006D000080046E7FFE7BDF80C000130ADF80C005C
:1006E00033E70AB0BDE8F0872DE9F0478BB01E462E
:1006F0001746884681461C981B981A981999189A8B
:10070000179BDDF858C0DDF854E0149C139DCDF81C
:100710002890ADF82680ADF82470ADF82260ADF8D1
:100720002050ADF81E40ADF81CE0ADF81AC0ADF891
:100730001830ADF81620ADF81410ADF812000020F6
:10074000ADF81000FFE7BDF91000BDF82210884297
:1007500080F2CE80FFE7BDF91000BDF814104843C9
:10076000BDF81210484301900020ADF80C00FFE7DF
:10077000BDF90C00BDF81210884280F2B280FFE78C
:100780000020ADF80E00FFE7BDF90E00BDF8141013
:10079000884280F29F80FFE76FF080000090BDF8F4
:1007A0000C00BDF816104843BDF81A10401AADF8F9
:1007B0000800FFE7BDF90800BDF90C10BDF81620D0
:1007C0005143BDF81A20891ABDF81E2011448842F1
:1007D0006CDAFFE7BDF80E00BDF818104843BDF80D
:1007E0001C10401AADF80A00FFE7BDF90A00BDF978
:1007F0000E10BDF818205143BDF81C20891ABDF811
:100800002020114488424ADAFFE7BDF90800002899
:100810003ED4FFE7BDF90A00002839D4FFE7BDF94F
:100820000800BDF82410884232DAFFE7BDF90A005B
:10083000BDF8261088422BDAFFE70A98BDF91010A0
:10084000BDF826C001FB0CF1BDF82420BDF90AE07B
:10085000BDF9083003FB0CE301FB0231405600995F
:10086000884214DDFFE70A98BDF91010BDF826C0D4
:1008700001FB0CF1BDF82420BDF90AE0BDF90830F8
:1008800003FB0CE301FB023140560090FFE7FFE75A
:10089000FFE7BDF80A000130ADF80A00A5E7FFE761
:1008A000BDF808000130ADF8080083E700981C99F6
:1008B000019ABDF90EE0BDF90C30BDF814C003FB80
:1008C0000CE31A448854FFE7BDF80E000130ADF880
:1008D0000E0059E7FFE7BDF80C000130ADF80C0041
:1008E00046E7FFE7BDF810000130ADF810002AE739
:1008F0000BB0BDE8F08700BF2DE9F0478BB01E4676
:100900001746884681461C981B981A981999189A78
:10091000179BDDF858C0DDF854E0149C139DCDF80A
:100920002890ADF82680ADF82470ADF82260ADF8BF
:100930002050ADF81E40ADF81CE0ADF81AC0ADF87F
:100940001830ADF81620ADF81410ADF812001B9851
:1009500001900020ADF81000FFE7BDF91000BDF8D0
:100960002210884280F2B280FFE70020ADF80C0030
:10097000FFE7BDF90C00BDF81210884280F29F809D
:10098000FFE70020ADF80E00FFE7BDF90E00BDF84F
:100990001410884280F28C80FFE700200090BDF8A0
:1009A0000C00BDF816104843BDF81A10401AADF8F7
:1009B0000800FFE7BDF90800BDF90C10BDF81620CE
:1009C0005143BDF81A20891ABDF81E2011448842EF
:1009D00055DAFFE7BDF80E00BDF818104843BDF822
:1009E0001C10401AADF80A00FFE7BDF90A00BDF976
:1009F0000E10BDF818205143BDF81C20891ABDF80F
:100A000020201144884233DAFFE7BDF908000028AE
:100A100027D4FFE7BDF90A00002822D4FFE7BDF97B
:100A20000800BDF8241088421BDAFFE7BDF90A0070
:100A3000BDF82610884214DAFFE70A98BDF9103095
:100A4000BDF82210BDF90AE0BDF90820BDF826C0A6
:100A500002FB0CE201FB0231415600980844009071
:100A6000FFE7FFE7BDF80A000130ADF80A00BCE778
:100A7000FFE7BDF808000130ADF808009AE70098DC
:100A80000199BDF910C0BDF82220BDF90E40BDF995
:100A90000C30BDF814E003FB0E4302FB03C241F827
:100AA0002200FFE7BDF80E000130ADF80E006CE744
:100AB000FFE7BDF80C000130ADF80C0059E7FFE787
:100AC000BDF810000130ADF8100046E70BB0BDE8EE
:100AD000F08700BF2DE9F0478DB01E4617468846C7
:100AE00081461E981D981C981B991A9A199BDDF82F
:100AF00060C0DDF85CE0169C159DCDF83090ADF837
:100B00002E80ADF82C70ADF82A60ADF82850ADF805
:100B10002640ADF824E0ADF822C0ADF82030ADF8A5
:100B20001E20ADF81C10ADF81A001D98039000208F
:100B3000ADF81800FFE7BDF91800BDF82A1088428B
:100B400080F2BC80FFE7BDF91800BDF82E104843C5
:100B5000BDF82C1048430290BDF91800BDF81C10D8
:100B60004843BDF81A10484301900020ADF8140026
:100B7000FFE7BDF91400BDF81A10884280F2978093
:100B8000FFE70020ADF81600FFE7BDF91600BDF83D
:100B90001C10884280F28480FFE700200090BDF89E
:100BA0001400BDF81E104843BDF82210401AADF8DD
:100BB0001000FFE7BDF91000BDF91410BDF81E20AC
:100BC0005143BDF82220891ABDF8262011448842DD
:100BD00051DAFFE7BDF81600BDF820104843BDF814
:100BE0002410401AADF81200FFE7BDF91200BDF95C
:100BF0001610BDF820205143BDF82420891ABDF8F5
:100C00002820114488422FDAFFE7BDF910000028A0
:100C100023D4FFE7BDF9120000281ED4FFE7BDF979
:100C20001000BDF82C10884217DAFFE7BDF912005A
:100C3000BDF82E10884210DAFFE70C980299BDF932
:100C400012C0BDF91020BDF82E3002FB03C21144C2
:100C50004156009808440090FFE7FFE7BDF81200F6
:100C60000130ADF81200C0E7FFE7BDF81000013019
:100C7000ADF810009EE700980399019ABDF916E0BF
:100C8000BDF91430BDF81CC003FB0CE31A4441F855
:100C90002200FFE7BDF816000130ADF8160074E73A
:100CA000FFE7BDF814000130ADF8140061E7FFE77D
:100CB000BDF818000130ADF818003CE70DB0BDE8F4
:100CC000F08700BF70B58AB09C4696460C46054634
:100CD00013981298119810990F9A0E9B0995ADF8D8
:100CE0002240ADF820E0ADF81EC0ADF81C30ADF8E4
:100CF0001A20ADF81810ADF816000020ADF812005B
:100D0000FFE7BDF91200BDF82010884270DAFFE756
:100D10000020ADF81400FFE7BDF91400BDF8221063
:100D200088425EDAFFE7099ABDF91200BDF8221089
:100D3000BDF9143000FB0130BDF81E1000FB01208E
:100D40000390139ABDF91200BDF822104843BDF874
:100D50001C104843BDF81A10BDF914304B4300FB7A
:100D60000130BDF81E1000FB012002900020019010
:100D7000FFE70198BDF81C1088420EDAFFE70299E0
:100D80000198BDF81E2000FB0210039915F0AFFB7F
:100D9000FFE7019801300190EBE701200090FFE7A9
:100DA0000098BDF81A10884214DAFFE702990098FB
:100DB000BDF81E205043BDF822305843BDF81C300A
:100DC00000FB03105A4315F092FBFFE70098013037
:100DD0000090E5E7FFE7BDF814000130ADF814001E
:100DE0009AE7FFE7BDF812000130ADF8120088E77E
:100DF0000AB070BD70B58AB09C4696460C46054652
:100E000013981298119810990F9A0E9B0995ADF8A6
:100E10002240ADF820E0ADF81EC0ADF81C30ADF8B2
:100E20001A20ADF81810ADF816000020ADF810002B
:100E3000FFE7BDF91000BDF81E10884280F28580E2
:100E4000FFE70020ADF81200FFE7BDF91200BDF882
:100E50002010884272DAFFE70020ADF81400FFE7A7
:100E6000BDF91400BDF82210884260DAFFE7099B43
:100E7000BDF91000BDF822205043BDF8201000FB42
:100E80000130BDF91210BDF9143001FB02310844E4
:100E90000390139ABDF91000BDF818104843BDF82F
:100EA000161000FB0120BDF91210BDF8222051439D
:100EB000BDF81C205143BDF81A20BDF9143053432E
:100EC00001FB02310844029000200190FFE70198E5
:100ED000BDF81C1088420ADAFFE7039800780299EF
:100EE000019A8854FFE7019801300190EFE7012053
:100EF0000090FFE70098BDF81A10884210DAFFE76B
:100F000002990098BDF822205043BDF81C2000FB38
:100F1000021015F0ECFAFFE7009801300090E9E7C5
:100F2000FFE7BDF814000130ADF8140098E7FFE7C3
:100F3000BDF812000130ADF8120086E7FFE7BDF8FA
:100F400010000130ADF8100073E70AB070BD00BFAB
:100F50002DE9F04FA1B0994692468B463C993B99BA
:100F60003A99059139990491389937993699359973
:100F70003499339A329BDDF8C4C0DDF8C0E02F9C71
:100F80002E9D2D9E2C9FDDF8AC802A9904992090EF
:100F90000598ADF87EB0ADF87CA0ADF87A90ADF8CC
:100FA0007880ADF87670ADF87460ADF87250ADF839
:100FB0007040ADF86EE0ADF86CC0ADF86A30ADF8D9
:100FC0006820ADF86610ADF864003798012803D1A9
:100FD000FFE701200C9002E000200C90FFE70020CA
:100FE00018900D90FFE71898BDF87810884280F2AD
:100FF0004C81FFE700201790FFE71798BDF86410B9
:10100000884280F23981FFE7BDF86C0017994843A8
:10101000BDF87010401A0B9000201690FFE716984C
:10102000BDF86610884280F22281FFE7BDF86E00AD
:1010300016994843BDF87210401A0A900B98BDF8F3
:101040006810C043084490FBF1F0B0F1FF3F03DCAF
:10105000FFE70020039008E00B98BDF86810C0433C
:10106000084490FBF1F00390FFE7039809900A9879
:10107000BDF86A10C043084490FBF1F0B0F1FF3FA7
:1010800003DCFFE70020029008E00A98BDF86A1030
:10109000C043084490FBF1F00290FFE702980890EB
:1010A000BDF87400BDF87C100B9A891ABDF8682051
:1010B0001144013991FBF2F1884204DAFFE7BDF8EF
:1010C000740001900BE0BDF87C000B99401ABDF84C
:1010D00068100844013890FBF1F00190FFE7019897
:1010E0000790BDF87600BDF87E100A9A891ABDF8FF
:1010F0006A201144013991FBF2F1884204DAFFE7DA
:10110000BDF8760000900BE0BDF87E000A99401A09
:10111000BDF86A100844013890FBF1F00090FFE739
:1011200000980690349888B1FFE734981899405693
:1011300035990D9A51F822108840369951F822209D
:101140000121914000EB6100129008E036980D9962
:1011500050F821100120884040101290FFE70998B4
:101160001490FFE714980799884263DAFFE708981C
:101170001390FFE713980699884256DAFFE7BDF807
:101180006C001799149ABDF868305A4300FB01208F
:10119000BDF87010401A1190BDF86E001699139AA0
:1011A000BDF86A305A4300FB0120BDF87210401AA6
:1011B00010901198BDF87E10109A00FB0120BDF828
:1011C0007A1048430F901898BDF87A305843BDF80C
:1011D00074104843BDF87610149ADDF84CC002FB39
:1011E00001C25A4300FB01200E9000201590FFE73A
:1011F0001598BDF87A10884212DAFFE720980F9907
:10120000159B194440562A990E9A1A448956129AE7
:1012100000FB01201290FFE7159801301590E7E7D9
:10122000FFE7139801301390A4E7FFE7149801300B
:10123000149097E7129836990D9A51F822100841A8
:10124000082100F025F83899DDF860C0179ABDF83C
:101250006630DDF858E002FB03E2BDF8783002FBAF
:1012600003C28854FFE7169801301690D7E6FFE7CF
:10127000179801301790C0E6FFE7189801301890D2
:101280000C990D9808440D90ADE621B0BDE8F08FA3
:1012900085B0039002910298411E012000FA01F1ED
:1012A0004942019102990139884001380090039820
:1012B0000199884203DAFFE7019804900AE0039855
:1012C0000099884203DDFFE70098049002E003984C
:1012D0000490FFE7049805B0704700BF2DE9F04F78
:1012E00095B0994692468B4630992F992E99019147
:1012F0002D9900912C992B992A9929992899279A07
:10130000269BDDF894C0DDF890E0239C229D219E71
:10131000209FDDF87C801E99009914900198ADF80B
:101320004EB0ADF84CA0ADF84A90ADF84880ADF89D
:101330004670ADF84460ADF84250ADF84040ADF8AD
:101340003EE0ADF83CC0ADF83A30ADF83820ADF82D
:101350003610ADF834002B98012803D1FFE70120A7
:10136000029002E000200290FFE700200C90039022
:10137000FFE70C98BDF84810884280F2DF80FFE755
:1013800000200B90FFE70B98BDF83410884280F2E4
:10139000CC80FFE700200A90FFE70A98BDF83610DE
:1013A000884280F2BD80FFE7289888B1FFE728983F
:1013B0000C9940562999039A51F8221088402A998D
:1013C00051F822200121914000EB6100069008E0D5
:1013D0002A98039950F82110012088404010069067
:1013E000FFE700200890FFE70898BDF84410884206
:1013F00078DAFFE700200790FFE70798BDF846106E
:1014000088426ADAFFE7BDF83C000B99089ABDF8FC
:1014100038305A4300FB0120BDF84010401A0590B7
:10142000BDF83E000A99079ABDF83A305A4300FBCE
:101430000120BDF84210401A04900598002847D4B6
:10144000FFE70498002843D4FFE70598BDF84C1047
:1014500088423DDAFFE70498BDF84E10884237DA3B
:10146000FFE700200990FFE70998BDF84A1088427D
:101470002DDAFFE71498059ABDF84E10049B02FB85
:101480000133DDF824C00CFB01F1BDF84C2001FB59
:10149000023140561E99089ABDF84630DDF81CE02E
:1014A00002FB03E2BDF84A305A43BDF848300CFB5A
:1014B00003FC02FB03C20C9B1A448956069A00FBEC
:1014C00001200690FFE7099801300990CCE7FFE77B
:1014D000FFE70798013007908FE7FFE70898013092
:1014E000089081E706982A99039A51F8221008413A
:1014F0000821FFF7CDFE2C990C9ABDF836E002FBCF
:101500000EF2BDF83430DDF82CC00A9C0CFB0E4CFA
:1015100002FB03C28854FFE70A9801300A903CE7B7
:10152000FFE70B9801300B902DE7FFE70C98013097
:101530000C9002990398084403901AE715B0BDE88F
:10154000F08F00BF2DE9F04FA1B09B4604913B996D
:101550003A993999059138990691379936990791B1
:10156000359B3499DDF8CCC0DDF8C8E0319C309D66
:101570002F9E2E9FDDF8B480DDF8B090DDF8ACA092
:101580002A990499049920900598ADF87E1006993F
:10159000ADF87C20079AADF87AB0ADF878A0ADF838
:1015A0007690ADF87480ADF87270ADF87060ADF8FB
:1015B0006E50ADF86C40ADF86AE0ADF868C0ADF8BB
:1015C0006630ADF86420ADF86210ADF86000002020
:1015D0001790FFE71798BDF87810884280F23381A2
:1015E000FFE700201690FFE71698BDF860108842CC
:1015F00080F22481FFE71698BDF86C10BDF87020CA
:10160000BDF87430BDF87CC0EE460BACCEF80C4093
:101610000CACCEF808400AACCEF80440CEF800C0BE
:1016200000F014F908900898A8B3FFE734981799C8
:101630004056BDF866108840BDF8642001219140F5
:1016400000EB610011901198BDF864100841082169
:10165000FFF71EFE40B2119000201590FFE715988D
:10166000BDF86210884215DAFFE711983799DDF866
:101670005CC0169ABDF86230DDF854E002FB03E26C
:10168000BDF8783002FB03C28854FFE7159801309B
:101690001590E4E7CEE000201590FFE71598BDF81F
:1016A0006210884280F2C580FFE73498179940564F
:1016B000BDF866108840BDF864200121914000EB20
:1016C000610011901598BDF86E10BDF87220BDF83C
:1016D0007630BDF87EC0EE460DACCEF80C400EACB8
:1016E000CEF8084009ACCEF80440CEF800C000F0B7
:1016F000ADF80890089888B1FFE711983799DDF8A0
:101700005CC0169ABDF86230DDF854E002FB03E2DB
:10171000BDF8783002FB03C2885486E00C98139021
:101720000A981090FFE713980B99884266DCFFE750
:101730000E98129009980F90FFE712980D99884221
:1017400052DCFFE71098002844D4FFE70F980028E8
:1017500040D4FFE71098BDF87C1088423ADAFFE7E2
:101760000F98BDF87E10884234DAFFE7002014900D
:10177000FFE71498BDF87A1088422ADAFFE720982C
:101780001099BDF87E200F9B01FB0231BDF87A4015
:10179000149B01FB043140562A99179A6243BDF805
:1017A00074C002FB0CF2BDF876C0DDF84CE0129D6F
:1017B0000EFB0C5E0EFB04FE02FB0CE21A44895683
:1017C000119A00FB01201190FFE71498013014904A
:1017D000CFE7FFE7FFE7BDF86E10129808441290BC
:1017E0000F9801300F90A8E7FFE7BDF86C10139831
:1017F0000844139010980130109094E71198BDF8A8
:10180000641008410821FFF743FD3799DDF85CC0FB
:10181000169ABDF86230DDF854E002FB03E2BDF831
:10182000783002FB03C28854FFE715980130159009
:1018300034E7FFE7169801301690D5E6FFE71798D2
:1018400001301790C6E621B0BDE8F08F8AB0DDF810
:1018500034C0DDF830C0DDF82CC0DDF828C00990B8
:101860000891079206930020059005900998089921
:1018700090FBF1F00B990860099A089992FBF1F03E
:1018800000FB1120049007980499401A0C990860F5
:101890000C980068002824D4FFE70B9800680C9986
:1018A0000968089A91FBF2F1884204DAFFE70B9885
:1018B0000068029006E00C980068089990FBF1F02F
:1018C0000290FFE7029803900398089A0C990B681E
:1018D00000FB12300860039A0B990868801A0860B0
:1018E00035E00C9801680698401A0390039808990F
:1018F000884203DCFFE70120059027E00A990B9856
:101900000068C04308440399089A91FBF2F18842A9
:1019100007DAFFE70A990B980068C0430844019072
:1019200005E00398089990FBF1F00190FFE701981A
:1019300003900398089A0C990B6800FB023008602A
:10194000039A0B99086810440860FFE7FFE70699BF
:101950000C980068C043084404900A990B980068EA
:10196000C04308440499089A91FBF2F1884207DACF
:10197000FFE70A990B980068C0430844009005E00F
:101980000498089990FBF1F00090FFE7009803900D
:101990000C9802680398089900FB01200D990860D3
:1019A00005980AB0704700BF2DE9F04FA5B09946E1
:1019B00092468B4640993F993E9906913D990591F3
:1019C0003C993B993A9939993899379A369BDDF881
:1019D000D4C0DDF8D0E0339C329D319E309FDDF8DD
:1019E000BC802E99059924900698ADF88EB0ADF87C
:1019F0008CA0ADF88A90ADF88880ADF88670ADF80F
:101A00008460ADF88250ADF88040ADF87EE0ADF86E
:101A10007CC0ADF87A30ADF87820ADF87610ADF82E
:101A2000740000201590BDF88810BDF88A20B1FB25
:101A3000F2F112911C90FFE71C98BDF874108842D7
:101A400080F23F81FFE7BDF87C001C994843BDF858
:101A50008010401A109000201B90FFE71B98BDF8E3
:101A60007610884280F22881FFE7BDF87E001B993E
:101A70004843BDF88210401A0F9000201990FFE7EC
:101A80001998BDF88A10884280F21181FFE7002082
:101A90001890FFE718981299884280F20381FFE7B7
:101AA000189A1998129900FB01201A901098BDF805
:101AB0007810C043084490FBF1F0B0F1FF3F03DC25
:101AC000FFE70020049008E01098BDF87810C043AC
:101AD000084490FBF1F00490FFE704980E900F98F3
:101AE000BDF87A10C043084490FBF1F0B0F1FF3F1D
:101AF00003DCFFE70020039008E00F98BDF87A10A0
:101B0000C043084490FBF1F00390FFE703980D9069
:101B1000BDF88400BDF88C10109A891ABDF87820A1
:101B20001144013991FBF2F1884204DAFFE7BDF874
:101B3000840002900BE0BDF88C001099401ABDF8AB
:101B400078100844013890FBF1F00290FFE702980A
:101B50000C90BDF88600BDF88E100F9A891ABDF85A
:101B60007A201144013991FBF2F1884204DAFFE74F
:101B7000BDF8860001900BE0BDF88E000F99401A69
:101B8000BDF87A100844013890FBF1F00190FFE7AE
:101B900001980B903B98012803D1FFE71A98009019
:101BA00002E000200090FFE700981490389888B178
:101BB000FFE738981A9940563999149A51F822102B
:101BC00088403A9951F822200121914000EB6100B0
:101BD000119008E03A98149950F82110012088409B
:101BE00040101190FFE70E981790FFE717980C9997
:101BF000884244DAFFE7109A1798BDF8781000FB86
:101C000001200A900D981690FFE716980B998842CC
:101C100030DAFFE70F9A1698BDF87A1000FB012022
:101C200009900A98BDF88E10099A00FB0120BDF8B2
:101C30008A10199A00FB012008901798BDF88610A9
:101C4000169A00FB0120BDF88A10129A51431A9A85
:101C500000FB012007902498089940562E99079A76
:101C60008956119A00FB01201190FFE71698013068
:101C70001690CAE7FFE7179801301790B6E711985A
:101C80003A99149A51F8221008410821FFF700FBF5
:101C90003C99159A531C15938854FFE71898013006
:101CA0001890F7E6FFE7199801301990E8E6FFE78A
:101CB0001B9801301B90D1E6FFE71C9801301C9067
:101CC000BAE625B0BDE8F08F2DE9F04FA5B09946F2
:101CD00092468B4640993F993E9906913D990591D0
:101CE0003C993B993A9939993899379A369BDDF85E
:101CF000D4C0DDF8D0E0339C329D319E309FDDF8BA
:101D0000BC802E99059924900698ADF88EB0ADF858
:101D10008CA0ADF88A90ADF88880ADF88670ADF8EB
:101D20008460ADF88250ADF88040ADF87EE0ADF84B
:101D30007CC0ADF87A30ADF87820ADF87610ADF80B
:101D4000740000201590BDF88810BDF88A20B1FB02
:101D5000F2F112911C90FFE71C98BDF874108842B4
:101D600080F24981FFE7BDF87C001C994843BDF82B
:101D70008010401A109000201B90FFE71B98BDF8C0
:101D80007610884280F23281FFE7BDF87E001B9911
:101D90004843BDF88210401A0F9000201990FFE7C9
:101DA0001998BDF88A10884280F21B81FFE7002055
:101DB0001890FFE718981299884280F20D81FFE78A
:101DC000189A1998129900FB01201A901098BDF8E2
:101DD0007810C043084490FBF1F0B0F1FF3F03DC02
:101DE000FFE70020049008E01098BDF87810C04389
:101DF000084490FBF1F00490FFE704980E900F98D0
:101E0000BDF87A10C043084490FBF1F0B0F1FF3FF9
:101E100003DCFFE70020039008E00F98BDF87A107C
:101E2000C043084490FBF1F00390FFE703980D9046
:101E3000BDF88400BDF88C10109A891ABDF878207E
:101E40001144013991FBF2F1884204DAFFE7BDF851
:101E5000840002900BE0BDF88C001099401ABDF888
:101E600078100844013890FBF1F00290FFE70298E7
:101E70000C90BDF88600BDF88E100F9A891ABDF837
:101E80007A201144013991FBF2F1884204DAFFE72C
:101E9000BDF8860001900BE0BDF88E000F99401A46
:101EA000BDF87A100844013890FBF1F00190FFE78B
:101EB00001980B903B98012803D1FFE71A980090F6
:101EC00002E000200090FFE700981490389888B155
:101ED000FFE738981A9940563999149A51F8221008
:101EE00088403A9951F822200121914000EB61008D
:101EF000119008E03A98149950F821100120884078
:101F000040101190FFE70E981790FFE717980C9973
:101F1000884243DAFFE7109A1798BDF8781000FB63
:101F200001200A900D981690FFE716980B998842A9
:101F30002FDAFFE70F9A1698BDF87A1000FB012000
:101F400009900A98BDF88E10099A00FB0122199891
:101F50004843BDF88C1000FB012008901798BDF88D
:101F60008610169A00FB0120BDF888101A9A00FB13
:101F7000012007902498089940562E99079A89566F
:101F8000119A00FB01201190FFE71698013016907E
:101F9000CBE7FFE7179801301790B7E711983A9908
:101FA000149A51F8221008410821FFF771F93C9961
:101FB0001A9ABDF876E002FB0EF2BDF87430DDF837
:101FC00070C01B9C0CFB0E4C02FB03C28854FFE745
:101FD000189801301890EDE6FFE719980130199034
:101FE000DEE6FFE71B9801301B90C7E6FFE71C9871
:101FF00001301C90B0E625B0BDE8F08F2DE9F0412E
:102000008AB01C4615460E46074616981599149A2E
:10201000139A129BDDF844C0DDF840E00997ADF853
:102020002260ADF82050ADF81E40ADF81CE0ADF8D0
:102030001AC0ADF81830ADF81620ADF81410ADF890
:10204000120014980190BDF81400BDF81E1048430A
:10205000BDF81C10484302900198029914F060FAF0
:10206000029901980844019000200390FFE703982B
:10207000BDF82010884233DAFFE7BDF81E00BDF836
:102080001810484302900198029914F049FA0299F5
:10209000019808440190BDF82200BDF81E10484385
:1020A00002900198099B0399029A01FB023114F0F6
:1020B0001EFA0299019808440190BDF81E00BDF86F
:1020C0001610484302900198029914F029FA0299D7
:1020D000019808440190FFE7039801300390C6E798
:1020E0000198BDF81410BDF81E205143BDF81A2008
:1020F000514314F015FA0AB0BDE8F0812DE9F04122
:102100008CB01C4615460E46074618981799169A25
:10211000159A149BDDF84CC0DDF848E00B97ADF83C
:102120002A60ADF82850ADF82640ADF824E0ADF8AF
:1021300022C0ADF82030ADF81E20ADF81C10ADF86F
:102140001A001698029000200190FFE70198BDF850
:10215000261088425EDAFFE7169A0198BDF81C1037
:102160004843BDF81A1000FB01200290BDF81C0086
:10217000BDF82410484304900298049914F0D0F953
:1021800004990298084402900198BDF82A10484327
:10219000BDF828104843039000200590FFE70598FC
:1021A000BDF82810884228DAFFE70298BDF8201011
:1021B00014F0B6F9BDF82010029808440290029875
:1021C0000B9B0599BDF82A2001FB0231039B1944A2
:1021D00014F08DF9BDF82A10029808440290029874
:1021E000049914F09DF9BDF81E100298084402905D
:1021F000FFE7059801300590D1E70298BDF81C1063
:10220000BDF82220514314F08BF9FFE7019801300B
:1022100001909BE70CB0BDE8F08100BF2DE9F041D3
:102220008AB01C4615460E46074616981599149A0C
:10223000139A129BDDF844C0DDF840E00997ADF831
:102240002260ADF82050ADF81E40ADF81CE0ADF8AE
:102250001AC0ADF81830ADF81620ADF81410ADF86E
:10226000120009980190BDF82200BDF81E104843E5
:10227000BDF81C10019A00FB01200190BDF814006C
:10228000BDF81E104843029000200390FFE703981A
:10229000BDF81210884221DAFFE7BDF81E00BDF834
:1022A0001810019A00FB0120019014990398029ADA
:1022B00000FB0210019914F01AF9029901980844E0
:1022C0000190BDF81E00BDF81610019A00FB012018
:1022D0000190FFE7039801300390D8E70AB0BDE80A
:1022E000F08100BF2DE9F0418AB01C4615460E462C
:1022F000074616981599149A139A129BDDF844C054
:10230000DDF840E00997ADF82260ADF82050ADF857
:102310001E40ADF81CE0ADF81AC0ADF81830ADF8AD
:102320001620ADF81410ADF8120000200290FFE75F
:102330000298BDF81E10884240DAFFE7099ABDF8FE
:102340002200BDF820104843029900FB01200090B4
:10235000BDF82200BDF81C10009A00FB012000907F
:102360000298BDF814104843BDF81210484301907C
:1023700000200390FFE70398BDF81210884218DA96
:10238000FFE714990398BDF8142000FB021001998F
:1023900008440099BDF81830194414F0A8F8BDF8A5
:1023A0002210009808440090FFE703980130039042
:1023B000E1E7FFE7029801300290B9E70AB0BDE813
:1023C000F08100BF80B592B0844615981498CDF87E
:1023D00044C01091ADF83E20ADF83C30ADF83A0065
:1023E000BDF83C008008ADF8380010980D901598A5
:1023F0000B90FFE7BDF83800002800F09881FFE758
:1024000011980C90BDF83A10012000FA01F1491022
:102410000A91BDF83A1000FA01F149100991BDF88E
:102420003A1000FA01F149100891BDF83A108840BD
:1024300040100790BDF83E008008ADF81A00FFE795
:10244000BDF81A00002800F0EF80FFE70C98411C4F
:102450000C9100788DF819000C98411C0C910078B3
:102460008DF818000C98411C0C9100788DF817001D
:102470000C98411C0C9100788DF816000D98411CA9
:102480000D9100788DF815000D98411C0D91007884
:102490008DF814000D98411C0D9100788DF81300F3
:1024A0000D98411C0D9100788DF812009DF91900CE
:1024B0009DF915109DF917209DF913305A4300FB23
:1024C00001210A9808440A909DF919009DF91410F9
:1024D0009DF917209DF912305A4300FB01210998FC
:1024E000084409900D98411C0D9100788DF8150055
:1024F0000D98411C0D9100788DF814000D98411C29
:102500000D9100788DF813000D98411C0D91007805
:102510008DF812009DF919009DF915109DF91720ED
:102520009DF913305A4300FB012108980844089094
:102530009DF919009DF914109DF917209DF912308D
:102540005A4300FB01210798084407900D98411C4D
:102550000D9100788DF815000D98411C0D910078B3
:102560008DF814000D98411C0D9100788DF8130022
:102570000D98411C0D9100788DF812009DF91800FE
:102580009DF915109DF916209DF913305A4300FB53
:1025900001210A9808440A909DF918009DF9141029
:1025A0009DF916209DF912305A4300FB012109982C
:1025B000084409900D98411C0D9100788DF8150084
:1025C0000D98411C0D9100788DF814000D98411C58
:1025D0000D9100788DF813000D98411C0D91007835
:1025E0008DF812009DF918009DF915109DF916201F
:1025F0009DF913305A4300FB0121089808440890C4
:102600009DF918009DF914109DF916209DF91230BE
:102610005A4300FB0121079808440790BDF81A00AF
:102620000138ADF81A000BE7BDF83E0000F00300DA
:10263000ADF81A00FFE7BDF81A00002844D0FFE704
:102640000C98411C0C9100788DF811000D98411CDC
:102650000D9100788DF810009DF911009DF9101072
:102660000A9A00FB01200A900D98411C0D910078F8
:102670008DF810009DF911009DF91010099A00FBCA
:10268000012009900D98411C0D9100788DF81000E3
:102690009DF911009DF91010089A00FB0120089087
:1026A0000D98411C0D9100788DF810009DF91100D6
:1026B0009DF91010079A00FB01200790BDF81A0041
:1026C0000138ADF81A00B6E70A98BDF83A1008418B
:1026D00008210091FEF7DCFD00990B9A531C0B9327
:1026E00010700998BDF83A201041FEF7D1FD00990D
:1026F0000B9A531C0B9310700898BDF83A201041A8
:10270000FEF7C6FD00990B9A531C0B9310700798A7
:10271000BDF83A201041FEF7BBFD0B994A1C0B9205
:102720000870BDF838000138ADF8380062E6BDF831
:102730003C0000F00300ADF83800FFE7BDF83800BA
:10274000D8B3FFE7BDF83A1001208840401003904D
:1027500011980C9000200290FFE70298BDF83E10FF
:10276000884219DAFFE70C98411C0C9100788DF82B
:1027700007000D98411C0D9100788DF806009DF919
:1027800007009DF90610039A00FB01200390FFE764
:10279000029801300290E0E70398BDF83A10084132
:1027A0000821FEF775FD0B994A1C0B920870BDF8C5
:1027B00038000138ADF83800C0E712B080BD00BF66
:1027C00080B588B084460B980A98CDF81CC0069155
:1027D000ADF81620ADF81430ADF8120000200390CB
:1027E000FFE70398BDF81410884233DAFFE7BDF81D
:1027F0001210012088404010029000200190FFE755
:102800000198BDF81610884215DAFFE70798DDF841
:1028100004C010F90C000699039ABDF8163002FBAB
:1028200003C28956029A00FB01200290FFE701983B
:1028300001300190E4E70298BDF812100841082128
:10284000FEF726FD0B99039A8854FFE703980130A1
:102850000390C6E708B080BD10B594B08C4686469C
:102860001A981998189817981699CDF84CE0CDF841
:1028700048C0ADF84620ADF84430ADF84210ADF890
:102880004000BDF844008008ADF83E0012980E905C
:1028900019980C9018980B90FFE7BDF83E0000289F
:1028A00000F0D981FFE713980D90BDF8460080082D
:1028B000ADF81A001898E8B3FFE70B98411C0B918C
:1028C00090F90000BDF842108840BDF84020012179
:1028D00001FA02F200EB62000A900B98421C0B9284
:1028E00090F90000BDF842209040BDF8402001FA68
:1028F00002F200EB620009900B98421C0B9290F9D7
:102900000000BDF842209040BDF8402001FA02F2DC
:1029100000EB620008900B98421C0B9290F90000AB
:10292000BDF842209040BDF84020914000EB61008E
:10293000079018E0BDF84010012000FA01F149109D
:102940000A91BDF8401000FA01F149100991BDF853
:10295000401000FA01F149100891BDF8401088407C
:1029600040100790FFE7FFE7BDF81A00002800F0CD
:10297000EF80FFE70D98411C0D9100788DF819004C
:102980000D98411C0D9100788DF818000D98411C90
:102990000D9100788DF817000D98411C0D9100786D
:1029A0008DF816000E98411C0E9100788DF81500D8
:1029B0000E98411C0E9100788DF814000E98411C61
:1029C0000E9100788DF813000E98411C0E9100783E
:1029D0008DF812009DF919009DF915109DF9172029
:1029E0009DF913305A4300FB01210A9808440A90CC
:1029F0009DF919009DF914109DF917209DF91230C9
:102A00005A4300FB01210998084409900E98411C83
:102A10000E9100788DF815000E98411C0E910078EB
:102A20008DF814000E98411C0E9100788DF813005B
:102A30000E98411C0E9100788DF812009DF9190036
:102A40009DF915109DF917209DF913305A4300FB8D
:102A500001210898084408909DF919009DF9141067
:102A60009DF917209DF912305A4300FB0121079868
:102A7000084407900E98411C0E9100788DF81500BF
:102A80000E98411C0E9100788DF814000E98411C90
:102A90000E9100788DF813000E98411C0E9100786D
:102AA0008DF812009DF918009DF915109DF916205A
:102AB0009DF913305A4300FB01210A9808440A90FB
:102AC0009DF918009DF914109DF916209DF91230FA
:102AD0005A4300FB01210998084409900E98411CB3
:102AE0000E9100788DF815000E98411C0E9100781B
:102AF0008DF814000E98411C0E9100788DF813008B
:102B00000E98411C0E9100788DF812009DF9180066
:102B10009DF915109DF916209DF913305A4300FBBD
:102B200001210898084408909DF918009DF9141097
:102B30009DF916209DF912305A4300FB0121079898
:102B400008440790BDF81A000138ADF81A000BE7E9
:102B5000BDF8460000F00300ADF81A00FFE7BDF82D
:102B60001A00002844D0FFE70D98411C0D91007811
:102B70008DF811000E98411C0E9100788DF8100010
:102B80009DF911009DF910100A9A00FB01200A908E
:102B90000E98411C0E9100788DF810009DF91100DF
:102BA0009DF91010099A00FB012009900E98411C14
:102BB0000E9100788DF810009DF911009DF910100C
:102BC000089A00FB012008900E98411C0E91007895
:102BD0008DF810009DF911009DF91010079A00FB67
:102BE00001200790BDF81A000138ADF81A00B6E7C9
:102BF0000A98BDF84010084108210091FEF748FBF3
:102C000000990C9A531C0C9310700998BDF8402041
:102C10001041FEF73DFB00990C9A531C0C93107069
:102C20000898BDF840201041FEF732FB00990C9A3D
:102C3000531C0C9310700798BDF840201041FEF70C
:102C400027FB0C994A1C0C920870BDF83E00013815
:102C5000ADF83E0021E6BDF8440000F00300ADF8F9
:102C60003E00FFE7BDF83E0000284FD0FFE7189870
:102C700080B1FFE71898411C189190F90000BDF849
:102C800042108840BDF840200121914000EB6100D6
:102C9000039006E0BDF840100120884040100390EA
:102CA000FFE713980D9000200290FFE70298BDF80F
:102CB0004610884219DAFFE70D98411C0D91007803
:102CC0008DF807000E98411C0E9100788DF80600D3
:102CD0009DF907009DF90610039A00FB012003905F
:102CE000FFE7029801300290E0E70398BDF840103A
:102CF00008410821FEF7CCFA0C994A1C0C92087086
:102D0000BDF83E000138ADF83E00ABE714B010BD91
:102D100010B58AB08C46864610980F980E980D987C
:102D20000C99CDF824E0CDF820C0ADF81E20ADF808
:102D30001C30ADF81A10ADF818000E98002846D0D7
:102D4000FFE700200590FFE70598BDF81C108842BA
:102D50003CDAFFE70E98411C0E9190F90000BDF897
:102D60001A108840BDF818200121914000EB610045
:102D7000049000200390FFE70398BDF81E108842DE
:102D800015DAFFE70998DDF80CC010F90C00089976
:102D9000059ABDF81E3002FB03C28956049A00FB57
:102DA00001200490FFE7039801300390E4E70498C2
:102DB000BDF8181008410821FEF76AFA0F99059A24
:102DC0008854FFE7059801300590BDE73CE00020FE
:102DD0000290FFE70298BDF81C10884233DAFFE743
:102DE000BDF818100120884040100190002000908C
:102DF000FFE70098BDF81E10884215DAFFE7099832
:102E0000DDF800C010F90C000899029ABDF81E30D8
:102E100002FB03C28956019A00FB01200190FFE7E3
:102E2000009801300090E4E70198BDF818100841BF
:102E30000821FEF72DFA0F99029A8854FFE70298AD
:102E400001300290C6E7FFE70AB010BD80B588B038
:102E50000790069105924FF6FF60ADF8080000203C
:102E60000390FFE703980699884213D2FFE707987B
:102E700003994056BDF90810884206DDFFE7079820
:102E800003994056ADF80800FFE7FFE703980130CB
:102E90000390E7E7BDF808000838ADF80800002007
:102EA00004900390FFE703980699884221D2FFE738
:102EB000079803994056BDF90810884214DDFFE7D2
:102EC000079803994056BDF90810401A052100F0F3
:102ED00049F88DF80B009DF80B10012000FA01F164
:102EE000049808440490FFE7FFE70398013003903B
:102EF000D9E704994FF4801090FBF1F00190002085
:102F00000390FFE703980699884229D2FFE70798C4
:102F100003994056BDF90810884217DDFFE7BDF957
:102F200008000799039A8956401A0D30052100F0D0
:102F300019F88DF80B0001989DF80B100841082135
:102F4000FEF7A6F90599039A885404E00599039AB7
:102F500000208854FFE7FFE7039801300390D1E792
:102F600008B080BD84B00290019101990120884091
:102F7000013800900298B0F1FF3F03DCFFE700202A
:102F800003900AE002980099884203DDFFE7009869
:102F9000039002E002980390FFE7039804B07047A3
:102FA00080B586B005900491ADF80E20BDF90E10E5
:102FB0000120884013F0D1FC0021C4F2200113F05D
:102FC00028FB0021CBF6807113F0CBFA13F0E4FC60
:102FD000ADF80C004020ADF80A001A20ADF808004A
:102FE00000200190FFE701980499884230D2FFE762
:102FF000059801994056BDF90C104942884205DCFC
:10300000FFE70599019A002088541CE00598019972
:103010004056BDF90C10884205DBFFE70599019A7F
:103020007F2088540EE00599019A8856BDF8083033
:10303000584300B2BDF90E301841BDF80A301844AB
:103040008854FFE7FFE7FFE7019801300190CAE7E6
:1030500006B080BD86B005900491ADF80E20BDF895
:103060000E00C0F10700ADF80C00BDF90E100120F4
:103070008840ADF80A00BDF90E00072801D1FFE72E
:103080006AE0BDF90C00B0F1FF3F33DCFFE7002040
:103090000190FFE70198049988422AD2FFE705983A
:1030A00001994056BDF90A104942884205DCFFE704
:1030B0000599019A8020885416E005980199405698
:1030C000BDF90A10884205DBFFE70599019A7F20C8
:1030D000885408E00599019A8856BDF90C305B4286
:1030E00018418854FFE7FFE7FFE70198013001909E
:1030F000D0E731E000200090FFE700980499884273
:1031000029D2FFE7059800994056BDF90A104942B7
:10311000884205DCFFE70599009A8020885415E075
:10312000059800994056BDF90A10884205DBFFE773
:103130000599009A7F20885407E00599009A885CD9
:10314000BDF90C3098408854FFE7FFE7FFE700988F
:1031500001300090D1E7FFE706B0704787B00690D6
:103160000591ADF8122005980390069802900698F4
:103170000190BDF81200C0F10300ADF80000BDF9E8
:10318000120004281DDBFFE7FFE70398C0B1FFE74B
:103190000298411C029190F90000012806DBFFE72C
:1031A0000199481C01907F20087005E00199481C96
:1031B000019000200870FFE7039801380390E4E7CE
:1031C00021E0FFE70398E8B1FFE70298411C029174
:1031D00000788DF803009DF90300BDF80010084148
:1031E000C1B249F29050C0F60100405C8DF8020077
:1031F0009DF8020001994A1C019208700398013859
:103200000390DFE7FFE707B0704700BF87B0069085
:103210000591ADF812200598039006980290069843
:103220000190BDF81200C0F10300ADF80000BDF937
:10323000120004282BDBFFE7FFE7039830B3FFE71A
:103240000298411C029100788DF803009DF903005B
:10325000012806DBFFE70199481C01907F200870D8
:1032600010E09DF9030030B9FFE70199481C019077
:103270000020087005E00199481C0190802008702A
:10328000FFE7FFE7039801380390D6E721E0FFE767
:103290000398E8B1FFE70298411C029100788DF88D
:1032A00003009DF90300BDF800100841C1B249F6C2
:1032B0009000C0F60100405C8DF802009DF802000D
:1032C00001994A1C01920870039801380390DFE7C6
:1032D000FFE707B0704700BF83B002900191002064
:1032E0000090FFE700980199884211D2FFE7029809
:1032F00000994056B0F1FF3F05DCFFE70299009AC4
:1033000000208854FFE7FFE7009801300090E9E7CC
:1033100003B0704784B003908DF80B100192002029
:103320000090FFE700980199884217D2FFE70398C1
:1033300000994056B0F1FF3F0BDCFFE70399009A7C
:1033400088569DF90B30584300EB5060C0098854F3
:10335000FFE7FFE7009801300090E3E704B0704713
:1033600083B0DDF80CC002908DF807108DF80620B0
:103370008DF8053000200090FFE7009803998842FF
:1033800029D2FFE70298009940569DF9061088421D
:1033900006DDFFE79DF806000299009A8854FFE7D2
:1033A0000298009940569DF9051088420EDAFFE711
:1033B0000299009A88569DF90530C01A9DF9073088
:1033C000584300EB5060C0098854FFE7FFE70098BE
:1033D00001300090D1E703B0704700BF80B586B0E0
:1033E000DDF820C0059004910392ADF80A3000206A
:1033F0000190FFE70198089988421AD2FFE70598E3
:10340000019A805604998956484300900098BDF867
:103410000A1001228A4000EB620008410821FDF7F2
:1034200037FF0399019A8854FFE701980130019012
:10343000E0E706B080BD00BF80B586B0DDF820C0F3
:10344000059004910392ADF80A3000200190FFE747
:103450000198089988421AD2FFE70598019A805688
:1034600004998956084400900098BDF80A1001227A
:103470008A4000EB620008410821FDF709FF03992B
:10348000019A8854FFE7019801300190E0E706B007
:1034900080BD00BF80B586B0DDF820C005900491E6
:1034A0000392ADF80A3000200190FFE701980899D7
:1034B00088421AD2FFE70598019A805604998956E6
:1034C000401A00900098BDF80A1001228A4000EBD3
:1034D000620008410821FDF7DBFE0399019A885438
:1034E000FFE7019801300190E0E706B080BD00BF22
:1034F00080B588B0DDF828C00790ADF81A100592A5
:10350000049300200390FFE70398059988422AD28C
:10351000FFE7002001900290FFE70298049988429B
:103520000ED2FFE70A98029950F8210003994156FC
:10353000019808440190FFE7029801300290ECE7FF
:103540000198BDF91A1001228A4000EB620008417F
:103550000821FDF79DFE0799039A8854FFE7039819
:1035600001300390D0E708B080BD00BF80B588B0BF
:10357000DDF828C00790ADF81A10059204930020DA
:103580000390FFE70398059988422BD2FFE70120BB
:10359000019000200290FFE70298049988420ED221
:1035A000FFE70A98029950F82100039941560198C3
:1035B00048430190FFE7029801300290ECE7019840
:1035C000BDF91A1001228A4000EB6200084108216F
:1035D000FDF75EFE0799039A8854FFE703980130D0
:1035E0000390CFE708B080BD80B588B0DDF828C073
:1035F0000790ADF81A100592049300200390FFE79E
:103600000398059988422ED2FFE70A98006803992B
:103610004056019001200290FFE7029804998842E9
:103620000ED2FFE70A98029950F8210003994156FB
:103630000198401A0190FFE7029801300290ECE7F0
:103640000198BDF91A1001228A4000EB620008417E
:103650000821FDF71DFE0799039A8854FFE7039898
:1036600001300390CCE708B080BD00BF84B0039068
:10367000029101920198C0080090FFE70098411E56
:103680000091002849D0FFE70398411C039190F96D
:10369000000002998A1C029208800398411C039141
:1036A00090F9000002998A1C029208800398411C3C
:1036B000039190F9000002998A1C029208800398F5
:1036C000411C039190F9000002998A1C0292088023
:1036D0000398411C039190F9000002998A1C029200
:1036E00008800398411C039190F9000002998A1CFC
:1036F000029208800398411C039190F900000299FE
:103700008A1C029208800398411C039190F90000E2
:1037100002998A1C02920880B0E7019800F0070025
:103720000090FFE70098411E009150B1FFE7039819
:10373000411C039190F9000002998A1C02920880B2
:10374000F0E704B0704700BF84B00390029101928B
:103750000198C0080090FFE70098411E00910028E2
:1037600049D0FFE70398411C0391007800020299B9
:103770008A1C029208800398411C03910078000281
:1037800002998A1C029208800398411C03910078D8
:10379000000202998A1C029208800398411C03913E
:1037A0000078000202998A1C029208800398411C4A
:1037B00003910078000202998A1C02920880039803
:1037C000411C03910078000202998A1C0292088031
:1037D0000398411C03910078000202998A1C02920E
:1037E00008800398411C03910078000202998A1C0A
:1037F00002920880B0E7019800F007000090FFE710
:103800000098411E009150B1FFE70398411C0391BD
:103810000078000202998A1C02920880F0E704B046
:10382000704700BF84B00390029101920093FFE7BC
:103830000098411E009170B1FFE70398B0F90000B5
:10384000019908410299087002980130029003988A
:1038500002300390ECE704B0704700002DE9F04F10
:103860008CB01F469046894682461F981E981D9828
:103870001C991B9A1A9BDDF864C0DDF860E0179C68
:10388000169D159ECDF82CA0ADF82A90ADF8288095
:10389000ADF82670ADF82460ADF82250ADF82040A8
:1038A000ADF81EE0ADF81CC0ADF81A30ADF8182028
:1038B000ADF81610ADF814000020ADF81200FFE7C7
:1038C000BDF91200BDF82610884280F2BD80FFE7E6
:1038D0000020ADF80E00FFE7BDF90E00BDF8161090
:1038E000884280F2AA80FFE70020ADF81000FFE7D1
:1038F000BDF91000BDF81810884280F29780FFE7EC
:10390000002001900090BDF80E00BDF81A10484349
:10391000BDF81E10401AADF80A00FFE7BDF90A0015
:10392000BDF90E10BDF81A205143BDF81E20891AAA
:10393000BDF822201144884259DAFFE7BDF8100093
:10394000BDF81C104843BDF82010401AADF80C001B
:10395000FFE7BDF90C00BDF91010BDF81C20514364
:10396000BDF82020891ABDF824201144884237DA96
:10397000FFE7BDF90A0000282BD4FFE7BDF90C00D2
:10398000002826D4FFE7BDF90A00BDF828108842B8
:103990001FDAFFE7BDF90C00BDF82A10884218DADB
:1039A000FFE70B98BDF91230BDF82610BDF90CE009
:1039B000BDF90A20BDF82AC002FB0CE201FB02316E
:1039C00030F91110019808440190009801300090DE
:1039D000FFE7FFE7BDF80C000130ADF80C00B8E7D9
:1039E000FFE7BDF80A000130ADF80A0096E701983C
:1039F0000099BDF81420114190FBF1F01F99BDF919
:103A000012C0BDF82620BDF91040BDF90E30BDF83A
:103A100018E003FB0E4302FB03C221F81200FFE78C
:103A2000BDF810000130ADF8100061E7FFE7BDF808
:103A30000E000130ADF80E004EE7FFE7BDF81200B2
:103A40000130ADF812003BE70CB0BDE8F08F00BFCD
:103A50002DE9F04F8DB01F4690468946824620984A
:103A60001F981E981D991C9A1B9BDDF868C0DDF8F5
:103A700064E0189C179D169ECDF830A0ADF82E90EE
:103A8000ADF82C80ADF82A70ADF82860ADF826505E
:103A9000ADF82440ADF822E0ADF820C0ADF81E30FE
:103AA000ADF81C20ADF81A10ADF818000020ADF8E4
:103AB0001600FFE7BDF91600BDF82A10884280F213
:103AC000C480FFE7BDF91600BDF82E104843BDF8CD
:103AD0002C10484302900020ADF81200FFE7BDF91A
:103AE0001200BDF81A10884280F2A880FFE700207B
:103AF000ADF81400FFE7BDF91400BDF81C108842B2
:103B000080F29580FFE7002001900090BDF8120040
:103B1000BDF81E104843BDF82210401AADF80E0043
:103B2000FFE7BDF90E00BDF91210BDF81E2051438C
:103B3000BDF82220891ABDF826201144884255DAA2
:103B4000FFE7BDF81400BDF820104843BDF824106D
:103B5000401AADF81000FFE7BDF91000BDF91410D0
:103B6000BDF820205143BDF82420891ABDF8282033
:103B70001144884233DAFFE7BDF90E00002827D44C
:103B8000FFE7BDF91000002822D4FFE7BDF90E00C1
:103B9000BDF82C1088421BDAFFE7BDF91000BDF814
:103BA0002E10884214DAFFE70C980299BDF910C074
:103BB000BDF90E20BDF82E3002FB03C2114430F9CE
:103BC0001110019808440190009801300090FFE71F
:103BD000FFE7BDF810000130ADF81000BCE7FFE7CB
:103BE000BDF80E000130ADF80E009AE7019800997B
:103BF000BDF81820114190FBF1F02099BDF9162075
:103C0000BDF81CE002FB0EF2BDF81A30BDF91440FD
:103C1000BDF912C00CFB0E4C02FB03C221F81200CE
:103C2000FFE7BDF814000130ADF8140063E7FFE7CB
:103C3000BDF812000130ADF8120050E7FFE7BDF803
:103C400016000130ADF8160034E70DB0BDE8F08F76
:103C50002DE9F0478AB01E461746884681461B98D4
:103C60001A9819981899179A169BDDF854C0DDF820
:103C700050E0139C129DCDF82490ADF82280ADF851
:103C80002070ADF81E60ADF81C50ADF81A40ADF8CC
:103C900018E0ADF816C0ADF81430ADF81220ADF84C
:103CA0001010ADF80E000020ADF80C00FFE7BDF9D4
:103CB0000C00BDF81E10884280F2CA80FFE7002089
:103CC000ADF80800FFE7BDF90800BDF80E10884206
:103CD00080F2B780FFE70020ADF80A00FFE7BDF9EA
:103CE0000A00BDF81010884280F2A480FFE748F275
:103CF0000000CFF6FF700090BDF80800BDF812106C
:103D00004843BDF81610401AADF80400FFE7BDF9AE
:103D10000400BDF90810BDF812205143BDF816206B
:103D2000891ABDF81A20114488426ADAFFE7BDF803
:103D30000A00BDF814104843BDF81810401AADF839
:103D40000600FFE7BDF90600BDF90A10BDF8142012
:103D50005143BDF81820891ABDF81C20114488422F
:103D600048DAFFE7BDF9040000283CD4FFE7BDF9BD
:103D70000600002837D4FFE7BDF90400BDF8201085
:103D8000884230DAFFE7BDF90600BDF8221088420C
:103D900029DAFFE70998BDF90C30BDF81E10BDF90E
:103DA00006E0BDF90420BDF822C002FB0CE201FBD5
:103DB000023130F911000099884213DDFFE70998BC
:103DC000BDF90C30BDF81E10BDF906E0BDF90420A8
:103DD000BDF822C002FB0CE201FB023130F91100F8
:103DE0000090FFE7FFE7FFE7BDF806000130ADF800
:103DF0000600A7E7FFE7BDF804000130ADF80400B6
:103E000085E700981B99BDF90CC0BDF81E20BDF9CF
:103E10000A40BDF90830BDF810E003FB0E4302FB79
:103E200003C221F81200FFE7BDF80A000130ADF827
:103E30000A0054E7FFE7BDF808000130ADF80800BC
:103E400041E7FFE7BDF80C000130ADF80C002EE7AC
:103E50000AB0BDE8F08700BF2DE9F0478BB01E46E1
:103E60001746884681461C981B981A981999189AE3
:103E7000179BDDF858C0DDF854E0149C139DCDF875
:103E80002890ADF82680ADF82470ADF82260ADF82A
:103E90002050ADF81E40ADF81CE0ADF81AC0ADF8EA
:103EA0001830ADF81620ADF81410ADF8120000204F
:103EB000ADF81000FFE7BDF91000BDF822108842F0
:103EC00080F2D380FFE7BDF91000BDF8141048431D
:103ED000BDF81210484301900020ADF80C00FFE738
:103EE000BDF90C00BDF81210884280F2B780FFE7E0
:103EF0000020ADF80E00FFE7BDF90E00BDF814106C
:103F0000884280F2A480FFE748F20000CFF6FF70FD
:103F10000090BDF80C00BDF816104843BDF81A100B
:103F2000401AADF80800FFE7BDF90800BDF90C1014
:103F3000BDF816205143BDF81A20891ABDF81E207D
:103F4000114488426EDAFFE7BDF80E00BDF8181084
:103F50004843BDF81C10401AADF80A00FFE7BDF950
:103F60000A00BDF90E10BDF818205143BDF81C2001
:103F7000891ABDF82020114488424CDAFFE7BDF9C8
:103F80000800002840D4FFE7BDF90A0000283BD410
:103F9000FFE7BDF90800BDF82410884234DAFFE7D6
:103FA000BDF90A00BDF8261088422DDAFFE70A980D
:103FB000BDF91010BDF826C001FB0CF1BDF824209E
:103FC000BDF90AE0BDF9083003FB0CE301FB023147
:103FD00030F911000099884215DDFFE70A98BDF914
:103FE0001010BDF826C001FB0CF1BDF82420BDF96E
:103FF0000AE0BDF9083003FB0CE301FB023130F9A4
:1040000011000090FFE7FFE7FFE7BDF80A0001306D
:10401000ADF80A00A3E7FFE7BDF808000130ADF8EE
:10402000080081E700981C99019ABDF90EE0BDF9DE
:104030000C30BDF814C003FB0CE31A4421F8120045
:10404000FFE7BDF80E000130ADF80E0054E7FFE7C2
:10405000BDF80C000130ADF80C0041E7FFE7BDF8FA
:1040600010000130ADF8100025E70BB0BDE8F08777
:104070002DE9F04F8DB01F46904689468246209824
:104080001F981E981D991C9A1B9BDDF868C0DDF8CF
:1040900064E0189C179D169ECDF830A0ADF82E90C8
:1040A000ADF82C80ADF82A70ADF82860ADF8265038
:1040B000ADF82440ADF822E0ADF820C0ADF81E30D8
:1040C000ADF81C20ADF81A10ADF818001F9802903A
:1040D0000020ADF81600FFE7BDF91600BDF82A1064
:1040E000884280F2BA80FFE70020ADF81200FFE7B7
:1040F000BDF91200BDF81A10884280F2A780FFE7D0
:104100000020ADF81400FFE7BDF91400BDF81C1045
:10411000884280F29480FFE700200190BDF81200F1
:10412000BDF81E104843BDF82210401AADF80E002D
:10413000FFE7BDF90E00BDF91210BDF81E20514376
:10414000BDF82220891ABDF826201144884256DA8B
:10415000FFE7BDF81400BDF820104843BDF8241057
:10416000401AADF81000FFE7BDF91000BDF91410BA
:10417000BDF820205143BDF82420891ABDF828201D
:104180001144884234DAFFE7BDF90E00002828D434
:10419000FFE7BDF91000002823D4FFE7BDF90E00AA
:1041A000BDF82C1088421CDAFFE7BDF91000BDF8FD
:1041B0002E10884215DAFFE70C98BDF91630BDF8CD
:1041C0002A10BDF910E0BDF90E20BDF82EC002FB8B
:1041D0000CE201FB023130F9111001980844019002
:1041E000FFE7FFE7BDF810000130ADF81000BBE7B6
:1041F000FFE7BDF80E000130ADF80E0099E7019819
:10420000BDF818100841102100F02AF800B20299F8
:10421000BDF916C0BDF82A20BDF91440BDF9123011
:10422000BDF81CE003FB0E4302FB03C241F8220071
:10423000FFE7BDF814000130ADF8140064E7FFE7B4
:10424000BDF812000130ADF8120051E7FFE7BDF8EC
:1042500016000130ADF816003EE70DB0BDE8F08F56
:1042600085B0039002910298411E012000FA01F1ED
:104270004942019102990139884001380090039820
:104280000199884203DAFFE7019804900AE0039855
:104290000099884203DDFFE70098049002E003984C
:1042A0000490FFE7049805B0704700BF2DE9F04F78
:1042B0008FB01F46904689468246229821982098C2
:1042C0001F991E9A1D9BDDF870C0DDF86CE01A9CEA
:1042D000199D189ECDF838A0ADF83690ADF8348011
:1042E000ADF83270ADF83060ADF82E50ADF82C401E
:1042F000ADF82AE0ADF828C0ADF82630ADF824209E
:10430000ADF82210ADF82000219804900020ADF8FF
:104310001E00FFE7BDF91E00BDF83210884280F292
:10432000C480FFE7BDF91E00BDF836104843BDF854
:10433000341048430390BDF91E00BDF824104843D3
:10434000BDF82210484302900020ADF81A00FFE7A4
:10435000BDF91A00BDF82210884280F29F80FFE765
:104360000020ADF81C00FFE7BDF91C00BDF82410CB
:10437000884280F28C80FFE700200190BDF81A008F
:10438000BDF826104843BDF82A10401AADF81600B3
:10439000FFE7BDF91600BDF91A10BDF826205143FC
:1043A000BDF82A20891ABDF82E201144884252DA1D
:1043B000FFE7BDF81C00BDF828104843BDF82C10DD
:1043C000401AADF81800FFE7BDF91800BDF91C1040
:1043D000BDF828205143BDF82C20891ABDF83020A3
:1043E0001144884230DAFFE7BDF91600002824D4D2
:1043F000FFE7BDF9180000281FD4FFE7BDF916003C
:10440000BDF83410884218DAFFE7BDF91800BDF88E
:104410003610884211DAFFE70E980399BDF918C0EB
:10442000BDF91620BDF8363002FB03C2114430F945
:104430001110019808440190FFE7FFE7BDF818004C
:104440000130ADF81800BFE7FFE7BDF816000130F6
:10445000ADF816009DE70198BDF820100841102125
:10446000FFF7FEFE00B20499029ABDF91CE0BDF907
:104470001A30BDF824C003FB0CE31A4441F82200B3
:10448000FFE7BDF81C000130ADF81C006CE7FFE74A
:10449000BDF81A000130ADF81A0059E7FFE7BDF882
:1044A0001E000130ADF81E0034E70FB0BDE8F08FFC
:1044B00070B58AB09C4696460C46054613981298ED
:1044C000119810990F9A0E9B0995ADF82240ADF8FE
:1044D00020E0ADF81EC0ADF81C30ADF81A20ADF8E4
:1044E0001810ADF816000020ADF81200FFE7BDF976
:1044F0001200BDF82010884276DAFFE70020ADF800
:104500001400FFE7BDF91400BDF82210884264DAF8
:10451000FFE70998BDF91210BDF82220BDF914304B
:1045200001FB0231BDF81E20514300EB4100039016
:104530001398BDF91210BDF822205143BDF81C207C
:104540005143BDF81A20BDF91430534301FB023129
:10455000BDF81E20514300EB410002900020019065
:10456000FFE70198BDF81C10884210DAFFE70298B7
:104570000199BDF81E20514300EB41000399520000
:1045800011F0B5FFFFE7019801300190E9E7012044
:104590000090FFE70098BDF81A10884216DAFFE78E
:1045A00002990098BDF81E205043BDF822305843B0
:1045B000BDF81C30584301EB40005A43520011F043
:1045C00096FFFFE7009801300090E3E7FFE7BDF8B2
:1045D00014000130ADF8140094E7FFE7BDF81200B5
:1045E0000130ADF8120082E70AB070BD70B58AB034
:1045F0009C4696460C4605461398129811981099B9
:104600000F9A0E9B0995ADF82240ADF820E0ADF869
:104610001EC0ADF81C30ADF81A20ADF81810ADF87A
:1046200016000020ADF81000FFE7BDF91000BDF83E
:104630001E10884280F28C80FFE70020ADF8120047
:10464000FFE7BDF91200BDF82010884279DAFFE7D4
:104650000020ADF81400FFE7BDF91400BDF82210EA
:10466000884267DAFFE70998BDF91010BDF82220EB
:104670005143BDF82030594300EB4100BDF9121001
:10468000BDF9143001FB023100EB41000390139897
:10469000BDF91010BDF818205143BDF81620514344
:1046A00000EB4100BDF91210BDF822205143BDF8C6
:1046B0001C205143BDF81A20BDF91430534301FBAF
:1046C000023100EB4100029000200190FFE70198C9
:1046D000BDF81C1088420BDAFFE7039800880299A6
:1046E000019A21F81200FFE7019801300190EEE7EE
:1046F00001200090FFE70098BDF81A10884212DAF6
:10470000FFE702990098BDF822205043BDF81C2015
:10471000504301EB4000520011F0E9FEFFE7009822
:1047200001300090E7E7FFE7BDF814000130ADF875
:10473000140091E7FFE7BDF812000130ADF8120058
:104740007FE7FFE7BDF810000130ADF810006CE71F
:104750000AB070BD2DE9F04FA3B0994692468B4642
:104760003E993D993C9905913B9904913A99399923
:10477000389937993699359A349BDDF8CCC0DDF8F5
:10478000C8E0319C309D2F9E2E9FDDF8B4802C997F
:10479000049922900598ADF886B0ADF884A0ADF8E4
:1047A0008290ADF88080ADF87E70ADF87C60ADF899
:1047B0007A50ADF87840ADF876E0ADF874C0ADF859
:1047C0007230ADF87020ADF86E10ADF86C0039980D
:1047D000012803D1FFE701200C9002E000200C909B
:1047E000FFE700201A900D90FFE71A98BDF880109F
:1047F000884280F26381FFE700201990FFE7199853
:10480000BDF86C10884280F25081FFE7BDF874005B
:1048100019994843BDF87810401A0B900020189061
:10482000FFE71898BDF86E10884280F23981FFE7E3
:10483000BDF8760018994843BDF87A10401A0A90DE
:104840000B98BDF87010C043084490FBF1F0B0F134
:10485000FF3F03DCFFE70020039008E00B98BDF862
:104860007010C043084490FBF1F00390FFE70398F9
:1048700009900A98BDF87210C043084490FBF1F00B
:10488000B0F1FF3F03DCFFE70020029008E00A9848
:10489000BDF87210C043084490FBF1F00290FFE7AE
:1048A00002980890BDF87C00BDF884100B9A891A14
:1048B000BDF870201144013991FBF2F1884204DA0D
:1048C000FFE7BDF87C0001900BE0BDF884000B9978
:1048D000401ABDF870100844013890FBF1F00190C7
:1048E000FFE701980790BDF87E00BDF886100A9A90
:1048F000891ABDF872201144013991FBF2F1884206
:1049000004DAFFE7BDF87E0000900BE0BDF88600FA
:104910000A99401ABDF872100844013890FBF1F072
:104920000090FFE700980690369898B1FFE7369818
:104930001A99405637990D9A51F8221088403899A3
:1049400051F822200121914000EB6101C81712911A
:1049500013900BE038980D9950F82110012000FABF
:1049600001F14810C91713911290FFE709981690AA
:10497000FFE716980799884269DAFFE708981590CB
:10498000FFE71598069988425CDAFFE7BDF87400E6
:104990001999169ABDF870305A4300FB0120BDF8F2
:1049A0007810401A1190BDF876001899159ABDF844
:1049B00072305A4300FB0120BDF87A10401A109063
:1049C0001198BDF88610109A00FB0120BDF88210E6
:1049D00048430F901A98BDF882305843BDF87C10B8
:1049E0004843BDF87E10169ADDF854C002FB01C2A0
:1049F0005A4300FB01200E9000201790FFE7179804
:104A0000BDF88210884218DAFFE722980F99179BA9
:104A1000194430F911002C990E9A1A44895600FB5A
:104A200001F212991398891840EBE27012911390D9
:104A3000FFE7179801301790E1E7FFE7159801307D
:104A400015909EE7FFE716980130169091E71298AF
:104A50001399389A0D9B52F82320D040C2F12003BD
:104A600001FA03F31843203A1141002A58BF0846BF
:104A70001021FFF7F5FB3A99DDF868C0199ABDF8E7
:104A80006E30DDF860E002FB03E2BDF8803002FB2F
:104A900003C221F81200FFE7189801301890C0E611
:104AA000FFE7199801301990A9E6FFE71A9801303D
:104AB0001A900C990D9808440D9096E623B0BDE825
:104AC000F08F00BF2DE9F04F97B0994692468B4684
:104AD00032993199309901912F9900912E992D9900
:104AE0002C992B992A99299A289BDDF89CC0DDF8EE
:104AF00098E0259C249D239E229FDDF884802099A8
:104B0000009916900198ADF856B0ADF854A0ADF8E4
:104B10005290ADF85080ADF84E70ADF84C60ADF8E5
:104B20004A50ADF84840ADF846E0ADF844C0ADF8A5
:104B30004230ADF84020ADF83E10ADF83C002D9865
:104B4000012803D1FFE70120029002E0002002903B
:104B5000FFE700200E900390FFE70E98BDF850107D
:104B6000884280F2F680FFE700200D90FFE70D9865
:104B7000BDF83C10884280F2E380FFE700200C90F3
:104B8000FFE70C98BDF83E10884280F2D480FFE722
:104B90002A9898B1FFE72A980E9940562B99039AC4
:104BA00051F8221088402C9951F82220012191407F
:104BB00000EB6101C817069107900BE02C98039950
:104BC00050F82110012000FA01F14810C91707918F
:104BD0000690FFE700200A90FFE70A98BDF84C1006
:104BE00088427EDAFFE700200990FFE70998BDF8C8
:104BF0004E10884270DAFFE7BDF844000D990A9A1A
:104C0000BDF840305A4300FB0120BDF84810401A5F
:104C10000590BDF846000C99099ABDF842305A43F8
:104C200000FB0120BDF84A10401A049005980028A6
:104C30004DD4FFE70498002849D4FFE70598BDF854
:104C40005410884243DAFFE70498BDF856108842B2
:104C50003DDAFFE700200B90FFE70B98BDF85210FC
:104C6000884233DAFFE71698059ABDF85610049B80
:104C700002FB0133DDF82CC00CFB01F1BDF8542020
:104C800001FB023130F9110020990A9ABDF84E302B
:104C9000DDF824E002FB03E2BDF852305A43BDF8D0
:104CA00050300CFB03FC02FB03C20E9B1A448956D6
:104CB00000FB01F206990798891840EBE270069113
:104CC0000790FFE70B9801300B90C6E7FFE7FFE77F
:104CD00009980130099089E7FFE70A9801300A90A6
:104CE0007BE7069807992C9A039B52F82320D04023
:104CF000C2F1200301FA03F31843203A1141002ABC
:104D000058BF08461021FFF7ABFA2E990E9ABDF84E
:104D10003EE002FB0EF2BDF83C30DDF834C00C9CE6
:104D20000CFB0E4C02FB03C221F81200FFE70C98AB
:104D300001300C9025E7FFE70D9801300D9016E744
:104D4000FFE70E9801300E900299039808440390F3
:104D500003E717B0BDE8F08F2DE9F04FA3B09B46F5
:104D600005913D993C993B9906913A99079139995A
:104D700038990891379B3699DDF8D4C0DDF8D0E03A
:104D8000339C329D319E309FDDF8BC80DDF8B890B9
:104D9000DDF8B4A02C990599059922900698ADF8F4
:104DA00086100799ADF88420089AADF882B0ADF866
:104DB00080A0ADF87E90ADF87C80ADF87A70ADF84B
:104DC0007860ADF87650ADF87440ADF872E0ADF8AB
:104DD00070C0ADF86E30ADF86C20ADF86A10ADF86B
:104DE000680000201990FFE71998BDF880108842EC
:104DF00080F25A81FFE700201890FFE71898BDF86D
:104E00006810884280F24B81FFE71898BDF8741053
:104E1000BDF87820BDF87C30BDF884C0EE460CACFF
:104E2000CEF80C400DACCEF808400BACCEF80440E8
:104E3000CEF800C000F03CF909900998002846D04F
:104E4000FFE7369819994056BDF86E108840BDF8B6
:104E50006C200121914000EB6101C8171291139061
:104E600012981399BDF86C20D040C2F1200301FACA
:104E700003F31843203A1141002A58BF0846102175
:104E8000FFF7EEF901B2C8171291139000201790A6
:104E9000FFE71798BDF86A10884217DAFFE7BDF8F8
:104EA00048003999DDF864C0189ABDF86A30DDF819
:104EB0005CE002FB03E2BDF8803002FB03C221F894
:104EC0001200FFE7179801301790E2E7E3E00020B7
:104ED0001790FFE71798BDF86A10884280F2DA80D1
:104EE000FFE7369819994056BDF86E108840BDF816
:104EF0006C200121914000EB6101C81712911390C1
:104F00001798BDF87610BDF87A20BDF87E30BDF850
:104F100086C0EE460EACCEF80C400FACCEF8084082
:104F20000AACCEF80440CEF800C000F0C1F80990F9
:104F3000099898B1FFE7BDF848003999DDF864C0D9
:104F4000189ABDF86A30DDF85CE002FB03E2BDF8B8
:104F5000803002FB03C221F8120097E00D981590F3
:104F60000B981190FFE715980C9988426BDCFFE7CE
:104F70000F9814900A981090FFE714980E998842A1
:104F800057DCFFE71198002849D4FFE71098002864
:104F900045D4FFE71198BDF8841088423FDAFFE757
:104FA0001098BDF88610884239DAFFE70020169085
:104FB000FFE71698BDF8821088422FDAFFE72298A3
:104FC0001199BDF88620109B01FB0231BDF882408B
:104FD000169B01FB043140562C99199A6243BDF887
:104FE0007CC002FB0CF2BDF87EC0DDF854E0149DDD
:104FF0000EFB0C5E0EFB04FE02FB0CE21A4489560B
:1050000000FB01F212991398891840EBE27012919B
:105010001390FFE7169801301690CAE7FFE7FFE705
:10502000BDF8761014980844149010980130109030
:10503000A3E7FFE7BDF87410159808441590119880
:10504000013011908FE712981399BDF86C20D04071
:10505000C2F1200301FA03F31843203A1141002A58
:1050600058BF08461021FFF7FBF83999DDF864C0F6
:10507000189ABDF86A30DDF85CE002FB03E2BDF887
:10508000803002FB03C221F81200FFE717980130BD
:1050900017901FE7FFE7189801301890AEE6FFE77A
:1050A0001998013019909FE623B0BDE8F08F00BF3A
:1050B0008AB0DDF834C0DDF830C0DDF82CC0DDF892
:1050C00028C009900891079206930020059005904A
:1050D0000998089990FBF1F00B990860099A0899D2
:1050E00092FBF1F000FB1120049007980499401AFC
:1050F0000C9908600C980068002824D4FFE70B98EE
:1051000000680C990968089A91FBF2F1884204DA68
:10511000FFE70B980068029006E00C980068089979
:1051200090FBF1F00290FFE7029803900398089A31
:105130000C990B6800FB12300860039A0B99086801
:10514000801A086035E00C9801680698401A0390B0
:1051500003980899884203DCFFE70120059027E0C7
:105160000A990B980068C04308440399089A91FB78
:10517000F2F1884207DAFFE70A990B980068C0430A
:105180000844019005E00398089990FBF1F0019024
:10519000FFE7019803900398089A0C990B6800FBAD
:1051A00002300860039A0B99086810440860FFE712
:1051B000FFE706990C980068C043084404900A99D8
:1051C0000B980068C04308440499089A91FBF2F1D7
:1051D000884207DAFFE70A990B980068C043084441
:1051E000009005E00498089990FBF1F00090FFE72B
:1051F000009803900C9802680398089900FB01201E
:105200000D99086005980AB0704700BF2DE9F04F6E
:10521000A7B0994692468B46429941994099079189
:105220003F9906913E993D993C993B993A99399A13
:10523000389BDDF8DCC0DDF8D8E0359C349D339E2A
:10524000329FDDF8C4803099069926900798ADF812
:1052500096B0ADF894A0ADF89290ADF89080ADF80E
:105260008E70ADF88C60ADF88A50ADF88840ADF81E
:1052700086E0ADF884C0ADF88230ADF88020ADF89E
:105280007E10ADF87C0000201790BDF89010BDF89E
:105290009220B1FBF2F115911E90FFE71E98BDF828
:1052A0007C10884280F22A81FFE7BDF884001E99B5
:1052B0004843BDF88810401A119000201D90FFE768
:1052C0001D98BDF87E10884280F21381FFE7BDF87B
:1052D00086001D994843BDF88A10401A109000209E
:1052E0001B90FFE71B98BDF89210884280F2FC806B
:1052F000FFE700201A90FFE71A981599884280F27C
:10530000EE80FFE71A9A1B98159900FB01201C906C
:1053100011984042B0F1FF3F03DCFFE70020059009
:1053200003E0119840420590FFE705980F90109810
:105330004042B0F1FF3F03DCFFE70020049003E0B0
:10534000109840420490FFE704980E90BDF88C003E
:10535000BDF89410119A891A884204DAFFE7BDF863
:105360008C00039005E0BDF894001199401A039059
:10537000FFE703980D90BDF88E00BDF89610109AC7
:10538000891A884204DAFFE7BDF88E00029005E032
:10539000BDF896001099401A0290FFE702980C9011
:1053A0003D98012803D1FFE71C98019002E00020FE
:1053B0000190FFE7019816903A9898B1FFE73A9864
:1053C0001C9940563B99169A51F8221088403C99F6
:1053D00051F822200121914000EB6101C817129180
:1053E00013900BE03C98169950F82110012000FA18
:1053F00001F14810C91713911290FFE70F98199007
:10540000FFE719980D9988424ADAFFE7119A19982F
:10541000BDF8801000FB01200B900E981890FFE75C
:1054200018980C99884236DAFFE7109A1898BDF858
:10543000821000FB01200A900B98BDF896100A9A82
:1054400000FB0120BDF892101B9A00FB012009907F
:105450001998BDF88E10189A00FB0120BDF8921023
:10546000159A51431C9A00FB01200890269809992F
:1054700030F911003099089A895600FB01F212990F
:105480001398891840EBE27012911390FFE7189877
:1054900001301890C4E7FFE7199801301990B0E780
:1054A000129813993C9A169B52F82320D040C2F1CF
:1054B000200301FA03F31843203A1141002A58BF90
:1054C00008461021FEF7CCFE3E99179A531C1793FD
:1054D00021F81200FFE71A9801301A900CE7FFE755
:1054E0001B9801301B90FDE6FFE71D9801301D90D1
:1054F000E6E6FFE71E9801301E90CFE627B0BDE834
:10550000F08F00BF2DE9F04FA5B0994692468B462B
:1055100040993F993E9907913D9906913C993B9955
:105520003A9939993899379A369BDDF8D4C0DDF825
:10553000D0E0339C329D319E309FDDF8BC802E99A7
:10554000069924900798ADF88EB0ADF88CA0ADF810
:105550008A90ADF88880ADF88670ADF88460ADF8BB
:105560008250ADF88040ADF87EE0ADF87CC0ADF87B
:105570007A30ADF87820ADF87610ADF87400BDF84B
:105580008800BDF88A10B0FBF1F0149000201C9048
:10559000FFE71C98BDF87410884280F23481FFE761
:1055A000BDF87C001C994843BDF88010401A11904A
:1055B00000201B90FFE71B98BDF87610884280F210
:1055C0001D81FFE7BDF87E001B994843BDF882109E
:1055D000401A109000201990FFE71998BDF88A1022
:1055E000884280F20681FFE700201890FFE71898B4
:1055F0001499884280F2F880FFE7189A1998149954
:1056000000FB01201A9011984042B0F1FF3F03DCEB
:10561000FFE70020059003E0119840420590FFE766
:1056200005980F9010984042B0F1FF3F03DCFFE770
:105630000020049003E0109840420490FFE7049893
:105640000E90BDF88400BDF88C10119A891A88421A
:1056500004DAFFE7BDF88400039005E0BDF88C0094
:105660001199401A0390FFE703980D90BDF886004A
:10567000BDF88E10109A891A884204DAFFE7BDF847
:105680008600029005E0BDF88E001099401A029045
:10569000FFE702980C903B98012803D1FFE71A9886
:1056A000019002E000200190FFE7019815903898E2
:1056B00098B1FFE738981A9940563999159A51F8D8
:1056C000221088403A9951F822200121914000EBA4
:1056D0006101C817129113900BE03A98159950F890
:1056E0002110012000FA01F14810C91713911290FE
:1056F000FFE70F981790FFE717980D99884249DA4E
:10570000FFE7119A1798BDF8781000FB01200B9065
:105710000E981690FFE716980C99884235DAFFE745
:10572000109A1698BDF87A1000FB01200A900B9889
:10573000BDF88E100A9A00FB012219984843BDF863
:105740008C1000FB012009901798BDF88610169A5E
:1057500000FB0120BDF888101A9A00FB0120089078
:105760002498099930F911002E99089A895600FB5E
:1057700001F212991398891840EBE270129113907C
:10578000FFE7169801301690C5E7FFE7179801303C
:105790001790B1E7129813993A9A159B52F8232063
:1057A000D040C2F1200301FA03F31843203A11411B
:1057B000002A58BF08461021FEF752FD3C991A9A5C
:1057C000BDF876E002FB0EF2BDF87430DDF870C073
:1057D0001B9C0CFB0E4C02FB03C221F81200FFE7DE
:1057E00018980130189002E7FFE7199801301990D6
:1057F000F3E6FFE71B9801301B90DCE6FFE71C98FF
:1058000001301C90C5E625B0BDE8F08F2DE9F041D0
:105810008AB01C4615460E46074616981599149AE6
:10582000139A129BDDF844C0DDF840E00997ADF80B
:105830002260ADF82050ADF81E40ADF81CE0ADF888
:105840001AC0ADF81830ADF81620ADF81410ADF848
:10585000120014980190BDF81400BDF81E104843C2
:10586000BDF81C104843029001980299490010F0BD
:1058700057FE0299019800EB41000190002003902F
:10588000FFE70398BDF8201088423ADAFFE7BDF839
:105890001E00BDF818104843029001980299490073
:1058A00010F03EFE0299019800EB41000190BDF816
:1058B0002200BDF81E104843029001980999039BED
:1058C000029A534301EB4301520010F010FE02997B
:1058D000019800EB41000190BDF81E00BDF81610C4
:1058E0004843029001980299490010F019FE02996C
:1058F000019800EB41000190FFE70398013003900D
:10590000BFE70198BDF81410BDF81E205143BDF843
:105910001A205143490010F003FE0AB0BDE8F0819F
:105920002DE9F0418CB01C4615460E4607461898E6
:105930001799169A159A149BDDF84CC0DDF848E0CB
:105940000B97ADF82A60ADF82850ADF82640ADF8B9
:1059500024E0ADF822C0ADF82030ADF81E20ADF83F
:105960001C10ADF81A001698029000200190FFE775
:105970000198BDF8261088426ADAFFE71698019967
:10598000BDF81C205143BDF81A20514300EB4100E3
:105990000290BDF81C00BDF8241048430490029802
:1059A0000499490010F0BCFD0499029800EB4100F5
:1059B00002900198BDF82A104843BDF828104843CA
:1059C000039000200590FFE70598BDF82810884255
:1059D00030DAFFE70298BDF82010490010F0A0FD72
:1059E000BDF82010029800EB4100029002980B993C
:1059F000059BBDF82A20534301EB4301039B01EBB8
:105A00004301520010F073FDBDF82A10029800EB1C
:105A10004100029002980499490010F081FDBDF800
:105A20001E10029800EB41000290FFE7059801303C
:105A30000590C9E70298BDF81C10BDF8222051431B
:105A4000490010F06DFDFFE70198013001908FE7EC
:105A50000CB0BDE8F08100BF2DE9F0418AB01C46D2
:105A600015460E46074616981599149A139A129BD6
:105A7000DDF844C0DDF840E00997ADF82260ADF8EC
:105A80002050ADF81E40ADF81CE0ADF81AC0ADF8DE
:105A90001830ADF81620ADF81410ADF812000998C2
:105AA0000190BDF82200BDF81E104843BDF81C103F
:105AB0004143019800EB41000190BDF81400BDF88E
:105AC0001E104843029000200390FFE70398BDF8A2
:105AD0001210884226DAFFE7BDF81E00BDF8181044
