:020000040000FA
:0600000002010A021EC607
:03002B00021BA60F
:03003B00021BBFE6
:03004300021B801D
:03005300021F3C4D
:10008300021DB7E5C754F84401F5C7790122000002
:100093000080FB120086B900030200F4E4792178A2
:1000A30008B800028004F709D8FCE479297802B87B
:1000B30000028004F709D8FCE49002817817790ADA
:1000C3008002F0A3D8FCD9FA900B97AA82AB839055
:1000D300013A786779048015E493A3AC82AD838AEF
:1000E300828B83F0A3AA82AB838C828D83D8E9D9D8
:1000F300E77582D475839D740312011C7582917513
:100103008300740012011C75D00075813F7518813E
:10011300751902759F00020096C09FF59FE473D086
:100123009F22D083D082C09FE493C0E0740193C028
:10013300E0740293F59F22FFFF110199010F1264EE
:1001430004010270910100003A91026A91010000DA
:100153009E0B028E910100009F0B02689103000029
:10016300A702025691010000A00B02020202020242
:10017300020202010D000000100102709101000053
:100183003791026A91010000CA0B028891010000B5
:10019300AD02026A91010000CB0B028691010000BF
:1001A3006990026A91010000CC0B02849101000066
:1001B3005B90026A91010000CD0B02829101000065
:1001C3000B90026A91010000CE0B028091010000A6
:1001D300D58F026A91010000CF0B027E91010000CE
:1001E300E78F026A91010000D00B027C91010000AD
:1001F300F98F026A91010000D10B027A910100008C
:100203004D90026A91010000D20B02789101000027
:10021300D30B01E803053F10016A0700000E0943F1
:10022300796265727279706F747465720201050385
:1002330019C00303021218000000000101B807BE31
:100243000700003F0202192A0406011200010E00F2
:1002530002120E120A00030270910100003491028F
:100263006C91010000E605026A91010000A40C02F2
:100273004A910100002891026A91010000A80C0232
:100283004891020000E805026A91010000A90C02EE
:100293007691030000AA0C026A91010000A50C02EA
:1002A3009291010000FE8E025891010000A60C02FB
:1002B3006A91010000AB0C026491010000E90502A0
:1002C3006891030000EA05025691010000AC0C029C
:1002D3006A91010000AE0C026491030000F0050274
:1002E3005691010000AF0C026A91010000B10C02AB
:1002F3005091010000F105026891030000F205022C
:100303006A91010000B20C024C91030000F805024F
:100313006A91010000B30C024E91010000F905023D
:100323006891030000FA05026A91010000B40C020F
:1003330064910300000006025691010000B50CFF12
:1003430000013075030201060000000000000000F8
:10035300000000000000000000000000000000009A
:1003630000000000FFFF0600800CE8030410027089
:10037300910100004391026A91010000CC0D0254E7
:1003830091020000B206026A91010000CD0D0246FF
:1003930091000000B606026891030000B706FF0053
:1003A30000B4000028002800283075A000A000A099
:1003B30000A00000080008E001F000100010001089
:1003C30000100010001000500050005000100010EA
:1003D30000D0070000000000000F000100050030FE
:1003E3007507001000010081FF0000FFD60AF40A20
:1003F300DC0AFF02020208025000A0000000E8032A
:100403000270910100004091026A91010000530EB5
:10041300026691010000EE06026A91010000540E8B
:10042300028C910100000407026A91010000550E3D
:100433000262910100000607026A91010000560E54
:100443000260910800000707026A91010000570E3D
:10045300025E91010000580EFF0100FF200270911F
:100463000100003D91026A91010000BC0E025C9103
:1004730000000000000268910300005407EE10EE34
:1004830010EE10EE10EE10EE10EE10EE10EE10EE79
:1004930010EE10EE10EE10BE13D613B81312012592
:1004A300AEC902120125B8C902120125F9C9021207
:1004B300012542CA021201257CCA02120125D2CAB1
:1004C30002120125F3CA02120125FCCA02120125F8
:1004D30050CB0212012579CB0212012583CB0212E4
:1004E3000125F1CB0212012581CC02120125DCCCBE
:1004F300021201250ACD0212012592CD0212012515
:10050300D1CD0212012506CE0212012518CE021208
:10051300012537CE0212012540CE0212012502CF5A
:1005230002120125999703120125DC8C0312012580
:10053300128D03120125468D03120125938E03129A
:100543000125957F00120125AB7F00120125B57FA0
:10055300001201258CE6021201259FE602120125F5
:1005630063E702120125A2E702120125BFE7021287
:100573000125F8E70212012545E80212012577E873
:1005830002120125AEE8021201251A9D031201256C
:10059300909803120125B39803120125E2980312E0
:1005A3000125FA98031201253C9903120125ADEEAA
:1005B30002120125DDEE02120125F0EE02120125E1
:1005C3001FEF021201259DEF02120125B4EF021263
:1005D300012560F002120125F9F00212012582F1D2
:1005E300021201254FF20212012539FD02120125E3
:1005F3005EFD021201257E9D03120125F23A0012CF
:100603000125C63C00120125A53D001201252F3FFF
:1006130000120125DA3F001201255A40001201257C
:10062300DF40001201250841001201255A41001242
:100633000125354500120125AC4500120125B246BE
:1006430000120125EC46001201252D470012012559
:10065300744800120125CA480012012513490012EB
:100663000125804900120125EC49001201251D4A8C
:1006730000120125354A00120125654B00120125A0
:10068300754B001201252B4D00120125424D00121E
:100693000125744D001201252A4F001201259E4F9A
:1006A300001201255C9A031201256D9A031201259C
:1006B3000D9B03120125279E03120125669E03123B
:1006C3000125E8FF01120125AB9C03120125BB9C08
:1006D30003120125CD9C03120125119D031201254F
:1006E3009796031201251C97031201258097031285
:1006F3000125F3FF021201258E9E031201250080BE
:10070300031201259080031201251981031201258B
:10071300AA81031201255A8203120125688203125A
:100723000125E68203120125FE82031201250883B7
:10073300031201251B83031201257BF401120125FA
:10074300C6F401120125CBF501120125EDF50112C5
:10075300012500F60112012507F701120125F3F81F
:10076300011201255EFB0112012557FC011201252F
:10077300BCFC011201250EFD0112012572FD0112BF
:100783000125A8FD01120125ABFD01120125FBFD89
:10079300011201250BFF011201255AFF0112012548
:1007A30091FF0112012557F60212012528F80212C2
:1007B30001255FF802120125B9F80212012565F936
:1007C3000212012568F902120125B58A03120125D7
:1007D300088C03120125708C03120125189B031248
:1007E3000125889B031201259A9B03120125EA9395
:1007F300031201253C9403120125AF940312012532
:100803001C95031201256E88031201259888031293
:100813000125678903120125438A031201254FB37A
:10082300021201251BB4021201255CB40212012538
:1008330096B402120125F4B40212012548B502123E
:100843000125A6B5021201253CB60212012544B7C3
:1008530002120125CEB8021201256CB9021201253C
:10086300D3B902120125E6B902120125DABA02123E
:10087300012523BB02120125A6DA01120125D8DDC9
:100883000112012569DF01120125C0DF01120125D3
:10089300DDDF011201255DE001120125D9E101121D
:1008A3000125A8E20112012515E601120125FFE643
:1008B30001120125399203120125699203120125C0
:1008C300819203120125D69203120125DB920312B2
:1008D3000125B393031201258690031201259D90F0
:1008E30003120125CC900312012505910312012562
:1008F3002D91031201255B910312012572910312BD
:1009030001258991031201259F9103120125C691A7
:1009130003120125D99103120125EF910312012539
:10092300029203120125279203120125A0970212B6
:1009330001259F9802120125D49802120125F598EA
:100943000212012505990212012526990212012599
:10095300329A02120125FF9A02120125729B02129A
:100963000125F89B021201253B9C02120125729C72
:1009730002120125F89C02120125CA9D02120125CB
:10098300289E02120125409E02120125BA9E0212E0
:100993000125BD9E02120125C09E02120125679FFB
:1009A300021201257F9F02120125AF9F021201252A
:1009B300CF9F02120125BDA00212012573A10212CD
:1009C300012518D90212012540D9021201256ED939
:1009D30002120125A5D9021201250DDA0212012501
:1009E30056DA02120125A1DA02120125DFDA021218
:1009F30001251CDB021201254ADB02120125F1DB72
:100A030002120125FBDB0212012508DC021201257B
:100A13003BDC02120125FDDC0212012509DD021275
:100A2300012521DD021201252BDD02120125859905
:100A330003120125939903120125AB990312012592
:100A4300C39903120125F0AF011201258EB00112E3
:100A5300012506B1011201251BB20112012555B270
:100A630001120125FEB201120125D3B301120125A2
:100A730037B5011201258EB50112012515B60112F4
:100A83000125FCB60112012549B701120125D7B78B
:100A930001120125FBB701120125D0B9011201256D
:100AA30011BA0112012533BA01120125B4BA011298
:100AB30001259EBB0112012564BC01120125A2C2BE
:100AC3000212012574C3021201251DC4021201255D
:100AD30060C402120125EDC40212012579C5021278
:100AE30001255AC60212012589C60212012585C7AE
:100AF30002120125CDC702120125CFC8021201251A
:100B030013C90212012539C902120125A59B03123B
:100B1300012586F2021201259CF202120125C2F27E
:100B230002120125EAF302120125F4F30212012550
:100B33004DF5021201254DF60212012530CF0212A6
:100B4300012565D00212012598D002120125E2D0B9
:100B530002120125A0D2021201259591011201254D
:100B6300F891011201253D93011201254D930112C4
:100B73000125709301120125BB9301120125609495
:100B83000112012556950112012520960112012516
:100B9300989701120125DA9701120125789801121D
:100BA3000125C59801120125EB9801120125D99A57
:100BB30001120125DE9A01120125BF9C01120125B4
:100BC300139D01120125759D011201259D9D0112A1
:100BD3000125419E01120125039F01120125349F26
:100BE30001120125379F011201257F9F0112012563
:100BF300C19F0112012528A00112012518860312A5
:100C030001252B86031201254486031201258F86B5
:100C1300031201256A8703120125F98703120125AF
:100C2300448803120125D42200120125E022001278
:100C330001251923001201255E2300120125152425
:100C4300001201259B2400120125C724001201254F
:100C5300002500120125142700120125F028001297
:100C63000125DB2A00120125122C00120125722E08
:100C7300001201255E2F00120125A4300012012568
:100C8300B13100120125CE310012012506320012C6
:100C93000125203200120125883200120125223756
:100CA30000120125C3370012012514380012012553
:100CB3003B3800120125893800120125A73800129C
:100CC3000125FB3800120125033A001201258B3A56
:100CD30000120125C0DD02120125CADD0212012521
:100CE30095DE02120125B0DE02120125D6DE0212C4
:100CF30001251ADF0212012552DF021201257BDFD3
:100D030002120125F4DF0212012509E00212012576
:100D13001EE00212012555E00212012569E00212CC
:100D230001259AE002120125D4E00212012500E117
:100D33000212012577E102120125C0E10212012509
:100D4300EAE1021201250FE202120125C1EA0212B1
:100D530001258BEB021201256EEC02120125E4EC56
:100D63000212012526ED0212012553EE021201257E
:100D730000800212012529800212012542800212FD
:100D830001258781021201256582021201258482D1
:100D93000212012511830212012554830212012537
:100DA300A18402120125408502120125BF87021288
:100DB30001255688021201252A89021201250C8A6F
:100DC30002120125788B021201250B8C02120125D8
:100DD300829503120125EB95031201253F96031219
:100DE300012566960312012537E202120125A4E2CA
:100DF30002120125EFE202120125E4E302120125AA
:100E0300E0E402120125CAE502120125E1AA021259
:100E1300012523AB02120125FDAB02120125D6AC3D
:100E230002120125D1AD02120125B0AE0212012535
:100E33001CAF02120125E3AF021201254EB00212CC
:100E43000125B5B002120125E0B00212012551B10E
:100E530002120125E4B1021201254DB2021201254D
:100E630062B202120125AAB202120125C3B2021212
:100E7300012528B3021201252BB3021201251E837B
:100E830003120125468303120125848303120125DE
:100E9300428403120125AD8403120125C984031280
:100EA3000125F184031201252185031201253085D3
:100EB30003120125AA8503120125D08503120125FA
:100EC300F2A0011201258FA20112012575A40112BE
:100ED30001253FA50112012586A501120125CDA5F6
:100EE30001120125DFA5011201251FA6011201250B
:100EF3004EA6011201259AA601120125D2A60112BE
:100F0300012500A70112012551A701120125E0A720
:100F130001120125CEAA01120125A8AC0112012557
:100F2300E4AC011201253EAE0112012585AE01128A
:100F33000125FAAE0112012548AF01120125DEA1F8
:100F430002120125FBA10212012595A70212012518
:100F530097A80212012511AA02120125BFAA0212A3
:100F63000125DC4F001201252550001201255250A6
:100F7300001201258550001201259250001201250F
:100F83009E5000120125B050001201258551001218
:100F93000125E35100120125185200120125B45313
:100FA30000120125015400120125255400120125C8
:100FB300925400120125375500120125F3550012F2
:100FC3000125725600120125365700120125455797
:100FD30000120125C657001201256558001201258C
:100FE3009758001201253259001201259059001219
:100FF3000125CA59001201254B5A00120125145B21
:1010030000120125BD5B00120125445C001201257D
:101013009C5C00120125FD5C00120125265D001277
:101023000125DC5D00120125265F00120125695FA1
:1010330000120125865F00120125A55F001201251C
:10104300F05F001201251560001201253E600012B9
:101053000125AD6000120125EF6000120125F36147
:10106300001201258D62001201255963001201252A
:10107300726300120125F4750012012547760012F0
:1010830001255376001201252877001201254F7799
:10109300001201258A7700120125F6770012012537
:1010A3002A78001201256378001201257B7800124B
:1010B3000125D47800120125ED7800120125367937
:1010C30000120125497900120125637900120125D7
:1010D300797900120125957A00120125A67B001269
:1010E3000125F37C00120125D87D00120125FBFFA9
:1010F3000112012595E701120125C9E70112012516
:1011030034EB011201257EEC0112012548ED011299
:101113000125D2EE01120125ADEF01120125E7EF02
:10112300011201250AF0011201254CF001120125DB
:1011330055F0011201259FF001120125A9F00112BA
:10114300012555F10112012529F2011201257DF234
:1011530001120125DFF20112012532F301120125EB
:1011630061F301120125A0F301120125A46300120A
:101173000125FE6B00120125046C00120125BF71CD
:1011830000120125A57500120125EBF902120125B4
:1011930061FA0212012577FA02120125B4FA02124A
:1011A3000125ECFA0212012569FB02120125A4FBB9
:1011B300021201251FFC021201255BFC021201250C
:1011C30064FC0212012570FC021201258AFC021242
:1011D3000125AFFC02120125C5FC0212012509FD00
:1011E3000212012556D40212012569D402120125E7
:1011F30083D402120125ACD402120125EFD40212CA
:1012030001252ED5021201256CD502120125D1D557
:1012130002120125E6D502120125F1D5021201259C
:10122300FED50212012515D60212012523D602127C
:1012330001252ED6021201253AD6021201254DD6DA
:101243000212012558D6021201257BD6021201256E
:1012530024D70212012534D7021201254ED70212D8
:1012630001256BD70212012587D702120125ACD7BE
:1012730002120125B6D702120125CAD7021201258F
:10128300E9D7021201254AD80212012550D80212C9
:10129300012556D8021201255CD80212012568D80F
:1012A300021201259BD8021201251CCD0112012532
:1012B3009ECD0112012547CE011201258FCF0112C8
:1012C30001259DD10112012583D201120125B8D236
:1012D30001120125DAD20112012583D3011201255E
:1012E30053D5011201257CD501120125F4D5011234
:1012F300012526D60112012533D6011201257ED6FA
:1013030001120125A2D601120125F3D801120125EC
:10131300FDD90112012559DA0112012599BE0112E5
:101323000125AABF011201258EC00112012598C013
:1013330001120125BAC001120125C6C001120125FF
:101343006AC20112012597C201120125ADC3011220
:10135300012502C40112012551C50112012526C62A
:101363000112012582C601120125EDC601120125D4
:1013730022C70112012565C7011201252FCA0112D7
:10138300012547CA01120125D8CA01120125E6CA5F
:101393000112012533CB0112012541CB0112012595
:1013A300ADCB0112012528CC011201257FCC0112FE
:1013B3000125828C02120125A48C02120125B58E0F
:1013C300021201257491021201259E920212012537
:1013D3005C9302120125489402120125CD8E03125B
:1013E3000125F28E03120125688F0312012585BBA7
:1013F300021201258EBB0212012597BB02120125A1
:101403006FBC0212012520BE0212012550BE02123A
:1014130001257BBE02120125ABBE02120125D6BEF9
:10142300021201250ABF0212012536BF021201254D
:1014330079BF02120125A4BF02120125EBBF0212DC
:10144300012540C00212012582C002120125DCC021
:101453000212012507C10212012556C102120125FC
:1014630086C102120125B1C102120125DFC1021298
:10147300012502C2021201252E9C031201255A9C4A
:1014830003120125879C03120125919C0312012558
:10149300A19C03120125BBFF01120125709E03E0ED
:1014A30066701008A3E066700A08A3E0667004087B
:1014B300A3E06622C3E7960809E7960809E79608BA
:1014C30009E79622C3E09608A3E09608A3E09608EE
:1014D300A3E09622C008C3E096F50808A3E096426D
:1014E3000808A3E096420808A3E09645087001D3D4
:1014F300D00822080808EAC0E0EBC0E086F0E7A4C1
:10150300FA180986F0E7A42AFA180986F0E7A42A4C
:10151300FA180986F0E7A42AFA1986F0E7A4FBE58E
:10152300F02AFA190886F0E7A42BFBE5F03AFA193A
:101533000886F0E7A42BFBE5F03AFA18180986F0C1
:10154300E7A4C5F02BFBE43AFA1908E7C5F0C6A4F3
:1015530026F6E5F03BFBE43AFA1886F0E7A4F6E555
:10156300F00826F6E43B08F6E43A08F6D0E0FBD0B0
:10157300E0FA22E4CFC0E0E4CEC0E0E4CDC0E0E492
:10158300CCC0E075F020C3E633F608E633F608E690
:1015930033F608E633F6181818EC33FCED33FDEE9A
:1015A30033FEEF33FFC3EC9709ED9709EE9709EF8D
:1015B30097191919400FFFEC97FC09ED97FD09EEF8
:1015C30097FE191906D5F0BEECF709EDF709EEF70A
:1015D30009EFF7191919D0E0FCD0E0FDD0E0FED0F7
:1015E300E0FF226016080808C6C313C618C613C650
:1015F30018C613C618C613C6D5E0EA227009080830
:1016030008226016181818C6C333C608C633C6089E
:10161300C633C608C633C6D5E0EA22E627F608096C
:10162300E637F60809E637F60809E637F622E02634
:10163300F608A3E036F608A3E036F608A3E036F68C
:1016430022E026F008A3E036F008A3E036F008A372
:10165300E036F022C3E697F60809E697F60809E6AE
:1016630097F60809E697F622C3E096F008A3E096FA
:10167300F008A3E096F008A3E096F022E056F608FF
:10168300A3E056F608A3E056F608A3E056F622E0D8
:1016930056F008A3E056F008A3E056F008A3E0567E
:1016A300F022E0F608A3E0F608A3E0F608A3E0F6CC
:1016B30022E6F008A3E6F008A3E6F008A3E6F0228A
:1016C300E0FAA3E0FBA3E0FCA3E0FD22EAF0A3EB36
:1016D300F0A3ECF0A3EDF022CAC0E0E6F0A308DA31
:1016E300FAD0E0FA22CAC0E0E0A3C582CCC582C525
:1016F30083CDC583F0A3C582CCC582C583CDC58305
:10170300DAE6D0E0CA22C3E498F8E499F912174A5A
:101713008026C3E49AFAE49BFBE920E7E912174A1F
:10172300E498F8E499F922C3E498F8E499F91217D4
:101733004AE498F8E499F9C3E49AFAE49BFB22EBB0
:1017430020E7CFE920E7E0B90010BB0008E88AF002
:1017530084F8AAF022E4FBC8FA22EB70227B10C8BB
:1017630033C8C933C9335007C39AC3DBF280069A1F
:1017730050012ADBEAC833F4C8C933F4C9FA227525
:10178300F008E4C833C8C933C933C99AC99B5004A4
:10179300C92AC93BD5F0ECFBC833F4C8E4C9FA2223
:1017A300600D08C6A2E713C618C613C6D5E0F32218
:1017B300600C08C6C313C618C613C6D5E0F422705E
:1017C3000422600D18C6C333C608C633C6D5E0F479
:1017D3001822251810AF08F518400215198008F5CE
:1017E3001840021519D2AF22C0D0251810AF08F542
:1017F30018500205198008F51850020519D2AFD008
:10180300D0222518F58210AF08F51840021519806B
:1018130008F51840021519D2AF851983222518F54A
:1018230082E43519F58322E4732518C582C0E0E507
:101833001934FFC583C0E0E518C3958224F810AFBF
:10184300088583198582188008858319858218D2B3
:10185300AFCEF0A3E520F0A37808E608F0A3DEFA04
:10186300EFF0A3E58124FAF8E608F0A3E608F0A375
:10187300E608F0A30808E608F0A3E608F0A315813C
:101883001581D0E0FED0E0F8158115811581E8C0FF
:10189300E0EEC0E0222518C582C0E0E51934FFC59B
:1018A30083C0E0E518C3958224F910AF0885831936
:1018B3008582188008858319858218D2AFCEF0A35C
:1018C300E520F0A37808E608F0A3DEFAEFF0A3E53D
:1018D3008124FBF8E608F0A3E608F0A30808E6086D
:1018E300F0A3E608F0A315811581D0E0FED0E0F85F
:1018F30015811581E8C0E0EEC0E0228519838518C3
:1019030082E0A3FEE0A3F5207808E0A3F608DFFA5F
:10191300E0A3FFE0A3C0E0E0A3C0E0E0A3C0E0E0F9
:10192300A3C0E0E0A3C0E010AF0885821885831947
:101933008008858218858319D2AFD083D0820201B3
:1019430022851983851882E0A3FEE0A3F520780899
:10195300E0A3F608DFFAE0A3FFE0A3C0E0E0A3C042
:10196300E0E0A3C0E0E0A3C0E010AF0885821885E3
:1019730083198008858218858319D2AFD083D082DA
:1019830022C0D02518C582C0E0E51934FFC583C045
:10199300E0E518C3958224F310AF08858319858287
:1019A300188008858319858218D2AFC8F0A3E9F09F
:1019B300A3EAF0A3EBF0A37908E709F0A3D8FAECC4
:1019C300F0A3EDF0A3EEF0A3EFF0A3D0E0F0A3D0EB
:1019D300E0F0A3D0E0F0A3E520F0A3E5F0F0A3222C
:1019E300851983851882E0C0E0A3E0F9A3E0FAA398
:1019F300E0FBA37808E0F608A3DFFAE0FCA3E0FD30
:101A0300A3E0FEA3E0FFA3E0C0E0A3E0C0E0A3E007
:101A1300F5D0A3E0F520A3E0A3F5F010AF0885838C
:101A2300198582188008858319858218D2AFD082E0
:101A3300D083D0E0F8D0E0327404800674028002D0
:101A43007401C0E0F404121805D0E01216DB22740E
:101A530004800474028000CCC0E0EDC0E0E518C34C
:101A63009CCCAD1950011D10AF068C188D19800642
:101A73008C188D19D2AF1216E8D0E0FDD0E0FC220D
:101A8300D083D082E9C0E0E493A3C386F0C5F09588
:101A9300F0F908E493A386F0C5F095F0700BE49396
:101AA300A3C3994005E9048002A3E475F002A425C9
:101AB30082F582E5F03583F583D0E0F9E493A3C0A2
:101AC300E0E493C0E022D083D082ECC0E0EDC0E03C
:101AD300E493A3FCE493A3FDED4C600D121B15EC02
:101AE30024FFFCED34FFFD80EFE493A3FCE493A318
:101AF300FDED4C600D121B54EC24FFFCED34FFFD97
:101B030080EFD0E0FDD0E0FCE493A3C0E0E493C019
:101B1300E022C0E0C3E49396087401939618400F43
:101B2300E49366700808740193661870007019A333
:101B3300A3C3E49396087401939618A3A3400DD00E
:101B4300E0D0E0D0E0021B05A3A3A3A3A3A3D0E0AE
:101B530022C0E0C0F088F0E4936670080874019333
:101B630066187000A8F0A3A3700BD0F0D0E0D0E00B
:0C1B7300D0E0021B05A3A3D0F0D0E022BC
:101B8000C0E074F2121984A2AFE433FED2AFC2C037
:101B9000E5D1A2E4500653D1EF120734EEA2E09251
:101BA000AF7F010219E3C0E0C0D0E8C0E0E5A8D2F1
:101BB000AFC2C7A2E792AFD0E0F8D0D0D0E032C039
:101BC000E0C0D0E8C0E0E9C0E0C008C009C082C001
:101BD00083A2AFE433F9D2AF90050EE0F8A3E0683A
:101BE0007008539AFBA374018026C2E990050EE0A9
:101BF000F50874012508F0748E2508F58274043404
:101C000000F583E0F5C190050EE0C394804002E446
:101C1000F0E9A2E092AFD083D082D009D008D0E022
:101C2000F9D0E0F8D0D0D0E03274F5121898EAFE7E
:101C3000EBFFEE2434F8EF3400F988088909EE242C
:101C400035121D61F8EE2437121D61F50AEC850A84
:101C5000F0A4FCAAF0850AF0EDA42AFDE82CF8E433
:101C60003DF97A257B0012174AEA850882850983A7
:101C7000F05407F87401B800028004C333D8FCC0E4
:101C8000E0E0131313541FF8EE28F8EF3400F9E8DE
:101C9000245DF582E93400F583D0E0F8E05860086F
:101CA000850882850983801DEE2436121D61F5F0BA
:101CB000EA84A8F0EE28F8EF3400F9E82438F58239
:101CC000E93400F583E0F97F0402194474F5121831
:101CD00098EAFEEBFFEE2434121D61C0E0EE2435DD
:101CE000F582EF3400F583D0E0F08E828F83A3A3DA
:101CF000A3A3A3E0FAA3E0FB8E828F83A3A3A3A3F5
:101D0000A3A3A3E0FCA3E0FDECC39AF50AED9BF5C9
:101D10000BEE2480F508EF3400F509850882F58381
:101D2000E06401702BEE2481F582EF3400F583121C
:101D30001A56121D6A74021217EBE960137C397D82
:101D400009EEFAEFFB12101C850882850983E4F086
:101D5000AC0AAD0BEEFAEFFB121C291222BC021CDE
:101D6000C7F582EF3400F583E022C082C083851876
:101D700082851983E0F8A3E0F9C3EA9CEB9D501239
:101D8000C3EC98ED994019C3EA98EB995012790188
:101D90008010C3EA98EB9940F5C3EC98ED9950EEAA
:101DA0007900D083D08222EAC39CFAEB9DFB22000B
:101DB0008521878522C622C0E074EF121984759BA5
:101DC00000906182E0A2E64003021E78E591A2E65F
:101DD0004003021E787591BF9007FEE0640570080D
:101DE0001211BA1211C680031211C075210012120D
:101DF0002CE99007FFF07900121220120F867A0169
:101E00007B009007FDE0F91204FA907803E0644249
:101E10006003021EC190099BE014F06003021EC122
:101E2000C2AF121E2500782AD0E0F618D0E0F6E501
:101E30009F5407F970059090B880039090BC780883
:101E40001216A5E9C4C0E07829E65508F50808E6A9
:101E50005509F509740B78081217B3D0E02508F876
:101E6000906270E0A2E740F8E8C333906272F090AD
:101E70006270E0D2E0F08049E0A2E55024E591A252
:101E8000E5501E7591DF9007FEE0640D7013900819
:101E900020E004F064287002E4F07A00E0F9121205
:101EA0009E906181E0A2E35009E5E9A2E350037549
:101EB000E9F7A3E0A2E75009E591A2E75003759185
:101EC0007F7F040219E3C0E0C0D0C082C08390616C
:101ED00083E0A2E05009E5BFA2E0500375BFFEE039
:101EE000A2E15009E5BFA2E1500375BFFDE0A2E207
:101EF0005009E5BFA2E2500375BFFBE0A2E3500921
:101F0000E5BFA2E3500375BFF7E0A2E45009E5BFC7
:101F1000A2E4500375BFEFE0A2E55009E5BFA2E5DA
:101F2000500375BFDFE0A2E65009E5BFA2E650030B
:101F300075BFBFD083D082D0D0D0E032C0E074F281
:101F4000121984E5A7A2E4500FE5A1A2E4500953B9
:101F5000A7EF75A1EF121F90E5A7A2E5500CE5A130
:101F6000A2E5500653A7DF75A1DFE5A7A2E150095E
:101F7000E5A1A2E1500375A1FDE5A7A2E2500CE5A1
:101F8000A1A2E2500653A7FB75A1FB7F010219E352
:101F900074F81218987521019007FEE06406700726
:101FA0007A007B001211A2A2AFE433FED2AF9008F8
:101FB00004E0640170187A207B009007FDE0F912BC
:101FC00005787A207B009007FDE0F912050090610A
:101FD00082E0D2E6F090099AE0602185C622801660
:101FE000900803E064017008E5C654F84405F5C69E
:101FF00053BEFC121DB07401652160E4EEA2E092B4
:10200000AF7F0102194400008E238F24858228852A
:102010008327851882851983E0CEA3E0CF852882A7
:10202000852783EBC9EAC8EDCBECCA75F010C3E88D
:1020300033C8E933C9EA33CAEB33CBC3EA9EF5268A
:10204000EB9FF525B35004AB25AA26EC33CCED333A
:10205000CDD5F0DAAE23AF242274F11218988A0895
:102060008B098C0A8D0B740F121820780C1216A590
:102070009090D8780812167F9090D8780C12167F1E
:102080007808790C1214B750157808790C12165785
:1020900090911C78081214D7401579018013780CA0
:1020A000790812165790911C780C1214D740EB79CE
:1020B000007F0802194474ED1218988A088B098C65
:1020C0000A8D0B7413121820780C1216A59090D854
:1020D000780812167F9090D8780C12167F780C79B9
:1020E000081214B740117808790C121657AA08ABD9
:1020F00009AC0AAD0B802275100075110075120035
:102100007513017810790C12165778107908121689
:102110001EAA10AB11AC12AD137F0C0219449090A3
:10212000D878081216A58A828B8378081216927FB7
:102130000402194474F51218988C828D8378081261
:1021400016A58A828B83780812166B122188C3E049
:1021500098F0A3E09912217A401E9090B47808126A
:1021600016A58A828B8378081216448E828F83E0AC
:102170002420F0A3E0344EF080A4F08E828F83C33D
:10218000E09420A3E0944E22EA2404F8EB3400F912
:10219000E8FEE9FF8C828D83A3A3A3A3E0F8A3E06C
:1021A000F98E828F832274F5121898E9FE900950F7
:1021B000E0FAA3E0FBEEC333F8E433F9741D28F52D
:1021C00082749039F583E02AF508A3E03BF509789D
:1021D00008121A3F9090B01216C31220087402120F
:1021E00017EB8A088B098C0A8D0B7410780812156E
:1021F000E6AA08AB097F0402194474F11218988A00
:102200000C8B0D8C0E8D0F740F121820E0FAA3E0CA
:10221000FB7411121820E0F508A3E0F509741312FD
:102220001820E0FEA3E0FF7808121A3FEA2401F527
:1022300008EB3400F509E4F50AF50B780C7908127F
:1022400014F690912C78081216A5780C79081214BF
:10225000F6AA0CAB0DAC0EAD0F12200874021217CB
:10226000EB8B09EA450960047A0180027A00EC2AC6
:10227000FCED3400FDECF8EDF97A717B0212174A9F
:1022800088088909E4F50AF50B8E828F8378081295
:1022900016B4ECF8EDF97A717B0212174A8A088BB2
:1022A00009740578081217C28E828F83A3A3A3A393
:1022B000E508F0A3E509F07F08021944C082C08355
:0A22C000E9906000F0D083D0822284
:1022CC00FFFFFFFFFFFFFFFFC082C083E9900EBB43
:1022DC00F00224F374F712182CE990071CF07C54CC
:1022EC007D077AFF7BFF120CB090071D74FFF0A3E3
:1022FC00F0A3E4F0A3F07905120C3E90071CE0F972
:10230C00120B667AC87B0C120E8402320174F41222
:10231C00182C8A088B09EB5480603090071CE0F96C
:10232C001204E28A0A8B0BAE0AAF0BEE4F60138ECF
:10233C00828F83E064B07003120C50EEFAEFFB1244
:10234C0004D0AA08E5096480FB80047A007B0002B3
:10235C0024C274F212182C74FC1217D5EAFEEBFF8F
:10236C0074121218201236E8EE4F70030224017416
:10237C0002121820EEF0A3EF1226FDECF0A3ED12E2
:10238C0026FDAA82AB83120B60E9F50A706AE50898
:10239C00450960648E828F831236CEEE4F60567A7A
:1023AC00067B001205368A0C8B0DA80CA90DE8498A
:1023BC007005750A13804188828983E412240EEE1D
:1023CC00F0A3EF1236F9E508F0A3E509F090072227
:1023DC0012249590072270051231AB801B12319993
:1023EC008003EAFCEBFD8C828D8312249570F38CB8
:1023FC00828D8380E3750A02A90A74041217EB021A
:10240C0038E8F0A312369FA32274F212182C890A12
:10241C00E975F017A4FEAFF0900721E4F090071FC8
:10242C00122495600A12053C90071FE4F0A3F0EE0D
:10243C00FAEFFB1205368A088B09EA4509602FEE84
:10244C00FCEFFD79001204BE90071FE508F0A3E530
:10245C0009F07B00800812247FE4F0A3F00BEBC39F
:10246C00950A40F2E50A900721F079008002791371
:10247C000238E8EB75F017A4F8A9F090071FE028D4
:10248C00FAA3E0398A82F58322122E3DEA4B22749C
:10249C00F412182C7900EAA2E0501B750898750903
:1024AC00907808121A3F7C047D007ABD7B0E120CCA
:1024BC003874021217EB7F040218FEC082C083909E
:1024CC0007221224FA601C88828983A3A3E06A7015
:1024DC0003A3E06B8882898370E8A3A3A3A3122EC5
:1024EC003980047A007B00D083D082020122123919
:1024FC00CEE8492274EE12182C74FC1217D5EAFEA1
:10250C00EBFF851882851983E4F0A3F0EE24021208
:10251C00318BEE24051236A6EE2404F50EEF122AAA
:10252C00B2E024FE603924FC604624FE605224FE96
:10253C00605E24FE700302261324FE7003022677CD
:10254C0024FE700302268624FE700302269524FCCA
:10255C0070030226A424FE70030226B30226F09018
:10256C00073B7417F0A3E41227051208DE0226F0CD
:10257C00851882851983AC82AD83120C560226C055
:10258C00851882851983AC82AD83120C5C0226C03F
:10259C00850C08850D097402121820AC82AD838558
:1025AC000882850983122E39120B848A0C8B0DAC90
:1025BC000CAD0DEC4D603BE4F50CF50D780C121ADE
:1025CC003F750C3B750D07780C121A3F750C3C755A
:1025DC000D07780C121A3F7408121820121A561292
:1025EC0039F21217EBE9F50C700B122E2F1208F6BC
:1025FC00800F750C018508828509831226F3123130
:10260C00AB850C080226C37402121820AC82AD8371
:10261C00850C82850D83122C04603C850C82850D03
:10262C0083A3A3121A5675103B7511077810121A52
:10263C003F75103C7511077810121A3F7408121868
:10264C0020121A561239F21217EBE9F509700B1217
:10265C002E2F1208FC800F750901850C82850D83C5
:10266C001226F31231AB850908804C851882851926
:10267C0083AC82AD83120C62803A851882851983F3
:10268C00AC82AD83120C68802B851882851983ACC3
:10269C0082AD83120C6E801C851882851983AC82E6
:1026AC00AD83120C74800D851882851983AC82ADB4
:1026BC0083120C7AE9F508E50860298E828F83A3D2
:1026CC00E06414601F850E82850F83E090073B1237
:1026DC0026FD1239CA90073C1231ABE508A312272C
:1026EC00051208D802309A1239CE851882851983C2
:1026FC0022F085188285198322F07C3B7D07850AA0
:10270C0082850B83122E3D2274EE12182C74FC124F
:10271C0017D58A0A8B0B8C0E8D0FEA2405F508EB66
:10272C003400F5097C157D0079007A3B7B07120497
:10273C00BEE5082402F50CE5091236A98518828538
:10274C0019838582108583117810121A3F850882AF
:10275C00850983A3A3A3A3122BFB121A3FE508241C
:10276C0005F510E5093400F5117810121A3F850CA7
:10277C0082850D83122F50120B7E74061217EB8A72
:10278C00108B11AE10AF11E50A2402F50AE50B12FD
:10279C00318EEE4F70030228D2801774021218206B
:1027AC00122E3988828983EAF0A3EBF090073BE084
:1027BC0004F090073BE0C3940540030228D2E4F5F3
:1027CC0010F5117810121A3F751024751107781036
:1027DC00121A3F7510257511077810121A3F7406DE
:1027EC00121820121A567910EEFCEFFD1239F41261
:1027FC0017EBE9705E850882850983A3A3A3A3A3C5
:10280C00A3A3E0F8900724E0687048122BFB121A7F
:10281C003F7C257D07E5082408FAE5093400FB1206
:10282C0004B874021217EBE960298E828F83A3A37C
:10283C00A3A3122E3990073BE0F510740278101206
:10284C0017C2743C2510F58274073511F583EAF034
:10285C00A3EBF07402121820858210858311781076
:10286C00121A3F7402121820121A56850C82850D0A
:10287C0083122E5F1217EB8A108B11AE10AF1190D2
:10288C00073BE0F510751100740278101217C27432
:10289C003B2510F874073511F988828983A312241B
:1028AC0095700302279EE82403080808E93400F910
:1028BC00EE4F60030227A78882898374FFF0A3F090
:1028CC0090073BE004F090073BE0600A122E2F12B9
:1028DC0008EA7900800B8508828509831231A27978
:1028EC000A02309A74EA12182C74FE1217D58C1244
:1028FC008D13EA2405F50CEB1239DC1236D275086F
:10290C0000750900EA2402F510EB3400F511851866
:10291C008285198385820A85830B780A121A3F8572
:10292C000C82850D83A3A3A3A3122AC8121A3FE518
:10293C000C2405F50AE50D12318E780A121A3F8522
:10294C000C82850D83122ACC120B7E74061217EBA7
:10295C008A0A8B0BEA450B7003022A6DEA2404F5F4
:10296C000EEB122AB21236D28A828B83A3A3A3E077
:10297C00F9851082851183122E436003022A6DE4BF
:10298C00F514F5157814121A3F751424751507787B
:10299C0014121A3F7514257515077814121A3F7402
:1029AC0006121820121A567913AC0AAD0B85108238
:1029BC008511831239FA1217EBE9F5096003022A23
:1029CC006D900724E0F8E5087009E0240290073CBC
:1029DC00F0801490073CE0FCE82402FAE43400FB9D
:1029EC00EA6C7001EB707E850882AA82122BF2943D
:1029FC0014122BEA506B850E82850F83E0C0E074B5
:102A0C003D2A122AA9D0E0F00508850E82850F8395
:102A1C00A3E0C0E085080A743D250A122AA9D0E07B
:102A2C00F00508900724122AC8121A3F7C257D074E
:102A3C0085080A743D250A122ABC1217EB9007244C
:102A4C00E02508F50874FF6E700374FF6F6012EEDA
:102A5C0024010EEF3400FFE508C39414500302293F
:102A6C001AE5086013122E4D851082851183122EE3
:102A7C00391208F079008014E509700375090A858C
:102A8C001282851383EEF0A3EFF0A90974021217DA
:102A9C00EB7F0E0218FE85080C743D250CF5827434
:102AAC00073400F583223400F50F850E82F583225E
:102ABC00FA74073400FB1204A6740222123708229F
:102ACC00A3A3122AD222123199FDEEFAEFFB227443
:102ADC00EE12182C74FE1217D58C0E8D0FEA2405ED
:102AEC00F50CEB1236A9750B0090073BE4F0F50AD8
:102AFC00EA2402F508EB3400F509804490073BE02A
:102B0C00FA900724E0F8122BF29417122BEA400DDE
:102B1C0090073BE0F87416C398900724F0122BFB37
:102B2C00121A3F7C257D07743C2AFA7407122ABFBF
:102B3C001217EB900724E0F890073BE028F0050A09
:102B4C00E50C2416F582E50D122AADE0F8E50AC372
:102B5C0098507490073BE0C39416506BE50AC3334E
:102B6C00F8E433F9E50C28FEE50D39FF851882856C
:102B7C001983AC82AD838E828F83122C04700875FE
:102B8C000B0112319E8050E4F510F5117810121AD9
:102B9C003F7510247511077810121A3F75102575A2
:102BAC0011077810121A3F7406121820121A56794F
:102BBC00168508828509831239FA1217EBE9F50B91
:102BCC007003022B0880BB7C3B7D0785088285093E
:102BDC0083122E39120902A90B740202309CE9945B
:102BEC0000C365D03322EA28F8E43400F9E822E087
:102BFC00F5107511007810221230918A108B11ACDF
:102C0C0010AD11EC4D2274EA12182C74FC1217D56D
:102C1C008A0C8B0D8C128D13EA2405F50AEB1231FC
:102C2C008E750800750900E50A2402F510E50B34D1
:102C3C0000F511740212182085820E85830F780E10
:102C4C00121A3F850A82850B83A3A3A3A31236AE67
:102C5C00121A3FE50A2405F50EE50B3400F50F7842
:102C6C000E121A3F851082851183123194122E3365
:102C7C00120B7E74061217EB8A0E8B0FAE0EAF0F73
:102C8C00E50C2402F50EE50D3400F50F8038888232
:102C9C00898374FFF00508122AA274FFF0050890CE
:102CAC000724E0F50C750D00780C121A3F7C257D7D
:102CBC000785080C743D250C122ABC1217EB9007E3
:102CCC0024E02508F508EE4F60278E828F83A3A39E
:102CDC00A3E0F9850E82850F83122E43EE24041295
:102CEC0036A6E96027850C82850D83122E251231BC
:102CFC00ABE5087003022E0B122E4D850E82850F4C
:102D0C0083122E391209087900022E20E4F514F5ED
:102D1C00157814121A3F7514247515077814121AA5
:102D2C003F7514257515077814121A3F740812187C
:102D3C0020121A567911EEFCEFFD850E82850F8359
:102D4C001239FA1217EBE9F509709A850882AA82F2
:102D5C00EA9007247009E0240490073CF08025E0F9
:102D6C00F890073CE0F514E82404FCE43400FDEC96
:102D7C0065147001ED7081122BF29412122BEA4043
:102D8C0003022D04850C82850D83E0C0E0743D2A7E
:102D9C00122AA9D0E0F00508850C82850D83A3E0EA
:102DAC00C0E0122AA2D0E0122E6885820C85830D19
:102DBC00780C121A3F7404121820121A56851082BD
:102DCC00851183122E5F1217EB8A0C8B0DAE0CAF94
:102DDC000D85080C743D250CF874073400F9EE4F82
:102DEC007003022C9A851882851983E08882898366
:102DFC00122E68A3E0C0E0122AA2D0E0022CA8E5B3
:102E0C0009700375090A850A82850B83122E251217
:102E1C0031ABA9097404022A9A1239CE8512828523
:102E2C001383227C3B7D07850A82850B83122E3D02
:102E3C0022E0FAA3E0FB22122E3D120B6CE9F509FD
:102E4C002290073CE0F5F0E5088490073BF07C3BD2
:102E5C007D0722122AD2120B8A740422F0050885EF
:102E6C0018828519832274EC12182C74FE1217D553
:102E7C008A088B098C0E8D0FEA2405FEEB3400FFBB
:102E8C0012307BEE24181236A6EA450B7003022F83
:102E9C001E1230645029122F438A108B11EA4511EF
:102EAC00606B7912AC0AAD0B850882850983122EF2
:102EBC003985108285118312182AE9F50A7058E4B5
:102ECC00F50AF50B780A121A3F8E828F83A3A3E0C2
:102EDC00F50A780A121A3FEE240312318B780A1283
:102EEC001A3F8E828F83122F50120C9E740612176B
:102EFC00EBE9F50A7021850C82850D83E0701F8546
:102F0C000882850983122E3912090E8011750A0E5A
:102F1C008009750A018004E50A600312319E850C54
:102F2C0082850D83E0600479008002A90A74021284
:102F3C0017EB7F0C0218FE851882851983122E3D23
:102F4C00120C8C22123199FD850882850983122E70
:102F5C003D2274EE12182C74FE1217D58A088B09B8
:102F6C008C0C8D0DEA2405FEEB3400FF750E00125F
:102F7C00307BEA450B7003023042123064502C1245
:102F8C002F438A0E8B0FEA450F604A7912AC0AADBB
:102F9C000B850882850983122E39850E82850F8355
:102FAC0012182AE9F50E600302304585088285095E
:102FBC0083123280AA0AFB12305670147AFF7BFF00
:102FCC00123056606C88828983E50AF0A3E50BF019
:102FDC00750A008007750E0E805F050A900721E0C8
:102FEC00FAE50AC39A504AE50A75F017A4FAABF051
:102FFC0088828983A3A3E02AFAA3E03BFB8A828B15
:10300C0083123194EC4D70D2750A17750B00780A47
:10301C00121A3FEEFCEFFD1204A674021217EBEE2F
:10302C00FCEFFD850882850983122E391209148064
:10303C0014750E098003750E011239C6850C828534
:10304C000D831231ABA90E022BE5120C808A108B6A
:10305C0011A810A911E84922E5082402F508E50990
:10306C003400F5098A828B83A3A3A3E0A2E5228511
:10307C001882851983AC82AD838E828F8312309136
:10308C008A0A8B0B22E0FAA3E0FB120B8422740455
:10309C001217EB7F0A0218FE74EC12182C8C108D90
:1030AC0011EA2405F50CEB1236A9750F00EA24027F
:1030BC00F50AEB12318E850A82F583122E39123AFB
:1030CC00807003023180750E008071850C82850D35
:1030DC0083E06401704F8E828F83A3A3121A568EE5
:1030EC00828F83A3A3A3A3E0F512751300781212A9
:1030FC001A3FEE2405F512EF3400F5137812121A6C
:10310C003F122E33120C9E74061217EBE9F50F606A
:10311C0014850C82850D83E4F01239C685108285E6
:10312C0011831231AB7C177D007900EEFAEFFB12A4
:10313C0004BE8E828F83E4F0A3F0050E900721E08D
:10314C00F8E50EC398501EE50E75F017A4F8A9F01B
:10315C00850882850983A3A31239E6123194EC4DBC
:10316C0060030230D785088285098374FFF0A3F0D1
:10317C00E50F7006122E3312091AA90F022F3EF515
:10318C000AEF3400F50B22A3123199FD22E0FCA3C7
:10319C00E0228E828F831239CE850E82850F83E8D2
:1031AC00F0A3E9F022C082C08390071DE06A70038F
:1031BC00A3E06B70067A1D7B0780047A007B00020B
:1031CC0024F374F712182C7F00EF75F003A4F8A900
:1031DC00F0EC28F8ED39F988828983E06A7003A352
:1031EC00E06B7006E8FAE9FB800B0FEFC39402402A
:1031FC00D87A007B007F010218FE74F612182C128C
:10320C0037B770067A007B008007A3A3A3A3122E06
:10321C003902387874F212182CE9FE740E12182048
:10322C0012328074101218201236E88C828D83E0D2
:10323C006402703BA31239CA88828983E0F50CA31F
:10324C00E0F9A80C74026870037429697021750C7C
:10325C0002750D00780C121A3F7808121A3F780A82
:10326C00121A3FEEF9120CC274061217EB80027997
:10327C00010238E8E0F50AA3E0F50B2274E8121815
:10328C002C74FB1217D5E9851882851983F08A16E0
:10329C008B178C0E8D0F741F1218201236E87421A8
:1032AC0012182012328074231218201236D2751084
:1032BC00008C828D83A3A3A3E0A2E4502A741D1278
:1032CC001820122F498A828B83E582458370030272
:1032DC003394790AAC0EAD0FAA16AB1712182AE963
:1032EC00F5106003023397850E82850F83E064022C
:1032FC00600302364DA31239CA850882850983A35F
:10330C00858212858313E50E2406F50CE50F123623
:10331C00A988828983E0FAA3E0F9EA2400F514E491
:10332C0039F5157814121AC90100002801285C33EC
:10333C000700022833340328A33300295D35012903
:10334C00853502292C3503295D350429EE354D369A
:10335C00EE4F703E850C82850D831236C3FAE9FB65
:10336C008A828B83E0850A82850B831236FF121AC0
:10337C003F8A828B83A3123199FDAA08AB091204F0
:10338C00A674021217EB800375100EA910740502B7
:10339C0039D475100B80F4EE4F70F7850A82850BCB
:1033AC00837401F01236D8850882850983F07C007D
:1033BC007D00850E82850F83A3A3A3A3E02401FACD
:1033CC00A3E03400FB120B84EA4B60418A828B83AE
:1033DC00E02402F8850A82850B83E028F0EA2404B5
:1033EC00F8EB3400F988828983E085128285138397
:1033FC001237111236FF121A3F8A828B83123193C5
:10340C00E5082403FAE5093400FB02338A850A82B5
:10341C00850B83E02404F07C047D007900AA12ABB8
:10342C00131204BE023397EE4F600302339E123622
:10343C00D8FEA3E0FF850A82850B837404F0EE8529
:10344C000882850983F0EF851282851383F074035B
:10345C00121820AC82AD83EEFAEFFB1237A5700385
:10346C000235098A828B83A3A31236CE74011218FB
:10347C002085820E85830F780E121A3F7405121860
:10348C0020121A567CFF7DFF120B8A74041217EB64
:10349C008B0FEA450F7033850C82850D831236AE87
:1034AC00121A3F850C82850D83A3121A567C027D5D
:1034BC00007A6E7B911209B674041217EBE9700A4C
:1034CC00740112182074FFF0A3F08E828F83E064D5
:1034DC00027034750C02750D00780C121A3F8E8236
:1034EC008F83123193E5082404FAE509122ABF12DE
:1034FC0017EB850A82850B83E02402800974011284
:10350C001820EEF0A3EFF074011218201236BFF061
:10351C007401121820A31236B7A3A3A3F002339799
:10352C00EE4F600302339E850C82850D831231941D
:10353C00AA16AB17120CB6850A82850B837402F09F
:10354C00EA850882850983F0851282851383EB80D6
:10355C00CBEE4F600302339E1236D8F8A3E0F98508
:10356C000A82850B837402F0E8850882850983F052
:10357C00E985128285138380A3850C82850D8312C5
:10358C002E391204A0EAFC8C82A882C39EE49F40D0
:10359C004BE86E7001EF70047C00801F85188285EB
:1035AC001983E0FAEE2AFAEF3400FBC3EA98EB94A5
:1035BC00005003E08004EECCC39CFCEC850A8285B1
:1035CC000B83F08C0A750B00780A121A3F850C825B
:1035DC00850D83E02EFCA3E03F02338575100702B6
:1035EC003397EE4F600302339E850C82850D831258
:1035FC0039CA850A82850B837407F0888289831205
:10360C0036B712369FE0851282851383F0E82402C8
:10361C00FAE93400FB8A828B831236B71236F01229
:10362C0036BFA31236F91236C8F0E82405F8E9348F
:10363C0000F9888289831236C8A3123711A3023588
:10364C0025741D1218201237B070030233941239EE
:10365C00CA880C890DE8450D70030233948E108FC7
:10366C00117810121A3F780A121A3F7808121A3F72
:10367C007406121820E0F9AC0EAD0FAA16AB178524
:10368C000C82850D8312182A74061217EBE9F510BB
:10369C00023397F088828983A322F50CEF3400F56E
:1036AC000D22E0F50E750F00780E22E0850882855C
:1036BC00098322123718221239CEE822123718A3A6
:1036CC00A322A3A3A3A3E0FEA3E0FF22850C828583
:1036DC000D83E0F8A3E0F5838882E022E0F508A3EF
:1036EC00E0F50922A3A3F08A828B83A32212241073
:1036FC00A3A322F08A828B8312370822E0F50A7585
:10370C000B00780A2212369F12371822E0850882A5
:10371C00850983A3A32274EE12182C74FE1217D5FC
:10372C008A0A8B0BECFAEDFB7414121820E0F510DE
:10373C00A3E0F5117416121820E0FE74181218206C
:10374C00E0F50EA3E0F50F851882851983AC82ADE8
:10375C00831237A5603E8518828519831237B060B5
:10376C002FA3A31236E8E50845096024780E121A37
:10377C003F7810121A3FEEF9AC0CAD0DAA0AAB0B48
:10378C0085088285098312182A74041217EB8006A7
:10379C00790E80027901022BE5120B848A0C8B0DB9
:1037AC00EA450D22122E3D1237B722120C4A8A829C
:1037BC008B83E58245832274F612182C74FE121743
:1037CC00D5740C1218201236C3851882851983F013
:1037DC007401121820E9F0E4F508F5097808121ABA
:1037EC003F7508027808121A3F740412182085825B
:1037FC00088583097808121A3F120C9E740612175A
:10380C00EB74021217EB806474F712182CEAFEEBBF
:10381C00FF89087C547D07120CB6EA5402600BA990
:10382C0008EEFAEFFB120B78800279010232017478
:10383C00F612182C74FF6A700374FF6B701C7B00FB
:10384C00EB75F003A4F8A9F0EC28F8ED39F912386F
:10385C007D0BEBC39402501480E6120C868A088B05
:10386C0009A808A909E849600312387D7F020218EB
:10387C00FE8882898374FF12240EE4F02274F612FF
:10388C00182C120C868A828B83E58245836006A3F2
:10389C00A3E0FA80027A007B0080D174F212182C1B
:1038AC008A088B09ECFEEDFF740E121820E0F50A65
:1038BC001238ED701CEEFCEFFD7AFF7BFF1238ED39
:1038CC0070047911801688828983E508F0A3E509D4
:1038DC00F088828983A3A3E50AF079007F06021899
:1038EC00FE120C868A0C8B0DA80CA90DE8492274CB
:1038FC00EE12182CEAFEEBFF8C088D09890C741261
:10390C001218201239CA7414121820123194741619
:10391C00121820122E39750D00EC4D60030239BEC1
:10392C007402650C60030239B9888289831231995B
:10393C00F9EC2400F50EE439F50FEAF4F8EBF4F9A0
:10394C00EC58F8E50F59F9E849705DE5082406F8DC
:10395C00E5093400F9880A890B8882F583122ACE8E
:10396C00120CB68A108B11E50E65107004E50F650C
:10397C00116042780E121A3F850A82850B83122A37
:10398C00CE120CBC74021217EBE9F50D7027780EF1
:10399C00121A3F850882850983A3A3122ACC120C24
:1039AC00CE74021217EB800D750D808008750D0D0D
:1039BC008003750D0BA90D02309F8E828F831239F7
:1039CC00CE22E0F8A3E0F9221217EB7F100218FECA
:1039DC003400F50D850C82F58322E028FEA3E03936
:1039EC00FF8E828F83227916850A82850B83122E95
:1039FC003D120C9874082274F212182CEAFEEBFF9C
:103A0C00890B7401650B600E7402650B7063790190
:103A1C00120EA2E9705BEEFAEFFB123A806047756A
:103A2C000A00800B7C177D0079001204BE050A90F9
:103A3C000721E0F8E50AC3985021E50A75F017A4B0
:103A4C00F8A9F0850882850983A3A3E028FAA3E0EE
:103A5C0039FB8A828B831224FA70C9850882850906
:103A6C008374FFF0A3F07C547D07EEFAEFFB120C8D
:103A7C00B00238E8120C808A088B09EA45092274D6
:103A8C00F212182C8A088B09ECFEEDFF740E12183A
:103A9C0020123280900EBBE0F4603D7A097B00125C
:103AAC0004CAEA4B60328A828B8374B1F0A3E412AD
:103ABC0036F2A31236F0A3E508F0A3E509123AE7B3
:103ACC00EEF0A3EF123AE7A3A3E50AF0A3E50BF09F
:103ADC00900EBBE0F91204D60238E8F08A828B8390
:103AEC00A3A3A3A3A32274F412182CE9FF7E008ACB
:103AFC00088B097808121A8300040DA33C253B415E
:103B0C003B563B6B3B803B953BB13BCA3BDC3B0A9A
:103B1C003C2C3C483C643C823C74016F70128C829F
:103B2C008D83E0C394035008E0900C72F0023CC10A
:103B3C007E18023CC174026F70F68C828D83124524
:103B4C0011900C73E8F0A3E980E274016F70E18CC2
:103B5C00828D83E0C3940250D7E09002B680CD747E
:103B6C00016F70CC8C828D83E0C3940550C2E090C1
:103B7C0002B780B874016F70B78C828D83E0C394E8
:103B8C000250ADE09002B880A374106F70A275085B
:103B9C00108E097808121A3F7AB97B021248C412A7
:103BAC0017EB023CC174016F70868C828D83E0C36D
:103BBC0094024003023B3CE09002C9023B38740182
:103BCC006F6003023B3C8C828D83E0900C76808D81
:103BDC0074046F6003023B3C9090B078081216A5F9
:103BEC008D838C8278081214C74003023B3C8C8274
:103BFC008D831216C39002CB1216CF023CC1EF601C
:103C0C0003023B3C120B24E9700E12066E79501223
:103C1C000872120662023CC190035E7401023B38CA
:103C2C0074016F6003023B3C8C828D83E0C3940271
:103C3C004003023B3CE09002CA023B3874016F60C7
:103C4C0003023B3C8C828D83E0C3940A4003023B0D
:103C5C003CE0900C75023B3874016F6003023B3CF6
:103C6C008C828D83E024F9C3940A4003023B3CE030
:103C7C00900C77023B3874016F6003023B3C90035D
:103C8C005DE0F88C828D83E090035DF0E87026E0B7
:103C9C0064017021023C1EC3EA9426EB940050137D
:103CAC0074026F700E8C828D8312450B1209C2E95F
:103CBC00FE80020E0EEEF9023DA074F412182C8C4C
:103CCC00088D097E008A0A8B0B780A121A8300046D
:103CDC000E7E3DFD3C093D193D233D283D2D3D43C8
:103CEC003D483D4D3D7E3D5E3D633D683D6D3D72C5
:103CFC003D900C72E08C828D83F0023D98900C7399
:103D0C001245118C828D83E8F0A3E980EC9002B609
:103D1C00E08C828D8380E29002B780D89002B880CC
:103D2C00EF750A108E0B780A121A3F7CB97D0212BD
:103D3C0048C01217EB80559002C980B8900C768061
:103D4C00CF9002CB1216C38508828509831216CF39
:103D5C00803A9002CA809D900C7580B4900C77804C
:103D6C009390035D808E120668E98508828509832D
:103D7C008087C3EA9426EB9400500F1209C885087B
:103D8C0082850983EAF0A3EB808B0E0E023CC17492
:103D9C000E1217EB7F040218FE74F012182C74C666
:103DAC001217D58C0A8D0B744A121820E0FE74146D
:103DBC00121820AC82AD837583907582AA7406129A
:103DCC0016E87414121820AC82AD8312060EE9F5B5
:103DDC0008C3940A4003023EE875F006E9A4F5090D
:103DEC00742C121820AC82AD837A0E742025091223
:103DFC00497A70097438121820E0FF80027F009015
:103E0C000C72E06402700474018001E4F50D780D0D
:103E1C00121A43EEFDEFFCA908AA0AAB0B12069886
:103E2C0074011217EB7C14123F237A1074242509A9
:103E3C0012497A702F124B4A702A7410121820AC47
:103E4C0082AD837A0474252509F912086C851882D1
:103E5C00851983AC82AD83EFA2E0E433F9AA0AABF7
:103E6C000B120A4C741A121820AC82AD837A12749D
:103E7C0070250812497A7053741A121820AA82AB52
:103E8C0083120644750800E50875F003A4F8A9F040
:103E9C00741A121820E58228F8E5831246E51245BB
:103EAC000BEC4D601D88828983A3A3E0F50E750F82
:103EBC0000780E121A3FAA0AAB0B120CA474021251
:103ECC0017EB0508E508C3940640BCEFA2E1500CC3
:103EDC009002B5E0F9AA0AAB0B120CAA74046E702E
:103EEC002A900C72E0640270229002C9E060047A9D
:103EFC000180027A009002B6E060047804800278B7
:103F0C0000E84AF9AA0AAB0B120B0C7900743A12AE
:103F1C0017EB7F080218FE7D007900124F05AC826A
:103F2C00AD832274F012182CEAFEEBFF8C088D097D
:103F3C00750A0AE9600C14600914602E14607F0283
:103F4C003FD5120656E9F50AC3940A507CE508459C
:103F5C00096076750E06750F00780E121A3FEEFC8E
:103F6C00EFFD1248C01217EB805F750B00750E0643
:103F7C00750F00780E121A3FEEFCEFFDE50B75F095
:103F8C000EA4F8A9F074D728FA740239FB1204B8FD
:103F9C0074021217EBE9601B850B0AE50AC3940A3D
:103FAC005027E50845096021AA08AB09A90A1206A1
:103FBC00508016050BE50BC3940A500D80AF12060A
:103FCC005CE9F50AC3940A40D9A90A023F1E74F4AD
:103FDC0012182C890875091574FF6A700374FF6B2D
:103FEC0070277E00AC087A027B00EEF9120632E9EB
:103FFC0060037509000EEEC3940A40E8E5086049B9
:10400C007A867B06120EB48040120E968A0A8B0BAF
:10401C00AE0AAF0BEE4F602E7C007D00EE2405FA4D
:10402C00EF3400FB8E828F831240D1500CAC087A97
:10403C00027B00120632750900E508600CEEFAEFFF
:10404C00FB1206868003750914A909023DA074F2BF
:10405C0012182CECFEEDFF740E1218201244FE7593
:10406C00081574FF6A700374FF6B7021750900AC3E
:10407C000AAD0BEEFAEFFBA909120638E9600375DD
:10408C0008000509E509C3940A503580E2120E9622
:10409C008A828B83E582458360237C007D00E582E8
:1040AC002405FAE5833400FB1240D15013AC0AAD61
:1040BC000BEEFAEFFB120638750800800375081436
:1040CC00A908024F00A3A3A3A3E0F912060EE9C3AB
:1040DC00940A22C082C0839002CFEAF0A3EBF09046
:1040EC0002B5E0FC7D007A257B001209C29002B576
:1040FC00E0F9120C26D083D08202012274EC121843
:10410C002C8A088B09E9FE7414121820780C1216EC
:10411C00A57F00EE702E7808121A3F9090B07810A0
:10412C001216A5780C7910121576AA10AB11AC12D8
:10413C00AD13120A5E74021217EBE9FF60097901E4
:10414C00AA08AB09120A58EFF97F0C0218FE74EAA0
:10415C0012182C74EC1217D5EAFEEBFFEE240CF5BA
:10416C0014EF3400F515EE240AF510EF3400F511B8
:10417C00EE2405F50EEF3400F50FEE2409F50AEFE9
:10418C003400F50BEE2403F508EF3400F5098E82AC
:10419C008F83A3A3E024FA70030244C724FD7003A9
:1041AC000243F614700302424514601024FD7003A0
:1041BC000243C714700302442B0244E512452A60E3
:1041CC004AE0F5838882124511880C890DE8450D6B
:1041DC006039851482851583E0F50E780E121A432A
:1041EC00EE240BF582EF3400F583E0F9850A828525
:1041FC000B8312450B0A0A0AAB09850C82850D83C9
:10420C0012182A74011217EB0244E5850A82850BF9
:10421C0083121A569002CB1216C3120A5E74021243
:10422C0017EBE970030244E57901850A82850B835B
:10423C00124D25120A580244E58E828F83A3858283
:10424C0012858313E060030243A0850E82850F83E1
:10425C00E0A2E040030243A07C0E7D0079008518AB
:10426C0082851983AA82AB831204BEEE2408F50A58
:10427C00EF3400F50B850A82F58312452D60197514
:10428C000C06750D00780C121A3F850A82850B837B
:10429C00E02410FCA3E0801A1244EFEA4B700302F6
:1042AC0044E5750C06750D00780C121A3FEA2405CE
:1042BC00FCEB3400FD7402121820AA82AB83124866
:1042CC00C41217EB850E82850F83E0A2E25004D254
:1042DC00F08002C2F0A2F0E433F8740C121820E063
:1042EC0048F085108285118312452D60158510824A
:1042FC00851183E02410F8A3E03400F988828983C7
:10430C0080039090B4780C1216A5851082851183C9
:10431C0012452D600F851082851183E0F510A3E006
:10432C00F5118006751000751100850A82850B83C6
:10433C0012452D600B850A82850B831244FE800684
:10434C00750A00750B00780C121A3B7810121A3F84
:10435C00780A121A3F851482851583121A568E829A
:10436C008F83A3124506740A121820AA82AB8312FB
:10437C00064A740A1217EB850882850983124511C7
:10438C0090035FE8F0A3E9F07A017B009002B5E0BE
:10439C00F91204FA12452A70030244E5124517700B
:1043AC00030244E5851282851383E0FC7901124DEA
:1043BC001F8E828F8312182A0244E512452A70033D
:1043CC000244E5E0F5838882A3A3124511890BE82A
:1043DC00450B70030244E58E828F83A3E0FC7902C7
:1043EC00124D1F8882850B8380CB7C007D00EE24D0
:1043FC0004FAEF3400FB850882850983E0F9120684
:10440C000EE9F8C3940A40030244E5AC10AD117AEE
:10441C000475F006E8A42425F91208660244E59018
:10442C0002CAE0600E900C75E0F98508828509835C
:10443C0002423C900C72E07004790580ED1244EF5E
:10444C008A0C8B0DA80CA90DE82404F50CE934009A
:10445C00F50D8E828F83A3A3A3A3A3A3A3E0A2E055
:10446C005036E8496073850C82850D83E0FE602828
:10447C00850A82850B83E05410701D740E1218206F
:10448C00AC82AD83E82405FAE93400FBEEF91206A0
:10449C000EE9700479038092AC0EAD0F850C828509
:1044AC000D83E0F9124D1F12069212452A602A1252
:1044BC00451760257C0079000243BA120B24E97081
:1044CC001890035EE06401700812066E90035EE4BF
:1044DC00F0795012087212066274141217EB7F0EE8
:1044EC000218FE850882850983E0FAA3E0FB120E10
:1044FC009622E0F50AA3E0F50B22A3A3A3A3A3E065
:10450C00FCA3E0FD22E0F8A3E0F922E0F583888229
:10451C00A3A3E0F8A3E0F9E8FEE9FFEE4F22900236
:10452C00CFE0F8A3E0F9E8492274F412182C74F2E5
:10453C001217D5EAFE8C0B75F006E9A42420F508B9
:10454C00851882851983AC82AD837A0E12497A70F4
:10455C004A7C06124B4C7043740C121820124511F5
:10456C00E8F509E50B6005EE42098004EEF452090A
:10457C00850982AA82E86A7001E9601B740C121822
:10458C0020EAF0A3E4F0851882851983AC82AD8310
:10459C007A0EA908120866790180027900023D9B07
:1045AC0074F212182C74E01217D5890A8A088B0938
:1045BC00ECFEEDFF741212182012496D60030246D6
:1045CC00667C0679FF7412121820124B5460030299
:1045DC0046667470250AF50B851882851983AC82A2
:1045EC00AD837A1212497A60030246AB8518828534
:1045FC001983AA82AB83120644E508450970217C15
:10460C00127900124B4E60030246AB7C127D00798E
:10461C0000851882851983AA82AB831204BE80613F
:10462C00851882851983AC82AD83AA08AB09120662
:10463C003E8A0C8B0DA80CA90DE849702CEE4F602E
:10464C0019851882851983AC82AD837A007B0012A0
:10465C00063EEAF8EBF9EA4B700479008043888255
:10466C008983E508F0A3E509F0124721FAEE6A7098
:10467C0001EF602BEEF04F700888828983E4F0A381
:10468C00F0851882851983AA82AB8312064485189B
:10469C0082851983AC82AD837A12A90B12086679D4
:1046AC00017420024EFD74F712182C7F00EF75F088
:1046BC0003A4F8A9F0EC28F8ED1246E5E06A7003C3
:1046CC00A3E06B7006E8FAE9FB800B0FEFC39406CE
:1046DC0040DB7A007B00024A1839F98882898322F0
:1046EC0074F712182C7E00EE75F003A4F8A9F0EA0A
:1046FC0028F8EB1246E5E0F4FCA3E0F4FD8882898F
:10470C0083ECF0A3EDF0124721F4F00EEEC3940607
:10471C0040D5024A18E82402F582E93400F583E01A
:10472C002274EE12182C74EE1217D5EAFEEBFF8CE5
:10473C000A8D0B7424121820E0F50CA3E0F50D740F
:10474C0026121820E0F508A3E0F5097428121820A9
:10475C00E0F510A3E0F511EE4F7005790A0248520E
:10476C00120656E9F50EC3940A4023750F007C0619
:10477C0079FFE50F75F00EA4FAABF074D12AFA7438
:10478C00023BFB124B58700302485C850F0EE50E82
:10479C00C3940A400302485075F006E50EA4F50FC9
:1047AC00EEFCEFFD7A0E742012486DE50A450B60A5
:1047BC000BAC0AAD0B7A1B742112486DE50C450D40
:1047CC00600BAC0CAD0D7A1B742212486DE50845DC
:1047DC0009600BAC08AD097A10742312486DE51012
:1047EC004511601BAC10AD117A10742412486D7415
:1047FC002A121820AC82AD837A04742512486D7C81
:10480C00127D0079FF123F277A127470250EF9126F
:10481C00086675080E7509007808121A3FEEFCEF51
:10482C00FDE50E75F00EA4F8A9F074D128FA740207
:10483C0039FB1248C41217EB90035DE060031206BB
:10484C009E12068CA90E74121217EB7F0A0218FE28
:10485C00050FE50FC3940A500302477A750E0A80C0
:10486C00E3250FF91208662274F412182C74F21254
:10487C0017D5EAFEEBFFE9C3940A5004EE4F70041F
:10488C007902802D85188285198312496DF508707F
:10489C001E750A06750B00780A121A3F740212185C
:1048AC0020AC82AD83EEFAEFFB1248C41217EBA9D1
:1048BC0008023D9BAA08AB091204A674022274F4E8
:1048CC0012182CEAFEEBFF750800750A06750B0032
:1048DC00780A121A3FEEFCEFFDE50875F00EA4F80D
:1048EC00A9F074D128FA740239FB1204B8740212BC
:1048FC0017EBE96004A908800B0508E508C3940AC6
:10490C0040C8790A023DA074F712182C74F01217E3
:10491C00D5EAFEEBFF750800851882851983AC82F9
:10492C00AD837A1075F006E508A4242312497A7039
:10493C001D124B4A7018EEFCEFFD85188285198309
:10494C00AA82AB83120A2EE97004A908800B050811
:10495C00E508C3940A40C1790A74101217EB024A95
:10496C0018AC82AD837A0E75F006E9A42420F912F6
:10497C00086CE92274F712182C750800E50875F01C
:10498C000EA4F8A9F074D128FE740239FFEEFCEFE6
:10499C00FD7A0E75F006E508124977602C7C067DD1
:1049AC000079FFEEFAEFFB1204BE7C067D0079FF66
:1049BC00EE2406FAEF3400FB1204BEEE240CF58252
:1049CC00EF3400F583E4F0A3F00508E508C3940A7E
:1049DC0040AA90035DE0600312069E12068C802CA8
:1049EC0074F712182C7E007F007C0679FFEF75F0AF
:1049FC000EA4FAABF074D12AFA74023BFB124B589A
:104A0C0070010E0FEFC3940A40DFEEF97F0102181C
:104A1C00FE74F712182C7E00EEF91206740EEEC31B
:104A2C00940A5003E960F180E374F312182C74C5F6
:104A3C001217D5E9FF75F006A4F50874202508FEB9
:104A4C00741B121820AC82AD837A0EEE12497A6078
:104A5C0003024B3B7C0679FF741B121820124B543B
:104A6C006003024B3B7C0E7D0079FF741B121820F7
:104A7C00AA82AB831204BE7C1B7D0079FF85188251
:104A8C00851983AA82AB831204BE7C127D0079FF48
:104A9C007429121820AA82AB831204BE741B12183C
:104AAC0020AC82AD837A0EEEF9120866E9F5098521
:104ABC001882851983AC82AD837A1B7421124B5DED
:104ACC00FE851882851983AC82AD837A1B74221201
:104ADC004B5DF50A851882851983AC82AD837A10FB
:104AEC007423124B5DF50B851882851983AC82AD4E
:104AFC00837A107424124B5DF50C8518828519830A
:104B0C00AC82AD837A047425124B5DF508742912BE
:104B1C001820AC82AD837A1274702FF9120866E9F2
:104B2C00F8EE450A450B450C4508484209800375CB
:104B3C000900A909743B1217EB7F050218FE7C10C3
:104B4C0079FF851882851983AA82AB8312051EE929
:104B5C00222508F9120866E92274F712182CE9903C
:104B6C0002B5F0120662024A1874F212182C74FB89
:104B7C001217D58A088B09EB54807003024C1990DC
:104B8C0002B5E0F91204E28A0A8B0BA80AA90BE819
:104B9C00FEE9FFE849606CEE2404F8EF3400F98E6E
:104BAC00828F83E02450603814600624E1604A80D0
:104BBC004B88828983E070448E828F83A3A3A3A346
:104BCC00A3A3A3121A568E828F831245068E828F50
:104BDC0083A3A3124D2512061A74021217EB801C24
:104BEC0088828983E0641E701379008E828F83A380
:104BFC00A3124D25120614800312062CEEFAEFFBBD
:104C0C001204D0AA08E5096480FB024D1AEAA2E05E
:104C1C004003024D1690035F1244FE7403121820D9
:104C2C0085820C85830D780C121A3F750C02750D5C
:104C3C0000780C121A3F750C68750D91780C121ACD
:104C4C003F7CFF7DFF7A017B00120B7E74061217EE
:104C5C00EB024CFEE4F50CF50D780C121A3F7404C3
:104C6C0012182085820C85830D780C121A3F74045F
:104C7C0012182085820C85830D780C121A3F74094A
:104C8C00121820121A567902EEFCEFFDAA0AAB0B91
:104C9C00120C9874081217EBE97035851882851977
:104CAC0083E0FA7401121820E0F9EA2400F50CE410
:104CBC0039F50DEA450D6018780C121A3F8E828F6B
:104CCC0083124507AA0AAB0B12061A74021217EBD1
:104CDC00E4F50CF50D780C121A3F7405121820121D
:104CEC001A567CFF7DFFEEFAEFFB120B8A7404124E
:104CFC0017EB8A0C8B0DAE0CAF0DEE4F6003024C14
:104D0C0060E5086401FAAB0980047A007B00740545
:104D1C00024EFD850882850983E0FAA3E0FB22C0E0
:104D2C0082C0839002B5E0F98A828B83A3124D2551
:104D3C00120CAA024101C082C08374FF1217D51253
:104D4C000668E9C3940285188285198340047402AD
:104D5C008002740AF0AC82AD837A017905120B3CA7
:104D6C0074011217EB02410174F212182C74E81240
:104D7C0017D5EAFEEBFF890A8C088D097C187D009B
:104D8C007900124F05EEF0A3EFF09002B7E0C0E00F
:104D9C007402121820D0E0F09002B8E0C0E0740366
:104DAC00121820D0E0F0900C77E0C0E074171218C5
:104DBC0020D0E0F07415121820E054FEF8A3E0F9AE
:104DCC00900C76E0A2E0E433FAE84AF87415121875
:104DDC0020124F20A2E15004D2F08002C2F0E8541D
:104DEC00FDFAA2F0E43333F8EA48F87415121820EF
:104DFC00124F20A2E35004D2F08002C2F0E854F724
:104E0C00FAA2F0E433F50C750D007403780C12174C
:104E1C00C2124F19121820124F20A2E45004D2F0E3
:104E2C008002C2F0E854EFFAA2F0E433F50C7404FB
:104E3C00780C1217C2124F19121820124F20A2E52B
:104E4C005004D2F08002C2F0E854DFFAA2F0E4334E
:104E5C00F50C7405780C1217C2124F191218201287
:104E6C004F20A2E25004D2F08002C2F0E854FBFAC8
:104E7C00A2F0E433F50C7402780C1217C2124F191D
:104E8C00121820E8F0A3E9F09002B8E0601B750C52
:104E9C0010780C121A3F7CB97D027406121820AAE5
:104EAC0082AB831248C41217EB9002C9E06011E583
:104EBC000A60097415121820E04402F0780180028F
:104ECC0078007414121820E048F09002B6E06004E8
:104EDC007804800278007414121820E048F0AC08B2
:104EEC00AD09851882851983AA82AB83120A527484
:104EFC00181217EB7F060218FE851882851983AAF3
:104F0C0082AB831204BE85188285198322EA450C74
:104F1C00F8741522E8F0A3E9F0900C76E02274F313
:104F2C0012182C74E51217D5EAFEEBFF8C098D0ACA
:104F3C007428121820E0F50C75F006E9A4F8740832
:104F4C00650A700474228002742128F50B7C1B12F4
:104F5C003F237A1BA90B12497B7032741A1218204A
:104F6C00E024F9C3940A5025E50CF50B780B121AC2
:104F7C00437401121820AC82AD83E509A2E0E4333E
:104F8C00F9EEFAEFFB120A6474011217EB741B02B0
:104F9C004B4274F712182C120D16750800E50875A3
:104FAC00F00EA4F8A9F074D128FE740239FF7C0627
:104FBC0079FFEEFAEFFB124B587009EEFAEFFB7922
:104FCC0000120D1C0508E508C3940A40D0024A18CB
:104FDC00C082C0839061907404F0A37448F0A3E481
:104FEC00F09061807440F09061BC7407F090618720
:104FFC007469F09061B67416F07900120F8C790216
:10500C00120F929022CCE493F46006E493F9120F01
:10501C0068790512128002541EC082C083E9540FB5
:10502C00F9906185E0696012E5C654804449F5C683
:10503C00E59E547F644970F8E9F053C680E59E54B0
:10504C007F70FA02541E74F712182CE5A8FE53A8B0
:10505C007E120F74C2BA539AFEC289759B00C2C2EB
:10506C00120F7A75A91175B905120F80D2BA439A2D
:10507C000174805E42A80259ABC082C083906181EA
:10508C00E4F0A302541B75E90075910075BF000292
:10509C000122C082C083906181E4F0A374C0F0A3AC
:1050AC00E402541DC082C08374F81217D590080016
:1050BC0012588DE8497003025167900800E0544083
:1050CC0060237908851882851983AA82AB83121014
:1050DC0082851882851983AA82AB83120D349008BD
:1050EC0000E054BFF0E054806010790C7ABC7B096E
:1050FC00121082900800E0547FF0E0A2E050087992
:10510C000012516F54FEF0E0540260087901125104
:10511C006F54FDF0E054046008790012517A54FB8E
:10512C00F0E054086008790112517A54F7F0E05419
:10513C00106008790212517A54EFF0E054206008A4
:10514C00790312517A54DFF0A3E05401600D120F71
:10515C009E120D46900801E054FEF074081217EBF5
:10516C0002541E120F8C120D3A900800E022120FFE
:10517C0092120D40900800E022C082C083E96005C5
:10518C0014602A804F90619A7433F0A37455F09098
:10519C0061A0743AF0900998E064017009C2919092
:1051AC0008027467802D9008027461802690619AC1
:1051BC00743FF0A3745AF09061A0747FF09009983A
:1051CC00E064017009D29190080274718005900816
:1051DC0002746AF002541EC082C083E9600B146032
:1051EC000D14600F14601180209022D08015902235
:1051FC00D180109022D2800B900998E0640160F36A
:10520C009022D3E493906186F002541E74EE12182F
:10521C002C74F41217D5851882851983AC82AD8352
:10522C007583907582D074041216E89022D093F492
:10523C0060030253AA907808E0C39402500302530F
:10524C008A7404121820AC82AD83758390758276B3
:10525C0074081216E8F97AFF7BFF7FFF7E008982C3
:10526C00858210801874086E700302533F74096EA7
:10527C00700302533F740A6E700302533FE510C370
:10528C0033FCE433FD7404121820E5822CF582E51E
:10529C00833DF583E0F50EA3E0F50F8E087509004C
:1052AC00740278081217C274482508FC7478350902
:1052BC00FD8C828D8378081216A574087808121557
:1052CC00E685080C85090D8C828D8378081216A54D
:1052DC00741878081215E6E50C4508F508E50DF587
:1052EC0009C3E50E9508E50F95098C828D83780826
:1052FC001216A58C828D8378081216A5741878085E
:10530C0040141215E6E50C4508FCAD0DE50EC39CEA
:10531C00FCE50F9D800F1215E6E50C4508C3950EB4
:10532C00FCE50D950FFDC3EC9AED9B5006ECFAEDE8
:10533C00FBEEFF0EEEC39413500302527174FF6A1E
:10534C00700374FF6B602D8F08740278081217C2FB
:10535C00744812603974783509F58378081216A5EB
:10536C00851882851983E5822510F582E583125D07
:10537C00C6E508F009E9C3940450030252627508AB
:10538C00017509007808121A3F7402121820AC82B9
:10539C00AD837AB47B081206E674021217EB740C18
:1053AC001217EB7F0A0218FEC082C083906186E060
:1053BC00F89022D3E4936870099022D2E493906120
:1053CC0086F09061AE7468F0A3746AF090624574D4
:1053DC00FBF0A304F053F4FD43FE02900998740112
:1053EC00F09061A0E0643A700479008002790112B7
:1053FC000F8C02541EC082C08390094AE064017075
:10540C000A90094FE06004790C800279008003F067
:10541C00A3F0D083D082020122C082C08375E1F157
:10542C0090094DE0604D146008146051146049807F
:10543C0051120FB0900943E0F97A447B0912120221
:10544C009090C81216C31212389090E01216C31224
:10545C00120E90094EE0F912121A79011212749080
:10546C000941E024161255B374C8F0A3740FF079F7
:10547C0000809F120FB680BC120FBC80B7120FC2F7
:10548C0080B2791280EB74F412182C75D90D900936
:10549C0032E0A2E0E4331313F812551F484401F52F
:1054AC00D9780012559D40FB78008808743312603F
:1054BC003974091255A740F275E195900932E0F95B
:1054CC007A337B09121208900EDD743EF0A3740F30
:1054DC001255C21255E21255D912571A1255297883
:1054EC00081216A59090C478081216319090D878AE
:1054FC000812167F1255AD78081216B4900941E0C7
:10550C0024141255B37413F09007FE7402F07F0448
:10551C000218FE900943E0C4333354C02290094171
:10552C00E0F8A3E0F5838882A3A32274F612182C6A
:10553C001256EB8AD9780012559D40FB78008006F4
:10554C0012565112579DE8C39940F51256DD12556B
:10555C009D40FB78008008126035740912579DE855
:10556C00C39940F375E195900EDD744AF0A3740F66
:10557C001255C21255CC1216C31255AD1216CF903D
:10558C000941E024141255B37412F09007FE02592D
:10559C0088880874442508F58274091258F9940611
:1055AC0022900941E0240EF8A3E01255BA223400EF
:1055BC00F988828983221257037444F0A3740F2252
:1055CC001255E21255D912571E9090B422F0A374C2
:1055DC005CF0A3740F221255E6221255EA22F0A3B6
:1055EC0074EEF0A374102274F612182C1256461294
:1055FC00551F4402F5D9780012559D40FB78008068
:10560C000612565112579DE8C39940F575E19590D5
:10561C000EDD12565CF0A312565C1255CF1216C357
:10562C001255AD1216CF900941E024141255B374E3
:10563C0014F09007FE740402598A900953E0F9742F
:10564C000729F5D922880874542508F58274092293
:10565C007456125669125669F0A3740F22F0A37493
:10566C000FF0A374562274F612182C1256EB740613
:10567C004AF5D9780012559D40FB780080061256E9
:10568C005112579DE8C39940F51256DD12559D40B5
:10569C00FB78008008126035740912579DE8C39995
:1056AC0040F375E195900EDD7450F0A3740F125613
:1056BC00F91255CC1216C31255AD1216CF900941E2
:1056CC00E024141255B37415F09007FE74030259BC
:1056DC008A90097312564974044AF5D9780022123B
:1056EC005646900943E0C4333354C0FA2212570390
:1056FC0074EEF0A37410221257072212571474EE92
:10570C00F0A37410125714221255EAF0A322125768
:10571C001E22F0900EEB74EEF0A374101257077467
:10572C00EEF0A374101255E6F022C082C08312551D
:10573C0029A3A3A3A3E402541B74F712182C12621E
:10574C007BF8740839F9E82405FAE93400FB8A82FD
:10575C008B83125FEA88828983A3A3A3A3A3A3A349
:10576C00A3A3ECF0A3EDF088828983A3A3A3A3A346
:10577C00A3A3E024FFF8A3E034FFF98A828B83E82B
:10578C00F0A3E9F00259AB8808749C2508F58274E3
:10579C0009125F11F5D90822EAFEEBFF9061D0E007
:1057AC00F87480C398FAEE2483221257BC94042216
:1057BC00125DD4E0F5D90AEAC32274F612182CEA69
:1057CC00FEEBFF9061D0E0707575D90E75D903753D
:1057DC00D9047A008A08EE2508126349248C1258E1
:1057EC005F40F17A008A08EE25081263492484127E
:1057FC0057B640F175E1957908EE248C125858246F
:10580C008412584F7C008C82AA82C3E49AF895E0EB
:10581C00F9EE28F8EF39F9E8248BF582E9125F0DDF
:10582C00C0E0EE2A12634924ABF582E9125DC6D0C2
:10583C00E0F00CECC3940840CD12591580027900AD
:10584C0002598BFAEF3400FB1210762212584F7962
:10585C0004EE221257BC940822C082C08375D90270
:10586C0075D90375D90575E195EA2470F582EB12AB
:10587C00588AEA2472F582EB12592702541E125DE3
:10588C00D712589122E0F8A3E0F92274F612182CE2
:10589C00EAFEEBFF90099C7406125903121A3F7C26
:1058AC00017903125C2F1217EB75D90675D90378A1
:1058BC00001258E940FB75E1959007FEE064087012
:1058CC0017EE2470F582EF12588AEE2472F582EFEF
:1058DC00125DC6E8F0A3E9F0790102598B880874CF
:1058EC009C2508F58274091258F9940522125DD78B
:1058FC00E0F5D908E8C322F075089C750909780809
:10590C002275E195790412123EEE2470F582EF12A5
:10591C005DD7125891EE2472F582EF125DD7E8F044
:10592C00A3E9F079012274F612182CEAFEEBFF9031
:10593C0061D0E07043790190099C740BF09007FEE4
:10594C00E06407701775089C7509097808121A3FEE
:10595C007C010909125C2F1217EB7905740129F5EA
:10596C00D975D90378008003125793E8C39940F88E
:10597C0075E1951259158002790080037401F07F4E
:10598C00020218FE74F712182CEAFEEBFF75D9030D
:10599C0075D90375D90DEE24DE1259B012590D7F4D
:1059AC00010218FEF582EF125F11F5D9227F030276
:1059BC0018FE7401250AF5D975D90378002274F5FF
:1059CC0012182C125A3F6004780480027800E824E4
:1059DC000BF8EAC3984041750A0990099C7409F0C8
:1059EC007908125A28601475089C750909780812F0
:1059FC001A3F125C271217EB750A0D1259BE800361
:105A0C00125793E8C3950A40F775E1957904121281
:105A1C003E125BA47901800279008091EE24E3FCB4
:105A2C00EF3400FD7A9D7B09121070850882850980
:105A3C0083E0221257A4F8EF125FDEF583E02274A4
:105A4C00F312182C8A088B09125C3AFAE5082483A5
:105A5C00F50AEB125B096004780480027800E824F4
:105A6C0008F8EAC3985003025B02750C0690099C77
:105A7C00740CF090081BE090099DF07402C0E0F9E2
:105A8C007C1C7D087A9E7B09121070D0E0F97C1E7C
:105A9C007D08121070850A82850B83E0601C750AE4
:105AAC009C750B09780A121A3F7C067903AA08AB7D
:105ABC0009125C2F1217EB750C0A7401250CF5D921
:105ACC0075D90378008009880A749C250A125799A5
:105ADC00E8C3950C40F175E195790412123EE50886
:105AEC002470F582E50912588AE5082472F582E5DE
:105AFC0009125927800279007F050218FE3400F53F
:105B0C000B850A82F583E02274F612182CEAFEEB60
:105B1C00FF125C3AFCEE2483F8EF125C3560047AD9
:105B2C000480027A00EA2404FAECC39A405E7A02FA
